{
  "address": "0x17a68154B8dAf28Fe45F85157169Afe182870E1f",
  "abi": [
    {
      "inputs": [
        {
          "internalType": "uint256",
          "name": "deadline",
          "type": "uint256"
        },
        {
          "internalType": "bytes",
          "name": "params",
          "type": "bytes"
        },
        {
          "internalType": "address",
          "name": "",
          "type": "address"
        },
        {
          "internalType": "uint256",
          "name": "bidPrice",
          "type": "uint256"
        },
        {
          "internalType": "uint256",
          "name": "bestBidPrice",
          "type": "uint256"
        },
        {
          "internalType": "uint256",
          "name": "",
          "type": "uint256"
        }
      ],
      "name": "canBid",
      "outputs": [
        {
          "internalType": "bool",
          "name": "",
          "type": "bool"
        }
      ],
      "stateMutability": "view",
      "type": "function"
    },
    {
      "inputs": [
        {
          "internalType": "uint256",
          "name": "deadline",
          "type": "uint256"
        },
        {
          "internalType": "bytes",
          "name": "",
          "type": "bytes"
        },
        {
          "internalType": "address",
          "name": "",
          "type": "address"
        },
        {
          "internalType": "uint256",
          "name": "",
          "type": "uint256"
        }
      ],
      "name": "canExecute",
      "outputs": [
        {
          "internalType": "bool",
          "name": "",
          "type": "bool"
        }
      ],
      "stateMutability": "view",
      "type": "function"
    }
  ],
  "transactionHash": "0x283a75d658f2ee691332e1723a0b12c52076f8f84699573d3e22270456dc2503",
  "args": [],
  "solcInputHash": "562d54fd37b762a2a427a74d200d6661",
  "bytecode": "0x608060405234801561001057600080fd5b506102e4806100206000396000f3fe608060405234801561001057600080fd5b50600436106100365760003560e01c80636281869a1461003b578063e01be26314610062575b600080fd5b61004e610049366004610227565b61007b565b604051901515815260200160405180910390f35b61004e6100703660046101ca565b438410949350505050565b6000808680602001905181019061009291906101b2565b9050600081116100e85760405162461bcd60e51b815260206004820152601a60248201527f53484f59553a20494e56414c49445f53544152545f5052494345000000000000604482015260640160405180910390fd5b8743111580156100f85750808510155b801561010357508385115b98975050505050505050565b80356001600160a01b038116811461012657600080fd5b919050565b600082601f83011261013b578081fd5b813567ffffffffffffffff8082111561015657610156610298565b604051601f8301601f19908116603f0116810190828211818310171561017e5761017e610298565b81604052838152866020858801011115610196578485fd5b8360208701602083013792830160200193909352509392505050565b6000602082840312156101c3578081fd5b5051919050565b600080600080608085870312156101df578283fd5b84359350602085013567ffffffffffffffff8111156101fc578384fd5b6102088782880161012b565b9350506102176040860161010f565b9396929550929360600135925050565b60008060008060008060c0878903121561023f578182fd5b86359550602087013567ffffffffffffffff81111561025c578283fd5b61026889828a0161012b565b9550506102776040880161010f565b9350606087013592506080870135915060a087013590509295509295509295565b634e487b7160e01b600052604160045260246000fdfea26469706673582212209cf49772b7d74cc59996076ef27f7943cd6727c56838e563b14cd3a2a262c5a764736f6c63430008030033",
  "devdoc": {
    "kind": "dev",
    "methods": {},
    "version": 1
  },
  "userdoc": {
    "kind": "user",
    "methods": {},
    "version": 1
  },
  "storageLayout": {
    "storage": [],
    "types": null
  }
}