{
  "address": "0x8FdA13BE0AFdBbc28c751A4135EeBdb56F1695C7",
  "abi": [
    {
      "inputs": [
        {
          "internalType": "address",
          "name": "factory_",
          "type": "address"
        }
      ],
      "stateMutability": "nonpayable",
      "type": "constructor"
    },
    {
      "anonymous": false,
      "inputs": [
        {
          "indexed": true,
          "internalType": "bytes32",
          "name": "hash",
          "type": "bytes32"
        },
        {
          "indexed": false,
          "internalType": "address",
          "name": "bidder",
          "type": "address"
        },
        {
          "indexed": false,
          "internalType": "uint256",
          "name": "amount",
          "type": "uint256"
        },
        {
          "indexed": false,
          "internalType": "uint256",
          "name": "price",
          "type": "uint256"
        },
        {
          "indexed": false,
          "internalType": "address",
          "name": "recipient",
          "type": "address"
        },
        {
          "indexed": false,
          "internalType": "address",
          "name": "referrer",
          "type": "address"
        }
      ],
      "name": "Bid",
      "type": "event"
    },
    {
      "anonymous": false,
      "inputs": [
        {
          "indexed": true,
          "internalType": "bytes32",
          "name": "hash",
          "type": "bytes32"
        }
      ],
      "name": "Cancel",
      "type": "event"
    },
    {
      "anonymous": false,
      "inputs": [
        {
          "indexed": true,
          "internalType": "bytes32",
          "name": "hash",
          "type": "bytes32"
        },
        {
          "indexed": false,
          "internalType": "address",
          "name": "bidder",
          "type": "address"
        },
        {
          "indexed": false,
          "internalType": "uint256",
          "name": "amount",
          "type": "uint256"
        },
        {
          "indexed": false,
          "internalType": "uint256",
          "name": "price",
          "type": "uint256"
        },
        {
          "indexed": false,
          "internalType": "address",
          "name": "recipient",
          "type": "address"
        },
        {
          "indexed": false,
          "internalType": "address",
          "name": "referrer",
          "type": "address"
        }
      ],
      "name": "Execute",
      "type": "event"
    },
    {
      "inputs": [],
      "name": "DOMAIN_SEPARATOR",
      "outputs": [
        {
          "internalType": "bytes32",
          "name": "",
          "type": "bytes32"
        }
      ],
      "stateMutability": "view",
      "type": "function"
    },
    {
      "inputs": [
        {
          "internalType": "bytes32",
          "name": "",
          "type": "bytes32"
        }
      ],
      "name": "amountFilled",
      "outputs": [
        {
          "internalType": "uint256",
          "name": "",
          "type": "uint256"
        }
      ],
      "stateMutability": "view",
      "type": "function"
    },
    {
      "inputs": [
        {
          "internalType": "bytes32",
          "name": "",
          "type": "bytes32"
        }
      ],
      "name": "bestBid",
      "outputs": [
        {
          "internalType": "address",
          "name": "bidder",
          "type": "address"
        },
        {
          "internalType": "uint256",
          "name": "amount",
          "type": "uint256"
        },
        {
          "internalType": "uint256",
          "name": "price",
          "type": "uint256"
        },
        {
          "internalType": "address",
          "name": "recipient",
          "type": "address"
        },
        {
          "internalType": "address",
          "name": "referrer",
          "type": "address"
        },
        {
          "internalType": "uint256",
          "name": "blockNumber",
          "type": "uint256"
        }
      ],
      "stateMutability": "view",
      "type": "function"
    },
    {
      "inputs": [
        {
          "components": [
            {
              "internalType": "address",
              "name": "signer",
              "type": "address"
            },
            {
              "internalType": "address",
              "name": "token",
              "type": "address"
            },
            {
              "internalType": "uint256",
              "name": "tokenId",
              "type": "uint256"
            },
            {
              "internalType": "uint256",
              "name": "amount",
              "type": "uint256"
            },
            {
              "internalType": "address",
              "name": "strategy",
              "type": "address"
            },
            {
              "internalType": "address",
              "name": "currency",
              "type": "address"
            },
            {
              "internalType": "address",
              "name": "recipient",
              "type": "address"
            },
            {
              "internalType": "uint256",
              "name": "deadline",
              "type": "uint256"
            },
            {
              "internalType": "bytes",
              "name": "params",
              "type": "bytes"
            },
            {
              "internalType": "uint8",
              "name": "v",
              "type": "uint8"
            },
            {
              "internalType": "bytes32",
              "name": "r",
              "type": "bytes32"
            },
            {
              "internalType": "bytes32",
              "name": "s",
              "type": "bytes32"
            }
          ],
          "internalType": "struct Orders.Ask",
          "name": "askOrder",
          "type": "tuple"
        },
        {
          "internalType": "uint256",
          "name": "bidAmount",
          "type": "uint256"
        },
        {
          "internalType": "uint256",
          "name": "bidPrice",
          "type": "uint256"
        },
        {
          "internalType": "address",
          "name": "bidRecipient",
          "type": "address"
        },
        {
          "internalType": "address",
          "name": "bidReferrer",
          "type": "address"
        }
      ],
      "name": "bid",
      "outputs": [
        {
          "internalType": "bool",
          "name": "executed",
          "type": "bool"
        }
      ],
      "stateMutability": "nonpayable",
      "type": "function"
    },
    {
      "inputs": [
        {
          "components": [
            {
              "internalType": "address",
              "name": "signer",
              "type": "address"
            },
            {
              "internalType": "address",
              "name": "token",
              "type": "address"
            },
            {
              "internalType": "uint256",
              "name": "tokenId",
              "type": "uint256"
            },
            {
              "internalType": "uint256",
              "name": "amount",
              "type": "uint256"
            },
            {
              "internalType": "address",
              "name": "strategy",
              "type": "address"
            },
            {
              "internalType": "address",
              "name": "currency",
              "type": "address"
            },
            {
              "internalType": "address",
              "name": "recipient",
              "type": "address"
            },
            {
              "internalType": "uint256",
              "name": "deadline",
              "type": "uint256"
            },
            {
              "internalType": "bytes",
              "name": "params",
              "type": "bytes"
            },
            {
              "internalType": "uint8",
              "name": "v",
              "type": "uint8"
            },
            {
              "internalType": "bytes32",
              "name": "r",
              "type": "bytes32"
            },
            {
              "internalType": "bytes32",
              "name": "s",
              "type": "bytes32"
            }
          ],
          "internalType": "struct Orders.Ask",
          "name": "askOrder",
          "type": "tuple"
        },
        {
          "components": [
            {
              "internalType": "bytes32",
              "name": "askHash",
              "type": "bytes32"
            },
            {
              "internalType": "address",
              "name": "signer",
              "type": "address"
            },
            {
              "internalType": "uint256",
              "name": "amount",
              "type": "uint256"
            },
            {
              "internalType": "uint256",
              "name": "price",
              "type": "uint256"
            },
            {
              "internalType": "address",
              "name": "recipient",
              "type": "address"
            },
            {
              "internalType": "address",
              "name": "referrer",
              "type": "address"
            },
            {
              "internalType": "uint8",
              "name": "v",
              "type": "uint8"
            },
            {
              "internalType": "bytes32",
              "name": "r",
              "type": "bytes32"
            },
            {
              "internalType": "bytes32",
              "name": "s",
              "type": "bytes32"
            }
          ],
          "internalType": "struct Orders.Bid",
          "name": "bidOrder",
          "type": "tuple"
        }
      ],
      "name": "bid",
      "outputs": [
        {
          "internalType": "bool",
          "name": "executed",
          "type": "bool"
        }
      ],
      "stateMutability": "nonpayable",
      "type": "function"
    },
    {
      "inputs": [
        {
          "internalType": "address",
          "name": "nft",
          "type": "address"
        }
      ],
      "name": "canTrade",
      "outputs": [
        {
          "internalType": "bool",
          "name": "",
          "type": "bool"
        }
      ],
      "stateMutability": "view",
      "type": "function"
    },
    {
      "inputs": [
        {
          "components": [
            {
              "internalType": "address",
              "name": "signer",
              "type": "address"
            },
            {
              "internalType": "address",
              "name": "token",
              "type": "address"
            },
            {
              "internalType": "uint256",
              "name": "tokenId",
              "type": "uint256"
            },
            {
              "internalType": "uint256",
              "name": "amount",
              "type": "uint256"
            },
            {
              "internalType": "address",
              "name": "strategy",
              "type": "address"
            },
            {
              "internalType": "address",
              "name": "currency",
              "type": "address"
            },
            {
              "internalType": "address",
              "name": "recipient",
              "type": "address"
            },
            {
              "internalType": "uint256",
              "name": "deadline",
              "type": "uint256"
            },
            {
              "internalType": "bytes",
              "name": "params",
              "type": "bytes"
            },
            {
              "internalType": "uint8",
              "name": "v",
              "type": "uint8"
            },
            {
              "internalType": "bytes32",
              "name": "r",
              "type": "bytes32"
            },
            {
              "internalType": "bytes32",
              "name": "s",
              "type": "bytes32"
            }
          ],
          "internalType": "struct Orders.Ask",
          "name": "order",
          "type": "tuple"
        }
      ],
      "name": "cancel",
      "outputs": [],
      "stateMutability": "nonpayable",
      "type": "function"
    },
    {
      "inputs": [
        {
          "components": [
            {
              "internalType": "address",
              "name": "signer",
              "type": "address"
            },
            {
              "internalType": "address",
              "name": "token",
              "type": "address"
            },
            {
              "internalType": "uint256",
              "name": "tokenId",
              "type": "uint256"
            },
            {
              "internalType": "uint256",
              "name": "amount",
              "type": "uint256"
            },
            {
              "internalType": "address",
              "name": "strategy",
              "type": "address"
            },
            {
              "internalType": "address",
              "name": "currency",
              "type": "address"
            },
            {
              "internalType": "address",
              "name": "recipient",
              "type": "address"
            },
            {
              "internalType": "uint256",
              "name": "deadline",
              "type": "uint256"
            },
            {
              "internalType": "bytes",
              "name": "params",
              "type": "bytes"
            },
            {
              "internalType": "uint8",
              "name": "v",
              "type": "uint8"
            },
            {
              "internalType": "bytes32",
              "name": "r",
              "type": "bytes32"
            },
            {
              "internalType": "bytes32",
              "name": "s",
              "type": "bytes32"
            }
          ],
          "internalType": "struct Orders.Ask",
          "name": "askOrder",
          "type": "tuple"
        }
      ],
      "name": "claim",
      "outputs": [],
      "stateMutability": "nonpayable",
      "type": "function"
    },
    {
      "inputs": [],
      "name": "factory",
      "outputs": [
        {
          "internalType": "address",
          "name": "",
          "type": "address"
        }
      ],
      "stateMutability": "view",
      "type": "function"
    },
    {
      "inputs": [
        {
          "internalType": "bytes32",
          "name": "",
          "type": "bytes32"
        }
      ],
      "name": "isCancelled",
      "outputs": [
        {
          "internalType": "bool",
          "name": "",
          "type": "bool"
        }
      ],
      "stateMutability": "view",
      "type": "function"
    },
    {
      "inputs": [],
      "name": "royaltyFeeInfo",
      "outputs": [
        {
          "internalType": "address",
          "name": "",
          "type": "address"
        },
        {
          "internalType": "uint8",
          "name": "",
          "type": "uint8"
        }
      ],
      "stateMutability": "view",
      "type": "function"
    }
  ],
  "transactionHash": "0xb289305ae9888f4284f57303e450322847832abb443b6ec7e16287729c62f691",
  "args": [
    "0x0BB64c44852ACc01a571f199d6EF0662b02b5A75"
  ],
  "solcInputHash": "0056a31e1c0a7327389c58e1bb166d1c",
  "bytecode": "0x60c06040523480156200001157600080fd5b506040516200248638038062002486833981016040819052620000349162000320565b6200003e6200012c565b6001600160601b0319606082901b1660a05260408051808201825260018152603160f81b6020918201529051469162000108917f8b73c3c69bb8fe3d512ecc4cf759cc79239f7b179b0ffacaa9a75d522b39400f917f4fdf0620a3532af4c8ec18e6d2bb1998fa95f9f32c9175ffa457343d5d92efbc917fc89efdaa54c0f20c7adf612882df0950f5a951637e0307cdcb4c672f298b8bc69186913091019485526020850193909352604084019190915260608301526001600160a01b0316608082015260a00190565b60408051601f19818403018152919052805160209091012060805250620003509050565b600054610100900460ff168062000146575060005460ff16155b6200019e5760405162461bcd60e51b815260206004820152602e60248201526000805160206200246683398151915260448201526d191e481a5b9a5d1a585b1a5e995960921b60648201526084015b60405180910390fd5b600054610100900460ff16158015620001c1576000805461ffff19166101011790555b620001cb620001e1565b8015620001de576000805461ff00191690555b50565b600054610100900460ff1680620001fb575060005460ff16155b6200024f5760405162461bcd60e51b815260206004820152602e60248201526000805160206200246683398151915260448201526d191e481a5b9a5d1a585b1a5e995960921b606482015260840162000195565b600054610100900460ff1615801562000272576000805461ffff19166101011790555b620001cb600054610100900460ff168062000290575060005460ff16155b620002e45760405162461bcd60e51b815260206004820152602e60248201526000805160206200246683398151915260448201526d191e481a5b9a5d1a585b1a5e995960921b606482015260840162000195565b600054610100900460ff1615801562000307576000805461ffff19166101011790555b600180558015620001de576000805461ff001916905550565b60006020828403121562000332578081fd5b81516001600160a01b038116811462000349578182fd5b9392505050565b60805160a05160601c6120d262000394600039600081816102370152818161075401528181610bcf0152610f0b01526000818160d70152610cc001526120d26000f3fe608060405234801561001057600080fd5b50600436106100a85760003560e01c8063559f05dc11610071578063559f05dc146101415780635771f9971461015457806375e6590f146101e75780639a5d440714610207578063c45a01551461022a578063def2716414610261576100a8565b8062893bf8146100ad5780630935d663146100c25780633644e515146100d557806344f09d111461010a57806350bf994a1461012d575b600080fd5b6100c06100bb366004611c9e565b610274565b005b6100c06100d0366004611c9e565b610370565b7f00000000000000000000000000000000000000000000000000000000000000005b6040519081526020015b60405180910390f35b61011d610118366004611da4565b6106e3565b6040519015158152602001610101565b604080516000808252602082015201610101565b61011d61014f366004611be9565b610732565b6101a8610162366004611c5e565b60026020819052600091825260409091208054600182015492820154600383015460048401546005909401546001600160a01b0393841695949293918216929091169086565b604080516001600160a01b03978816815260208101969096528501939093529084166060840152909216608082015260a081019190915260c001610101565b6100f76101f5366004611c5e565b60046020526000908152604090205481565b61011d610215366004611c5e565b60036020526000908152604090205460ff1681565b6040516001600160a01b037f0000000000000000000000000000000000000000000000000000000000000000168152602001610101565b61011d61026f366004611cd1565b6107d9565b80516001600160a01b031633146102c55760405162461bcd60e51b815260206004820152601060248201526f29a427acaa9d102327a92124a22222a760811b60448201526064015b60405180910390fd5b60006102d082610900565b6000818152600260205260409020549091506001600160a01b03161561032c5760405162461bcd60e51b815260206004820152601160248201527053484f59553a204249445f45584953545360781b60448201526064016102bc565b600081815260036020526040808220805460ff191660011790555182917fe8d9861dbc9c663ed3accd261bbe2fe01e0d3d9e5f51fa38523b265c7757a93a91a25050565b600260015414156103935760405162461bcd60e51b81526004016102bc90611ed8565b600260015560208101516103a690610732565b6103ec5760405162461bcd60e51b815260206004820152601760248201527653484f59553a20494e56414c49445f45584348414e474560481b60448201526064016102bc565b60006103f782610900565b905061040382826109de565b610423818360000151846101200151856101400151866101600151610cbc565b600081815260026020818152604092839020835160c08101855281546001600160a01b0390811680835260018401549483019490945293820154818601819052600383015485166060830152600480840154861660808085019190915260059094015460a08401529288015160e08901516101008a0151975163e01be26360e01b81529397919096169563e01be263956104c595919492939092909101611f02565b60206040518083038186803b1580156104dd57600080fd5b505afa1580156104f1573d6000803e3d6000fd5b505050506040513d601f19601f820116820180604052508101906105159190611c3e565b6105525760405162461bcd60e51b815260206004820152600e60248201526d53484f59553a204641494c55524560901b60448201526064016102bc565b60c08301516001600160a01b038116610569575082515b6105908460a001518360000151838560200151866040015161058b9190611fe7565b610eed565b1561069857602080830151600085815260049092526040909120546105b59190611faf565b60008481526004602052604090205560608201516001600160a01b0381166105db575081515b6105f8856020015186600001518388604001518760200151611120565b600084815260026020818152604080842080546001600160a01b031990811682556001820186905593810185905560038101805485169055600481018054909416909355600590920192909255845191850151858201516080870151925188947f72fd87c5ad3903eb05815544ef7ea4640a18e631c9c02eb099c810834f8235559461068a9491939192889190611e7a565b60405180910390a2506106d9565b600083815260036020526040808220805460ff191660011790555184917fe8d9861dbc9c663ed3accd261bbe2fe01e0d3d9e5f51fa38523b265c7757a93a91a25b5050600180555050565b6000600260015414156107085760405162461bcd60e51b81526004016102bc90611ed8565b60026001556107248661071a81610900565b33888888886111a6565b600180559695505050505050565b6040516345943ee160e01b81526001600160a01b0382811660048301526000917f0000000000000000000000000000000000000000000000000000000000000000909116906345943ee19060240160206040518083038186803b15801561079857600080fd5b505afa1580156107ac573d6000803e3d6000fd5b505050506040513d601f19601f820116820180604052508101906107d09190611c3e565b1590505b919050565b6000600260015414156107fe5760405162461bcd60e51b81526004016102bc90611ed8565b6002600155600061080e84610900565b835190915081146108595760405162461bcd60e51b81526020600482015260156024820152740a6909eb2aa7440aa9c9a82a886908a88be9082a69605b1b60448201526064016102bc565b60208301516001600160a01b03166108ab5760405162461bcd60e51b815260206004820152601560248201527429a427acaa9d1024a72b20a624a22fa9a4a3a722a960591b60448201526064016102bc565b6108d16108b7846115f9565b84602001518560c001518660e00151876101000151610cbc565b6108f4848285602001518660400151876060015188608001518960a001516111a6565b60018055949350505050565b80516020808301516040808501516060860151608087015160a088015160c089015160e08a01516101008b01518051908a0120965160009a6109c19a7f17fdf8831f8bd77353b30f42ba9bc64e7144545a42a890389f298feeb45dec889a9199919897969594939201998a526001600160a01b0398891660208b015296881660408a01526060890195909552608088019390935290851660a0870152841660c086015290921660e08401526101008301919091526101208201526101400190565b604051602081830303815290604052805190602001209050919050565b60008181526003602052604090205460ff1615610a305760405162461bcd60e51b815260206004820152601060248201526f14d213d6554e8810d05390d15313115160821b60448201526064016102bc565b81516001600160a01b0316610a7e5760405162461bcd60e51b815260206004820152601460248201527329a427acaa9d1024a72b20a624a22fa6a0a5a2a960611b60448201526064016102bc565b60208201516001600160a01b0316610acd5760405162461bcd60e51b815260206004820152601260248201527114d213d6554e881253959053125117d3919560721b60448201526064016102bc565b6000826060015111610b195760405162461bcd60e51b815260206004820152601560248201527414d213d6554e881253959053125117d05353d55395605a1b60448201526064016102bc565b60808201516001600160a01b0316610b735760405162461bcd60e51b815260206004820152601760248201527f53484f59553a20494e56414c49445f535452415445475900000000000000000060448201526064016102bc565b60a08201516001600160a01b0316610bcd5760405162461bcd60e51b815260206004820152601760248201527f53484f59553a20494e56414c49445f43555252454e435900000000000000000060448201526064016102bc565b7f00000000000000000000000000000000000000000000000000000000000000006080830151604051632666e89f60e21b81526001600160a01b03918216600482015291169063999ba27c9060240160206040518083038186803b158015610c3457600080fd5b505afa158015610c48573d6000803e3d6000fd5b505050506040513d601f19601f82011682018060405250810190610c6c9190611c3e565b610cb85760405162461bcd60e51b815260206004820152601f60248201527f53484f59553a2053545241544547595f4e4f545f57484954454c49535445440060448201526064016102bc565b5050565b60007f000000000000000000000000000000000000000000000000000000000000000060405161190160f01b6020820152602281019190915260428101879052606201604051602081830303815290604052805190602001209050610d21853b151590565b15610e3157604080516020810185905280820184905260f886901b6001600160f81b0319166060820152815160418183030181526061820192839052630b135d3f60e11b9092526001600160a01b03871691631626ba7e91610d87918591606501611eac565b60206040518083038186803b158015610d9f57600080fd5b505afa158015610db3573d6000803e3d6000fd5b505050506040513d601f19601f82011682018060405250810190610dd79190611c76565b6001600160e01b031916631626ba7e60e01b14610e2c5760405162461bcd60e51b815260206004820152601360248201527214d213d6554e8815539055551213d492569151606a1b60448201526064016102bc565b610ee5565b60408051600081526020810180835283905260ff86169181019190915260608101849052608081018390526001600160a01b0386169060019060a0016020604051602081039080840390855afa158015610e8f573d6000803e3d6000fd5b505050602060405103516001600160a01b031614610ee55760405162461bcd60e51b815260206004820152601360248201527214d213d6554e8815539055551213d492569151606a1b60448201526064016102bc565b505050505050565b6000610efb85853085611684565b610f0757506000611118565b60007f000000000000000000000000000000000000000000000000000000000000000090506000839050600080836001600160a01b031663aec0b5436040518163ffffffff1660e01b8152600401604080518083038186803b158015610f6c57600080fd5b505afa158015610f80573d6000803e3d6000fd5b505050506040513d601f19601f82011682018060405250810190610fa49190611c05565b909250905060006103e8610fbb60ff841689611fe7565b610fc59190611fc7565b9050610fdb6001600160a01b038b168483611756565b610fe58185612006565b9350505050600080836001600160a01b031663c2b11e186040518163ffffffff1660e01b8152600401604080518083038186803b15801561102557600080fd5b505afa158015611039573d6000803e3d6000fd5b505050506040513d601f19601f8201168201806040525081019061105d9190611c05565b909250905060006103e861107460ff841689611fe7565b61107e9190611fc7565b90506110946001600160a01b038b168483611756565b61109e8185612006565b93505050506000806110af60008091565b909250905060ff808216146110fb5760006103e86110d060ff841686611fe7565b6110da9190611fc7565b905080156110f9576110ec8185612006565b93506110f98a84836117ad565b505b61110f6001600160a01b038a168885611756565b60019450505050505b949350505050565b604051637921219560e11b81526001600160a01b0385811660048301528481166024830152604482018490526064820183905260a06084830152600060a483015286169063f242432a9060c401600060405180830381600087803b15801561118757600080fd5b505af115801561119b573d6000803e3d6000fd5b505050505050505050565b60006111b58860200151610732565b6111fb5760405162461bcd60e51b815260206004820152601760248201527653484f59553a20494e56414c49445f45584348414e474560481b60448201526064016102bc565b600085116112435760405162461bcd60e51b815260206004820152601560248201527414d213d6554e881253959053125117d05353d55395605a1b60448201526064016102bc565b60008781526004602052604090205460608901516112618783611faf565b11156112a15760405162461bcd60e51b815260206004820152600f60248201526e14d213d6554e8814d3d31117d3d555608a1b60448201526064016102bc565b6112ab89896109de565b6112cb888a600001518b61012001518c61014001518d6101600151610cbc565b88608001516001600160a01b031663e01be2638a60e001518b61010001518a896040518563ffffffff1660e01b815260040161130a9493929190611f02565b60206040518083038186803b15801561132257600080fd5b505afa158015611336573d6000803e3d6000fd5b505050506040513d601f19601f8201168201806040525081019061135a9190611c3e565b15611466576113698682611faf565b60008981526004602052604090205560c08901516001600160a01b03811661138f575088515b60a08a01516113a490898361058b8b8b611fe7565b6113f05760405162461bcd60e51b815260206004820152601f60248201527f53484f59553a204641494c45445f544f5f5452414e534645525f46554e44530060448201526064016102bc565b6001600160a01b038516611402578794505b61141b8a602001518b60000151878d604001518b611120565b887f72fd87c5ad3903eb05815544ef7ea4640a18e631c9c02eb099c810834f8235558989898989604051611453959493929190611e7a565b60405180910390a26001925050506115ee565b60008881526002602081905260409182902060808c015160e08d01516101008e01519383015460058401549551633140c34d60e11b815293956001600160a01b0390931694636281869a946114c39491928f928e92600401611f37565b60206040518083038186803b1580156114db57600080fd5b505afa1580156114ef573d6000803e3d6000fd5b505050506040513d601f19601f820116820180604052508101906115139190611c3e565b156115b45780546001600160a01b03808a166001600160a01b031992831617835560018301899055600283018890556003830180548883169084161790556004830180549187169190921617905543600582015560405189907f4055f76fe1f351fec66b9ba790ddbdc29eb45c038163a6b1327277441a8c65f1906115a1908b908b908b908b908b90611e7a565b60405180910390a26000925050506115ee565b5060405162461bcd60e51b815260206004820152600e60248201526d53484f59553a204641494c55524560901b60448201526064016102bc565b979650505050505050565b80516020808301516040808501516060860151608087015160a088015193516000976109c1977fb98e1dc48988064e6dfb813618609d7da80a8841e5f277039788ac4b50d497b297919691959493920196875260208701959095526001600160a01b03938416604087015260608601929092526080850152811660a08401521660c082015260e00190565b604080516001600160a01b0385811660248301528481166044830152606480830185905283518084039091018152608490920183526020820180516001600160e01b03166323b872dd60e01b179052915160009283928392918916916116ea9190611e5e565b6000604051808303816000865af19150503d8060008114611727576040519150601f19603f3d011682016040523d82523d6000602084013e61172c565b606091505b50915091508180156115ee5750805115806115ee5750808060200190518101906115ee9190611c3e565b604080516001600160a01b038416602482015260448082018490528251808303909101815260649091019091526020810180516001600160e01b031663a9059cbb60e01b1790526117a8908490611842565b505050565b6117c16001600160a01b0384168383611756565b813b156117a857816001600160a01b031663fff6cae96040518163ffffffff1660e01b8152600401602060405180830381600087803b15801561180357600080fd5b505af1925050508015611833575060408051601f3d908101601f1916820190925261183091810190611e1a565b60015b61183c576117a8565b50505050565b6000611897826040518060400160405280602081526020017f5361666545524332303a206c6f772d6c6576656c2063616c6c206661696c6564815250856001600160a01b03166119149092919063ffffffff16565b8051909150156117a857808060200190518101906118b59190611c3e565b6117a85760405162461bcd60e51b815260206004820152602a60248201527f5361666545524332303a204552433230206f7065726174696f6e20646964206e6044820152691bdd081cdd58d8d9595960b21b60648201526084016102bc565b6060611923848460008561192d565b90505b9392505050565b60608247101561198e5760405162461bcd60e51b815260206004820152602660248201527f416464726573733a20696e73756666696369656e742062616c616e636520666f6044820152651c8818d85b1b60d21b60648201526084016102bc565b843b6119dc5760405162461bcd60e51b815260206004820152601d60248201527f416464726573733a2063616c6c20746f206e6f6e2d636f6e747261637400000060448201526064016102bc565b600080866001600160a01b031685876040516119f89190611e5e565b60006040518083038185875af1925050503d8060008114611a35576040519150601f19603f3d011682016040523d82523d6000602084013e611a3a565b606091505b50915091506115ee82828660608315611a54575081611926565b825115611a645782518084602001fd5b8160405162461bcd60e51b81526004016102bc9190611ec5565b80356107d481612075565b600082601f830112611a99578081fd5b813567ffffffffffffffff811115611ab357611ab361205f565b611ac6601f8201601f1916602001611f7e565b818152846020838601011115611ada578283fd5b816020850160208301379081016020019190915292915050565b6000610180808385031215611b07578182fd5b611b1081611f7e565b915050611b1c82611a7e565b8152611b2a60208301611a7e565b60208201526040820135604082015260608201356060820152611b4f60808301611a7e565b6080820152611b6060a08301611a7e565b60a0820152611b7160c08301611a7e565b60c082015260e082013560e08201526101008083013567ffffffffffffffff811115611b9c57600080fd5b611ba885828601611a89565b828401525050610120611bbc818401611bde565b9082015261014082810135908201526101609182013591810191909152919050565b80356107d48161208d565b600060208284031215611bfa578081fd5b813561192681612075565b60008060408385031215611c17578081fd5b8251611c2281612075565b6020840151909250611c338161208d565b809150509250929050565b600060208284031215611c4f578081fd5b81518015158114611926578182fd5b600060208284031215611c6f578081fd5b5035919050565b600060208284031215611c87578081fd5b81516001600160e01b031981168114611926578182fd5b600060208284031215611caf578081fd5b813567ffffffffffffffff811115611cc5578182fd5b61111884828501611af4565b600080828403610140811215611ce5578283fd5b833567ffffffffffffffff811115611cfb578384fd5b611d0786828701611af4565b93505061012080601f1983011215611d1d578283fd5b611d2681611f7e565b915060208501358252611d3b60408601611a7e565b60208301526060850135604083015260808501356060830152611d6060a08601611a7e565b6080830152611d7160c08601611a7e565b60a0830152611d8260e08601611bde565b60c08301526101008581013560e0840152940135938101939093525092909150565b600080600080600060a08688031215611dbb578081fd5b853567ffffffffffffffff811115611dd1578182fd5b611ddd88828901611af4565b95505060208601359350604086013592506060860135611dfc81612075565b91506080860135611e0c81612075565b809150509295509295909350565b600060208284031215611e2b578081fd5b5051919050565b60008151808452611e4a81602086016020860161201d565b601f01601f19169290920160200192915050565b60008251611e7081846020870161201d565b9190910192915050565b6001600160a01b0395861681526020810194909452604084019290925283166060830152909116608082015260a00190565b6000838252604060208301526119236040830184611e32565b6000602082526119266020830184611e32565b60208082526010908201526f14d213d6554e8814915153951490539560821b604082015260600190565b600085825260806020830152611f1b6080830186611e32565b6001600160a01b03949094166040830152506060015292915050565b600087825260c06020830152611f5060c0830188611e32565b6001600160a01b03969096166040830152506060810193909352608083019190915260a09091015292915050565b604051601f8201601f1916810167ffffffffffffffff81118282101715611fa757611fa761205f565b604052919050565b60008219821115611fc257611fc2612049565b500190565b600082611fe257634e487b7160e01b81526012600452602481fd5b500490565b600081600019048311821515161561200157612001612049565b500290565b60008282101561201857612018612049565b500390565b60005b83811015612038578181015183820152602001612020565b8381111561183c5750506000910152565b634e487b7160e01b600052601160045260246000fd5b634e487b7160e01b600052604160045260246000fd5b6001600160a01b038116811461208a57600080fd5b50565b60ff8116811461208a57600080fdfea2646970667358221220d7c474f6cb07aa830529bd26671574ca93c9cc9915b46e2c9af070dd556bd7b464736f6c63430008030033496e697469616c697a61626c653a20636f6e747261637420697320616c726561",
  "devdoc": {
    "kind": "dev",
    "methods": {},
    "version": 1
  },
  "userdoc": {
    "kind": "user",
    "methods": {},
    "version": 1
  },
  "storageLayout": {
    "storage": [
      {
        "astId": 115,
        "contract": "contracts/ERC1155ExchangeV0.sol:ERC1155ExchangeV0",
        "label": "_initialized",
        "offset": 0,
        "slot": "0",
        "type": "t_bool"
      },
      {
        "astId": 118,
        "contract": "contracts/ERC1155ExchangeV0.sol:ERC1155ExchangeV0",
        "label": "_initializing",
        "offset": 1,
        "slot": "0",
        "type": "t_bool"
      },
      {
        "astId": 10481,
        "contract": "contracts/ERC1155ExchangeV0.sol:ERC1155ExchangeV0",
        "label": "_status",
        "offset": 0,
        "slot": "1",
        "type": "t_uint256"
      },
      {
        "astId": 4975,
        "contract": "contracts/ERC1155ExchangeV0.sol:ERC1155ExchangeV0",
        "label": "bestBid",
        "offset": 0,
        "slot": "2",
        "type": "t_mapping(t_bytes32,t_struct(BestBid)4969_storage)"
      },
      {
        "astId": 4980,
        "contract": "contracts/ERC1155ExchangeV0.sol:ERC1155ExchangeV0",
        "label": "isCancelled",
        "offset": 0,
        "slot": "3",
        "type": "t_mapping(t_bytes32,t_bool)"
      },
      {
        "astId": 4985,
        "contract": "contracts/ERC1155ExchangeV0.sol:ERC1155ExchangeV0",
        "label": "amountFilled",
        "offset": 0,
        "slot": "4",
        "type": "t_mapping(t_bytes32,t_uint256)"
      }
    ],
    "types": {
      "t_address": {
        "encoding": "inplace",
        "label": "address",
        "numberOfBytes": "20"
      },
      "t_bool": {
        "encoding": "inplace",
        "label": "bool",
        "numberOfBytes": "1"
      },
      "t_bytes32": {
        "encoding": "inplace",
        "label": "bytes32",
        "numberOfBytes": "32"
      },
      "t_mapping(t_bytes32,t_bool)": {
        "encoding": "mapping",
        "key": "t_bytes32",
        "label": "mapping(bytes32 => bool)",
        "numberOfBytes": "32",
        "value": "t_bool"
      },
      "t_mapping(t_bytes32,t_struct(BestBid)4969_storage)": {
        "encoding": "mapping",
        "key": "t_bytes32",
        "label": "mapping(bytes32 => struct BaseExchange.BestBid)",
        "numberOfBytes": "32",
        "value": "t_struct(BestBid)4969_storage"
      },
      "t_mapping(t_bytes32,t_uint256)": {
        "encoding": "mapping",
        "key": "t_bytes32",
        "label": "mapping(bytes32 => uint256)",
        "numberOfBytes": "32",
        "value": "t_uint256"
      },
      "t_struct(BestBid)4969_storage": {
        "encoding": "inplace",
        "label": "struct BaseExchange.BestBid",
        "members": [
          {
            "astId": 4958,
            "contract": "contracts/ERC1155ExchangeV0.sol:ERC1155ExchangeV0",
            "label": "bidder",
            "offset": 0,
            "slot": "0",
            "type": "t_address"
          },
          {
            "astId": 4960,
            "contract": "contracts/ERC1155ExchangeV0.sol:ERC1155ExchangeV0",
            "label": "amount",
            "offset": 0,
            "slot": "1",
            "type": "t_uint256"
          },
          {
            "astId": 4962,
            "contract": "contracts/ERC1155ExchangeV0.sol:ERC1155ExchangeV0",
            "label": "price",
            "offset": 0,
            "slot": "2",
            "type": "t_uint256"
          },
          {
            "astId": 4964,
            "contract": "contracts/ERC1155ExchangeV0.sol:ERC1155ExchangeV0",
            "label": "recipient",
            "offset": 0,
            "slot": "3",
            "type": "t_address"
          },
          {
            "astId": 4966,
            "contract": "contracts/ERC1155ExchangeV0.sol:ERC1155ExchangeV0",
            "label": "referrer",
            "offset": 0,
            "slot": "4",
            "type": "t_address"
          },
          {
            "astId": 4968,
            "contract": "contracts/ERC1155ExchangeV0.sol:ERC1155ExchangeV0",
            "label": "blockNumber",
            "offset": 0,
            "slot": "5",
            "type": "t_uint256"
          }
        ],
        "numberOfBytes": "192"
      },
      "t_uint256": {
        "encoding": "inplace",
        "label": "uint256",
        "numberOfBytes": "32"
      }
    }
  }
}