{
  "address": "0x5C48e1B210f34676D8E1993d24Bf166B473A2B6f",
  "abi": [
    {
      "inputs": [
        {
          "internalType": "address",
          "name": "factory_",
          "type": "address"
        }
      ],
      "stateMutability": "nonpayable",
      "type": "constructor"
    },
    {
      "anonymous": false,
      "inputs": [
        {
          "indexed": true,
          "internalType": "bytes32",
          "name": "hash",
          "type": "bytes32"
        },
        {
          "indexed": false,
          "internalType": "address",
          "name": "bidder",
          "type": "address"
        },
        {
          "indexed": false,
          "internalType": "uint256",
          "name": "amount",
          "type": "uint256"
        },
        {
          "indexed": false,
          "internalType": "uint256",
          "name": "price",
          "type": "uint256"
        },
        {
          "indexed": false,
          "internalType": "address",
          "name": "recipient",
          "type": "address"
        },
        {
          "indexed": false,
          "internalType": "address",
          "name": "referrer",
          "type": "address"
        }
      ],
      "name": "Bid",
      "type": "event"
    },
    {
      "anonymous": false,
      "inputs": [
        {
          "indexed": true,
          "internalType": "bytes32",
          "name": "hash",
          "type": "bytes32"
        }
      ],
      "name": "Cancel",
      "type": "event"
    },
    {
      "anonymous": false,
      "inputs": [
        {
          "indexed": true,
          "internalType": "bytes32",
          "name": "hash",
          "type": "bytes32"
        },
        {
          "indexed": false,
          "internalType": "address",
          "name": "bidder",
          "type": "address"
        },
        {
          "indexed": false,
          "internalType": "uint256",
          "name": "amount",
          "type": "uint256"
        },
        {
          "indexed": false,
          "internalType": "uint256",
          "name": "price",
          "type": "uint256"
        },
        {
          "indexed": false,
          "internalType": "address",
          "name": "recipient",
          "type": "address"
        },
        {
          "indexed": false,
          "internalType": "address",
          "name": "referrer",
          "type": "address"
        }
      ],
      "name": "Execute",
      "type": "event"
    },
    {
      "inputs": [],
      "name": "DOMAIN_SEPARATOR",
      "outputs": [
        {
          "internalType": "bytes32",
          "name": "",
          "type": "bytes32"
        }
      ],
      "stateMutability": "view",
      "type": "function"
    },
    {
      "inputs": [
        {
          "internalType": "bytes32",
          "name": "",
          "type": "bytes32"
        }
      ],
      "name": "amountFilled",
      "outputs": [
        {
          "internalType": "uint256",
          "name": "",
          "type": "uint256"
        }
      ],
      "stateMutability": "view",
      "type": "function"
    },
    {
      "inputs": [
        {
          "internalType": "bytes32",
          "name": "",
          "type": "bytes32"
        }
      ],
      "name": "bestBid",
      "outputs": [
        {
          "internalType": "address",
          "name": "bidder",
          "type": "address"
        },
        {
          "internalType": "uint256",
          "name": "amount",
          "type": "uint256"
        },
        {
          "internalType": "uint256",
          "name": "price",
          "type": "uint256"
        },
        {
          "internalType": "address",
          "name": "recipient",
          "type": "address"
        },
        {
          "internalType": "address",
          "name": "referrer",
          "type": "address"
        },
        {
          "internalType": "uint256",
          "name": "blockNumber",
          "type": "uint256"
        }
      ],
      "stateMutability": "view",
      "type": "function"
    },
    {
      "inputs": [
        {
          "components": [
            {
              "internalType": "address",
              "name": "signer",
              "type": "address"
            },
            {
              "internalType": "address",
              "name": "token",
              "type": "address"
            },
            {
              "internalType": "uint256",
              "name": "tokenId",
              "type": "uint256"
            },
            {
              "internalType": "uint256",
              "name": "amount",
              "type": "uint256"
            },
            {
              "internalType": "address",
              "name": "strategy",
              "type": "address"
            },
            {
              "internalType": "address",
              "name": "currency",
              "type": "address"
            },
            {
              "internalType": "address",
              "name": "recipient",
              "type": "address"
            },
            {
              "internalType": "uint256",
              "name": "deadline",
              "type": "uint256"
            },
            {
              "internalType": "bytes",
              "name": "params",
              "type": "bytes"
            },
            {
              "internalType": "uint8",
              "name": "v",
              "type": "uint8"
            },
            {
              "internalType": "bytes32",
              "name": "r",
              "type": "bytes32"
            },
            {
              "internalType": "bytes32",
              "name": "s",
              "type": "bytes32"
            }
          ],
          "internalType": "struct Orders.Ask",
          "name": "askOrder",
          "type": "tuple"
        },
        {
          "internalType": "uint256",
          "name": "bidAmount",
          "type": "uint256"
        },
        {
          "internalType": "uint256",
          "name": "bidPrice",
          "type": "uint256"
        },
        {
          "internalType": "address",
          "name": "bidRecipient",
          "type": "address"
        },
        {
          "internalType": "address",
          "name": "bidReferrer",
          "type": "address"
        }
      ],
      "name": "bid",
      "outputs": [
        {
          "internalType": "bool",
          "name": "executed",
          "type": "bool"
        }
      ],
      "stateMutability": "nonpayable",
      "type": "function"
    },
    {
      "inputs": [
        {
          "components": [
            {
              "internalType": "address",
              "name": "signer",
              "type": "address"
            },
            {
              "internalType": "address",
              "name": "token",
              "type": "address"
            },
            {
              "internalType": "uint256",
              "name": "tokenId",
              "type": "uint256"
            },
            {
              "internalType": "uint256",
              "name": "amount",
              "type": "uint256"
            },
            {
              "internalType": "address",
              "name": "strategy",
              "type": "address"
            },
            {
              "internalType": "address",
              "name": "currency",
              "type": "address"
            },
            {
              "internalType": "address",
              "name": "recipient",
              "type": "address"
            },
            {
              "internalType": "uint256",
              "name": "deadline",
              "type": "uint256"
            },
            {
              "internalType": "bytes",
              "name": "params",
              "type": "bytes"
            },
            {
              "internalType": "uint8",
              "name": "v",
              "type": "uint8"
            },
            {
              "internalType": "bytes32",
              "name": "r",
              "type": "bytes32"
            },
            {
              "internalType": "bytes32",
              "name": "s",
              "type": "bytes32"
            }
          ],
          "internalType": "struct Orders.Ask",
          "name": "askOrder",
          "type": "tuple"
        },
        {
          "components": [
            {
              "internalType": "bytes32",
              "name": "askHash",
              "type": "bytes32"
            },
            {
              "internalType": "address",
              "name": "signer",
              "type": "address"
            },
            {
              "internalType": "uint256",
              "name": "amount",
              "type": "uint256"
            },
            {
              "internalType": "uint256",
              "name": "price",
              "type": "uint256"
            },
            {
              "internalType": "address",
              "name": "recipient",
              "type": "address"
            },
            {
              "internalType": "address",
              "name": "referrer",
              "type": "address"
            },
            {
              "internalType": "uint8",
              "name": "v",
              "type": "uint8"
            },
            {
              "internalType": "bytes32",
              "name": "r",
              "type": "bytes32"
            },
            {
              "internalType": "bytes32",
              "name": "s",
              "type": "bytes32"
            }
          ],
          "internalType": "struct Orders.Bid",
          "name": "bidOrder",
          "type": "tuple"
        }
      ],
      "name": "bid",
      "outputs": [
        {
          "internalType": "bool",
          "name": "executed",
          "type": "bool"
        }
      ],
      "stateMutability": "nonpayable",
      "type": "function"
    },
    {
      "inputs": [
        {
          "internalType": "address",
          "name": "nft",
          "type": "address"
        }
      ],
      "name": "canTrade",
      "outputs": [
        {
          "internalType": "bool",
          "name": "",
          "type": "bool"
        }
      ],
      "stateMutability": "view",
      "type": "function"
    },
    {
      "inputs": [
        {
          "components": [
            {
              "internalType": "address",
              "name": "signer",
              "type": "address"
            },
            {
              "internalType": "address",
              "name": "token",
              "type": "address"
            },
            {
              "internalType": "uint256",
              "name": "tokenId",
              "type": "uint256"
            },
            {
              "internalType": "uint256",
              "name": "amount",
              "type": "uint256"
            },
            {
              "internalType": "address",
              "name": "strategy",
              "type": "address"
            },
            {
              "internalType": "address",
              "name": "currency",
              "type": "address"
            },
            {
              "internalType": "address",
              "name": "recipient",
              "type": "address"
            },
            {
              "internalType": "uint256",
              "name": "deadline",
              "type": "uint256"
            },
            {
              "internalType": "bytes",
              "name": "params",
              "type": "bytes"
            },
            {
              "internalType": "uint8",
              "name": "v",
              "type": "uint8"
            },
            {
              "internalType": "bytes32",
              "name": "r",
              "type": "bytes32"
            },
            {
              "internalType": "bytes32",
              "name": "s",
              "type": "bytes32"
            }
          ],
          "internalType": "struct Orders.Ask",
          "name": "order",
          "type": "tuple"
        }
      ],
      "name": "cancel",
      "outputs": [],
      "stateMutability": "nonpayable",
      "type": "function"
    },
    {
      "inputs": [
        {
          "components": [
            {
              "internalType": "address",
              "name": "signer",
              "type": "address"
            },
            {
              "internalType": "address",
              "name": "token",
              "type": "address"
            },
            {
              "internalType": "uint256",
              "name": "tokenId",
              "type": "uint256"
            },
            {
              "internalType": "uint256",
              "name": "amount",
              "type": "uint256"
            },
            {
              "internalType": "address",
              "name": "strategy",
              "type": "address"
            },
            {
              "internalType": "address",
              "name": "currency",
              "type": "address"
            },
            {
              "internalType": "address",
              "name": "recipient",
              "type": "address"
            },
            {
              "internalType": "uint256",
              "name": "deadline",
              "type": "uint256"
            },
            {
              "internalType": "bytes",
              "name": "params",
              "type": "bytes"
            },
            {
              "internalType": "uint8",
              "name": "v",
              "type": "uint8"
            },
            {
              "internalType": "bytes32",
              "name": "r",
              "type": "bytes32"
            },
            {
              "internalType": "bytes32",
              "name": "s",
              "type": "bytes32"
            }
          ],
          "internalType": "struct Orders.Ask",
          "name": "askOrder",
          "type": "tuple"
        }
      ],
      "name": "claim",
      "outputs": [],
      "stateMutability": "nonpayable",
      "type": "function"
    },
    {
      "inputs": [],
      "name": "factory",
      "outputs": [
        {
          "internalType": "address",
          "name": "",
          "type": "address"
        }
      ],
      "stateMutability": "view",
      "type": "function"
    },
    {
      "inputs": [
        {
          "internalType": "bytes32",
          "name": "",
          "type": "bytes32"
        }
      ],
      "name": "isCancelled",
      "outputs": [
        {
          "internalType": "bool",
          "name": "",
          "type": "bool"
        }
      ],
      "stateMutability": "view",
      "type": "function"
    },
    {
      "inputs": [],
      "name": "royaltyFeeInfo",
      "outputs": [
        {
          "internalType": "address",
          "name": "",
          "type": "address"
        },
        {
          "internalType": "uint8",
          "name": "",
          "type": "uint8"
        }
      ],
      "stateMutability": "view",
      "type": "function"
    }
  ],
  "transactionHash": "0x62c7534ae44e3370d2947d7819728023775ac2a15827d5cbaa00625dd93d9c55",
  "args": [
    "0x4fD4bEF02597085011845f5685135A77002cA2Bf"
  ],
  "solcInputHash": "409914cef0eb1a17c21b9b3d747a0637",
  "bytecode": "0x60e06040523480156200001157600080fd5b506040516200266d3803806200266d8339810160408190526200003491620002f6565b6200003e62000102565b606081811b6001600160601b03191660c09081524660a0818152604080517f8b73c3c69bb8fe3d512ecc4cf759cc79239f7b179b0ffacaa9a75d522b39400f60208201527f5199c9a48c4806ade87bf5321c9ab0e35526863857260edcea3c19ec63d52520918101919091527fc89efdaa54c0f20c7adf612882df0950f5a951637e0307cdcb4c672f298b8bc694810194909452608084019190915230908301520160408051601f1981840301815291905280516020909101206080525062000326565b600054610100900460ff16806200011c575060005460ff16155b620001745760405162461bcd60e51b815260206004820152602e60248201526000805160206200264d83398151915260448201526d191e481a5b9a5d1a585b1a5e995960921b60648201526084015b60405180910390fd5b600054610100900460ff1615801562000197576000805461ffff19166101011790555b620001a1620001b7565b8015620001b4576000805461ff00191690555b50565b600054610100900460ff1680620001d1575060005460ff16155b620002255760405162461bcd60e51b815260206004820152602e60248201526000805160206200264d83398151915260448201526d191e481a5b9a5d1a585b1a5e995960921b60648201526084016200016b565b600054610100900460ff1615801562000248576000805461ffff19166101011790555b620001a1600054610100900460ff168062000266575060005460ff16155b620002ba5760405162461bcd60e51b815260206004820152602e60248201526000805160206200264d83398151915260448201526d191e481a5b9a5d1a585b1a5e995960921b60648201526084016200016b565b600054610100900460ff16158015620002dd576000805461ffff19166101011790555b600180558015620001b4576000805461ff001916905550565b60006020828403121562000308578081fd5b81516001600160a01b03811681146200031f578182fd5b9392505050565b60805160a05160c05160601c6122df6200036e6000396000818161021d0152818161083901528181610cb70152610f81015260006106d7015260006106ff01526122df6000f3fe608060405234801561001057600080fd5b50600436106100a85760003560e01c8063559f05dc11610071578063559f05dc146101275780635771f9971461013a57806375e6590f146101cd5780639a5d4407146101ed578063c45a015514610210578063def2716414610247576100a8565b8062893bf8146100ad5780630935d663146100c25780633644e515146100d557806344f09d11146100f057806350bf994a14610113575b600080fd5b6100c06100bb366004611eab565b61025a565b005b6100c06100d0366004611eab565b610356565b6100dd6106d1565b6040519081526020015b60405180910390f35b6101036100fe366004611fb1565b6107c8565b60405190151581526020016100e7565b6040805160008082526020820152016100e7565b610103610135366004611df6565b610817565b61018e610148366004611e6b565b60026020819052600091825260409091208054600182015492820154600383015460048401546005909401546001600160a01b0393841695949293918216929091169086565b604080516001600160a01b03978816815260208101969096528501939093529084166060840152909216608082015260a081019190915260c0016100e7565b6100dd6101db366004611e6b565b60046020526000908152604090205481565b6101036101fb366004611e6b565b60036020526000908152604090205460ff1681565b6040516001600160a01b037f00000000000000000000000000000000000000000000000000000000000000001681526020016100e7565b610103610255366004611ede565b6108be565b80516001600160a01b031633146102ab5760405162461bcd60e51b815260206004820152601060248201526f29a427acaa9d102327a92124a22222a760811b60448201526064015b60405180910390fd5b60006102b6826109e8565b6000818152600260205260409020549091506001600160a01b0316156103125760405162461bcd60e51b815260206004820152601160248201527053484f59553a204249445f45584953545360781b60448201526064016102a2565b600081815260036020526040808220805460ff191660011790555182917fe8d9861dbc9c663ed3accd261bbe2fe01e0d3d9e5f51fa38523b265c7757a93a91a25050565b600260015414156103795760405162461bcd60e51b81526004016102a2906120e5565b6002600155602081015161038c90610817565b6103d25760405162461bcd60e51b815260206004820152601760248201527653484f59553a20494e56414c49445f45584348414e474560481b60448201526064016102a2565b60006103dd826109e8565b90506103e98282610ac6565b61041181836000015184610120015185610140015186610160015161040c6106d1565b610da4565b600081815260026020818152604092839020835160c08101855281546001600160a01b0390811680835260018401549483019490945293820154818601819052600383015485166060830152600480840154861660808085019190915260059094015460a08401529288015160e08901516101008a0151975163e01be26360e01b81529397919096169563e01be263956104b39591949293909290910161210f565b60206040518083038186803b1580156104cb57600080fd5b505afa1580156104df573d6000803e3d6000fd5b505050506040513d601f19601f820116820180604052508101906105039190611e4b565b6105405760405162461bcd60e51b815260206004820152600e60248201526d53484f59553a204641494c55524560901b60448201526064016102a2565b60c08301516001600160a01b038116610557575082515b61057e8460a001518360000151838560200151866040015161057991906121f4565b610f63565b1561068657602080830151600085815260049092526040909120546105a391906121bc565b60008481526004602052604090205560608201516001600160a01b0381166105c9575081515b6105e6856020015186600001518388604001518760200151611196565b600084815260026020818152604080842080546001600160a01b031990811682556001820186905593810185905560038101805485169055600481018054909416909355600590920192909255845191850151858201516080870151925188947f72fd87c5ad3903eb05815544ef7ea4640a18e631c9c02eb099c810834f823555946106789491939192889190612087565b60405180910390a2506106c7565b600083815260036020526040808220805460ff191660011790555184917fe8d9861dbc9c663ed3accd261bbe2fe01e0d3d9e5f51fa38523b265c7757a93a91a25b5050600180555050565b600080467f0000000000000000000000000000000000000000000000000000000000000000141561072357507f00000000000000000000000000000000000000000000000000000000000000006107c3565b604080517f8b73c3c69bb8fe3d512ecc4cf759cc79239f7b179b0ffacaa9a75d522b39400f60208201527f5199c9a48c4806ade87bf5321c9ab0e35526863857260edcea3c19ec63d52520918101919091527fc89efdaa54c0f20c7adf612882df0950f5a951637e0307cdcb4c672f298b8bc660608201524660808201523060a082015260c0016040516020818303038152906040528051906020012090505b905090565b6000600260015414156107ed5760405162461bcd60e51b81526004016102a2906120e5565b6002600155610809866107ff816109e8565b3388888888611207565b600180559695505050505050565b604051635ef0036960e01b81526001600160a01b0382811660048301526000917f000000000000000000000000000000000000000000000000000000000000000090911690635ef003699060240160206040518083038186803b15801561087d57600080fd5b505afa158015610891573d6000803e3d6000fd5b505050506040513d601f19601f820116820180604052508101906108b59190611e4b565b1590505b919050565b6000600260015414156108e35760405162461bcd60e51b81526004016102a2906120e5565b600260015560006108f3846109e8565b8351909150811461093e5760405162461bcd60e51b81526020600482015260156024820152740a6909eb2aa7440aa9c9a82a886908a88be9082a69605b1b60448201526064016102a2565b60208301516001600160a01b03166109905760405162461bcd60e51b815260206004820152601560248201527429a427acaa9d1024a72b20a624a22fa9a4a3a722a960591b60448201526064016102a2565b6109b961099c8461165d565b84602001518560c001518660e0015187610100015161040c6106d1565b6109dc848285602001518660400151876060015188608001518960a00151611207565b60018055949350505050565b80516020808301516040808501516060860151608087015160a088015160c089015160e08a01516101008b01518051908a0120965160009a610aa99a7f17fdf8831f8bd77353b30f42ba9bc64e7144545a42a890389f298feeb45dec889a9199919897969594939201998a526001600160a01b0398891660208b015296881660408a01526060890195909552608088019390935290851660a0870152841660c086015290921660e08401526101008301919091526101208201526101400190565b604051602081830303815290604052805190602001209050919050565b60008181526003602052604090205460ff1615610b185760405162461bcd60e51b815260206004820152601060248201526f14d213d6554e8810d05390d15313115160821b60448201526064016102a2565b81516001600160a01b0316610b665760405162461bcd60e51b815260206004820152601460248201527329a427acaa9d1024a72b20a624a22fa6a0a5a2a960611b60448201526064016102a2565b60208201516001600160a01b0316610bb55760405162461bcd60e51b815260206004820152601260248201527114d213d6554e881253959053125117d3919560721b60448201526064016102a2565b6000826060015111610c015760405162461bcd60e51b815260206004820152601560248201527414d213d6554e881253959053125117d05353d55395605a1b60448201526064016102a2565b60808201516001600160a01b0316610c5b5760405162461bcd60e51b815260206004820152601760248201527f53484f59553a20494e56414c49445f535452415445475900000000000000000060448201526064016102a2565b60a08201516001600160a01b0316610cb55760405162461bcd60e51b815260206004820152601760248201527f53484f59553a20494e56414c49445f43555252454e435900000000000000000060448201526064016102a2565b7f00000000000000000000000000000000000000000000000000000000000000006080830151604051632666e89f60e21b81526001600160a01b03918216600482015291169063999ba27c9060240160206040518083038186803b158015610d1c57600080fd5b505afa158015610d30573d6000803e3d6000fd5b505050506040513d601f19601f82011682018060405250810190610d549190611e4b565b610da05760405162461bcd60e51b815260206004820152601f60248201527f53484f59553a2053545241544547595f4e4f545f57484954454c49535445440060448201526064016102a2565b5050565b60405161190160f01b60208201526022810182905260428101879052600090606201604051602081830303815290604052805190602001209050610de8863b151590565b15610ef857604080516020810186905280820185905260f887901b6001600160f81b0319166060820152815160418183030181526061820192839052630b135d3f60e11b9092526001600160a01b03881691631626ba7e91610e4e9185916065016120b9565b60206040518083038186803b158015610e6657600080fd5b505afa158015610e7a573d6000803e3d6000fd5b505050506040513d601f19601f82011682018060405250810190610e9e9190611e83565b6001600160e01b031916631626ba7e60e01b14610ef35760405162461bcd60e51b815260206004820152601360248201527214d213d6554e8815539055551213d492569151606a1b60448201526064016102a2565b610f5a565b856001600160a01b0316610f0e828787876116e8565b6001600160a01b031614610f5a5760405162461bcd60e51b815260206004820152601360248201527214d213d6554e8815539055551213d492569151606a1b60448201526064016102a2565b50505050505050565b6000610f7185853085611891565b610f7d5750600061118e565b60007f000000000000000000000000000000000000000000000000000000000000000090506000839050600080836001600160a01b031663aec0b5436040518163ffffffff1660e01b8152600401604080518083038186803b158015610fe257600080fd5b505afa158015610ff6573d6000803e3d6000fd5b505050506040513d601f19601f8201168201806040525081019061101a9190611e12565b909250905060006103e861103160ff8416896121f4565b61103b91906121d4565b90506110516001600160a01b038b168483611963565b61105b8185612213565b9350505050600080836001600160a01b031663c2b11e186040518163ffffffff1660e01b8152600401604080518083038186803b15801561109b57600080fd5b505afa1580156110af573d6000803e3d6000fd5b505050506040513d601f19601f820116820180604052508101906110d39190611e12565b909250905060006103e86110ea60ff8416896121f4565b6110f491906121d4565b905061110a6001600160a01b038b168483611963565b6111148185612213565b935050505060008061112560008091565b909250905060ff808216146111715760006103e861114660ff8416866121f4565b61115091906121d4565b9050801561116f576111628185612213565b935061116f8a84836119ba565b505b6111856001600160a01b038a168885611963565b60019450505050505b949350505050565b604051632142170760e11b81526001600160a01b0385811660048301528481166024830152604482018490528616906342842e0e90606401600060405180830381600087803b1580156111e857600080fd5b505af11580156111fc573d6000803e3d6000fd5b505050505050505050565b60006112168860200151610817565b61125c5760405162461bcd60e51b815260206004820152601760248201527653484f59553a20494e56414c49445f45584348414e474560481b60448201526064016102a2565b600085116112a45760405162461bcd60e51b815260206004820152601560248201527414d213d6554e881253959053125117d05353d55395605a1b60448201526064016102a2565b60008781526004602052604090205460608901516112c287836121bc565b11156113025760405162461bcd60e51b815260206004820152600f60248201526e14d213d6554e8814d3d31117d3d555608a1b60448201526064016102a2565b61130c8989610ac6565b61132f888a600001518b61012001518c61014001518d610160015161040c6106d1565b88608001516001600160a01b031663e01be2638a60e001518b61010001518a896040518563ffffffff1660e01b815260040161136e949392919061210f565b60206040518083038186803b15801561138657600080fd5b505afa15801561139a573d6000803e3d6000fd5b505050506040513d601f19601f820116820180604052508101906113be9190611e4b565b156114ca576113cd86826121bc565b60008981526004602052604090205560c08901516001600160a01b0381166113f3575088515b60a08a01516114089089836105798b8b6121f4565b6114545760405162461bcd60e51b815260206004820152601f60248201527f53484f59553a204641494c45445f544f5f5452414e534645525f46554e44530060448201526064016102a2565b6001600160a01b038516611466578794505b61147f8a602001518b60000151878d604001518b611196565b887f72fd87c5ad3903eb05815544ef7ea4640a18e631c9c02eb099c810834f82355589898989896040516114b7959493929190612087565b60405180910390a2600192505050611652565b60008881526002602081905260409182902060808c015160e08d01516101008e01519383015460058401549551633140c34d60e11b815293956001600160a01b0390931694636281869a946115279491928f928e92600401612144565b60206040518083038186803b15801561153f57600080fd5b505afa158015611553573d6000803e3d6000fd5b505050506040513d601f19601f820116820180604052508101906115779190611e4b565b156116185780546001600160a01b03808a166001600160a01b031992831617835560018301899055600283018890556003830180548883169084161790556004830180549187169190921617905543600582015560405189907f4055f76fe1f351fec66b9ba790ddbdc29eb45c038163a6b1327277441a8c65f190611605908b908b908b908b908b90612087565b60405180910390a2600092505050611652565b5060405162461bcd60e51b815260206004820152600e60248201526d53484f59553a204641494c55524560901b60448201526064016102a2565b979650505050505050565b80516020808301516040808501516060860151608087015160a08801519351600097610aa9977fb98e1dc48988064e6dfb813618609d7da80a8841e5f277039788ac4b50d497b297919691959493920196875260208701959095526001600160a01b03938416604087015260608601929092526080850152811660a08401521660c082015260e00190565b60007f7fffffffffffffffffffffffffffffff5d576e7357a4501ddfe92f46681b20a08211156117655760405162461bcd60e51b815260206004820152602260248201527f45434453413a20696e76616c6964207369676e6174757265202773272076616c604482015261756560f01b60648201526084016102a2565b8360ff16601b148061177a57508360ff16601c145b6117d15760405162461bcd60e51b815260206004820152602260248201527f45434453413a20696e76616c6964207369676e6174757265202776272076616c604482015261756560f01b60648201526084016102a2565b6040805160008082526020820180845288905260ff871692820192909252606081018590526080810184905260019060a0016020604051602081039080840390855afa158015611825573d6000803e3d6000fd5b5050604051601f1901519150506001600160a01b0381166118885760405162461bcd60e51b815260206004820152601860248201527f45434453413a20696e76616c6964207369676e6174757265000000000000000060448201526064016102a2565b95945050505050565b604080516001600160a01b0385811660248301528481166044830152606480830185905283518084039091018152608490920183526020820180516001600160e01b03166323b872dd60e01b179052915160009283928392918916916118f7919061206b565b6000604051808303816000865af19150503d8060008114611934576040519150601f19603f3d011682016040523d82523d6000602084013e611939565b606091505b50915091508180156116525750805115806116525750808060200190518101906116529190611e4b565b604080516001600160a01b038416602482015260448082018490528251808303909101815260649091019091526020810180516001600160e01b031663a9059cbb60e01b1790526119b5908490611a4f565b505050565b6119ce6001600160a01b0384168383611963565b813b156119b557816001600160a01b031663fff6cae96040518163ffffffff1660e01b8152600401602060405180830381600087803b158015611a1057600080fd5b505af1925050508015611a40575060408051601f3d908101601f19168201909252611a3d91810190612027565b60015b611a49576119b5565b50505050565b6000611aa4826040518060400160405280602081526020017f5361666545524332303a206c6f772d6c6576656c2063616c6c206661696c6564815250856001600160a01b0316611b219092919063ffffffff16565b8051909150156119b55780806020019051810190611ac29190611e4b565b6119b55760405162461bcd60e51b815260206004820152602a60248201527f5361666545524332303a204552433230206f7065726174696f6e20646964206e6044820152691bdd081cdd58d8d9595960b21b60648201526084016102a2565b6060611b308484600085611b3a565b90505b9392505050565b606082471015611b9b5760405162461bcd60e51b815260206004820152602660248201527f416464726573733a20696e73756666696369656e742062616c616e636520666f6044820152651c8818d85b1b60d21b60648201526084016102a2565b843b611be95760405162461bcd60e51b815260206004820152601d60248201527f416464726573733a2063616c6c20746f206e6f6e2d636f6e747261637400000060448201526064016102a2565b600080866001600160a01b03168587604051611c05919061206b565b60006040518083038185875af1925050503d8060008114611c42576040519150601f19603f3d011682016040523d82523d6000602084013e611c47565b606091505b509150915061165282828660608315611c61575081611b33565b825115611c715782518084602001fd5b8160405162461bcd60e51b81526004016102a291906120d2565b80356108b981612282565b600082601f830112611ca6578081fd5b813567ffffffffffffffff811115611cc057611cc061226c565b611cd3601f8201601f191660200161218b565b818152846020838601011115611ce7578283fd5b816020850160208301379081016020019190915292915050565b6000610180808385031215611d14578182fd5b611d1d8161218b565b915050611d2982611c8b565b8152611d3760208301611c8b565b60208201526040820135604082015260608201356060820152611d5c60808301611c8b565b6080820152611d6d60a08301611c8b565b60a0820152611d7e60c08301611c8b565b60c082015260e082013560e08201526101008083013567ffffffffffffffff811115611da957600080fd5b611db585828601611c96565b828401525050610120611dc9818401611deb565b9082015261014082810135908201526101609182013591810191909152919050565b80356108b98161229a565b600060208284031215611e07578081fd5b8135611b3381612282565b60008060408385031215611e24578081fd5b8251611e2f81612282565b6020840151909250611e408161229a565b809150509250929050565b600060208284031215611e5c578081fd5b81518015158114611b33578182fd5b600060208284031215611e7c578081fd5b5035919050565b600060208284031215611e94578081fd5b81516001600160e01b031981168114611b33578182fd5b600060208284031215611ebc578081fd5b813567ffffffffffffffff811115611ed2578182fd5b61118e84828501611d01565b600080828403610140811215611ef2578283fd5b833567ffffffffffffffff811115611f08578384fd5b611f1486828701611d01565b93505061012080601f1983011215611f2a578283fd5b611f338161218b565b915060208501358252611f4860408601611c8b565b60208301526060850135604083015260808501356060830152611f6d60a08601611c8b565b6080830152611f7e60c08601611c8b565b60a0830152611f8f60e08601611deb565b60c08301526101008581013560e0840152940135938101939093525092909150565b600080600080600060a08688031215611fc8578081fd5b853567ffffffffffffffff811115611fde578182fd5b611fea88828901611d01565b9550506020860135935060408601359250606086013561200981612282565b9150608086013561201981612282565b809150509295509295909350565b600060208284031215612038578081fd5b5051919050565b6000815180845261205781602086016020860161222a565b601f01601f19169290920160200192915050565b6000825161207d81846020870161222a565b9190910192915050565b6001600160a01b0395861681526020810194909452604084019290925283166060830152909116608082015260a00190565b600083825260406020830152611b30604083018461203f565b600060208252611b33602083018461203f565b60208082526010908201526f14d213d6554e8814915153951490539560821b604082015260600190565b600085825260806020830152612128608083018661203f565b6001600160a01b03949094166040830152506060015292915050565b600087825260c0602083015261215d60c083018861203f565b6001600160a01b03969096166040830152506060810193909352608083019190915260a09091015292915050565b604051601f8201601f1916810167ffffffffffffffff811182821017156121b4576121b461226c565b604052919050565b600082198211156121cf576121cf612256565b500190565b6000826121ef57634e487b7160e01b81526012600452602481fd5b500490565b600081600019048311821515161561220e5761220e612256565b500290565b60008282101561222557612225612256565b500390565b60005b8381101561224557818101518382015260200161222d565b83811115611a495750506000910152565b634e487b7160e01b600052601160045260246000fd5b634e487b7160e01b600052604160045260246000fd5b6001600160a01b038116811461229757600080fd5b50565b60ff8116811461229757600080fdfea2646970667358221220024c15ae3b3e0f1a76b5cb11b0e3e5fbb16d34b477a00f1d135e66626c1c16f264736f6c63430008030033496e697469616c697a61626c653a20636f6e747261637420697320616c726561",
  "devdoc": {
    "kind": "dev",
    "methods": {},
    "version": 1
  },
  "userdoc": {
    "kind": "user",
    "methods": {},
    "version": 1
  },
  "storageLayout": {
    "storage": [
      {
        "astId": 115,
        "contract": "contracts/ERC721ExchangeV0.sol:ERC721ExchangeV0",
        "label": "_initialized",
        "offset": 0,
        "slot": "0",
        "type": "t_bool"
      },
      {
        "astId": 118,
        "contract": "contracts/ERC721ExchangeV0.sol:ERC721ExchangeV0",
        "label": "_initializing",
        "offset": 1,
        "slot": "0",
        "type": "t_bool"
      },
      {
        "astId": 10792,
        "contract": "contracts/ERC721ExchangeV0.sol:ERC721ExchangeV0",
        "label": "_status",
        "offset": 0,
        "slot": "1",
        "type": "t_uint256"
      },
      {
        "astId": 5358,
        "contract": "contracts/ERC721ExchangeV0.sol:ERC721ExchangeV0",
        "label": "bestBid",
        "offset": 0,
        "slot": "2",
        "type": "t_mapping(t_bytes32,t_struct(BestBid)5352_storage)"
      },
      {
        "astId": 5363,
        "contract": "contracts/ERC721ExchangeV0.sol:ERC721ExchangeV0",
        "label": "isCancelled",
        "offset": 0,
        "slot": "3",
        "type": "t_mapping(t_bytes32,t_bool)"
      },
      {
        "astId": 5368,
        "contract": "contracts/ERC721ExchangeV0.sol:ERC721ExchangeV0",
        "label": "amountFilled",
        "offset": 0,
        "slot": "4",
        "type": "t_mapping(t_bytes32,t_uint256)"
      }
    ],
    "types": {
      "t_address": {
        "encoding": "inplace",
        "label": "address",
        "numberOfBytes": "20"
      },
      "t_bool": {
        "encoding": "inplace",
        "label": "bool",
        "numberOfBytes": "1"
      },
      "t_bytes32": {
        "encoding": "inplace",
        "label": "bytes32",
        "numberOfBytes": "32"
      },
      "t_mapping(t_bytes32,t_bool)": {
        "encoding": "mapping",
        "key": "t_bytes32",
        "label": "mapping(bytes32 => bool)",
        "numberOfBytes": "32",
        "value": "t_bool"
      },
      "t_mapping(t_bytes32,t_struct(BestBid)5352_storage)": {
        "encoding": "mapping",
        "key": "t_bytes32",
        "label": "mapping(bytes32 => struct BaseExchange.BestBid)",
        "numberOfBytes": "32",
        "value": "t_struct(BestBid)5352_storage"
      },
      "t_mapping(t_bytes32,t_uint256)": {
        "encoding": "mapping",
        "key": "t_bytes32",
        "label": "mapping(bytes32 => uint256)",
        "numberOfBytes": "32",
        "value": "t_uint256"
      },
      "t_struct(BestBid)5352_storage": {
        "encoding": "inplace",
        "label": "struct BaseExchange.BestBid",
        "members": [
          {
            "astId": 5341,
            "contract": "contracts/ERC721ExchangeV0.sol:ERC721ExchangeV0",
            "label": "bidder",
            "offset": 0,
            "slot": "0",
            "type": "t_address"
          },
          {
            "astId": 5343,
            "contract": "contracts/ERC721ExchangeV0.sol:ERC721ExchangeV0",
            "label": "amount",
            "offset": 0,
            "slot": "1",
            "type": "t_uint256"
          },
          {
            "astId": 5345,
            "contract": "contracts/ERC721ExchangeV0.sol:ERC721ExchangeV0",
            "label": "price",
            "offset": 0,
            "slot": "2",
            "type": "t_uint256"
          },
          {
            "astId": 5347,
            "contract": "contracts/ERC721ExchangeV0.sol:ERC721ExchangeV0",
            "label": "recipient",
            "offset": 0,
            "slot": "3",
            "type": "t_address"
          },
          {
            "astId": 5349,
            "contract": "contracts/ERC721ExchangeV0.sol:ERC721ExchangeV0",
            "label": "referrer",
            "offset": 0,
            "slot": "4",
            "type": "t_address"
          },
          {
            "astId": 5351,
            "contract": "contracts/ERC721ExchangeV0.sol:ERC721ExchangeV0",
            "label": "blockNumber",
            "offset": 0,
            "slot": "5",
            "type": "t_uint256"
          }
        ],
        "numberOfBytes": "192"
      },
      "t_uint256": {
        "encoding": "inplace",
        "label": "uint256",
        "numberOfBytes": "32"
      }
    }
  }
}