{
  "address": "0x284b1930F4f83950945D99CF643F008C96B89636",
  "abi": [
    {
      "anonymous": false,
      "inputs": [
        {
          "indexed": true,
          "internalType": "address",
          "name": "account",
          "type": "address"
        },
        {
          "indexed": true,
          "internalType": "address",
          "name": "operator",
          "type": "address"
        },
        {
          "indexed": false,
          "internalType": "bool",
          "name": "approved",
          "type": "bool"
        }
      ],
      "name": "ApprovalForAll",
      "type": "event"
    },
    {
      "anonymous": false,
      "inputs": [
        {
          "indexed": true,
          "internalType": "bytes32",
          "name": "hash",
          "type": "bytes32"
        },
        {
          "indexed": false,
          "internalType": "address",
          "name": "bidder",
          "type": "address"
        },
        {
          "indexed": false,
          "internalType": "uint256",
          "name": "amount",
          "type": "uint256"
        },
        {
          "indexed": false,
          "internalType": "uint256",
          "name": "price",
          "type": "uint256"
        },
        {
          "indexed": false,
          "internalType": "address",
          "name": "recipient",
          "type": "address"
        },
        {
          "indexed": false,
          "internalType": "address",
          "name": "referrer",
          "type": "address"
        }
      ],
      "name": "Bid",
      "type": "event"
    },
    {
      "anonymous": false,
      "inputs": [
        {
          "indexed": true,
          "internalType": "uint256",
          "name": "tokenId",
          "type": "uint256"
        },
        {
          "indexed": false,
          "internalType": "uint256",
          "name": "amount",
          "type": "uint256"
        },
        {
          "indexed": true,
          "internalType": "uint256",
          "name": "label",
          "type": "uint256"
        },
        {
          "indexed": false,
          "internalType": "bytes32",
          "name": "data",
          "type": "bytes32"
        }
      ],
      "name": "Burn",
      "type": "event"
    },
    {
      "anonymous": false,
      "inputs": [
        {
          "indexed": true,
          "internalType": "bytes32",
          "name": "hash",
          "type": "bytes32"
        }
      ],
      "name": "Cancel",
      "type": "event"
    },
    {
      "anonymous": false,
      "inputs": [
        {
          "indexed": true,
          "internalType": "bytes32",
          "name": "hash",
          "type": "bytes32"
        },
        {
          "indexed": false,
          "internalType": "address",
          "name": "bidder",
          "type": "address"
        },
        {
          "indexed": false,
          "internalType": "uint256",
          "name": "amount",
          "type": "uint256"
        },
        {
          "indexed": false,
          "internalType": "uint256",
          "name": "price",
          "type": "uint256"
        },
        {
          "indexed": false,
          "internalType": "address",
          "name": "recipient",
          "type": "address"
        },
        {
          "indexed": false,
          "internalType": "address",
          "name": "referrer",
          "type": "address"
        }
      ],
      "name": "Execute",
      "type": "event"
    },
    {
      "anonymous": false,
      "inputs": [
        {
          "indexed": true,
          "internalType": "address",
          "name": "previousOwner",
          "type": "address"
        },
        {
          "indexed": true,
          "internalType": "address",
          "name": "newOwner",
          "type": "address"
        }
      ],
      "name": "OwnershipTransferred",
      "type": "event"
    },
    {
      "anonymous": false,
      "inputs": [
        {
          "indexed": false,
          "internalType": "uint8",
          "name": "fee",
          "type": "uint8"
        }
      ],
      "name": "SetRoyaltyFee",
      "type": "event"
    },
    {
      "anonymous": false,
      "inputs": [
        {
          "indexed": false,
          "internalType": "address",
          "name": "recipient",
          "type": "address"
        }
      ],
      "name": "SetRoyaltyFeeRecipient",
      "type": "event"
    },
    {
      "anonymous": false,
      "inputs": [
        {
          "indexed": true,
          "internalType": "address",
          "name": "operator",
          "type": "address"
        },
        {
          "indexed": true,
          "internalType": "address",
          "name": "from",
          "type": "address"
        },
        {
          "indexed": true,
          "internalType": "address",
          "name": "to",
          "type": "address"
        },
        {
          "indexed": false,
          "internalType": "uint256[]",
          "name": "ids",
          "type": "uint256[]"
        },
        {
          "indexed": false,
          "internalType": "uint256[]",
          "name": "values",
          "type": "uint256[]"
        }
      ],
      "name": "TransferBatch",
      "type": "event"
    },
    {
      "anonymous": false,
      "inputs": [
        {
          "indexed": true,
          "internalType": "address",
          "name": "operator",
          "type": "address"
        },
        {
          "indexed": true,
          "internalType": "address",
          "name": "from",
          "type": "address"
        },
        {
          "indexed": true,
          "internalType": "address",
          "name": "to",
          "type": "address"
        },
        {
          "indexed": false,
          "internalType": "uint256",
          "name": "id",
          "type": "uint256"
        },
        {
          "indexed": false,
          "internalType": "uint256",
          "name": "value",
          "type": "uint256"
        }
      ],
      "name": "TransferSingle",
      "type": "event"
    },
    {
      "anonymous": false,
      "inputs": [
        {
          "indexed": false,
          "internalType": "string",
          "name": "value",
          "type": "string"
        },
        {
          "indexed": true,
          "internalType": "uint256",
          "name": "id",
          "type": "uint256"
        }
      ],
      "name": "URI",
      "type": "event"
    },
    {
      "inputs": [],
      "name": "DOMAIN_SEPARATOR",
      "outputs": [
        {
          "internalType": "bytes32",
          "name": "",
          "type": "bytes32"
        }
      ],
      "stateMutability": "view",
      "type": "function"
    },
    {
      "inputs": [],
      "name": "PERMIT_TYPEHASH",
      "outputs": [
        {
          "internalType": "bytes32",
          "name": "",
          "type": "bytes32"
        }
      ],
      "stateMutability": "view",
      "type": "function"
    },
    {
      "inputs": [
        {
          "internalType": "bytes32",
          "name": "",
          "type": "bytes32"
        }
      ],
      "name": "amountFilled",
      "outputs": [
        {
          "internalType": "uint256",
          "name": "",
          "type": "uint256"
        }
      ],
      "stateMutability": "view",
      "type": "function"
    },
    {
      "inputs": [
        {
          "internalType": "address",
          "name": "account",
          "type": "address"
        },
        {
          "internalType": "uint256",
          "name": "id",
          "type": "uint256"
        }
      ],
      "name": "balanceOf",
      "outputs": [
        {
          "internalType": "uint256",
          "name": "",
          "type": "uint256"
        }
      ],
      "stateMutability": "view",
      "type": "function"
    },
    {
      "inputs": [
        {
          "internalType": "address[]",
          "name": "accounts",
          "type": "address[]"
        },
        {
          "internalType": "uint256[]",
          "name": "ids",
          "type": "uint256[]"
        }
      ],
      "name": "balanceOfBatch",
      "outputs": [
        {
          "internalType": "uint256[]",
          "name": "",
          "type": "uint256[]"
        }
      ],
      "stateMutability": "view",
      "type": "function"
    },
    {
      "inputs": [
        {
          "internalType": "bytes32",
          "name": "",
          "type": "bytes32"
        }
      ],
      "name": "bestBid",
      "outputs": [
        {
          "internalType": "address",
          "name": "bidder",
          "type": "address"
        },
        {
          "internalType": "uint256",
          "name": "amount",
          "type": "uint256"
        },
        {
          "internalType": "uint256",
          "name": "price",
          "type": "uint256"
        },
        {
          "internalType": "address",
          "name": "recipient",
          "type": "address"
        },
        {
          "internalType": "address",
          "name": "referrer",
          "type": "address"
        },
        {
          "internalType": "uint256",
          "name": "blockNumber",
          "type": "uint256"
        }
      ],
      "stateMutability": "view",
      "type": "function"
    },
    {
      "inputs": [
        {
          "components": [
            {
              "internalType": "address",
              "name": "signer",
              "type": "address"
            },
            {
              "internalType": "address",
              "name": "token",
              "type": "address"
            },
            {
              "internalType": "uint256",
              "name": "tokenId",
              "type": "uint256"
            },
            {
              "internalType": "uint256",
              "name": "amount",
              "type": "uint256"
            },
            {
              "internalType": "address",
              "name": "strategy",
              "type": "address"
            },
            {
              "internalType": "address",
              "name": "currency",
              "type": "address"
            },
            {
              "internalType": "address",
              "name": "recipient",
              "type": "address"
            },
            {
              "internalType": "uint256",
              "name": "deadline",
              "type": "uint256"
            },
            {
              "internalType": "bytes",
              "name": "params",
              "type": "bytes"
            },
            {
              "internalType": "uint8",
              "name": "v",
              "type": "uint8"
            },
            {
              "internalType": "bytes32",
              "name": "r",
              "type": "bytes32"
            },
            {
              "internalType": "bytes32",
              "name": "s",
              "type": "bytes32"
            }
          ],
          "internalType": "struct Orders.Ask",
          "name": "askOrder",
          "type": "tuple"
        },
        {
          "internalType": "uint256",
          "name": "bidAmount",
          "type": "uint256"
        },
        {
          "internalType": "uint256",
          "name": "bidPrice",
          "type": "uint256"
        },
        {
          "internalType": "address",
          "name": "bidRecipient",
          "type": "address"
        },
        {
          "internalType": "address",
          "name": "bidReferrer",
          "type": "address"
        }
      ],
      "name": "bid",
      "outputs": [
        {
          "internalType": "bool",
          "name": "executed",
          "type": "bool"
        }
      ],
      "stateMutability": "nonpayable",
      "type": "function"
    },
    {
      "inputs": [
        {
          "components": [
            {
              "internalType": "address",
              "name": "signer",
              "type": "address"
            },
            {
              "internalType": "address",
              "name": "token",
              "type": "address"
            },
            {
              "internalType": "uint256",
              "name": "tokenId",
              "type": "uint256"
            },
            {
              "internalType": "uint256",
              "name": "amount",
              "type": "uint256"
            },
            {
              "internalType": "address",
              "name": "strategy",
              "type": "address"
            },
            {
              "internalType": "address",
              "name": "currency",
              "type": "address"
            },
            {
              "internalType": "address",
              "name": "recipient",
              "type": "address"
            },
            {
              "internalType": "uint256",
              "name": "deadline",
              "type": "uint256"
            },
            {
              "internalType": "bytes",
              "name": "params",
              "type": "bytes"
            },
            {
              "internalType": "uint8",
              "name": "v",
              "type": "uint8"
            },
            {
              "internalType": "bytes32",
              "name": "r",
              "type": "bytes32"
            },
            {
              "internalType": "bytes32",
              "name": "s",
              "type": "bytes32"
            }
          ],
          "internalType": "struct Orders.Ask",
          "name": "askOrder",
          "type": "tuple"
        },
        {
          "components": [
            {
              "internalType": "bytes32",
              "name": "askHash",
              "type": "bytes32"
            },
            {
              "internalType": "address",
              "name": "signer",
              "type": "address"
            },
            {
              "internalType": "uint256",
              "name": "amount",
              "type": "uint256"
            },
            {
              "internalType": "uint256",
              "name": "price",
              "type": "uint256"
            },
            {
              "internalType": "address",
              "name": "recipient",
              "type": "address"
            },
            {
              "internalType": "address",
              "name": "referrer",
              "type": "address"
            },
            {
              "internalType": "uint8",
              "name": "v",
              "type": "uint8"
            },
            {
              "internalType": "bytes32",
              "name": "r",
              "type": "bytes32"
            },
            {
              "internalType": "bytes32",
              "name": "s",
              "type": "bytes32"
            }
          ],
          "internalType": "struct Orders.Bid",
          "name": "bidOrder",
          "type": "tuple"
        }
      ],
      "name": "bid",
      "outputs": [
        {
          "internalType": "bool",
          "name": "executed",
          "type": "bool"
        }
      ],
      "stateMutability": "nonpayable",
      "type": "function"
    },
    {
      "inputs": [
        {
          "internalType": "uint256",
          "name": "tokenId",
          "type": "uint256"
        },
        {
          "internalType": "uint256",
          "name": "amount",
          "type": "uint256"
        },
        {
          "internalType": "uint256",
          "name": "label",
          "type": "uint256"
        },
        {
          "internalType": "bytes32",
          "name": "data",
          "type": "bytes32"
        }
      ],
      "name": "burn",
      "outputs": [],
      "stateMutability": "nonpayable",
      "type": "function"
    },
    {
      "inputs": [
        {
          "internalType": "uint256[]",
          "name": "tokenIds",
          "type": "uint256[]"
        },
        {
          "internalType": "uint256[]",
          "name": "amounts",
          "type": "uint256[]"
        }
      ],
      "name": "burnBatch",
      "outputs": [],
      "stateMutability": "nonpayable",
      "type": "function"
    },
    {
      "inputs": [
        {
          "internalType": "address",
          "name": "token",
          "type": "address"
        }
      ],
      "name": "canTrade",
      "outputs": [
        {
          "internalType": "bool",
          "name": "",
          "type": "bool"
        }
      ],
      "stateMutability": "view",
      "type": "function"
    },
    {
      "inputs": [
        {
          "components": [
            {
              "internalType": "address",
              "name": "signer",
              "type": "address"
            },
            {
              "internalType": "address",
              "name": "token",
              "type": "address"
            },
            {
              "internalType": "uint256",
              "name": "tokenId",
              "type": "uint256"
            },
            {
              "internalType": "uint256",
              "name": "amount",
              "type": "uint256"
            },
            {
              "internalType": "address",
              "name": "strategy",
              "type": "address"
            },
            {
              "internalType": "address",
              "name": "currency",
              "type": "address"
            },
            {
              "internalType": "address",
              "name": "recipient",
              "type": "address"
            },
            {
              "internalType": "uint256",
              "name": "deadline",
              "type": "uint256"
            },
            {
              "internalType": "bytes",
              "name": "params",
              "type": "bytes"
            },
            {
              "internalType": "uint8",
              "name": "v",
              "type": "uint8"
            },
            {
              "internalType": "bytes32",
              "name": "r",
              "type": "bytes32"
            },
            {
              "internalType": "bytes32",
              "name": "s",
              "type": "bytes32"
            }
          ],
          "internalType": "struct Orders.Ask",
          "name": "order",
          "type": "tuple"
        }
      ],
      "name": "cancel",
      "outputs": [],
      "stateMutability": "nonpayable",
      "type": "function"
    },
    {
      "inputs": [
        {
          "components": [
            {
              "internalType": "address",
              "name": "signer",
              "type": "address"
            },
            {
              "internalType": "address",
              "name": "token",
              "type": "address"
            },
            {
              "internalType": "uint256",
              "name": "tokenId",
              "type": "uint256"
            },
            {
              "internalType": "uint256",
              "name": "amount",
              "type": "uint256"
            },
            {
              "internalType": "address",
              "name": "strategy",
              "type": "address"
            },
            {
              "internalType": "address",
              "name": "currency",
              "type": "address"
            },
            {
              "internalType": "address",
              "name": "recipient",
              "type": "address"
            },
            {
              "internalType": "uint256",
              "name": "deadline",
              "type": "uint256"
            },
            {
              "internalType": "bytes",
              "name": "params",
              "type": "bytes"
            },
            {
              "internalType": "uint8",
              "name": "v",
              "type": "uint8"
            },
            {
              "internalType": "bytes32",
              "name": "r",
              "type": "bytes32"
            },
            {
              "internalType": "bytes32",
              "name": "s",
              "type": "bytes32"
            }
          ],
          "internalType": "struct Orders.Ask",
          "name": "askOrder",
          "type": "tuple"
        }
      ],
      "name": "claim",
      "outputs": [],
      "stateMutability": "nonpayable",
      "type": "function"
    },
    {
      "inputs": [],
      "name": "factory",
      "outputs": [
        {
          "internalType": "address",
          "name": "",
          "type": "address"
        }
      ],
      "stateMutability": "view",
      "type": "function"
    },
    {
      "inputs": [
        {
          "internalType": "address",
          "name": "_owner",
          "type": "address"
        },
        {
          "internalType": "uint256[]",
          "name": "tokenIds",
          "type": "uint256[]"
        },
        {
          "internalType": "uint256[]",
          "name": "amounts",
          "type": "uint256[]"
        },
        {
          "internalType": "address",
          "name": "royaltyFeeRecipient",
          "type": "address"
        },
        {
          "internalType": "uint8",
          "name": "royaltyFee",
          "type": "uint8"
        }
      ],
      "name": "initialize",
      "outputs": [],
      "stateMutability": "nonpayable",
      "type": "function"
    },
    {
      "inputs": [
        {
          "internalType": "address",
          "name": "_owner",
          "type": "address"
        }
      ],
      "name": "initialize",
      "outputs": [],
      "stateMutability": "nonpayable",
      "type": "function"
    },
    {
      "inputs": [
        {
          "internalType": "address",
          "name": "account",
          "type": "address"
        },
        {
          "internalType": "address",
          "name": "operator",
          "type": "address"
        }
      ],
      "name": "isApprovedForAll",
      "outputs": [
        {
          "internalType": "bool",
          "name": "",
          "type": "bool"
        }
      ],
      "stateMutability": "view",
      "type": "function"
    },
    {
      "inputs": [
        {
          "internalType": "bytes32",
          "name": "",
          "type": "bytes32"
        }
      ],
      "name": "isCancelled",
      "outputs": [
        {
          "internalType": "bool",
          "name": "",
          "type": "bool"
        }
      ],
      "stateMutability": "view",
      "type": "function"
    },
    {
      "inputs": [
        {
          "internalType": "address",
          "name": "to",
          "type": "address"
        },
        {
          "internalType": "uint256",
          "name": "tokenId",
          "type": "uint256"
        },
        {
          "internalType": "uint256",
          "name": "amount",
          "type": "uint256"
        },
        {
          "internalType": "bytes",
          "name": "data",
          "type": "bytes"
        }
      ],
      "name": "mint",
      "outputs": [],
      "stateMutability": "nonpayable",
      "type": "function"
    },
    {
      "inputs": [
        {
          "internalType": "address",
          "name": "to",
          "type": "address"
        },
        {
          "internalType": "uint256[]",
          "name": "tokenIds",
          "type": "uint256[]"
        },
        {
          "internalType": "uint256[]",
          "name": "amounts",
          "type": "uint256[]"
        },
        {
          "internalType": "bytes",
          "name": "data",
          "type": "bytes"
        }
      ],
      "name": "mintBatch",
      "outputs": [],
      "stateMutability": "nonpayable",
      "type": "function"
    },
    {
      "inputs": [
        {
          "internalType": "address",
          "name": "",
          "type": "address"
        }
      ],
      "name": "nonces",
      "outputs": [
        {
          "internalType": "uint256",
          "name": "",
          "type": "uint256"
        }
      ],
      "stateMutability": "view",
      "type": "function"
    },
    {
      "inputs": [],
      "name": "owner",
      "outputs": [
        {
          "internalType": "address",
          "name": "",
          "type": "address"
        }
      ],
      "stateMutability": "view",
      "type": "function"
    },
    {
      "inputs": [
        {
          "internalType": "address",
          "name": "owner",
          "type": "address"
        },
        {
          "internalType": "address",
          "name": "spender",
          "type": "address"
        },
        {
          "internalType": "uint256",
          "name": "deadline",
          "type": "uint256"
        },
        {
          "internalType": "uint8",
          "name": "v",
          "type": "uint8"
        },
        {
          "internalType": "bytes32",
          "name": "r",
          "type": "bytes32"
        },
        {
          "internalType": "bytes32",
          "name": "s",
          "type": "bytes32"
        }
      ],
      "name": "permit",
      "outputs": [],
      "stateMutability": "nonpayable",
      "type": "function"
    },
    {
      "inputs": [],
      "name": "renounceOwnership",
      "outputs": [],
      "stateMutability": "nonpayable",
      "type": "function"
    },
    {
      "inputs": [],
      "name": "royaltyFeeInfo",
      "outputs": [
        {
          "internalType": "address",
          "name": "recipient",
          "type": "address"
        },
        {
          "internalType": "uint8",
          "name": "permil",
          "type": "uint8"
        }
      ],
      "stateMutability": "view",
      "type": "function"
    },
    {
      "inputs": [
        {
          "internalType": "uint256",
          "name": "",
          "type": "uint256"
        },
        {
          "internalType": "uint256",
          "name": "_salePrice",
          "type": "uint256"
        }
      ],
      "name": "royaltyInfo",
      "outputs": [
        {
          "internalType": "address",
          "name": "",
          "type": "address"
        },
        {
          "internalType": "uint256",
          "name": "",
          "type": "uint256"
        }
      ],
      "stateMutability": "view",
      "type": "function"
    },
    {
      "inputs": [
        {
          "internalType": "address",
          "name": "from",
          "type": "address"
        },
        {
          "internalType": "address",
          "name": "to",
          "type": "address"
        },
        {
          "internalType": "uint256[]",
          "name": "ids",
          "type": "uint256[]"
        },
        {
          "internalType": "uint256[]",
          "name": "amounts",
          "type": "uint256[]"
        },
        {
          "internalType": "bytes",
          "name": "data",
          "type": "bytes"
        }
      ],
      "name": "safeBatchTransferFrom",
      "outputs": [],
      "stateMutability": "nonpayable",
      "type": "function"
    },
    {
      "inputs": [
        {
          "internalType": "address",
          "name": "from",
          "type": "address"
        },
        {
          "internalType": "address",
          "name": "to",
          "type": "address"
        },
        {
          "internalType": "uint256",
          "name": "id",
          "type": "uint256"
        },
        {
          "internalType": "uint256",
          "name": "amount",
          "type": "uint256"
        },
        {
          "internalType": "bytes",
          "name": "data",
          "type": "bytes"
        }
      ],
      "name": "safeTransferFrom",
      "outputs": [],
      "stateMutability": "nonpayable",
      "type": "function"
    },
    {
      "inputs": [
        {
          "internalType": "address",
          "name": "operator",
          "type": "address"
        },
        {
          "internalType": "bool",
          "name": "approved",
          "type": "bool"
        }
      ],
      "name": "setApprovalForAll",
      "outputs": [],
      "stateMutability": "nonpayable",
      "type": "function"
    },
    {
      "inputs": [
        {
          "internalType": "string",
          "name": "baseURI",
          "type": "string"
        }
      ],
      "name": "setBaseURI",
      "outputs": [],
      "stateMutability": "nonpayable",
      "type": "function"
    },
    {
      "inputs": [
        {
          "internalType": "uint8",
          "name": "royaltyFee",
          "type": "uint8"
        }
      ],
      "name": "setRoyaltyFee",
      "outputs": [],
      "stateMutability": "nonpayable",
      "type": "function"
    },
    {
      "inputs": [
        {
          "internalType": "address",
          "name": "royaltyFeeRecipient",
          "type": "address"
        }
      ],
      "name": "setRoyaltyFeeRecipient",
      "outputs": [],
      "stateMutability": "nonpayable",
      "type": "function"
    },
    {
      "inputs": [
        {
          "internalType": "uint256",
          "name": "id",
          "type": "uint256"
        },
        {
          "internalType": "string",
          "name": "newURI",
          "type": "string"
        }
      ],
      "name": "setURI",
      "outputs": [],
      "stateMutability": "nonpayable",
      "type": "function"
    },
    {
      "inputs": [
        {
          "internalType": "bytes4",
          "name": "interfaceId",
          "type": "bytes4"
        }
      ],
      "name": "supportsInterface",
      "outputs": [
        {
          "internalType": "bool",
          "name": "",
          "type": "bool"
        }
      ],
      "stateMutability": "view",
      "type": "function"
    },
    {
      "inputs": [
        {
          "internalType": "address",
          "name": "newOwner",
          "type": "address"
        }
      ],
      "name": "transferOwnership",
      "outputs": [],
      "stateMutability": "nonpayable",
      "type": "function"
    },
    {
      "inputs": [
        {
          "internalType": "uint256",
          "name": "id",
          "type": "uint256"
        }
      ],
      "name": "uri",
      "outputs": [
        {
          "internalType": "string",
          "name": "",
          "type": "string"
        }
      ],
      "stateMutability": "view",
      "type": "function"
    }
  ],
  "transactionHash": "0x8a0769dd2af93910a6bb117cad92e82b807a4a581d0ac7ee8184fe8dfa14f0ac",
  "args": [],
  "solcInputHash": "6aef419e1ffa13856c2b75bc241f5a42",
  "bytecode": "0x608060405234801561001057600080fd5b50614f29806100206000396000f3fe608060405234801561001057600080fd5b506004361061021a5760003560e01c80635f7ef2fa116101255780639a5d4407116100ad578063c4d66de81161007c578063c4d66de8146105ad578063def27164146105c0578063e985e9c5146105d3578063f242432a146105e6578063f2fde38b146105f95761021a565b80639a5d44071461054d578063a22cb46514610570578063bff5e79d14610583578063c45a0155146105965761021a565b806375e6590f116100f457806375e6590f146104c25780637ecebe00146104e257806383ca4b6f14610502578063862440e2146105155780638da5cb5b146105285761021a565b80635f7ef2fa146104815780636ef8e02d14610494578063715018a6146104a7578063731133e9146104af5761021a565b806330adf81f116101a85780634e1273f4116101775780634e1273f41461037057806350bf994a14610390578063559f05dc146103bd57806355f804b3146103dc5780635771f997146103ef5761021a565b806330adf81f1461031b5780633644e5151461034257806344f09d111461034a57806348613c281461035d5761021a565b80630e89341c116101ef5780630e89341c14610290578063177315e3146102b05780631f7fdffa146102c35780632a55205a146102d65780632eb2c2d6146103085761021a565b8062893bf81461021f578062fdd58e1461023457806301ffc9a71461025a5780630935d6631461027d575b600080fd5b61023261022d3660046145d9565b61060c565b005b6102476102423660046142dd565b6106e9565b6040519081526020015b60405180910390f35b61026d6102683660046144f2565b610739565b6040519015158152602001610251565b61023261028b3660046145d9565b610766565b6102a361029e3660046144da565b610ad8565b6040516102519190614a37565b6102326102be3660046147b7565b610d16565b6102326102d136600461421a565b610d64565b6102e96102e4366004614796565b610daf565b604080516001600160a01b039093168352602083019190915201610251565b61023261031636600461400d565b610df4565b6102477fdaab21af31ece73a508939fedd476a5ee5129a5ed4bb091f3236ffb45394df6281565b610247611032565b61026d6103583660046146dd565b611039565b61023261036b36600461411c565b611089565b61038361037e36600461438a565b611351565b60405161025191906149dd565b600e546040805161010083046001600160a01b03168152600160a81b90920460ff16602083015201610251565b61026d6103cb366004613fb9565b6001600160a01b0381163014919050565b6102326103ea36600461452a565b611470565b6104426103fd3660046144da565b600b602052600090815260409020805460018201546002830154600384015460048501546005909501546001600160a01b039485169593949293918316929091169086565b604080516001600160a01b03978816815260208101969096528501939093529084166060840152909216608082015260a081019190915260c001610251565b61023261048f3660046147e8565b6114b1565b6102326104a2366004613fb9565b6115ec565b6102326116c2565b6102326104bd366004614308565b611736565b6102476104d03660046144da565b600d6020526000908152604090205481565b6102476104f0366004613fb9565b60096020526000908152604090205481565b610232610510366004614456565b611795565b61023261052336600461475c565b611803565b6004546001600160a01b03165b6040516001600160a01b039091168152602001610251565b61026d61055b3660046144da565b600c6020526000908152604090205460ff1681565b61023261057e3660046142b0565b611851565b610232610591366004614180565b61185c565b61053560065461010090046001600160a01b031690565b6102326105bb366004613fb9565b6119c7565b61026d6105ce36600461460b565b611b02565b61026d6105e1366004613fd5565b611c2a565b6102326105f43660046140b6565b611c58565b610232610607366004613fb9565b611d3e565b80516001600160a01b0316331461063e5760405162461bcd60e51b815260040161063590614a4a565b60405180910390fd5b600061064982611e1a565b6000818152600b60205260409020549091506001600160a01b0316156106a55760405162461bcd60e51b815260206004820152601160248201527053484f59553a204249445f45584953545360781b6044820152606401610635565b6000818152600c6020526040808220805460ff191660011790555182917fe8d9861dbc9c663ed3accd261bbe2fe01e0d3d9e5f51fa38523b265c7757a93a91a25050565b60006001600160a01b0383166107115760405162461bcd60e51b815260040161063590614aec565b5060009081526001602090815260408083206001600160a01b03949094168352929052205490565b600063152a902d60e11b6001600160e01b03198316148061075e575061075e82611ef8565b90505b919050565b6002600a5414156107895760405162461bcd60e51b815260040161063590614a74565b6002600a5560208101516001600160a01b031630146107e45760405162461bcd60e51b815260206004820152601760248201527653484f59553a20494e56414c49445f45584348414e474560481b6044820152606401610635565b60006107ef82611e1a565b90506107fb8282611f48565b61081b818360000151846101200151856101400151866101600151612218565b6000818152600b6020908152604091829020825160c08101845281546001600160a01b039081168083526001840154948301949094526002830154828601819052600384015482166060840152600480850154831660808086019190915260059095015460a08501529388015160e08901516101008a0151975163e01be26360e01b81529497919093169563e01be263956108ba959293919201614bb7565b60206040518083038186803b1580156108d257600080fd5b505afa1580156108e6573d6000803e3d6000fd5b505050506040513d601f19601f8201168201806040525081019061090a91906144be565b6109475760405162461bcd60e51b815260206004820152600e60248201526d53484f59553a204641494c55524560901b6044820152606401610635565b60c08301516001600160a01b03811661095e575082515b6109858460a00151836000015183856020015186604001516109809190614cc2565b6123dc565b15610a8c576020808301516000858152600d9092526040909120546109aa9190614c8a565b6000848152600d602052604090205560608201516001600160a01b0381166109d0575081515b6109ed85602001518660000151838860400151876020015161261f565b6000848152600b6020908152604080832080546001600160a01b03199081168255600182018590556002820185905560038201805482169055600482018054909116905560050192909255845190850151858301516080870151935188947f72fd87c5ad3903eb05815544ef7ea4640a18e631c9c02eb099c810834f82355594610a7e9490939092909188916149ab565b60405180910390a250610acd565b6000838152600c6020526040808220805460ff191660011790555184917fe8d9861dbc9c663ed3accd261bbe2fe01e0d3d9e5f51fa38523b265c7757a93a91a25b50506001600a555050565b600081815260086020526040812080546060929190610af690614d3b565b80601f0160208091040260200160405190810160405280929190818152602001828054610b2290614d3b565b8015610b6f5780601f10610b4457610100808354040283529160200191610b6f565b820191906000526020600020905b815481529060010190602001808311610b5257829003601f168201915b50505050509050600081511115610b87579050610761565b600060078054610b9690614d3b565b80601f0160208091040260200160405190810160405280929190818152602001828054610bc290614d3b565b8015610c0f5780601f10610be457610100808354040283529160200191610c0f565b820191906000526020600020905b815481529060010190602001808311610bf257829003601f168201915b50505050509050600081511115610c495780604051602001610c3191906148e6565b60405160208183030381529060405292505050610761565b600660019054906101000a90046001600160a01b03166001600160a01b031663c6edbca46040518163ffffffff1660e01b815260040160006040518083038186803b158015610c9757600080fd5b505afa158015610cab573d6000803e3d6000fd5b505050506040513d6000823e601f3d908101601f19168201604052610cd3919081019061455c565b90506000610ce230601461266c565b90508181604051602001610cf79291906148a2565b6040516020818303038152906040529350505050610761565b50919050565b610d21338585612854565b6040805184815260208101839052839186917fed1397de7c11c080337d84f0acdca9b26b1237affe97a486bb12549594a70731910160405180910390a350505050565b33610d776004546001600160a01b031690565b6001600160a01b031614610d9d5760405162461bcd60e51b815260040161063590614a4a565b610da984848484612946565b50505050565b600e54600090819061010081046001600160a01b0316906103e890610dde90600160a81b900460ff1686614cc2565b610de89190614ca2565b915091505b9250929050565b8151835114610e155760405162461bcd60e51b815260040161063590614b1c565b6001600160a01b038416610e3b5760405162461bcd60e51b815260040161063590614aec565b6001600160a01b038516331480610e575750610e578533611c2a565b610e735760405162461bcd60e51b815260040161063590614a4a565b3360005b8451811015610fc4576000858281518110610ea257634e487b7160e01b600052603260045260246000fd5b602002602001015190506000858381518110610ece57634e487b7160e01b600052603260045260246000fd5b60209081029190910181015160008481526001835260408082206001600160a01b038e168352909352919091205490915081811015610f1f5760405162461bcd60e51b815260040161063590614b80565b610f298282614ce1565b6001600085815260200190815260200160002060008c6001600160a01b03166001600160a01b0316815260200190815260200160002081905550816001600085815260200190815260200160002060008b6001600160a01b03166001600160a01b031681526020019081526020016000206000828254610fa99190614c8a565b9250508190555050505080610fbd90614d9c565b9050610e77565b50846001600160a01b0316866001600160a01b0316826001600160a01b03167f4a39dc06d4c0dbc64b70af90fd698a233a518aa5d07e595d983b8c0526c8f7fb87876040516110149291906149f0565b60405180910390a461102a818787878787612aaa565b505050505050565b6005545b90565b60006002600a54141561105e5760405162461bcd60e51b815260040161063590614a74565b6002600a5561107a8661107081611e1a565b3388888888612c17565b6001600a559695505050505050565b8342111561109657600080fd5b6005546001600160a01b038781166000818152600960208181526040808420805482517fdaab21af31ece73a508939fedd476a5ee5129a5ed4bb091f3236ffb45394df6281860152808401889052978e1660608901526080880181905260a08089018e90528351808a03909101815260c08901845280519085012061190160f01b60e08a015260e28901999099526101028089019990995282518089039099018952610122909701909152865196820196909620938352529092600192909190611161908490614c8a565b9091555050863b1561125257604080516020810185905280820184905260f886901b6001600160f81b0319166060820152815160418183030181526061820192839052630b135d3f60e11b9092526001600160a01b03891691631626ba7e916111ce918591606501614a1e565b60206040518083038186803b1580156111e657600080fd5b505afa1580156111fa573d6000803e3d6000fd5b505050506040513d601f19601f8201168201806040525081019061121e919061450e565b6001600160e01b031916631626ba7e60e01b1461124d5760405162461bcd60e51b815260040161063590614b53565b61133c565b6040805160008082526020820180845284905260ff871692820192909252606081018590526080810184905260019060a0016020604051602081039080840390855afa1580156112a6573d6000803e3d6000fd5b5050604051601f1901519150506001600160a01b0381166113095760405162461bcd60e51b815260206004820152601860248201527f53484f59553a20494e56414c49445f5349474e415455524500000000000000006044820152606401610635565b876001600160a01b0316816001600160a01b03161461133a5760405162461bcd60e51b815260040161063590614b53565b505b6113488787600161306e565b50505050505050565b606081518351146113745760405162461bcd60e51b815260040161063590614b1c565b600083516001600160401b0381111561139d57634e487b7160e01b600052604160045260246000fd5b6040519080825280602002602001820160405280156113c6578160200160208202803683370190505b50905060005b84518110156114685761142d8582815181106113f857634e487b7160e01b600052603260045260246000fd5b602002602001015185838151811061142057634e487b7160e01b600052603260045260246000fd5b60200260200101516106e9565b82828151811061144d57634e487b7160e01b600052603260045260246000fd5b602090810291909101015261146181614d9c565b90506113cc565b509392505050565b6004546001600160a01b0316331461149a5760405162461bcd60e51b815260040161063590614a4a565b80516114ad906007906020840190613d14565b5050565b6004546001600160a01b031633146114db5760405162461bcd60e51b815260040161063590614a4a565b600e54600160a81b900460ff908116141561154357600e5460ff908116908216111561153e5760405162461bcd60e51b815260206004820152601260248201527153484f59553a20494e56414c49445f46454560701b6044820152606401610635565b611597565b600e5460ff600160a81b9091048116908216106115975760405162461bcd60e51b815260206004820152601260248201527153484f59553a20494e56414c49445f46454560701b6044820152606401610635565b600e805460ff60a81b1916600160a81b60ff8416908102919091179091556040519081527fd9ac3bc8ad92267d0b101786ddb4d37746ed1e3ee77637846294edf17dd9eb8a906020015b60405180910390a150565b6004546001600160a01b031633146116165760405162461bcd60e51b815260040161063590614a4a565b6001600160a01b03811661166c5760405162461bcd60e51b815260206004820152601c60248201527f53484f59553a20494e56414c49445f4645455f524543495049454e54000000006044820152606401610635565b600e8054610100600160a81b0319166101006001600160a01b038416908102919091179091556040519081527f1ce5f25607cb1a4fa6c947b55700213a9ed6a1d7ef1cf1d02ab467efd02a993e906020016115e1565b6004546001600160a01b031633146116ec5760405162461bcd60e51b815260040161063590614a4a565b6004546040516000916001600160a01b0316907f8be0079c531659141344cd1fd0a4f28419497f9722a3daafe3b4186f6b6457e0908390a3600480546001600160a01b0319169055565b60065461010090046001600160a01b031633148061176d5750336117626004546001600160a01b031690565b6001600160a01b0316145b6117895760405162461bcd60e51b815260040161063590614a4a565b610da984848484613132565b610da933858580806020026020016040519081016040528093929190818152602001838360200280828437600092019190915250506040805160208089028281018201909352888252909350889250879182918501908490808284376000920191909152506131e992505050565b6004546001600160a01b0316331461182d5760405162461bcd60e51b815260040161063590614a4a565b6000828152600860209081526040909120825161184c92840190613d14565b505050565b6114ad33838361306e565b600054610100900460ff1680611875575060005460ff16155b6118915760405162461bcd60e51b815260040161063590614a9e565b600054610100900460ff161580156118b3576000805461ffff19166101011790555b6118bb613390565b6118c4866119c7565b600660019054906101000a90046001600160a01b03166001600160a01b03166317e1f82e6040518163ffffffff1660e01b815260040160206040518083038186803b15801561191257600080fd5b505afa158015611926573d6000803e3d6000fd5b505050506040513d601f19601f8201168201806040525081019061194a9190614804565b600e805460ff191660ff929092169190911790558451156119805761198086868660405180602001604052806000815250612946565b611989836115ec565b600e805460ff60a81b191660ff60a81b17905560ff8216156119ae576119ae826114b1565b801561102a576000805461ff0019169055505050505050565b600054610100900460ff16806119e0575060005460ff16155b6119fc5760405162461bcd60e51b815260040161063590614a9e565b600054610100900460ff16158015611a1e576000805461ffff19166101011790555b611a3660405180602001604052806000815250613404565b611a3f82613479565b60068054610100600160a81b0319163361010002179055467f8b73c3c69bb8fe3d512ecc4cf759cc79239f7b179b0ffacaa9a75d522b39400f611a81306134d9565b80516020918201206040805192830193909352918101919091527fc89efdaa54c0f20c7adf612882df0950f5a951637e0307cdcb4c672f298b8bc66060820152608081018290523060a082015260c00160408051601f1981840301815291905280516020909101206005555080156114ad576000805461ff00191690555050565b60006002600a541415611b275760405162461bcd60e51b815260040161063590614a74565b6002600a556000611b3784611e1a565b83519091508114611b825760405162461bcd60e51b81526020600482015260156024820152740a6909eb2aa7440aa9c9a82a886908a88be9082a69605b1b6044820152606401610635565b60208301516001600160a01b0316611bd45760405162461bcd60e51b815260206004820152601560248201527429a427acaa9d1024a72b20a624a22fa9a4a3a722a960591b6044820152606401610635565b611bfa611be08461352e565b84602001518560c001518660e00151876101000151612218565b611c1d848285602001518660400151876060015188608001518960a00151612c17565b6001600a55949350505050565b6001600160a01b03918216600090815260026020908152604080832093909416825291909152205460ff1690565b6001600160a01b038416611c7e5760405162461bcd60e51b815260040161063590614aec565b6001600160a01b038516331480611c9a5750611c9a8533611c2a565b611cb65760405162461bcd60e51b815260040161063590614a4a565b33611cd6818787611cc6886135b9565b611ccf886135b9565b5050505050565b611ce286868686613612565b846001600160a01b0316866001600160a01b0316826001600160a01b0316600080516020614ed48339815191528787604051611d28929190918252602082015260400190565b60405180910390a461102a8187878787876136a9565b6004546001600160a01b03163314611d685760405162461bcd60e51b815260040161063590614a4a565b6001600160a01b038116611dbe5760405162461bcd60e51b815260206004820152601860248201527f53484f59553a20494e56414c49445f4e45575f4f574e455200000000000000006044820152606401610635565b6004546040516001600160a01b038084169216907f8be0079c531659141344cd1fd0a4f28419497f9722a3daafe3b4186f6b6457e090600090a3600480546001600160a01b0319166001600160a01b0392909216919091179055565b80516020808301516040808501516060860151608087015160a088015160c089015160e08a01516101008b01518051908a0120965160009a611edb9a7f17fdf8831f8bd77353b30f42ba9bc64e7144545a42a890389f298feeb45dec889a9199919897969594939201998a526001600160a01b0398891660208b015296881660408a01526060890195909552608088019390935290851660a0870152841660c086015290921660e08401526101008301919091526101208201526101400190565b604051602081830303815290604052805190602001209050919050565b60006001600160e01b03198216636cdb3d1360e11b1480611f2957506001600160e01b031982166303a24d0760e21b145b8061075e57506301ffc9a760e01b6001600160e01b031983161461075e565b6000818152600c602052604090205460ff1615611f9a5760405162461bcd60e51b815260206004820152601060248201526f14d213d6554e8810d05390d15313115160821b6044820152606401610635565b81516001600160a01b0316611fe85760405162461bcd60e51b815260206004820152601460248201527329a427acaa9d1024a72b20a624a22fa6a0a5a2a960611b6044820152606401610635565b60208201516001600160a01b03166120375760405162461bcd60e51b815260206004820152601260248201527114d213d6554e881253959053125117d3919560721b6044820152606401610635565b60008260600151116120835760405162461bcd60e51b815260206004820152601560248201527414d213d6554e881253959053125117d05353d55395605a1b6044820152606401610635565b60808201516001600160a01b03166120dd5760405162461bcd60e51b815260206004820152601760248201527f53484f59553a20494e56414c49445f53545241544547590000000000000000006044820152606401610635565b60a08201516001600160a01b03166121375760405162461bcd60e51b815260206004820152601760248201527f53484f59553a20494e56414c49445f43555252454e43590000000000000000006044820152606401610635565b61214e60065461010090046001600160a01b031690565b6080830151604051632666e89f60e21b81526001600160a01b03918216600482015291169063999ba27c9060240160206040518083038186803b15801561219457600080fd5b505afa1580156121a8573d6000803e3d6000fd5b505050506040513d601f19601f820116820180604052508101906121cc91906144be565b6114ad5760405162461bcd60e51b815260206004820152601f60248201527f53484f59553a2053545241544547595f4e4f545f57484954454c4953544544006044820152606401610635565b6000612222611032565b60405161190160f01b6020820152602281019190915260428101879052606201604051602081830303815290604052805190602001209050612264853b151590565b1561234e57604080516020810185905280820184905260f886901b6001600160f81b0319166060820152815160418183030181526061820192839052630b135d3f60e11b9092526001600160a01b03871691631626ba7e916122ca918591606501614a1e565b60206040518083038186803b1580156122e257600080fd5b505afa1580156122f6573d6000803e3d6000fd5b505050506040513d601f19601f8201168201806040525081019061231a919061450e565b6001600160e01b031916631626ba7e60e01b146123495760405162461bcd60e51b815260040161063590614b53565b61102a565b60408051600081526020810180835283905260ff86169181019190915260608101849052608081018390526001600160a01b0386169060019060a0016020604051602081039080840390855afa1580156123ac573d6000803e3d6000fd5b505050602060405103516001600160a01b03161461102a5760405162461bcd60e51b815260040161063590614b53565b60006123ea8585308561379d565b6123f657506000612617565b600061240f60065461010090046001600160a01b031690565b90506000839050600080836001600160a01b031663aec0b5436040518163ffffffff1660e01b8152600401604080518083038186803b15801561245157600080fd5b505afa158015612465573d6000803e3d6000fd5b505050506040513d601f19601f82011682018060405250810190612489919061435c565b909250905060006103e86124a060ff841689614cc2565b6124aa9190614ca2565b90506124c06001600160a01b038b16848361386f565b6124ca8185614ce1565b9350505050600080836001600160a01b031663c2b11e186040518163ffffffff1660e01b8152600401604080518083038186803b15801561250a57600080fd5b505afa15801561251e573d6000803e3d6000fd5b505050506040513d601f19601f82011682018060405250810190612542919061435c565b909250905060006103e861255960ff841689614cc2565b6125639190614ca2565b90506125796001600160a01b038b16848361386f565b6125838185614ce1565b93505050506000806125ae600e5461010081046001600160a01b031691600160a81b90910460ff1690565b909250905060ff808216146125fa5760006103e86125cf60ff841686614cc2565b6125d99190614ca2565b905080156125f8576125eb8185614ce1565b93506125f88a84836138c1565b505b61260e6001600160a01b038a16888561386f565b60019450505050505b949350505050565b61262b84848484613612565b60408051838152602081018390526001600160a01b0380861692908716913391600080516020614ed483398151915291015b60405180910390a45050505050565b6060600061267b836002614cc2565b612686906002614c8a565b6001600160401b038111156126ab57634e487b7160e01b600052604160045260246000fd5b6040519080825280601f01601f1916602001820160405280156126d5576020820181803683370190505b509050600360fc1b816000815181106126fe57634e487b7160e01b600052603260045260246000fd5b60200101906001600160f81b031916908160001a905350600f60fb1b8160018151811061273b57634e487b7160e01b600052603260045260246000fd5b60200101906001600160f81b031916908160001a905350600061275f846002614cc2565b61276a906001614c8a565b90505b60018111156127fe576f181899199a1a9b1b9c1cb0b131b232b360811b85600f16601081106127ac57634e487b7160e01b600052603260045260246000fd5b1a60f81b8282815181106127d057634e487b7160e01b600052603260045260246000fd5b60200101906001600160f81b031916908160001a90535060049490941c936127f781614d24565b905061276d565b50831561284d5760405162461bcd60e51b815260206004820181905260248201527f537472696e67733a20686578206c656e67746820696e73756666696369656e746044820152606401610635565b9392505050565b6001600160a01b03831661287a5760405162461bcd60e51b815260040161063590614aec565b336128aa8185600061288b876135b9565b612894876135b9565b5050604080516020810190915260009052505050565b60008381526001602090815260408083206001600160a01b0388168452909152902054828110156128ed5760405162461bcd60e51b815260040161063590614b80565b6128f78382614ce1565b60008581526001602090815260408083206001600160a01b038a81168086529184528285209590955581518981529283018890529293861691600080516020614ed4833981519152910161265d565b6001600160a01b03841661296c5760405162461bcd60e51b815260040161063590614aec565b815183511461298d5760405162461bcd60e51b815260040161063590614b1c565b3360005b8451811015612a46578381815181106129ba57634e487b7160e01b600052603260045260246000fd5b6020026020010151600160008784815181106129e657634e487b7160e01b600052603260045260246000fd5b602002602001015181526020019081526020016000206000886001600160a01b03166001600160a01b031681526020019081526020016000206000828254612a2e9190614c8a565b90915550819050612a3e81614d9c565b915050612991565b50846001600160a01b031660006001600160a01b0316826001600160a01b03167f4a39dc06d4c0dbc64b70af90fd698a233a518aa5d07e595d983b8c0526c8f7fb8787604051612a979291906149f0565b60405180910390a4611ccf816000878787875b6001600160a01b0384163b1561102a5760405163bc197c8160e01b81526001600160a01b0385169063bc197c8190612aee9089908990889088908890600401614913565b602060405180830381600087803b158015612b0857600080fd5b505af1925050508015612b38575060408051601f3d908101601f19168201909252612b359181019061450e565b60015b612bbd57612b44614de3565b806308c379a01415612b7e5750612b59614dfa565b80612b645750612b80565b8060405162461bcd60e51b81526004016106359190614a37565b505b60405162461bcd60e51b815260206004820152601260248201527129a427acaa9d102727afa922a1a2a4ab22a960711b6044820152606401610635565b6001600160e01b0319811663bc197c8160e01b146113485760405162461bcd60e51b815260206004820152601760248201527629a427acaa9d1024a72b20a624a22fa922a1a2a4ab22a960491b6044820152606401610635565b60208701516000906001600160a01b03163014612c705760405162461bcd60e51b815260206004820152601760248201527653484f59553a20494e56414c49445f45584348414e474560481b6044820152606401610635565b60008511612cb85760405162461bcd60e51b815260206004820152601560248201527414d213d6554e881253959053125117d05353d55395605a1b6044820152606401610635565b6000878152600d60205260409020546060890151612cd68783614c8a565b1115612d165760405162461bcd60e51b815260206004820152600f60248201526e14d213d6554e8814d3d31117d3d555608a1b6044820152606401610635565b612d208989611f48565b612d40888a600001518b61012001518c61014001518d6101600151612218565b88608001516001600160a01b031663e01be2638a60e001518b61010001518a896040518563ffffffff1660e01b8152600401612d7f9493929190614bb7565b60206040518083038186803b158015612d9757600080fd5b505afa158015612dab573d6000803e3d6000fd5b505050506040513d601f19601f82011682018060405250810190612dcf91906144be565b15612edb57612dde8682614c8a565b6000898152600d602052604090205560c08901516001600160a01b038116612e04575088515b60a08a0151612e199089836109808b8b614cc2565b612e655760405162461bcd60e51b815260206004820152601f60248201527f53484f59553a204641494c45445f544f5f5452414e534645525f46554e4453006044820152606401610635565b6001600160a01b038516612e77578794505b612e908a602001518b60000151878d604001518b61261f565b887f72fd87c5ad3903eb05815544ef7ea4640a18e631c9c02eb099c810834f8235558989898989604051612ec89594939291906149ab565b60405180910390a2600192505050613063565b6000888152600b60205260409081902060808b015160e08c01516101008d0151600284015460058501549551633140c34d60e11b815294956001600160a01b0390941694636281869a94612f389493928f928e9290600401614bec565b60206040518083038186803b158015612f5057600080fd5b505afa158015612f64573d6000803e3d6000fd5b505050506040513d601f19601f82011682018060405250810190612f8891906144be565b156130295780546001600160a01b03808a166001600160a01b031992831617835560018301899055600283018890556003830180548883169084161790556004830180549187169190921617905543600582015560405189907f4055f76fe1f351fec66b9ba790ddbdc29eb45c038163a6b1327277441a8c65f190613016908b908b908b908b908b906149ab565b60405180910390a2600092505050613063565b5060405162461bcd60e51b815260206004820152600e60248201526d53484f59553a204641494c55524560901b6044820152606401610635565b979650505050505050565b816001600160a01b0316836001600160a01b031614156130c55760405162461bcd60e51b815260206004820152601260248201527114d213d6554e881393d517d0531313d5d15160721b6044820152606401610635565b6001600160a01b03838116600081815260026020908152604080832094871680845294825291829020805460ff191686151590811790915591519182527f17307eab39ab6107e8899845ad3d59bd9653f200f220920489ca2b5937696c31910160405180910390a3505050565b6001600160a01b0384166131585760405162461bcd60e51b815260040161063590614aec565b3361316981600087611cc6886135b9565b60008481526001602090815260408083206001600160a01b03891684529091528120805485929061319b908490614c8a565b909155505060408051858152602081018590526001600160a01b038088169260009291851691600080516020614ed4833981519152910160405180910390a4611ccf816000878787876136a9565b6001600160a01b03831661320f5760405162461bcd60e51b815260040161063590614aec565b80518251146132305760405162461bcd60e51b815260040161063590614b1c565b6040805160208101909152600090523360005b835181101561333157600084828151811061326e57634e487b7160e01b600052603260045260246000fd5b60200260200101519050600084838151811061329a57634e487b7160e01b600052603260045260246000fd5b60209081029190910181015160008481526001835260408082206001600160a01b038c1683529093529190912054909150818110156132eb5760405162461bcd60e51b815260040161063590614b80565b6132f58282614ce1565b60009384526001602090815260408086206001600160a01b038c168752909152909320929092555081905061332981614d9c565b915050613243565b5060006001600160a01b0316846001600160a01b0316826001600160a01b03167f4a39dc06d4c0dbc64b70af90fd698a233a518aa5d07e595d983b8c0526c8f7fb86866040516133829291906149f0565b60405180910390a450505050565b600054610100900460ff16806133a9575060005460ff16155b6133c55760405162461bcd60e51b815260040161063590614a9e565b600054610100900460ff161580156133e7576000805461ffff19166101011790555b6133ef613950565b8015613401576000805461ff00191690555b50565b600054610100900460ff168061341d575060005460ff16155b6134395760405162461bcd60e51b815260040161063590614a9e565b600054610100900460ff1615801561345b576000805461ffff19166101011790555b613464826139af565b80156114ad576000805461ff00191690555050565b600054610100900460ff1680613492575060005460ff16155b6134ae5760405162461bcd60e51b815260040161063590614a9e565b600054610100900460ff161580156134d0576000805461ffff19166101011790555b61346482613a0f565b60608161350157506040805180820190915260048152630307830360e41b6020820152610761565b8160005b8115613524578061351581614d9c565b915050600882901c9150613505565b612617848261266c565b80516020808301516040808501516060860151608087015160a08801519351600097611edb977fb98e1dc48988064e6dfb813618609d7da80a8841e5f277039788ac4b50d497b297919691959493920196875260208701959095526001600160a01b03938416604087015260608601929092526080850152811660a08401521660c082015260e00190565b6040805160018082528183019092526060916000919060208083019080368337019050509050828160008151811061360157634e487b7160e01b600052603260045260246000fd5b602090810291909101015292915050565b60008281526001602090815260408083206001600160a01b0388168452909152902054818110156136555760405162461bcd60e51b815260040161063590614b80565b61365f8282614ce1565b60008481526001602090815260408083206001600160a01b038a8116855292528083209390935586168152908120805484929061369d908490614c8a565b90915550505050505050565b6001600160a01b0384163b1561102a5760405163f23a6e6160e01b81526001600160a01b0385169063f23a6e61906136ed9089908990889088908890600401614971565b602060405180830381600087803b15801561370757600080fd5b505af1925050508015613737575060408051601f3d908101601f191682019092526137349181019061450e565b60015b61374357612b44614de3565b6001600160e01b0319811663f23a6e6160e01b146113485760405162461bcd60e51b815260206004820152601760248201527629a427acaa9d1024a72b20a624a22fa922a1a2a4ab22a960491b6044820152606401610635565b604080516001600160a01b0385811660248301528481166044830152606480830185905283518084039091018152608490920183526020820180516001600160e01b03166323b872dd60e01b179052915160009283928392918916916138039190614886565b6000604051808303816000865af19150503d8060008114613840576040519150601f19603f3d011682016040523d82523d6000602084013e613845565b606091505b509150915081801561306357508051158061306357508080602001905181019061306391906144be565b604080516001600160a01b038416602482015260448082018490528251808303909101815260649091019091526020810180516001600160e01b031663a9059cbb60e01b17905261184c908490613ac4565b6138d56001600160a01b038416838361386f565b813b1561184c57816001600160a01b031663fff6cae96040518163ffffffff1660e01b8152600401602060405180830381600087803b15801561391757600080fd5b505af1925050508015613947575060408051601f3d908101601f1916820190925261394491810190614744565b60015b610da95761184c565b600054610100900460ff1680613969575060005460ff16155b6139855760405162461bcd60e51b815260040161063590614a9e565b600054610100900460ff161580156139a7576000805461ffff19166101011790555b6133ef613b96565b600054610100900460ff16806139c8575060005460ff16155b6139e45760405162461bcd60e51b815260040161063590614a9e565b600054610100900460ff16158015613a06576000805461ffff19166101011790555b61346482613c06565b600054610100900460ff1680613a28575060005460ff16155b613a445760405162461bcd60e51b815260040161063590614a9e565b600054610100900460ff16158015613a66576000805461ffff19166101011790555b600480546001600160a01b0319166001600160a01b0384169081179091556040516000907f8be0079c531659141344cd1fd0a4f28419497f9722a3daafe3b4186f6b6457e0908290a380156114ad576000805461ff00191690555050565b6000613b19826040518060400160405280602081526020017f5361666545524332303a206c6f772d6c6576656c2063616c6c206661696c6564815250856001600160a01b0316613c199092919063ffffffff16565b80519091501561184c5780806020019051810190613b3791906144be565b61184c5760405162461bcd60e51b815260206004820152602a60248201527f5361666545524332303a204552433230206f7065726174696f6e20646964206e6044820152691bdd081cdd58d8d9595960b21b6064820152608401610635565b600054610100900460ff1680613baf575060005460ff16155b613bcb5760405162461bcd60e51b815260040161063590614a9e565b600054610100900460ff16158015613bed576000805461ffff19166101011790555b6001600a558015613401576000805461ff001916905550565b80516114ad906003906020840190613d14565b6060612617848460008585843b613c725760405162461bcd60e51b815260206004820152601d60248201527f416464726573733a2063616c6c20746f206e6f6e2d636f6e74726163740000006044820152606401610635565b600080866001600160a01b03168587604051613c8e9190614886565b60006040518083038185875af1925050503d8060008114613ccb576040519150601f19603f3d011682016040523d82523d6000602084013e613cd0565b606091505b509150915061306382828660608315613cea57508161284d565b825115613cfa5782518084602001fd5b8160405162461bcd60e51b81526004016106359190614a37565b828054613d2090614d3b565b90600052602060002090601f016020900481019282613d425760008555613d88565b82601f10613d5b57805160ff1916838001178555613d88565b82800160010185558215613d88579182015b82811115613d88578251825591602001919060010190613d6d565b50613d94929150613d98565b5090565b5b80821115613d945760008155600101613d99565b803561076181614e8b565b60008083601f840112613dc9578182fd5b5081356001600160401b03811115613ddf578182fd5b6020830191508360208260051b8501011115610ded57600080fd5b600082601f830112613e0a578081fd5b81356020613e1782614c40565b604051613e248282614d70565b8381528281019150858301600585901b87018401881015613e43578586fd5b855b85811015613e6157813584529284019290840190600101613e45565b5090979650505050505050565b600082601f830112613e7e578081fd5b8135613e8981614c63565b604051613e968282614d70565b828152856020848701011115613eaa578384fd5b82602086016020830137918201602001929092529392505050565b6000610180808385031215613ed8578182fd5b613ee181614c33565b915050613eed82613dad565b8152613efb60208301613dad565b60208201526040820135604082015260608201356060820152613f2060808301613dad565b6080820152613f3160a08301613dad565b60a0820152613f4260c08301613dad565b60c082015260e082013560e0820152610100808301356001600160401b03811115613f6c57600080fd5b613f7885828601613e6e565b828401525050610120613f8c818401613fae565b9082015261014082810135908201526101609182013591810191909152919050565b803561076181614ec4565b600060208284031215613fca578081fd5b813561284d81614e8b565b60008060408385031215613fe7578081fd5b8235613ff281614e8b565b9150602083013561400281614e8b565b809150509250929050565b600080600080600060a08688031215614024578081fd5b853561402f81614e8b565b9450602086013561403f81614e8b565b935060408601356001600160401b038082111561405a578283fd5b61406689838a01613dfa565b9450606088013591508082111561407b578283fd5b61408789838a01613dfa565b9350608088013591508082111561409c578283fd5b506140a988828901613e6e565b9150509295509295909350565b600080600080600060a086880312156140cd578283fd5b85356140d881614e8b565b945060208601356140e881614e8b565b9350604086013592506060860135915060808601356001600160401b03811115614110578182fd5b6140a988828901613e6e565b60008060008060008060c08789031215614134578384fd5b863561413f81614e8b565b9550602087013561414f81614e8b565b945060408701359350606087013561416681614ec4565b9598949750929560808101359460a0909101359350915050565b600080600080600060a08688031215614197578283fd5b85356141a281614e8b565b945060208601356001600160401b03808211156141bd578485fd5b6141c989838a01613dfa565b955060408801359150808211156141de578485fd5b506141eb88828901613dfa565b93505060608601356141fc81614e8b565b9150608086013561420c81614ec4565b809150509295509295909350565b6000806000806080858703121561422f578182fd5b843561423a81614e8b565b935060208501356001600160401b0380821115614255578384fd5b61426188838901613dfa565b94506040870135915080821115614276578384fd5b61428288838901613dfa565b93506060870135915080821115614297578283fd5b506142a487828801613e6e565b91505092959194509250565b600080604083850312156142c2578182fd5b82356142cd81614e8b565b9150602083013561400281614ea0565b600080604083850312156142ef578182fd5b82356142fa81614e8b565b946020939093013593505050565b6000806000806080858703121561431d578182fd5b843561432881614e8b565b9350602085013592506040850135915060608501356001600160401b03811115614350578182fd5b6142a487828801613e6e565b6000806040838503121561436e578182fd5b825161437981614e8b565b602084015190925061400281614ec4565b6000806040838503121561439c578182fd5b82356001600160401b03808211156143b2578384fd5b818501915085601f8301126143c5578384fd5b813560206143d282614c40565b6040516143df8282614d70565b8381528281019150858301600585901b870184018b10156143fe578889fd5b8896505b8487101561442957803561441581614e8b565b835260019690960195918301918301614402565b509650508601359250508082111561443f578283fd5b5061444c85828601613dfa565b9150509250929050565b6000806000806040858703121561446b578182fd5b84356001600160401b0380821115614481578384fd5b61448d88838901613db8565b909650945060208701359150808211156144a5578384fd5b506144b287828801613db8565b95989497509550505050565b6000602082840312156144cf578081fd5b815161284d81614ea0565b6000602082840312156144eb578081fd5b5035919050565b600060208284031215614503578081fd5b813561284d81614eae565b60006020828403121561451f578081fd5b815161284d81614eae565b60006020828403121561453b578081fd5b81356001600160401b03811115614550578182fd5b61261784828501613e6e565b60006020828403121561456d578081fd5b81516001600160401b03811115614582578182fd5b8201601f81018413614592578182fd5b805161459d81614c63565b6040516145aa8282614d70565b8281528660208486010111156145be578485fd5b6145cf836020830160208701614cf8565b9695505050505050565b6000602082840312156145ea578081fd5b81356001600160401b038111156145ff578182fd5b61261784828501613ec5565b60008082840361014081121561461f578283fd5b83356001600160401b03811115614634578384fd5b61464086828701613ec5565b93505061012080601f1983011215614656578283fd5b61465f81614c33565b91506020850135825261467460408601613dad565b6020830152606085013560408301526080850135606083015261469960a08601613dad565b60808301526146aa60c08601613dad565b60a08301526146bb60e08601613fae565b60c08301526101008581013560e0840152940135938101939093525092909150565b600080600080600060a086880312156146f4578283fd5b85356001600160401b03811115614709578384fd5b61471588828901613ec5565b9550506020860135935060408601359250606086013561473481614e8b565b9150608086013561420c81614e8b565b600060208284031215614755578081fd5b5051919050565b6000806040838503121561476e578182fd5b8235915060208301356001600160401b0381111561478a578182fd5b61444c85828601613e6e565b600080604083850312156147a8578182fd5b50508035926020909101359150565b600080600080608085870312156147cc578182fd5b5050823594602084013594506040840135936060013592509050565b6000602082840312156147f9578081fd5b813561284d81614ec4565b600060208284031215614815578081fd5b815161284d81614ec4565b6000815180845260208085019450808401835b8381101561484f57815187529582019590820190600101614833565b509495945050505050565b60008151808452614872816020860160208601614cf8565b601f01601f19169290920160200192915050565b60008251614898818460208701614cf8565b9190910192915050565b600083516148b4818460208801614cf8565b8351908301906148c8818360208801614cf8565b6917bdb4b23e973539b7b760b11b9101908152600a01949350505050565b600082516148f8818460208701614cf8565b683db4b23e973539b7b760b91b920191825250600901919050565b6001600160a01b0386811682528516602082015260a06040820181905260009061493f90830186614820565b82810360608401526149518186614820565b90508281036080840152614965818561485a565b98975050505050505050565b6001600160a01b03868116825285166020820152604081018490526060810183905260a0608082018190526000906130639083018461485a565b6001600160a01b0395861681526020810194909452604084019290925283166060830152909116608082015260a00190565b60006020825261284d6020830184614820565b600060408252614a036040830185614820565b8281036020840152614a158185614820565b95945050505050565b600083825260406020830152612617604083018461485a565b60006020825261284d602083018461485a565b60208082526010908201526f29a427acaa9d102327a92124a22222a760811b604082015260600190565b60208082526010908201526f14d213d6554e8814915153951490539560821b604082015260600190565b6020808252602e908201527f496e697469616c697a61626c653a20636f6e747261637420697320616c72656160408201526d191e481a5b9a5d1a585b1a5e995960921b606082015260800190565b60208082526016908201527553484f59553a20494e56414c49445f4144445245535360501b604082015260600190565b60208082526018908201527f53484f59553a204c454e475448535f4e4f545f455155414c0000000000000000604082015260600190565b60208082526013908201527214d213d6554e8815539055551213d492569151606a1b604082015260600190565b6020808252601b908201527f53484f59553a20494e53554646494349454e545f42414c414e43450000000000604082015260600190565b600085825260806020830152614bd0608083018661485a565b6001600160a01b03949094166040830152506060015292915050565b600087825260c06020830152614c0560c083018861485a565b6001600160a01b03969096166040830152506060810193909352608083019190915260a09091015292915050565b6040516107618282614d70565b60006001600160401b03821115614c5957614c59614dcd565b5060051b60200190565b60006001600160401b03821115614c7c57614c7c614dcd565b50601f01601f191660200190565b60008219821115614c9d57614c9d614db7565b500190565b600082614cbd57634e487b7160e01b81526012600452602481fd5b500490565b6000816000190483118215151615614cdc57614cdc614db7565b500290565b600082821015614cf357614cf3614db7565b500390565b60005b83811015614d13578181015183820152602001614cfb565b83811115610da95750506000910152565b600081614d3357614d33614db7565b506000190190565b600181811c90821680614d4f57607f821691505b60208210811415610d1057634e487b7160e01b600052602260045260246000fd5b601f8201601f191681016001600160401b0381118282101715614d9557614d95614dcd565b6040525050565b6000600019821415614db057614db0614db7565b5060010190565b634e487b7160e01b600052601160045260246000fd5b634e487b7160e01b600052604160045260246000fd5b600060033d111561103657600481823e5160e01c90565b600060443d1015614e0a57611036565b6040516003193d81016004833e81513d6001600160401b038160248401118184111715614e3b575050505050611036565b8285019150815181811115614e5557505050505050611036565b843d8701016020828501011115614e7157505050505050611036565b614e8060208286010187614d70565b509094505050505090565b6001600160a01b038116811461340157600080fd5b801515811461340157600080fd5b6001600160e01b03198116811461340157600080fd5b60ff8116811461340157600080fdfec3d58168c5ae7397731d063d5bbf3d657854427343f4c083240f7aacaa2d0f62a2646970667358221220d0e5400cb6f4431201df33e4bbc317dfdc35cb8d5e70985a62ac2a0778d6b65864736f6c63430008030033",
  "devdoc": {
    "kind": "dev",
    "methods": {
      "balanceOf(address,uint256)": {
        "details": "See {IERC1155-balanceOf}. Requirements: - `account` cannot be the zero address."
      },
      "balanceOfBatch(address[],uint256[])": {
        "details": "See {IERC1155-balanceOfBatch}. Requirements: - `accounts` and `ids` must have the same length."
      },
      "isApprovedForAll(address,address)": {
        "details": "See {IERC1155-isApprovedForAll}."
      },
      "owner()": {
        "details": "Returns the address of the current owner."
      },
      "renounceOwnership()": {
        "details": "Leaves the contract without owner. It will not be possible to call `onlyOwner` functions anymore. Can only be called by the current owner. NOTE: Renouncing ownership will leave the contract without an owner, thereby removing any functionality that is only available to the owner."
      },
      "safeBatchTransferFrom(address,address,uint256[],uint256[],bytes)": {
        "details": "See {IERC1155-safeBatchTransferFrom}."
      },
      "safeTransferFrom(address,address,uint256,uint256,bytes)": {
        "details": "See {IERC1155-safeTransferFrom}."
      },
      "setApprovalForAll(address,bool)": {
        "details": "See {IERC1155-setApprovalForAll}."
      },
      "transferOwnership(address)": {
        "details": "Transfers ownership of the contract to a new account (`newOwner`). Can only be called by the current owner."
      }
    },
    "version": 1
  },
  "userdoc": {
    "kind": "user",
    "methods": {},
    "version": 1
  },
  "storageLayout": {
    "storage": [
      {
        "astId": 115,
        "contract": "contracts/NFT1155V0.sol:NFT1155V0",
        "label": "_initialized",
        "offset": 0,
        "slot": "0",
        "type": "t_bool"
      },
      {
        "astId": 118,
        "contract": "contracts/NFT1155V0.sol:NFT1155V0",
        "label": "_initializing",
        "offset": 1,
        "slot": "0",
        "type": "t_bool"
      },
      {
        "astId": 7729,
        "contract": "contracts/NFT1155V0.sol:NFT1155V0",
        "label": "_balances",
        "offset": 0,
        "slot": "1",
        "type": "t_mapping(t_uint256,t_mapping(t_address,t_uint256))"
      },
      {
        "astId": 7735,
        "contract": "contracts/NFT1155V0.sol:NFT1155V0",
        "label": "_operatorApprovals",
        "offset": 0,
        "slot": "2",
        "type": "t_mapping(t_address,t_mapping(t_address,t_bool))"
      },
      {
        "astId": 7737,
        "contract": "contracts/NFT1155V0.sol:NFT1155V0",
        "label": "_uri",
        "offset": 0,
        "slot": "3",
        "type": "t_string_storage"
      },
      {
        "astId": 10553,
        "contract": "contracts/NFT1155V0.sol:NFT1155V0",
        "label": "_owner",
        "offset": 0,
        "slot": "4",
        "type": "t_address"
      },
      {
        "astId": 6257,
        "contract": "contracts/NFT1155V0.sol:NFT1155V0",
        "label": "_DOMAIN_SEPARATOR",
        "offset": 0,
        "slot": "5",
        "type": "t_bytes32"
      },
      {
        "astId": 6259,
        "contract": "contracts/NFT1155V0.sol:NFT1155V0",
        "label": "MAX_ROYALTY_FEE",
        "offset": 0,
        "slot": "6",
        "type": "t_uint8"
      },
      {
        "astId": 6261,
        "contract": "contracts/NFT1155V0.sol:NFT1155V0",
        "label": "_factory",
        "offset": 1,
        "slot": "6",
        "type": "t_address"
      },
      {
        "astId": 6263,
        "contract": "contracts/NFT1155V0.sol:NFT1155V0",
        "label": "_baseURI",
        "offset": 0,
        "slot": "7",
        "type": "t_string_storage"
      },
      {
        "astId": 6267,
        "contract": "contracts/NFT1155V0.sol:NFT1155V0",
        "label": "_uris",
        "offset": 0,
        "slot": "8",
        "type": "t_mapping(t_uint256,t_string_storage)"
      },
      {
        "astId": 6272,
        "contract": "contracts/NFT1155V0.sol:NFT1155V0",
        "label": "nonces",
        "offset": 0,
        "slot": "9",
        "type": "t_mapping(t_address,t_uint256)"
      },
      {
        "astId": 10733,
        "contract": "contracts/NFT1155V0.sol:NFT1155V0",
        "label": "_status",
        "offset": 0,
        "slot": "10",
        "type": "t_uint256"
      },
      {
        "astId": 5227,
        "contract": "contracts/NFT1155V0.sol:NFT1155V0",
        "label": "bestBid",
        "offset": 0,
        "slot": "11",
        "type": "t_mapping(t_bytes32,t_struct(BestBid)5221_storage)"
      },
      {
        "astId": 5232,
        "contract": "contracts/NFT1155V0.sol:NFT1155V0",
        "label": "isCancelled",
        "offset": 0,
        "slot": "12",
        "type": "t_mapping(t_bytes32,t_bool)"
      },
      {
        "astId": 5237,
        "contract": "contracts/NFT1155V0.sol:NFT1155V0",
        "label": "amountFilled",
        "offset": 0,
        "slot": "13",
        "type": "t_mapping(t_bytes32,t_uint256)"
      },
      {
        "astId": 2958,
        "contract": "contracts/NFT1155V0.sol:NFT1155V0",
        "label": "_MAX_ROYALTY_FEE",
        "offset": 0,
        "slot": "14",
        "type": "t_uint8"
      },
      {
        "astId": 2960,
        "contract": "contracts/NFT1155V0.sol:NFT1155V0",
        "label": "_royaltyFeeRecipient",
        "offset": 1,
        "slot": "14",
        "type": "t_address"
      },
      {
        "astId": 2962,
        "contract": "contracts/NFT1155V0.sol:NFT1155V0",
        "label": "_royaltyFee",
        "offset": 21,
        "slot": "14",
        "type": "t_uint8"
      }
    ],
    "types": {
      "t_address": {
        "encoding": "inplace",
        "label": "address",
        "numberOfBytes": "20"
      },
      "t_bool": {
        "encoding": "inplace",
        "label": "bool",
        "numberOfBytes": "1"
      },
      "t_bytes32": {
        "encoding": "inplace",
        "label": "bytes32",
        "numberOfBytes": "32"
      },
      "t_mapping(t_address,t_bool)": {
        "encoding": "mapping",
        "key": "t_address",
        "label": "mapping(address => bool)",
        "numberOfBytes": "32",
        "value": "t_bool"
      },
      "t_mapping(t_address,t_mapping(t_address,t_bool))": {
        "encoding": "mapping",
        "key": "t_address",
        "label": "mapping(address => mapping(address => bool))",
        "numberOfBytes": "32",
        "value": "t_mapping(t_address,t_bool)"
      },
      "t_mapping(t_address,t_uint256)": {
        "encoding": "mapping",
        "key": "t_address",
        "label": "mapping(address => uint256)",
        "numberOfBytes": "32",
        "value": "t_uint256"
      },
      "t_mapping(t_bytes32,t_bool)": {
        "encoding": "mapping",
        "key": "t_bytes32",
        "label": "mapping(bytes32 => bool)",
        "numberOfBytes": "32",
        "value": "t_bool"
      },
      "t_mapping(t_bytes32,t_struct(BestBid)5221_storage)": {
        "encoding": "mapping",
        "key": "t_bytes32",
        "label": "mapping(bytes32 => struct BaseExchange.BestBid)",
        "numberOfBytes": "32",
        "value": "t_struct(BestBid)5221_storage"
      },
      "t_mapping(t_bytes32,t_uint256)": {
        "encoding": "mapping",
        "key": "t_bytes32",
        "label": "mapping(bytes32 => uint256)",
        "numberOfBytes": "32",
        "value": "t_uint256"
      },
      "t_mapping(t_uint256,t_mapping(t_address,t_uint256))": {
        "encoding": "mapping",
        "key": "t_uint256",
        "label": "mapping(uint256 => mapping(address => uint256))",
        "numberOfBytes": "32",
        "value": "t_mapping(t_address,t_uint256)"
      },
      "t_mapping(t_uint256,t_string_storage)": {
        "encoding": "mapping",
        "key": "t_uint256",
        "label": "mapping(uint256 => string)",
        "numberOfBytes": "32",
        "value": "t_string_storage"
      },
      "t_string_storage": {
        "encoding": "bytes",
        "label": "string",
        "numberOfBytes": "32"
      },
      "t_struct(BestBid)5221_storage": {
        "encoding": "inplace",
        "label": "struct BaseExchange.BestBid",
        "members": [
          {
            "astId": 5210,
            "contract": "contracts/NFT1155V0.sol:NFT1155V0",
            "label": "bidder",
            "offset": 0,
            "slot": "0",
            "type": "t_address"
          },
          {
            "astId": 5212,
            "contract": "contracts/NFT1155V0.sol:NFT1155V0",
            "label": "amount",
            "offset": 0,
            "slot": "1",
            "type": "t_uint256"
          },
          {
            "astId": 5214,
            "contract": "contracts/NFT1155V0.sol:NFT1155V0",
            "label": "price",
            "offset": 0,
            "slot": "2",
            "type": "t_uint256"
          },
          {
            "astId": 5216,
            "contract": "contracts/NFT1155V0.sol:NFT1155V0",
            "label": "recipient",
            "offset": 0,
            "slot": "3",
            "type": "t_address"
          },
          {
            "astId": 5218,
            "contract": "contracts/NFT1155V0.sol:NFT1155V0",
            "label": "referrer",
            "offset": 0,
            "slot": "4",
            "type": "t_address"
          },
          {
            "astId": 5220,
            "contract": "contracts/NFT1155V0.sol:NFT1155V0",
            "label": "blockNumber",
            "offset": 0,
            "slot": "5",
            "type": "t_uint256"
          }
        ],
        "numberOfBytes": "192"
      },
      "t_uint256": {
        "encoding": "inplace",
        "label": "uint256",
        "numberOfBytes": "32"
      },
      "t_uint8": {
        "encoding": "inplace",
        "label": "uint8",
        "numberOfBytes": "1"
      }
    }
  }
}