{
  "address": "0x1179Edc4C0e4B9A9b2F1cf220cFa1daeD300d78b",
  "abi": [
    {
      "inputs": [
        {
          "internalType": "address",
          "name": "protocolFeeRecipient",
          "type": "address"
        },
        {
          "internalType": "uint8",
          "name": "protocolFee",
          "type": "uint8"
        },
        {
          "internalType": "address",
          "name": "operationalFeeRecipient",
          "type": "address"
        },
        {
          "internalType": "uint8",
          "name": "operationalFee",
          "type": "uint8"
        },
        {
          "internalType": "string",
          "name": "_baseURI721",
          "type": "string"
        },
        {
          "internalType": "string",
          "name": "_baseURI1155",
          "type": "string"
        }
      ],
      "stateMutability": "nonpayable",
      "type": "constructor"
    },
    {
      "anonymous": false,
      "inputs": [
        {
          "indexed": true,
          "internalType": "address",
          "name": "proxy",
          "type": "address"
        },
        {
          "indexed": true,
          "internalType": "address",
          "name": "owner",
          "type": "address"
        },
        {
          "indexed": false,
          "internalType": "uint256[]",
          "name": "tokenIds",
          "type": "uint256[]"
        },
        {
          "indexed": false,
          "internalType": "uint256[]",
          "name": "amounts",
          "type": "uint256[]"
        },
        {
          "indexed": false,
          "internalType": "address",
          "name": "royaltyFeeRecipient",
          "type": "address"
        },
        {
          "indexed": false,
          "internalType": "uint8",
          "name": "royaltyFee",
          "type": "uint8"
        }
      ],
      "name": "DeployNFT1155",
      "type": "event"
    },
    {
      "anonymous": false,
      "inputs": [
        {
          "indexed": true,
          "internalType": "address",
          "name": "proxy",
          "type": "address"
        },
        {
          "indexed": true,
          "internalType": "address",
          "name": "owner",
          "type": "address"
        },
        {
          "indexed": false,
          "internalType": "string",
          "name": "name",
          "type": "string"
        },
        {
          "indexed": false,
          "internalType": "string",
          "name": "symbol",
          "type": "string"
        },
        {
          "indexed": false,
          "internalType": "uint256[]",
          "name": "tokenIds",
          "type": "uint256[]"
        },
        {
          "indexed": false,
          "internalType": "address",
          "name": "royaltyFeeRecipient",
          "type": "address"
        },
        {
          "indexed": false,
          "internalType": "uint8",
          "name": "royaltyFee",
          "type": "uint8"
        }
      ],
      "name": "DeployNFT721",
      "type": "event"
    },
    {
      "anonymous": false,
      "inputs": [
        {
          "indexed": true,
          "internalType": "address",
          "name": "proxy",
          "type": "address"
        },
        {
          "indexed": true,
          "internalType": "address",
          "name": "owner",
          "type": "address"
        },
        {
          "indexed": false,
          "internalType": "string",
          "name": "name",
          "type": "string"
        },
        {
          "indexed": false,
          "internalType": "string",
          "name": "symbol",
          "type": "string"
        },
        {
          "indexed": false,
          "internalType": "uint256",
          "name": "toTokenId",
          "type": "uint256"
        },
        {
          "indexed": false,
          "internalType": "address",
          "name": "royaltyFeeRecipient",
          "type": "address"
        },
        {
          "indexed": false,
          "internalType": "uint8",
          "name": "royaltyFee",
          "type": "uint8"
        }
      ],
      "name": "DeployNFT721",
      "type": "event"
    },
    {
      "anonymous": false,
      "inputs": [
        {
          "indexed": true,
          "internalType": "address",
          "name": "proxy",
          "type": "address"
        },
        {
          "indexed": true,
          "internalType": "address",
          "name": "owner",
          "type": "address"
        },
        {
          "indexed": false,
          "internalType": "string",
          "name": "name",
          "type": "string"
        },
        {
          "indexed": false,
          "internalType": "string",
          "name": "symbol",
          "type": "string"
        },
        {
          "indexed": true,
          "internalType": "address",
          "name": "dividendToken",
          "type": "address"
        }
      ],
      "name": "DeploySocialToken",
      "type": "event"
    },
    {
      "anonymous": false,
      "inputs": [
        {
          "indexed": true,
          "internalType": "address",
          "name": "previousOwner",
          "type": "address"
        },
        {
          "indexed": true,
          "internalType": "address",
          "name": "newOwner",
          "type": "address"
        }
      ],
      "name": "OwnershipTransferred",
      "type": "event"
    },
    {
      "anonymous": false,
      "inputs": [
        {
          "indexed": true,
          "internalType": "address",
          "name": "nft",
          "type": "address"
        },
        {
          "indexed": true,
          "internalType": "uint256",
          "name": "tokenId",
          "type": "uint256"
        },
        {
          "indexed": true,
          "internalType": "string",
          "name": "tag",
          "type": "string"
        },
        {
          "indexed": false,
          "internalType": "uint256",
          "name": "tagNonce",
          "type": "uint256"
        }
      ],
      "name": "Tag",
      "type": "event"
    },
    {
      "anonymous": false,
      "inputs": [
        {
          "indexed": false,
          "internalType": "address",
          "name": "exchange",
          "type": "address"
        }
      ],
      "name": "UpgradeERC1155Exchange",
      "type": "event"
    },
    {
      "anonymous": false,
      "inputs": [
        {
          "indexed": false,
          "internalType": "address",
          "name": "exchange",
          "type": "address"
        }
      ],
      "name": "UpgradeERC721Exchange",
      "type": "event"
    },
    {
      "anonymous": false,
      "inputs": [
        {
          "indexed": false,
          "internalType": "address",
          "name": "newTarget",
          "type": "address"
        }
      ],
      "name": "UpgradeNFT1155",
      "type": "event"
    },
    {
      "anonymous": false,
      "inputs": [
        {
          "indexed": false,
          "internalType": "address",
          "name": "newTarget",
          "type": "address"
        }
      ],
      "name": "UpgradeNFT721",
      "type": "event"
    },
    {
      "anonymous": false,
      "inputs": [
        {
          "indexed": false,
          "internalType": "address",
          "name": "newTarget",
          "type": "address"
        }
      ],
      "name": "UpgradeSocialToken",
      "type": "event"
    },
    {
      "inputs": [],
      "name": "MAX_OPERATIONAL_FEE",
      "outputs": [
        {
          "internalType": "uint8",
          "name": "",
          "type": "uint8"
        }
      ],
      "stateMutability": "view",
      "type": "function"
    },
    {
      "inputs": [],
      "name": "MAX_ROYALTY_FEE",
      "outputs": [
        {
          "internalType": "uint8",
          "name": "",
          "type": "uint8"
        }
      ],
      "stateMutability": "view",
      "type": "function"
    },
    {
      "inputs": [],
      "name": "baseURI1155",
      "outputs": [
        {
          "internalType": "string",
          "name": "",
          "type": "string"
        }
      ],
      "stateMutability": "view",
      "type": "function"
    },
    {
      "inputs": [],
      "name": "baseURI721",
      "outputs": [
        {
          "internalType": "string",
          "name": "",
          "type": "string"
        }
      ],
      "stateMutability": "view",
      "type": "function"
    },
    {
      "inputs": [
        {
          "internalType": "address",
          "name": "owner",
          "type": "address"
        },
        {
          "internalType": "uint256[]",
          "name": "tokenIds",
          "type": "uint256[]"
        },
        {
          "internalType": "uint256[]",
          "name": "amounts",
          "type": "uint256[]"
        },
        {
          "internalType": "address",
          "name": "royaltyFeeRecipient",
          "type": "address"
        },
        {
          "internalType": "uint8",
          "name": "royaltyFee",
          "type": "uint8"
        }
      ],
      "name": "deployNFT1155",
      "outputs": [
        {
          "internalType": "address",
          "name": "nft",
          "type": "address"
        }
      ],
      "stateMutability": "nonpayable",
      "type": "function"
    },
    {
      "inputs": [
        {
          "internalType": "address",
          "name": "owner",
          "type": "address"
        },
        {
          "internalType": "string",
          "name": "name",
          "type": "string"
        },
        {
          "internalType": "string",
          "name": "symbol",
          "type": "string"
        },
        {
          "internalType": "uint256",
          "name": "toTokenId",
          "type": "uint256"
        },
        {
          "internalType": "address",
          "name": "royaltyFeeRecipient",
          "type": "address"
        },
        {
          "internalType": "uint8",
          "name": "royaltyFee",
          "type": "uint8"
        }
      ],
      "name": "deployNFT721",
      "outputs": [
        {
          "internalType": "address",
          "name": "nft",
          "type": "address"
        }
      ],
      "stateMutability": "nonpayable",
      "type": "function"
    },
    {
      "inputs": [
        {
          "internalType": "address",
          "name": "owner",
          "type": "address"
        },
        {
          "internalType": "string",
          "name": "name",
          "type": "string"
        },
        {
          "internalType": "string",
          "name": "symbol",
          "type": "string"
        },
        {
          "internalType": "uint256[]",
          "name": "tokenIds",
          "type": "uint256[]"
        },
        {
          "internalType": "address",
          "name": "royaltyFeeRecipient",
          "type": "address"
        },
        {
          "internalType": "uint8",
          "name": "royaltyFee",
          "type": "uint8"
        }
      ],
      "name": "deployNFT721",
      "outputs": [
        {
          "internalType": "address",
          "name": "nft",
          "type": "address"
        }
      ],
      "stateMutability": "nonpayable",
      "type": "function"
    },
    {
      "inputs": [
        {
          "internalType": "address",
          "name": "owner",
          "type": "address"
        },
        {
          "internalType": "string",
          "name": "name",
          "type": "string"
        },
        {
          "internalType": "string",
          "name": "symbol",
          "type": "string"
        },
        {
          "internalType": "address",
          "name": "dividendToken",
          "type": "address"
        }
      ],
      "name": "deploySocialToken",
      "outputs": [
        {
          "internalType": "address",
          "name": "proxy",
          "type": "address"
        }
      ],
      "stateMutability": "nonpayable",
      "type": "function"
    },
    {
      "inputs": [],
      "name": "erc1155Exchange",
      "outputs": [
        {
          "internalType": "address",
          "name": "",
          "type": "address"
        }
      ],
      "stateMutability": "view",
      "type": "function"
    },
    {
      "inputs": [],
      "name": "erc721Exchange",
      "outputs": [
        {
          "internalType": "address",
          "name": "",
          "type": "address"
        }
      ],
      "stateMutability": "view",
      "type": "function"
    },
    {
      "inputs": [
        {
          "internalType": "address",
          "name": "",
          "type": "address"
        }
      ],
      "name": "isDeployerWhitelisted",
      "outputs": [
        {
          "internalType": "bool",
          "name": "",
          "type": "bool"
        }
      ],
      "stateMutability": "view",
      "type": "function"
    },
    {
      "inputs": [
        {
          "internalType": "address",
          "name": "query",
          "type": "address"
        }
      ],
      "name": "isNFT1155",
      "outputs": [
        {
          "internalType": "bool",
          "name": "result",
          "type": "bool"
        }
      ],
      "stateMutability": "view",
      "type": "function"
    },
    {
      "inputs": [
        {
          "internalType": "address",
          "name": "query",
          "type": "address"
        }
      ],
      "name": "isNFT721",
      "outputs": [
        {
          "internalType": "bool",
          "name": "result",
          "type": "bool"
        }
      ],
      "stateMutability": "view",
      "type": "function"
    },
    {
      "inputs": [
        {
          "internalType": "address",
          "name": "query",
          "type": "address"
        }
      ],
      "name": "isSocialToken",
      "outputs": [
        {
          "internalType": "bool",
          "name": "result",
          "type": "bool"
        }
      ],
      "stateMutability": "view",
      "type": "function"
    },
    {
      "inputs": [
        {
          "internalType": "address",
          "name": "",
          "type": "address"
        }
      ],
      "name": "isStrategyWhitelisted",
      "outputs": [
        {
          "internalType": "bool",
          "name": "",
          "type": "bool"
        }
      ],
      "stateMutability": "view",
      "type": "function"
    },
    {
      "inputs": [
        {
          "internalType": "address",
          "name": "nft",
          "type": "address"
        },
        {
          "internalType": "address",
          "name": "to",
          "type": "address"
        },
        {
          "internalType": "uint256",
          "name": "tokenId",
          "type": "uint256"
        },
        {
          "internalType": "uint256",
          "name": "amount",
          "type": "uint256"
        },
        {
          "internalType": "bytes",
          "name": "data",
          "type": "bytes"
        },
        {
          "internalType": "string[]",
          "name": "tags",
          "type": "string[]"
        }
      ],
      "name": "mintWithTags1155",
      "outputs": [],
      "stateMutability": "nonpayable",
      "type": "function"
    },
    {
      "inputs": [
        {
          "internalType": "address",
          "name": "nft",
          "type": "address"
        },
        {
          "internalType": "address",
          "name": "to",
          "type": "address"
        },
        {
          "internalType": "uint256",
          "name": "tokenId",
          "type": "uint256"
        },
        {
          "internalType": "bytes",
          "name": "data",
          "type": "bytes"
        },
        {
          "internalType": "string[]",
          "name": "tags",
          "type": "string[]"
        }
      ],
      "name": "mintWithTags721",
      "outputs": [],
      "stateMutability": "nonpayable",
      "type": "function"
    },
    {
      "inputs": [],
      "name": "operationalFeeInfo",
      "outputs": [
        {
          "internalType": "address",
          "name": "recipient",
          "type": "address"
        },
        {
          "internalType": "uint8",
          "name": "permil",
          "type": "uint8"
        }
      ],
      "stateMutability": "view",
      "type": "function"
    },
    {
      "inputs": [],
      "name": "owner",
      "outputs": [
        {
          "internalType": "address",
          "name": "",
          "type": "address"
        }
      ],
      "stateMutability": "view",
      "type": "function"
    },
    {
      "inputs": [],
      "name": "protocolFeeInfo",
      "outputs": [
        {
          "internalType": "address",
          "name": "recipient",
          "type": "address"
        },
        {
          "internalType": "uint8",
          "name": "permil",
          "type": "uint8"
        }
      ],
      "stateMutability": "view",
      "type": "function"
    },
    {
      "inputs": [],
      "name": "renounceOwnership",
      "outputs": [],
      "stateMutability": "nonpayable",
      "type": "function"
    },
    {
      "inputs": [
        {
          "internalType": "string",
          "name": "uri",
          "type": "string"
        }
      ],
      "name": "setBaseURI1155",
      "outputs": [],
      "stateMutability": "nonpayable",
      "type": "function"
    },
    {
      "inputs": [
        {
          "internalType": "string",
          "name": "uri",
          "type": "string"
        }
      ],
      "name": "setBaseURI721",
      "outputs": [],
      "stateMutability": "nonpayable",
      "type": "function"
    },
    {
      "inputs": [
        {
          "internalType": "address",
          "name": "deployer",
          "type": "address"
        },
        {
          "internalType": "bool",
          "name": "whitelisted",
          "type": "bool"
        }
      ],
      "name": "setDeployerWhitelisted",
      "outputs": [],
      "stateMutability": "nonpayable",
      "type": "function"
    },
    {
      "inputs": [
        {
          "internalType": "uint8",
          "name": "operationalFee",
          "type": "uint8"
        }
      ],
      "name": "setOperationalFee",
      "outputs": [],
      "stateMutability": "nonpayable",
      "type": "function"
    },
    {
      "inputs": [
        {
          "internalType": "address",
          "name": "operationalFeeRecipient",
          "type": "address"
        }
      ],
      "name": "setOperationalFeeRecipient",
      "outputs": [],
      "stateMutability": "nonpayable",
      "type": "function"
    },
    {
      "inputs": [
        {
          "internalType": "address",
          "name": "protocolFeeRecipient",
          "type": "address"
        }
      ],
      "name": "setProtocolFeeRecipient",
      "outputs": [],
      "stateMutability": "nonpayable",
      "type": "function"
    },
    {
      "inputs": [
        {
          "internalType": "address",
          "name": "strategy",
          "type": "address"
        },
        {
          "internalType": "bool",
          "name": "whitelisted",
          "type": "bool"
        }
      ],
      "name": "setStrategyWhitelisted",
      "outputs": [],
      "stateMutability": "nonpayable",
      "type": "function"
    },
    {
      "inputs": [
        {
          "internalType": "address",
          "name": "nft",
          "type": "address"
        },
        {
          "internalType": "uint256",
          "name": "tokenId",
          "type": "uint256"
        },
        {
          "internalType": "string[]",
          "name": "tags",
          "type": "string[]"
        }
      ],
      "name": "setTags1155",
      "outputs": [],
      "stateMutability": "nonpayable",
      "type": "function"
    },
    {
      "inputs": [
        {
          "internalType": "address",
          "name": "nft",
          "type": "address"
        },
        {
          "internalType": "uint256",
          "name": "tokenId",
          "type": "uint256"
        },
        {
          "internalType": "string[]",
          "name": "tags",
          "type": "string[]"
        }
      ],
      "name": "setTags721",
      "outputs": [],
      "stateMutability": "nonpayable",
      "type": "function"
    },
    {
      "inputs": [
        {
          "internalType": "address",
          "name": "",
          "type": "address"
        },
        {
          "internalType": "uint256",
          "name": "",
          "type": "uint256"
        }
      ],
      "name": "tagNonces",
      "outputs": [
        {
          "internalType": "uint256",
          "name": "",
          "type": "uint256"
        }
      ],
      "stateMutability": "view",
      "type": "function"
    },
    {
      "inputs": [
        {
          "internalType": "address",
          "name": "newOwner",
          "type": "address"
        }
      ],
      "name": "transferOwnership",
      "outputs": [],
      "stateMutability": "nonpayable",
      "type": "function"
    },
    {
      "inputs": [
        {
          "internalType": "address",
          "name": "exchange",
          "type": "address"
        }
      ],
      "name": "upgradeERC1155Exchange",
      "outputs": [],
      "stateMutability": "nonpayable",
      "type": "function"
    },
    {
      "inputs": [
        {
          "internalType": "address",
          "name": "exchange",
          "type": "address"
        }
      ],
      "name": "upgradeERC721Exchange",
      "outputs": [],
      "stateMutability": "nonpayable",
      "type": "function"
    },
    {
      "inputs": [
        {
          "internalType": "address",
          "name": "newTarget",
          "type": "address"
        }
      ],
      "name": "upgradeNFT1155",
      "outputs": [],
      "stateMutability": "nonpayable",
      "type": "function"
    },
    {
      "inputs": [
        {
          "internalType": "address",
          "name": "newTarget",
          "type": "address"
        }
      ],
      "name": "upgradeNFT721",
      "outputs": [],
      "stateMutability": "nonpayable",
      "type": "function"
    },
    {
      "inputs": [
        {
          "internalType": "address",
          "name": "newTarget",
          "type": "address"
        }
      ],
      "name": "upgradeSocialToken",
      "outputs": [],
      "stateMutability": "nonpayable",
      "type": "function"
    }
  ],
  "transactionHash": "0x008a8ab4636ac44ceca5a6099e56b69c6a7c49b5b95ccedcc824315f2faf2e08",
  "args": [
    "0x93c7020393df59A951217d92d982d67A34a1557D",
    25,
    "0x93c7020393df59A951217d92d982d67A34a1557D",
    0,
    "https://raw.githubusercontent.com/shoyunft/metadata/master/ropsten/",
    "https://raw.githubusercontent.com/shoyunft/metadata/master/ropsten/"
  ],
  "solcInputHash": "a3dd5c0b14614ebea455929879753e99",
  "bytecode": "0x60806040523480156200001157600080fd5b5060405162002a3a38038062002a3a83398101604081905262000034916200027f565b600080546001600160a01b031916339081178255604051909182917f8be0079c531659141344cd1fd0a4f28419497f9722a3daafe3b4186f6b6457e0908290a350600480546001600160a01b038881166001600160a81b031992831617600160a01b60ff8a81168202929092179094556005805492891692909316919091179086169092029190911790558151620000d4906006906020850190620000f7565b508051620000ea906007906020840190620000f7565b5050505050505062000383565b828054620001059062000330565b90600052602060002090601f01602090048101928262000129576000855562000174565b82601f106200014457805160ff191683800117855562000174565b8280016001018555821562000174579182015b828111156200017457825182559160200191906001019062000157565b506200018292915062000186565b5090565b5b8082111562000182576000815560010162000187565b80516001600160a01b0381168114620001b557600080fd5b919050565b600082601f830112620001cb578081fd5b81516001600160401b0380821115620001e857620001e86200036d565b604051601f8301601f19908116603f011681019082821181831017156200021357620002136200036d565b816040528381526020925086838588010111156200022f578485fd5b8491505b8382101562000252578582018301518183018401529082019062000233565b838211156200026357848385830101525b9695505050505050565b805160ff81168114620001b557600080fd5b60008060008060008060c0878903121562000298578182fd5b620002a3876200019d565b9550620002b3602088016200026d565b9450620002c3604088016200019d565b9350620002d3606088016200026d565b60808801519093506001600160401b0380821115620002f0578384fd5b620002fe8a838b01620001ba565b935060a089015191508082111562000314578283fd5b506200032389828a01620001ba565b9150509295509295509295565b600181811c908216806200034557607f821691505b602082108114156200036757634e487b7160e01b600052602260045260246000fd5b50919050565b634e487b7160e01b600052604160045260246000fd5b6126a780620003936000396000f3fe608060405234801561001057600080fd5b50600436106102275760003560e01c8063715018a611610130578063c2b11e18116100b8578063d5f7e7561161007c578063d5f7e75614610518578063db5970171461052b578063e521cb921461053e578063e7ceca8114610551578063f2fde38b1461056457610227565b8063c2b11e18146104aa578063c6edbca4146104c7578063cb03111c146104cf578063d1640c9e146104e2578063d4bea1e91461050557610227565b8063999ba27c116100ff578063999ba27c14610414578063aec0b54314610437578063b3584b0d14610471578063bc96e8c714610484578063c032815f1461049757610227565b8063715018a6146103d557806374949588146103dd5780638518482e146103f05780638da5cb5b1461040357610227565b80633683a63d116101b35780634dd5ad0b116101825780634dd5ad0b146103815780634e3a599b1461038957806353ebf0221461039c5780635ef00369146103af578063706e1ce5146103c257610227565b80633683a63d14610323578063398d74361461033857806343ae710b1461034b57806345943ee11461035e57610227565b806324b72fd9116101fa57806324b72fd91461029e57806325ea8678146102b1578063262b9f63146102ea57806334375c90146102fd5780633501d8f41461031057610227565b806304895e021461022c5780630e309d871461024157806317e1f82e146102545780631f52ef6014610273575b600080fd5b61023f61023a366004611bf4565b610577565b005b61023f61024f366004611df2565b610622565b61025c60fa81565b60405160ff90911681526020015b60405180910390f35b610286610281366004611ef3565b6106c6565b6040516001600160a01b03909116815260200161026a565b61023f6102ac366004611df2565b61089e565b6102dc6102bf366004612007565b600c60209081526000928352604080842090915290825290205481565b60405190815260200161026a565b61023f6102f8366004612089565b610942565b600854610286906001600160a01b031681565b61023f61031e366004611c33565b610983565b61032b6109f7565b60405161026a919061246d565b61023f610346366004611cc3565b610a85565b600954610286906001600160a01b031681565b61037161036c366004611bf4565b610afc565b604051901515815260200161026a565b61025c603281565b610371610397366004611bf4565b610b78565b61023f6103aa366004611bf4565b610bd4565b6103716103bd366004611bf4565b610c82565b61023f6103d0366004611bf4565b610cdd565b61023f610d85565b61023f6103eb3660046120dc565b610df9565b61023f6103fe366004612089565b610e8c565b6000546001600160a01b0316610286565b610371610422366004611bf4565b600b6020526000908152604090205460ff1681565b6004546001600160a01b03811690600160a01b900460ff165b604080516001600160a01b03909316835260ff90911660208301520161026a565b61023f61047f366004612032565b610ec9565b610286610492366004611f81565b610f79565b6102866104a5366004611e2e565b6110c1565b6005546001600160a01b03811690600160a01b900460ff16610450565b61032b611285565b61023f6104dd366004611bf4565b611292565b6103716104f0366004611bf4565b600a6020526000908152604090205460ff1681565b61023f610513366004612032565b61130a565b61023f610526366004611bf4565b6113a6565b610286610539366004611d5b565b61144e565b61023f61054c366004611bf4565b611590565b61023f61055f366004611bf4565b611632565b61023f610572366004611bf4565b6116aa565b6000546001600160a01b031633146105aa5760405162461bcd60e51b81526004016105a1906124cf565b60405180910390fd5b6001600160a01b0381166106005760405162461bcd60e51b815260206004820152601860248201527f53484f59553a20494e56414c49445f524543495049454e54000000000000000060448201526064016105a1565b600580546001600160a01b0319166001600160a01b0392909216919091179055565b6000546001600160a01b0316331461064c5760405162461bcd60e51b81526004016105a1906124cf565b6001600160a01b03821661069b5760405162461bcd60e51b815260206004820152601660248201527553484f59553a20494e56414c49445f4144445245535360501b60448201526064016105a1565b6001600160a01b03919091166000908152600a60205260409020805460ff1916911515919091179055565b6000808052600a6020526000805160206126528339815191525460ff16806106fd5750336000908152600a602052604090205460ff165b6107195760405162461bcd60e51b81526004016105a1906124a5565b8661075c5760405162461bcd60e51b815260206004820152601360248201527253484f59553a20494e56414c49445f4e414d4560681b60448201526064016105a1565b846107a15760405162461bcd60e51b815260206004820152601560248201527414d213d6554e881253959053125117d4d6535093d3605a1b60448201526064016105a1565b6001805461083991906107b5908290612559565b815481106107d357634e487b7160e01b600052603260045260246000fd5b6000918252602090912001546040516001600160a01b039091169061080a908c908c908c908c908c908c908c908c9060240161225f565b60408051601f198184030181529190526020810180516001600160e01b031663ac9a252160e01b179052611794565b9050886001600160a01b0316816001600160a01b03167fc5a8d7a1d56dd3c513572f5994d9fac3d3a6e1434214939a043b794323f5765f8a8a8a8a8a8a8a60405161088a979695949392919061241a565b60405180910390a398975050505050505050565b6000546001600160a01b031633146108c85760405162461bcd60e51b81526004016105a1906124cf565b6001600160a01b0382166109175760405162461bcd60e51b815260206004820152601660248201527553484f59553a20494e56414c49445f4144445245535360501b60448201526064016105a1565b6001600160a01b03919091166000908152600b60205260409020805460ff1916911515919091179055565b6000546001600160a01b0316331461096c5760405162461bcd60e51b81526004016105a1906124cf565b805161097f9060069060208401906119d4565b5050565b61098e858483611897565b6040516394d008ef60e01b81526001600160a01b038616906394d008ef906109be90879087908790600401612306565b600060405180830381600087803b1580156109d857600080fd5b505af11580156109ec573d6000803e3d6000fd5b505050505050505050565b60068054610a04906125b7565b80601f0160208091040260200160405190810160405280929190818152602001828054610a30906125b7565b8015610a7d5780601f10610a5257610100808354040283529160200191610a7d565b820191906000526020600020905b815481529060010190602001808311610a6057829003601f168201915b505050505081565b610a90868583611897565b60405163731133e960e01b81526001600160a01b0387169063731133e990610ac2908890889088908890600401612336565b600060405180830381600087803b158015610adc57600080fd5b505af1158015610af0573d6000803e3d6000fd5b50505050505050505050565b6002546000908190610b1090600190612559565b90505b610b5260028281548110610b3757634e487b7160e01b600052603260045260246000fd5b6000918252602090912001546001600160a01b031684611973565b15610b61576001915050610b73565b80610b6b816125a0565b915050610b13565b919050565b6003546000908190610b8c90600190612559565b90505b610bb360038281548110610b3757634e487b7160e01b600052603260045260246000fd5b15610bc2576001915050610b73565b80610bcc816125a0565b915050610b8f565b6000546001600160a01b03163314610bfe5760405162461bcd60e51b81526004016105a1906124cf565b6001805480820182556000919091527fb10e2d527612073b26eecdfd717e6a320cf44b4afac2b0732d9fcbe2b7fa0cf60180546001600160a01b0319166001600160a01b0383169081179091556040519081527f90dccdf0d0809c3f945a409a3ce4652bf2c9b283e5aad88b3e36361433132cbb906020015b60405180910390a150565b600180546000918291610c959190612559565b90505b610cbc60018281548110610b3757634e487b7160e01b600052603260045260246000fd5b15610ccb576001915050610b73565b80610cd5816125a0565b915050610c98565b6000546001600160a01b03163314610d075760405162461bcd60e51b81526004016105a1906124cf565b600380546001810182556000919091527fc2575a0e9e593c00f959f8c92f12db2869c3395a3b0502d05e2516446f71f85b0180546001600160a01b0319166001600160a01b0383169081179091556040519081527fe8698a9880993ca12864a4d6e8bff70e3e073d4104aa0f9a8fdb2b74576922ab90602001610c77565b6000546001600160a01b03163314610daf5760405162461bcd60e51b81526004016105a1906124cf565b600080546040516001600160a01b03909116907f8be0079c531659141344cd1fd0a4f28419497f9722a3daafe3b4186f6b6457e0908390a3600080546001600160a01b0319169055565b6000546001600160a01b03163314610e235760405162461bcd60e51b81526004016105a1906124cf565b603260ff82161115610e6c5760405162461bcd60e51b815260206004820152601260248201527153484f59553a20494e56414c49445f46454560701b60448201526064016105a1565b6005805460ff909216600160a01b0260ff60a01b19909216919091179055565b6000546001600160a01b03163314610eb65760405162461bcd60e51b81526004016105a1906124cf565b805161097f9060079060208401906119d4565b6040516331a9108f60e11b81526004810183905233906001600160a01b03851690636352211e9060240160206040518083038186803b158015610f0b57600080fd5b505afa158015610f1f573d6000803e3d6000fd5b505050506040513d601f19601f82011682018060405250810190610f439190611c17565b6001600160a01b031614610f695760405162461bcd60e51b81526004016105a1906124a5565b610f74838383611897565b505050565b6000808052600a6020526000805160206126528339815191525460ff1680610fb05750336000908152600a602052604090205460ff165b610fcc5760405162461bcd60e51b81526004016105a1906124a5565b600085858585604051602401610fe594939291906122bd565b60408051601f198184030181529190526020810180516001600160e01b031663613d25bb60e01b1790526003805491925061105f9161102690600190612559565b8154811061104457634e487b7160e01b600052603260045260246000fd5b6000918252602090912001546001600160a01b031682611794565b9150826001600160a01b0316866001600160a01b0316836001600160a01b03167fb17d2759d3d0f9f291f22b908114ad38cb6e664c1355972dc09eeed60c23020088886040516110b0929190612480565b60405180910390a450949350505050565b6000808052600a6020526000805160206126528339815191525460ff16806110f85750336000908152600a602052604090205460ff165b6111145760405162461bcd60e51b81526004016105a1906124a5565b866111575760405162461bcd60e51b815260206004820152601360248201527253484f59553a20494e56414c49445f4e414d4560681b60448201526064016105a1565b8461119c5760405162461bcd60e51b815260206004820152601560248201527414d213d6554e881253959053125117d4d6535093d3605a1b60448201526064016105a1565b6001805461123491906111b0908290612559565b815481106111ce57634e487b7160e01b600052603260045260246000fd5b6000918252602090912001546040516001600160a01b0390911690611205908c908c908c908c908c908c908c908c906024016121f4565b60408051601f198184030181529190526020810180516001600160e01b0316634f65e6d160e11b179052611794565b9050886001600160a01b0316816001600160a01b03167f4b593938d27e3a08db017a6f1815ab371dc97836b53114a3d5d52fecc663c5b48a8a8a8a8a8a8a60405161088a97969594939291906123b7565b60078054610a04906125b7565b6000546001600160a01b031633146112bc5760405162461bcd60e51b81526004016105a1906124cf565b600880546001600160a01b0319166001600160a01b0383169081179091556040519081527f7906d96d0db1eb8f6805ac6930c6abd633b14b59c0b239412e1fd979ca12546690602001610c77565b604051627eeac760e11b8152336004820152602481018390526000906001600160a01b0385169062fdd58e9060440160206040518083038186803b15801561135157600080fd5b505afa158015611365573d6000803e3d6000fd5b505050506040513d601f19601f8201168201806040525081019061138991906120c4565b11610f695760405162461bcd60e51b81526004016105a1906124a5565b6000546001600160a01b031633146113d05760405162461bcd60e51b81526004016105a1906124cf565b600280546001810182556000919091527f405787fa12a823e0f2b7631cc41b3ba8828b3321ca811111fa75cd3aa3bb5ace0180546001600160a01b0319166001600160a01b0383169081179091556040519081527f1c9e0a997b60cd0855450b5761db24330074e914ceab5b053193b28d6a3e456390602001610c77565b6000808052600a6020526000805160206126528339815191525460ff16806114855750336000908152600a602052604090205460ff165b6114a15760405162461bcd60e51b81526004016105a1906124a5565b6002805461153491906114b690600190612559565b815481106114d457634e487b7160e01b600052603260045260246000fd5b6000918252602090912001546040516001600160a01b039091169061150590899089908990899089906024016121a2565b60408051601f198184030181529190526020810180516001600160e01b031663bff5e79d60e01b179052611794565b9050856001600160a01b0316816001600160a01b03167f5c113900031172d40b0061b68858275d56528342e41925faad4c305a04438bf58787878760405161157f949392919061236d565b60405180910390a395945050505050565b6000546001600160a01b031633146115ba5760405162461bcd60e51b81526004016105a1906124cf565b6001600160a01b0381166116105760405162461bcd60e51b815260206004820152601c60248201527f53484f59553a20494e56414c49445f4645455f524543495049454e540000000060448201526064016105a1565b600480546001600160a01b0319166001600160a01b0392909216919091179055565b6000546001600160a01b0316331461165c5760405162461bcd60e51b81526004016105a1906124cf565b600980546001600160a01b0319166001600160a01b0383169081179091556040519081527fca237d3f5dd115a560a2d7ddcc75a87200fca9a3b55e7f78330108c92b87a99a90602001610c77565b6000546001600160a01b031633146116d45760405162461bcd60e51b81526004016105a1906124cf565b6001600160a01b0381166117395760405162461bcd60e51b815260206004820152602660248201527f4f776e61626c653a206e6577206f776e657220697320746865207a65726f206160448201526564647265737360d01b60648201526084016105a1565b600080546040516001600160a01b03808516939216917f8be0079c531659141344cd1fd0a4f28419497f9722a3daafe3b4186f6b6457e091a3600080546001600160a01b0319166001600160a01b0392909216919091179055565b6000808360601b9050604051733d602d80600a3d3981f3363d3d373d3d3d363d7360601b81528160148201526e5af43d82803e903d91602b57fd5bf360881b60288201526037816000f0925050600083511115611890576000826001600160a01b0316846040516118059190612186565b6000604051808303816000865af19150503d8060008114611842576040519150601f19603f3d011682016040523d82523d6000602084013e611847565b606091505b505090508061188e5760405162461bcd60e51b815260206004820152601360248201527253484f59553a2043414c4c5f4641494c55524560681b60448201526064016105a1565b505b5092915050565b6001600160a01b0383166000908152600c602090815260408083208584529091528120805490826118c7836125f2565b91905055905060005b825181101561196c578281815181106118f957634e487b7160e01b600052603260045260246000fd5b602002602001015160405161190e9190612186565b604051809103902084866001600160a01b03167f8ef9f212aabac8e20a00892dc88a0afc9c9eb3522420eb21848d943a2dd377178560405161195291815260200190565b60405180910390a480611964816125f2565b9150506118d0565b5050505050565b6000808360601b905060405169363d3d373d3d3d363d7360b01b815281600a8201526e5af43d82803e903d91602b57fd5bf360881b601e82015260408101602d600082873c600d810151600d83015114815183511416935050505092915050565b8280546119e0906125b7565b90600052602060002090601f016020900481019282611a025760008555611a48565b82601f10611a1b57805160ff1916838001178555611a48565b82800160010185558215611a48579182015b82811115611a48578251825591602001919060010190611a2d565b50611a54929150611a58565b5090565b5b80821115611a545760008155600101611a59565b600082601f830112611a7d578081fd5b81356020611a92611a8d83612535565b612504565b82815281810190858301855b85811015611ac757611ab5898684358b0101611b31565b84529284019290840190600101611a9e565b5090979650505050505050565b600082601f830112611ae4578081fd5b81356020611af4611a8d83612535565b80838252828201915082860187848660051b8901011115611b13578586fd5b855b85811015611ac757813584529284019290840190600101611b15565b600082601f830112611b41578081fd5b813567ffffffffffffffff811115611b5b57611b5b612623565b611b6e601f8201601f1916602001612504565b818152846020838601011115611b82578283fd5b816020850160208301379081016020019190915292915050565b60008083601f840112611bad578182fd5b50813567ffffffffffffffff811115611bc4578182fd5b602083019150836020828501011115611bdc57600080fd5b9250929050565b803560ff81168114610b7357600080fd5b600060208284031215611c05578081fd5b8135611c1081612639565b9392505050565b600060208284031215611c28578081fd5b8151611c1081612639565b600080600080600060a08688031215611c4a578081fd5b8535611c5581612639565b94506020860135611c6581612639565b935060408601359250606086013567ffffffffffffffff80821115611c88578283fd5b611c9489838a01611b31565b93506080880135915080821115611ca9578283fd5b50611cb688828901611a6d565b9150509295509295909350565b60008060008060008060c08789031215611cdb578081fd5b8635611ce681612639565b95506020870135611cf681612639565b94506040870135935060608701359250608087013567ffffffffffffffff80821115611d20578283fd5b611d2c8a838b01611b31565b935060a0890135915080821115611d41578283fd5b50611d4e89828a01611a6d565b9150509295509295509295565b600080600080600060a08688031215611d72578081fd5b8535611d7d81612639565b9450602086013567ffffffffffffffff80821115611d99578283fd5b611da589838a01611ad4565b95506040880135915080821115611dba578283fd5b50611dc788828901611ad4565b9350506060860135611dd881612639565b9150611de660808701611be3565b90509295509295909350565b60008060408385031215611e04578182fd5b8235611e0f81612639565b915060208301358015158114611e23578182fd5b809150509250929050565b60008060008060008060008060c0898b031215611e49578586fd5b8835611e5481612639565b9750602089013567ffffffffffffffff80821115611e70578788fd5b611e7c8c838d01611b9c565b909950975060408b0135915080821115611e94578384fd5b611ea08c838d01611b9c565b909750955060608b0135915080821115611eb8578384fd5b50611ec58b828c01611ad4565b9350506080890135611ed681612639565b9150611ee460a08a01611be3565b90509295985092959890939650565b60008060008060008060008060c0898b031215611f0e578182fd5b8835611f1981612639565b9750602089013567ffffffffffffffff80821115611f35578384fd5b611f418c838d01611b9c565b909950975060408b0135915080821115611f59578384fd5b50611f668b828c01611b9c565b909650945050606089013592506080890135611ed681612639565b60008060008060808587031215611f96578182fd5b8435611fa181612639565b9350602085013567ffffffffffffffff80821115611fbd578384fd5b611fc988838901611b31565b94506040870135915080821115611fde578384fd5b50611feb87828801611b31565b9250506060850135611ffc81612639565b939692955090935050565b60008060408385031215612019578182fd5b823561202481612639565b946020939093013593505050565b600080600060608486031215612046578081fd5b833561205181612639565b925060208401359150604084013567ffffffffffffffff811115612073578182fd5b61207f86828701611a6d565b9150509250925092565b60006020828403121561209a578081fd5b813567ffffffffffffffff8111156120b0578182fd5b6120bc84828501611b31565b949350505050565b6000602082840312156120d5578081fd5b5051919050565b6000602082840312156120ed578081fd5b611c1082611be3565b6000815180845260208085019450808401835b8381101561212557815187529582019590820190600101612109565b509495945050505050565b60008151808452612148816020860160208601612570565b601f01601f19169290920160200192915050565b60008284528282602086013780602084860101526020601f19601f85011685010190509392505050565b60008251612198818460208701612570565b9190910192915050565b600060018060a01b03808816835260a060208401526121c460a08401886120f6565b83810360408501526121d681886120f6565b959091166060840152505060ff919091166080909101529392505050565b600060018060a01b03808b16835260c0602084015261221760c084018a8c61215c565b838103604085015261222a81898b61215c565b9050838103606085015261223e81886120f6565b959091166080840152505060ff9190911660a0909101529695505050505050565b600060018060a01b03808b16835260c0602084015261228260c084018a8c61215c565b838103604085015261229581898b61215c565b92505085606084015280851660808401525060ff831660a08301529998505050505050505050565b600060018060a01b038087168352608060208401526122df6080840187612130565b83810360408501526122f18187612130565b92505080841660608401525095945050505050565b600060018060a01b03851682528360208301526060604083015261232d6060830184612130565b95945050505050565b600060018060a01b0386168252846020830152836040830152608060608301526123636080830184612130565b9695505050505050565b60006080825261238060808301876120f6565b828103602084015261239281876120f6565b6001600160a01b03959095166040840152505060ff9190911660609091015292915050565b600060a082526123cb60a08301898b61215c565b82810360208401526123de81888a61215c565b905082810360408401526123f281876120f6565b6001600160a01b03959095166060840152505060ff9190911660809091015295945050505050565b600060a0825261242e60a08301898b61215c565b828103602084015261244181888a61215c565b604084019690965250506001600160a01b0392909216606083015260ff16608090910152949350505050565b600060208252611c106020830184612130565b6000604082526124936040830185612130565b828103602084015261232d8185612130565b60208082526010908201526f29a427acaa9d102327a92124a22222a760811b604082015260600190565b6020808252818101527f4f776e61626c653a2063616c6c6572206973206e6f7420746865206f776e6572604082015260600190565b604051601f8201601f1916810167ffffffffffffffff8111828210171561252d5761252d612623565b604052919050565b600067ffffffffffffffff82111561254f5761254f612623565b5060051b60200190565b60008282101561256b5761256b61260d565b500390565b60005b8381101561258b578181015183820152602001612573565b8381111561259a576000848401525b50505050565b6000816125af576125af61260d565b506000190190565b600181811c908216806125cb57607f821691505b602082108114156125ec57634e487b7160e01b600052602260045260246000fd5b50919050565b60006000198214156126065761260661260d565b5060010190565b634e487b7160e01b600052601160045260246000fd5b634e487b7160e01b600052604160045260246000fd5b6001600160a01b038116811461264e57600080fd5b5056fe13da86008ba1c6922daee3e07db95305ef49ebced9f5467a0b8613fcc6b343e3a264697066735822122043b683ed59107ab952a8b9c4816b8776401fd60ef959658915cc1b532c76478c64736f6c63430008030033",
  "devdoc": {
    "kind": "dev",
    "methods": {
      "owner()": {
        "details": "Returns the address of the current owner."
      },
      "renounceOwnership()": {
        "details": "Leaves the contract without owner. It will not be possible to call `onlyOwner` functions anymore. Can only be called by the current owner. NOTE: Renouncing ownership will leave the contract without an owner, thereby removing any functionality that is only available to the owner."
      },
      "transferOwnership(address)": {
        "details": "Transfers ownership of the contract to a new account (`newOwner`). Can only be called by the current owner."
      }
    },
    "version": 1
  },
  "userdoc": {
    "kind": "user",
    "methods": {},
    "version": 1
  },
  "storageLayout": {
    "storage": [
      {
        "astId": 7,
        "contract": "contracts/TokenFactory.sol:TokenFactory",
        "label": "_owner",
        "offset": 0,
        "slot": "0",
        "type": "t_address"
      },
      {
        "astId": 4038,
        "contract": "contracts/TokenFactory.sol:TokenFactory",
        "label": "_targets721",
        "offset": 0,
        "slot": "1",
        "type": "t_array(t_address)dyn_storage"
      },
      {
        "astId": 4041,
        "contract": "contracts/TokenFactory.sol:TokenFactory",
        "label": "_targets1155",
        "offset": 0,
        "slot": "2",
        "type": "t_array(t_address)dyn_storage"
      },
      {
        "astId": 4044,
        "contract": "contracts/TokenFactory.sol:TokenFactory",
        "label": "_targetsSocialToken",
        "offset": 0,
        "slot": "3",
        "type": "t_array(t_address)dyn_storage"
      },
      {
        "astId": 4046,
        "contract": "contracts/TokenFactory.sol:TokenFactory",
        "label": "_protocolFeeRecipient",
        "offset": 0,
        "slot": "4",
        "type": "t_address"
      },
      {
        "astId": 4048,
        "contract": "contracts/TokenFactory.sol:TokenFactory",
        "label": "_protocolFee",
        "offset": 20,
        "slot": "4",
        "type": "t_uint8"
      },
      {
        "astId": 4050,
        "contract": "contracts/TokenFactory.sol:TokenFactory",
        "label": "_operationalFeeRecipient",
        "offset": 0,
        "slot": "5",
        "type": "t_address"
      },
      {
        "astId": 4052,
        "contract": "contracts/TokenFactory.sol:TokenFactory",
        "label": "_operationalFee",
        "offset": 20,
        "slot": "5",
        "type": "t_uint8"
      },
      {
        "astId": 4055,
        "contract": "contracts/TokenFactory.sol:TokenFactory",
        "label": "baseURI721",
        "offset": 0,
        "slot": "6",
        "type": "t_string_storage"
      },
      {
        "astId": 4058,
        "contract": "contracts/TokenFactory.sol:TokenFactory",
        "label": "baseURI1155",
        "offset": 0,
        "slot": "7",
        "type": "t_string_storage"
      },
      {
        "astId": 4061,
        "contract": "contracts/TokenFactory.sol:TokenFactory",
        "label": "erc721Exchange",
        "offset": 0,
        "slot": "8",
        "type": "t_address"
      },
      {
        "astId": 4064,
        "contract": "contracts/TokenFactory.sol:TokenFactory",
        "label": "erc1155Exchange",
        "offset": 0,
        "slot": "9",
        "type": "t_address"
      },
      {
        "astId": 4069,
        "contract": "contracts/TokenFactory.sol:TokenFactory",
        "label": "isDeployerWhitelisted",
        "offset": 0,
        "slot": "10",
        "type": "t_mapping(t_address,t_bool)"
      },
      {
        "astId": 4074,
        "contract": "contracts/TokenFactory.sol:TokenFactory",
        "label": "isStrategyWhitelisted",
        "offset": 0,
        "slot": "11",
        "type": "t_mapping(t_address,t_bool)"
      },
      {
        "astId": 4080,
        "contract": "contracts/TokenFactory.sol:TokenFactory",
        "label": "tagNonces",
        "offset": 0,
        "slot": "12",
        "type": "t_mapping(t_address,t_mapping(t_uint256,t_uint256))"
      }
    ],
    "types": {
      "t_address": {
        "encoding": "inplace",
        "label": "address",
        "numberOfBytes": "20"
      },
      "t_array(t_address)dyn_storage": {
        "base": "t_address",
        "encoding": "dynamic_array",
        "label": "address[]",
        "numberOfBytes": "32"
      },
      "t_bool": {
        "encoding": "inplace",
        "label": "bool",
        "numberOfBytes": "1"
      },
      "t_mapping(t_address,t_bool)": {
        "encoding": "mapping",
        "key": "t_address",
        "label": "mapping(address => bool)",
        "numberOfBytes": "32",
        "value": "t_bool"
      },
      "t_mapping(t_address,t_mapping(t_uint256,t_uint256))": {
        "encoding": "mapping",
        "key": "t_address",
        "label": "mapping(address => mapping(uint256 => uint256))",
        "numberOfBytes": "32",
        "value": "t_mapping(t_uint256,t_uint256)"
      },
      "t_mapping(t_uint256,t_uint256)": {
        "encoding": "mapping",
        "key": "t_uint256",
        "label": "mapping(uint256 => uint256)",
        "numberOfBytes": "32",
        "value": "t_uint256"
      },
      "t_string_storage": {
        "encoding": "bytes",
        "label": "string",
        "numberOfBytes": "32"
      },
      "t_uint256": {
        "encoding": "inplace",
        "label": "uint256",
        "numberOfBytes": "32"
      },
      "t_uint8": {
        "encoding": "inplace",
        "label": "uint8",
        "numberOfBytes": "1"
      }
    }
  }
}