{
  "address": "0x959922bE3CAee4b8Cd9a407cc3ac1C251C2007B1",
  "abi": [
    {
      "inputs": [
        {
          "internalType": "address",
          "name": "proxy",
          "type": "address"
        },
        {
          "internalType": "uint256",
          "name": "deadline",
          "type": "uint256"
        },
        {
          "internalType": "bytes",
          "name": "params",
          "type": "bytes"
        },
        {
          "internalType": "address",
          "name": "",
          "type": "address"
        },
        {
          "internalType": "uint256",
          "name": "bidPrice",
          "type": "uint256"
        },
        {
          "internalType": "address",
          "name": "",
          "type": "address"
        },
        {
          "internalType": "uint256",
          "name": "bestBidPrice",
          "type": "uint256"
        },
        {
          "internalType": "uint256",
          "name": "",
          "type": "uint256"
        }
      ],
      "name": "canBid",
      "outputs": [
        {
          "internalType": "bool",
          "name": "",
          "type": "bool"
        }
      ],
      "stateMutability": "view",
      "type": "function"
    },
    {
      "inputs": [
        {
          "internalType": "address",
          "name": "proxy",
          "type": "address"
        },
        {
          "internalType": "uint256",
          "name": "deadline",
          "type": "uint256"
        },
        {
          "internalType": "bytes",
          "name": "params",
          "type": "bytes"
        },
        {
          "internalType": "address",
          "name": "bidder",
          "type": "address"
        },
        {
          "internalType": "uint256",
          "name": "bidPrice",
          "type": "uint256"
        },
        {
          "internalType": "address",
          "name": "bestBidder",
          "type": "address"
        },
        {
          "internalType": "uint256",
          "name": "bestBidPrice",
          "type": "uint256"
        },
        {
          "internalType": "uint256",
          "name": "",
          "type": "uint256"
        }
      ],
      "name": "canClaim",
      "outputs": [
        {
          "internalType": "bool",
          "name": "",
          "type": "bool"
        }
      ],
      "stateMutability": "view",
      "type": "function"
    }
  ],
  "transactionHash": "0xb2ebc0d8fbd8b6813bb683b7b8735522c856f08c1fa602d208be97a60fc0a9ec",
  "args": [],
  "solcInputHash": "e3c62f23f4c4ecd0f31deadf57fa7733",
  "bytecode": "0x608060405234801561001057600080fd5b50610412806100206000396000f3fe608060405234801561001057600080fd5b50600436106100365760003560e01c8063610e2d3b1461003b578063e9b3838f14610062575b600080fd5b61004e61004936600461029f565b610075565b604051901515815260200160405180910390f35b61004e61007036600461029f565b610192565b60006001600160a01b0389166100b757836001600160a01b0316866001600160a01b03161480156100a557508285145b80156100b057504288105b9050610186565b600080888060200190518101906100ce91906103a3565b91509150600082116101275760405162461bcd60e51b815260206004820152601a60248201527f53484f59553a20494e56414c49445f53544152545f505249434500000000000060448201526064015b60405180910390fd5b8981106101725760405162461bcd60e51b815260206004820152601960248201527814d213d6554e881253959053125117d4d5105495115117d055603a1b604482015260640161011e565b8187101580156101815750428a105b925050505b98975050505050505050565b60006001600160a01b03891661027b57600080888060200190518101906101b991906103a3565b915091506000821161020d5760405162461bcd60e51b815260206004820152601a60248201527f53484f59553a20494e56414c49445f53544152545f5052494345000000000000604482015260640161011e565b8981106102585760405162461bcd60e51b815260206004820152601960248201527814d213d6554e881253959053125117d4d5105495115117d055603a1b604482015260640161011e565b8942111580156102685750818710155b8015610181575084871192505050610186565b506000610186565b80356001600160a01b038116811461029a57600080fd5b919050565b600080600080600080600080610100898b0312156102bb578384fd5b6102c489610283565b975060208901359650604089013567ffffffffffffffff808211156102e7578586fd5b818b0191508b601f8301126102fa578586fd5b81358181111561030c5761030c6103c6565b604051601f8201601f19908116603f01168101908382118183101715610334576103346103c6565b816040528281528e602084870101111561034c578889fd5b8260208601602083013791820160200188905250975061037191505060608a01610283565b94506080890135935061038660a08a01610283565b925060c0890135915060e089013590509295985092959890939650565b600080604083850312156103b5578182fd5b505080516020909101519092909150565b634e487b7160e01b600052604160045260246000fdfea2646970667358221220ecfe0040e96411dead6b2a8dbb1f370ce4c48cfc6e1026a9c28e29094a9df3ff64736f6c63430008030033",
  "devdoc": {
    "kind": "dev",
    "methods": {},
    "version": 1
  },
  "userdoc": {
    "kind": "user",
    "methods": {},
    "version": 1
  },
  "storageLayout": {
    "storage": [],
    "types": null
  }
}