{
  "address": "0x59b670e9fA9D0A427751Af201D676719a970857b",
  "abi": [
    {
      "anonymous": false,
      "inputs": [
        {
          "indexed": true,
          "internalType": "address",
          "name": "account",
          "type": "address"
        },
        {
          "indexed": true,
          "internalType": "address",
          "name": "operator",
          "type": "address"
        },
        {
          "indexed": false,
          "internalType": "bool",
          "name": "approved",
          "type": "bool"
        }
      ],
      "name": "ApprovalForAll",
      "type": "event"
    },
    {
      "anonymous": false,
      "inputs": [
        {
          "indexed": true,
          "internalType": "bytes32",
          "name": "hash",
          "type": "bytes32"
        },
        {
          "indexed": false,
          "internalType": "address",
          "name": "bidder",
          "type": "address"
        },
        {
          "indexed": false,
          "internalType": "uint256",
          "name": "amount",
          "type": "uint256"
        },
        {
          "indexed": false,
          "internalType": "uint256",
          "name": "price",
          "type": "uint256"
        },
        {
          "indexed": false,
          "internalType": "address",
          "name": "recipient",
          "type": "address"
        },
        {
          "indexed": false,
          "internalType": "address",
          "name": "referrer",
          "type": "address"
        }
      ],
      "name": "Bid",
      "type": "event"
    },
    {
      "anonymous": false,
      "inputs": [
        {
          "indexed": true,
          "internalType": "uint256",
          "name": "tokenId",
          "type": "uint256"
        },
        {
          "indexed": false,
          "internalType": "uint256",
          "name": "amount",
          "type": "uint256"
        },
        {
          "indexed": true,
          "internalType": "uint256",
          "name": "label",
          "type": "uint256"
        },
        {
          "indexed": false,
          "internalType": "bytes32",
          "name": "data",
          "type": "bytes32"
        }
      ],
      "name": "Burn",
      "type": "event"
    },
    {
      "anonymous": false,
      "inputs": [
        {
          "indexed": true,
          "internalType": "bytes32",
          "name": "hash",
          "type": "bytes32"
        }
      ],
      "name": "Cancel",
      "type": "event"
    },
    {
      "anonymous": false,
      "inputs": [
        {
          "indexed": true,
          "internalType": "bytes32",
          "name": "hash",
          "type": "bytes32"
        },
        {
          "indexed": false,
          "internalType": "address",
          "name": "bidder",
          "type": "address"
        },
        {
          "indexed": false,
          "internalType": "uint256",
          "name": "amount",
          "type": "uint256"
        },
        {
          "indexed": false,
          "internalType": "uint256",
          "name": "price",
          "type": "uint256"
        },
        {
          "indexed": false,
          "internalType": "address",
          "name": "recipient",
          "type": "address"
        },
        {
          "indexed": false,
          "internalType": "address",
          "name": "referrer",
          "type": "address"
        }
      ],
      "name": "Claim",
      "type": "event"
    },
    {
      "anonymous": false,
      "inputs": [
        {
          "indexed": true,
          "internalType": "address",
          "name": "previousOwner",
          "type": "address"
        },
        {
          "indexed": true,
          "internalType": "address",
          "name": "newOwner",
          "type": "address"
        }
      ],
      "name": "OwnershipTransferred",
      "type": "event"
    },
    {
      "anonymous": false,
      "inputs": [
        {
          "indexed": false,
          "internalType": "string",
          "name": "uri",
          "type": "string"
        }
      ],
      "name": "SetBaseURI",
      "type": "event"
    },
    {
      "anonymous": false,
      "inputs": [
        {
          "indexed": false,
          "internalType": "bool",
          "name": "locked",
          "type": "bool"
        }
      ],
      "name": "SetLocked",
      "type": "event"
    },
    {
      "anonymous": false,
      "inputs": [
        {
          "indexed": false,
          "internalType": "uint8",
          "name": "fee",
          "type": "uint8"
        }
      ],
      "name": "SetRoyaltyFee",
      "type": "event"
    },
    {
      "anonymous": false,
      "inputs": [
        {
          "indexed": false,
          "internalType": "address",
          "name": "recipient",
          "type": "address"
        }
      ],
      "name": "SetRoyaltyFeeRecipient",
      "type": "event"
    },
    {
      "anonymous": false,
      "inputs": [
        {
          "indexed": true,
          "internalType": "uint256",
          "name": "id",
          "type": "uint256"
        },
        {
          "indexed": false,
          "internalType": "string",
          "name": "uri",
          "type": "string"
        }
      ],
      "name": "SetURI",
      "type": "event"
    },
    {
      "anonymous": false,
      "inputs": [
        {
          "indexed": true,
          "internalType": "address",
          "name": "operator",
          "type": "address"
        },
        {
          "indexed": true,
          "internalType": "address",
          "name": "from",
          "type": "address"
        },
        {
          "indexed": true,
          "internalType": "address",
          "name": "to",
          "type": "address"
        },
        {
          "indexed": false,
          "internalType": "uint256[]",
          "name": "ids",
          "type": "uint256[]"
        },
        {
          "indexed": false,
          "internalType": "uint256[]",
          "name": "values",
          "type": "uint256[]"
        }
      ],
      "name": "TransferBatch",
      "type": "event"
    },
    {
      "anonymous": false,
      "inputs": [
        {
          "indexed": true,
          "internalType": "address",
          "name": "operator",
          "type": "address"
        },
        {
          "indexed": true,
          "internalType": "address",
          "name": "from",
          "type": "address"
        },
        {
          "indexed": true,
          "internalType": "address",
          "name": "to",
          "type": "address"
        },
        {
          "indexed": false,
          "internalType": "uint256",
          "name": "id",
          "type": "uint256"
        },
        {
          "indexed": false,
          "internalType": "uint256",
          "name": "value",
          "type": "uint256"
        }
      ],
      "name": "TransferSingle",
      "type": "event"
    },
    {
      "anonymous": false,
      "inputs": [
        {
          "indexed": false,
          "internalType": "string",
          "name": "value",
          "type": "string"
        },
        {
          "indexed": true,
          "internalType": "uint256",
          "name": "id",
          "type": "uint256"
        }
      ],
      "name": "URI",
      "type": "event"
    },
    {
      "anonymous": false,
      "inputs": [
        {
          "indexed": true,
          "internalType": "address",
          "name": "proxy",
          "type": "address"
        },
        {
          "indexed": true,
          "internalType": "bytes32",
          "name": "askHash",
          "type": "bytes32"
        },
        {
          "indexed": true,
          "internalType": "address",
          "name": "bidder",
          "type": "address"
        },
        {
          "indexed": false,
          "internalType": "bytes32",
          "name": "bidHash",
          "type": "bytes32"
        }
      ],
      "name": "UpdateApprovedBidHash",
      "type": "event"
    },
    {
      "inputs": [],
      "name": "DOMAIN_SEPARATOR",
      "outputs": [
        {
          "internalType": "bytes32",
          "name": "",
          "type": "bytes32"
        }
      ],
      "stateMutability": "view",
      "type": "function"
    },
    {
      "inputs": [],
      "name": "PERMIT_TYPEHASH",
      "outputs": [
        {
          "internalType": "bytes32",
          "name": "",
          "type": "bytes32"
        }
      ],
      "stateMutability": "view",
      "type": "function"
    },
    {
      "inputs": [
        {
          "internalType": "bytes32",
          "name": "",
          "type": "bytes32"
        }
      ],
      "name": "amountFilled",
      "outputs": [
        {
          "internalType": "uint256",
          "name": "",
          "type": "uint256"
        }
      ],
      "stateMutability": "view",
      "type": "function"
    },
    {
      "inputs": [
        {
          "internalType": "address",
          "name": "proxy",
          "type": "address"
        },
        {
          "internalType": "bytes32",
          "name": "askHash",
          "type": "bytes32"
        },
        {
          "internalType": "address",
          "name": "bidder",
          "type": "address"
        }
      ],
      "name": "approvedBidHash",
      "outputs": [
        {
          "internalType": "bytes32",
          "name": "bidHash",
          "type": "bytes32"
        }
      ],
      "stateMutability": "view",
      "type": "function"
    },
    {
      "inputs": [
        {
          "internalType": "address",
          "name": "account",
          "type": "address"
        },
        {
          "internalType": "uint256",
          "name": "id",
          "type": "uint256"
        }
      ],
      "name": "balanceOf",
      "outputs": [
        {
          "internalType": "uint256",
          "name": "",
          "type": "uint256"
        }
      ],
      "stateMutability": "view",
      "type": "function"
    },
    {
      "inputs": [
        {
          "internalType": "address[]",
          "name": "accounts",
          "type": "address[]"
        },
        {
          "internalType": "uint256[]",
          "name": "ids",
          "type": "uint256[]"
        }
      ],
      "name": "balanceOfBatch",
      "outputs": [
        {
          "internalType": "uint256[]",
          "name": "",
          "type": "uint256[]"
        }
      ],
      "stateMutability": "view",
      "type": "function"
    },
    {
      "inputs": [
        {
          "internalType": "bytes32",
          "name": "",
          "type": "bytes32"
        }
      ],
      "name": "bestBid",
      "outputs": [
        {
          "internalType": "address",
          "name": "bidder",
          "type": "address"
        },
        {
          "internalType": "uint256",
          "name": "amount",
          "type": "uint256"
        },
        {
          "internalType": "uint256",
          "name": "price",
          "type": "uint256"
        },
        {
          "internalType": "address",
          "name": "recipient",
          "type": "address"
        },
        {
          "internalType": "address",
          "name": "referrer",
          "type": "address"
        },
        {
          "internalType": "uint256",
          "name": "timestamp",
          "type": "uint256"
        }
      ],
      "stateMutability": "view",
      "type": "function"
    },
    {
      "inputs": [
        {
          "components": [
            {
              "internalType": "address",
              "name": "signer",
              "type": "address"
            },
            {
              "internalType": "address",
              "name": "proxy",
              "type": "address"
            },
            {
              "internalType": "address",
              "name": "token",
              "type": "address"
            },
            {
              "internalType": "uint256",
              "name": "tokenId",
              "type": "uint256"
            },
            {
              "internalType": "uint256",
              "name": "amount",
              "type": "uint256"
            },
            {
              "internalType": "address",
              "name": "strategy",
              "type": "address"
            },
            {
              "internalType": "address",
              "name": "currency",
              "type": "address"
            },
            {
              "internalType": "address",
              "name": "recipient",
              "type": "address"
            },
            {
              "internalType": "uint256",
              "name": "deadline",
              "type": "uint256"
            },
            {
              "internalType": "bytes",
              "name": "params",
              "type": "bytes"
            },
            {
              "internalType": "uint8",
              "name": "v",
              "type": "uint8"
            },
            {
              "internalType": "bytes32",
              "name": "r",
              "type": "bytes32"
            },
            {
              "internalType": "bytes32",
              "name": "s",
              "type": "bytes32"
            }
          ],
          "internalType": "struct Orders.Ask",
          "name": "askOrder",
          "type": "tuple"
        },
        {
          "internalType": "uint256",
          "name": "bidAmount",
          "type": "uint256"
        },
        {
          "internalType": "uint256",
          "name": "bidPrice",
          "type": "uint256"
        },
        {
          "internalType": "address",
          "name": "bidRecipient",
          "type": "address"
        },
        {
          "internalType": "address",
          "name": "bidReferrer",
          "type": "address"
        }
      ],
      "name": "bid",
      "outputs": [
        {
          "internalType": "bool",
          "name": "executed",
          "type": "bool"
        }
      ],
      "stateMutability": "nonpayable",
      "type": "function"
    },
    {
      "inputs": [
        {
          "components": [
            {
              "internalType": "address",
              "name": "signer",
              "type": "address"
            },
            {
              "internalType": "address",
              "name": "proxy",
              "type": "address"
            },
            {
              "internalType": "address",
              "name": "token",
              "type": "address"
            },
            {
              "internalType": "uint256",
              "name": "tokenId",
              "type": "uint256"
            },
            {
              "internalType": "uint256",
              "name": "amount",
              "type": "uint256"
            },
            {
              "internalType": "address",
              "name": "strategy",
              "type": "address"
            },
            {
              "internalType": "address",
              "name": "currency",
              "type": "address"
            },
            {
              "internalType": "address",
              "name": "recipient",
              "type": "address"
            },
            {
              "internalType": "uint256",
              "name": "deadline",
              "type": "uint256"
            },
            {
              "internalType": "bytes",
              "name": "params",
              "type": "bytes"
            },
            {
              "internalType": "uint8",
              "name": "v",
              "type": "uint8"
            },
            {
              "internalType": "bytes32",
              "name": "r",
              "type": "bytes32"
            },
            {
              "internalType": "bytes32",
              "name": "s",
              "type": "bytes32"
            }
          ],
          "internalType": "struct Orders.Ask",
          "name": "askOrder",
          "type": "tuple"
        },
        {
          "components": [
            {
              "internalType": "bytes32",
              "name": "askHash",
              "type": "bytes32"
            },
            {
              "internalType": "address",
              "name": "signer",
              "type": "address"
            },
            {
              "internalType": "uint256",
              "name": "amount",
              "type": "uint256"
            },
            {
              "internalType": "uint256",
              "name": "price",
              "type": "uint256"
            },
            {
              "internalType": "address",
              "name": "recipient",
              "type": "address"
            },
            {
              "internalType": "address",
              "name": "referrer",
              "type": "address"
            },
            {
              "internalType": "uint8",
              "name": "v",
              "type": "uint8"
            },
            {
              "internalType": "bytes32",
              "name": "r",
              "type": "bytes32"
            },
            {
              "internalType": "bytes32",
              "name": "s",
              "type": "bytes32"
            }
          ],
          "internalType": "struct Orders.Bid",
          "name": "bidOrder",
          "type": "tuple"
        }
      ],
      "name": "bid",
      "outputs": [
        {
          "internalType": "bool",
          "name": "executed",
          "type": "bool"
        }
      ],
      "stateMutability": "nonpayable",
      "type": "function"
    },
    {
      "inputs": [
        {
          "internalType": "uint256",
          "name": "tokenId",
          "type": "uint256"
        },
        {
          "internalType": "uint256",
          "name": "amount",
          "type": "uint256"
        },
        {
          "internalType": "uint256",
          "name": "label",
          "type": "uint256"
        },
        {
          "internalType": "bytes32",
          "name": "data",
          "type": "bytes32"
        }
      ],
      "name": "burn",
      "outputs": [],
      "stateMutability": "nonpayable",
      "type": "function"
    },
    {
      "inputs": [
        {
          "internalType": "uint256[]",
          "name": "tokenIds",
          "type": "uint256[]"
        },
        {
          "internalType": "uint256[]",
          "name": "amounts",
          "type": "uint256[]"
        }
      ],
      "name": "burnBatch",
      "outputs": [],
      "stateMutability": "nonpayable",
      "type": "function"
    },
    {
      "inputs": [
        {
          "internalType": "address",
          "name": "token",
          "type": "address"
        }
      ],
      "name": "canTrade",
      "outputs": [
        {
          "internalType": "bool",
          "name": "",
          "type": "bool"
        }
      ],
      "stateMutability": "view",
      "type": "function"
    },
    {
      "inputs": [
        {
          "components": [
            {
              "internalType": "address",
              "name": "signer",
              "type": "address"
            },
            {
              "internalType": "address",
              "name": "proxy",
              "type": "address"
            },
            {
              "internalType": "address",
              "name": "token",
              "type": "address"
            },
            {
              "internalType": "uint256",
              "name": "tokenId",
              "type": "uint256"
            },
            {
              "internalType": "uint256",
              "name": "amount",
              "type": "uint256"
            },
            {
              "internalType": "address",
              "name": "strategy",
              "type": "address"
            },
            {
              "internalType": "address",
              "name": "currency",
              "type": "address"
            },
            {
              "internalType": "address",
              "name": "recipient",
              "type": "address"
            },
            {
              "internalType": "uint256",
              "name": "deadline",
              "type": "uint256"
            },
            {
              "internalType": "bytes",
              "name": "params",
              "type": "bytes"
            },
            {
              "internalType": "uint8",
              "name": "v",
              "type": "uint8"
            },
            {
              "internalType": "bytes32",
              "name": "r",
              "type": "bytes32"
            },
            {
              "internalType": "bytes32",
              "name": "s",
              "type": "bytes32"
            }
          ],
          "internalType": "struct Orders.Ask",
          "name": "order",
          "type": "tuple"
        }
      ],
      "name": "cancel",
      "outputs": [],
      "stateMutability": "nonpayable",
      "type": "function"
    },
    {
      "inputs": [
        {
          "components": [
            {
              "internalType": "address",
              "name": "signer",
              "type": "address"
            },
            {
              "internalType": "address",
              "name": "proxy",
              "type": "address"
            },
            {
              "internalType": "address",
              "name": "token",
              "type": "address"
            },
            {
              "internalType": "uint256",
              "name": "tokenId",
              "type": "uint256"
            },
            {
              "internalType": "uint256",
              "name": "amount",
              "type": "uint256"
            },
            {
              "internalType": "address",
              "name": "strategy",
              "type": "address"
            },
            {
              "internalType": "address",
              "name": "currency",
              "type": "address"
            },
            {
              "internalType": "address",
              "name": "recipient",
              "type": "address"
            },
            {
              "internalType": "uint256",
              "name": "deadline",
              "type": "uint256"
            },
            {
              "internalType": "bytes",
              "name": "params",
              "type": "bytes"
            },
            {
              "internalType": "uint8",
              "name": "v",
              "type": "uint8"
            },
            {
              "internalType": "bytes32",
              "name": "r",
              "type": "bytes32"
            },
            {
              "internalType": "bytes32",
              "name": "s",
              "type": "bytes32"
            }
          ],
          "internalType": "struct Orders.Ask",
          "name": "askOrder",
          "type": "tuple"
        }
      ],
      "name": "claim",
      "outputs": [],
      "stateMutability": "nonpayable",
      "type": "function"
    },
    {
      "inputs": [],
      "name": "factory",
      "outputs": [
        {
          "internalType": "address",
          "name": "",
          "type": "address"
        }
      ],
      "stateMutability": "view",
      "type": "function"
    },
    {
      "inputs": [
        {
          "internalType": "address",
          "name": "_owner",
          "type": "address"
        },
        {
          "internalType": "uint256[]",
          "name": "tokenIds",
          "type": "uint256[]"
        },
        {
          "internalType": "uint256[]",
          "name": "amounts",
          "type": "uint256[]"
        },
        {
          "internalType": "address",
          "name": "royaltyFeeRecipient",
          "type": "address"
        },
        {
          "internalType": "uint8",
          "name": "royaltyFee",
          "type": "uint8"
        }
      ],
      "name": "initialize",
      "outputs": [],
      "stateMutability": "nonpayable",
      "type": "function"
    },
    {
      "inputs": [
        {
          "internalType": "address",
          "name": "_owner",
          "type": "address"
        }
      ],
      "name": "initialize",
      "outputs": [],
      "stateMutability": "nonpayable",
      "type": "function"
    },
    {
      "inputs": [
        {
          "internalType": "address",
          "name": "account",
          "type": "address"
        },
        {
          "internalType": "address",
          "name": "operator",
          "type": "address"
        }
      ],
      "name": "isApprovedForAll",
      "outputs": [
        {
          "internalType": "bool",
          "name": "",
          "type": "bool"
        }
      ],
      "stateMutability": "view",
      "type": "function"
    },
    {
      "inputs": [
        {
          "internalType": "bytes32",
          "name": "",
          "type": "bytes32"
        }
      ],
      "name": "isCancelledOrClaimed",
      "outputs": [
        {
          "internalType": "bool",
          "name": "",
          "type": "bool"
        }
      ],
      "stateMutability": "view",
      "type": "function"
    },
    {
      "inputs": [],
      "name": "locked",
      "outputs": [
        {
          "internalType": "bool",
          "name": "",
          "type": "bool"
        }
      ],
      "stateMutability": "view",
      "type": "function"
    },
    {
      "inputs": [
        {
          "internalType": "address",
          "name": "to",
          "type": "address"
        },
        {
          "internalType": "uint256",
          "name": "tokenId",
          "type": "uint256"
        },
        {
          "internalType": "uint256",
          "name": "amount",
          "type": "uint256"
        },
        {
          "internalType": "bytes",
          "name": "data",
          "type": "bytes"
        }
      ],
      "name": "mint",
      "outputs": [],
      "stateMutability": "nonpayable",
      "type": "function"
    },
    {
      "inputs": [
        {
          "internalType": "address",
          "name": "to",
          "type": "address"
        },
        {
          "internalType": "uint256[]",
          "name": "tokenIds",
          "type": "uint256[]"
        },
        {
          "internalType": "uint256[]",
          "name": "amounts",
          "type": "uint256[]"
        },
        {
          "internalType": "bytes",
          "name": "data",
          "type": "bytes"
        }
      ],
      "name": "mintBatch",
      "outputs": [],
      "stateMutability": "nonpayable",
      "type": "function"
    },
    {
      "inputs": [
        {
          "internalType": "address",
          "name": "",
          "type": "address"
        }
      ],
      "name": "nonces",
      "outputs": [
        {
          "internalType": "uint256",
          "name": "",
          "type": "uint256"
        }
      ],
      "stateMutability": "view",
      "type": "function"
    },
    {
      "inputs": [],
      "name": "owner",
      "outputs": [
        {
          "internalType": "address",
          "name": "",
          "type": "address"
        }
      ],
      "stateMutability": "view",
      "type": "function"
    },
    {
      "inputs": [
        {
          "internalType": "address",
          "name": "owner",
          "type": "address"
        },
        {
          "internalType": "address",
          "name": "spender",
          "type": "address"
        },
        {
          "internalType": "uint256",
          "name": "deadline",
          "type": "uint256"
        },
        {
          "internalType": "uint8",
          "name": "v",
          "type": "uint8"
        },
        {
          "internalType": "bytes32",
          "name": "r",
          "type": "bytes32"
        },
        {
          "internalType": "bytes32",
          "name": "s",
          "type": "bytes32"
        }
      ],
      "name": "permit",
      "outputs": [],
      "stateMutability": "nonpayable",
      "type": "function"
    },
    {
      "inputs": [],
      "name": "renounceOwnership",
      "outputs": [],
      "stateMutability": "nonpayable",
      "type": "function"
    },
    {
      "inputs": [
        {
          "internalType": "uint256",
          "name": "",
          "type": "uint256"
        },
        {
          "internalType": "uint256",
          "name": "_salePrice",
          "type": "uint256"
        }
      ],
      "name": "royaltyInfo",
      "outputs": [
        {
          "internalType": "address",
          "name": "",
          "type": "address"
        },
        {
          "internalType": "uint256",
          "name": "",
          "type": "uint256"
        }
      ],
      "stateMutability": "view",
      "type": "function"
    },
    {
      "inputs": [
        {
          "internalType": "address",
          "name": "from",
          "type": "address"
        },
        {
          "internalType": "address",
          "name": "to",
          "type": "address"
        },
        {
          "internalType": "uint256[]",
          "name": "ids",
          "type": "uint256[]"
        },
        {
          "internalType": "uint256[]",
          "name": "amounts",
          "type": "uint256[]"
        },
        {
          "internalType": "bytes",
          "name": "data",
          "type": "bytes"
        }
      ],
      "name": "safeBatchTransferFrom",
      "outputs": [],
      "stateMutability": "nonpayable",
      "type": "function"
    },
    {
      "inputs": [
        {
          "internalType": "address",
          "name": "from",
          "type": "address"
        },
        {
          "internalType": "address",
          "name": "to",
          "type": "address"
        },
        {
          "internalType": "uint256",
          "name": "id",
          "type": "uint256"
        },
        {
          "internalType": "uint256",
          "name": "amount",
          "type": "uint256"
        },
        {
          "internalType": "bytes",
          "name": "data",
          "type": "bytes"
        }
      ],
      "name": "safeTransferFrom",
      "outputs": [],
      "stateMutability": "nonpayable",
      "type": "function"
    },
    {
      "inputs": [
        {
          "internalType": "address",
          "name": "operator",
          "type": "address"
        },
        {
          "internalType": "bool",
          "name": "approved",
          "type": "bool"
        }
      ],
      "name": "setApprovalForAll",
      "outputs": [],
      "stateMutability": "nonpayable",
      "type": "function"
    },
    {
      "inputs": [
        {
          "internalType": "string",
          "name": "baseURI",
          "type": "string"
        }
      ],
      "name": "setBaseURI",
      "outputs": [],
      "stateMutability": "nonpayable",
      "type": "function"
    },
    {
      "inputs": [
        {
          "internalType": "bool",
          "name": "_locked",
          "type": "bool"
        }
      ],
      "name": "setLocked",
      "outputs": [],
      "stateMutability": "nonpayable",
      "type": "function"
    },
    {
      "inputs": [
        {
          "internalType": "uint8",
          "name": "royaltyFee",
          "type": "uint8"
        }
      ],
      "name": "setRoyaltyFee",
      "outputs": [],
      "stateMutability": "nonpayable",
      "type": "function"
    },
    {
      "inputs": [
        {
          "internalType": "address",
          "name": "royaltyFeeRecipient",
          "type": "address"
        }
      ],
      "name": "setRoyaltyFeeRecipient",
      "outputs": [],
      "stateMutability": "nonpayable",
      "type": "function"
    },
    {
      "inputs": [
        {
          "internalType": "uint256",
          "name": "id",
          "type": "uint256"
        },
        {
          "internalType": "string",
          "name": "newURI",
          "type": "string"
        }
      ],
      "name": "setURI",
      "outputs": [],
      "stateMutability": "nonpayable",
      "type": "function"
    },
    {
      "inputs": [
        {
          "internalType": "bytes4",
          "name": "interfaceId",
          "type": "bytes4"
        }
      ],
      "name": "supportsInterface",
      "outputs": [
        {
          "internalType": "bool",
          "name": "",
          "type": "bool"
        }
      ],
      "stateMutability": "view",
      "type": "function"
    },
    {
      "inputs": [
        {
          "internalType": "address",
          "name": "newOwner",
          "type": "address"
        }
      ],
      "name": "transferOwnership",
      "outputs": [],
      "stateMutability": "nonpayable",
      "type": "function"
    },
    {
      "inputs": [
        {
          "internalType": "bytes32",
          "name": "askHash",
          "type": "bytes32"
        },
        {
          "internalType": "address",
          "name": "bidder",
          "type": "address"
        },
        {
          "internalType": "bytes32",
          "name": "bidHash",
          "type": "bytes32"
        }
      ],
      "name": "updateApprovedBidHash",
      "outputs": [],
      "stateMutability": "nonpayable",
      "type": "function"
    },
    {
      "inputs": [
        {
          "internalType": "uint256",
          "name": "id",
          "type": "uint256"
        }
      ],
      "name": "uri",
      "outputs": [
        {
          "internalType": "string",
          "name": "",
          "type": "string"
        }
      ],
      "stateMutability": "view",
      "type": "function"
    }
  ],
  "transactionHash": "0xd1a93105099c00327a180bb2da824034db899604738428b41195ae8161e46def",
  "args": [],
  "solcInputHash": "e3c62f23f4c4ecd0f31deadf57fa7733",
  "bytecode": "0x608060405234801561001057600080fd5b5061578f80620000216000396000f3fe608060405234801561001057600080fd5b506004361061023c5760003560e01c8063715018a61161013b578063bff5e79d116100b8578063d0d092461161007c578063d0d09246146105df578063e331a715146105f2578063e985e9c514610615578063f242432a14610628578063f2fde38b1461063b5761023c565b8063bff5e79d1461057b578063c45a01551461058e578063c4d66de8146105a5578063cb27e1b6146105b8578063cf309012146105cb5761023c565b806383ca4b6f116100ff57806383ca4b6f1461050a578063862440e21461051d5780638da5cb5b14610530578063a22cb46514610555578063b81e8466146105685761023c565b8063715018a61461049c578063731133e9146104a457806375e6590f146104b757806376882663146104d75780637ecebe00146104ea5761023c565b80633644e515116101c9578063559f05dc1161018d578063559f05dc146103b257806355f804b3146103d15780635771f997146103e45780635f7ef2fa146104765780636ef8e02d146104895761023c565b80633644e5151461035157806338bc54cd146103595780633cf32cd11461036c57806348613c281461037f5780634e1273f4146103925761023c565b80631f7fdffa116102105780631f7fdffa146102bf578063211e28b6146102d25780632a55205a146102e55780632eb2c2d61461031757806330adf81f1461032a5761023c565b8062fdd58e1461024157806301ffc9a7146102675780630e89341c1461028a578063177315e3146102aa575b600080fd5b61025461024f366004614ad9565b61064e565b6040519081526020015b60405180910390f35b61027a610275366004614d6e565b6106a7565b604051901515815260200161025e565b61029d610298366004614d1f565b6106d4565b60405161025e9190615328565b6102bd6102b8366004615029565b610926565b005b6102bd6102cd3660046149d5565b610974565b6102bd6102e0366004614ce7565b6109d9565b6102f86102f3366004615008565b610a9f565b604080516001600160a01b03909316835260208301919091520161025e565b6102bd6103253660046147c8565b610aff565b6102547fdaab21af31ece73a508939fedd476a5ee5129a5ed4bb091f3236ffb45394df6281565b610254610d3d565b61027a610367366004614f4f565b610d4d565b6102bd61037a366004614e4b565b610ddb565b6102bd61038d3660046148d7565b610ec6565b6103a56103a0366004614bb3565b611047565b60405161025e91906152d7565b61027a6103c0366004614774565b6001600160a01b0381163014919050565b6102bd6103df366004614da6565b611166565b6104376103f2366004614d1f565b600d602052600090815260409020805460018201546002830154600384015460048501546005909501546001600160a01b039485169593949293918316929091169086565b604080516001600160a01b03978816815260208101969096528501939093529084166060840152909216608082015260a081019190915260c00161025e565b6102bd61048436600461505a565b6111d3565b6102bd610497366004614774565b611209565b6102bd61123c565b6102bd6104b2366004614b31565b6112b0565b6102546104c5366004614d1f565b600f6020526000908152604090205481565b6102bd6104e5366004614d37565b61130f565b6102546104f8366004614774565b600a6020526000908152604090205481565b6102bd610518366004614c7f565b61137a565b6102bd61052b366004614fce565b6113e8565b6004546001600160a01b03165b6040516001600160a01b03909116815260200161025e565b6102bd610563366004614a6b565b61146e565b61027a610576366004614e7d565b61147d565b6102bd61058936600461493b565b6116b9565b61053d60075461010090046001600160a01b031690565b6102bd6105b3366004614774565b611824565b6102546105c6366004614a98565b611960565b60105461027a90600160b81b900460ff1681565b6102bd6105ed366004614e4b565b611996565b61027a610600366004614d1f565b600e6020526000908152604090205460ff1681565b61027a610623366004614790565b611d53565b6102bd610636366004614871565b611d81565b6102bd610649366004614774565b611e67565b60006001600160a01b03831661067f5760405162461bcd60e51b8152600401610676906153dd565b60405180910390fd5b5060009081526001602090815260408083206001600160a01b03949094168352929052205490565b600063152a902d60e11b6001600160e01b0319831614806106cc57506106cc82611f43565b90505b919050565b6000818152600960205260408120805460609291906106f290615577565b80601f016020809104026020016040519081016040528092919081815260200182805461071e90615577565b801561076b5780601f106107405761010080835404028352916020019161076b565b820191906000526020600020905b81548152906001019060200180831161074e57829003601f168201915b505050505090506000815111156107835790506106cf565b60006008805461079290615577565b80601f01602080910402602001604051908101604052809291908181526020018280546107be90615577565b801561080b5780601f106107e05761010080835404028352916020019161080b565b820191906000526020600020905b8154815290600101906020018083116107ee57829003601f168201915b5050505050905060008151111561084f578061082685611f93565b604051602001610837929190615114565b604051602081830303815290604052925050506106cf565b600760019054906101000a90046001600160a01b03166001600160a01b031663c6edbca46040518163ffffffff1660e01b815260040160006040518083038186803b15801561089d57600080fd5b505afa1580156108b1573d6000803e3d6000fd5b505050506040513d6000823e601f3d908101601f191682016040526108d99190810190614dd8565b905060006108e83060146120b5565b905081816108f587611f93565b60405160200161090793929190615153565b60405160208183030381529060405293505050506106cf565b50919050565b610931338585612296565b6040805184815260208101839052839186917fed1397de7c11c080337d84f0acdca9b26b1237affe97a486bb12549594a70731910160405180910390a350505050565b336109876004546001600160a01b031690565b6001600160a01b031614806109ab575060075461010090046001600160a01b031633145b6109c75760405162461bcd60e51b81526004016106769061533b565b6109d384848484612393565b50505050565b6004546001600160a01b03163314610a035760405162461bcd60e51b81526004016106769061533b565b8015610a4757601054600160b01b900460ff1615610a335760405162461bcd60e51b81526004016106769061533b565b6010805460ff60b01b1916600160b01b1790555b60108054821515600160b81b0260ff60b81b199091161790556040517f9514871d395e6e24ef28f340cbcdcaa89f790cdf4a4fa6c25cf83a81fb27a86d90610a9490831515815260200190565b60405180910390a150565b60105460009081908190600160a81b900460ff90811614610ae2576010546103e890610ad590600160a81b900460ff16866154fe565b610adf91906154ea565b90505b60105461010090046001600160a01b0316925090505b9250929050565b8151835114610b205760405162461bcd60e51b81526004016106769061540d565b6001600160a01b038416610b465760405162461bcd60e51b8152600401610676906153dd565b6001600160a01b038516331480610b625750610b628533611d53565b610b7e5760405162461bcd60e51b81526004016106769061533b565b3360005b8451811015610ccf576000858281518110610bad57634e487b7160e01b600052603260045260246000fd5b602002602001015190506000858381518110610bd957634e487b7160e01b600052603260045260246000fd5b60209081029190910181015160008481526001835260408082206001600160a01b038e168352909352919091205490915081811015610c2a5760405162461bcd60e51b815260040161067690615444565b610c34828261551d565b6001600085815260200190815260200160002060008c6001600160a01b03166001600160a01b0316815260200190815260200160002081905550816001600085815260200190815260200160002060008b6001600160a01b03166001600160a01b031681526020019081526020016000206000828254610cb491906154d2565b9250508190555050505080610cc8906155d8565b9050610b82565b50846001600160a01b0316866001600160a01b0316826001600160a01b03167f4a39dc06d4c0dbc64b70af90fd698a233a518aa5d07e595d983b8c0526c8f7fb8787604051610d1f9291906152ea565b60405180910390a4610d358187878787876124f7565b505050505050565b6000610d47612664565b90505b90565b600b5460009060ff16151560011415610d785760405162461bcd60e51b815260040161067690615365565b600b805460ff1916600117905560208601516001600160a01b031615610db05760405162461bcd60e51b81526004016106769061533b565b610dc786610dbd88612710565b33888888886127fd565b600b805460ff191690559695505050505050565b80516001600160a01b0316331480610dff575060208101516001600160a01b031633145b610e1b5760405162461bcd60e51b81526004016106769061533b565b6000610e2682612710565b6000818152600d60205260409020549091506001600160a01b031615610e825760405162461bcd60e51b815260206004820152601160248201527053484f59553a204249445f45584953545360781b6044820152606401610676565b6000818152600e6020526040808220805460ff191660011790555182917fe8d9861dbc9c663ed3accd261bbe2fe01e0d3d9e5f51fa38523b265c7757a93a91a25050565b83421115610f075760405162461bcd60e51b815260206004820152600e60248201526d14d213d6554e881156141254915160921b6044820152606401610676565b6001600160a01b038616610f2d5760405162461bcd60e51b8152600401610676906153dd565b856001600160a01b0316856001600160a01b03161415610f865760405162461bcd60e51b815260206004820152601460248201527353484f59553a204e4f545f4e454345535341525960601b6044820152606401610676565b6001600160a01b0386166000908152600a6020526040812080547fdaab21af31ece73a508939fedd476a5ee5129a5ed4bb091f3236ffb45394df62918991899185610fd0836155d8565b909155506040805160208101959095526001600160a01b039384169085015291166060830152608082015260a0810186905260c001604051602081830303815290604052805190602001209050611032818886868661102d610d3d565b612ce2565b61103e87876001612e98565b50505050505050565b6060815183511461106a5760405162461bcd60e51b81526004016106769061540d565b600083516001600160401b0381111561109357634e487b7160e01b600052604160045260246000fd5b6040519080825280602002602001820160405280156110bc578160200160208202803683370190505b50905060005b845181101561115e576111238582815181106110ee57634e487b7160e01b600052603260045260246000fd5b602002602001015185838151811061111657634e487b7160e01b600052603260045260246000fd5b602002602001015161064e565b82828151811061114357634e487b7160e01b600052603260045260246000fd5b6020908102919091010152611157816155d8565b90506110c2565b509392505050565b6004546001600160a01b031633146111905760405162461bcd60e51b81526004016106769061533b565b80516111a39060089060208401906144bd565b507f23c8c9488efebfd474e85a7956de6f39b17c7ab88502d42a623db2d8e382bbaa81604051610a949190615328565b6004546001600160a01b031633146111fd5760405162461bcd60e51b81526004016106769061533b565b61120681612f5c565b50565b6004546001600160a01b031633146112335760405162461bcd60e51b81526004016106769061533b565b61120681613066565b6004546001600160a01b031633146112665760405162461bcd60e51b81526004016106769061533b565b6004546040516000916001600160a01b0316907f8be0079c531659141344cd1fd0a4f28419497f9722a3daafe3b4186f6b6457e0908390a3600480546001600160a01b0319169055565b336112c36004546001600160a01b031690565b6001600160a01b031614806112e7575060075461010090046001600160a01b031633145b6113035760405162461bcd60e51b81526004016106769061533b565b6109d384848484613112565b336000818152600c6020908152604080832087845282528083206001600160a01b03871680855290835292819020859055518481529192869290917fb45107556fea5943927a97bcb8910e249aea88961a6a30fb2f06674dbd44004b910160405180910390a4505050565b6109d333858580806020026020016040519081016040528093929190818152602001838360200280828437600092019190915250506040805160208089028281018201909352888252909350889250879182918501908490808284376000920191909152506131c992505050565b6004546001600160a01b031633146114125760405162461bcd60e51b81526004016106769061533b565b60008281526009602090815260409091208251611431928401906144bd565b50817fee1bb82f380189104b74a7647d26f2f35679780e816626ffcaec7cafb7288e46826040516114629190615328565b60405180910390a25050565b611479338383612e98565b5050565b600b5460009060ff161515600114156114a85760405162461bcd60e51b815260040161067690615365565b600b805460ff1916600117905560006114c084612710565b8351909150811461150b5760405162461bcd60e51b81526020600482015260156024820152740a6909eb2aa7440aa9c9a82a886908a88be9082a69605b1b6044820152606401610676565b60208301516001600160a01b031661155d5760405162461bcd60e51b815260206004820152601560248201527429a427acaa9d1024a72b20a624a22fa9a4a3a722a960591b6044820152606401610676565b600061156884613370565b60208601519091506001600160a01b0316156116625760208501516001600160a01b03163314806115ce57506020808601516001600160a01b039081166000908152600c8352604080822086835284528082208885015190931682529190925290205481145b6115ea5760405162461bcd60e51b81526004016106769061533b565b602085810180516001600160a01b039081166000908152600c8452604080822087835285528082208986018051851684529086528183208390555193519051918252928216938693909216917fb45107556fea5943927a97bcb8910e249aea88961a6a30fb2f06674dbd44004b910160405180910390a45b6116838185602001518660c001518760e0015188610100015161102d610d3d565b6116a6858386602001518760400151886060015189608001518a60a001516127fd565b600b805460ff1916905595945050505050565b600054610100900460ff16806116d2575060005460ff16155b6116ee5760405162461bcd60e51b81526004016106769061538f565b600054610100900460ff16158015611710576000805461ffff19166101011790555b6117186133fb565b61172186611824565b600760019054906101000a90046001600160a01b03166001600160a01b03166317e1f82e6040518163ffffffff1660e01b815260040160206040518083038186803b15801561176f57600080fd5b505afa158015611783573d6000803e3d6000fd5b505050506040513d601f19601f820116820180604052508101906117a79190615076565b6010805460ff191660ff929092169190911790558451156117dd576117dd86868660405180602001604052806000815250612393565b6117e683613066565b6010805460ff60a81b191660ff60a81b17905560ff82161561180b5761180b82612f5c565b8015610d35576000805461ff0019169055505050505050565b600054610100900460ff168061183d575060005460ff16155b6118595760405162461bcd60e51b81526004016106769061538f565b600054610100900460ff1615801561187b576000805461ffff19166101011790555b6118936040518060200160405280600081525061346e565b61189c826134e3565b60078054610100600160a81b0319163361010002179055466006557f8b73c3c69bb8fe3d512ecc4cf759cc79239f7b179b0ffacaa9a75d522b39400f6118e130613543565b80516020918201206040805192830193909352918101919091527fc89efdaa54c0f20c7adf612882df0950f5a951637e0307cdcb4c672f298b8bc660608201524660808201523060a082015260c00160408051601f1981840301815291905280516020909101206005558015611479576000805461ff00191690555050565b6001600160a01b038084166000908152600c602090815260408083208684528252808320938516835292905220545b9392505050565b600b5460ff161515600114156119be5760405162461bcd60e51b815260040161067690615365565b600b805460ff1916600117905560408101516001600160a01b03163014611a215760405162461bcd60e51b815260206004820152601760248201527653484f59553a20494e56414c49445f45584348414e474560481b6044820152606401610676565b6000611a2c82612710565b9050611a388282613598565b611a5b81836000015184610140015185610160015186610180015161102d610d3d565b6000818152600d6020908152604091829020825160c08101845281546001600160a01b0390811680835260018401548386015260028401548387018190526003850154831660608501526004808601548416608086015260059095015460a08086018290528a0151968a01516101008b01516101208c0151995163610e2d3b60e01b81529699989095169763610e2d3b97611b05979296959194919391928492849290910161524d565b60206040518083038186803b158015611b1d57600080fd5b505afa158015611b31573d6000803e3d6000fd5b505050506040513d601f19601f82011682018060405250810190611b559190614d03565b611b925760405162461bcd60e51b815260206004820152600e60248201526d53484f59553a204641494c55524560901b6044820152606401610676565b60e08301516001600160a01b038116611ba9575082515b6000838152600e6020908152604091829020805460ff1916600117905585820151606087015160c088015186519387015194870151611bfa95939492939192918791611bf591906154fe565b613875565b611c465760405162461bcd60e51b815260206004820152601f60248201527f53484f59553a204641494c45445f544f5f5452414e534645525f46554e4453006044820152606401610676565b6020808301516000858152600f909252604090912054611c6691906154d2565b6000848152600f602052604090205560608201516001600160a01b038116611c8c575081515b611ca9856040015186600001518388606001518760200151613ae7565b6000848152600d6020908152604080832080546001600160a01b03199081168255600182018590556002820185905560038201805482169055600482018054909116905560050192909255845190850151858301516080870151935188947f0642c67a22e8657a7126bb3b9fb3f01965503642f884e4c6a1efd8ed24f46c0d94611d3a9490939092909188916152a5565b60405180910390a25050600b805460ff19169055505050565b6001600160a01b03918216600090815260026020908152604080832093909416825291909152205460ff1690565b6001600160a01b038416611da75760405162461bcd60e51b8152600401610676906153dd565b6001600160a01b038516331480611dc35750611dc38533611d53565b611ddf5760405162461bcd60e51b81526004016106769061533b565b33611dff818787611def88613b29565b611df888613b29565b5050505050565b611e0b86868686613b82565b846001600160a01b0316866001600160a01b0316826001600160a01b031660008051602061573a8339815191528787604051611e51929190918252602082015260400190565b60405180910390a4610d35818787878787613c1e565b6004546001600160a01b03163314611e915760405162461bcd60e51b81526004016106769061533b565b6001600160a01b038116611ee75760405162461bcd60e51b815260206004820152601860248201527f53484f59553a20494e56414c49445f4e45575f4f574e455200000000000000006044820152606401610676565b6004546040516001600160a01b038084169216907f8be0079c531659141344cd1fd0a4f28419497f9722a3daafe3b4186f6b6457e090600090a3600480546001600160a01b0319166001600160a01b0392909216919091179055565b60006001600160e01b03198216636cdb3d1360e11b1480611f7457506001600160e01b031982166303a24d0760e21b145b806106cc57506301ffc9a760e01b6001600160e01b03198316146106cc565b606081611fb857506040805180820190915260018152600360fc1b60208201526106cf565b8160005b8115611fe25780611fcc816155d8565b9150611fdb9050600a836154ea565b9150611fbc565b6000816001600160401b0381111561200a57634e487b7160e01b600052604160045260246000fd5b6040519080825280601f01601f191660200182016040528015612034576020820181803683370190505b5090505b84156120ad5761204960018361551d565b9150612056600a866155f3565b6120619060306154d2565b60f81b81838151811061208457634e487b7160e01b600052603260045260246000fd5b60200101906001600160f81b031916908160001a9053506120a6600a866154ea565b9450612038565b949350505050565b606060006120c48360026154fe565b6120cf9060026154d2565b6001600160401b038111156120f457634e487b7160e01b600052604160045260246000fd5b6040519080825280601f01601f19166020018201604052801561211e576020820181803683370190505b509050600360fc1b8160008151811061214757634e487b7160e01b600052603260045260246000fd5b60200101906001600160f81b031916908160001a905350600f60fb1b8160018151811061218457634e487b7160e01b600052603260045260246000fd5b60200101906001600160f81b031916908160001a90535060006121a88460026154fe565b6121b39060016154d2565b90505b6001811115612247576f181899199a1a9b1b9c1cb0b131b232b360811b85600f16601081106121f557634e487b7160e01b600052603260045260246000fd5b1a60f81b82828151811061221957634e487b7160e01b600052603260045260246000fd5b60200101906001600160f81b031916908160001a90535060049490941c9361224081615560565b90506121b6565b50831561198f5760405162461bcd60e51b815260206004820181905260248201527f537472696e67733a20686578206c656e67746820696e73756666696369656e746044820152606401610676565b6001600160a01b0383166122bc5760405162461bcd60e51b8152600401610676906153dd565b336122ec818560006122cd87613b29565b6122d687613b29565b5050604080516020810190915260009052505050565b60008381526001602090815260408083206001600160a01b03881684529091529020548281101561232f5760405162461bcd60e51b815260040161067690615444565b612339838261551d565b60008581526001602090815260408083206001600160a01b038a8116808652918452828520959095558151898152928301889052929386169160008051602061573a83398151915291015b60405180910390a45050505050565b6001600160a01b0384166123b95760405162461bcd60e51b8152600401610676906153dd565b81518351146123da5760405162461bcd60e51b81526004016106769061540d565b3360005b84518110156124935783818151811061240757634e487b7160e01b600052603260045260246000fd5b60200260200101516001600087848151811061243357634e487b7160e01b600052603260045260246000fd5b602002602001015181526020019081526020016000206000886001600160a01b03166001600160a01b03168152602001908152602001600020600082825461247b91906154d2565b9091555081905061248b816155d8565b9150506123de565b50846001600160a01b031660006001600160a01b0316826001600160a01b03167f4a39dc06d4c0dbc64b70af90fd698a233a518aa5d07e595d983b8c0526c8f7fb87876040516124e49291906152ea565b60405180910390a4611df8816000878787875b6001600160a01b0384163b15610d355760405163bc197c8160e01b81526001600160a01b0385169063bc197c819061253b90899089908890889088906004016151b5565b602060405180830381600087803b15801561255557600080fd5b505af1925050508015612585575060408051601f3d908101601f1916820190925261258291810190614d8a565b60015b61260a57612591615649565b806308c379a014156125cb57506125a6615660565b806125b157506125cd565b8060405162461bcd60e51b81526004016106769190615328565b505b60405162461bcd60e51b815260206004820152601260248201527129a427acaa9d102727afa922a1a2a4ab22a960711b6044820152606401610676565b6001600160e01b0319811663bc197c8160e01b1461103e5760405162461bcd60e51b815260206004820152601760248201527629a427acaa9d1024a72b20a624a22fa922a1a2a4ab22a960491b6044820152606401610676565b60008046600654141561267a5750600554610d47565b7f8b73c3c69bb8fe3d512ecc4cf759cc79239f7b179b0ffacaa9a75d522b39400f6126a430613543565b80516020918201206040805192830193909352918101919091527fc89efdaa54c0f20c7adf612882df0950f5a951637e0307cdcb4c672f298b8bc660608201524660808201523060a082015260c001604051602081830303815290604052805190602001209050905090565b80516020808301516040808501516060860151608087015160a088015160c089015160e08a01516101008b01516101208c01518051908b0120975160009b6127e09b7f5fbc9a24e1532fa5245d1ec2dc5592849ae97ac5475f361b1a1f7a6e2ac9b2fd9b919a919998979695949392019a8b526001600160a01b03998a1660208c015297891660408b015295881660608a0152608089019490945260a0880192909252851660c0870152841660e08601529092166101008401526101208301919091526101408201526101600190565b604051602081830303815290604052805190602001209050919050565b60408701516000906001600160a01b031630146128565760405162461bcd60e51b815260206004820152601760248201527653484f59553a20494e56414c49445f45584348414e474560481b6044820152606401610676565b6000851161289e5760405162461bcd60e51b815260206004820152601560248201527414d213d6554e881253959053125117d05353d55395605a1b6044820152606401610676565b6000878152600f602052604090205460808901516128bc87836154d2565b11156128fc5760405162461bcd60e51b815260206004820152600f60248201526e14d213d6554e8814d3d31117d3d555608a1b6044820152606401610676565b6129068989613598565b612929888a600001518b61014001518c61016001518d610180015161102d610d3d565b6000600d60008a815260200190815260200160002090508960a001516001600160a01b031663610e2d3b8b602001518c61010001518d61012001518c8b8760000160009054906101000a90046001600160a01b0316886002015489600501546040518963ffffffff1660e01b81526004016129ab98979695949392919061524d565b60206040518083038186803b1580156129c357600080fd5b505afa1580156129d7573d6000803e3d6000fd5b505050506040513d601f19601f820116820180604052508101906129fb9190614d03565b15612b4257612a0a87836154d2565b60008a8152600f602052604090205560808a0151612a2888846154d2565b1415612a48576000898152600e60205260409020805460ff191660011790555b60e08a01516001600160a01b038116612a5f575089515b612a7f8b604001518c606001518d60c001518c858d8d611bf591906154fe565b612acb5760405162461bcd60e51b815260206004820152601f60248201527f53484f59553a204641494c45445f544f5f5452414e534645525f46554e4453006044820152606401610676565b6001600160a01b038616612add578895505b612af68b604001518c60000151888e606001518c613ae7565b897f0642c67a22e8657a7126bb3b9fb3f01965503642f884e4c6a1efd8ed24f46c0d8a8a8a8a8a604051612b2e9594939291906152a5565b60405180910390a260019350505050612cd7565b8960a001516001600160a01b031663e9b3838f8b602001518c61010001518d61012001518c8b8760000160009054906101000a90046001600160a01b0316886002015489600501546040518963ffffffff1660e01b8152600401612bad98979695949392919061524d565b60206040518083038186803b158015612bc557600080fd5b505afa158015612bd9573d6000803e3d6000fd5b505050506040513d601f19601f82011682018060405250810190612bfd9190614d03565b15612c9e5780546001600160a01b03808a166001600160a01b031992831617835560018301899055600283018890556003830180548883169084161790556004830180549187169190921617905542600582015560405189907f4055f76fe1f351fec66b9ba790ddbdc29eb45c038163a6b1327277441a8c65f190612c8b908b908b908b908b908b906152a5565b60405180910390a2600092505050612cd7565b60405162461bcd60e51b815260206004820152600e60248201526d53484f59553a204641494c55524560901b6044820152606401610676565b979650505050505050565b60405161190160f01b60208201526022810182905260428101879052600090606201604051602081830303815290604052805190602001209050612d26863b151590565b15612e3657604080516020810186905280820185905260f887901b6001600160f81b0319166060820152815160418183030181526061820192839052630b135d3f60e11b9092526001600160a01b03881691631626ba7e91612d8c91859160650161530f565b60206040518083038186803b158015612da457600080fd5b505afa158015612db8573d6000803e3d6000fd5b505050506040513d601f19601f82011682018060405250810190612ddc9190614d8a565b6001600160e01b031916631626ba7e60e01b14612e315760405162461bcd60e51b815260206004820152601360248201527214d213d6554e8815539055551213d492569151606a1b6044820152606401610676565b61103e565b856001600160a01b0316612e4c82878787613d12565b6001600160a01b03161461103e5760405162461bcd60e51b815260206004820152601360248201527214d213d6554e8815539055551213d492569151606a1b6044820152606401610676565b816001600160a01b0316836001600160a01b03161415612eef5760405162461bcd60e51b815260206004820152601260248201527114d213d6554e881393d517d0531313d5d15160721b6044820152606401610676565b6001600160a01b03838116600081815260026020908152604080832094871680845294825291829020805460ff191686151590811790915591519182527f17307eab39ab6107e8899845ad3d59bd9653f200f220920489ca2b5937696c31910160405180910390a3505050565b601054600160a81b900460ff9081161415612fc45760105460ff9081169082161115612fbf5760405162461bcd60e51b815260206004820152601260248201527153484f59553a20494e56414c49445f46454560701b6044820152606401610676565b613018565b60105460ff600160a81b9091048116908216106130185760405162461bcd60e51b815260206004820152601260248201527153484f59553a20494e56414c49445f46454560701b6044820152606401610676565b6010805460ff60a81b1916600160a81b60ff8416908102919091179091556040519081527fd9ac3bc8ad92267d0b101786ddb4d37746ed1e3ee77637846294edf17dd9eb8a90602001610a94565b6001600160a01b0381166130bc5760405162461bcd60e51b815260206004820152601c60248201527f53484f59553a20494e56414c49445f4645455f524543495049454e54000000006044820152606401610676565b60108054610100600160a81b0319166101006001600160a01b038416908102919091179091556040519081527f1ce5f25607cb1a4fa6c947b55700213a9ed6a1d7ef1cf1d02ab467efd02a993e90602001610a94565b6001600160a01b0384166131385760405162461bcd60e51b8152600401610676906153dd565b3361314981600087611def88613b29565b60008481526001602090815260408083206001600160a01b03891684529091528120805485929061317b9084906154d2565b909155505060408051858152602081018590526001600160a01b03808816926000929185169160008051602061573a833981519152910160405180910390a4611df881600087878787613c1e565b6001600160a01b0383166131ef5760405162461bcd60e51b8152600401610676906153dd565b80518251146132105760405162461bcd60e51b81526004016106769061540d565b6040805160208101909152600090523360005b835181101561331157600084828151811061324e57634e487b7160e01b600052603260045260246000fd5b60200260200101519050600084838151811061327a57634e487b7160e01b600052603260045260246000fd5b60209081029190910181015160008481526001835260408082206001600160a01b038c1683529093529190912054909150818110156132cb5760405162461bcd60e51b815260040161067690615444565b6132d5828261551d565b60009384526001602090815260408086206001600160a01b038c1687529091529093209290925550819050613309816155d8565b915050613223565b5060006001600160a01b0316846001600160a01b0316826001600160a01b03167f4a39dc06d4c0dbc64b70af90fd698a233a518aa5d07e595d983b8c0526c8f7fb86866040516133629291906152ea565b60405180910390a450505050565b80516020808301516040808501516060860151608087015160a088015193516000976127e0977fb98e1dc48988064e6dfb813618609d7da80a8841e5f277039788ac4b50d497b297919691959493920196875260208701959095526001600160a01b03938416604087015260608601929092526080850152811660a08401521660c082015260e00190565b600054610100900460ff1680613414575060005460ff16155b6134305760405162461bcd60e51b81526004016106769061538f565b600054610100900460ff16158015613452576000805461ffff19166101011790555b61345a613ea5565b8015611206576000805461ff001916905550565b600054610100900460ff1680613487575060005460ff16155b6134a35760405162461bcd60e51b81526004016106769061538f565b600054610100900460ff161580156134c5576000805461ffff19166101011790555b6134ce82613f04565b8015611479576000805461ff00191690555050565b600054610100900460ff16806134fc575060005460ff16155b6135185760405162461bcd60e51b81526004016106769061538f565b600054610100900460ff1615801561353a576000805461ffff19166101011790555b6134ce82613f64565b60608161356b57506040805180820190915260048152630307830360e41b60208201526106cf565b8160005b811561358e578061357f816155d8565b915050600882901c915061356f565b6120ad84826120b5565b6000818152600e602052604090205460ff16156135f75760405162461bcd60e51b815260206004820152601b60248201527f53484f59553a2043414e43454c4c45445f4f525f434c41494d454400000000006044820152606401610676565b81516001600160a01b03166136455760405162461bcd60e51b815260206004820152601460248201527329a427acaa9d1024a72b20a624a22fa6a0a5a2a960611b6044820152606401610676565b60408201516001600160a01b03166136945760405162461bcd60e51b815260206004820152601260248201527114d213d6554e881253959053125117d3919560721b6044820152606401610676565b60008260800151116136e05760405162461bcd60e51b815260206004820152601560248201527414d213d6554e881253959053125117d05353d55395605a1b6044820152606401610676565b60a08201516001600160a01b031661373a5760405162461bcd60e51b815260206004820152601760248201527f53484f59553a20494e56414c49445f53545241544547590000000000000000006044820152606401610676565b60c08201516001600160a01b03166137945760405162461bcd60e51b815260206004820152601760248201527f53484f59553a20494e56414c49445f43555252454e43590000000000000000006044820152606401610676565b6137ab60075461010090046001600160a01b031690565b60a0830151604051632666e89f60e21b81526001600160a01b03918216600482015291169063999ba27c9060240160206040518083038186803b1580156137f157600080fd5b505afa158015613805573d6000803e3d6000fd5b505050506040513d601f19601f820116820180604052508101906138299190614d03565b6114795760405162461bcd60e51b815260206004820152601f60248201527f53484f59553a2053545241544547595f4e4f545f57484954454c4953544544006044820152606401610676565b600061388385853085614019565b61388f57506000613add565b60006138a860075461010090046001600160a01b031690565b90506000839050600080836001600160a01b031663aec0b5436040518163ffffffff1660e01b8152600401604080518083038186803b1580156138ea57600080fd5b505afa1580156138fe573d6000803e3d6000fd5b505050506040513d601f19601f820116820180604052508101906139229190614b85565b909250905060006103e861393960ff8416896154fe565b61394391906154ea565b90506139596001600160a01b038b1684836140eb565b613963818561551d565b9350505050600080836001600160a01b031663c2b11e186040518163ffffffff1660e01b8152600401604080518083038186803b1580156139a357600080fd5b505afa1580156139b7573d6000803e3d6000fd5b505050506040513d601f19601f820116820180604052508101906139db9190614b85565b909250905060006103e86139f260ff8416896154fe565b6139fc91906154ea565b9050613a126001600160a01b038b1684836140eb565b613a1c818561551d565b60405163152a902d60e11b8152600481018d9052602481018990529094506001600160a01b038d169350632a55205a92506044019050604080518083038186803b158015613a6957600080fd5b505afa925050508015613a99575060408051601f3d908101601f19168201909252613a9691810190614b04565b60015b613aa257613ac2565b8015613abf57613ab2818461551d565b9250613abf898383614142565b50505b613ad66001600160a01b03881686836140eb565b6001925050505b9695505050505050565b613af384848484613b82565b60408051838152602081018390526001600160a01b038086169290871691339160008051602061573a8339815191529101612384565b60408051600180825281830190925260609160009190602080830190803683370190505090508281600081518110613b7157634e487b7160e01b600052603260045260246000fd5b602090810291909101015292915050565b83613b956004546001600160a01b031690565b6001600160a01b0316336001600160a01b03161480613bc157506004546001600160a01b038281169116145b80613bd65750601054600160b81b900460ff16155b613c125760405162461bcd60e51b815260206004820152600d60248201526c14d213d6554e881313d0d2d151609a1b6044820152606401610676565b611df8858585856141d1565b6001600160a01b0384163b15610d355760405163f23a6e6160e01b81526001600160a01b0385169063f23a6e6190613c629089908990889088908890600401615213565b602060405180830381600087803b158015613c7c57600080fd5b505af1925050508015613cac575060408051601f3d908101601f19168201909252613ca991810190614d8a565b60015b613cb857612591615649565b6001600160e01b0319811663f23a6e6160e01b1461103e5760405162461bcd60e51b815260206004820152601760248201527629a427acaa9d1024a72b20a624a22fa922a1a2a4ab22a960491b6044820152606401610676565b60007f7fffffffffffffffffffffffffffffff5d576e7357a4501ddfe92f46681b20a0821115613d845760405162461bcd60e51b815260206004820181905260248201527f53484f59553a20494e56414c49445f5349474e41545552455f535f56414c55456044820152606401610676565b8360ff16601b1480613d9957508360ff16601c145b613de55760405162461bcd60e51b815260206004820181905260248201527f53484f59553a20494e56414c49445f5349474e41545552455f565f56414c55456044820152606401610676565b6040805160008082526020820180845288905260ff871692820192909252606081018590526080810184905260019060a0016020604051602081039080840390855afa158015613e39573d6000803e3d6000fd5b5050604051601f1901519150506001600160a01b038116613e9c5760405162461bcd60e51b815260206004820152601860248201527f53484f59553a20494e56414c49445f5349474e415455524500000000000000006044820152606401610676565b95945050505050565b600054610100900460ff1680613ebe575060005460ff16155b613eda5760405162461bcd60e51b81526004016106769061538f565b600054610100900460ff16158015613efc576000805461ffff19166101011790555b61345a614268565b600054610100900460ff1680613f1d575060005460ff16155b613f395760405162461bcd60e51b81526004016106769061538f565b600054610100900460ff16158015613f5b576000805461ffff19166101011790555b6134ce826142dd565b600054610100900460ff1680613f7d575060005460ff16155b613f995760405162461bcd60e51b81526004016106769061538f565b600054610100900460ff16158015613fbb576000805461ffff19166101011790555b600480546001600160a01b0319166001600160a01b0384169081179091556040516000907f8be0079c531659141344cd1fd0a4f28419497f9722a3daafe3b4186f6b6457e0908290a38015611479576000805461ff00191690555050565b604080516001600160a01b0385811660248301528481166044830152606480830185905283518084039091018152608490920183526020820180516001600160e01b03166323b872dd60e01b1790529151600092839283929189169161407f91906150f8565b6000604051808303816000865af19150503d80600081146140bc576040519150601f19603f3d011682016040523d82523d6000602084013e6140c1565b606091505b5091509150818015612cd7575080511580612cd7575080806020019051810190612cd79190614d03565b604080516001600160a01b038416602482015260448082018490528251808303909101815260649091019091526020810180516001600160e01b031663a9059cbb60e01b17905261413d9084906142f0565b505050565b6141566001600160a01b03841683836140eb565b813b1561413d57816001600160a01b031663fff6cae96040518163ffffffff1660e01b8152600401602060405180830381600087803b15801561419857600080fd5b505af19250505080156141c8575060408051601f3d908101601f191682019092526141c591810190614fb6565b60015b6109d35761413d565b60008281526001602090815260408083206001600160a01b0388168452909152902054818110156142145760405162461bcd60e51b815260040161067690615444565b61421e828261551d565b60008481526001602090815260408083206001600160a01b038a8116855292528083209390935586168152908120805484929061425c9084906154d2565b90915550505050505050565b600054610100900460ff1680614281575060005460ff16155b61429d5760405162461bcd60e51b81526004016106769061538f565b600054610100900460ff161580156142bf576000805461ffff19166101011790555b600b805460ff191690558015611206576000805461ff001916905550565b80516114799060039060208401906144bd565b6000614345826040518060400160405280602081526020017f5361666545524332303a206c6f772d6c6576656c2063616c6c206661696c6564815250856001600160a01b03166143c29092919063ffffffff16565b80519091501561413d57808060200190518101906143639190614d03565b61413d5760405162461bcd60e51b815260206004820152602a60248201527f5361666545524332303a204552433230206f7065726174696f6e20646964206e6044820152691bdd081cdd58d8d9595960b21b6064820152608401610676565b60606120ad848460008585843b61441b5760405162461bcd60e51b815260206004820152601d60248201527f416464726573733a2063616c6c20746f206e6f6e2d636f6e74726163740000006044820152606401610676565b600080866001600160a01b0316858760405161443791906150f8565b60006040518083038185875af1925050503d8060008114614474576040519150601f19603f3d011682016040523d82523d6000602084013e614479565b606091505b5091509150612cd78282866060831561449357508161198f565b8251156144a35782518084602001fd5b8160405162461bcd60e51b81526004016106769190615328565b8280546144c990615577565b90600052602060002090601f0160209004810192826144eb5760008555614531565b82601f1061450457805160ff1916838001178555614531565b82800160010185558215614531579182015b82811115614531578251825591602001919060010190614516565b5061453d929150614541565b5090565b5b8082111561453d5760008155600101614542565b80356106cf816156f1565b60008083601f840112614572578182fd5b5081356001600160401b03811115614588578182fd5b6020830191508360208260051b8501011115610af857600080fd5b600082601f8301126145b3578081fd5b813560206145c082615488565b6040516145cd82826155ac565b8381528281019150858301600585901b870184018810156145ec578586fd5b855b8581101561460a578135845292840192908401906001016145ee565b5090979650505050505050565b600082601f830112614627578081fd5b8135614632816154ab565b60405161463f82826155ac565b828152856020848701011115614653578384fd5b82602086016020830137918201602001929092529392505050565b60006101a0808385031215614681578182fd5b61468a8161547b565b91505061469682614556565b81526146a460208301614556565b60208201526146b560408301614556565b604082015260608201356060820152608082013560808201526146da60a08301614556565b60a08201526146eb60c08301614556565b60c08201526146fc60e08301614556565b60e08201526101008281013590820152610120808301356001600160401b0381111561472757600080fd5b61473385828601614617565b828401525050610140614747818401614769565b9082015261016082810135908201526101809182013591810191909152919050565b80356106cf8161572a565b600060208284031215614785578081fd5b813561198f816156f1565b600080604083850312156147a2578081fd5b82356147ad816156f1565b915060208301356147bd816156f1565b809150509250929050565b600080600080600060a086880312156147df578081fd5b85356147ea816156f1565b945060208601356147fa816156f1565b935060408601356001600160401b0380821115614815578283fd5b61482189838a016145a3565b94506060880135915080821115614836578283fd5b61484289838a016145a3565b93506080880135915080821115614857578283fd5b5061486488828901614617565b9150509295509295909350565b600080600080600060a08688031215614888578283fd5b8535614893816156f1565b945060208601356148a3816156f1565b9350604086013592506060860135915060808601356001600160401b038111156148cb578182fd5b61486488828901614617565b60008060008060008060c087890312156148ef578384fd5b86356148fa816156f1565b9550602087013561490a816156f1565b94506040870135935060608701356149218161572a565b9598949750929560808101359460a0909101359350915050565b600080600080600060a08688031215614952578283fd5b853561495d816156f1565b945060208601356001600160401b0380821115614978578485fd5b61498489838a016145a3565b95506040880135915080821115614999578485fd5b506149a6888289016145a3565b93505060608601356149b7816156f1565b915060808601356149c78161572a565b809150509295509295909350565b600080600080608085870312156149ea578182fd5b84356149f5816156f1565b935060208501356001600160401b0380821115614a10578384fd5b614a1c888389016145a3565b94506040870135915080821115614a31578384fd5b614a3d888389016145a3565b93506060870135915080821115614a52578283fd5b50614a5f87828801614617565b91505092959194509250565b60008060408385031215614a7d578182fd5b8235614a88816156f1565b915060208301356147bd81615706565b600080600060608486031215614aac578081fd5b8335614ab7816156f1565b9250602084013591506040840135614ace816156f1565b809150509250925092565b60008060408385031215614aeb578182fd5b8235614af6816156f1565b946020939093013593505050565b60008060408385031215614b16578182fd5b8251614b21816156f1565b6020939093015192949293505050565b60008060008060808587031215614b46578182fd5b8435614b51816156f1565b9350602085013592506040850135915060608501356001600160401b03811115614b79578182fd5b614a5f87828801614617565b60008060408385031215614b97578182fd5b8251614ba2816156f1565b60208401519092506147bd8161572a565b60008060408385031215614bc5578182fd5b82356001600160401b0380821115614bdb578384fd5b818501915085601f830112614bee578384fd5b81356020614bfb82615488565b604051614c0882826155ac565b8381528281019150858301600585901b870184018b1015614c27578889fd5b8896505b84871015614c52578035614c3e816156f1565b835260019690960195918301918301614c2b565b5096505086013592505080821115614c68578283fd5b50614c75858286016145a3565b9150509250929050565b60008060008060408587031215614c94578182fd5b84356001600160401b0380821115614caa578384fd5b614cb688838901614561565b90965094506020870135915080821115614cce578384fd5b50614cdb87828801614561565b95989497509550505050565b600060208284031215614cf8578081fd5b813561198f81615706565b600060208284031215614d14578081fd5b815161198f81615706565b600060208284031215614d30578081fd5b5035919050565b600080600060608486031215614d4b578081fd5b833592506020840135614d5d816156f1565b929592945050506040919091013590565b600060208284031215614d7f578081fd5b813561198f81615714565b600060208284031215614d9b578081fd5b815161198f81615714565b600060208284031215614db7578081fd5b81356001600160401b03811115614dcc578182fd5b6120ad84828501614617565b600060208284031215614de9578081fd5b81516001600160401b03811115614dfe578182fd5b8201601f81018413614e0e578182fd5b8051614e19816154ab565b604051614e2682826155ac565b828152866020848601011115614e3a578485fd5b613add836020830160208701615534565b600060208284031215614e5c578081fd5b81356001600160401b03811115614e71578182fd5b6120ad8482850161466e565b600080828403610140811215614e91578283fd5b83356001600160401b03811115614ea6578384fd5b614eb28682870161466e565b93505061012080601f1983011215614ec8578283fd5b614ed18161547b565b915060208501358252614ee660408601614556565b60208301526060850135604083015260808501356060830152614f0b60a08601614556565b6080830152614f1c60c08601614556565b60a0830152614f2d60e08601614769565b60c08301526101008581013560e0840152940135938101939093525092909150565b600080600080600060a08688031215614f66578283fd5b85356001600160401b03811115614f7b578384fd5b614f878882890161466e565b95505060208601359350604086013592506060860135614fa6816156f1565b915060808601356149c7816156f1565b600060208284031215614fc7578081fd5b5051919050565b60008060408385031215614fe0578182fd5b8235915060208301356001600160401b03811115614ffc578182fd5b614c7585828601614617565b6000806040838503121561501a578182fd5b50508035926020909101359150565b6000806000806080858703121561503e578182fd5b5050823594602084013594506040840135936060013592509050565b60006020828403121561506b578081fd5b813561198f8161572a565b600060208284031215615087578081fd5b815161198f8161572a565b6000815180845260208085019450808401835b838110156150c1578151875295820195908201906001016150a5565b509495945050505050565b600081518084526150e4816020860160208601615534565b601f01601f19169290920160200192915050565b6000825161510a818460208701615534565b9190910192915050565b60008351615126818460208801615534565b83519083019061513a818360208801615534565b64173539b7b760d91b9101908152600501949350505050565b60008451615165818460208901615534565b845190830190615179818360208901615534565b602f60f81b91019081528351615196816001840160208801615534565b64173539b7b760d91b6001929091019182015260060195945050505050565b6001600160a01b0386811682528516602082015260a0604082018190526000906151e190830186615092565b82810360608401526151f38186615092565b9050828103608084015261520781856150cc565b98975050505050505050565b6001600160a01b03868116825285166020820152604081018490526060810183905260a060808201819052600090612cd7908301846150cc565b6001600160a01b038981168252602082018990526101006040830181905260009161527a8483018b6150cc565b9881166060850152608084019790975250509290931660a083015260c082015260e001529392505050565b6001600160a01b0395861681526020810194909452604084019290925283166060830152909116608082015260a00190565b60006020825261198f6020830184615092565b6000604082526152fd6040830185615092565b8281036020840152613e9c8185615092565b6000838252604060208301526120ad60408301846150cc565b60006020825261198f60208301846150cc565b60208082526010908201526f29a427acaa9d102327a92124a22222a760811b604082015260600190565b60208082526010908201526f14d213d6554e8814915153951490539560821b604082015260600190565b6020808252602e908201527f496e697469616c697a61626c653a20636f6e747261637420697320616c72656160408201526d191e481a5b9a5d1a585b1a5e995960921b606082015260800190565b60208082526016908201527553484f59553a20494e56414c49445f4144445245535360501b604082015260600190565b60208082526018908201527f53484f59553a204c454e475448535f4e4f545f455155414c0000000000000000604082015260600190565b6020808252601b908201527f53484f59553a20494e53554646494349454e545f42414c414e43450000000000604082015260600190565b6040516106cf82826155ac565b60006001600160401b038211156154a1576154a1615633565b5060051b60200190565b60006001600160401b038211156154c4576154c4615633565b50601f01601f191660200190565b600082198211156154e5576154e5615607565b500190565b6000826154f9576154f961561d565b500490565b600081600019048311821515161561551857615518615607565b500290565b60008282101561552f5761552f615607565b500390565b60005b8381101561554f578181015183820152602001615537565b838111156109d35750506000910152565b60008161556f5761556f615607565b506000190190565b600181811c9082168061558b57607f821691505b6020821081141561092057634e487b7160e01b600052602260045260246000fd5b601f8201601f191681016001600160401b03811182821017156155d1576155d1615633565b6040525050565b60006000198214156155ec576155ec615607565b5060010190565b6000826156025761560261561d565b500690565b634e487b7160e01b600052601160045260246000fd5b634e487b7160e01b600052601260045260246000fd5b634e487b7160e01b600052604160045260246000fd5b600060033d1115610d4a57600481823e5160e01c90565b600060443d101561567057610d4a565b6040516003193d81016004833e81513d6001600160401b0381602484011181841117156156a1575050505050610d4a565b82850191508151818111156156bb57505050505050610d4a565b843d87010160208285010111156156d757505050505050610d4a565b6156e6602082860101876155ac565b509094505050505090565b6001600160a01b038116811461120657600080fd5b801515811461120657600080fd5b6001600160e01b03198116811461120657600080fd5b60ff8116811461120657600080fdfec3d58168c5ae7397731d063d5bbf3d657854427343f4c083240f7aacaa2d0f62a2646970667358221220ef1637e18024cc2c354247e8791dcbca558640c2a210206574cf11094960e5fc64736f6c63430008030033",
  "devdoc": {
    "kind": "dev",
    "methods": {
      "balanceOf(address,uint256)": {
        "details": "See {IERC1155-balanceOf}. Requirements: - `account` cannot be the zero address."
      },
      "balanceOfBatch(address[],uint256[])": {
        "details": "See {IERC1155-balanceOfBatch}. Requirements: - `accounts` and `ids` must have the same length."
      },
      "isApprovedForAll(address,address)": {
        "details": "See {IERC1155-isApprovedForAll}."
      },
      "owner()": {
        "details": "Returns the address of the current owner."
      },
      "renounceOwnership()": {
        "details": "Leaves the contract without owner. It will not be possible to call `onlyOwner` functions anymore. Can only be called by the current owner. NOTE: Renouncing ownership will leave the contract without an owner, thereby removing any functionality that is only available to the owner."
      },
      "safeBatchTransferFrom(address,address,uint256[],uint256[],bytes)": {
        "details": "See {IERC1155-safeBatchTransferFrom}."
      },
      "safeTransferFrom(address,address,uint256,uint256,bytes)": {
        "details": "See {IERC1155-safeTransferFrom}."
      },
      "setApprovalForAll(address,bool)": {
        "details": "See {IERC1155-setApprovalForAll}."
      },
      "transferOwnership(address)": {
        "details": "Transfers ownership of the contract to a new account (`newOwner`). Can only be called by the current owner."
      }
    },
    "version": 1
  },
  "userdoc": {
    "kind": "user",
    "methods": {},
    "version": 1
  },
  "storageLayout": {
    "storage": [
      {
        "astId": 115,
        "contract": "contracts/NFT1155V1.sol:NFT1155V1",
        "label": "_initialized",
        "offset": 0,
        "slot": "0",
        "type": "t_bool"
      },
      {
        "astId": 118,
        "contract": "contracts/NFT1155V1.sol:NFT1155V1",
        "label": "_initializing",
        "offset": 1,
        "slot": "0",
        "type": "t_bool"
      },
      {
        "astId": 9729,
        "contract": "contracts/NFT1155V1.sol:NFT1155V1",
        "label": "_balances",
        "offset": 0,
        "slot": "1",
        "type": "t_mapping(t_uint256,t_mapping(t_address,t_uint256))"
      },
      {
        "astId": 9735,
        "contract": "contracts/NFT1155V1.sol:NFT1155V1",
        "label": "_operatorApprovals",
        "offset": 0,
        "slot": "2",
        "type": "t_mapping(t_address,t_mapping(t_address,t_bool))"
      },
      {
        "astId": 9737,
        "contract": "contracts/NFT1155V1.sol:NFT1155V1",
        "label": "_uri",
        "offset": 0,
        "slot": "3",
        "type": "t_string_storage"
      },
      {
        "astId": 12279,
        "contract": "contracts/NFT1155V1.sol:NFT1155V1",
        "label": "_owner",
        "offset": 0,
        "slot": "4",
        "type": "t_address"
      },
      {
        "astId": 8219,
        "contract": "contracts/NFT1155V1.sol:NFT1155V1",
        "label": "_DOMAIN_SEPARATOR",
        "offset": 0,
        "slot": "5",
        "type": "t_bytes32"
      },
      {
        "astId": 8221,
        "contract": "contracts/NFT1155V1.sol:NFT1155V1",
        "label": "_CACHED_CHAIN_ID",
        "offset": 0,
        "slot": "6",
        "type": "t_uint256"
      },
      {
        "astId": 8223,
        "contract": "contracts/NFT1155V1.sol:NFT1155V1",
        "label": "MAX_ROYALTY_FEE",
        "offset": 0,
        "slot": "7",
        "type": "t_uint8"
      },
      {
        "astId": 8225,
        "contract": "contracts/NFT1155V1.sol:NFT1155V1",
        "label": "_factory",
        "offset": 1,
        "slot": "7",
        "type": "t_address"
      },
      {
        "astId": 8227,
        "contract": "contracts/NFT1155V1.sol:NFT1155V1",
        "label": "_baseURI",
        "offset": 0,
        "slot": "8",
        "type": "t_string_storage"
      },
      {
        "astId": 8231,
        "contract": "contracts/NFT1155V1.sol:NFT1155V1",
        "label": "_uris",
        "offset": 0,
        "slot": "9",
        "type": "t_mapping(t_uint256,t_string_storage)"
      },
      {
        "astId": 8236,
        "contract": "contracts/NFT1155V1.sol:NFT1155V1",
        "label": "nonces",
        "offset": 0,
        "slot": "10",
        "type": "t_mapping(t_address,t_uint256)"
      },
      {
        "astId": 12459,
        "contract": "contracts/NFT1155V1.sol:NFT1155V1",
        "label": "_status",
        "offset": 0,
        "slot": "11",
        "type": "t_bool"
      },
      {
        "astId": 7093,
        "contract": "contracts/NFT1155V1.sol:NFT1155V1",
        "label": "_bidHashes",
        "offset": 0,
        "slot": "12",
        "type": "t_mapping(t_address,t_mapping(t_bytes32,t_mapping(t_address,t_bytes32)))"
      },
      {
        "astId": 7099,
        "contract": "contracts/NFT1155V1.sol:NFT1155V1",
        "label": "bestBid",
        "offset": 0,
        "slot": "13",
        "type": "t_mapping(t_bytes32,t_struct(BestBid)7085_storage)"
      },
      {
        "astId": 7104,
        "contract": "contracts/NFT1155V1.sol:NFT1155V1",
        "label": "isCancelledOrClaimed",
        "offset": 0,
        "slot": "14",
        "type": "t_mapping(t_bytes32,t_bool)"
      },
      {
        "astId": 7109,
        "contract": "contracts/NFT1155V1.sol:NFT1155V1",
        "label": "amountFilled",
        "offset": 0,
        "slot": "15",
        "type": "t_mapping(t_bytes32,t_uint256)"
      },
      {
        "astId": 4400,
        "contract": "contracts/NFT1155V1.sol:NFT1155V1",
        "label": "_MAX_ROYALTY_FEE",
        "offset": 0,
        "slot": "16",
        "type": "t_uint8"
      },
      {
        "astId": 4402,
        "contract": "contracts/NFT1155V1.sol:NFT1155V1",
        "label": "_royaltyFeeRecipient",
        "offset": 1,
        "slot": "16",
        "type": "t_address"
      },
      {
        "astId": 4404,
        "contract": "contracts/NFT1155V1.sol:NFT1155V1",
        "label": "_royaltyFee",
        "offset": 21,
        "slot": "16",
        "type": "t_uint8"
      },
      {
        "astId": 12211,
        "contract": "contracts/NFT1155V1.sol:NFT1155V1",
        "label": "_wasLocked",
        "offset": 22,
        "slot": "16",
        "type": "t_bool"
      },
      {
        "astId": 12214,
        "contract": "contracts/NFT1155V1.sol:NFT1155V1",
        "label": "locked",
        "offset": 23,
        "slot": "16",
        "type": "t_bool"
      }
    ],
    "types": {
      "t_address": {
        "encoding": "inplace",
        "label": "address",
        "numberOfBytes": "20"
      },
      "t_bool": {
        "encoding": "inplace",
        "label": "bool",
        "numberOfBytes": "1"
      },
      "t_bytes32": {
        "encoding": "inplace",
        "label": "bytes32",
        "numberOfBytes": "32"
      },
      "t_mapping(t_address,t_bool)": {
        "encoding": "mapping",
        "key": "t_address",
        "label": "mapping(address => bool)",
        "numberOfBytes": "32",
        "value": "t_bool"
      },
      "t_mapping(t_address,t_bytes32)": {
        "encoding": "mapping",
        "key": "t_address",
        "label": "mapping(address => bytes32)",
        "numberOfBytes": "32",
        "value": "t_bytes32"
      },
      "t_mapping(t_address,t_mapping(t_address,t_bool))": {
        "encoding": "mapping",
        "key": "t_address",
        "label": "mapping(address => mapping(address => bool))",
        "numberOfBytes": "32",
        "value": "t_mapping(t_address,t_bool)"
      },
      "t_mapping(t_address,t_mapping(t_bytes32,t_mapping(t_address,t_bytes32)))": {
        "encoding": "mapping",
        "key": "t_address",
        "label": "mapping(address => mapping(bytes32 => mapping(address => bytes32)))",
        "numberOfBytes": "32",
        "value": "t_mapping(t_bytes32,t_mapping(t_address,t_bytes32))"
      },
      "t_mapping(t_address,t_uint256)": {
        "encoding": "mapping",
        "key": "t_address",
        "label": "mapping(address => uint256)",
        "numberOfBytes": "32",
        "value": "t_uint256"
      },
      "t_mapping(t_bytes32,t_bool)": {
        "encoding": "mapping",
        "key": "t_bytes32",
        "label": "mapping(bytes32 => bool)",
        "numberOfBytes": "32",
        "value": "t_bool"
      },
      "t_mapping(t_bytes32,t_mapping(t_address,t_bytes32))": {
        "encoding": "mapping",
        "key": "t_bytes32",
        "label": "mapping(bytes32 => mapping(address => bytes32))",
        "numberOfBytes": "32",
        "value": "t_mapping(t_address,t_bytes32)"
      },
      "t_mapping(t_bytes32,t_struct(BestBid)7085_storage)": {
        "encoding": "mapping",
        "key": "t_bytes32",
        "label": "mapping(bytes32 => struct BaseExchange.BestBid)",
        "numberOfBytes": "32",
        "value": "t_struct(BestBid)7085_storage"
      },
      "t_mapping(t_bytes32,t_uint256)": {
        "encoding": "mapping",
        "key": "t_bytes32",
        "label": "mapping(bytes32 => uint256)",
        "numberOfBytes": "32",
        "value": "t_uint256"
      },
      "t_mapping(t_uint256,t_mapping(t_address,t_uint256))": {
        "encoding": "mapping",
        "key": "t_uint256",
        "label": "mapping(uint256 => mapping(address => uint256))",
        "numberOfBytes": "32",
        "value": "t_mapping(t_address,t_uint256)"
      },
      "t_mapping(t_uint256,t_string_storage)": {
        "encoding": "mapping",
        "key": "t_uint256",
        "label": "mapping(uint256 => string)",
        "numberOfBytes": "32",
        "value": "t_string_storage"
      },
      "t_string_storage": {
        "encoding": "bytes",
        "label": "string",
        "numberOfBytes": "32"
      },
      "t_struct(BestBid)7085_storage": {
        "encoding": "inplace",
        "label": "struct BaseExchange.BestBid",
        "members": [
          {
            "astId": 7074,
            "contract": "contracts/NFT1155V1.sol:NFT1155V1",
            "label": "bidder",
            "offset": 0,
            "slot": "0",
            "type": "t_address"
          },
          {
            "astId": 7076,
            "contract": "contracts/NFT1155V1.sol:NFT1155V1",
            "label": "amount",
            "offset": 0,
            "slot": "1",
            "type": "t_uint256"
          },
          {
            "astId": 7078,
            "contract": "contracts/NFT1155V1.sol:NFT1155V1",
            "label": "price",
            "offset": 0,
            "slot": "2",
            "type": "t_uint256"
          },
          {
            "astId": 7080,
            "contract": "contracts/NFT1155V1.sol:NFT1155V1",
            "label": "recipient",
            "offset": 0,
            "slot": "3",
            "type": "t_address"
          },
          {
            "astId": 7082,
            "contract": "contracts/NFT1155V1.sol:NFT1155V1",
            "label": "referrer",
            "offset": 0,
            "slot": "4",
            "type": "t_address"
          },
          {
            "astId": 7084,
            "contract": "contracts/NFT1155V1.sol:NFT1155V1",
            "label": "timestamp",
            "offset": 0,
            "slot": "5",
            "type": "t_uint256"
          }
        ],
        "numberOfBytes": "192"
      },
      "t_uint256": {
        "encoding": "inplace",
        "label": "uint256",
        "numberOfBytes": "32"
      },
      "t_uint8": {
        "encoding": "inplace",
        "label": "uint8",
        "numberOfBytes": "1"
      }
    }
  }
}