{
  "address": "0x68B1D87F95878fE05B998F19b66F4baba5De1aed",
  "abi": [
    {
      "inputs": [],
      "stateMutability": "nonpayable",
      "type": "constructor"
    },
    {
      "anonymous": false,
      "inputs": [
        {
          "indexed": true,
          "internalType": "address",
          "name": "owner",
          "type": "address"
        },
        {
          "indexed": false,
          "internalType": "string",
          "name": "title",
          "type": "string"
        },
        {
          "indexed": false,
          "internalType": "address[]",
          "name": "payees",
          "type": "address[]"
        },
        {
          "indexed": false,
          "internalType": "uint256[]",
          "name": "shares",
          "type": "uint256[]"
        },
        {
          "indexed": false,
          "internalType": "address",
          "name": "splitter",
          "type": "address"
        }
      ],
      "name": "DeployPaymentSplitter",
      "type": "event"
    },
    {
      "inputs": [
        {
          "internalType": "address",
          "name": "owner",
          "type": "address"
        },
        {
          "internalType": "string",
          "name": "title",
          "type": "string"
        },
        {
          "internalType": "address[]",
          "name": "payees",
          "type": "address[]"
        },
        {
          "internalType": "uint256[]",
          "name": "shares",
          "type": "uint256[]"
        }
      ],
      "name": "deployPaymentSplitter",
      "outputs": [
        {
          "internalType": "address",
          "name": "splitter",
          "type": "address"
        }
      ],
      "stateMutability": "nonpayable",
      "type": "function"
    },
    {
      "inputs": [
        {
          "internalType": "address",
          "name": "query",
          "type": "address"
        }
      ],
      "name": "isPaymentSplitter",
      "outputs": [
        {
          "internalType": "bool",
          "name": "result",
          "type": "bool"
        }
      ],
      "stateMutability": "view",
      "type": "function"
    }
  ],
  "transactionHash": "0xcaa095a360d8a530872669ba0e1c91974ad292caa8da96676fc649a45e049114",
  "args": [],
  "solcInputHash": "f84b7a7b08c8417cbe19bfbc369dbfef",
  "bytecode": "0x608060405234801561001057600080fd5b50600060405161001f90610178565b604051809103906000f08015801561003b573d6000803e3d6000fd5b506040805160018082528183019092529192506000919060208083019080368337019050509050338160008151811061008457634e487b7160e01b600052603260045260246000fd5b6001600160a01b0392909216602092830291909101909101526040805160018082528183019092526000918160200160208202803683370190505090506001816000815181106100e457634e487b7160e01b600052603260045260246000fd5b602090810291909101015260405163049e75cf60e31b81526001600160a01b038416906324f3ae789061011d9085908590600401610185565b600060405180830381600087803b15801561013757600080fd5b505af115801561014b573d6000803e3d6000fd5b5050600080546001600160a01b0319166001600160a01b0396909616959095179094555061021892505050565b610fc0806107fb83390190565b60006060825280606083015260808201602060808185015281865180845260a0860191508288019350845b818110156101d55784516001600160a01b0316835293830193918301916001016101b0565b505084810360408601528551808252908201925081860190845b8181101561020b578251855293830193918301916001016101ef565b5092979650505050505050565b6105d4806102276000396000f3fe608060405234801561001057600080fd5b50600436106100365760003560e01c806328da4a791461003b578063838e970c14610063575b600080fd5b61004e61004936600461032c565b61008e565b60405190151581526020015b60405180910390f35b61007661007136600461034d565b6100ad565b6040516001600160a01b03909116815260200161005a565b600080546100a5906001600160a01b031683610163565b90505b919050565b60008054604051610109916001600160a01b0316906100da908a908a908a908a908a908a906024016104fc565b60408051601f198184030181529190526020810180516001600160e01b031663049e75cf60e31b1790526101c4565b9050876001600160a01b03167f89bac4a62a028c1569fa1634d2c4f9c8f0685844f9f48689be50bfa7fbb7429e888888888888886040516101509796959493929190610545565b60405180910390a2979650505050505050565b6000808360601b905060405169363d3d373d3d3d363d7360b01b815281600a8201526e5af43d82803e903d91602b57fd5bf360881b601e82015260408101602d600082873c600d810151600d83015114815183511416935050505092915050565b6000808360601b9050604051733d602d80600a3d3981f3363d3d373d3d3d363d7360601b81528160148201526e5af43d82803e903d91602b57fd5bf360881b60288201526037816000f09250506000835111156102c4576000826001600160a01b03168460405161023591906104c3565b6000604051808303816000865af19150503d8060008114610272576040519150601f19603f3d011682016040523d82523d6000602084013e610277565b606091505b50509050806102c25760405162461bcd60e51b815260206004820152601360248201527253484f59553a2043414c4c5f4641494c55524560681b604482015260640160405180910390fd5b505b5092915050565b80356001600160a01b03811681146100a857600080fd5b60008083601f8401126102f3578182fd5b50813567ffffffffffffffff81111561030a578182fd5b6020830191508360208260051b850101111561032557600080fd5b9250929050565b60006020828403121561033d578081fd5b610346826102cb565b9392505050565b60008060008060008060006080888a031215610367578283fd5b610370886102cb565b9650602088013567ffffffffffffffff8082111561038c578485fd5b818a0191508a601f83011261039f578485fd5b8135818111156103ad578586fd5b8b60208285010111156103be578586fd5b6020830198508097505060408a01359150808211156103db578485fd5b6103e78b838c016102e2565b909650945060608a01359150808211156103ff578384fd5b5061040c8a828b016102e2565b989b979a50959850939692959293505050565b60008284526020808501945082825b8581101561045a576001600160a01b03610447836102cb565b168752958201959082019060010161042e565b509495945050505050565b81835260006001600160fb1b0383111561047d578081fd5b8260051b80836020870137939093016020019283525090919050565b60008284528282602086013780602084860101526020601f19601f85011685010190509392505050565b60008251815b818110156104e357602081860181015185830152016104c9565b818111156104f15782828501525b509190910192915050565b60006060825261051060608301888a610499565b828103602084015261052381878961041f565b90508281036040840152610538818587610465565b9998505050505050505050565b60006080825261055960808301898b610499565b828103602084015261056c81888a61041f565b90508281036040840152610581818688610465565b91505060018060a01b03831660608301529897505050505050505056fea2646970667358221220091700ef340f71790b521ad4b215bacd473c31847ea5539837db744f21a68dab64736f6c63430008030033608060405234801561001057600080fd5b50610fa0806100206000396000f3fe608060405234801561001057600080fd5b50600436106100885760003560e01c80634a79d50c1161005b5780634a79d50c146100fc57806363037b0c14610111578063ce7c2ac21461013c578063d79779b21461015c57610088565b806324f3ae781461008d5780633a98ef39146100a2578063406072a9146100be57806348b75044146100e9575b600080fd5b6100a061009b366004610d23565b61017c565b005b6100ab60025481565b6040519081526020015b60405180910390f35b6100ab6100cc366004610cd1565b600560209081526000928352604080842090915290825290205481565b6100a06100f7366004610cd1565b610365565b610104610555565b6040516100b59190610e2d565b61012461011f366004610de1565b6105e3565b6040516001600160a01b0390911681526020016100b5565b6100ab61014a366004610cb7565b60046020526000908152604090205481565b6100ab61016a366004610cb7565b60036020526000908152604090205481565b600054610100900460ff1680610195575060005460ff16155b6101fd5760405162461bcd60e51b815260206004820152602e60248201527f496e697469616c697a61626c653a20636f6e747261637420697320616c72656160448201526d191e481a5b9a5d1a585b1a5e995960921b60648201526084015b60405180910390fd5b600054610100900460ff1615801561021f576000805461ffff19166101011790555b83821461026e5760405162461bcd60e51b815260206004820152601860248201527f53484f59553a204c454e475448535f4e4f545f455155414c000000000000000060448201526064016101f4565b836102bb5760405162461bcd60e51b815260206004820152601760248201527f53484f59553a204c454e4754485f544f4f5f53484f525400000000000000000060448201526064016101f4565b6102c760018888610bbd565b5060005b84811015610349576103378686838181106102f657634e487b7160e01b600052603260045260246000fd5b905060200201602081019061030b9190610cb7565b85858481811061032b57634e487b7160e01b600052603260045260246000fd5b9050602002013561060d565b8061034181610f39565b9150506102cb565b50801561035c576000805461ff00191690555b50505050505050565b6001600160a01b0381166000908152600460205260409020546103bd5760405162461bcd60e51b815260206004820152601060248201526f29a427acaa9d102327a92124a22222a760811b60448201526064016101f4565b6001600160a01b03821660008181526003602052604081205490916103e290306107b2565b6103ec9190610e60565b6001600160a01b038085166000908152600560209081526040808320938716835292815282822054600254600490925292822054939450909261042f9085610e98565b6104399190610e78565b6104439190610eb7565b9050806104865760405162461bcd60e51b815260206004820152601160248201527014d213d6554e881393d7d4105653515395607a1b60448201526064016101f4565b6001600160a01b038085166000908152600560209081526040808320938716835292905290812080548392906104bd908490610e60565b90915550506001600160a01b038416600090815260036020526040812080548392906104ea908490610e60565b9091555061050490506001600160a01b0385168483610855565b604080516001600160a01b038087168252851660208201529081018290527f8ac5b3c2902b21b6bbb4d99ec195e28a242cb6a1777804db10b84d91e20064299060600160405180910390a150505050565b6001805461056290610efe565b80601f016020809104026020016040519081016040528092919081815260200182805461058e90610efe565b80156105db5780601f106105b0576101008083540402835291602001916105db565b820191906000526020600020905b8154815290600101906020018083116105be57829003601f168201915b505050505081565b600681815481106105f357600080fd5b6000918252602090912001546001600160a01b0316905081565b6001600160a01b03821661065c5760405162461bcd60e51b815260206004820152601660248201527553484f59553a20494e56414c49445f4144445245535360501b60448201526064016101f4565b600081116106a45760405162461bcd60e51b815260206004820152601560248201527453484f59553a20494e56414c49445f53484152455360581b60448201526064016101f4565b6001600160a01b038216600090815260046020526040902054156107015760405162461bcd60e51b815260206004820152601460248201527314d213d6554e881053149150511657d05111115160621b60448201526064016101f4565b60068054600181019091557ff652222313e28459528d920b65115c16c04f3efc82aaedc97be59f3f377c0d3f0180546001600160a01b0319166001600160a01b0384169081179091556000908152600460205260409020819055600254610769908290610e60565b600255604080516001600160a01b0384168152602081018390527f40c340f65e17194d14ddddb073d3c9f888e3cb52b5aae0c6c7706b4fbc905fac910160405180910390a15050565b60006001600160a01b0383166107d357506001600160a01b0381163161084f565b6040516370a0823160e01b81526001600160a01b0383811660048301528416906370a082319060240160206040518083038186803b15801561081457600080fd5b505afa158015610828573d6000803e3d6000fd5b505050506040513d601f19601f8201168201806040525081019061084c9190610df9565b90505b92915050565b6001600160a01b03831661090c576000826001600160a01b03168260405160006040518083038185875af1925050503d80600081146108b0576040519150601f19603f3d011682016040523d82523d6000602084013e6108b5565b606091505b50509050806109065760405162461bcd60e51b815260206004820152601760248201527f53484f59553a205452414e534645525f4641494c55524500000000000000000060448201526064016101f4565b50610920565b6109206001600160a01b0384168383610925565b505050565b604080516001600160a01b03848116602483015260448083018590528351808403909101815260649092018352602080830180516001600160e01b031663a9059cbb60e01b17905283518085019094528084527f5361666545524332303a206c6f772d6c6576656c2063616c6c206661696c656490840152610920928692916000916109b5918516908490610a32565b80519091501561092057808060200190518101906109d39190610d03565b6109205760405162461bcd60e51b815260206004820152602a60248201527f5361666545524332303a204552433230206f7065726174696f6e20646964206e6044820152691bdd081cdd58d8d9595960b21b60648201526084016101f4565b6060610a418484600085610a4b565b90505b9392505050565b606082471015610aac5760405162461bcd60e51b815260206004820152602660248201527f416464726573733a20696e73756666696369656e742062616c616e636520666f6044820152651c8818d85b1b60d21b60648201526084016101f4565b610ab585610b7a565b610b015760405162461bcd60e51b815260206004820152601d60248201527f416464726573733a2063616c6c20746f206e6f6e2d636f6e747261637400000060448201526064016101f4565b600080866001600160a01b03168587604051610b1d9190610e11565b60006040518083038185875af1925050503d8060008114610b5a576040519150601f19603f3d011682016040523d82523d6000602084013e610b5f565b606091505b5091509150610b6f828286610b84565b979650505050505050565b803b15155b919050565b60608315610b93575081610a44565b825115610ba35782518084602001fd5b8160405162461bcd60e51b81526004016101f49190610e2d565b828054610bc990610efe565b90600052602060002090601f016020900481019282610beb5760008555610c31565b82601f10610c045782800160ff19823516178555610c31565b82800160010185558215610c31579182015b82811115610c31578235825591602001919060010190610c16565b50610c3d929150610c41565b5090565b5b80821115610c3d5760008155600101610c42565b80356001600160a01b0381168114610b7f57600080fd5b60008083601f840112610c7e578182fd5b50813567ffffffffffffffff811115610c95578182fd5b6020830191508360208260051b8501011115610cb057600080fd5b9250929050565b600060208284031215610cc8578081fd5b610a4482610c56565b60008060408385031215610ce3578081fd5b610cec83610c56565b9150610cfa60208401610c56565b90509250929050565b600060208284031215610d14578081fd5b81518015158114610a44578182fd5b60008060008060008060608789031215610d3b578182fd5b863567ffffffffffffffff80821115610d52578384fd5b818901915089601f830112610d65578384fd5b813581811115610d73578485fd5b8a6020828501011115610d84578485fd5b602092830198509650908801359080821115610d9e578384fd5b610daa8a838b01610c6d565b90965094506040890135915080821115610dc2578384fd5b50610dcf89828a01610c6d565b979a9699509497509295939492505050565b600060208284031215610df2578081fd5b5035919050565b600060208284031215610e0a578081fd5b5051919050565b60008251610e23818460208701610ece565b9190910192915050565b6000602082528251806020840152610e4c816040850160208701610ece565b601f01601f19169190910160400192915050565b60008219821115610e7357610e73610f54565b500190565b600082610e9357634e487b7160e01b81526012600452602481fd5b500490565b6000816000190483118215151615610eb257610eb2610f54565b500290565b600082821015610ec957610ec9610f54565b500390565b60005b83811015610ee9578181015183820152602001610ed1565b83811115610ef8576000848401525b50505050565b600181811c90821680610f1257607f821691505b60208210811415610f3357634e487b7160e01b600052602260045260246000fd5b50919050565b6000600019821415610f4d57610f4d610f54565b5060010190565b634e487b7160e01b600052601160045260246000fdfea2646970667358221220aa829c4569fae51669f9493d90841dbe9d96567b43d4a04a765557cf4df60c2d64736f6c63430008030033",
  "devdoc": {
    "kind": "dev",
    "methods": {},
    "version": 1
  },
  "userdoc": {
    "kind": "user",
    "methods": {},
    "version": 1
  },
  "storageLayout": {
    "storage": [
      {
        "astId": 5405,
        "contract": "contracts/PaymentSplitterFactory.sol:PaymentSplitterFactory",
        "label": "_target",
        "offset": 0,
        "slot": "0",
        "type": "t_address"
      }
    ],
    "types": {
      "t_address": {
        "encoding": "inplace",
        "label": "address",
        "numberOfBytes": "20"
      }
    }
  }
}