{
  "address": "0xDc64a140Aa3E981100a9becA4E685f962f0cF6C9",
  "abi": [
    {
      "anonymous": false,
      "inputs": [
        {
          "indexed": true,
          "internalType": "address",
          "name": "owner",
          "type": "address"
        },
        {
          "indexed": true,
          "internalType": "address",
          "name": "spender",
          "type": "address"
        },
        {
          "indexed": false,
          "internalType": "uint256",
          "name": "value",
          "type": "uint256"
        }
      ],
      "name": "Approval",
      "type": "event"
    },
    {
      "anonymous": false,
      "inputs": [
        {
          "indexed": false,
          "internalType": "uint256",
          "name": "amount",
          "type": "uint256"
        },
        {
          "indexed": true,
          "internalType": "uint256",
          "name": "label",
          "type": "uint256"
        },
        {
          "indexed": false,
          "internalType": "bytes32",
          "name": "data",
          "type": "bytes32"
        }
      ],
      "name": "Burn",
      "type": "event"
    },
    {
      "anonymous": false,
      "inputs": [
        {
          "indexed": true,
          "internalType": "address",
          "name": "to",
          "type": "address"
        },
        {
          "indexed": false,
          "internalType": "uint256",
          "name": "amount",
          "type": "uint256"
        }
      ],
      "name": "DividendWithdrawn",
      "type": "event"
    },
    {
      "anonymous": false,
      "inputs": [
        {
          "indexed": true,
          "internalType": "address",
          "name": "previousOwner",
          "type": "address"
        },
        {
          "indexed": true,
          "internalType": "address",
          "name": "newOwner",
          "type": "address"
        }
      ],
      "name": "OwnershipTransferred",
      "type": "event"
    },
    {
      "anonymous": false,
      "inputs": [
        {
          "indexed": false,
          "internalType": "uint256",
          "name": "increased",
          "type": "uint256"
        }
      ],
      "name": "Sync",
      "type": "event"
    },
    {
      "anonymous": false,
      "inputs": [
        {
          "indexed": true,
          "internalType": "address",
          "name": "from",
          "type": "address"
        },
        {
          "indexed": true,
          "internalType": "address",
          "name": "to",
          "type": "address"
        },
        {
          "indexed": false,
          "internalType": "uint256",
          "name": "value",
          "type": "uint256"
        }
      ],
      "name": "Transfer",
      "type": "event"
    },
    {
      "inputs": [],
      "name": "DOMAIN_SEPARATOR",
      "outputs": [
        {
          "internalType": "bytes32",
          "name": "",
          "type": "bytes32"
        }
      ],
      "stateMutability": "view",
      "type": "function"
    },
    {
      "inputs": [],
      "name": "MAGNITUDE",
      "outputs": [
        {
          "internalType": "uint256",
          "name": "",
          "type": "uint256"
        }
      ],
      "stateMutability": "view",
      "type": "function"
    },
    {
      "inputs": [],
      "name": "PERMIT_TYPEHASH",
      "outputs": [
        {
          "internalType": "bytes32",
          "name": "",
          "type": "bytes32"
        }
      ],
      "stateMutability": "view",
      "type": "function"
    },
    {
      "inputs": [
        {
          "internalType": "address",
          "name": "account",
          "type": "address"
        }
      ],
      "name": "accumulativeDividendOf",
      "outputs": [
        {
          "internalType": "uint256",
          "name": "",
          "type": "uint256"
        }
      ],
      "stateMutability": "view",
      "type": "function"
    },
    {
      "inputs": [
        {
          "internalType": "address",
          "name": "owner",
          "type": "address"
        },
        {
          "internalType": "address",
          "name": "spender",
          "type": "address"
        }
      ],
      "name": "allowance",
      "outputs": [
        {
          "internalType": "uint256",
          "name": "",
          "type": "uint256"
        }
      ],
      "stateMutability": "view",
      "type": "function"
    },
    {
      "inputs": [
        {
          "internalType": "address",
          "name": "spender",
          "type": "address"
        },
        {
          "internalType": "uint256",
          "name": "amount",
          "type": "uint256"
        }
      ],
      "name": "approve",
      "outputs": [
        {
          "internalType": "bool",
          "name": "",
          "type": "bool"
        }
      ],
      "stateMutability": "nonpayable",
      "type": "function"
    },
    {
      "inputs": [
        {
          "internalType": "address",
          "name": "account",
          "type": "address"
        }
      ],
      "name": "balanceOf",
      "outputs": [
        {
          "internalType": "uint256",
          "name": "",
          "type": "uint256"
        }
      ],
      "stateMutability": "view",
      "type": "function"
    },
    {
      "inputs": [
        {
          "internalType": "uint256",
          "name": "value",
          "type": "uint256"
        },
        {
          "internalType": "uint256",
          "name": "label",
          "type": "uint256"
        },
        {
          "internalType": "bytes32",
          "name": "data",
          "type": "bytes32"
        }
      ],
      "name": "burn",
      "outputs": [],
      "stateMutability": "nonpayable",
      "type": "function"
    },
    {
      "inputs": [],
      "name": "decimals",
      "outputs": [
        {
          "internalType": "uint8",
          "name": "",
          "type": "uint8"
        }
      ],
      "stateMutability": "view",
      "type": "function"
    },
    {
      "inputs": [
        {
          "internalType": "address",
          "name": "spender",
          "type": "address"
        },
        {
          "internalType": "uint256",
          "name": "subtractedValue",
          "type": "uint256"
        }
      ],
      "name": "decreaseAllowance",
      "outputs": [
        {
          "internalType": "bool",
          "name": "",
          "type": "bool"
        }
      ],
      "stateMutability": "nonpayable",
      "type": "function"
    },
    {
      "inputs": [
        {
          "internalType": "address",
          "name": "account",
          "type": "address"
        }
      ],
      "name": "dividendOf",
      "outputs": [
        {
          "internalType": "uint256",
          "name": "",
          "type": "uint256"
        }
      ],
      "stateMutability": "view",
      "type": "function"
    },
    {
      "inputs": [],
      "name": "dividendToken",
      "outputs": [
        {
          "internalType": "address",
          "name": "",
          "type": "address"
        }
      ],
      "stateMutability": "view",
      "type": "function"
    },
    {
      "inputs": [],
      "name": "factory",
      "outputs": [
        {
          "internalType": "address",
          "name": "",
          "type": "address"
        }
      ],
      "stateMutability": "view",
      "type": "function"
    },
    {
      "inputs": [
        {
          "internalType": "address",
          "name": "spender",
          "type": "address"
        },
        {
          "internalType": "uint256",
          "name": "addedValue",
          "type": "uint256"
        }
      ],
      "name": "increaseAllowance",
      "outputs": [
        {
          "internalType": "bool",
          "name": "",
          "type": "bool"
        }
      ],
      "stateMutability": "nonpayable",
      "type": "function"
    },
    {
      "inputs": [
        {
          "internalType": "address",
          "name": "_owner",
          "type": "address"
        },
        {
          "internalType": "string",
          "name": "_name",
          "type": "string"
        },
        {
          "internalType": "string",
          "name": "_symbol",
          "type": "string"
        },
        {
          "internalType": "address",
          "name": "_dividendToken",
          "type": "address"
        },
        {
          "internalType": "uint256",
          "name": "initialSupply",
          "type": "uint256"
        }
      ],
      "name": "initialize",
      "outputs": [],
      "stateMutability": "nonpayable",
      "type": "function"
    },
    {
      "inputs": [
        {
          "internalType": "address",
          "name": "account",
          "type": "address"
        },
        {
          "internalType": "uint256",
          "name": "value",
          "type": "uint256"
        }
      ],
      "name": "mint",
      "outputs": [],
      "stateMutability": "nonpayable",
      "type": "function"
    },
    {
      "inputs": [],
      "name": "name",
      "outputs": [
        {
          "internalType": "string",
          "name": "",
          "type": "string"
        }
      ],
      "stateMutability": "view",
      "type": "function"
    },
    {
      "inputs": [
        {
          "internalType": "address",
          "name": "",
          "type": "address"
        }
      ],
      "name": "nonces",
      "outputs": [
        {
          "internalType": "uint256",
          "name": "",
          "type": "uint256"
        }
      ],
      "stateMutability": "view",
      "type": "function"
    },
    {
      "inputs": [],
      "name": "owner",
      "outputs": [
        {
          "internalType": "address",
          "name": "",
          "type": "address"
        }
      ],
      "stateMutability": "view",
      "type": "function"
    },
    {
      "inputs": [
        {
          "internalType": "address",
          "name": "owner",
          "type": "address"
        },
        {
          "internalType": "address",
          "name": "spender",
          "type": "address"
        },
        {
          "internalType": "uint256",
          "name": "value",
          "type": "uint256"
        },
        {
          "internalType": "uint256",
          "name": "deadline",
          "type": "uint256"
        },
        {
          "internalType": "uint8",
          "name": "v",
          "type": "uint8"
        },
        {
          "internalType": "bytes32",
          "name": "r",
          "type": "bytes32"
        },
        {
          "internalType": "bytes32",
          "name": "s",
          "type": "bytes32"
        }
      ],
      "name": "permit",
      "outputs": [],
      "stateMutability": "nonpayable",
      "type": "function"
    },
    {
      "inputs": [],
      "name": "renounceOwnership",
      "outputs": [],
      "stateMutability": "nonpayable",
      "type": "function"
    },
    {
      "inputs": [],
      "name": "symbol",
      "outputs": [
        {
          "internalType": "string",
          "name": "",
          "type": "string"
        }
      ],
      "stateMutability": "view",
      "type": "function"
    },
    {
      "inputs": [],
      "name": "sync",
      "outputs": [
        {
          "internalType": "uint256",
          "name": "increased",
          "type": "uint256"
        }
      ],
      "stateMutability": "payable",
      "type": "function"
    },
    {
      "inputs": [],
      "name": "totalDividend",
      "outputs": [
        {
          "internalType": "uint256",
          "name": "",
          "type": "uint256"
        }
      ],
      "stateMutability": "view",
      "type": "function"
    },
    {
      "inputs": [],
      "name": "totalSupply",
      "outputs": [
        {
          "internalType": "uint256",
          "name": "",
          "type": "uint256"
        }
      ],
      "stateMutability": "view",
      "type": "function"
    },
    {
      "inputs": [
        {
          "internalType": "address",
          "name": "recipient",
          "type": "address"
        },
        {
          "internalType": "uint256",
          "name": "amount",
          "type": "uint256"
        }
      ],
      "name": "transfer",
      "outputs": [
        {
          "internalType": "bool",
          "name": "",
          "type": "bool"
        }
      ],
      "stateMutability": "nonpayable",
      "type": "function"
    },
    {
      "inputs": [
        {
          "internalType": "address",
          "name": "sender",
          "type": "address"
        },
        {
          "internalType": "address",
          "name": "recipient",
          "type": "address"
        },
        {
          "internalType": "uint256",
          "name": "amount",
          "type": "uint256"
        }
      ],
      "name": "transferFrom",
      "outputs": [
        {
          "internalType": "bool",
          "name": "",
          "type": "bool"
        }
      ],
      "stateMutability": "nonpayable",
      "type": "function"
    },
    {
      "inputs": [
        {
          "internalType": "address",
          "name": "newOwner",
          "type": "address"
        }
      ],
      "name": "transferOwnership",
      "outputs": [],
      "stateMutability": "nonpayable",
      "type": "function"
    },
    {
      "inputs": [],
      "name": "withdrawDividend",
      "outputs": [],
      "stateMutability": "nonpayable",
      "type": "function"
    },
    {
      "inputs": [
        {
          "internalType": "address",
          "name": "account",
          "type": "address"
        }
      ],
      "name": "withdrawableDividendOf",
      "outputs": [
        {
          "internalType": "uint256",
          "name": "",
          "type": "uint256"
        }
      ],
      "stateMutability": "view",
      "type": "function"
    },
    {
      "inputs": [
        {
          "internalType": "address",
          "name": "account",
          "type": "address"
        }
      ],
      "name": "withdrawnDividendOf",
      "outputs": [
        {
          "internalType": "uint256",
          "name": "",
          "type": "uint256"
        }
      ],
      "stateMutability": "view",
      "type": "function"
    },
    {
      "stateMutability": "payable",
      "type": "receive"
    }
  ],
  "transactionHash": "0x8e435b43d56e71f61326b242436d30c1c903ad7343cde65a5a8c46341370b2e2",
  "args": [],
  "solcInputHash": "f84b7a7b08c8417cbe19bfbc369dbfef",
  "bytecode": "0x608060405234801561001057600080fd5b50612957806100206000396000f3fe6080604052600436106101dc5760003560e01c8063715018a611610102578063a8b9d24011610095578063d505accf11610064578063d505accf146105ef578063dd62ed3e1461060f578063f2fde38b14610655578063fff6cae91461067557610251565b8063a8b9d2401461055b578063a9059cbb1461057b578063aafd847a1461059b578063c45a0155146105d157610251565b806391b89fba116100d157806391b89fba146104e65780639443792c1461050657806395d89b4114610526578063a457c2d71461053b57610251565b8063715018a61461046657806375b30be61461047b5780637ecebe001461049b5780638da5cb5b146104c857610251565b8063313ce5671161017a5780634b6acafb116101495780634b6acafb146103ed5780636a474002146104035780636d3036a71461041857806370a082311461043057610251565b8063313ce5671461037c5780633644e5151461039857806339509351146103ad57806340c10f19146103cd57610251565b806318160ddd116101b657806318160ddd146102e957806323b872dd1461030857806327ce01471461032857806330adf81f1461034857610251565b806306fdde0314610256578063095ea7b3146102815780631582358e146102b157610251565b3661025157341561024f576006546001600160a01b0316156102455760405162461bcd60e51b815260206004820152601c60248201527f53484f59553a20554e41424c455f544f5f524543454956455f4554480000000060448201526064015b60405180910390fd5b61024d610679565b505b005b600080fd5b34801561026257600080fd5b5061026b6107b1565b60405161027891906126e3565b60405180910390f35b34801561028d57600080fd5b506102a161029c3660046125ce565b610843565b6040519015158152602001610278565b3480156102bd57600080fd5b506006546102d1906001600160a01b031681565b6040516001600160a01b039091168152602001610278565b3480156102f557600080fd5b506003545b604051908152602001610278565b34801561031457600080fd5b506102a1610323366004612498565b61085a565b34801561033457600080fd5b506102fa61034336600461244c565b6108fc565b34801561035457600080fd5b506102fa7f6e71edae12b1b97f4d1f60370fef10105fa2faae0126114a169c64845d6126c981565b34801561038857600080fd5b5060405160128152602001610278565b3480156103a457600080fd5b506102fa610961565b3480156103b957600080fd5b506102a16103c83660046125ce565b610a0e565b3480156103d957600080fd5b5061024f6103e83660046125ce565b610a45565b3480156103f957600080fd5b506102fa60075481565b34801561040f57600080fd5b5061024f610aa1565b34801561042457600080fd5b506102fa600160801b81565b34801561043c57600080fd5b506102fa61044b36600461244c565b6001600160a01b031660009081526001602052604090205490565b34801561047257600080fd5b5061024f610b3e565b34801561048757600080fd5b5061024f610496366004612544565b610bb2565b3480156104a757600080fd5b506102fa6104b636600461244c565b600f6020526000908152604090205481565b3480156104d457600080fd5b50600b546001600160a01b03166102d1565b3480156104f257600080fd5b506102fa61050136600461244c565b610ceb565b34801561051257600080fd5b5061024f610521366004612657565b610cf6565b34801561053257600080fd5b5061026b610d40565b34801561054757600080fd5b506102a16105563660046125ce565b610d4f565b34801561056757600080fd5b506102fa61057636600461244c565b610ddc565b34801561058757600080fd5b506102a16105963660046125ce565b610e08565b3480156105a757600080fd5b506102fa6105b636600461244c565b6001600160a01b03166000908152600a602052604090205490565b3480156105dd57600080fd5b50600e546001600160a01b03166102d1565b3480156105fb57600080fd5b5061024f61060a3660046124d3565b610e15565b34801561061b57600080fd5b506102fa61062a366004612466565b6001600160a01b03918216600090815260026020908152604080832093909416825291909152205490565b34801561066157600080fd5b5061024f61067036600461244c565b610fc9565b6102fa5b60008061068560035490565b9050600081116106ca5760405162461bcd60e51b815260206004820152601060248201526f53484f59553a204e4f5f535550504c5960801b604482015260640161023c565b6006546000906106e3906001600160a01b0316306110a5565b9050600754816106f39190612845565b9250600083116107455760405162461bcd60e51b815260206004820152601a60248201527f53484f59553a20494e53554646494349454e545f414d4f554e54000000000000604482015260640161023c565b81610754600160801b856127e7565b61075e91906127c7565b6008600082825461076f91906127af565b909155505060078190556040518381527f8a0df8ef054fae2c3d2d19a7b322e864870cc9fd3cb07fb9526309c596244bf49060200160405180910390a1505090565b6060600480546107c09061289f565b80601f01602080910402602001604051908101604052809291908181526020018280546107ec9061289f565b80156108395780601f1061080e57610100808354040283529160200191610839565b820191906000526020600020905b81548152906001019060200180831161081c57829003601f168201915b5050505050905090565b6000610850338484611146565b5060015b92915050565b6000610867848484611244565b6001600160a01b0384166000908152600260209081526040808320338452909152902054828110156108db5760405162461bcd60e51b815260206004820152601d60248201527f53484f59553a20494e53554646494349454e545f414c4c4f57414e4345000000604482015260640161023c565b6108ef85336108ea8685612845565b611146565b60019150505b9392505050565b6001600160a01b0381166000908152600960209081526040808320546001909252822054600160801b9161094f916109409060085461093b91906127e7565b6112c7565b61094a919061276e565b611331565b61095991906127c7565b90505b919050565b60008046600d5414156109775750600c54610a09565b7f8b73c3c69bb8fe3d512ecc4cf759cc79239f7b179b0ffacaa9a75d522b39400f6109a130611383565b80516020918201206040805192830193909352918101919091527fc89efdaa54c0f20c7adf612882df0950f5a951637e0307cdcb4c672f298b8bc660608201524660808201523060a082015260c0016040516020818303038152906040528051906020012090505b905090565b3360008181526002602090815260408083206001600160a01b038716845290915281205490916108509185906108ea9086906127af565b33610a58600b546001600160a01b031690565b6001600160a01b03161480610a775750600e546001600160a01b031633145b610a935760405162461bcd60e51b815260040161023c906126f6565b610a9d82826113e0565b5050565b6000610aac33610ddc565b90508015610b3b57336000908152600a602052604081208054839290610ad39084906127af565b909155505060405181815233907fee503bee2bb6a87e57bc57db795f98137327401a0e7b7ce42e37926cc1a9ca4d9060200160405180910390a28060076000828254610b1f9190612845565b9091555050600654610b3b906001600160a01b0316338361142c565b50565b600b546001600160a01b03163314610b685760405162461bcd60e51b815260040161023c906126f6565b600b546040516000916001600160a01b0316907f8be0079c531659141344cd1fd0a4f28419497f9722a3daafe3b4186f6b6457e0908390a3600b80546001600160a01b0319169055565b600054610100900460ff1680610bcb575060005460ff16155b610be75760405162461bcd60e51b815260040161023c90612720565b600054610100900460ff16158015610c09576000805461ffff19166101011790555b610c12866114fc565b610c1d858585611571565b600e80546001600160a01b03191633179055610c3986836113e0565b46600d557f8b73c3c69bb8fe3d512ecc4cf759cc79239f7b179b0ffacaa9a75d522b39400f610c6730611383565b80516020918201206040805192830193909352918101919091527fc89efdaa54c0f20c7adf612882df0950f5a951637e0307cdcb4c672f298b8bc660608201524660808201523060a082015260c00160408051601f198184030181529190528051602090910120600c558015610ce3576000805461ff00191690555b505050505050565b600061095982610ddc565b610d003384611605565b604080518481526020810183905283917fb76a0da8ff1f8c54a41e3017cf87c65fc8f03e38d23eb45d4e9a1a5d7635b4c0910160405180910390a2505050565b6060600580546107c09061289f565b3360009081526002602090815260408083206001600160a01b038616845290915281205482811015610dc35760405162461bcd60e51b815260206004820152601a60248201527f53484f59553a20414c4c4f57414e43455f554e444552464c4f57000000000000604482015260640161023c565b610dd233856108ea8685612845565b5060019392505050565b6001600160a01b0381166000908152600a6020526040812054610dfe836108fc565b6109599190612845565b6000610850338484611244565b83421115610e565760405162461bcd60e51b815260206004820152600e60248201526d14d213d6554e881156141254915160921b604482015260640161023c565b6001600160a01b038716610ea55760405162461bcd60e51b815260206004820152601660248201527553484f59553a20494e56414c49445f4144445245535360501b604482015260640161023c565b866001600160a01b0316866001600160a01b03161415610efe5760405162461bcd60e51b815260206004820152601460248201527353484f59553a204e4f545f4e454345535341525960601b604482015260640161023c565b6001600160a01b0387166000908152600f6020526040812080547f6e71edae12b1b97f4d1f60370fef10105fa2faae0126114a169c64845d6126c9918a918a918a919086610f4b836128da565b909155506040805160208101969096526001600160a01b0394851690860152929091166060840152608083015260a082015260c0810186905260e001604051602081830303815290604052805190602001209050610fb48189868686610faf610961565b611648565b610fbf888888611146565b5050505050505050565b600b546001600160a01b03163314610ff35760405162461bcd60e51b815260040161023c906126f6565b6001600160a01b0381166110495760405162461bcd60e51b815260206004820152601860248201527f53484f59553a20494e56414c49445f4e45575f4f574e45520000000000000000604482015260640161023c565b600b546040516001600160a01b038084169216907f8be0079c531659141344cd1fd0a4f28419497f9722a3daafe3b4186f6b6457e090600090a3600b80546001600160a01b0319166001600160a01b0392909216919091179055565b60006001600160a01b0383166110c657506001600160a01b03811631610854565b6040516370a0823160e01b81526001600160a01b0383811660048301528416906370a082319060240160206040518083038186803b15801561110757600080fd5b505afa15801561111b573d6000803e3d6000fd5b505050506040513d601f19601f8201168201806040525081019061113f919061263f565b9050610854565b6001600160a01b0383166111935760405162461bcd60e51b815260206004820152601460248201527329a427acaa9d1024a72b20a624a22fa7aba722a960611b604482015260640161023c565b6001600160a01b0382166111e25760405162461bcd60e51b815260206004820152601660248201527529a427acaa9d1024a72b20a624a22fa9a822a72222a960511b604482015260640161023c565b6001600160a01b0383811660008181526002602090815260408083209487168084529482529182902085905590518481527f8c5be1e5ebec7d5bd14f71427d1e84f3dd0314c0f7b2291e5b200ac8c7c3b92591015b60405180910390a3505050565b61124f838383611807565b60006112628260085461093b91906127e7565b6001600160a01b03851660009081526009602052604081208054929350839290919061128f90849061276e565b90915550506001600160a01b038316600090815260096020526040812080548392906112bc908490612806565b909155505050505050565b6000600160ff1b821061132d5760405162461bcd60e51b815260206004820152602860248201527f53616665436173743a2076616c756520646f65736e27742066697420696e2061604482015267371034b73a191a9b60c11b606482015260840161023c565b5090565b60008082121561132d5760405162461bcd60e51b815260206004820181905260248201527f53616665436173743a2076616c7565206d75737420626520706f736974697665604482015260640161023c565b6060816113ab57506040805180820190915260048152630307830360e41b602082015261095c565b8160005b81156113ce57806113bf816128da565b915050600882901c91506113af565b6113d884826119ae565b949350505050565b6113ea8282611b90565b6113fb8160085461093b91906127e7565b6001600160a01b03831660009081526009602052604081208054909190611423908490612806565b90915550505050565b6001600160a01b0383166114e3576000826001600160a01b03168260405160006040518083038185875af1925050503d8060008114611487576040519150601f19603f3d011682016040523d82523d6000602084013e61148c565b606091505b50509050806114dd5760405162461bcd60e51b815260206004820152601760248201527f53484f59553a205452414e534645525f4641494c555245000000000000000000604482015260640161023c565b506114f7565b6114f76001600160a01b0384168383611c68565b505050565b600054610100900460ff1680611515575060005460ff16155b6115315760405162461bcd60e51b815260040161023c90612720565b600054610100900460ff16158015611553576000805461ffff19166101011790555b61155c82611cba565b8015610a9d576000805461ff00191690555050565b600054610100900460ff168061158a575060005460ff16155b6115a65760405162461bcd60e51b815260040161023c90612720565b600054610100900460ff161580156115c8576000805461ffff19166101011790555b6115d28484611d6f565b600680546001600160a01b0319166001600160a01b03841617905580156115ff576000805461ff00191690555b50505050565b61160f8282611de6565b6116208160085461093b91906127e7565b6001600160a01b0383166000908152600960205260408120805490919061142390849061276e565b60405161190160f01b6020820152602281018290526042810187905260009060620160405160208183030381529060405280519060200120905061168c863b151590565b1561179c57604080516020810186905280820185905260f887901b6001600160f81b0319166060820152815160418183030181526061820192839052630b135d3f60e11b9092526001600160a01b03881691631626ba7e916116f29185916065016126ca565b60206040518083038186803b15801561170a57600080fd5b505afa15801561171e573d6000803e3d6000fd5b505050506040513d601f19601f820116820180604052508101906117429190612617565b6001600160e01b031916631626ba7e60e01b146117975760405162461bcd60e51b815260206004820152601360248201527214d213d6554e8815539055551213d492569151606a1b604482015260640161023c565b6117fe565b856001600160a01b03166117b282878787611f19565b6001600160a01b0316146117fe5760405162461bcd60e51b815260206004820152601360248201527214d213d6554e8815539055551213d492569151606a1b604482015260640161023c565b50505050505050565b6001600160a01b0383166118555760405162461bcd60e51b815260206004820152601560248201527429a427acaa9d1024a72b20a624a22fa9a2a72222a960591b604482015260640161023c565b6001600160a01b0382166118ab5760405162461bcd60e51b815260206004820152601860248201527f53484f59553a20494e56414c49445f524543495049454e540000000000000000604482015260640161023c565b6001600160a01b038316600090815260016020526040902054818110156119145760405162461bcd60e51b815260206004820152601b60248201527f53484f59553a20494e53554646494349454e545f42414c414e43450000000000604482015260640161023c565b61191e8282612845565b6001600160a01b0380861660009081526001602052604080822093909355908516815290812080548492906119549084906127af565b92505081905550826001600160a01b0316846001600160a01b03167fddf252ad1be2c89b69c2b068fc378daa952ba7f163c4a11628f55a4df523b3ef846040516119a091815260200190565b60405180910390a350505050565b606060006119bd8360026127e7565b6119c89060026127af565b67ffffffffffffffff8111156119ee57634e487b7160e01b600052604160045260246000fd5b6040519080825280601f01601f191660200182016040528015611a18576020820181803683370190505b509050600360fc1b81600081518110611a4157634e487b7160e01b600052603260045260246000fd5b60200101906001600160f81b031916908160001a905350600f60fb1b81600181518110611a7e57634e487b7160e01b600052603260045260246000fd5b60200101906001600160f81b031916908160001a9053506000611aa28460026127e7565b611aad9060016127af565b90505b6001811115611b41576f181899199a1a9b1b9c1cb0b131b232b360811b85600f1660108110611aef57634e487b7160e01b600052603260045260246000fd5b1a60f81b828281518110611b1357634e487b7160e01b600052603260045260246000fd5b60200101906001600160f81b031916908160001a90535060049490941c93611b3a81612888565b9050611ab0565b5083156108f55760405162461bcd60e51b815260206004820181905260248201527f537472696e67733a20686578206c656e67746820696e73756666696369656e74604482015260640161023c565b6001600160a01b038216611bdf5760405162461bcd60e51b815260206004820152601660248201527514d213d6554e881253959053125117d050d0d3d5539560521b604482015260640161023c565b8060036000828254611bf191906127af565b90915550506001600160a01b03821660009081526001602052604081208054839290611c1e9084906127af565b90915550506040518181526001600160a01b038316906000907fddf252ad1be2c89b69c2b068fc378daa952ba7f163c4a11628f55a4df523b3ef9060200160405180910390a35050565b604080516001600160a01b038416602482015260448082018490528251808303909101815260649091019091526020810180516001600160e01b031663a9059cbb60e01b1790526114f79084906120ac565b600054610100900460ff1680611cd3575060005460ff16155b611cef5760405162461bcd60e51b815260040161023c90612720565b600054610100900460ff16158015611d11576000805461ffff19166101011790555b600b80546001600160a01b0319166001600160a01b0384169081179091556040516000907f8be0079c531659141344cd1fd0a4f28419497f9722a3daafe3b4186f6b6457e0908290a38015610a9d576000805461ff00191690555050565b600054610100900460ff1680611d88575060005460ff16155b611da45760405162461bcd60e51b815260040161023c90612720565b600054610100900460ff16158015611dc6576000805461ffff19166101011790555b611dd0838361217e565b80156114f7576000805461ff0019169055505050565b6001600160a01b038216611e355760405162461bcd60e51b815260206004820152601660248201527514d213d6554e881253959053125117d050d0d3d5539560521b604482015260640161023c565b6001600160a01b03821660009081526001602052604090205481811015611e9e5760405162461bcd60e51b815260206004820152601b60248201527f53484f59553a20494e53554646494349454e545f42414c414e43450000000000604482015260640161023c565b611ea88282612845565b6001600160a01b03841660009081526001602052604081209190915560038054849290611ed6908490612845565b90915550506040518281526000906001600160a01b038516907fddf252ad1be2c89b69c2b068fc378daa952ba7f163c4a11628f55a4df523b3ef90602001611237565b60007f7fffffffffffffffffffffffffffffff5d576e7357a4501ddfe92f46681b20a0821115611f8b5760405162461bcd60e51b815260206004820181905260248201527f53484f59553a20494e56414c49445f5349474e41545552455f535f56414c5545604482015260640161023c565b8360ff16601b1480611fa057508360ff16601c145b611fec5760405162461bcd60e51b815260206004820181905260248201527f53484f59553a20494e56414c49445f5349474e41545552455f565f56414c5545604482015260640161023c565b6040805160008082526020820180845288905260ff871692820192909252606081018590526080810184905260019060a0016020604051602081039080840390855afa158015612040573d6000803e3d6000fd5b5050604051601f1901519150506001600160a01b0381166120a35760405162461bcd60e51b815260206004820152601860248201527f53484f59553a20494e56414c49445f5349474e41545552450000000000000000604482015260640161023c565b95945050505050565b6000612101826040518060400160405280602081526020017f5361666545524332303a206c6f772d6c6576656c2063616c6c206661696c6564815250856001600160a01b03166122139092919063ffffffff16565b8051909150156114f7578080602001905181019061211f91906125f7565b6114f75760405162461bcd60e51b815260206004820152602a60248201527f5361666545524332303a204552433230206f7065726174696f6e20646964206e6044820152691bdd081cdd58d8d9595960b21b606482015260840161023c565b600054610100900460ff1680612197575060005460ff16155b6121b35760405162461bcd60e51b815260040161023c90612720565b600054610100900460ff161580156121d5576000805461ffff19166101011790555b82516121e890600490602086019061231e565b5081516121fc90600590602085019061231e565b5080156114f7576000805461ff0019169055505050565b60606113d8848460008585843b61226c5760405162461bcd60e51b815260206004820152601d60248201527f416464726573733a2063616c6c20746f206e6f6e2d636f6e7472616374000000604482015260640161023c565b600080866001600160a01b0316858760405161228891906126ae565b60006040518083038185875af1925050503d80600081146122c5576040519150601f19603f3d011682016040523d82523d6000602084013e6122ca565b606091505b50915091506122da8282866122e5565b979650505050505050565b606083156122f45750816108f5565b8251156123045782518084602001fd5b8160405162461bcd60e51b815260040161023c91906126e3565b82805461232a9061289f565b90600052602060002090601f01602090048101928261234c5760008555612392565b82601f1061236557805160ff1916838001178555612392565b82800160010185558215612392579182015b82811115612392578251825591602001919060010190612377565b5061132d9291505b8082111561132d576000815560010161239a565b80356001600160a01b038116811461095c57600080fd5b600082601f8301126123d5578081fd5b813567ffffffffffffffff808211156123f0576123f061290b565b604051601f8301601f19908116603f011681019082821181831017156124185761241861290b565b81604052838152866020858801011115612430578485fd5b8360208701602083013792830160200193909352509392505050565b60006020828403121561245d578081fd5b6108f5826123ae565b60008060408385031215612478578081fd5b612481836123ae565b915061248f602084016123ae565b90509250929050565b6000806000606084860312156124ac578081fd5b6124b5846123ae565b92506124c3602085016123ae565b9150604084013590509250925092565b600080600080600080600060e0888a0312156124ed578283fd5b6124f6886123ae565b9650612504602089016123ae565b95506040880135945060608801359350608088013560ff81168114612527578384fd5b9699959850939692959460a0840135945060c09093013592915050565b600080600080600060a0868803121561255b578081fd5b612564866123ae565b9450602086013567ffffffffffffffff80821115612580578283fd5b61258c89838a016123c5565b955060408801359150808211156125a1578283fd5b506125ae888289016123c5565b9350506125bd606087016123ae565b949793965091946080013592915050565b600080604083850312156125e0578182fd5b6125e9836123ae565b946020939093013593505050565b600060208284031215612608578081fd5b815180151581146108f5578182fd5b600060208284031215612628578081fd5b81516001600160e01b0319811681146108f5578182fd5b600060208284031215612650578081fd5b5051919050565b60008060006060848603121561266b578283fd5b505081359360208301359350604090920135919050565b6000815180845261269a81602086016020860161285c565b601f01601f19169290920160200192915050565b600082516126c081846020870161285c565b9190910192915050565b6000838252604060208301526113d86040830184612682565b6000602082526108f56020830184612682565b60208082526010908201526f29a427acaa9d102327a92124a22222a760811b604082015260600190565b6020808252602e908201527f496e697469616c697a61626c653a20636f6e747261637420697320616c72656160408201526d191e481a5b9a5d1a585b1a5e995960921b606082015260800190565b600080821280156001600160ff1b0384900385131615612790576127906128f5565b600160ff1b83900384128116156127a9576127a96128f5565b50500190565b600082198211156127c2576127c26128f5565b500190565b6000826127e257634e487b7160e01b81526012600452602481fd5b500490565b6000816000190483118215151615612801576128016128f5565b500290565b60008083128015600160ff1b850184121615612824576128246128f5565b6001600160ff1b038401831381161561283f5761283f6128f5565b50500390565b600082821015612857576128576128f5565b500390565b60005b8381101561287757818101518382015260200161285f565b838111156115ff5750506000910152565b600081612897576128976128f5565b506000190190565b600181811c908216806128b357607f821691505b602082108114156128d457634e487b7160e01b600052602260045260246000fd5b50919050565b60006000198214156128ee576128ee6128f5565b5060010190565b634e487b7160e01b600052601160045260246000fd5b634e487b7160e01b600052604160045260246000fdfea2646970667358221220b2c3c35be2168a5ed3cd21cc16ad246273f53c1a5bc6fdf674562863355dc17864736f6c63430008030033",
  "devdoc": {
    "kind": "dev",
    "methods": {
      "accumulativeDividendOf(address)": {
        "details": "accumulativeDividendOf(account) = withdrawableDividendOf(account) + withdrawnDividendOf(account) = (magnifiedDividendPerShare * balanceOf(account) + magnifiedDividendCorrections[account]) / magnitude",
        "params": {
          "account": "The address of a token holder."
        },
        "returns": {
          "_0": "The amount of dividend in wei that `account` has earned in total."
        }
      },
      "allowance(address,address)": {
        "details": "See {IERC20-allowance}."
      },
      "approve(address,uint256)": {
        "details": "See {IERC20-approve}. Requirements: - `spender` cannot be the zero address."
      },
      "balanceOf(address)": {
        "details": "See {IERC20-balanceOf}."
      },
      "decimals()": {
        "details": "Returns the number of decimals used to get its user representation. For example, if `decimals` equals `2`, a balance of `505` tokens should be displayed to a user as `5,05` (`505 / 10 ** 2`). Tokens usually opt for a value of 18, imitating the relationship between Ether and Wei. This is the value {ERC20} uses, unless this function is overridden; NOTE: This information is only used for _display_ purposes: it in no way affects any of the arithmetic of the contract, including {IERC20-balanceOf} and {IERC20-transfer}."
      },
      "decreaseAllowance(address,uint256)": {
        "details": "Atomically decreases the allowance granted to `spender` by the caller. This is an alternative to {approve} that can be used as a mitigation for problems described in {IERC20-approve}. Emits an {Approval} event indicating the updated allowance. Requirements: - `spender` cannot be the zero address. - `spender` must have allowance for the caller of at least `subtractedValue`."
      },
      "dividendOf(address)": {
        "params": {
          "account": "The address of a token holder."
        },
        "returns": {
          "_0": "The amount of dividend in wei that `account` can withdraw."
        }
      },
      "increaseAllowance(address,uint256)": {
        "details": "Atomically increases the allowance granted to `spender` by the caller. This is an alternative to {approve} that can be used as a mitigation for problems described in {IERC20-approve}. Emits an {Approval} event indicating the updated allowance. Requirements: - `spender` cannot be the zero address."
      },
      "name()": {
        "details": "Returns the name of the token."
      },
      "owner()": {
        "details": "Returns the address of the current owner."
      },
      "renounceOwnership()": {
        "details": "Leaves the contract without owner. It will not be possible to call `onlyOwner` functions anymore. Can only be called by the current owner. NOTE: Renouncing ownership will leave the contract without an owner, thereby removing any functionality that is only available to the owner."
      },
      "symbol()": {
        "details": "Returns the symbol of the token, usually a shorter version of the name."
      },
      "sync()": {
        "details": "It reverts if the total supply of tokens is 0.",
        "returns": {
          "increased": "The amount of total dividend increased It emits the `Sync` event if the amount of received ether/erc20 is greater than 0. About undistributed ether/erc20:   In each distribution, there is a small amount of ether/erc20 not distributed,     the magnified amount of which is     `(msg.value * magnitude) % totalSupply()`.   With a well-chosen `magnitude`, the amount of undistributed ether/erc20     (de-magnified) in a distribution can be less than 1 wei.   We can actually keep track of the undistributed ether/erc20 in a distribution     and try to distribute it in the next distribution,     but keeping track of such data on-chain costs much more than     the saved ether/erc20, so we don't do that."
        }
      },
      "totalSupply()": {
        "details": "See {IERC20-totalSupply}."
      },
      "transfer(address,uint256)": {
        "details": "See {IERC20-transfer}. Requirements: - `recipient` cannot be the zero address. - the caller must have a balance of at least `amount`."
      },
      "transferFrom(address,address,uint256)": {
        "details": "See {IERC20-transferFrom}. Emits an {Approval} event indicating the updated allowance. This is not required by the EIP. See the note at the beginning of {ERC20}. Requirements: - `sender` and `recipient` cannot be the zero address. - `sender` must have a balance of at least `amount`. - the caller must have allowance for ``sender``'s tokens of at least `amount`."
      },
      "transferOwnership(address)": {
        "details": "Transfers ownership of the contract to a new account (`newOwner`). Can only be called by the current owner."
      },
      "withdrawDividend()": {
        "details": "It emits a `DividendWithdrawn` event if the amount of withdrawn ether/erc20 is greater than 0."
      },
      "withdrawableDividendOf(address)": {
        "params": {
          "account": "The address of a token holder."
        },
        "returns": {
          "_0": "The amount of dividend in wei that `account` can withdraw."
        }
      },
      "withdrawnDividendOf(address)": {
        "params": {
          "account": "The address of a token holder."
        },
        "returns": {
          "_0": "The amount of dividend in wei that `account` has withdrawn."
        }
      }
    },
    "version": 1
  },
  "userdoc": {
    "kind": "user",
    "methods": {
      "accumulativeDividendOf(address)": {
        "notice": "View the amount of dividend in wei that an address has earned in total."
      },
      "dividendOf(address)": {
        "notice": "View the amount of dividend in wei that an address can withdraw."
      },
      "sync()": {
        "notice": "Syncs the amount of ether/erc20 increased to token holders as dividends."
      },
      "withdrawDividend()": {
        "notice": "Withdraws the ether/erc20 distributed to the sender."
      },
      "withdrawableDividendOf(address)": {
        "notice": "View the amount of dividend in wei that an address can withdraw."
      },
      "withdrawnDividendOf(address)": {
        "notice": "View the amount of dividend in wei that an address has withdrawn."
      }
    },
    "version": 1
  },
  "storageLayout": {
    "storage": [
      {
        "astId": 115,
        "contract": "contracts/SocialTokenV0.sol:SocialTokenV0",
        "label": "_initialized",
        "offset": 0,
        "slot": "0",
        "type": "t_bool"
      },
      {
        "astId": 118,
        "contract": "contracts/SocialTokenV0.sol:SocialTokenV0",
        "label": "_initializing",
        "offset": 1,
        "slot": "0",
        "type": "t_bool"
      },
      {
        "astId": 10799,
        "contract": "contracts/SocialTokenV0.sol:SocialTokenV0",
        "label": "_balances",
        "offset": 0,
        "slot": "1",
        "type": "t_mapping(t_address,t_uint256)"
      },
      {
        "astId": 10805,
        "contract": "contracts/SocialTokenV0.sol:SocialTokenV0",
        "label": "_allowances",
        "offset": 0,
        "slot": "2",
        "type": "t_mapping(t_address,t_mapping(t_address,t_uint256))"
      },
      {
        "astId": 10807,
        "contract": "contracts/SocialTokenV0.sol:SocialTokenV0",
        "label": "_totalSupply",
        "offset": 0,
        "slot": "3",
        "type": "t_uint256"
      },
      {
        "astId": 10809,
        "contract": "contracts/SocialTokenV0.sol:SocialTokenV0",
        "label": "_name",
        "offset": 0,
        "slot": "4",
        "type": "t_string_storage"
      },
      {
        "astId": 10811,
        "contract": "contracts/SocialTokenV0.sol:SocialTokenV0",
        "label": "_symbol",
        "offset": 0,
        "slot": "5",
        "type": "t_string_storage"
      },
      {
        "astId": 9372,
        "contract": "contracts/SocialTokenV0.sol:SocialTokenV0",
        "label": "dividendToken",
        "offset": 0,
        "slot": "6",
        "type": "t_address"
      },
      {
        "astId": 9375,
        "contract": "contracts/SocialTokenV0.sol:SocialTokenV0",
        "label": "totalDividend",
        "offset": 0,
        "slot": "7",
        "type": "t_uint256"
      },
      {
        "astId": 9377,
        "contract": "contracts/SocialTokenV0.sol:SocialTokenV0",
        "label": "magnifiedDividendPerShare",
        "offset": 0,
        "slot": "8",
        "type": "t_uint256"
      },
      {
        "astId": 9402,
        "contract": "contracts/SocialTokenV0.sol:SocialTokenV0",
        "label": "magnifiedDividendCorrections",
        "offset": 0,
        "slot": "9",
        "type": "t_mapping(t_address,t_int256)"
      },
      {
        "astId": 9406,
        "contract": "contracts/SocialTokenV0.sol:SocialTokenV0",
        "label": "withdrawnDividends",
        "offset": 0,
        "slot": "10",
        "type": "t_mapping(t_address,t_uint256)"
      },
      {
        "astId": 12279,
        "contract": "contracts/SocialTokenV0.sol:SocialTokenV0",
        "label": "_owner",
        "offset": 0,
        "slot": "11",
        "type": "t_address"
      },
      {
        "astId": 5539,
        "contract": "contracts/SocialTokenV0.sol:SocialTokenV0",
        "label": "_DOMAIN_SEPARATOR",
        "offset": 0,
        "slot": "12",
        "type": "t_bytes32"
      },
      {
        "astId": 5541,
        "contract": "contracts/SocialTokenV0.sol:SocialTokenV0",
        "label": "_CACHED_CHAIN_ID",
        "offset": 0,
        "slot": "13",
        "type": "t_uint256"
      },
      {
        "astId": 5543,
        "contract": "contracts/SocialTokenV0.sol:SocialTokenV0",
        "label": "_factory",
        "offset": 0,
        "slot": "14",
        "type": "t_address"
      },
      {
        "astId": 5548,
        "contract": "contracts/SocialTokenV0.sol:SocialTokenV0",
        "label": "nonces",
        "offset": 0,
        "slot": "15",
        "type": "t_mapping(t_address,t_uint256)"
      }
    ],
    "types": {
      "t_address": {
        "encoding": "inplace",
        "label": "address",
        "numberOfBytes": "20"
      },
      "t_bool": {
        "encoding": "inplace",
        "label": "bool",
        "numberOfBytes": "1"
      },
      "t_bytes32": {
        "encoding": "inplace",
        "label": "bytes32",
        "numberOfBytes": "32"
      },
      "t_int256": {
        "encoding": "inplace",
        "label": "int256",
        "numberOfBytes": "32"
      },
      "t_mapping(t_address,t_int256)": {
        "encoding": "mapping",
        "key": "t_address",
        "label": "mapping(address => int256)",
        "numberOfBytes": "32",
        "value": "t_int256"
      },
      "t_mapping(t_address,t_mapping(t_address,t_uint256))": {
        "encoding": "mapping",
        "key": "t_address",
        "label": "mapping(address => mapping(address => uint256))",
        "numberOfBytes": "32",
        "value": "t_mapping(t_address,t_uint256)"
      },
      "t_mapping(t_address,t_uint256)": {
        "encoding": "mapping",
        "key": "t_address",
        "label": "mapping(address => uint256)",
        "numberOfBytes": "32",
        "value": "t_uint256"
      },
      "t_string_storage": {
        "encoding": "bytes",
        "label": "string",
        "numberOfBytes": "32"
      },
      "t_uint256": {
        "encoding": "inplace",
        "label": "uint256",
        "numberOfBytes": "32"
      }
    }
  }
}