{
  "address": "0xFc7D3C1cd94a2a06a550b22D0aFB290bb17A8f06",
  "abi": [
    {
      "inputs": [
        {
          "internalType": "uint256",
          "name": "",
          "type": "uint256"
        },
        {
          "internalType": "bytes",
          "name": "",
          "type": "bytes"
        },
        {
          "internalType": "address",
          "name": "",
          "type": "address"
        },
        {
          "internalType": "uint256",
          "name": "",
          "type": "uint256"
        },
        {
          "internalType": "uint256",
          "name": "",
          "type": "uint256"
        },
        {
          "internalType": "uint256",
          "name": "",
          "type": "uint256"
        }
      ],
      "name": "canBid",
      "outputs": [
        {
          "internalType": "bool",
          "name": "",
          "type": "bool"
        }
      ],
      "stateMutability": "pure",
      "type": "function"
    },
    {
      "inputs": [
        {
          "internalType": "uint256",
          "name": "",
          "type": "uint256"
        },
        {
          "internalType": "bytes",
          "name": "params",
          "type": "bytes"
        },
        {
          "internalType": "address",
          "name": "bidder",
          "type": "address"
        },
        {
          "internalType": "uint256",
          "name": "bidPrice",
          "type": "uint256"
        }
      ],
      "name": "canExecute",
      "outputs": [
        {
          "internalType": "bool",
          "name": "",
          "type": "bool"
        }
      ],
      "stateMutability": "pure",
      "type": "function"
    }
  ],
  "transactionHash": "0xbe37e139c048105c9a5eabc18eab297a7a0330966905384ed32685a12bacaa96",
  "args": [],
  "solcInputHash": "409914cef0eb1a17c21b9b3d747a0637",
  "bytecode": "0x608060405234801561001057600080fd5b50610307806100206000396000f3fe608060405234801561001057600080fd5b50600436106100365760003560e01c80636281869a1461003b578063e01be26314610069575b600080fd5b610055610049366004610230565b60009695505050505050565b604051901515815260200160405180910390f35b6100556100773660046101d1565b60008060008580602001905181019061009091906101a2565b90925090506001600160a01b0381166100ef5760405162461bcd60e51b815260206004820152601760248201527f53484f59553a20494e56414c49445f44455349474e4545000000000000000000604482015260640160405180910390fd5b8382111580156101105750806001600160a01b0316856001600160a01b0316145b979650505050505050565b600082601f83011261012b578081fd5b813567ffffffffffffffff80821115610146576101466102a3565b604051601f8301601f19908116603f0116810190828211818310171561016e5761016e6102a3565b81604052838152866020858801011115610186578485fd5b8360208701602083013792830160200193909352509392505050565b600080604083850312156101b4578182fd5b8251915060208301516101c6816102b9565b809150509250929050565b600080600080608085870312156101e6578182fd5b84359350602085013567ffffffffffffffff811115610203578283fd5b61020f8782880161011b565b9350506040850135610220816102b9565b9396929550929360600135925050565b60008060008060008060c08789031215610248578182fd5b86359550602087013567ffffffffffffffff811115610265578283fd5b61027189828a0161011b565b9550506040870135610282816102b9565b959894975094956060810135955060808101359460a0909101359350915050565b634e487b7160e01b600052604160045260246000fd5b6001600160a01b03811681146102ce57600080fd5b5056fea2646970667358221220b868194f0ed889515891e0b70ff8ca2a149a11abf901320f7d0f7d8f06847b9564736f6c63430008030033",
  "devdoc": {
    "kind": "dev",
    "methods": {},
    "version": 1
  },
  "userdoc": {
    "kind": "user",
    "methods": {},
    "version": 1
  },
  "storageLayout": {
    "storage": [],
    "types": null
  }
}