{
  "address": "0xD8c3eF0342E1E5dcA21Fdb90f5F9FdB88EC78502",
  "abi": [
    {
      "inputs": [
        {
          "internalType": "address",
          "name": "factory_",
          "type": "address"
        }
      ],
      "stateMutability": "nonpayable",
      "type": "constructor"
    },
    {
      "anonymous": false,
      "inputs": [
        {
          "indexed": true,
          "internalType": "bytes32",
          "name": "hash",
          "type": "bytes32"
        },
        {
          "indexed": false,
          "internalType": "address",
          "name": "bidder",
          "type": "address"
        },
        {
          "indexed": false,
          "internalType": "uint256",
          "name": "amount",
          "type": "uint256"
        },
        {
          "indexed": false,
          "internalType": "uint256",
          "name": "price",
          "type": "uint256"
        },
        {
          "indexed": false,
          "internalType": "address",
          "name": "recipient",
          "type": "address"
        },
        {
          "indexed": false,
          "internalType": "address",
          "name": "referrer",
          "type": "address"
        }
      ],
      "name": "Bid",
      "type": "event"
    },
    {
      "anonymous": false,
      "inputs": [
        {
          "indexed": true,
          "internalType": "bytes32",
          "name": "hash",
          "type": "bytes32"
        }
      ],
      "name": "Cancel",
      "type": "event"
    },
    {
      "anonymous": false,
      "inputs": [
        {
          "indexed": true,
          "internalType": "bytes32",
          "name": "hash",
          "type": "bytes32"
        },
        {
          "indexed": false,
          "internalType": "address",
          "name": "bidder",
          "type": "address"
        },
        {
          "indexed": false,
          "internalType": "uint256",
          "name": "amount",
          "type": "uint256"
        },
        {
          "indexed": false,
          "internalType": "uint256",
          "name": "price",
          "type": "uint256"
        },
        {
          "indexed": false,
          "internalType": "address",
          "name": "recipient",
          "type": "address"
        },
        {
          "indexed": false,
          "internalType": "address",
          "name": "referrer",
          "type": "address"
        }
      ],
      "name": "Claim",
      "type": "event"
    },
    {
      "anonymous": false,
      "inputs": [
        {
          "indexed": true,
          "internalType": "address",
          "name": "proxy",
          "type": "address"
        },
        {
          "indexed": true,
          "internalType": "bytes32",
          "name": "askHash",
          "type": "bytes32"
        },
        {
          "indexed": true,
          "internalType": "address",
          "name": "bidder",
          "type": "address"
        },
        {
          "indexed": false,
          "internalType": "bytes32",
          "name": "bidHash",
          "type": "bytes32"
        }
      ],
      "name": "UpdateApprovedBidHash",
      "type": "event"
    },
    {
      "inputs": [],
      "name": "DOMAIN_SEPARATOR",
      "outputs": [
        {
          "internalType": "bytes32",
          "name": "",
          "type": "bytes32"
        }
      ],
      "stateMutability": "view",
      "type": "function"
    },
    {
      "inputs": [
        {
          "internalType": "bytes32",
          "name": "",
          "type": "bytes32"
        }
      ],
      "name": "amountFilled",
      "outputs": [
        {
          "internalType": "uint256",
          "name": "",
          "type": "uint256"
        }
      ],
      "stateMutability": "view",
      "type": "function"
    },
    {
      "inputs": [
        {
          "internalType": "address",
          "name": "proxy",
          "type": "address"
        },
        {
          "internalType": "bytes32",
          "name": "askHash",
          "type": "bytes32"
        },
        {
          "internalType": "address",
          "name": "bidder",
          "type": "address"
        }
      ],
      "name": "approvedBidHash",
      "outputs": [
        {
          "internalType": "bytes32",
          "name": "bidHash",
          "type": "bytes32"
        }
      ],
      "stateMutability": "view",
      "type": "function"
    },
    {
      "inputs": [
        {
          "internalType": "bytes32",
          "name": "",
          "type": "bytes32"
        }
      ],
      "name": "bestBid",
      "outputs": [
        {
          "internalType": "address",
          "name": "bidder",
          "type": "address"
        },
        {
          "internalType": "uint256",
          "name": "amount",
          "type": "uint256"
        },
        {
          "internalType": "uint256",
          "name": "price",
          "type": "uint256"
        },
        {
          "internalType": "address",
          "name": "recipient",
          "type": "address"
        },
        {
          "internalType": "address",
          "name": "referrer",
          "type": "address"
        },
        {
          "internalType": "uint256",
          "name": "timestamp",
          "type": "uint256"
        }
      ],
      "stateMutability": "view",
      "type": "function"
    },
    {
      "inputs": [
        {
          "components": [
            {
              "internalType": "address",
              "name": "signer",
              "type": "address"
            },
            {
              "internalType": "address",
              "name": "proxy",
              "type": "address"
            },
            {
              "internalType": "address",
              "name": "token",
              "type": "address"
            },
            {
              "internalType": "uint256",
              "name": "tokenId",
              "type": "uint256"
            },
            {
              "internalType": "uint256",
              "name": "amount",
              "type": "uint256"
            },
            {
              "internalType": "address",
              "name": "strategy",
              "type": "address"
            },
            {
              "internalType": "address",
              "name": "currency",
              "type": "address"
            },
            {
              "internalType": "address",
              "name": "recipient",
              "type": "address"
            },
            {
              "internalType": "uint256",
              "name": "deadline",
              "type": "uint256"
            },
            {
              "internalType": "bytes",
              "name": "params",
              "type": "bytes"
            },
            {
              "internalType": "uint8",
              "name": "v",
              "type": "uint8"
            },
            {
              "internalType": "bytes32",
              "name": "r",
              "type": "bytes32"
            },
            {
              "internalType": "bytes32",
              "name": "s",
              "type": "bytes32"
            }
          ],
          "internalType": "struct Orders.Ask",
          "name": "askOrder",
          "type": "tuple"
        },
        {
          "internalType": "uint256",
          "name": "bidAmount",
          "type": "uint256"
        },
        {
          "internalType": "uint256",
          "name": "bidPrice",
          "type": "uint256"
        },
        {
          "internalType": "address",
          "name": "bidRecipient",
          "type": "address"
        },
        {
          "internalType": "address",
          "name": "bidReferrer",
          "type": "address"
        }
      ],
      "name": "bid",
      "outputs": [
        {
          "internalType": "bool",
          "name": "executed",
          "type": "bool"
        }
      ],
      "stateMutability": "nonpayable",
      "type": "function"
    },
    {
      "inputs": [
        {
          "components": [
            {
              "internalType": "address",
              "name": "signer",
              "type": "address"
            },
            {
              "internalType": "address",
              "name": "proxy",
              "type": "address"
            },
            {
              "internalType": "address",
              "name": "token",
              "type": "address"
            },
            {
              "internalType": "uint256",
              "name": "tokenId",
              "type": "uint256"
            },
            {
              "internalType": "uint256",
              "name": "amount",
              "type": "uint256"
            },
            {
              "internalType": "address",
              "name": "strategy",
              "type": "address"
            },
            {
              "internalType": "address",
              "name": "currency",
              "type": "address"
            },
            {
              "internalType": "address",
              "name": "recipient",
              "type": "address"
            },
            {
              "internalType": "uint256",
              "name": "deadline",
              "type": "uint256"
            },
            {
              "internalType": "bytes",
              "name": "params",
              "type": "bytes"
            },
            {
              "internalType": "uint8",
              "name": "v",
              "type": "uint8"
            },
            {
              "internalType": "bytes32",
              "name": "r",
              "type": "bytes32"
            },
            {
              "internalType": "bytes32",
              "name": "s",
              "type": "bytes32"
            }
          ],
          "internalType": "struct Orders.Ask",
          "name": "askOrder",
          "type": "tuple"
        },
        {
          "components": [
            {
              "internalType": "bytes32",
              "name": "askHash",
              "type": "bytes32"
            },
            {
              "internalType": "address",
              "name": "signer",
              "type": "address"
            },
            {
              "internalType": "uint256",
              "name": "amount",
              "type": "uint256"
            },
            {
              "internalType": "uint256",
              "name": "price",
              "type": "uint256"
            },
            {
              "internalType": "address",
              "name": "recipient",
              "type": "address"
            },
            {
              "internalType": "address",
              "name": "referrer",
              "type": "address"
            },
            {
              "internalType": "uint8",
              "name": "v",
              "type": "uint8"
            },
            {
              "internalType": "bytes32",
              "name": "r",
              "type": "bytes32"
            },
            {
              "internalType": "bytes32",
              "name": "s",
              "type": "bytes32"
            }
          ],
          "internalType": "struct Orders.Bid",
          "name": "bidOrder",
          "type": "tuple"
        }
      ],
      "name": "bid",
      "outputs": [
        {
          "internalType": "bool",
          "name": "executed",
          "type": "bool"
        }
      ],
      "stateMutability": "nonpayable",
      "type": "function"
    },
    {
      "inputs": [
        {
          "internalType": "address",
          "name": "nft",
          "type": "address"
        }
      ],
      "name": "canTrade",
      "outputs": [
        {
          "internalType": "bool",
          "name": "",
          "type": "bool"
        }
      ],
      "stateMutability": "view",
      "type": "function"
    },
    {
      "inputs": [
        {
          "components": [
            {
              "internalType": "address",
              "name": "signer",
              "type": "address"
            },
            {
              "internalType": "address",
              "name": "proxy",
              "type": "address"
            },
            {
              "internalType": "address",
              "name": "token",
              "type": "address"
            },
            {
              "internalType": "uint256",
              "name": "tokenId",
              "type": "uint256"
            },
            {
              "internalType": "uint256",
              "name": "amount",
              "type": "uint256"
            },
            {
              "internalType": "address",
              "name": "strategy",
              "type": "address"
            },
            {
              "internalType": "address",
              "name": "currency",
              "type": "address"
            },
            {
              "internalType": "address",
              "name": "recipient",
              "type": "address"
            },
            {
              "internalType": "uint256",
              "name": "deadline",
              "type": "uint256"
            },
            {
              "internalType": "bytes",
              "name": "params",
              "type": "bytes"
            },
            {
              "internalType": "uint8",
              "name": "v",
              "type": "uint8"
            },
            {
              "internalType": "bytes32",
              "name": "r",
              "type": "bytes32"
            },
            {
              "internalType": "bytes32",
              "name": "s",
              "type": "bytes32"
            }
          ],
          "internalType": "struct Orders.Ask",
          "name": "order",
          "type": "tuple"
        }
      ],
      "name": "cancel",
      "outputs": [],
      "stateMutability": "nonpayable",
      "type": "function"
    },
    {
      "inputs": [
        {
          "components": [
            {
              "internalType": "address",
              "name": "signer",
              "type": "address"
            },
            {
              "internalType": "address",
              "name": "proxy",
              "type": "address"
            },
            {
              "internalType": "address",
              "name": "token",
              "type": "address"
            },
            {
              "internalType": "uint256",
              "name": "tokenId",
              "type": "uint256"
            },
            {
              "internalType": "uint256",
              "name": "amount",
              "type": "uint256"
            },
            {
              "internalType": "address",
              "name": "strategy",
              "type": "address"
            },
            {
              "internalType": "address",
              "name": "currency",
              "type": "address"
            },
            {
              "internalType": "address",
              "name": "recipient",
              "type": "address"
            },
            {
              "internalType": "uint256",
              "name": "deadline",
              "type": "uint256"
            },
            {
              "internalType": "bytes",
              "name": "params",
              "type": "bytes"
            },
            {
              "internalType": "uint8",
              "name": "v",
              "type": "uint8"
            },
            {
              "internalType": "bytes32",
              "name": "r",
              "type": "bytes32"
            },
            {
              "internalType": "bytes32",
              "name": "s",
              "type": "bytes32"
            }
          ],
          "internalType": "struct Orders.Ask",
          "name": "askOrder",
          "type": "tuple"
        }
      ],
      "name": "claim",
      "outputs": [],
      "stateMutability": "nonpayable",
      "type": "function"
    },
    {
      "inputs": [],
      "name": "factory",
      "outputs": [
        {
          "internalType": "address",
          "name": "",
          "type": "address"
        }
      ],
      "stateMutability": "view",
      "type": "function"
    },
    {
      "inputs": [
        {
          "internalType": "bytes32",
          "name": "",
          "type": "bytes32"
        }
      ],
      "name": "isCancelledOrClaimed",
      "outputs": [
        {
          "internalType": "bool",
          "name": "",
          "type": "bool"
        }
      ],
      "stateMutability": "view",
      "type": "function"
    },
    {
      "inputs": [
        {
          "internalType": "bytes32",
          "name": "askHash",
          "type": "bytes32"
        },
        {
          "internalType": "address",
          "name": "bidder",
          "type": "address"
        },
        {
          "internalType": "bytes32",
          "name": "bidHash",
          "type": "bytes32"
        }
      ],
      "name": "updateApprovedBidHash",
      "outputs": [],
      "stateMutability": "nonpayable",
      "type": "function"
    }
  ],
  "transactionHash": "0x0d4a388d3f0c47f0edaabd81c5b2a1c08b348430be41b81ea771ca4364a429ec",
  "args": [
    "0xc7943Cf70509E8276FCe2e2bA6036D5eD66599f3"
  ],
  "solcInputHash": "b703ce783dd708774c8a875798f6f227",
  "bytecode": "0x60e06040523480156200001157600080fd5b5060405162002f5538038062002f55833981016040819052620000349162000562565b6200003e620000fd565b606081901b6001600160601b03191660c0524660a0527f8b73c3c69bb8fe3d512ecc4cf759cc79239f7b179b0ffacaa9a75d522b39400f6200008c30620001b2602090811b62000c4717901c565b80516020918201206040805192830193909352918101919091527fc89efdaa54c0f20c7adf612882df0950f5a951637e0307cdcb4c672f298b8bc660608201524660808201523060a082015260c00160408051601f1981840301815291905280516020909101206080525062000616565b600054610100900460ff168062000117575060005460ff16155b6200016f5760405162461bcd60e51b815260206004820152602e602482015260008051602062002f3583398151915260448201526d191e481a5b9a5d1a585b1a5e995960921b60648201526084015b60405180910390fd5b600054610100900460ff1615801562000192576000805461ffff19166101011790555b6200019c62000219565b8015620001af576000805461ff00191690555b50565b606081620001dc57506040805180820190915260048152630307830360e41b602082015262000214565b8160005b8115620002035780620001f381620005e2565b915050600882901c9150620001e0565b6200020f8482620002b4565b925050505b919050565b600054610100900460ff168062000233575060005460ff16155b620002875760405162461bcd60e51b815260206004820152602e602482015260008051602062002f3583398151915260448201526d191e481a5b9a5d1a585b1a5e995960921b606482015260840162000166565b600054610100900460ff16158015620002aa576000805461ffff19166101011790555b6200019c620004b0565b60606000620002c5836002620005a6565b620002d29060026200058b565b6001600160401b03811115620002f857634e487b7160e01b600052604160045260246000fd5b6040519080825280601f01601f19166020018201604052801562000323576020820181803683370190505b509050600360fc1b816000815181106200034d57634e487b7160e01b600052603260045260246000fd5b60200101906001600160f81b031916908160001a905350600f60fb1b816001815181106200038b57634e487b7160e01b600052603260045260246000fd5b60200101906001600160f81b031916908160001a9053506000620003b1846002620005a6565b620003be9060016200058b565b90505b600181111562000458576f181899199a1a9b1b9c1cb0b131b232b360811b85600f16601081106200040257634e487b7160e01b600052603260045260246000fd5b1a60f81b8282815181106200042757634e487b7160e01b600052603260045260246000fd5b60200101906001600160f81b031916908160001a90535060049490941c936200045081620005c8565b9050620003c1565b508315620004a95760405162461bcd60e51b815260206004820181905260248201527f537472696e67733a20686578206c656e67746820696e73756666696369656e74604482015260640162000166565b9392505050565b600054610100900460ff1680620004ca575060005460ff16155b6200051e5760405162461bcd60e51b815260206004820152602e602482015260008051602062002f3583398151915260448201526d191e481a5b9a5d1a585b1a5e995960921b606482015260840162000166565b600054610100900460ff1615801562000541576000805461ffff19166101011790555b6000805462ff0000191690558015620001af576000805461ff001916905550565b60006020828403121562000574578081fd5b81516001600160a01b0381168114620004a9578182fd5b60008219821115620005a157620005a162000600565b500190565b6000816000190483118215151615620005c357620005c362000600565b500290565b600081620005da57620005da62000600565b506000190190565b6000600019821415620005f957620005f962000600565b5060010190565b634e487b7160e01b600052601160045260246000fd5b60805160a05160c05160601c6128d76200065e6000396000818161020501528181610510015281816116ba01526117c50152600061027e015260006102a601526128d76000f3fe608060405234801561001057600080fd5b50600436106100b45760003560e01c8063768826631161007157806376882663146101d2578063b81e8466146101e5578063c45a0155146101f8578063cb27e1b61461022f578063d0d0924614610242578063e331a71514610255576100b4565b80633644e515146100b957806338bc54cd146100d45780633cf32cd1146100f7578063559f05dc1461010c5780635771f9971461011f57806375e6590f146101b2575b600080fd5b6100c1610278565b6040519081526020015b60405180910390f35b6100e76100e2366004612571565b610361565b60405190151581526020016100cb565b61010a61010536600461246b565b610403565b005b6100e761011a366004612311565b6104ee565b61017361012d3660046123f4565b60026020819052600091825260409091208054600182015492820154600383015460048401546005909401546001600160a01b0393841695949293918216929091169086565b604080516001600160a01b03978816815260208101969096528501939093529084166060840152909216608082015260a081019190915260c0016100cb565b6100c16101c03660046123f4565b60046020526000908152604090205481565b61010a6101e036600461240c565b610595565b6100e76101f336600461249e565b610600565b6040516001600160a01b037f00000000000000000000000000000000000000000000000000000000000000001681526020016100cb565b6100c161023d36600461232d565b61084a565b61010a61025036600461246b565b610880565b6100e76102633660046123f4565b60036020526000908152604090205460ff1681565b600080467f000000000000000000000000000000000000000000000000000000000000000014156102ca57507f000000000000000000000000000000000000000000000000000000000000000061035c565b7f8b73c3c69bb8fe3d512ecc4cf759cc79239f7b179b0ffacaa9a75d522b39400f6102f430610c47565b80516020918201206040805192830193909352918101919091527fc89efdaa54c0f20c7adf612882df0950f5a951637e0307cdcb4c672f298b8bc660608201524660808201523060a082015260c0016040516020818303038152906040528051906020012090505b905090565b6000805460ff620100009091041615156001141561039a5760405162461bcd60e51b815260040161039190612727565b60405180910390fd5b6000805462ff000019166201000017905560208601516001600160a01b0316156103d65760405162461bcd60e51b8152600401610391906126fd565b6103ed866103e388610ca4565b3388888888610d91565b6000805462ff0000191690559695505050505050565b80516001600160a01b0316331480610427575060208101516001600160a01b031633145b6104435760405162461bcd60e51b8152600401610391906126fd565b600061044e82610ca4565b6000818152600260205260409020549091506001600160a01b0316156104aa5760405162461bcd60e51b815260206004820152601160248201527053484f59553a204249445f45584953545360781b6044820152606401610391565b600081815260036020526040808220805460ff191660011790555182917fe8d9861dbc9c663ed3accd261bbe2fe01e0d3d9e5f51fa38523b265c7757a93a91a25050565b604051635ef0036960e01b81526001600160a01b0382811660048301526000917f000000000000000000000000000000000000000000000000000000000000000090911690635ef003699060240160206040518083038186803b15801561055457600080fd5b505afa158015610568573d6000803e3d6000fd5b505050506040513d601f19601f8201168201806040525081019061058c91906123d4565b1590505b919050565b33600081815260016020908152604080832087845282528083206001600160a01b03871680855290835292819020859055518481529192869290917fb45107556fea5943927a97bcb8910e249aea88961a6a30fb2f06674dbd44004b910160405180910390a4505050565b6000805460ff62010000909104161515600114156106305760405162461bcd60e51b815260040161039190612727565b6000805462ff000019166201000017815561064a84610ca4565b835190915081146106955760405162461bcd60e51b81526020600482015260156024820152740a6909eb2aa7440aa9c9a82a886908a88be9082a69605b1b6044820152606401610391565b60208301516001600160a01b03166106e75760405162461bcd60e51b815260206004820152601560248201527429a427acaa9d1024a72b20a624a22fa9a4a3a722a960591b6044820152606401610391565b60006106f284611272565b60208601519091506001600160a01b0316156107ec5760208501516001600160a01b031633148061075857506020808601516001600160a01b03908116600090815260018352604080822086835284528082208885015190931682529190925290205481145b6107745760405162461bcd60e51b8152600401610391906126fd565b602085810180516001600160a01b03908116600090815260018452604080822087835285528082208986018051851684529086528183208390555193519051918252928216938693909216917fb45107556fea5943927a97bcb8910e249aea88961a6a30fb2f06674dbd44004b910160405180910390a45b6108128185602001518660c001518760e0015188610100015161080d610278565b6112fd565b610835858386602001518760400151886060015189608001518a60a00151610d91565b6000805462ff00001916905595945050505050565b6001600160a01b0380841660009081526001602090815260408083208684528252808320938516835292905220545b9392505050565b60005460ff62010000909104161515600114156108af5760405162461bcd60e51b815260040161039190612727565b6000805462ff000019166201000017905560408101516108ce906104ee565b6109145760405162461bcd60e51b815260206004820152601760248201527653484f59553a20494e56414c49445f45584348414e474560481b6044820152606401610391565b600061091f82610ca4565b905061092b82826114bc565b61094e81836000015184610140015185610160015186610180015161080d610278565b600081815260026020818152604092839020835160c08101855281546001600160a01b03908116808352600184015483860152948301548287018190526003840154821660608401526004808501548316608085015260059094015460a08085018290528a0151958a01516101008b01516101208c0151995163610e2d3b60e01b81529599979094169763610e2d3b976109f697929690949193919284928492909101612647565b60206040518083038186803b158015610a0e57600080fd5b505afa158015610a22573d6000803e3d6000fd5b505050506040513d601f19601f82011682018060405250810190610a4691906123d4565b610a835760405162461bcd60e51b815260206004820152600e60248201526d53484f59553a204641494c55524560901b6044820152606401610391565b60e08301516001600160a01b038116610a9a575082515b600083815260036020908152604091829020805460ff1916600117905585820151606087015160c088015186519387015194870151610aeb95939492939192918791610ae691906127ba565b6117a7565b610b375760405162461bcd60e51b815260206004820152601f60248201527f53484f59553a204641494c45445f544f5f5452414e534645525f46554e4453006044820152606401610391565b60208083015160008581526004909252604090912054610b579190612782565b60008481526004602052604090205560608201516001600160a01b038116610b7d575081515b610b9a856040015186600001518388606001518760200151611a23565b600084815260026020818152604080842080546001600160a01b031990811682556001820186905593810185905560038101805485169055600481018054909416909355600590920192909255845191850151858201516080870151925188947f0642c67a22e8657a7126bb3b9fb3f01965503642f884e4c6a1efd8ed24f46c0d94610c2c949193919288919061269f565b60405180910390a250506000805462ff000019169055505050565b606081610c6f57506040805180820190915260048152630307830360e41b6020820152610590565b8160005b8115610c925780610c8381612833565b915050600882901c9150610c73565b610c9c8482611a94565b949350505050565b80516020808301516040808501516060860151608087015160a088015160c089015160e08a01516101008b01516101208c01518051908b0120975160009b610d749b7f5fbc9a24e1532fa5245d1ec2dc5592849ae97ac5475f361b1a1f7a6e2ac9b2fd9b919a919998979695949392019a8b526001600160a01b03998a1660208c015297891660408b015295881660608a0152608089019490945260a0880192909252851660c0870152841660e08601529092166101008401526101208301919091526101408201526101600190565b604051602081830303815290604052805190602001209050919050565b6000610da088604001516104ee565b610de65760405162461bcd60e51b815260206004820152601760248201527653484f59553a20494e56414c49445f45584348414e474560481b6044820152606401610391565b60008511610e2e5760405162461bcd60e51b815260206004820152601560248201527414d213d6554e881253959053125117d05353d55395605a1b6044820152606401610391565b6000878152600460205260409020546080890151610e4c8783612782565b1115610e8c5760405162461bcd60e51b815260206004820152600f60248201526e14d213d6554e8814d3d31117d3d555608a1b6044820152606401610391565b610e9689896114bc565b610eb9888a600001518b61014001518c61016001518d610180015161080d610278565b6000600260008a815260200190815260200160002090508960a001516001600160a01b031663610e2d3b8b602001518c61010001518d61012001518c8b8760000160009054906101000a90046001600160a01b0316886002015489600501546040518963ffffffff1660e01b8152600401610f3b989796959493929190612647565b60206040518083038186803b158015610f5357600080fd5b505afa158015610f67573d6000803e3d6000fd5b505050506040513d601f19601f82011682018060405250810190610f8b91906123d4565b156110d257610f9a8783612782565b60008a81526004602052604090205560808a0151610fb88884612782565b1415610fd8576000898152600360205260409020805460ff191660011790555b60e08a01516001600160a01b038116610fef575089515b61100f8b604001518c606001518d60c001518c858d8d610ae691906127ba565b61105b5760405162461bcd60e51b815260206004820152601f60248201527f53484f59553a204641494c45445f544f5f5452414e534645525f46554e4453006044820152606401610391565b6001600160a01b03861661106d578895505b6110868b604001518c60000151888e606001518c611a23565b897f0642c67a22e8657a7126bb3b9fb3f01965503642f884e4c6a1efd8ed24f46c0d8a8a8a8a8a6040516110be95949392919061269f565b60405180910390a260019350505050611267565b8960a001516001600160a01b031663e9b3838f8b602001518c61010001518d61012001518c8b8760000160009054906101000a90046001600160a01b0316886002015489600501546040518963ffffffff1660e01b815260040161113d989796959493929190612647565b60206040518083038186803b15801561115557600080fd5b505afa158015611169573d6000803e3d6000fd5b505050506040513d601f19601f8201168201806040525081019061118d91906123d4565b1561122e5780546001600160a01b03808a166001600160a01b031992831617835560018301899055600283018890556003830180548883169084161790556004830180549187169190921617905542600582015560405189907f4055f76fe1f351fec66b9ba790ddbdc29eb45c038163a6b1327277441a8c65f19061121b908b908b908b908b908b9061269f565b60405180910390a2600092505050611267565b60405162461bcd60e51b815260206004820152600e60248201526d53484f59553a204641494c55524560901b6044820152606401610391565b979650505050505050565b80516020808301516040808501516060860151608087015160a08801519351600097610d74977fb98e1dc48988064e6dfb813618609d7da80a8841e5f277039788ac4b50d497b297919691959493920196875260208701959095526001600160a01b03938416604087015260608601929092526080850152811660a08401521660c082015260e00190565b60405161190160f01b60208201526022810182905260428101879052600090606201604051602081830303815290604052805190602001209050611341863b151590565b1561145157604080516020810186905280820185905260f887901b6001600160f81b0319166060820152815160418183030181526061820192839052630b135d3f60e11b9092526001600160a01b03881691631626ba7e916113a79185916065016126d1565b60206040518083038186803b1580156113bf57600080fd5b505afa1580156113d3573d6000803e3d6000fd5b505050506040513d601f19601f820116820180604052508101906113f79190612443565b6001600160e01b031916631626ba7e60e01b1461144c5760405162461bcd60e51b815260206004820152601360248201527214d213d6554e8815539055551213d492569151606a1b6044820152606401610391565b6114b3565b856001600160a01b031661146782878787611c76565b6001600160a01b0316146114b35760405162461bcd60e51b815260206004820152601360248201527214d213d6554e8815539055551213d492569151606a1b6044820152606401610391565b50505050505050565b60008181526003602052604090205460ff161561151b5760405162461bcd60e51b815260206004820152601b60248201527f53484f59553a2043414e43454c4c45445f4f525f434c41494d454400000000006044820152606401610391565b81516001600160a01b03166115695760405162461bcd60e51b815260206004820152601460248201527329a427acaa9d1024a72b20a624a22fa6a0a5a2a960611b6044820152606401610391565b60408201516001600160a01b03166115b85760405162461bcd60e51b815260206004820152601260248201527114d213d6554e881253959053125117d3919560721b6044820152606401610391565b60008260800151116116045760405162461bcd60e51b815260206004820152601560248201527414d213d6554e881253959053125117d05353d55395605a1b6044820152606401610391565b60a08201516001600160a01b031661165e5760405162461bcd60e51b815260206004820152601760248201527f53484f59553a20494e56414c49445f53545241544547590000000000000000006044820152606401610391565b60c08201516001600160a01b03166116b85760405162461bcd60e51b815260206004820152601760248201527f53484f59553a20494e56414c49445f43555252454e43590000000000000000006044820152606401610391565b7f000000000000000000000000000000000000000000000000000000000000000060a0830151604051632666e89f60e21b81526001600160a01b03918216600482015291169063999ba27c9060240160206040518083038186803b15801561171f57600080fd5b505afa158015611733573d6000803e3d6000fd5b505050506040513d601f19601f8201168201806040525081019061175791906123d4565b6117a35760405162461bcd60e51b815260206004820152601f60248201527f53484f59553a2053545241544547595f4e4f545f57484954454c4953544544006044820152606401610391565b5050565b60006117b585853085611e09565b6117c157506000611a19565b60007f000000000000000000000000000000000000000000000000000000000000000090506000839050600080836001600160a01b031663aec0b5436040518163ffffffff1660e01b8152600401604080518083038186803b15801561182657600080fd5b505afa15801561183a573d6000803e3d6000fd5b505050506040513d601f19601f8201168201806040525081019061185e919061239b565b909250905060006103e861187560ff8416896127ba565b61187f919061279a565b90506118956001600160a01b038b168483611edb565b61189f81856127d9565b9350505050600080836001600160a01b031663c2b11e186040518163ffffffff1660e01b8152600401604080518083038186803b1580156118df57600080fd5b505afa1580156118f3573d6000803e3d6000fd5b505050506040513d601f19601f82011682018060405250810190611917919061239b565b909250905060006103e861192e60ff8416896127ba565b611938919061279a565b905061194e6001600160a01b038b168483611edb565b61195881856127d9565b60405163152a902d60e11b8152600481018d9052602481018990529094506001600160a01b038d169350632a55205a92506044019050604080518083038186803b1580156119a557600080fd5b505afa9250505080156119d5575060408051601f3d908101601f191682019092526119d29181019061236e565b60015b6119de576119fe565b80156119fb576119ee81846127d9565b92506119fb898383611f32565b50505b611a126001600160a01b0388168683611edb565b6001925050505b9695505050505050565b604051632142170760e11b81526001600160a01b0385811660048301528481166024830152604482018490528616906342842e0e90606401600060405180830381600087803b158015611a7557600080fd5b505af1158015611a89573d6000803e3d6000fd5b505050505050505050565b60606000611aa38360026127ba565b611aae906002612782565b67ffffffffffffffff811115611ad457634e487b7160e01b600052604160045260246000fd5b6040519080825280601f01601f191660200182016040528015611afe576020820181803683370190505b509050600360fc1b81600081518110611b2757634e487b7160e01b600052603260045260246000fd5b60200101906001600160f81b031916908160001a905350600f60fb1b81600181518110611b6457634e487b7160e01b600052603260045260246000fd5b60200101906001600160f81b031916908160001a9053506000611b888460026127ba565b611b93906001612782565b90505b6001811115611c27576f181899199a1a9b1b9c1cb0b131b232b360811b85600f1660108110611bd557634e487b7160e01b600052603260045260246000fd5b1a60f81b828281518110611bf957634e487b7160e01b600052603260045260246000fd5b60200101906001600160f81b031916908160001a90535060049490941c93611c208161281c565b9050611b96565b5083156108795760405162461bcd60e51b815260206004820181905260248201527f537472696e67733a20686578206c656e67746820696e73756666696369656e746044820152606401610391565b60007f7fffffffffffffffffffffffffffffff5d576e7357a4501ddfe92f46681b20a0821115611ce85760405162461bcd60e51b815260206004820181905260248201527f53484f59553a20494e56414c49445f5349474e41545552455f535f56414c55456044820152606401610391565b8360ff16601b1480611cfd57508360ff16601c145b611d495760405162461bcd60e51b815260206004820181905260248201527f53484f59553a20494e56414c49445f5349474e41545552455f565f56414c55456044820152606401610391565b6040805160008082526020820180845288905260ff871692820192909252606081018590526080810184905260019060a0016020604051602081039080840390855afa158015611d9d573d6000803e3d6000fd5b5050604051601f1901519150506001600160a01b038116611e005760405162461bcd60e51b815260206004820152601860248201527f53484f59553a20494e56414c49445f5349474e415455524500000000000000006044820152606401610391565b95945050505050565b604080516001600160a01b0385811660248301528481166044830152606480830185905283518084039091018152608490920183526020820180516001600160e01b03166323b872dd60e01b17905291516000928392839291891691611e6f919061262b565b6000604051808303816000865af19150503d8060008114611eac576040519150601f19603f3d011682016040523d82523d6000602084013e611eb1565b606091505b509150915081801561126757508051158061126757508080602001905181019061126791906123d4565b604080516001600160a01b038416602482015260448082018490528251808303909101815260649091019091526020810180516001600160e01b031663a9059cbb60e01b179052611f2d908490611fc7565b505050565b611f466001600160a01b0384168383611edb565b813b15611f2d57816001600160a01b031663fff6cae96040518163ffffffff1660e01b8152600401602060405180830381600087803b158015611f8857600080fd5b505af1925050508015611fb8575060408051601f3d908101601f19168201909252611fb5918101906125e7565b60015b611fc157611f2d565b50505050565b600061201c826040518060400160405280602081526020017f5361666545524332303a206c6f772d6c6576656c2063616c6c206661696c6564815250856001600160a01b03166120999092919063ffffffff16565b805190915015611f2d578080602001905181019061203a91906123d4565b611f2d5760405162461bcd60e51b815260206004820152602a60248201527f5361666545524332303a204552433230206f7065726174696f6e20646964206e6044820152691bdd081cdd58d8d9595960b21b6064820152608401610391565b6060610c9c848460008585843b6120f25760405162461bcd60e51b815260206004820152601d60248201527f416464726573733a2063616c6c20746f206e6f6e2d636f6e74726163740000006044820152606401610391565b600080866001600160a01b0316858760405161210e919061262b565b60006040518083038185875af1925050503d806000811461214b576040519150601f19603f3d011682016040523d82523d6000602084013e612150565b606091505b50915091506112678282866060831561216a575081610879565b82511561217a5782518084602001fd5b8160405162461bcd60e51b815260040161039191906126ea565b80356105908161287a565b600082601f8301126121af578081fd5b813567ffffffffffffffff8111156121c9576121c9612864565b6121dc601f8201601f1916602001612751565b8181528460208386010111156121f0578283fd5b816020850160208301379081016020019190915292915050565b60006101a080838503121561221d578182fd5b61222681612751565b91505061223282612194565b815261224060208301612194565b602082015261225160408301612194565b6040820152606082013560608201526080820135608082015261227660a08301612194565b60a082015261228760c08301612194565b60c082015261229860e08301612194565b60e082015261010082810135908201526101208083013567ffffffffffffffff8111156122c457600080fd5b6122d08582860161219f565b8284015250506101406122e4818401612306565b9082015261016082810135908201526101809182013591810191909152919050565b803561059081612892565b600060208284031215612322578081fd5b81356108798161287a565b600080600060608486031215612341578182fd5b833561234c8161287a565b92506020840135915060408401356123638161287a565b809150509250925092565b60008060408385031215612380578182fd5b825161238b8161287a565b6020939093015192949293505050565b600080604083850312156123ad578182fd5b82516123b88161287a565b60208401519092506123c981612892565b809150509250929050565b6000602082840312156123e5578081fd5b81518015158114610879578182fd5b600060208284031215612405578081fd5b5035919050565b600080600060608486031215612420578283fd5b8335925060208401356124328161287a565b929592945050506040919091013590565b600060208284031215612454578081fd5b81516001600160e01b031981168114610879578182fd5b60006020828403121561247c578081fd5b813567ffffffffffffffff811115612492578182fd5b610c9c8482850161220a565b6000808284036101408112156124b2578283fd5b833567ffffffffffffffff8111156124c8578384fd5b6124d48682870161220a565b93505061012080601f19830112156124ea578283fd5b6124f381612751565b91506020850135825261250860408601612194565b6020830152606085013560408301526080850135606083015261252d60a08601612194565b608083015261253e60c08601612194565b60a083015261254f60e08601612306565b60c08301526101008581013560e0840152940135938101939093525092909150565b600080600080600060a08688031215612588578283fd5b853567ffffffffffffffff81111561259e578384fd5b6125aa8882890161220a565b955050602086013593506040860135925060608601356125c98161287a565b915060808601356125d98161287a565b809150509295509295909350565b6000602082840312156125f8578081fd5b5051919050565b600081518084526126178160208601602086016127f0565b601f01601f19169290920160200192915050565b6000825161263d8184602087016127f0565b9190910192915050565b6001600160a01b03898116825260208201899052610100604083018190526000916126748483018b6125ff565b9881166060850152608084019790975250509290931660a083015260c082015260e001529392505050565b6001600160a01b0395861681526020810194909452604084019290925283166060830152909116608082015260a00190565b600083825260406020830152610c9c60408301846125ff565b60006020825261087960208301846125ff565b60208082526010908201526f29a427acaa9d102327a92124a22222a760811b604082015260600190565b60208082526010908201526f14d213d6554e8814915153951490539560821b604082015260600190565b604051601f8201601f1916810167ffffffffffffffff8111828210171561277a5761277a612864565b604052919050565b600082198211156127955761279561284e565b500190565b6000826127b557634e487b7160e01b81526012600452602481fd5b500490565b60008160001904831182151516156127d4576127d461284e565b500290565b6000828210156127eb576127eb61284e565b500390565b60005b8381101561280b5781810151838201526020016127f3565b83811115611fc15750506000910152565b60008161282b5761282b61284e565b506000190190565b60006000198214156128475761284761284e565b5060010190565b634e487b7160e01b600052601160045260246000fd5b634e487b7160e01b600052604160045260246000fd5b6001600160a01b038116811461288f57600080fd5b50565b60ff8116811461288f57600080fdfea264697066735822122054a9e88de94e9a78e89f0f4dcc83f1ccea8ab25621032dcfd2735ecff60cd9e764736f6c63430008030033496e697469616c697a61626c653a20636f6e747261637420697320616c726561",
  "devdoc": {
    "kind": "dev",
    "methods": {},
    "version": 1
  },
  "userdoc": {
    "kind": "user",
    "methods": {},
    "version": 1
  },
  "storageLayout": {
    "storage": [
      {
        "astId": 115,
        "contract": "contracts/ERC721ExchangeV0.sol:ERC721ExchangeV0",
        "label": "_initialized",
        "offset": 0,
        "slot": "0",
        "type": "t_bool"
      },
      {
        "astId": 118,
        "contract": "contracts/ERC721ExchangeV0.sol:ERC721ExchangeV0",
        "label": "_initializing",
        "offset": 1,
        "slot": "0",
        "type": "t_bool"
      },
      {
        "astId": 12278,
        "contract": "contracts/ERC721ExchangeV0.sol:ERC721ExchangeV0",
        "label": "_status",
        "offset": 2,
        "slot": "0",
        "type": "t_bool"
      },
      {
        "astId": 6988,
        "contract": "contracts/ERC721ExchangeV0.sol:ERC721ExchangeV0",
        "label": "_bidHashes",
        "offset": 0,
        "slot": "1",
        "type": "t_mapping(t_address,t_mapping(t_bytes32,t_mapping(t_address,t_bytes32)))"
      },
      {
        "astId": 6994,
        "contract": "contracts/ERC721ExchangeV0.sol:ERC721ExchangeV0",
        "label": "bestBid",
        "offset": 0,
        "slot": "2",
        "type": "t_mapping(t_bytes32,t_struct(BestBid)6980_storage)"
      },
      {
        "astId": 6999,
        "contract": "contracts/ERC721ExchangeV0.sol:ERC721ExchangeV0",
        "label": "isCancelledOrClaimed",
        "offset": 0,
        "slot": "3",
        "type": "t_mapping(t_bytes32,t_bool)"
      },
      {
        "astId": 7004,
        "contract": "contracts/ERC721ExchangeV0.sol:ERC721ExchangeV0",
        "label": "amountFilled",
        "offset": 0,
        "slot": "4",
        "type": "t_mapping(t_bytes32,t_uint256)"
      }
    ],
    "types": {
      "t_address": {
        "encoding": "inplace",
        "label": "address",
        "numberOfBytes": "20"
      },
      "t_bool": {
        "encoding": "inplace",
        "label": "bool",
        "numberOfBytes": "1"
      },
      "t_bytes32": {
        "encoding": "inplace",
        "label": "bytes32",
        "numberOfBytes": "32"
      },
      "t_mapping(t_address,t_bytes32)": {
        "encoding": "mapping",
        "key": "t_address",
        "label": "mapping(address => bytes32)",
        "numberOfBytes": "32",
        "value": "t_bytes32"
      },
      "t_mapping(t_address,t_mapping(t_bytes32,t_mapping(t_address,t_bytes32)))": {
        "encoding": "mapping",
        "key": "t_address",
        "label": "mapping(address => mapping(bytes32 => mapping(address => bytes32)))",
        "numberOfBytes": "32",
        "value": "t_mapping(t_bytes32,t_mapping(t_address,t_bytes32))"
      },
      "t_mapping(t_bytes32,t_bool)": {
        "encoding": "mapping",
        "key": "t_bytes32",
        "label": "mapping(bytes32 => bool)",
        "numberOfBytes": "32",
        "value": "t_bool"
      },
      "t_mapping(t_bytes32,t_mapping(t_address,t_bytes32))": {
        "encoding": "mapping",
        "key": "t_bytes32",
        "label": "mapping(bytes32 => mapping(address => bytes32))",
        "numberOfBytes": "32",
        "value": "t_mapping(t_address,t_bytes32)"
      },
      "t_mapping(t_bytes32,t_struct(BestBid)6980_storage)": {
        "encoding": "mapping",
        "key": "t_bytes32",
        "label": "mapping(bytes32 => struct BaseExchange.BestBid)",
        "numberOfBytes": "32",
        "value": "t_struct(BestBid)6980_storage"
      },
      "t_mapping(t_bytes32,t_uint256)": {
        "encoding": "mapping",
        "key": "t_bytes32",
        "label": "mapping(bytes32 => uint256)",
        "numberOfBytes": "32",
        "value": "t_uint256"
      },
      "t_struct(BestBid)6980_storage": {
        "encoding": "inplace",
        "label": "struct BaseExchange.BestBid",
        "members": [
          {
            "astId": 6969,
            "contract": "contracts/ERC721ExchangeV0.sol:ERC721ExchangeV0",
            "label": "bidder",
            "offset": 0,
            "slot": "0",
            "type": "t_address"
          },
          {
            "astId": 6971,
            "contract": "contracts/ERC721ExchangeV0.sol:ERC721ExchangeV0",
            "label": "amount",
            "offset": 0,
            "slot": "1",
            "type": "t_uint256"
          },
          {
            "astId": 6973,
            "contract": "contracts/ERC721ExchangeV0.sol:ERC721ExchangeV0",
            "label": "price",
            "offset": 0,
            "slot": "2",
            "type": "t_uint256"
          },
          {
            "astId": 6975,
            "contract": "contracts/ERC721ExchangeV0.sol:ERC721ExchangeV0",
            "label": "recipient",
            "offset": 0,
            "slot": "3",
            "type": "t_address"
          },
          {
            "astId": 6977,
            "contract": "contracts/ERC721ExchangeV0.sol:ERC721ExchangeV0",
            "label": "referrer",
            "offset": 0,
            "slot": "4",
            "type": "t_address"
          },
          {
            "astId": 6979,
            "contract": "contracts/ERC721ExchangeV0.sol:ERC721ExchangeV0",
            "label": "timestamp",
            "offset": 0,
            "slot": "5",
            "type": "t_uint256"
          }
        ],
        "numberOfBytes": "192"
      },
      "t_uint256": {
        "encoding": "inplace",
        "label": "uint256",
        "numberOfBytes": "32"
      }
    }
  }
}