{
  "address": "0x7dAb0B786bf8825036b8aC1A6b7BDad0064dd78f",
  "abi": [
    {
      "inputs": [
        {
          "internalType": "uint256",
          "name": "",
          "type": "uint256"
        },
        {
          "internalType": "bytes",
          "name": "",
          "type": "bytes"
        },
        {
          "internalType": "address",
          "name": "",
          "type": "address"
        },
        {
          "internalType": "uint256",
          "name": "",
          "type": "uint256"
        },
        {
          "internalType": "address",
          "name": "",
          "type": "address"
        },
        {
          "internalType": "uint256",
          "name": "",
          "type": "uint256"
        },
        {
          "internalType": "uint256",
          "name": "",
          "type": "uint256"
        }
      ],
      "name": "canBid",
      "outputs": [
        {
          "internalType": "bool",
          "name": "",
          "type": "bool"
        }
      ],
      "stateMutability": "pure",
      "type": "function"
    },
    {
      "inputs": [
        {
          "internalType": "uint256",
          "name": "deadline",
          "type": "uint256"
        },
        {
          "internalType": "bytes",
          "name": "params",
          "type": "bytes"
        },
        {
          "internalType": "address",
          "name": "",
          "type": "address"
        },
        {
          "internalType": "uint256",
          "name": "bidPrice",
          "type": "uint256"
        },
        {
          "internalType": "address",
          "name": "",
          "type": "address"
        },
        {
          "internalType": "uint256",
          "name": "",
          "type": "uint256"
        },
        {
          "internalType": "uint256",
          "name": "",
          "type": "uint256"
        }
      ],
      "name": "canClaim",
      "outputs": [
        {
          "internalType": "bool",
          "name": "",
          "type": "bool"
        }
      ],
      "stateMutability": "view",
      "type": "function"
    }
  ],
  "transactionHash": "0x2b90fc9f8c97b87548653c235cb5c9344c0eaf653b42b77887be4af55a552581",
  "args": [],
  "solcInputHash": "09f73e090f42c1ed7214a5f8ac964def",
  "bytecode": "0x608060405234801561001057600080fd5b5061026b806100206000396000f3fe608060405234801561001057600080fd5b50600436106100365760003560e01c80635f11a72b1461003b578063651199511461006a575b600080fd5b61005661004936600461012c565b6000979650505050505050565b604051901515815260200160405180910390f35b61005661007836600461012c565b6000808780602001905181019061008f9190610114565b9050600081116100dc5760405162461bcd60e51b815260206004820152601460248201527353484f59553a20494e56414c49445f505249434560601b604482015260640160405180910390fd5b8843111580156100eb57508086145b9998505050505050505050565b80356001600160a01b038116811461010f57600080fd5b919050565b600060208284031215610125578081fd5b5051919050565b600080600080600080600060e0888a031215610146578283fd5b87359650602088013567ffffffffffffffff80821115610164578485fd5b818a0191508a601f830112610177578485fd5b8135818111156101895761018961021f565b604051601f8201601f19908116603f011681019083821181831017156101b1576101b161021f565b816040528281528d60208487010111156101c9578788fd5b826020860160208301379182016020018790525097506101ee915050604089016100f8565b945060608801359350610203608089016100f8565b925060a0880135915060c0880135905092959891949750929550565b634e487b7160e01b600052604160045260246000fdfea26469706673582212204857cee6af99ae1b3eefa73ae152b36e0847b34fa2ee6a7ebce5797d2238ae4464736f6c63430008030033",
  "devdoc": {
    "kind": "dev",
    "methods": {},
    "version": 1
  },
  "userdoc": {
    "kind": "user",
    "methods": {},
    "version": 1
  },
  "storageLayout": {
    "storage": [],
    "types": null
  }
}