{
  "address": "0x284b1930F4f83950945D99CF643F008C96B89636",
  "abi": [
    {
      "anonymous": false,
      "inputs": [
        {
          "indexed": true,
          "internalType": "address",
          "name": "account",
          "type": "address"
        },
        {
          "indexed": true,
          "internalType": "address",
          "name": "operator",
          "type": "address"
        },
        {
          "indexed": false,
          "internalType": "bool",
          "name": "approved",
          "type": "bool"
        }
      ],
      "name": "ApprovalForAll",
      "type": "event"
    },
    {
      "anonymous": false,
      "inputs": [
        {
          "indexed": true,
          "internalType": "bytes32",
          "name": "hash",
          "type": "bytes32"
        },
        {
          "indexed": false,
          "internalType": "address",
          "name": "bidder",
          "type": "address"
        },
        {
          "indexed": false,
          "internalType": "uint256",
          "name": "amount",
          "type": "uint256"
        },
        {
          "indexed": false,
          "internalType": "uint256",
          "name": "price",
          "type": "uint256"
        },
        {
          "indexed": false,
          "internalType": "address",
          "name": "recipient",
          "type": "address"
        },
        {
          "indexed": false,
          "internalType": "address",
          "name": "referrer",
          "type": "address"
        }
      ],
      "name": "Bid",
      "type": "event"
    },
    {
      "anonymous": false,
      "inputs": [
        {
          "indexed": true,
          "internalType": "uint256",
          "name": "tokenId",
          "type": "uint256"
        },
        {
          "indexed": false,
          "internalType": "uint256",
          "name": "amount",
          "type": "uint256"
        },
        {
          "indexed": true,
          "internalType": "uint256",
          "name": "label",
          "type": "uint256"
        },
        {
          "indexed": false,
          "internalType": "bytes32",
          "name": "data",
          "type": "bytes32"
        }
      ],
      "name": "Burn",
      "type": "event"
    },
    {
      "anonymous": false,
      "inputs": [
        {
          "indexed": true,
          "internalType": "bytes32",
          "name": "hash",
          "type": "bytes32"
        }
      ],
      "name": "Cancel",
      "type": "event"
    },
    {
      "anonymous": false,
      "inputs": [
        {
          "indexed": true,
          "internalType": "bytes32",
          "name": "hash",
          "type": "bytes32"
        },
        {
          "indexed": false,
          "internalType": "address",
          "name": "bidder",
          "type": "address"
        },
        {
          "indexed": false,
          "internalType": "uint256",
          "name": "amount",
          "type": "uint256"
        },
        {
          "indexed": false,
          "internalType": "uint256",
          "name": "price",
          "type": "uint256"
        },
        {
          "indexed": false,
          "internalType": "address",
          "name": "recipient",
          "type": "address"
        },
        {
          "indexed": false,
          "internalType": "address",
          "name": "referrer",
          "type": "address"
        }
      ],
      "name": "Claim",
      "type": "event"
    },
    {
      "anonymous": false,
      "inputs": [
        {
          "indexed": true,
          "internalType": "address",
          "name": "previousOwner",
          "type": "address"
        },
        {
          "indexed": true,
          "internalType": "address",
          "name": "newOwner",
          "type": "address"
        }
      ],
      "name": "OwnershipTransferred",
      "type": "event"
    },
    {
      "anonymous": false,
      "inputs": [
        {
          "indexed": false,
          "internalType": "string",
          "name": "uri",
          "type": "string"
        }
      ],
      "name": "SetBaseURI",
      "type": "event"
    },
    {
      "anonymous": false,
      "inputs": [
        {
          "indexed": false,
          "internalType": "uint8",
          "name": "fee",
          "type": "uint8"
        }
      ],
      "name": "SetRoyaltyFee",
      "type": "event"
    },
    {
      "anonymous": false,
      "inputs": [
        {
          "indexed": false,
          "internalType": "address",
          "name": "recipient",
          "type": "address"
        }
      ],
      "name": "SetRoyaltyFeeRecipient",
      "type": "event"
    },
    {
      "anonymous": false,
      "inputs": [
        {
          "indexed": true,
          "internalType": "uint256",
          "name": "id",
          "type": "uint256"
        },
        {
          "indexed": false,
          "internalType": "string",
          "name": "uri",
          "type": "string"
        }
      ],
      "name": "SetURI",
      "type": "event"
    },
    {
      "anonymous": false,
      "inputs": [
        {
          "indexed": true,
          "internalType": "address",
          "name": "operator",
          "type": "address"
        },
        {
          "indexed": true,
          "internalType": "address",
          "name": "from",
          "type": "address"
        },
        {
          "indexed": true,
          "internalType": "address",
          "name": "to",
          "type": "address"
        },
        {
          "indexed": false,
          "internalType": "uint256[]",
          "name": "ids",
          "type": "uint256[]"
        },
        {
          "indexed": false,
          "internalType": "uint256[]",
          "name": "values",
          "type": "uint256[]"
        }
      ],
      "name": "TransferBatch",
      "type": "event"
    },
    {
      "anonymous": false,
      "inputs": [
        {
          "indexed": true,
          "internalType": "address",
          "name": "operator",
          "type": "address"
        },
        {
          "indexed": true,
          "internalType": "address",
          "name": "from",
          "type": "address"
        },
        {
          "indexed": true,
          "internalType": "address",
          "name": "to",
          "type": "address"
        },
        {
          "indexed": false,
          "internalType": "uint256",
          "name": "id",
          "type": "uint256"
        },
        {
          "indexed": false,
          "internalType": "uint256",
          "name": "value",
          "type": "uint256"
        }
      ],
      "name": "TransferSingle",
      "type": "event"
    },
    {
      "anonymous": false,
      "inputs": [
        {
          "indexed": false,
          "internalType": "string",
          "name": "value",
          "type": "string"
        },
        {
          "indexed": true,
          "internalType": "uint256",
          "name": "id",
          "type": "uint256"
        }
      ],
      "name": "URI",
      "type": "event"
    },
    {
      "inputs": [],
      "name": "DOMAIN_SEPARATOR",
      "outputs": [
        {
          "internalType": "bytes32",
          "name": "",
          "type": "bytes32"
        }
      ],
      "stateMutability": "view",
      "type": "function"
    },
    {
      "inputs": [],
      "name": "PERMIT_TYPEHASH",
      "outputs": [
        {
          "internalType": "bytes32",
          "name": "",
          "type": "bytes32"
        }
      ],
      "stateMutability": "view",
      "type": "function"
    },
    {
      "inputs": [
        {
          "internalType": "bytes32",
          "name": "",
          "type": "bytes32"
        }
      ],
      "name": "amountFilled",
      "outputs": [
        {
          "internalType": "uint256",
          "name": "",
          "type": "uint256"
        }
      ],
      "stateMutability": "view",
      "type": "function"
    },
    {
      "inputs": [
        {
          "internalType": "address",
          "name": "account",
          "type": "address"
        },
        {
          "internalType": "uint256",
          "name": "id",
          "type": "uint256"
        }
      ],
      "name": "balanceOf",
      "outputs": [
        {
          "internalType": "uint256",
          "name": "",
          "type": "uint256"
        }
      ],
      "stateMutability": "view",
      "type": "function"
    },
    {
      "inputs": [
        {
          "internalType": "address[]",
          "name": "accounts",
          "type": "address[]"
        },
        {
          "internalType": "uint256[]",
          "name": "ids",
          "type": "uint256[]"
        }
      ],
      "name": "balanceOfBatch",
      "outputs": [
        {
          "internalType": "uint256[]",
          "name": "",
          "type": "uint256[]"
        }
      ],
      "stateMutability": "view",
      "type": "function"
    },
    {
      "inputs": [
        {
          "internalType": "bytes32",
          "name": "",
          "type": "bytes32"
        }
      ],
      "name": "bestBid",
      "outputs": [
        {
          "internalType": "address",
          "name": "bidder",
          "type": "address"
        },
        {
          "internalType": "uint256",
          "name": "amount",
          "type": "uint256"
        },
        {
          "internalType": "uint256",
          "name": "price",
          "type": "uint256"
        },
        {
          "internalType": "address",
          "name": "recipient",
          "type": "address"
        },
        {
          "internalType": "address",
          "name": "referrer",
          "type": "address"
        },
        {
          "internalType": "uint256",
          "name": "blockNumber",
          "type": "uint256"
        }
      ],
      "stateMutability": "view",
      "type": "function"
    },
    {
      "inputs": [
        {
          "components": [
            {
              "internalType": "address",
              "name": "signer",
              "type": "address"
            },
            {
              "internalType": "address",
              "name": "token",
              "type": "address"
            },
            {
              "internalType": "uint256",
              "name": "tokenId",
              "type": "uint256"
            },
            {
              "internalType": "uint256",
              "name": "amount",
              "type": "uint256"
            },
            {
              "internalType": "address",
              "name": "strategy",
              "type": "address"
            },
            {
              "internalType": "address",
              "name": "currency",
              "type": "address"
            },
            {
              "internalType": "address",
              "name": "recipient",
              "type": "address"
            },
            {
              "internalType": "uint256",
              "name": "deadline",
              "type": "uint256"
            },
            {
              "internalType": "bytes",
              "name": "params",
              "type": "bytes"
            },
            {
              "internalType": "uint8",
              "name": "v",
              "type": "uint8"
            },
            {
              "internalType": "bytes32",
              "name": "r",
              "type": "bytes32"
            },
            {
              "internalType": "bytes32",
              "name": "s",
              "type": "bytes32"
            }
          ],
          "internalType": "struct Orders.Ask",
          "name": "askOrder",
          "type": "tuple"
        },
        {
          "internalType": "uint256",
          "name": "bidAmount",
          "type": "uint256"
        },
        {
          "internalType": "uint256",
          "name": "bidPrice",
          "type": "uint256"
        },
        {
          "internalType": "address",
          "name": "bidRecipient",
          "type": "address"
        },
        {
          "internalType": "address",
          "name": "bidReferrer",
          "type": "address"
        }
      ],
      "name": "bid",
      "outputs": [
        {
          "internalType": "bool",
          "name": "executed",
          "type": "bool"
        }
      ],
      "stateMutability": "nonpayable",
      "type": "function"
    },
    {
      "inputs": [
        {
          "components": [
            {
              "internalType": "address",
              "name": "signer",
              "type": "address"
            },
            {
              "internalType": "address",
              "name": "token",
              "type": "address"
            },
            {
              "internalType": "uint256",
              "name": "tokenId",
              "type": "uint256"
            },
            {
              "internalType": "uint256",
              "name": "amount",
              "type": "uint256"
            },
            {
              "internalType": "address",
              "name": "strategy",
              "type": "address"
            },
            {
              "internalType": "address",
              "name": "currency",
              "type": "address"
            },
            {
              "internalType": "address",
              "name": "recipient",
              "type": "address"
            },
            {
              "internalType": "uint256",
              "name": "deadline",
              "type": "uint256"
            },
            {
              "internalType": "bytes",
              "name": "params",
              "type": "bytes"
            },
            {
              "internalType": "uint8",
              "name": "v",
              "type": "uint8"
            },
            {
              "internalType": "bytes32",
              "name": "r",
              "type": "bytes32"
            },
            {
              "internalType": "bytes32",
              "name": "s",
              "type": "bytes32"
            }
          ],
          "internalType": "struct Orders.Ask",
          "name": "askOrder",
          "type": "tuple"
        },
        {
          "components": [
            {
              "internalType": "bytes32",
              "name": "askHash",
              "type": "bytes32"
            },
            {
              "internalType": "address",
              "name": "signer",
              "type": "address"
            },
            {
              "internalType": "uint256",
              "name": "amount",
              "type": "uint256"
            },
            {
              "internalType": "uint256",
              "name": "price",
              "type": "uint256"
            },
            {
              "internalType": "address",
              "name": "recipient",
              "type": "address"
            },
            {
              "internalType": "address",
              "name": "referrer",
              "type": "address"
            },
            {
              "internalType": "uint8",
              "name": "v",
              "type": "uint8"
            },
            {
              "internalType": "bytes32",
              "name": "r",
              "type": "bytes32"
            },
            {
              "internalType": "bytes32",
              "name": "s",
              "type": "bytes32"
            }
          ],
          "internalType": "struct Orders.Bid",
          "name": "bidOrder",
          "type": "tuple"
        }
      ],
      "name": "bid",
      "outputs": [
        {
          "internalType": "bool",
          "name": "executed",
          "type": "bool"
        }
      ],
      "stateMutability": "nonpayable",
      "type": "function"
    },
    {
      "inputs": [
        {
          "internalType": "uint256",
          "name": "tokenId",
          "type": "uint256"
        },
        {
          "internalType": "uint256",
          "name": "amount",
          "type": "uint256"
        },
        {
          "internalType": "uint256",
          "name": "label",
          "type": "uint256"
        },
        {
          "internalType": "bytes32",
          "name": "data",
          "type": "bytes32"
        }
      ],
      "name": "burn",
      "outputs": [],
      "stateMutability": "nonpayable",
      "type": "function"
    },
    {
      "inputs": [
        {
          "internalType": "uint256[]",
          "name": "tokenIds",
          "type": "uint256[]"
        },
        {
          "internalType": "uint256[]",
          "name": "amounts",
          "type": "uint256[]"
        }
      ],
      "name": "burnBatch",
      "outputs": [],
      "stateMutability": "nonpayable",
      "type": "function"
    },
    {
      "inputs": [
        {
          "internalType": "address",
          "name": "token",
          "type": "address"
        }
      ],
      "name": "canTrade",
      "outputs": [
        {
          "internalType": "bool",
          "name": "",
          "type": "bool"
        }
      ],
      "stateMutability": "view",
      "type": "function"
    },
    {
      "inputs": [
        {
          "components": [
            {
              "internalType": "address",
              "name": "signer",
              "type": "address"
            },
            {
              "internalType": "address",
              "name": "token",
              "type": "address"
            },
            {
              "internalType": "uint256",
              "name": "tokenId",
              "type": "uint256"
            },
            {
              "internalType": "uint256",
              "name": "amount",
              "type": "uint256"
            },
            {
              "internalType": "address",
              "name": "strategy",
              "type": "address"
            },
            {
              "internalType": "address",
              "name": "currency",
              "type": "address"
            },
            {
              "internalType": "address",
              "name": "recipient",
              "type": "address"
            },
            {
              "internalType": "uint256",
              "name": "deadline",
              "type": "uint256"
            },
            {
              "internalType": "bytes",
              "name": "params",
              "type": "bytes"
            },
            {
              "internalType": "uint8",
              "name": "v",
              "type": "uint8"
            },
            {
              "internalType": "bytes32",
              "name": "r",
              "type": "bytes32"
            },
            {
              "internalType": "bytes32",
              "name": "s",
              "type": "bytes32"
            }
          ],
          "internalType": "struct Orders.Ask",
          "name": "order",
          "type": "tuple"
        }
      ],
      "name": "cancel",
      "outputs": [],
      "stateMutability": "nonpayable",
      "type": "function"
    },
    {
      "inputs": [
        {
          "components": [
            {
              "internalType": "address",
              "name": "signer",
              "type": "address"
            },
            {
              "internalType": "address",
              "name": "token",
              "type": "address"
            },
            {
              "internalType": "uint256",
              "name": "tokenId",
              "type": "uint256"
            },
            {
              "internalType": "uint256",
              "name": "amount",
              "type": "uint256"
            },
            {
              "internalType": "address",
              "name": "strategy",
              "type": "address"
            },
            {
              "internalType": "address",
              "name": "currency",
              "type": "address"
            },
            {
              "internalType": "address",
              "name": "recipient",
              "type": "address"
            },
            {
              "internalType": "uint256",
              "name": "deadline",
              "type": "uint256"
            },
            {
              "internalType": "bytes",
              "name": "params",
              "type": "bytes"
            },
            {
              "internalType": "uint8",
              "name": "v",
              "type": "uint8"
            },
            {
              "internalType": "bytes32",
              "name": "r",
              "type": "bytes32"
            },
            {
              "internalType": "bytes32",
              "name": "s",
              "type": "bytes32"
            }
          ],
          "internalType": "struct Orders.Ask",
          "name": "askOrder",
          "type": "tuple"
        }
      ],
      "name": "claim",
      "outputs": [],
      "stateMutability": "nonpayable",
      "type": "function"
    },
    {
      "inputs": [],
      "name": "factory",
      "outputs": [
        {
          "internalType": "address",
          "name": "",
          "type": "address"
        }
      ],
      "stateMutability": "view",
      "type": "function"
    },
    {
      "inputs": [
        {
          "internalType": "address",
          "name": "_owner",
          "type": "address"
        },
        {
          "internalType": "uint256[]",
          "name": "tokenIds",
          "type": "uint256[]"
        },
        {
          "internalType": "uint256[]",
          "name": "amounts",
          "type": "uint256[]"
        },
        {
          "internalType": "address",
          "name": "royaltyFeeRecipient",
          "type": "address"
        },
        {
          "internalType": "uint8",
          "name": "royaltyFee",
          "type": "uint8"
        }
      ],
      "name": "initialize",
      "outputs": [],
      "stateMutability": "nonpayable",
      "type": "function"
    },
    {
      "inputs": [
        {
          "internalType": "address",
          "name": "_owner",
          "type": "address"
        }
      ],
      "name": "initialize",
      "outputs": [],
      "stateMutability": "nonpayable",
      "type": "function"
    },
    {
      "inputs": [
        {
          "internalType": "address",
          "name": "account",
          "type": "address"
        },
        {
          "internalType": "address",
          "name": "operator",
          "type": "address"
        }
      ],
      "name": "isApprovedForAll",
      "outputs": [
        {
          "internalType": "bool",
          "name": "",
          "type": "bool"
        }
      ],
      "stateMutability": "view",
      "type": "function"
    },
    {
      "inputs": [
        {
          "internalType": "bytes32",
          "name": "",
          "type": "bytes32"
        }
      ],
      "name": "isCancelledOrClaimed",
      "outputs": [
        {
          "internalType": "bool",
          "name": "",
          "type": "bool"
        }
      ],
      "stateMutability": "view",
      "type": "function"
    },
    {
      "inputs": [
        {
          "internalType": "address",
          "name": "to",
          "type": "address"
        },
        {
          "internalType": "uint256",
          "name": "tokenId",
          "type": "uint256"
        },
        {
          "internalType": "uint256",
          "name": "amount",
          "type": "uint256"
        },
        {
          "internalType": "bytes",
          "name": "data",
          "type": "bytes"
        }
      ],
      "name": "mint",
      "outputs": [],
      "stateMutability": "nonpayable",
      "type": "function"
    },
    {
      "inputs": [
        {
          "internalType": "address",
          "name": "to",
          "type": "address"
        },
        {
          "internalType": "uint256[]",
          "name": "tokenIds",
          "type": "uint256[]"
        },
        {
          "internalType": "uint256[]",
          "name": "amounts",
          "type": "uint256[]"
        },
        {
          "internalType": "bytes",
          "name": "data",
          "type": "bytes"
        }
      ],
      "name": "mintBatch",
      "outputs": [],
      "stateMutability": "nonpayable",
      "type": "function"
    },
    {
      "inputs": [
        {
          "internalType": "address",
          "name": "",
          "type": "address"
        }
      ],
      "name": "nonces",
      "outputs": [
        {
          "internalType": "uint256",
          "name": "",
          "type": "uint256"
        }
      ],
      "stateMutability": "view",
      "type": "function"
    },
    {
      "inputs": [],
      "name": "owner",
      "outputs": [
        {
          "internalType": "address",
          "name": "",
          "type": "address"
        }
      ],
      "stateMutability": "view",
      "type": "function"
    },
    {
      "inputs": [
        {
          "internalType": "address",
          "name": "owner",
          "type": "address"
        },
        {
          "internalType": "address",
          "name": "spender",
          "type": "address"
        },
        {
          "internalType": "uint256",
          "name": "deadline",
          "type": "uint256"
        },
        {
          "internalType": "uint8",
          "name": "v",
          "type": "uint8"
        },
        {
          "internalType": "bytes32",
          "name": "r",
          "type": "bytes32"
        },
        {
          "internalType": "bytes32",
          "name": "s",
          "type": "bytes32"
        }
      ],
      "name": "permit",
      "outputs": [],
      "stateMutability": "nonpayable",
      "type": "function"
    },
    {
      "inputs": [],
      "name": "renounceOwnership",
      "outputs": [],
      "stateMutability": "nonpayable",
      "type": "function"
    },
    {
      "inputs": [],
      "name": "royaltyFeeInfo",
      "outputs": [
        {
          "internalType": "address",
          "name": "recipient",
          "type": "address"
        },
        {
          "internalType": "uint8",
          "name": "permil",
          "type": "uint8"
        }
      ],
      "stateMutability": "view",
      "type": "function"
    },
    {
      "inputs": [
        {
          "internalType": "uint256",
          "name": "",
          "type": "uint256"
        },
        {
          "internalType": "uint256",
          "name": "_salePrice",
          "type": "uint256"
        }
      ],
      "name": "royaltyInfo",
      "outputs": [
        {
          "internalType": "address",
          "name": "",
          "type": "address"
        },
        {
          "internalType": "uint256",
          "name": "",
          "type": "uint256"
        }
      ],
      "stateMutability": "view",
      "type": "function"
    },
    {
      "inputs": [
        {
          "internalType": "address",
          "name": "from",
          "type": "address"
        },
        {
          "internalType": "address",
          "name": "to",
          "type": "address"
        },
        {
          "internalType": "uint256[]",
          "name": "ids",
          "type": "uint256[]"
        },
        {
          "internalType": "uint256[]",
          "name": "amounts",
          "type": "uint256[]"
        },
        {
          "internalType": "bytes",
          "name": "data",
          "type": "bytes"
        }
      ],
      "name": "safeBatchTransferFrom",
      "outputs": [],
      "stateMutability": "nonpayable",
      "type": "function"
    },
    {
      "inputs": [
        {
          "internalType": "address",
          "name": "from",
          "type": "address"
        },
        {
          "internalType": "address",
          "name": "to",
          "type": "address"
        },
        {
          "internalType": "uint256",
          "name": "id",
          "type": "uint256"
        },
        {
          "internalType": "uint256",
          "name": "amount",
          "type": "uint256"
        },
        {
          "internalType": "bytes",
          "name": "data",
          "type": "bytes"
        }
      ],
      "name": "safeTransferFrom",
      "outputs": [],
      "stateMutability": "nonpayable",
      "type": "function"
    },
    {
      "inputs": [
        {
          "internalType": "address",
          "name": "operator",
          "type": "address"
        },
        {
          "internalType": "bool",
          "name": "approved",
          "type": "bool"
        }
      ],
      "name": "setApprovalForAll",
      "outputs": [],
      "stateMutability": "nonpayable",
      "type": "function"
    },
    {
      "inputs": [
        {
          "internalType": "string",
          "name": "baseURI",
          "type": "string"
        }
      ],
      "name": "setBaseURI",
      "outputs": [],
      "stateMutability": "nonpayable",
      "type": "function"
    },
    {
      "inputs": [
        {
          "internalType": "uint8",
          "name": "royaltyFee",
          "type": "uint8"
        }
      ],
      "name": "setRoyaltyFee",
      "outputs": [],
      "stateMutability": "nonpayable",
      "type": "function"
    },
    {
      "inputs": [
        {
          "internalType": "address",
          "name": "royaltyFeeRecipient",
          "type": "address"
        }
      ],
      "name": "setRoyaltyFeeRecipient",
      "outputs": [],
      "stateMutability": "nonpayable",
      "type": "function"
    },
    {
      "inputs": [
        {
          "internalType": "uint256",
          "name": "id",
          "type": "uint256"
        },
        {
          "internalType": "string",
          "name": "newURI",
          "type": "string"
        }
      ],
      "name": "setURI",
      "outputs": [],
      "stateMutability": "nonpayable",
      "type": "function"
    },
    {
      "inputs": [
        {
          "internalType": "bytes4",
          "name": "interfaceId",
          "type": "bytes4"
        }
      ],
      "name": "supportsInterface",
      "outputs": [
        {
          "internalType": "bool",
          "name": "",
          "type": "bool"
        }
      ],
      "stateMutability": "view",
      "type": "function"
    },
    {
      "inputs": [
        {
          "internalType": "address",
          "name": "newOwner",
          "type": "address"
        }
      ],
      "name": "transferOwnership",
      "outputs": [],
      "stateMutability": "nonpayable",
      "type": "function"
    },
    {
      "inputs": [
        {
          "internalType": "uint256",
          "name": "id",
          "type": "uint256"
        }
      ],
      "name": "uri",
      "outputs": [
        {
          "internalType": "string",
          "name": "",
          "type": "string"
        }
      ],
      "stateMutability": "view",
      "type": "function"
    }
  ],
  "transactionHash": "0x74e7e806467b695f451728d5d15a77937ec7804de3cdfd30b6c899d111a68581",
  "args": [],
  "solcInputHash": "9a2504d742a83badd396b052d70159f5",
  "bytecode": "0x608060405234801561001057600080fd5b50615126806100206000396000f3fe608060405234801561001057600080fd5b506004361061021a5760003560e01c80635f7ef2fa11610125578063a22cb465116100ad578063def271641161007c578063def271641461059d578063e331a715146105b0578063e985e9c5146105d3578063f242432a146105e6578063f2fde38b146105f95761021a565b8063a22cb4651461054d578063bff5e79d14610560578063c45a015514610573578063c4d66de81461058a5761021a565b806375e6590f116100f457806375e6590f146104c25780637ecebe00146104e257806383ca4b6f14610502578063862440e2146105155780638da5cb5b146105285761021a565b80635f7ef2fa146104815780636ef8e02d14610494578063715018a6146104a7578063731133e9146104af5761021a565b806330adf81f116101a85780634e1273f4116101775780634e1273f41461037057806350bf994a14610390578063559f05dc146103bd57806355f804b3146103dc5780635771f997146103ef5761021a565b806330adf81f1461031b5780633644e5151461034257806344f09d111461034a57806348613c281461035d5761021a565b80630e89341c116101ef5780630e89341c14610290578063177315e3146102b05780631f7fdffa146102c35780632a55205a146102d65780632eb2c2d6146103085761021a565b8062893bf81461021f578062fdd58e1461023457806301ffc9a71461025a5780630935d6631461027d575b600080fd5b61023261022d36600461483b565b61060c565b005b61024761024236600461453f565b6106e9565b6040519081526020015b60405180910390f35b61026d610268366004614754565b610739565b6040519015158152602001610251565b61023261028b36600461483b565b610766565b6102a361029e36600461473c565b610b19565b6040516102519190614c90565b6102326102be366004614a19565b610d57565b6102326102d136600461447c565b610da5565b6102e96102e43660046149f8565b610e0a565b604080516001600160a01b039093168352602083019190915201610251565b61023261031636600461426f565b610e4f565b6102477fdaab21af31ece73a508939fedd476a5ee5129a5ed4bb091f3236ffb45394df6281565b61024761108d565b61026d61035836600461493f565b61109d565b61023261036b36600461437e565b611100565b61038361037e3660046145ec565b61128e565b6040516102519190614c3f565b600f546040805161010083046001600160a01b03168152600160a81b90920460ff16602083015201610251565b61026d6103cb36600461421b565b6001600160a01b0381163014919050565b6102326103ea36600461478c565b6113ad565b6104426103fd36600461473c565b600c602052600090815260409020805460018201546002830154600384015460048501546005909501546001600160a01b039485169593949293918316929091169086565b604080516001600160a01b03978816815260208101969096528501939093529084166060840152909216608082015260a081019190915260c001610251565b61023261048f366004614a4a565b611425565b6102326104a236600461421b565b61145b565b61023261148e565b6102326104bd36600461456a565b611502565b6102476104d036600461473c565b600e6020526000908152604090205481565b6102476104f036600461421b565b600a6020526000908152604090205481565b6102326105103660046146b8565b611561565b6102326105233660046149be565b6115cf565b6004546001600160a01b03165b6040516001600160a01b039091168152602001610251565b61023261055b366004614512565b611655565b61023261056e3660046143e2565b611664565b61053560075461010090046001600160a01b031690565b61023261059836600461421b565b6117cf565b61026d6105ab36600461486d565b61190b565b61026d6105be36600461473c565b600d6020526000908152604090205460ff1681565b61026d6105e1366004614237565b611a49565b6102326105f4366004614318565b611a77565b61023261060736600461421b565b611b5d565b80516001600160a01b0316331461063e5760405162461bcd60e51b815260040161063590614ca3565b60405180910390fd5b600061064982611c39565b6000818152600c60205260409020549091506001600160a01b0316156106a55760405162461bcd60e51b815260206004820152601160248201527053484f59553a204249445f45584953545360781b6044820152606401610635565b6000818152600d6020526040808220805460ff191660011790555182917fe8d9861dbc9c663ed3accd261bbe2fe01e0d3d9e5f51fa38523b265c7757a93a91a25050565b60006001600160a01b0383166107115760405162461bcd60e51b815260040161063590614d45565b5060009081526001602090815260408083206001600160a01b03949094168352929052205490565b600063152a902d60e11b6001600160e01b03198316148061075e575061075e82611d17565b90505b919050565b600b5460ff1615156001141561078e5760405162461bcd60e51b815260040161063590614ccd565b600b805460ff1916600117905560208101516001600160a01b031630146107f15760405162461bcd60e51b815260206004820152601760248201527653484f59553a20494e56414c49445f45584348414e474560481b6044820152606401610635565b60006107fc82611c39565b90506108088282611d67565b61083081836000015184610120015185610140015186610160015161082b61108d565b612044565b6000818152600c6020908152604091829020825160c08101845281546001600160a01b039081168083526001840154948301949094526002830154828601819052600384015482166060840152600480850154831660808086019190915260059095015460a085018190529489015160e08a01516101008b01519851636511995160e01b8152959891909416966365119951966108d896929491939192849284929101614de3565b60206040518083038186803b1580156108f057600080fd5b505afa158015610904573d6000803e3d6000fd5b505050506040513d601f19601f820116820180604052508101906109289190614720565b6109655760405162461bcd60e51b815260206004820152600e60248201526d53484f59553a204641494c55524560901b6044820152606401610635565b60c08301516001600160a01b03811661097c575082515b6000838152600d6020908152604091829020805460ff1916600117905560a0860151845191850151928501516109c09391929185916109bb9190614ebf565b6121fa565b610a0c5760405162461bcd60e51b815260206004820152601f60248201527f53484f59553a204641494c45445f544f5f5452414e534645525f46554e4453006044820152606401610635565b6020808301516000858152600e909252604090912054610a2c9190614e87565b6000848152600e602052604090205560608201516001600160a01b038116610a52575081515b610a6f85602001518660000151838860400151876020015161243d565b6000848152600c6020908152604080832080546001600160a01b03199081168255600182018590556002820185905560038201805482169055600482018054909116905560050192909255845190850151858301516080870151935188947f0642c67a22e8657a7126bb3b9fb3f01965503642f884e4c6a1efd8ed24f46c0d94610b00949093909290918891614c0d565b60405180910390a25050600b805460ff19169055505050565b600081815260096020526040812080546060929190610b3790614f38565b80601f0160208091040260200160405190810160405280929190818152602001828054610b6390614f38565b8015610bb05780601f10610b8557610100808354040283529160200191610bb0565b820191906000526020600020905b815481529060010190602001808311610b9357829003601f168201915b50505050509050600081511115610bc8579050610761565b600060088054610bd790614f38565b80601f0160208091040260200160405190810160405280929190818152602001828054610c0390614f38565b8015610c505780601f10610c2557610100808354040283529160200191610c50565b820191906000526020600020905b815481529060010190602001808311610c3357829003601f168201915b50505050509050600081511115610c8a5780604051602001610c729190614b48565b60405160208183030381529060405292505050610761565b600760019054906101000a90046001600160a01b03166001600160a01b031663c6edbca46040518163ffffffff1660e01b815260040160006040518083038186803b158015610cd857600080fd5b505afa158015610cec573d6000803e3d6000fd5b505050506040513d6000823e601f3d908101601f19168201604052610d1491908101906147be565b90506000610d2330601461248a565b90508181604051602001610d38929190614b04565b6040516020818303038152906040529350505050610761565b50919050565b610d62338585612672565b6040805184815260208101839052839186917fed1397de7c11c080337d84f0acdca9b26b1237affe97a486bb12549594a70731910160405180910390a350505050565b33610db86004546001600160a01b031690565b6001600160a01b03161480610ddc575060075461010090046001600160a01b031633145b610df85760405162461bcd60e51b815260040161063590614ca3565b610e0484848484612764565b50505050565b600f54600090819061010081046001600160a01b0316906103e890610e3990600160a81b900460ff1686614ebf565b610e439190614e9f565b915091505b9250929050565b8151835114610e705760405162461bcd60e51b815260040161063590614d75565b6001600160a01b038416610e965760405162461bcd60e51b815260040161063590614d45565b6001600160a01b038516331480610eb25750610eb28533611a49565b610ece5760405162461bcd60e51b815260040161063590614ca3565b3360005b845181101561101f576000858281518110610efd57634e487b7160e01b600052603260045260246000fd5b602002602001015190506000858381518110610f2957634e487b7160e01b600052603260045260246000fd5b60209081029190910181015160008481526001835260408082206001600160a01b038e168352909352919091205490915081811015610f7a5760405162461bcd60e51b815260040161063590614dac565b610f848282614ede565b6001600085815260200190815260200160002060008c6001600160a01b03166001600160a01b0316815260200190815260200160002081905550816001600085815260200190815260200160002060008b6001600160a01b03166001600160a01b0316815260200190815260200160002060008282546110049190614e87565b925050819055505050508061101890614f99565b9050610ed2565b50846001600160a01b0316866001600160a01b0316826001600160a01b03167f4a39dc06d4c0dbc64b70af90fd698a233a518aa5d07e595d983b8c0526c8f7fb878760405161106f929190614c52565b60405180910390a46110858187878787876128c8565b505050505050565b6000611097612a35565b90505b90565b600b5460009060ff161515600114156110c85760405162461bcd60e51b815260040161063590614ccd565b600b805460ff191660011790556110ec866110e281611c39565b3388888888612ae1565b600b805460ff191690559695505050505050565b834211156111415760405162461bcd60e51b815260206004820152600e60248201526d14d213d6554e881156141254915160921b6044820152606401610635565b6001600160a01b0386166111675760405162461bcd60e51b815260040161063590614d45565b856001600160a01b0316856001600160a01b031614156111c05760405162461bcd60e51b815260206004820152601460248201527353484f59553a204e4f545f4e454345535341525960601b6044820152606401610635565b6001600160a01b038681166000818152600a60209081526040918290205482517fdaab21af31ece73a508939fedd476a5ee5129a5ed4bb091f3236ffb45394df6281840152808401949094529389166060840152608083019390935260a08083018890528151808403909101815260c09092019052805191012061124a818886868661082b61108d565b6001600160a01b0387166000908152600a60205260408120805460019290611273908490614e87565b90915550611285905087876001612f7e565b50505050505050565b606081518351146112b15760405162461bcd60e51b815260040161063590614d75565b600083516001600160401b038111156112da57634e487b7160e01b600052604160045260246000fd5b604051908082528060200260200182016040528015611303578160200160208202803683370190505b50905060005b84518110156113a55761136a85828151811061133557634e487b7160e01b600052603260045260246000fd5b602002602001015185838151811061135d57634e487b7160e01b600052603260045260246000fd5b60200260200101516106e9565b82828151811061138a57634e487b7160e01b600052603260045260246000fd5b602090810291909101015261139e81614f99565b9050611309565b509392505050565b6004546001600160a01b031633146113d75760405162461bcd60e51b815260040161063590614ca3565b80516113ea906008906020840190613f76565b507f23c8c9488efebfd474e85a7956de6f39b17c7ab88502d42a623db2d8e382bbaa8160405161141a9190614c90565b60405180910390a150565b6004546001600160a01b0316331461144f5760405162461bcd60e51b815260040161063590614ca3565b61145881613042565b50565b6004546001600160a01b031633146114855760405162461bcd60e51b815260040161063590614ca3565b6114588161314c565b6004546001600160a01b031633146114b85760405162461bcd60e51b815260040161063590614ca3565b6004546040516000916001600160a01b0316907f8be0079c531659141344cd1fd0a4f28419497f9722a3daafe3b4186f6b6457e0908390a3600480546001600160a01b0319169055565b336115156004546001600160a01b031690565b6001600160a01b03161480611539575060075461010090046001600160a01b031633145b6115555760405162461bcd60e51b815260040161063590614ca3565b610e04848484846131f8565b610e0433858580806020026020016040519081016040528093929190818152602001838360200280828437600092019190915250506040805160208089028281018201909352888252909350889250879182918501908490808284376000920191909152506132af92505050565b6004546001600160a01b031633146115f95760405162461bcd60e51b815260040161063590614ca3565b6000828152600960209081526040909120825161161892840190613f76565b50817fee1bb82f380189104b74a7647d26f2f35679780e816626ffcaec7cafb7288e46826040516116499190614c90565b60405180910390a25050565b611660338383612f7e565b5050565b600054610100900460ff168061167d575060005460ff16155b6116995760405162461bcd60e51b815260040161063590614cf7565b600054610100900460ff161580156116bb576000805461ffff19166101011790555b6116c3613456565b6116cc866117cf565b600760019054906101000a90046001600160a01b03166001600160a01b03166317e1f82e6040518163ffffffff1660e01b815260040160206040518083038186803b15801561171a57600080fd5b505afa15801561172e573d6000803e3d6000fd5b505050506040513d601f19601f820116820180604052508101906117529190614a66565b600f805460ff191660ff929092169190911790558451156117885761178886868660405180602001604052806000815250612764565b6117918361314c565b600f805460ff60a81b191660ff60a81b17905560ff8216156117b6576117b682613042565b8015611085576000805461ff0019169055505050505050565b600054610100900460ff16806117e8575060005460ff16155b6118045760405162461bcd60e51b815260040161063590614cf7565b600054610100900460ff16158015611826576000805461ffff19166101011790555b61183e604051806020016040528060008152506134c9565b6118478261353e565b60078054610100600160a81b0319163361010002179055466006557f8b73c3c69bb8fe3d512ecc4cf759cc79239f7b179b0ffacaa9a75d522b39400f61188c3061359e565b80516020918201206040805192830193909352918101919091527fc89efdaa54c0f20c7adf612882df0950f5a951637e0307cdcb4c672f298b8bc660608201524660808201523060a082015260c00160408051601f1981840301815291905280516020909101206005558015611660576000805461ff00191690555050565b600b5460009060ff161515600114156119365760405162461bcd60e51b815260040161063590614ccd565b600b805460ff19166001179055600061194e84611c39565b835190915081146119995760405162461bcd60e51b81526020600482015260156024820152740a6909eb2aa7440aa9c9a82a886908a88be9082a69605b1b6044820152606401610635565b60208301516001600160a01b03166119eb5760405162461bcd60e51b815260206004820152601560248201527429a427acaa9d1024a72b20a624a22fa9a4a3a722a960591b6044820152606401610635565b611a146119f7846135f3565b84602001518560c001518660e0015187610100015161082b61108d565b611a37848285602001518660400151876060015188608001518960a00151612ae1565b600b805460ff19169055949350505050565b6001600160a01b03918216600090815260026020908152604080832093909416825291909152205460ff1690565b6001600160a01b038416611a9d5760405162461bcd60e51b815260040161063590614d45565b6001600160a01b038516331480611ab95750611ab98533611a49565b611ad55760405162461bcd60e51b815260040161063590614ca3565b33611af5818787611ae58861367e565b611aee8861367e565b5050505050565b611b01868686866136d7565b846001600160a01b0316866001600160a01b0316826001600160a01b03166000805160206150d18339815191528787604051611b47929190918252602082015260400190565b60405180910390a461108581878787878761376e565b6004546001600160a01b03163314611b875760405162461bcd60e51b815260040161063590614ca3565b6001600160a01b038116611bdd5760405162461bcd60e51b815260206004820152601860248201527f53484f59553a20494e56414c49445f4e45575f4f574e455200000000000000006044820152606401610635565b6004546040516001600160a01b038084169216907f8be0079c531659141344cd1fd0a4f28419497f9722a3daafe3b4186f6b6457e090600090a3600480546001600160a01b0319166001600160a01b0392909216919091179055565b80516020808301516040808501516060860151608087015160a088015160c089015160e08a01516101008b01518051908a0120965160009a611cfa9a7f17fdf8831f8bd77353b30f42ba9bc64e7144545a42a890389f298feeb45dec889a9199919897969594939201998a526001600160a01b0398891660208b015296881660408a01526060890195909552608088019390935290851660a0870152841660c086015290921660e08401526101008301919091526101208201526101400190565b604051602081830303815290604052805190602001209050919050565b60006001600160e01b03198216636cdb3d1360e11b1480611d4857506001600160e01b031982166303a24d0760e21b145b8061075e57506301ffc9a760e01b6001600160e01b031983161461075e565b6000818152600d602052604090205460ff1615611dc65760405162461bcd60e51b815260206004820152601b60248201527f53484f59553a2043414e43454c4c45445f4f525f434c41494d454400000000006044820152606401610635565b81516001600160a01b0316611e145760405162461bcd60e51b815260206004820152601460248201527329a427acaa9d1024a72b20a624a22fa6a0a5a2a960611b6044820152606401610635565b60208201516001600160a01b0316611e635760405162461bcd60e51b815260206004820152601260248201527114d213d6554e881253959053125117d3919560721b6044820152606401610635565b6000826060015111611eaf5760405162461bcd60e51b815260206004820152601560248201527414d213d6554e881253959053125117d05353d55395605a1b6044820152606401610635565b60808201516001600160a01b0316611f095760405162461bcd60e51b815260206004820152601760248201527f53484f59553a20494e56414c49445f53545241544547590000000000000000006044820152606401610635565b60a08201516001600160a01b0316611f635760405162461bcd60e51b815260206004820152601760248201527f53484f59553a20494e56414c49445f43555252454e43590000000000000000006044820152606401610635565b611f7a60075461010090046001600160a01b031690565b6080830151604051632666e89f60e21b81526001600160a01b03918216600482015291169063999ba27c9060240160206040518083038186803b158015611fc057600080fd5b505afa158015611fd4573d6000803e3d6000fd5b505050506040513d601f19601f82011682018060405250810190611ff89190614720565b6116605760405162461bcd60e51b815260206004820152601f60248201527f53484f59553a2053545241544547595f4e4f545f57484954454c4953544544006044820152606401610635565b60405161190160f01b60208201526022810182905260428101879052600090606201604051602081830303815290604052805190602001209050612088863b151590565b1561219857604080516020810186905280820185905260f887901b6001600160f81b0319166060820152815160418183030181526061820192839052630b135d3f60e11b9092526001600160a01b03881691631626ba7e916120ee918591606501614c77565b60206040518083038186803b15801561210657600080fd5b505afa15801561211a573d6000803e3d6000fd5b505050506040513d601f19601f8201168201806040525081019061213e9190614770565b6001600160e01b031916631626ba7e60e01b146121935760405162461bcd60e51b815260206004820152601360248201527214d213d6554e8815539055551213d492569151606a1b6044820152606401610635565b611285565b856001600160a01b03166121ae82878787613862565b6001600160a01b0316146112855760405162461bcd60e51b815260206004820152601360248201527214d213d6554e8815539055551213d492569151606a1b6044820152606401610635565b6000612208858530856139f5565b61221457506000612435565b600061222d60075461010090046001600160a01b031690565b90506000839050600080836001600160a01b031663aec0b5436040518163ffffffff1660e01b8152600401604080518083038186803b15801561226f57600080fd5b505afa158015612283573d6000803e3d6000fd5b505050506040513d601f19601f820116820180604052508101906122a791906145be565b909250905060006103e86122be60ff841689614ebf565b6122c89190614e9f565b90506122de6001600160a01b038b168483613ac7565b6122e88185614ede565b9350505050600080836001600160a01b031663c2b11e186040518163ffffffff1660e01b8152600401604080518083038186803b15801561232857600080fd5b505afa15801561233c573d6000803e3d6000fd5b505050506040513d601f19601f8201168201806040525081019061236091906145be565b909250905060006103e861237760ff841689614ebf565b6123819190614e9f565b90506123976001600160a01b038b168483613ac7565b6123a18185614ede565b93505050506000806123cc600f5461010081046001600160a01b031691600160a81b90910460ff1690565b909250905060ff808216146124185760006103e86123ed60ff841686614ebf565b6123f79190614e9f565b90508015612416576124098185614ede565b93506124168a8483613b1e565b505b61242c6001600160a01b038a168885613ac7565b60019450505050505b949350505050565b612449848484846136d7565b60408051838152602081018390526001600160a01b03808616929087169133916000805160206150d183398151915291015b60405180910390a45050505050565b60606000612499836002614ebf565b6124a4906002614e87565b6001600160401b038111156124c957634e487b7160e01b600052604160045260246000fd5b6040519080825280601f01601f1916602001820160405280156124f3576020820181803683370190505b509050600360fc1b8160008151811061251c57634e487b7160e01b600052603260045260246000fd5b60200101906001600160f81b031916908160001a905350600f60fb1b8160018151811061255957634e487b7160e01b600052603260045260246000fd5b60200101906001600160f81b031916908160001a905350600061257d846002614ebf565b612588906001614e87565b90505b600181111561261c576f181899199a1a9b1b9c1cb0b131b232b360811b85600f16601081106125ca57634e487b7160e01b600052603260045260246000fd5b1a60f81b8282815181106125ee57634e487b7160e01b600052603260045260246000fd5b60200101906001600160f81b031916908160001a90535060049490941c9361261581614f21565b905061258b565b50831561266b5760405162461bcd60e51b815260206004820181905260248201527f537472696e67733a20686578206c656e67746820696e73756666696369656e746044820152606401610635565b9392505050565b6001600160a01b0383166126985760405162461bcd60e51b815260040161063590614d45565b336126c8818560006126a98761367e565b6126b28761367e565b5050604080516020810190915260009052505050565b60008381526001602090815260408083206001600160a01b03881684529091529020548281101561270b5760405162461bcd60e51b815260040161063590614dac565b6127158382614ede565b60008581526001602090815260408083206001600160a01b038a811680865291845282852095909555815189815292830188905292938616916000805160206150d1833981519152910161247b565b6001600160a01b03841661278a5760405162461bcd60e51b815260040161063590614d45565b81518351146127ab5760405162461bcd60e51b815260040161063590614d75565b3360005b8451811015612864578381815181106127d857634e487b7160e01b600052603260045260246000fd5b60200260200101516001600087848151811061280457634e487b7160e01b600052603260045260246000fd5b602002602001015181526020019081526020016000206000886001600160a01b03166001600160a01b03168152602001908152602001600020600082825461284c9190614e87565b9091555081905061285c81614f99565b9150506127af565b50846001600160a01b031660006001600160a01b0316826001600160a01b03167f4a39dc06d4c0dbc64b70af90fd698a233a518aa5d07e595d983b8c0526c8f7fb87876040516128b5929190614c52565b60405180910390a4611aee816000878787875b6001600160a01b0384163b156110855760405163bc197c8160e01b81526001600160a01b0385169063bc197c819061290c9089908990889088908890600401614b75565b602060405180830381600087803b15801561292657600080fd5b505af1925050508015612956575060408051601f3d908101601f1916820190925261295391810190614770565b60015b6129db57612962614fe0565b806308c379a0141561299c5750612977614ff7565b80612982575061299e565b8060405162461bcd60e51b81526004016106359190614c90565b505b60405162461bcd60e51b815260206004820152601260248201527129a427acaa9d102727afa922a1a2a4ab22a960711b6044820152606401610635565b6001600160e01b0319811663bc197c8160e01b146112855760405162461bcd60e51b815260206004820152601760248201527629a427acaa9d1024a72b20a624a22fa922a1a2a4ab22a960491b6044820152606401610635565b600080466006541415612a4b5750600554611097565b7f8b73c3c69bb8fe3d512ecc4cf759cc79239f7b179b0ffacaa9a75d522b39400f612a753061359e565b80516020918201206040805192830193909352918101919091527fc89efdaa54c0f20c7adf612882df0950f5a951637e0307cdcb4c672f298b8bc660608201524660808201523060a082015260c001604051602081830303815290604052805190602001209050905090565b60208701516000906001600160a01b03163014612b3a5760405162461bcd60e51b815260206004820152601760248201527653484f59553a20494e56414c49445f45584348414e474560481b6044820152606401610635565b60008511612b825760405162461bcd60e51b815260206004820152601560248201527414d213d6554e881253959053125117d05353d55395605a1b6044820152606401610635565b6000878152600e60205260409020546060890151612ba08783614e87565b1115612be05760405162461bcd60e51b815260206004820152600f60248201526e14d213d6554e8814d3d31117d3d555608a1b6044820152606401610635565b612bea8989611d67565b612c0d888a600001518b61012001518c61014001518d610160015161082b61108d565b6000600c60008a8152602001908152602001600020905089608001516001600160a01b031663651199518b60e001518c61010001518b8a8660000160009054906101000a90046001600160a01b0316876002015488600501546040518863ffffffff1660e01b8152600401612c889796959493929190614de3565b60206040518083038186803b158015612ca057600080fd5b505afa158015612cb4573d6000803e3d6000fd5b505050506040513d601f19601f82011682018060405250810190612cd89190614720565b15612de557612ce78783614e87565b60008a8152600e602052604090205560c08a01516001600160a01b038116612d0d575089515b60a08b0151612d22908a836109bb8c8c614ebf565b612d6e5760405162461bcd60e51b815260206004820152601f60248201527f53484f59553a204641494c45445f544f5f5452414e534645525f46554e4453006044820152606401610635565b6001600160a01b038616612d80578895505b612d998b602001518c60000151888e604001518c61243d565b897f0642c67a22e8657a7126bb3b9fb3f01965503642f884e4c6a1efd8ed24f46c0d8a8a8a8a8a604051612dd1959493929190614c0d565b60405180910390a260019350505050612f73565b89608001516001600160a01b0316635f11a72b8b60e001518c61010001518b8a8660000160009054906101000a90046001600160a01b0316876002015488600501546040518863ffffffff1660e01b8152600401612e499796959493929190614de3565b60206040518083038186803b158015612e6157600080fd5b505afa158015612e75573d6000803e3d6000fd5b505050506040513d601f19601f82011682018060405250810190612e999190614720565b15612f3a5780546001600160a01b03808a166001600160a01b031992831617835560018301899055600283018890556003830180548883169084161790556004830180549187169190921617905543600582015560405189907f4055f76fe1f351fec66b9ba790ddbdc29eb45c038163a6b1327277441a8c65f190612f27908b908b908b908b908b90614c0d565b60405180910390a2600092505050612f73565b60405162461bcd60e51b815260206004820152600e60248201526d53484f59553a204641494c55524560901b6044820152606401610635565b979650505050505050565b816001600160a01b0316836001600160a01b03161415612fd55760405162461bcd60e51b815260206004820152601260248201527114d213d6554e881393d517d0531313d5d15160721b6044820152606401610635565b6001600160a01b03838116600081815260026020908152604080832094871680845294825291829020805460ff191686151590811790915591519182527f17307eab39ab6107e8899845ad3d59bd9653f200f220920489ca2b5937696c31910160405180910390a3505050565b600f54600160a81b900460ff90811614156130aa57600f5460ff90811690821611156130a55760405162461bcd60e51b815260206004820152601260248201527153484f59553a20494e56414c49445f46454560701b6044820152606401610635565b6130fe565b600f5460ff600160a81b9091048116908216106130fe5760405162461bcd60e51b815260206004820152601260248201527153484f59553a20494e56414c49445f46454560701b6044820152606401610635565b600f805460ff60a81b1916600160a81b60ff8416908102919091179091556040519081527fd9ac3bc8ad92267d0b101786ddb4d37746ed1e3ee77637846294edf17dd9eb8a9060200161141a565b6001600160a01b0381166131a25760405162461bcd60e51b815260206004820152601c60248201527f53484f59553a20494e56414c49445f4645455f524543495049454e54000000006044820152606401610635565b600f8054610100600160a81b0319166101006001600160a01b038416908102919091179091556040519081527f1ce5f25607cb1a4fa6c947b55700213a9ed6a1d7ef1cf1d02ab467efd02a993e9060200161141a565b6001600160a01b03841661321e5760405162461bcd60e51b815260040161063590614d45565b3361322f81600087611ae58861367e565b60008481526001602090815260408083206001600160a01b038916845290915281208054859290613261908490614e87565b909155505060408051858152602081018590526001600160a01b0380881692600092918516916000805160206150d1833981519152910160405180910390a4611aee8160008787878761376e565b6001600160a01b0383166132d55760405162461bcd60e51b815260040161063590614d45565b80518251146132f65760405162461bcd60e51b815260040161063590614d75565b6040805160208101909152600090523360005b83518110156133f757600084828151811061333457634e487b7160e01b600052603260045260246000fd5b60200260200101519050600084838151811061336057634e487b7160e01b600052603260045260246000fd5b60209081029190910181015160008481526001835260408082206001600160a01b038c1683529093529190912054909150818110156133b15760405162461bcd60e51b815260040161063590614dac565b6133bb8282614ede565b60009384526001602090815260408086206001600160a01b038c16875290915290932092909255508190506133ef81614f99565b915050613309565b5060006001600160a01b0316846001600160a01b0316826001600160a01b03167f4a39dc06d4c0dbc64b70af90fd698a233a518aa5d07e595d983b8c0526c8f7fb8686604051613448929190614c52565b60405180910390a450505050565b600054610100900460ff168061346f575060005460ff16155b61348b5760405162461bcd60e51b815260040161063590614cf7565b600054610100900460ff161580156134ad576000805461ffff19166101011790555b6134b5613bad565b8015611458576000805461ff001916905550565b600054610100900460ff16806134e2575060005460ff16155b6134fe5760405162461bcd60e51b815260040161063590614cf7565b600054610100900460ff16158015613520576000805461ffff19166101011790555b61352982613c0c565b8015611660576000805461ff00191690555050565b600054610100900460ff1680613557575060005460ff16155b6135735760405162461bcd60e51b815260040161063590614cf7565b600054610100900460ff16158015613595576000805461ffff19166101011790555b61352982613c6c565b6060816135c657506040805180820190915260048152630307830360e41b6020820152610761565b8160005b81156135e957806135da81614f99565b915050600882901c91506135ca565b612435848261248a565b80516020808301516040808501516060860151608087015160a08801519351600097611cfa977fb98e1dc48988064e6dfb813618609d7da80a8841e5f277039788ac4b50d497b297919691959493920196875260208701959095526001600160a01b03938416604087015260608601929092526080850152811660a08401521660c082015260e00190565b604080516001808252818301909252606091600091906020808301908036833701905050905082816000815181106136c657634e487b7160e01b600052603260045260246000fd5b602090810291909101015292915050565b60008281526001602090815260408083206001600160a01b03881684529091529020548181101561371a5760405162461bcd60e51b815260040161063590614dac565b6137248282614ede565b60008481526001602090815260408083206001600160a01b038a81168552925280832093909355861681529081208054849290613762908490614e87565b90915550505050505050565b6001600160a01b0384163b156110855760405163f23a6e6160e01b81526001600160a01b0385169063f23a6e61906137b29089908990889088908890600401614bd3565b602060405180830381600087803b1580156137cc57600080fd5b505af19250505080156137fc575060408051601f3d908101601f191682019092526137f991810190614770565b60015b61380857612962614fe0565b6001600160e01b0319811663f23a6e6160e01b146112855760405162461bcd60e51b815260206004820152601760248201527629a427acaa9d1024a72b20a624a22fa922a1a2a4ab22a960491b6044820152606401610635565b60007f7fffffffffffffffffffffffffffffff5d576e7357a4501ddfe92f46681b20a08211156138d45760405162461bcd60e51b815260206004820181905260248201527f53484f59553a20494e56414c49445f5349474e41545552455f535f56414c55456044820152606401610635565b8360ff16601b14806138e957508360ff16601c145b6139355760405162461bcd60e51b815260206004820181905260248201527f53484f59553a20494e56414c49445f5349474e41545552455f565f56414c55456044820152606401610635565b6040805160008082526020820180845288905260ff871692820192909252606081018590526080810184905260019060a0016020604051602081039080840390855afa158015613989573d6000803e3d6000fd5b5050604051601f1901519150506001600160a01b0381166139ec5760405162461bcd60e51b815260206004820152601860248201527f53484f59553a20494e56414c49445f5349474e415455524500000000000000006044820152606401610635565b95945050505050565b604080516001600160a01b0385811660248301528481166044830152606480830185905283518084039091018152608490920183526020820180516001600160e01b03166323b872dd60e01b17905291516000928392839291891691613a5b9190614ae8565b6000604051808303816000865af19150503d8060008114613a98576040519150601f19603f3d011682016040523d82523d6000602084013e613a9d565b606091505b5091509150818015612f73575080511580612f73575080806020019051810190612f739190614720565b604080516001600160a01b038416602482015260448082018490528251808303909101815260649091019091526020810180516001600160e01b031663a9059cbb60e01b179052613b19908490613d21565b505050565b613b326001600160a01b0384168383613ac7565b813b15613b1957816001600160a01b031663fff6cae96040518163ffffffff1660e01b8152600401602060405180830381600087803b158015613b7457600080fd5b505af1925050508015613ba4575060408051601f3d908101601f19168201909252613ba1918101906149a6565b60015b610e0457613b19565b600054610100900460ff1680613bc6575060005460ff16155b613be25760405162461bcd60e51b815260040161063590614cf7565b600054610100900460ff16158015613c04576000805461ffff19166101011790555b6134b5613df3565b600054610100900460ff1680613c25575060005460ff16155b613c415760405162461bcd60e51b815260040161063590614cf7565b600054610100900460ff16158015613c63576000805461ffff19166101011790555b61352982613e68565b600054610100900460ff1680613c85575060005460ff16155b613ca15760405162461bcd60e51b815260040161063590614cf7565b600054610100900460ff16158015613cc3576000805461ffff19166101011790555b600480546001600160a01b0319166001600160a01b0384169081179091556040516000907f8be0079c531659141344cd1fd0a4f28419497f9722a3daafe3b4186f6b6457e0908290a38015611660576000805461ff00191690555050565b6000613d76826040518060400160405280602081526020017f5361666545524332303a206c6f772d6c6576656c2063616c6c206661696c6564815250856001600160a01b0316613e7b9092919063ffffffff16565b805190915015613b195780806020019051810190613d949190614720565b613b195760405162461bcd60e51b815260206004820152602a60248201527f5361666545524332303a204552433230206f7065726174696f6e20646964206e6044820152691bdd081cdd58d8d9595960b21b6064820152608401610635565b600054610100900460ff1680613e0c575060005460ff16155b613e285760405162461bcd60e51b815260040161063590614cf7565b600054610100900460ff16158015613e4a576000805461ffff19166101011790555b600b805460ff191690558015611458576000805461ff001916905550565b8051611660906003906020840190613f76565b6060612435848460008585843b613ed45760405162461bcd60e51b815260206004820152601d60248201527f416464726573733a2063616c6c20746f206e6f6e2d636f6e74726163740000006044820152606401610635565b600080866001600160a01b03168587604051613ef09190614ae8565b60006040518083038185875af1925050503d8060008114613f2d576040519150601f19603f3d011682016040523d82523d6000602084013e613f32565b606091505b5091509150612f7382828660608315613f4c57508161266b565b825115613f5c5782518084602001fd5b8160405162461bcd60e51b81526004016106359190614c90565b828054613f8290614f38565b90600052602060002090601f016020900481019282613fa45760008555613fea565b82601f10613fbd57805160ff1916838001178555613fea565b82800160010185558215613fea579182015b82811115613fea578251825591602001919060010190613fcf565b50613ff6929150613ffa565b5090565b5b80821115613ff65760008155600101613ffb565b803561076181615088565b60008083601f84011261402b578182fd5b5081356001600160401b03811115614041578182fd5b6020830191508360208260051b8501011115610e4857600080fd5b600082601f83011261406c578081fd5b8135602061407982614e3d565b6040516140868282614f6d565b8381528281019150858301600585901b870184018810156140a5578586fd5b855b858110156140c3578135845292840192908401906001016140a7565b5090979650505050505050565b600082601f8301126140e0578081fd5b81356140eb81614e60565b6040516140f88282614f6d565b82815285602084870101111561410c578384fd5b82602086016020830137918201602001929092529392505050565b600061018080838503121561413a578182fd5b61414381614e30565b91505061414f8261400f565b815261415d6020830161400f565b602082015260408201356040820152606082013560608201526141826080830161400f565b608082015261419360a0830161400f565b60a08201526141a460c0830161400f565b60c082015260e082013560e0820152610100808301356001600160401b038111156141ce57600080fd5b6141da858286016140d0565b8284015250506101206141ee818401614210565b9082015261014082810135908201526101609182013591810191909152919050565b8035610761816150c1565b60006020828403121561422c578081fd5b813561266b81615088565b60008060408385031215614249578081fd5b823561425481615088565b9150602083013561426481615088565b809150509250929050565b600080600080600060a08688031215614286578081fd5b853561429181615088565b945060208601356142a181615088565b935060408601356001600160401b03808211156142bc578283fd5b6142c889838a0161405c565b945060608801359150808211156142dd578283fd5b6142e989838a0161405c565b935060808801359150808211156142fe578283fd5b5061430b888289016140d0565b9150509295509295909350565b600080600080600060a0868803121561432f578283fd5b853561433a81615088565b9450602086013561434a81615088565b9350604086013592506060860135915060808601356001600160401b03811115614372578182fd5b61430b888289016140d0565b60008060008060008060c08789031215614396578384fd5b86356143a181615088565b955060208701356143b181615088565b94506040870135935060608701356143c8816150c1565b9598949750929560808101359460a0909101359350915050565b600080600080600060a086880312156143f9578283fd5b853561440481615088565b945060208601356001600160401b038082111561441f578485fd5b61442b89838a0161405c565b95506040880135915080821115614440578485fd5b5061444d8882890161405c565b935050606086013561445e81615088565b9150608086013561446e816150c1565b809150509295509295909350565b60008060008060808587031215614491578182fd5b843561449c81615088565b935060208501356001600160401b03808211156144b7578384fd5b6144c38883890161405c565b945060408701359150808211156144d8578384fd5b6144e48883890161405c565b935060608701359150808211156144f9578283fd5b50614506878288016140d0565b91505092959194509250565b60008060408385031215614524578182fd5b823561452f81615088565b915060208301356142648161509d565b60008060408385031215614551578182fd5b823561455c81615088565b946020939093013593505050565b6000806000806080858703121561457f578182fd5b843561458a81615088565b9350602085013592506040850135915060608501356001600160401b038111156145b2578182fd5b614506878288016140d0565b600080604083850312156145d0578182fd5b82516145db81615088565b6020840151909250614264816150c1565b600080604083850312156145fe578182fd5b82356001600160401b0380821115614614578384fd5b818501915085601f830112614627578384fd5b8135602061463482614e3d565b6040516146418282614f6d565b8381528281019150858301600585901b870184018b1015614660578889fd5b8896505b8487101561468b57803561467781615088565b835260019690960195918301918301614664565b50965050860135925050808211156146a1578283fd5b506146ae8582860161405c565b9150509250929050565b600080600080604085870312156146cd578182fd5b84356001600160401b03808211156146e3578384fd5b6146ef8883890161401a565b90965094506020870135915080821115614707578384fd5b506147148782880161401a565b95989497509550505050565b600060208284031215614731578081fd5b815161266b8161509d565b60006020828403121561474d578081fd5b5035919050565b600060208284031215614765578081fd5b813561266b816150ab565b600060208284031215614781578081fd5b815161266b816150ab565b60006020828403121561479d578081fd5b81356001600160401b038111156147b2578182fd5b612435848285016140d0565b6000602082840312156147cf578081fd5b81516001600160401b038111156147e4578182fd5b8201601f810184136147f4578182fd5b80516147ff81614e60565b60405161480c8282614f6d565b828152866020848601011115614820578485fd5b614831836020830160208701614ef5565b9695505050505050565b60006020828403121561484c578081fd5b81356001600160401b03811115614861578182fd5b61243584828501614127565b600080828403610140811215614881578283fd5b83356001600160401b03811115614896578384fd5b6148a286828701614127565b93505061012080601f19830112156148b8578283fd5b6148c181614e30565b9150602085013582526148d66040860161400f565b602083015260608501356040830152608085013560608301526148fb60a0860161400f565b608083015261490c60c0860161400f565b60a083015261491d60e08601614210565b60c08301526101008581013560e0840152940135938101939093525092909150565b600080600080600060a08688031215614956578283fd5b85356001600160401b0381111561496b578384fd5b61497788828901614127565b9550506020860135935060408601359250606086013561499681615088565b9150608086013561446e81615088565b6000602082840312156149b7578081fd5b5051919050565b600080604083850312156149d0578182fd5b8235915060208301356001600160401b038111156149ec578182fd5b6146ae858286016140d0565b60008060408385031215614a0a578182fd5b50508035926020909101359150565b60008060008060808587031215614a2e578182fd5b5050823594602084013594506040840135936060013592509050565b600060208284031215614a5b578081fd5b813561266b816150c1565b600060208284031215614a77578081fd5b815161266b816150c1565b6000815180845260208085019450808401835b83811015614ab157815187529582019590820190600101614a95565b509495945050505050565b60008151808452614ad4816020860160208601614ef5565b601f01601f19169290920160200192915050565b60008251614afa818460208701614ef5565b9190910192915050565b60008351614b16818460208801614ef5565b835190830190614b2a818360208801614ef5565b6917bdb4b23e973539b7b760b11b9101908152600a01949350505050565b60008251614b5a818460208701614ef5565b683db4b23e973539b7b760b91b920191825250600901919050565b6001600160a01b0386811682528516602082015260a060408201819052600090614ba190830186614a82565b8281036060840152614bb38186614a82565b90508281036080840152614bc78185614abc565b98975050505050505050565b6001600160a01b03868116825285166020820152604081018490526060810183905260a060808201819052600090612f7390830184614abc565b6001600160a01b0395861681526020810194909452604084019290925283166060830152909116608082015260a00190565b60006020825261266b6020830184614a82565b600060408252614c656040830185614a82565b82810360208401526139ec8185614a82565b6000838252604060208301526124356040830184614abc565b60006020825261266b6020830184614abc565b60208082526010908201526f29a427acaa9d102327a92124a22222a760811b604082015260600190565b60208082526010908201526f14d213d6554e8814915153951490539560821b604082015260600190565b6020808252602e908201527f496e697469616c697a61626c653a20636f6e747261637420697320616c72656160408201526d191e481a5b9a5d1a585b1a5e995960921b606082015260800190565b60208082526016908201527553484f59553a20494e56414c49445f4144445245535360501b604082015260600190565b60208082526018908201527f53484f59553a204c454e475448535f4e4f545f455155414c0000000000000000604082015260600190565b6020808252601b908201527f53484f59553a20494e53554646494349454e545f42414c414e43450000000000604082015260600190565b600088825260e06020830152614dfc60e0830189614abc565b6001600160a01b03978816604084015260608301969096525092909416608083015260a082015260c0019190915292915050565b6040516107618282614f6d565b60006001600160401b03821115614e5657614e56614fca565b5060051b60200190565b60006001600160401b03821115614e7957614e79614fca565b50601f01601f191660200190565b60008219821115614e9a57614e9a614fb4565b500190565b600082614eba57634e487b7160e01b81526012600452602481fd5b500490565b6000816000190483118215151615614ed957614ed9614fb4565b500290565b600082821015614ef057614ef0614fb4565b500390565b60005b83811015614f10578181015183820152602001614ef8565b83811115610e045750506000910152565b600081614f3057614f30614fb4565b506000190190565b600181811c90821680614f4c57607f821691505b60208210811415610d5157634e487b7160e01b600052602260045260246000fd5b601f8201601f191681016001600160401b0381118282101715614f9257614f92614fca565b6040525050565b6000600019821415614fad57614fad614fb4565b5060010190565b634e487b7160e01b600052601160045260246000fd5b634e487b7160e01b600052604160045260246000fd5b600060033d111561109a57600481823e5160e01c90565b600060443d10156150075761109a565b6040516003193d81016004833e81513d6001600160401b03816024840111818411171561503857505050505061109a565b82850191508151818111156150525750505050505061109a565b843d870101602082850101111561506e5750505050505061109a565b61507d60208286010187614f6d565b509094505050505090565b6001600160a01b038116811461145857600080fd5b801515811461145857600080fd5b6001600160e01b03198116811461145857600080fd5b60ff8116811461145857600080fdfec3d58168c5ae7397731d063d5bbf3d657854427343f4c083240f7aacaa2d0f62a2646970667358221220db0b002dff48c1a1ccef30980f6d825c6974d448459078fb34b6a3b922ffdf3964736f6c63430008030033",
  "devdoc": {
    "kind": "dev",
    "methods": {
      "balanceOf(address,uint256)": {
        "details": "See {IERC1155-balanceOf}. Requirements: - `account` cannot be the zero address."
      },
      "balanceOfBatch(address[],uint256[])": {
        "details": "See {IERC1155-balanceOfBatch}. Requirements: - `accounts` and `ids` must have the same length."
      },
      "isApprovedForAll(address,address)": {
        "details": "See {IERC1155-isApprovedForAll}."
      },
      "owner()": {
        "details": "Returns the address of the current owner."
      },
      "renounceOwnership()": {
        "details": "Leaves the contract without owner. It will not be possible to call `onlyOwner` functions anymore. Can only be called by the current owner. NOTE: Renouncing ownership will leave the contract without an owner, thereby removing any functionality that is only available to the owner."
      },
      "safeBatchTransferFrom(address,address,uint256[],uint256[],bytes)": {
        "details": "See {IERC1155-safeBatchTransferFrom}."
      },
      "safeTransferFrom(address,address,uint256,uint256,bytes)": {
        "details": "See {IERC1155-safeTransferFrom}."
      },
      "setApprovalForAll(address,bool)": {
        "details": "See {IERC1155-setApprovalForAll}."
      },
      "transferOwnership(address)": {
        "details": "Transfers ownership of the contract to a new account (`newOwner`). Can only be called by the current owner."
      }
    },
    "version": 1
  },
  "userdoc": {
    "kind": "user",
    "methods": {},
    "version": 1
  },
  "storageLayout": {
    "storage": [
      {
        "astId": 115,
        "contract": "contracts/NFT1155V0.sol:NFT1155V0",
        "label": "_initialized",
        "offset": 0,
        "slot": "0",
        "type": "t_bool"
      },
      {
        "astId": 118,
        "contract": "contracts/NFT1155V0.sol:NFT1155V0",
        "label": "_initializing",
        "offset": 1,
        "slot": "0",
        "type": "t_bool"
      },
      {
        "astId": 7177,
        "contract": "contracts/NFT1155V0.sol:NFT1155V0",
        "label": "_balances",
        "offset": 0,
        "slot": "1",
        "type": "t_mapping(t_uint256,t_mapping(t_address,t_uint256))"
      },
      {
        "astId": 7183,
        "contract": "contracts/NFT1155V0.sol:NFT1155V0",
        "label": "_operatorApprovals",
        "offset": 0,
        "slot": "2",
        "type": "t_mapping(t_address,t_mapping(t_address,t_bool))"
      },
      {
        "astId": 7185,
        "contract": "contracts/NFT1155V0.sol:NFT1155V0",
        "label": "_uri",
        "offset": 0,
        "slot": "3",
        "type": "t_string_storage"
      },
      {
        "astId": 9660,
        "contract": "contracts/NFT1155V0.sol:NFT1155V0",
        "label": "_owner",
        "offset": 0,
        "slot": "4",
        "type": "t_address"
      },
      {
        "astId": 5679,
        "contract": "contracts/NFT1155V0.sol:NFT1155V0",
        "label": "_DOMAIN_SEPARATOR",
        "offset": 0,
        "slot": "5",
        "type": "t_bytes32"
      },
      {
        "astId": 5681,
        "contract": "contracts/NFT1155V0.sol:NFT1155V0",
        "label": "_CACHED_CHAIN_ID",
        "offset": 0,
        "slot": "6",
        "type": "t_uint256"
      },
      {
        "astId": 5683,
        "contract": "contracts/NFT1155V0.sol:NFT1155V0",
        "label": "MAX_ROYALTY_FEE",
        "offset": 0,
        "slot": "7",
        "type": "t_uint8"
      },
      {
        "astId": 5685,
        "contract": "contracts/NFT1155V0.sol:NFT1155V0",
        "label": "_factory",
        "offset": 1,
        "slot": "7",
        "type": "t_address"
      },
      {
        "astId": 5687,
        "contract": "contracts/NFT1155V0.sol:NFT1155V0",
        "label": "_baseURI",
        "offset": 0,
        "slot": "8",
        "type": "t_string_storage"
      },
      {
        "astId": 5691,
        "contract": "contracts/NFT1155V0.sol:NFT1155V0",
        "label": "_uris",
        "offset": 0,
        "slot": "9",
        "type": "t_mapping(t_uint256,t_string_storage)"
      },
      {
        "astId": 5696,
        "contract": "contracts/NFT1155V0.sol:NFT1155V0",
        "label": "nonces",
        "offset": 0,
        "slot": "10",
        "type": "t_mapping(t_address,t_uint256)"
      },
      {
        "astId": 9840,
        "contract": "contracts/NFT1155V0.sol:NFT1155V0",
        "label": "_status",
        "offset": 0,
        "slot": "11",
        "type": "t_bool"
      },
      {
        "astId": 4688,
        "contract": "contracts/NFT1155V0.sol:NFT1155V0",
        "label": "bestBid",
        "offset": 0,
        "slot": "12",
        "type": "t_mapping(t_bytes32,t_struct(BestBid)4682_storage)"
      },
      {
        "astId": 4693,
        "contract": "contracts/NFT1155V0.sol:NFT1155V0",
        "label": "isCancelledOrClaimed",
        "offset": 0,
        "slot": "13",
        "type": "t_mapping(t_bytes32,t_bool)"
      },
      {
        "astId": 4698,
        "contract": "contracts/NFT1155V0.sol:NFT1155V0",
        "label": "amountFilled",
        "offset": 0,
        "slot": "14",
        "type": "t_mapping(t_bytes32,t_uint256)"
      },
      {
        "astId": 2202,
        "contract": "contracts/NFT1155V0.sol:NFT1155V0",
        "label": "_MAX_ROYALTY_FEE",
        "offset": 0,
        "slot": "15",
        "type": "t_uint8"
      },
      {
        "astId": 2204,
        "contract": "contracts/NFT1155V0.sol:NFT1155V0",
        "label": "_royaltyFeeRecipient",
        "offset": 1,
        "slot": "15",
        "type": "t_address"
      },
      {
        "astId": 2206,
        "contract": "contracts/NFT1155V0.sol:NFT1155V0",
        "label": "_royaltyFee",
        "offset": 21,
        "slot": "15",
        "type": "t_uint8"
      }
    ],
    "types": {
      "t_address": {
        "encoding": "inplace",
        "label": "address",
        "numberOfBytes": "20"
      },
      "t_bool": {
        "encoding": "inplace",
        "label": "bool",
        "numberOfBytes": "1"
      },
      "t_bytes32": {
        "encoding": "inplace",
        "label": "bytes32",
        "numberOfBytes": "32"
      },
      "t_mapping(t_address,t_bool)": {
        "encoding": "mapping",
        "key": "t_address",
        "label": "mapping(address => bool)",
        "numberOfBytes": "32",
        "value": "t_bool"
      },
      "t_mapping(t_address,t_mapping(t_address,t_bool))": {
        "encoding": "mapping",
        "key": "t_address",
        "label": "mapping(address => mapping(address => bool))",
        "numberOfBytes": "32",
        "value": "t_mapping(t_address,t_bool)"
      },
      "t_mapping(t_address,t_uint256)": {
        "encoding": "mapping",
        "key": "t_address",
        "label": "mapping(address => uint256)",
        "numberOfBytes": "32",
        "value": "t_uint256"
      },
      "t_mapping(t_bytes32,t_bool)": {
        "encoding": "mapping",
        "key": "t_bytes32",
        "label": "mapping(bytes32 => bool)",
        "numberOfBytes": "32",
        "value": "t_bool"
      },
      "t_mapping(t_bytes32,t_struct(BestBid)4682_storage)": {
        "encoding": "mapping",
        "key": "t_bytes32",
        "label": "mapping(bytes32 => struct BaseExchange.BestBid)",
        "numberOfBytes": "32",
        "value": "t_struct(BestBid)4682_storage"
      },
      "t_mapping(t_bytes32,t_uint256)": {
        "encoding": "mapping",
        "key": "t_bytes32",
        "label": "mapping(bytes32 => uint256)",
        "numberOfBytes": "32",
        "value": "t_uint256"
      },
      "t_mapping(t_uint256,t_mapping(t_address,t_uint256))": {
        "encoding": "mapping",
        "key": "t_uint256",
        "label": "mapping(uint256 => mapping(address => uint256))",
        "numberOfBytes": "32",
        "value": "t_mapping(t_address,t_uint256)"
      },
      "t_mapping(t_uint256,t_string_storage)": {
        "encoding": "mapping",
        "key": "t_uint256",
        "label": "mapping(uint256 => string)",
        "numberOfBytes": "32",
        "value": "t_string_storage"
      },
      "t_string_storage": {
        "encoding": "bytes",
        "label": "string",
        "numberOfBytes": "32"
      },
      "t_struct(BestBid)4682_storage": {
        "encoding": "inplace",
        "label": "struct BaseExchange.BestBid",
        "members": [
          {
            "astId": 4671,
            "contract": "contracts/NFT1155V0.sol:NFT1155V0",
            "label": "bidder",
            "offset": 0,
            "slot": "0",
            "type": "t_address"
          },
          {
            "astId": 4673,
            "contract": "contracts/NFT1155V0.sol:NFT1155V0",
            "label": "amount",
            "offset": 0,
            "slot": "1",
            "type": "t_uint256"
          },
          {
            "astId": 4675,
            "contract": "contracts/NFT1155V0.sol:NFT1155V0",
            "label": "price",
            "offset": 0,
            "slot": "2",
            "type": "t_uint256"
          },
          {
            "astId": 4677,
            "contract": "contracts/NFT1155V0.sol:NFT1155V0",
            "label": "recipient",
            "offset": 0,
            "slot": "3",
            "type": "t_address"
          },
          {
            "astId": 4679,
            "contract": "contracts/NFT1155V0.sol:NFT1155V0",
            "label": "referrer",
            "offset": 0,
            "slot": "4",
            "type": "t_address"
          },
          {
            "astId": 4681,
            "contract": "contracts/NFT1155V0.sol:NFT1155V0",
            "label": "blockNumber",
            "offset": 0,
            "slot": "5",
            "type": "t_uint256"
          }
        ],
        "numberOfBytes": "192"
      },
      "t_uint256": {
        "encoding": "inplace",
        "label": "uint256",
        "numberOfBytes": "32"
      },
      "t_uint8": {
        "encoding": "inplace",
        "label": "uint8",
        "numberOfBytes": "1"
      }
    }
  }
}