{
  "address": "0xD7035Fc6b2Fc51a869c0e79eb72c851b028C1781",
  "abi": [
    {
      "anonymous": false,
      "inputs": [
        {
          "indexed": true,
          "internalType": "address",
          "name": "account",
          "type": "address"
        },
        {
          "indexed": true,
          "internalType": "address",
          "name": "operator",
          "type": "address"
        },
        {
          "indexed": false,
          "internalType": "bool",
          "name": "approved",
          "type": "bool"
        }
      ],
      "name": "ApprovalForAll",
      "type": "event"
    },
    {
      "anonymous": false,
      "inputs": [
        {
          "indexed": true,
          "internalType": "bytes32",
          "name": "hash",
          "type": "bytes32"
        },
        {
          "indexed": false,
          "internalType": "address",
          "name": "bidder",
          "type": "address"
        },
        {
          "indexed": false,
          "internalType": "uint256",
          "name": "amount",
          "type": "uint256"
        },
        {
          "indexed": false,
          "internalType": "uint256",
          "name": "price",
          "type": "uint256"
        },
        {
          "indexed": false,
          "internalType": "address",
          "name": "recipient",
          "type": "address"
        },
        {
          "indexed": false,
          "internalType": "address",
          "name": "referrer",
          "type": "address"
        }
      ],
      "name": "Bid",
      "type": "event"
    },
    {
      "anonymous": false,
      "inputs": [
        {
          "indexed": true,
          "internalType": "uint256",
          "name": "tokenId",
          "type": "uint256"
        },
        {
          "indexed": false,
          "internalType": "uint256",
          "name": "amount",
          "type": "uint256"
        },
        {
          "indexed": true,
          "internalType": "uint256",
          "name": "label",
          "type": "uint256"
        },
        {
          "indexed": false,
          "internalType": "bytes32",
          "name": "data",
          "type": "bytes32"
        }
      ],
      "name": "Burn",
      "type": "event"
    },
    {
      "anonymous": false,
      "inputs": [
        {
          "indexed": true,
          "internalType": "bytes32",
          "name": "hash",
          "type": "bytes32"
        }
      ],
      "name": "Cancel",
      "type": "event"
    },
    {
      "anonymous": false,
      "inputs": [
        {
          "indexed": true,
          "internalType": "bytes32",
          "name": "hash",
          "type": "bytes32"
        },
        {
          "indexed": false,
          "internalType": "address",
          "name": "bidder",
          "type": "address"
        },
        {
          "indexed": false,
          "internalType": "uint256",
          "name": "amount",
          "type": "uint256"
        },
        {
          "indexed": false,
          "internalType": "uint256",
          "name": "price",
          "type": "uint256"
        },
        {
          "indexed": false,
          "internalType": "address",
          "name": "recipient",
          "type": "address"
        },
        {
          "indexed": false,
          "internalType": "address",
          "name": "referrer",
          "type": "address"
        }
      ],
      "name": "Claim",
      "type": "event"
    },
    {
      "anonymous": false,
      "inputs": [
        {
          "indexed": true,
          "internalType": "address",
          "name": "previousOwner",
          "type": "address"
        },
        {
          "indexed": true,
          "internalType": "address",
          "name": "newOwner",
          "type": "address"
        }
      ],
      "name": "OwnershipTransferred",
      "type": "event"
    },
    {
      "anonymous": false,
      "inputs": [
        {
          "indexed": false,
          "internalType": "uint8",
          "name": "fee",
          "type": "uint8"
        }
      ],
      "name": "SetRoyaltyFee",
      "type": "event"
    },
    {
      "anonymous": false,
      "inputs": [
        {
          "indexed": false,
          "internalType": "address",
          "name": "recipient",
          "type": "address"
        }
      ],
      "name": "SetRoyaltyFeeRecipient",
      "type": "event"
    },
    {
      "anonymous": false,
      "inputs": [
        {
          "indexed": true,
          "internalType": "address",
          "name": "operator",
          "type": "address"
        },
        {
          "indexed": true,
          "internalType": "address",
          "name": "from",
          "type": "address"
        },
        {
          "indexed": true,
          "internalType": "address",
          "name": "to",
          "type": "address"
        },
        {
          "indexed": false,
          "internalType": "uint256[]",
          "name": "ids",
          "type": "uint256[]"
        },
        {
          "indexed": false,
          "internalType": "uint256[]",
          "name": "values",
          "type": "uint256[]"
        }
      ],
      "name": "TransferBatch",
      "type": "event"
    },
    {
      "anonymous": false,
      "inputs": [
        {
          "indexed": true,
          "internalType": "address",
          "name": "operator",
          "type": "address"
        },
        {
          "indexed": true,
          "internalType": "address",
          "name": "from",
          "type": "address"
        },
        {
          "indexed": true,
          "internalType": "address",
          "name": "to",
          "type": "address"
        },
        {
          "indexed": false,
          "internalType": "uint256",
          "name": "id",
          "type": "uint256"
        },
        {
          "indexed": false,
          "internalType": "uint256",
          "name": "value",
          "type": "uint256"
        }
      ],
      "name": "TransferSingle",
      "type": "event"
    },
    {
      "anonymous": false,
      "inputs": [
        {
          "indexed": false,
          "internalType": "string",
          "name": "value",
          "type": "string"
        },
        {
          "indexed": true,
          "internalType": "uint256",
          "name": "id",
          "type": "uint256"
        }
      ],
      "name": "URI",
      "type": "event"
    },
    {
      "inputs": [],
      "name": "DOMAIN_SEPARATOR",
      "outputs": [
        {
          "internalType": "bytes32",
          "name": "",
          "type": "bytes32"
        }
      ],
      "stateMutability": "view",
      "type": "function"
    },
    {
      "inputs": [],
      "name": "PERMIT_TYPEHASH",
      "outputs": [
        {
          "internalType": "bytes32",
          "name": "",
          "type": "bytes32"
        }
      ],
      "stateMutability": "view",
      "type": "function"
    },
    {
      "inputs": [
        {
          "internalType": "bytes32",
          "name": "",
          "type": "bytes32"
        }
      ],
      "name": "amountFilled",
      "outputs": [
        {
          "internalType": "uint256",
          "name": "",
          "type": "uint256"
        }
      ],
      "stateMutability": "view",
      "type": "function"
    },
    {
      "inputs": [
        {
          "internalType": "address",
          "name": "account",
          "type": "address"
        },
        {
          "internalType": "uint256",
          "name": "id",
          "type": "uint256"
        }
      ],
      "name": "balanceOf",
      "outputs": [
        {
          "internalType": "uint256",
          "name": "",
          "type": "uint256"
        }
      ],
      "stateMutability": "view",
      "type": "function"
    },
    {
      "inputs": [
        {
          "internalType": "address[]",
          "name": "accounts",
          "type": "address[]"
        },
        {
          "internalType": "uint256[]",
          "name": "ids",
          "type": "uint256[]"
        }
      ],
      "name": "balanceOfBatch",
      "outputs": [
        {
          "internalType": "uint256[]",
          "name": "",
          "type": "uint256[]"
        }
      ],
      "stateMutability": "view",
      "type": "function"
    },
    {
      "inputs": [
        {
          "internalType": "bytes32",
          "name": "",
          "type": "bytes32"
        }
      ],
      "name": "bestBid",
      "outputs": [
        {
          "internalType": "address",
          "name": "bidder",
          "type": "address"
        },
        {
          "internalType": "uint256",
          "name": "amount",
          "type": "uint256"
        },
        {
          "internalType": "uint256",
          "name": "price",
          "type": "uint256"
        },
        {
          "internalType": "address",
          "name": "recipient",
          "type": "address"
        },
        {
          "internalType": "address",
          "name": "referrer",
          "type": "address"
        },
        {
          "internalType": "uint256",
          "name": "blockNumber",
          "type": "uint256"
        }
      ],
      "stateMutability": "view",
      "type": "function"
    },
    {
      "inputs": [
        {
          "components": [
            {
              "internalType": "address",
              "name": "signer",
              "type": "address"
            },
            {
              "internalType": "address",
              "name": "token",
              "type": "address"
            },
            {
              "internalType": "uint256",
              "name": "tokenId",
              "type": "uint256"
            },
            {
              "internalType": "uint256",
              "name": "amount",
              "type": "uint256"
            },
            {
              "internalType": "address",
              "name": "strategy",
              "type": "address"
            },
            {
              "internalType": "address",
              "name": "currency",
              "type": "address"
            },
            {
              "internalType": "address",
              "name": "recipient",
              "type": "address"
            },
            {
              "internalType": "uint256",
              "name": "deadline",
              "type": "uint256"
            },
            {
              "internalType": "bytes",
              "name": "params",
              "type": "bytes"
            },
            {
              "internalType": "uint8",
              "name": "v",
              "type": "uint8"
            },
            {
              "internalType": "bytes32",
              "name": "r",
              "type": "bytes32"
            },
            {
              "internalType": "bytes32",
              "name": "s",
              "type": "bytes32"
            }
          ],
          "internalType": "struct Orders.Ask",
          "name": "askOrder",
          "type": "tuple"
        },
        {
          "internalType": "uint256",
          "name": "bidAmount",
          "type": "uint256"
        },
        {
          "internalType": "uint256",
          "name": "bidPrice",
          "type": "uint256"
        },
        {
          "internalType": "address",
          "name": "bidRecipient",
          "type": "address"
        },
        {
          "internalType": "address",
          "name": "bidReferrer",
          "type": "address"
        }
      ],
      "name": "bid",
      "outputs": [
        {
          "internalType": "bool",
          "name": "executed",
          "type": "bool"
        }
      ],
      "stateMutability": "nonpayable",
      "type": "function"
    },
    {
      "inputs": [
        {
          "components": [
            {
              "internalType": "address",
              "name": "signer",
              "type": "address"
            },
            {
              "internalType": "address",
              "name": "token",
              "type": "address"
            },
            {
              "internalType": "uint256",
              "name": "tokenId",
              "type": "uint256"
            },
            {
              "internalType": "uint256",
              "name": "amount",
              "type": "uint256"
            },
            {
              "internalType": "address",
              "name": "strategy",
              "type": "address"
            },
            {
              "internalType": "address",
              "name": "currency",
              "type": "address"
            },
            {
              "internalType": "address",
              "name": "recipient",
              "type": "address"
            },
            {
              "internalType": "uint256",
              "name": "deadline",
              "type": "uint256"
            },
            {
              "internalType": "bytes",
              "name": "params",
              "type": "bytes"
            },
            {
              "internalType": "uint8",
              "name": "v",
              "type": "uint8"
            },
            {
              "internalType": "bytes32",
              "name": "r",
              "type": "bytes32"
            },
            {
              "internalType": "bytes32",
              "name": "s",
              "type": "bytes32"
            }
          ],
          "internalType": "struct Orders.Ask",
          "name": "askOrder",
          "type": "tuple"
        },
        {
          "components": [
            {
              "internalType": "bytes32",
              "name": "askHash",
              "type": "bytes32"
            },
            {
              "internalType": "address",
              "name": "signer",
              "type": "address"
            },
            {
              "internalType": "uint256",
              "name": "amount",
              "type": "uint256"
            },
            {
              "internalType": "uint256",
              "name": "price",
              "type": "uint256"
            },
            {
              "internalType": "address",
              "name": "recipient",
              "type": "address"
            },
            {
              "internalType": "address",
              "name": "referrer",
              "type": "address"
            },
            {
              "internalType": "uint8",
              "name": "v",
              "type": "uint8"
            },
            {
              "internalType": "bytes32",
              "name": "r",
              "type": "bytes32"
            },
            {
              "internalType": "bytes32",
              "name": "s",
              "type": "bytes32"
            }
          ],
          "internalType": "struct Orders.Bid",
          "name": "bidOrder",
          "type": "tuple"
        }
      ],
      "name": "bid",
      "outputs": [
        {
          "internalType": "bool",
          "name": "executed",
          "type": "bool"
        }
      ],
      "stateMutability": "nonpayable",
      "type": "function"
    },
    {
      "inputs": [
        {
          "internalType": "uint256",
          "name": "tokenId",
          "type": "uint256"
        },
        {
          "internalType": "uint256",
          "name": "amount",
          "type": "uint256"
        },
        {
          "internalType": "uint256",
          "name": "label",
          "type": "uint256"
        },
        {
          "internalType": "bytes32",
          "name": "data",
          "type": "bytes32"
        }
      ],
      "name": "burn",
      "outputs": [],
      "stateMutability": "nonpayable",
      "type": "function"
    },
    {
      "inputs": [
        {
          "internalType": "uint256[]",
          "name": "tokenIds",
          "type": "uint256[]"
        },
        {
          "internalType": "uint256[]",
          "name": "amounts",
          "type": "uint256[]"
        }
      ],
      "name": "burnBatch",
      "outputs": [],
      "stateMutability": "nonpayable",
      "type": "function"
    },
    {
      "inputs": [
        {
          "internalType": "address",
          "name": "token",
          "type": "address"
        }
      ],
      "name": "canTrade",
      "outputs": [
        {
          "internalType": "bool",
          "name": "",
          "type": "bool"
        }
      ],
      "stateMutability": "view",
      "type": "function"
    },
    {
      "inputs": [
        {
          "components": [
            {
              "internalType": "address",
              "name": "signer",
              "type": "address"
            },
            {
              "internalType": "address",
              "name": "token",
              "type": "address"
            },
            {
              "internalType": "uint256",
              "name": "tokenId",
              "type": "uint256"
            },
            {
              "internalType": "uint256",
              "name": "amount",
              "type": "uint256"
            },
            {
              "internalType": "address",
              "name": "strategy",
              "type": "address"
            },
            {
              "internalType": "address",
              "name": "currency",
              "type": "address"
            },
            {
              "internalType": "address",
              "name": "recipient",
              "type": "address"
            },
            {
              "internalType": "uint256",
              "name": "deadline",
              "type": "uint256"
            },
            {
              "internalType": "bytes",
              "name": "params",
              "type": "bytes"
            },
            {
              "internalType": "uint8",
              "name": "v",
              "type": "uint8"
            },
            {
              "internalType": "bytes32",
              "name": "r",
              "type": "bytes32"
            },
            {
              "internalType": "bytes32",
              "name": "s",
              "type": "bytes32"
            }
          ],
          "internalType": "struct Orders.Ask",
          "name": "order",
          "type": "tuple"
        }
      ],
      "name": "cancel",
      "outputs": [],
      "stateMutability": "nonpayable",
      "type": "function"
    },
    {
      "inputs": [
        {
          "components": [
            {
              "internalType": "address",
              "name": "signer",
              "type": "address"
            },
            {
              "internalType": "address",
              "name": "token",
              "type": "address"
            },
            {
              "internalType": "uint256",
              "name": "tokenId",
              "type": "uint256"
            },
            {
              "internalType": "uint256",
              "name": "amount",
              "type": "uint256"
            },
            {
              "internalType": "address",
              "name": "strategy",
              "type": "address"
            },
            {
              "internalType": "address",
              "name": "currency",
              "type": "address"
            },
            {
              "internalType": "address",
              "name": "recipient",
              "type": "address"
            },
            {
              "internalType": "uint256",
              "name": "deadline",
              "type": "uint256"
            },
            {
              "internalType": "bytes",
              "name": "params",
              "type": "bytes"
            },
            {
              "internalType": "uint8",
              "name": "v",
              "type": "uint8"
            },
            {
              "internalType": "bytes32",
              "name": "r",
              "type": "bytes32"
            },
            {
              "internalType": "bytes32",
              "name": "s",
              "type": "bytes32"
            }
          ],
          "internalType": "struct Orders.Ask",
          "name": "askOrder",
          "type": "tuple"
        }
      ],
      "name": "claim",
      "outputs": [],
      "stateMutability": "nonpayable",
      "type": "function"
    },
    {
      "inputs": [],
      "name": "factory",
      "outputs": [
        {
          "internalType": "address",
          "name": "",
          "type": "address"
        }
      ],
      "stateMutability": "view",
      "type": "function"
    },
    {
      "inputs": [
        {
          "internalType": "address",
          "name": "_owner",
          "type": "address"
        },
        {
          "internalType": "uint256[]",
          "name": "tokenIds",
          "type": "uint256[]"
        },
        {
          "internalType": "uint256[]",
          "name": "amounts",
          "type": "uint256[]"
        },
        {
          "internalType": "address",
          "name": "royaltyFeeRecipient",
          "type": "address"
        },
        {
          "internalType": "uint8",
          "name": "royaltyFee",
          "type": "uint8"
        }
      ],
      "name": "initialize",
      "outputs": [],
      "stateMutability": "nonpayable",
      "type": "function"
    },
    {
      "inputs": [
        {
          "internalType": "address",
          "name": "_owner",
          "type": "address"
        }
      ],
      "name": "initialize",
      "outputs": [],
      "stateMutability": "nonpayable",
      "type": "function"
    },
    {
      "inputs": [
        {
          "internalType": "address",
          "name": "account",
          "type": "address"
        },
        {
          "internalType": "address",
          "name": "operator",
          "type": "address"
        }
      ],
      "name": "isApprovedForAll",
      "outputs": [
        {
          "internalType": "bool",
          "name": "",
          "type": "bool"
        }
      ],
      "stateMutability": "view",
      "type": "function"
    },
    {
      "inputs": [
        {
          "internalType": "bytes32",
          "name": "",
          "type": "bytes32"
        }
      ],
      "name": "isCancelledOrClaimed",
      "outputs": [
        {
          "internalType": "bool",
          "name": "",
          "type": "bool"
        }
      ],
      "stateMutability": "view",
      "type": "function"
    },
    {
      "inputs": [
        {
          "internalType": "address",
          "name": "to",
          "type": "address"
        },
        {
          "internalType": "uint256",
          "name": "tokenId",
          "type": "uint256"
        },
        {
          "internalType": "uint256",
          "name": "amount",
          "type": "uint256"
        },
        {
          "internalType": "bytes",
          "name": "data",
          "type": "bytes"
        }
      ],
      "name": "mint",
      "outputs": [],
      "stateMutability": "nonpayable",
      "type": "function"
    },
    {
      "inputs": [
        {
          "internalType": "address",
          "name": "to",
          "type": "address"
        },
        {
          "internalType": "uint256[]",
          "name": "tokenIds",
          "type": "uint256[]"
        },
        {
          "internalType": "uint256[]",
          "name": "amounts",
          "type": "uint256[]"
        },
        {
          "internalType": "bytes",
          "name": "data",
          "type": "bytes"
        }
      ],
      "name": "mintBatch",
      "outputs": [],
      "stateMutability": "nonpayable",
      "type": "function"
    },
    {
      "inputs": [
        {
          "internalType": "address",
          "name": "",
          "type": "address"
        }
      ],
      "name": "nonces",
      "outputs": [
        {
          "internalType": "uint256",
          "name": "",
          "type": "uint256"
        }
      ],
      "stateMutability": "view",
      "type": "function"
    },
    {
      "inputs": [],
      "name": "owner",
      "outputs": [
        {
          "internalType": "address",
          "name": "",
          "type": "address"
        }
      ],
      "stateMutability": "view",
      "type": "function"
    },
    {
      "inputs": [
        {
          "internalType": "address",
          "name": "owner",
          "type": "address"
        },
        {
          "internalType": "address",
          "name": "spender",
          "type": "address"
        },
        {
          "internalType": "uint256",
          "name": "deadline",
          "type": "uint256"
        },
        {
          "internalType": "uint8",
          "name": "v",
          "type": "uint8"
        },
        {
          "internalType": "bytes32",
          "name": "r",
          "type": "bytes32"
        },
        {
          "internalType": "bytes32",
          "name": "s",
          "type": "bytes32"
        }
      ],
      "name": "permit",
      "outputs": [],
      "stateMutability": "nonpayable",
      "type": "function"
    },
    {
      "inputs": [],
      "name": "renounceOwnership",
      "outputs": [],
      "stateMutability": "nonpayable",
      "type": "function"
    },
    {
      "inputs": [],
      "name": "royaltyFeeInfo",
      "outputs": [
        {
          "internalType": "address",
          "name": "recipient",
          "type": "address"
        },
        {
          "internalType": "uint8",
          "name": "permil",
          "type": "uint8"
        }
      ],
      "stateMutability": "view",
      "type": "function"
    },
    {
      "inputs": [
        {
          "internalType": "uint256",
          "name": "",
          "type": "uint256"
        },
        {
          "internalType": "uint256",
          "name": "_salePrice",
          "type": "uint256"
        }
      ],
      "name": "royaltyInfo",
      "outputs": [
        {
          "internalType": "address",
          "name": "",
          "type": "address"
        },
        {
          "internalType": "uint256",
          "name": "",
          "type": "uint256"
        }
      ],
      "stateMutability": "view",
      "type": "function"
    },
    {
      "inputs": [
        {
          "internalType": "address",
          "name": "from",
          "type": "address"
        },
        {
          "internalType": "address",
          "name": "to",
          "type": "address"
        },
        {
          "internalType": "uint256[]",
          "name": "ids",
          "type": "uint256[]"
        },
        {
          "internalType": "uint256[]",
          "name": "amounts",
          "type": "uint256[]"
        },
        {
          "internalType": "bytes",
          "name": "data",
          "type": "bytes"
        }
      ],
      "name": "safeBatchTransferFrom",
      "outputs": [],
      "stateMutability": "nonpayable",
      "type": "function"
    },
    {
      "inputs": [
        {
          "internalType": "address",
          "name": "from",
          "type": "address"
        },
        {
          "internalType": "address",
          "name": "to",
          "type": "address"
        },
        {
          "internalType": "uint256",
          "name": "id",
          "type": "uint256"
        },
        {
          "internalType": "uint256",
          "name": "amount",
          "type": "uint256"
        },
        {
          "internalType": "bytes",
          "name": "data",
          "type": "bytes"
        }
      ],
      "name": "safeTransferFrom",
      "outputs": [],
      "stateMutability": "nonpayable",
      "type": "function"
    },
    {
      "inputs": [
        {
          "internalType": "address",
          "name": "operator",
          "type": "address"
        },
        {
          "internalType": "bool",
          "name": "approved",
          "type": "bool"
        }
      ],
      "name": "setApprovalForAll",
      "outputs": [],
      "stateMutability": "nonpayable",
      "type": "function"
    },
    {
      "inputs": [
        {
          "internalType": "string",
          "name": "baseURI",
          "type": "string"
        }
      ],
      "name": "setBaseURI",
      "outputs": [],
      "stateMutability": "nonpayable",
      "type": "function"
    },
    {
      "inputs": [
        {
          "internalType": "uint8",
          "name": "royaltyFee",
          "type": "uint8"
        }
      ],
      "name": "setRoyaltyFee",
      "outputs": [],
      "stateMutability": "nonpayable",
      "type": "function"
    },
    {
      "inputs": [
        {
          "internalType": "address",
          "name": "royaltyFeeRecipient",
          "type": "address"
        }
      ],
      "name": "setRoyaltyFeeRecipient",
      "outputs": [],
      "stateMutability": "nonpayable",
      "type": "function"
    },
    {
      "inputs": [
        {
          "internalType": "uint256",
          "name": "id",
          "type": "uint256"
        },
        {
          "internalType": "string",
          "name": "newURI",
          "type": "string"
        }
      ],
      "name": "setURI",
      "outputs": [],
      "stateMutability": "nonpayable",
      "type": "function"
    },
    {
      "inputs": [
        {
          "internalType": "bytes4",
          "name": "interfaceId",
          "type": "bytes4"
        }
      ],
      "name": "supportsInterface",
      "outputs": [
        {
          "internalType": "bool",
          "name": "",
          "type": "bool"
        }
      ],
      "stateMutability": "view",
      "type": "function"
    },
    {
      "inputs": [
        {
          "internalType": "address",
          "name": "newOwner",
          "type": "address"
        }
      ],
      "name": "transferOwnership",
      "outputs": [],
      "stateMutability": "nonpayable",
      "type": "function"
    },
    {
      "inputs": [
        {
          "internalType": "uint256",
          "name": "id",
          "type": "uint256"
        }
      ],
      "name": "uri",
      "outputs": [
        {
          "internalType": "string",
          "name": "",
          "type": "string"
        }
      ],
      "stateMutability": "view",
      "type": "function"
    }
  ],
  "transactionHash": "0x967df3deea83fe39f4ac9f98fd6f2ab0c7b9fa65b65bdae79050fd98263865f8",
  "args": [],
  "solcInputHash": "09f73e090f42c1ed7214a5f8ac964def",
  "bytecode": "0x608060405234801561001057600080fd5b5061501b806100206000396000f3fe608060405234801561001057600080fd5b506004361061021a5760003560e01c80635f7ef2fa11610125578063a22cb465116100ad578063def271641161007c578063def271641461059d578063e331a715146105b0578063e985e9c5146105d3578063f242432a146105e6578063f2fde38b146105f95761021a565b8063a22cb4651461054d578063bff5e79d14610560578063c45a015514610573578063c4d66de81461058a5761021a565b806375e6590f116100f457806375e6590f146104c25780637ecebe00146104e257806383ca4b6f14610502578063862440e2146105155780638da5cb5b146105285761021a565b80635f7ef2fa146104815780636ef8e02d14610494578063715018a6146104a7578063731133e9146104af5761021a565b806330adf81f116101a85780634e1273f4116101775780634e1273f41461037057806350bf994a14610390578063559f05dc146103bd57806355f804b3146103dc5780635771f997146103ef5761021a565b806330adf81f1461031b5780633644e5151461034257806344f09d111461034a57806348613c281461035d5761021a565b80630e89341c116101ef5780630e89341c14610290578063177315e3146102b05780631f7fdffa146102c35780632a55205a146102d65780632eb2c2d6146103085761021a565b8062893bf81461021f578062fdd58e1461023457806301ffc9a71461025a5780630935d6631461027d575b600080fd5b61023261022d366004614730565b61060c565b005b610247610242366004614434565b6106e9565b6040519081526020015b60405180910390f35b61026d610268366004614649565b610739565b6040519015158152602001610251565b61023261028b366004614730565b610766565b6102a361029e366004614631565b610b03565b6040516102519190614b85565b6102326102be36600461490e565b610d41565b6102326102d1366004614371565b610d8f565b6102e96102e43660046148ed565b610df4565b604080516001600160a01b039093168352602083019190915201610251565b610232610316366004614164565b610e39565b6102477fdaab21af31ece73a508939fedd476a5ee5129a5ed4bb091f3236ffb45394df6281565b610247611077565b61026d610358366004614834565b611087565b61023261036b366004614273565b6110ea565b61038361037e3660046144e1565b6111eb565b6040516102519190614b34565b600f546040805161010083046001600160a01b03168152600160a81b90920460ff16602083015201610251565b61026d6103cb366004614110565b6001600160a01b0381163014919050565b6102326103ea366004614681565b61130a565b6104426103fd366004614631565b600c602052600090815260409020805460018201546002830154600384015460048501546005909501546001600160a01b039485169593949293918316929091169086565b604080516001600160a01b03978816815260208101969096528501939093529084166060840152909216608082015260a081019190915260c001610251565b61023261048f36600461493f565b61134b565b6102326104a2366004614110565b611381565b6102326113b4565b6102326104bd36600461445f565b611428565b6102476104d0366004614631565b600e6020526000908152604090205481565b6102476104f0366004614110565b600a6020526000908152604090205481565b6102326105103660046145ad565b611487565b6102326105233660046148b3565b6114f5565b6004546001600160a01b03165b6040516001600160a01b039091168152602001610251565b61023261055b366004614407565b611543565b61023261056e3660046142d7565b61154e565b61053560075461010090046001600160a01b031690565b610232610598366004614110565b6116b9565b61026d6105ab366004614762565b6117f5565b61026d6105be366004614631565b600d6020526000908152604090205460ff1681565b61026d6105e136600461412c565b611933565b6102326105f436600461420d565b611961565b610232610607366004614110565b611a47565b80516001600160a01b0316331461063e5760405162461bcd60e51b815260040161063590614b98565b60405180910390fd5b600061064982611b23565b6000818152600c60205260409020549091506001600160a01b0316156106a55760405162461bcd60e51b815260206004820152601160248201527053484f59553a204249445f45584953545360781b6044820152606401610635565b6000818152600d6020526040808220805460ff191660011790555182917fe8d9861dbc9c663ed3accd261bbe2fe01e0d3d9e5f51fa38523b265c7757a93a91a25050565b60006001600160a01b0383166107115760405162461bcd60e51b815260040161063590614c3a565b5060009081526001602090815260408083206001600160a01b03949094168352929052205490565b600063152a902d60e11b6001600160e01b03198316148061075e575061075e82611c01565b90505b919050565b600b5460ff1615156001141561078e5760405162461bcd60e51b815260040161063590614bc2565b600b805460ff1916600117905560208101516001600160a01b031630146107f15760405162461bcd60e51b815260206004820152601760248201527653484f59553a20494e56414c49445f45584348414e474560481b6044820152606401610635565b60006107fc82611b23565b90506108088282611c51565b61083081836000015184610120015185610140015186610160015161082b611077565b611f21565b6000818152600c6020908152604091829020825160c08101845281546001600160a01b039081168083526001840154948301949094526002830154828601819052600384015482166060840152600480850154831660808086019190915260059095015460a085018190529489015160e08a01516101008b01519851636511995160e01b8152959891909416966365119951966108d896929491939192849284929101614cd8565b60206040518083038186803b1580156108f057600080fd5b505afa158015610904573d6000803e3d6000fd5b505050506040513d601f19601f820116820180604052508101906109289190614615565b6109655760405162461bcd60e51b815260206004820152600e60248201526d53484f59553a204641494c55524560901b6044820152606401610635565b60c08301516001600160a01b03811661097c575082515b6000838152600d6020908152604091829020805460ff1916600117905560a0860151845191850151928501516109c09391929185916109bb9190614db4565b6120d7565b15610ac7576020808301516000858152600e9092526040909120546109e59190614d7c565b6000848152600e602052604090205560608201516001600160a01b038116610a0b575081515b610a2885602001518660000151838860400151876020015161231a565b6000848152600c6020908152604080832080546001600160a01b03199081168255600182018590556002820185905560038201805482169055600482018054909116905560050192909255845190850151858301516080870151935188947f0642c67a22e8657a7126bb3b9fb3f01965503642f884e4c6a1efd8ed24f46c0d94610ab9949093909290918891614b02565b60405180910390a250610af3565b60405183907fe8d9861dbc9c663ed3accd261bbe2fe01e0d3d9e5f51fa38523b265c7757a93a90600090a25b5050600b805460ff191690555050565b600081815260096020526040812080546060929190610b2190614e2d565b80601f0160208091040260200160405190810160405280929190818152602001828054610b4d90614e2d565b8015610b9a5780601f10610b6f57610100808354040283529160200191610b9a565b820191906000526020600020905b815481529060010190602001808311610b7d57829003601f168201915b50505050509050600081511115610bb2579050610761565b600060088054610bc190614e2d565b80601f0160208091040260200160405190810160405280929190818152602001828054610bed90614e2d565b8015610c3a5780601f10610c0f57610100808354040283529160200191610c3a565b820191906000526020600020905b815481529060010190602001808311610c1d57829003601f168201915b50505050509050600081511115610c745780604051602001610c5c9190614a3d565b60405160208183030381529060405292505050610761565b600760019054906101000a90046001600160a01b03166001600160a01b031663c6edbca46040518163ffffffff1660e01b815260040160006040518083038186803b158015610cc257600080fd5b505afa158015610cd6573d6000803e3d6000fd5b505050506040513d6000823e601f3d908101601f19168201604052610cfe91908101906146b3565b90506000610d0d306014612367565b90508181604051602001610d229291906149f9565b6040516020818303038152906040529350505050610761565b50919050565b610d4c33858561254f565b6040805184815260208101839052839186917fed1397de7c11c080337d84f0acdca9b26b1237affe97a486bb12549594a70731910160405180910390a350505050565b33610da26004546001600160a01b031690565b6001600160a01b03161480610dc6575060075461010090046001600160a01b031633145b610de25760405162461bcd60e51b815260040161063590614b98565b610dee84848484612641565b50505050565b600f54600090819061010081046001600160a01b0316906103e890610e2390600160a81b900460ff1686614db4565b610e2d9190614d94565b915091505b9250929050565b8151835114610e5a5760405162461bcd60e51b815260040161063590614c6a565b6001600160a01b038416610e805760405162461bcd60e51b815260040161063590614c3a565b6001600160a01b038516331480610e9c5750610e9c8533611933565b610eb85760405162461bcd60e51b815260040161063590614b98565b3360005b8451811015611009576000858281518110610ee757634e487b7160e01b600052603260045260246000fd5b602002602001015190506000858381518110610f1357634e487b7160e01b600052603260045260246000fd5b60209081029190910181015160008481526001835260408082206001600160a01b038e168352909352919091205490915081811015610f645760405162461bcd60e51b815260040161063590614ca1565b610f6e8282614dd3565b6001600085815260200190815260200160002060008c6001600160a01b03166001600160a01b0316815260200190815260200160002081905550816001600085815260200190815260200160002060008b6001600160a01b03166001600160a01b031681526020019081526020016000206000828254610fee9190614d7c565b925050819055505050508061100290614e8e565b9050610ebc565b50846001600160a01b0316866001600160a01b0316826001600160a01b03167f4a39dc06d4c0dbc64b70af90fd698a233a518aa5d07e595d983b8c0526c8f7fb8787604051611059929190614b47565b60405180910390a461106f8187878787876127a5565b505050505050565b6000611081612912565b90505b90565b600b5460009060ff161515600114156110b25760405162461bcd60e51b815260040161063590614bc2565b600b805460ff191660011790556110d6866110cc81611b23565b33888888886129be565b600b805460ff191690559695505050505050565b834211156110f757600080fd5b6001600160a01b03861661111d5760405162461bcd60e51b815260040161063590614c3a565b6001600160a01b038681166000818152600a60209081526040918290205482517fdaab21af31ece73a508939fedd476a5ee5129a5ed4bb091f3236ffb45394df6281840152808401949094529389166060840152608083019390935260a08083018890528151808403909101815260c0909201905280519101206111a7818886868661082b611077565b6001600160a01b0387166000908152600a602052604081208054600192906111d0908490614d7c565b909155506111e2905087876001612e5b565b50505050505050565b6060815183511461120e5760405162461bcd60e51b815260040161063590614c6a565b600083516001600160401b0381111561123757634e487b7160e01b600052604160045260246000fd5b604051908082528060200260200182016040528015611260578160200160208202803683370190505b50905060005b8451811015611302576112c785828151811061129257634e487b7160e01b600052603260045260246000fd5b60200260200101518583815181106112ba57634e487b7160e01b600052603260045260246000fd5b60200260200101516106e9565b8282815181106112e757634e487b7160e01b600052603260045260246000fd5b60209081029190910101526112fb81614e8e565b9050611266565b509392505050565b6004546001600160a01b031633146113345760405162461bcd60e51b815260040161063590614b98565b8051611347906008906020840190613e6b565b5050565b6004546001600160a01b031633146113755760405162461bcd60e51b815260040161063590614b98565b61137e81612f1f565b50565b6004546001600160a01b031633146113ab5760405162461bcd60e51b815260040161063590614b98565b61137e81613030565b6004546001600160a01b031633146113de5760405162461bcd60e51b815260040161063590614b98565b6004546040516000916001600160a01b0316907f8be0079c531659141344cd1fd0a4f28419497f9722a3daafe3b4186f6b6457e0908390a3600480546001600160a01b0319169055565b3361143b6004546001600160a01b031690565b6001600160a01b0316148061145f575060075461010090046001600160a01b031633145b61147b5760405162461bcd60e51b815260040161063590614b98565b610dee848484846130dc565b610dee338585808060200260200160405190810160405280939291908181526020018383602002808284376000920191909152505060408051602080890282810182019093528882529093508892508791829185019084908082843760009201919091525061319392505050565b6004546001600160a01b0316331461151f5760405162461bcd60e51b815260040161063590614b98565b6000828152600960209081526040909120825161153e92840190613e6b565b505050565b611347338383612e5b565b600054610100900460ff1680611567575060005460ff16155b6115835760405162461bcd60e51b815260040161063590614bec565b600054610100900460ff161580156115a5576000805461ffff19166101011790555b6115ad61333a565b6115b6866116b9565b600760019054906101000a90046001600160a01b03166001600160a01b03166317e1f82e6040518163ffffffff1660e01b815260040160206040518083038186803b15801561160457600080fd5b505afa158015611618573d6000803e3d6000fd5b505050506040513d601f19601f8201168201806040525081019061163c919061495b565b600f805460ff191660ff929092169190911790558451156116725761167286868660405180602001604052806000815250612641565b61167b83613030565b600f805460ff60a81b191660ff60a81b17905560ff8216156116a0576116a082612f1f565b801561106f576000805461ff0019169055505050505050565b600054610100900460ff16806116d2575060005460ff16155b6116ee5760405162461bcd60e51b815260040161063590614bec565b600054610100900460ff16158015611710576000805461ffff19166101011790555b611728604051806020016040528060008152506133ad565b61173182613422565b60078054610100600160a81b0319163361010002179055466006557f8b73c3c69bb8fe3d512ecc4cf759cc79239f7b179b0ffacaa9a75d522b39400f61177630613482565b80516020918201206040805192830193909352918101919091527fc89efdaa54c0f20c7adf612882df0950f5a951637e0307cdcb4c672f298b8bc660608201524660808201523060a082015260c00160408051601f1981840301815291905280516020909101206005558015611347576000805461ff00191690555050565b600b5460009060ff161515600114156118205760405162461bcd60e51b815260040161063590614bc2565b600b805460ff19166001179055600061183884611b23565b835190915081146118835760405162461bcd60e51b81526020600482015260156024820152740a6909eb2aa7440aa9c9a82a886908a88be9082a69605b1b6044820152606401610635565b60208301516001600160a01b03166118d55760405162461bcd60e51b815260206004820152601560248201527429a427acaa9d1024a72b20a624a22fa9a4a3a722a960591b6044820152606401610635565b6118fe6118e1846134d7565b84602001518560c001518660e0015187610100015161082b611077565b611921848285602001518660400151876060015188608001518960a001516129be565b600b805460ff19169055949350505050565b6001600160a01b03918216600090815260026020908152604080832093909416825291909152205460ff1690565b6001600160a01b0384166119875760405162461bcd60e51b815260040161063590614c3a565b6001600160a01b0385163314806119a357506119a38533611933565b6119bf5760405162461bcd60e51b815260040161063590614b98565b336119df8187876119cf88613562565b6119d888613562565b5050505050565b6119eb868686866135bb565b846001600160a01b0316866001600160a01b0316826001600160a01b0316600080516020614fc68339815191528787604051611a31929190918252602082015260400190565b60405180910390a461106f818787878787613652565b6004546001600160a01b03163314611a715760405162461bcd60e51b815260040161063590614b98565b6001600160a01b038116611ac75760405162461bcd60e51b815260206004820152601860248201527f53484f59553a20494e56414c49445f4e45575f4f574e455200000000000000006044820152606401610635565b6004546040516001600160a01b038084169216907f8be0079c531659141344cd1fd0a4f28419497f9722a3daafe3b4186f6b6457e090600090a3600480546001600160a01b0319166001600160a01b0392909216919091179055565b80516020808301516040808501516060860151608087015160a088015160c089015160e08a01516101008b01518051908a0120965160009a611be49a7f17fdf8831f8bd77353b30f42ba9bc64e7144545a42a890389f298feeb45dec889a9199919897969594939201998a526001600160a01b0398891660208b015296881660408a01526060890195909552608088019390935290851660a0870152841660c086015290921660e08401526101008301919091526101208201526101400190565b604051602081830303815290604052805190602001209050919050565b60006001600160e01b03198216636cdb3d1360e11b1480611c3257506001600160e01b031982166303a24d0760e21b145b8061075e57506301ffc9a760e01b6001600160e01b031983161461075e565b6000818152600d602052604090205460ff1615611ca35760405162461bcd60e51b815260206004820152601060248201526f14d213d6554e8810d05390d15313115160821b6044820152606401610635565b81516001600160a01b0316611cf15760405162461bcd60e51b815260206004820152601460248201527329a427acaa9d1024a72b20a624a22fa6a0a5a2a960611b6044820152606401610635565b60208201516001600160a01b0316611d405760405162461bcd60e51b815260206004820152601260248201527114d213d6554e881253959053125117d3919560721b6044820152606401610635565b6000826060015111611d8c5760405162461bcd60e51b815260206004820152601560248201527414d213d6554e881253959053125117d05353d55395605a1b6044820152606401610635565b60808201516001600160a01b0316611de65760405162461bcd60e51b815260206004820152601760248201527f53484f59553a20494e56414c49445f53545241544547590000000000000000006044820152606401610635565b60a08201516001600160a01b0316611e405760405162461bcd60e51b815260206004820152601760248201527f53484f59553a20494e56414c49445f43555252454e43590000000000000000006044820152606401610635565b611e5760075461010090046001600160a01b031690565b6080830151604051632666e89f60e21b81526001600160a01b03918216600482015291169063999ba27c9060240160206040518083038186803b158015611e9d57600080fd5b505afa158015611eb1573d6000803e3d6000fd5b505050506040513d601f19601f82011682018060405250810190611ed59190614615565b6113475760405162461bcd60e51b815260206004820152601f60248201527f53484f59553a2053545241544547595f4e4f545f57484954454c4953544544006044820152606401610635565b60405161190160f01b60208201526022810182905260428101879052600090606201604051602081830303815290604052805190602001209050611f65863b151590565b1561207557604080516020810186905280820185905260f887901b6001600160f81b0319166060820152815160418183030181526061820192839052630b135d3f60e11b9092526001600160a01b03881691631626ba7e91611fcb918591606501614b6c565b60206040518083038186803b158015611fe357600080fd5b505afa158015611ff7573d6000803e3d6000fd5b505050506040513d601f19601f8201168201806040525081019061201b9190614665565b6001600160e01b031916631626ba7e60e01b146120705760405162461bcd60e51b815260206004820152601360248201527214d213d6554e8815539055551213d492569151606a1b6044820152606401610635565b6111e2565b856001600160a01b031661208b82878787613746565b6001600160a01b0316146111e25760405162461bcd60e51b815260206004820152601360248201527214d213d6554e8815539055551213d492569151606a1b6044820152606401610635565b60006120e5858530856138ef565b6120f157506000612312565b600061210a60075461010090046001600160a01b031690565b90506000839050600080836001600160a01b031663aec0b5436040518163ffffffff1660e01b8152600401604080518083038186803b15801561214c57600080fd5b505afa158015612160573d6000803e3d6000fd5b505050506040513d601f19601f8201168201806040525081019061218491906144b3565b909250905060006103e861219b60ff841689614db4565b6121a59190614d94565b90506121bb6001600160a01b038b1684836139c1565b6121c58185614dd3565b9350505050600080836001600160a01b031663c2b11e186040518163ffffffff1660e01b8152600401604080518083038186803b15801561220557600080fd5b505afa158015612219573d6000803e3d6000fd5b505050506040513d601f19601f8201168201806040525081019061223d91906144b3565b909250905060006103e861225460ff841689614db4565b61225e9190614d94565b90506122746001600160a01b038b1684836139c1565b61227e8185614dd3565b93505050506000806122a9600f5461010081046001600160a01b031691600160a81b90910460ff1690565b909250905060ff808216146122f55760006103e86122ca60ff841686614db4565b6122d49190614d94565b905080156122f3576122e68185614dd3565b93506122f38a8483613a13565b505b6123096001600160a01b038a1688856139c1565b60019450505050505b949350505050565b612326848484846135bb565b60408051838152602081018390526001600160a01b0380861692908716913391600080516020614fc683398151915291015b60405180910390a45050505050565b60606000612376836002614db4565b612381906002614d7c565b6001600160401b038111156123a657634e487b7160e01b600052604160045260246000fd5b6040519080825280601f01601f1916602001820160405280156123d0576020820181803683370190505b509050600360fc1b816000815181106123f957634e487b7160e01b600052603260045260246000fd5b60200101906001600160f81b031916908160001a905350600f60fb1b8160018151811061243657634e487b7160e01b600052603260045260246000fd5b60200101906001600160f81b031916908160001a905350600061245a846002614db4565b612465906001614d7c565b90505b60018111156124f9576f181899199a1a9b1b9c1cb0b131b232b360811b85600f16601081106124a757634e487b7160e01b600052603260045260246000fd5b1a60f81b8282815181106124cb57634e487b7160e01b600052603260045260246000fd5b60200101906001600160f81b031916908160001a90535060049490941c936124f281614e16565b9050612468565b5083156125485760405162461bcd60e51b815260206004820181905260248201527f537472696e67733a20686578206c656e67746820696e73756666696369656e746044820152606401610635565b9392505050565b6001600160a01b0383166125755760405162461bcd60e51b815260040161063590614c3a565b336125a58185600061258687613562565b61258f87613562565b5050604080516020810190915260009052505050565b60008381526001602090815260408083206001600160a01b0388168452909152902054828110156125e85760405162461bcd60e51b815260040161063590614ca1565b6125f28382614dd3565b60008581526001602090815260408083206001600160a01b038a81168086529184528285209590955581518981529283018890529293861691600080516020614fc68339815191529101612358565b6001600160a01b0384166126675760405162461bcd60e51b815260040161063590614c3a565b81518351146126885760405162461bcd60e51b815260040161063590614c6a565b3360005b8451811015612741578381815181106126b557634e487b7160e01b600052603260045260246000fd5b6020026020010151600160008784815181106126e157634e487b7160e01b600052603260045260246000fd5b602002602001015181526020019081526020016000206000886001600160a01b03166001600160a01b0316815260200190815260200160002060008282546127299190614d7c565b9091555081905061273981614e8e565b91505061268c565b50846001600160a01b031660006001600160a01b0316826001600160a01b03167f4a39dc06d4c0dbc64b70af90fd698a233a518aa5d07e595d983b8c0526c8f7fb8787604051612792929190614b47565b60405180910390a46119d8816000878787875b6001600160a01b0384163b1561106f5760405163bc197c8160e01b81526001600160a01b0385169063bc197c81906127e99089908990889088908890600401614a6a565b602060405180830381600087803b15801561280357600080fd5b505af1925050508015612833575060408051601f3d908101601f1916820190925261283091810190614665565b60015b6128b85761283f614ed5565b806308c379a014156128795750612854614eec565b8061285f575061287b565b8060405162461bcd60e51b81526004016106359190614b85565b505b60405162461bcd60e51b815260206004820152601260248201527129a427acaa9d102727afa922a1a2a4ab22a960711b6044820152606401610635565b6001600160e01b0319811663bc197c8160e01b146111e25760405162461bcd60e51b815260206004820152601760248201527629a427acaa9d1024a72b20a624a22fa922a1a2a4ab22a960491b6044820152606401610635565b6000804660065414156129285750600554611081565b7f8b73c3c69bb8fe3d512ecc4cf759cc79239f7b179b0ffacaa9a75d522b39400f61295230613482565b80516020918201206040805192830193909352918101919091527fc89efdaa54c0f20c7adf612882df0950f5a951637e0307cdcb4c672f298b8bc660608201524660808201523060a082015260c001604051602081830303815290604052805190602001209050905090565b60208701516000906001600160a01b03163014612a175760405162461bcd60e51b815260206004820152601760248201527653484f59553a20494e56414c49445f45584348414e474560481b6044820152606401610635565b60008511612a5f5760405162461bcd60e51b815260206004820152601560248201527414d213d6554e881253959053125117d05353d55395605a1b6044820152606401610635565b6000878152600e60205260409020546060890151612a7d8783614d7c565b1115612abd5760405162461bcd60e51b815260206004820152600f60248201526e14d213d6554e8814d3d31117d3d555608a1b6044820152606401610635565b612ac78989611c51565b612aea888a600001518b61012001518c61014001518d610160015161082b611077565b6000600c60008a8152602001908152602001600020905089608001516001600160a01b031663651199518b60e001518c61010001518b8a8660000160009054906101000a90046001600160a01b0316876002015488600501546040518863ffffffff1660e01b8152600401612b659796959493929190614cd8565b60206040518083038186803b158015612b7d57600080fd5b505afa158015612b91573d6000803e3d6000fd5b505050506040513d601f19601f82011682018060405250810190612bb59190614615565b15612cc257612bc48783614d7c565b60008a8152600e602052604090205560c08a01516001600160a01b038116612bea575089515b60a08b0151612bff908a836109bb8c8c614db4565b612c4b5760405162461bcd60e51b815260206004820152601f60248201527f53484f59553a204641494c45445f544f5f5452414e534645525f46554e4453006044820152606401610635565b6001600160a01b038616612c5d578895505b612c768b602001518c60000151888e604001518c61231a565b897f0642c67a22e8657a7126bb3b9fb3f01965503642f884e4c6a1efd8ed24f46c0d8a8a8a8a8a604051612cae959493929190614b02565b60405180910390a260019350505050612e50565b89608001516001600160a01b0316635f11a72b8b60e001518c61010001518b8a8660000160009054906101000a90046001600160a01b0316876002015488600501546040518863ffffffff1660e01b8152600401612d269796959493929190614cd8565b60206040518083038186803b158015612d3e57600080fd5b505afa158015612d52573d6000803e3d6000fd5b505050506040513d601f19601f82011682018060405250810190612d769190614615565b15612e175780546001600160a01b03808a166001600160a01b031992831617835560018301899055600283018890556003830180548883169084161790556004830180549187169190921617905543600582015560405189907f4055f76fe1f351fec66b9ba790ddbdc29eb45c038163a6b1327277441a8c65f190612e04908b908b908b908b908b90614b02565b60405180910390a2600092505050612e50565b60405162461bcd60e51b815260206004820152600e60248201526d53484f59553a204641494c55524560901b6044820152606401610635565b979650505050505050565b816001600160a01b0316836001600160a01b03161415612eb25760405162461bcd60e51b815260206004820152601260248201527114d213d6554e881393d517d0531313d5d15160721b6044820152606401610635565b6001600160a01b03838116600081815260026020908152604080832094871680845294825291829020805460ff191686151590811790915591519182527f17307eab39ab6107e8899845ad3d59bd9653f200f220920489ca2b5937696c31910160405180910390a3505050565b600f54600160a81b900460ff9081161415612f8757600f5460ff9081169082161115612f825760405162461bcd60e51b815260206004820152601260248201527153484f59553a20494e56414c49445f46454560701b6044820152606401610635565b612fdb565b600f5460ff600160a81b909104811690821610612fdb5760405162461bcd60e51b815260206004820152601260248201527153484f59553a20494e56414c49445f46454560701b6044820152606401610635565b600f805460ff60a81b1916600160a81b60ff8416908102919091179091556040519081527fd9ac3bc8ad92267d0b101786ddb4d37746ed1e3ee77637846294edf17dd9eb8a906020015b60405180910390a150565b6001600160a01b0381166130865760405162461bcd60e51b815260206004820152601c60248201527f53484f59553a20494e56414c49445f4645455f524543495049454e54000000006044820152606401610635565b600f8054610100600160a81b0319166101006001600160a01b038416908102919091179091556040519081527f1ce5f25607cb1a4fa6c947b55700213a9ed6a1d7ef1cf1d02ab467efd02a993e90602001613025565b6001600160a01b0384166131025760405162461bcd60e51b815260040161063590614c3a565b33613113816000876119cf88613562565b60008481526001602090815260408083206001600160a01b038916845290915281208054859290613145908490614d7c565b909155505060408051858152602081018590526001600160a01b038088169260009291851691600080516020614fc6833981519152910160405180910390a46119d881600087878787613652565b6001600160a01b0383166131b95760405162461bcd60e51b815260040161063590614c3a565b80518251146131da5760405162461bcd60e51b815260040161063590614c6a565b6040805160208101909152600090523360005b83518110156132db57600084828151811061321857634e487b7160e01b600052603260045260246000fd5b60200260200101519050600084838151811061324457634e487b7160e01b600052603260045260246000fd5b60209081029190910181015160008481526001835260408082206001600160a01b038c1683529093529190912054909150818110156132955760405162461bcd60e51b815260040161063590614ca1565b61329f8282614dd3565b60009384526001602090815260408086206001600160a01b038c16875290915290932092909255508190506132d381614e8e565b9150506131ed565b5060006001600160a01b0316846001600160a01b0316826001600160a01b03167f4a39dc06d4c0dbc64b70af90fd698a233a518aa5d07e595d983b8c0526c8f7fb868660405161332c929190614b47565b60405180910390a450505050565b600054610100900460ff1680613353575060005460ff16155b61336f5760405162461bcd60e51b815260040161063590614bec565b600054610100900460ff16158015613391576000805461ffff19166101011790555b613399613aa2565b801561137e576000805461ff001916905550565b600054610100900460ff16806133c6575060005460ff16155b6133e25760405162461bcd60e51b815260040161063590614bec565b600054610100900460ff16158015613404576000805461ffff19166101011790555b61340d82613b01565b8015611347576000805461ff00191690555050565b600054610100900460ff168061343b575060005460ff16155b6134575760405162461bcd60e51b815260040161063590614bec565b600054610100900460ff16158015613479576000805461ffff19166101011790555b61340d82613b61565b6060816134aa57506040805180820190915260048152630307830360e41b6020820152610761565b8160005b81156134cd57806134be81614e8e565b915050600882901c91506134ae565b6123128482612367565b80516020808301516040808501516060860151608087015160a08801519351600097611be4977fb98e1dc48988064e6dfb813618609d7da80a8841e5f277039788ac4b50d497b297919691959493920196875260208701959095526001600160a01b03938416604087015260608601929092526080850152811660a08401521660c082015260e00190565b604080516001808252818301909252606091600091906020808301908036833701905050905082816000815181106135aa57634e487b7160e01b600052603260045260246000fd5b602090810291909101015292915050565b60008281526001602090815260408083206001600160a01b0388168452909152902054818110156135fe5760405162461bcd60e51b815260040161063590614ca1565b6136088282614dd3565b60008481526001602090815260408083206001600160a01b038a81168552925280832093909355861681529081208054849290613646908490614d7c565b90915550505050505050565b6001600160a01b0384163b1561106f5760405163f23a6e6160e01b81526001600160a01b0385169063f23a6e61906136969089908990889088908890600401614ac8565b602060405180830381600087803b1580156136b057600080fd5b505af19250505080156136e0575060408051601f3d908101601f191682019092526136dd91810190614665565b60015b6136ec5761283f614ed5565b6001600160e01b0319811663f23a6e6160e01b146111e25760405162461bcd60e51b815260206004820152601760248201527629a427acaa9d1024a72b20a624a22fa922a1a2a4ab22a960491b6044820152606401610635565b60007f7fffffffffffffffffffffffffffffff5d576e7357a4501ddfe92f46681b20a08211156137c35760405162461bcd60e51b815260206004820152602260248201527f45434453413a20696e76616c6964207369676e6174757265202773272076616c604482015261756560f01b6064820152608401610635565b8360ff16601b14806137d857508360ff16601c145b61382f5760405162461bcd60e51b815260206004820152602260248201527f45434453413a20696e76616c6964207369676e6174757265202776272076616c604482015261756560f01b6064820152608401610635565b6040805160008082526020820180845288905260ff871692820192909252606081018590526080810184905260019060a0016020604051602081039080840390855afa158015613883573d6000803e3d6000fd5b5050604051601f1901519150506001600160a01b0381166138e65760405162461bcd60e51b815260206004820152601860248201527f45434453413a20696e76616c6964207369676e617475726500000000000000006044820152606401610635565b95945050505050565b604080516001600160a01b0385811660248301528481166044830152606480830185905283518084039091018152608490920183526020820180516001600160e01b03166323b872dd60e01b1790529151600092839283929189169161395591906149dd565b6000604051808303816000865af19150503d8060008114613992576040519150601f19603f3d011682016040523d82523d6000602084013e613997565b606091505b5091509150818015612e50575080511580612e50575080806020019051810190612e509190614615565b604080516001600160a01b038416602482015260448082018490528251808303909101815260649091019091526020810180516001600160e01b031663a9059cbb60e01b17905261153e908490613c16565b613a276001600160a01b03841683836139c1565b813b1561153e57816001600160a01b031663fff6cae96040518163ffffffff1660e01b8152600401602060405180830381600087803b158015613a6957600080fd5b505af1925050508015613a99575060408051601f3d908101601f19168201909252613a969181019061489b565b60015b610dee5761153e565b600054610100900460ff1680613abb575060005460ff16155b613ad75760405162461bcd60e51b815260040161063590614bec565b600054610100900460ff16158015613af9576000805461ffff19166101011790555b613399613ce8565b600054610100900460ff1680613b1a575060005460ff16155b613b365760405162461bcd60e51b815260040161063590614bec565b600054610100900460ff16158015613b58576000805461ffff19166101011790555b61340d82613d5d565b600054610100900460ff1680613b7a575060005460ff16155b613b965760405162461bcd60e51b815260040161063590614bec565b600054610100900460ff16158015613bb8576000805461ffff19166101011790555b600480546001600160a01b0319166001600160a01b0384169081179091556040516000907f8be0079c531659141344cd1fd0a4f28419497f9722a3daafe3b4186f6b6457e0908290a38015611347576000805461ff00191690555050565b6000613c6b826040518060400160405280602081526020017f5361666545524332303a206c6f772d6c6576656c2063616c6c206661696c6564815250856001600160a01b0316613d709092919063ffffffff16565b80519091501561153e5780806020019051810190613c899190614615565b61153e5760405162461bcd60e51b815260206004820152602a60248201527f5361666545524332303a204552433230206f7065726174696f6e20646964206e6044820152691bdd081cdd58d8d9595960b21b6064820152608401610635565b600054610100900460ff1680613d01575060005460ff16155b613d1d5760405162461bcd60e51b815260040161063590614bec565b600054610100900460ff16158015613d3f576000805461ffff19166101011790555b600b805460ff19169055801561137e576000805461ff001916905550565b8051611347906003906020840190613e6b565b6060612312848460008585843b613dc95760405162461bcd60e51b815260206004820152601d60248201527f416464726573733a2063616c6c20746f206e6f6e2d636f6e74726163740000006044820152606401610635565b600080866001600160a01b03168587604051613de591906149dd565b60006040518083038185875af1925050503d8060008114613e22576040519150601f19603f3d011682016040523d82523d6000602084013e613e27565b606091505b5091509150612e5082828660608315613e41575081612548565b825115613e515782518084602001fd5b8160405162461bcd60e51b81526004016106359190614b85565b828054613e7790614e2d565b90600052602060002090601f016020900481019282613e995760008555613edf565b82601f10613eb257805160ff1916838001178555613edf565b82800160010185558215613edf579182015b82811115613edf578251825591602001919060010190613ec4565b50613eeb929150613eef565b5090565b5b80821115613eeb5760008155600101613ef0565b803561076181614f7d565b60008083601f840112613f20578182fd5b5081356001600160401b03811115613f36578182fd5b6020830191508360208260051b8501011115610e3257600080fd5b600082601f830112613f61578081fd5b81356020613f6e82614d32565b604051613f7b8282614e62565b8381528281019150858301600585901b87018401881015613f9a578586fd5b855b85811015613fb857813584529284019290840190600101613f9c565b5090979650505050505050565b600082601f830112613fd5578081fd5b8135613fe081614d55565b604051613fed8282614e62565b828152856020848701011115614001578384fd5b82602086016020830137918201602001929092529392505050565b600061018080838503121561402f578182fd5b61403881614d25565b91505061404482613f04565b815261405260208301613f04565b6020820152604082013560408201526060820135606082015261407760808301613f04565b608082015261408860a08301613f04565b60a082015261409960c08301613f04565b60c082015260e082013560e0820152610100808301356001600160401b038111156140c357600080fd5b6140cf85828601613fc5565b8284015250506101206140e3818401614105565b9082015261014082810135908201526101609182013591810191909152919050565b803561076181614fb6565b600060208284031215614121578081fd5b813561254881614f7d565b6000806040838503121561413e578081fd5b823561414981614f7d565b9150602083013561415981614f7d565b809150509250929050565b600080600080600060a0868803121561417b578081fd5b853561418681614f7d565b9450602086013561419681614f7d565b935060408601356001600160401b03808211156141b1578283fd5b6141bd89838a01613f51565b945060608801359150808211156141d2578283fd5b6141de89838a01613f51565b935060808801359150808211156141f3578283fd5b5061420088828901613fc5565b9150509295509295909350565b600080600080600060a08688031215614224578283fd5b853561422f81614f7d565b9450602086013561423f81614f7d565b9350604086013592506060860135915060808601356001600160401b03811115614267578182fd5b61420088828901613fc5565b60008060008060008060c0878903121561428b578384fd5b863561429681614f7d565b955060208701356142a681614f7d565b94506040870135935060608701356142bd81614fb6565b9598949750929560808101359460a0909101359350915050565b600080600080600060a086880312156142ee578283fd5b85356142f981614f7d565b945060208601356001600160401b0380821115614314578485fd5b61432089838a01613f51565b95506040880135915080821115614335578485fd5b5061434288828901613f51565b935050606086013561435381614f7d565b9150608086013561436381614fb6565b809150509295509295909350565b60008060008060808587031215614386578182fd5b843561439181614f7d565b935060208501356001600160401b03808211156143ac578384fd5b6143b888838901613f51565b945060408701359150808211156143cd578384fd5b6143d988838901613f51565b935060608701359150808211156143ee578283fd5b506143fb87828801613fc5565b91505092959194509250565b60008060408385031215614419578182fd5b823561442481614f7d565b9150602083013561415981614f92565b60008060408385031215614446578182fd5b823561445181614f7d565b946020939093013593505050565b60008060008060808587031215614474578182fd5b843561447f81614f7d565b9350602085013592506040850135915060608501356001600160401b038111156144a7578182fd5b6143fb87828801613fc5565b600080604083850312156144c5578182fd5b82516144d081614f7d565b602084015190925061415981614fb6565b600080604083850312156144f3578182fd5b82356001600160401b0380821115614509578384fd5b818501915085601f83011261451c578384fd5b8135602061452982614d32565b6040516145368282614e62565b8381528281019150858301600585901b870184018b1015614555578889fd5b8896505b8487101561458057803561456c81614f7d565b835260019690960195918301918301614559565b5096505086013592505080821115614596578283fd5b506145a385828601613f51565b9150509250929050565b600080600080604085870312156145c2578182fd5b84356001600160401b03808211156145d8578384fd5b6145e488838901613f0f565b909650945060208701359150808211156145fc578384fd5b5061460987828801613f0f565b95989497509550505050565b600060208284031215614626578081fd5b815161254881614f92565b600060208284031215614642578081fd5b5035919050565b60006020828403121561465a578081fd5b813561254881614fa0565b600060208284031215614676578081fd5b815161254881614fa0565b600060208284031215614692578081fd5b81356001600160401b038111156146a7578182fd5b61231284828501613fc5565b6000602082840312156146c4578081fd5b81516001600160401b038111156146d9578182fd5b8201601f810184136146e9578182fd5b80516146f481614d55565b6040516147018282614e62565b828152866020848601011115614715578485fd5b614726836020830160208701614dea565b9695505050505050565b600060208284031215614741578081fd5b81356001600160401b03811115614756578182fd5b6123128482850161401c565b600080828403610140811215614776578283fd5b83356001600160401b0381111561478b578384fd5b6147978682870161401c565b93505061012080601f19830112156147ad578283fd5b6147b681614d25565b9150602085013582526147cb60408601613f04565b602083015260608501356040830152608085013560608301526147f060a08601613f04565b608083015261480160c08601613f04565b60a083015261481260e08601614105565b60c08301526101008581013560e0840152940135938101939093525092909150565b600080600080600060a0868803121561484b578283fd5b85356001600160401b03811115614860578384fd5b61486c8882890161401c565b9550506020860135935060408601359250606086013561488b81614f7d565b9150608086013561436381614f7d565b6000602082840312156148ac578081fd5b5051919050565b600080604083850312156148c5578182fd5b8235915060208301356001600160401b038111156148e1578182fd5b6145a385828601613fc5565b600080604083850312156148ff578182fd5b50508035926020909101359150565b60008060008060808587031215614923578182fd5b5050823594602084013594506040840135936060013592509050565b600060208284031215614950578081fd5b813561254881614fb6565b60006020828403121561496c578081fd5b815161254881614fb6565b6000815180845260208085019450808401835b838110156149a65781518752958201959082019060010161498a565b509495945050505050565b600081518084526149c9816020860160208601614dea565b601f01601f19169290920160200192915050565b600082516149ef818460208701614dea565b9190910192915050565b60008351614a0b818460208801614dea565b835190830190614a1f818360208801614dea565b6917bdb4b23e973539b7b760b11b9101908152600a01949350505050565b60008251614a4f818460208701614dea565b683db4b23e973539b7b760b91b920191825250600901919050565b6001600160a01b0386811682528516602082015260a060408201819052600090614a9690830186614977565b8281036060840152614aa88186614977565b90508281036080840152614abc81856149b1565b98975050505050505050565b6001600160a01b03868116825285166020820152604081018490526060810183905260a060808201819052600090612e50908301846149b1565b6001600160a01b0395861681526020810194909452604084019290925283166060830152909116608082015260a00190565b6000602082526125486020830184614977565b600060408252614b5a6040830185614977565b82810360208401526138e68185614977565b60008382526040602083015261231260408301846149b1565b60006020825261254860208301846149b1565b60208082526010908201526f29a427acaa9d102327a92124a22222a760811b604082015260600190565b60208082526010908201526f14d213d6554e8814915153951490539560821b604082015260600190565b6020808252602e908201527f496e697469616c697a61626c653a20636f6e747261637420697320616c72656160408201526d191e481a5b9a5d1a585b1a5e995960921b606082015260800190565b60208082526016908201527553484f59553a20494e56414c49445f4144445245535360501b604082015260600190565b60208082526018908201527f53484f59553a204c454e475448535f4e4f545f455155414c0000000000000000604082015260600190565b6020808252601b908201527f53484f59553a20494e53554646494349454e545f42414c414e43450000000000604082015260600190565b600088825260e06020830152614cf160e08301896149b1565b6001600160a01b03978816604084015260608301969096525092909416608083015260a082015260c0019190915292915050565b6040516107618282614e62565b60006001600160401b03821115614d4b57614d4b614ebf565b5060051b60200190565b60006001600160401b03821115614d6e57614d6e614ebf565b50601f01601f191660200190565b60008219821115614d8f57614d8f614ea9565b500190565b600082614daf57634e487b7160e01b81526012600452602481fd5b500490565b6000816000190483118215151615614dce57614dce614ea9565b500290565b600082821015614de557614de5614ea9565b500390565b60005b83811015614e05578181015183820152602001614ded565b83811115610dee5750506000910152565b600081614e2557614e25614ea9565b506000190190565b600181811c90821680614e4157607f821691505b60208210811415610d3b57634e487b7160e01b600052602260045260246000fd5b601f8201601f191681016001600160401b0381118282101715614e8757614e87614ebf565b6040525050565b6000600019821415614ea257614ea2614ea9565b5060010190565b634e487b7160e01b600052601160045260246000fd5b634e487b7160e01b600052604160045260246000fd5b600060033d111561108457600481823e5160e01c90565b600060443d1015614efc57611084565b6040516003193d81016004833e81513d6001600160401b038160248401118184111715614f2d575050505050611084565b8285019150815181811115614f4757505050505050611084565b843d8701016020828501011115614f6357505050505050611084565b614f7260208286010187614e62565b509094505050505090565b6001600160a01b038116811461137e57600080fd5b801515811461137e57600080fd5b6001600160e01b03198116811461137e57600080fd5b60ff8116811461137e57600080fdfec3d58168c5ae7397731d063d5bbf3d657854427343f4c083240f7aacaa2d0f62a264697066735822122058db0228b8e071acd5a32ce283cb253fdc92bd6a0adcafa1a9f65a9315b6e96e64736f6c63430008030033",
  "devdoc": {
    "kind": "dev",
    "methods": {
      "balanceOf(address,uint256)": {
        "details": "See {IERC1155-balanceOf}. Requirements: - `account` cannot be the zero address."
      },
      "balanceOfBatch(address[],uint256[])": {
        "details": "See {IERC1155-balanceOfBatch}. Requirements: - `accounts` and `ids` must have the same length."
      },
      "isApprovedForAll(address,address)": {
        "details": "See {IERC1155-isApprovedForAll}."
      },
      "owner()": {
        "details": "Returns the address of the current owner."
      },
      "renounceOwnership()": {
        "details": "Leaves the contract without owner. It will not be possible to call `onlyOwner` functions anymore. Can only be called by the current owner. NOTE: Renouncing ownership will leave the contract without an owner, thereby removing any functionality that is only available to the owner."
      },
      "safeBatchTransferFrom(address,address,uint256[],uint256[],bytes)": {
        "details": "See {IERC1155-safeBatchTransferFrom}."
      },
      "safeTransferFrom(address,address,uint256,uint256,bytes)": {
        "details": "See {IERC1155-safeTransferFrom}."
      },
      "setApprovalForAll(address,bool)": {
        "details": "See {IERC1155-setApprovalForAll}."
      },
      "transferOwnership(address)": {
        "details": "Transfers ownership of the contract to a new account (`newOwner`). Can only be called by the current owner."
      }
    },
    "version": 1
  },
  "userdoc": {
    "kind": "user",
    "methods": {},
    "version": 1
  },
  "storageLayout": {
    "storage": [
      {
        "astId": 115,
        "contract": "contracts/NFT1155V0.sol:NFT1155V0",
        "label": "_initialized",
        "offset": 0,
        "slot": "0",
        "type": "t_bool"
      },
      {
        "astId": 118,
        "contract": "contracts/NFT1155V0.sol:NFT1155V0",
        "label": "_initializing",
        "offset": 1,
        "slot": "0",
        "type": "t_bool"
      },
      {
        "astId": 7104,
        "contract": "contracts/NFT1155V0.sol:NFT1155V0",
        "label": "_balances",
        "offset": 0,
        "slot": "1",
        "type": "t_mapping(t_uint256,t_mapping(t_address,t_uint256))"
      },
      {
        "astId": 7110,
        "contract": "contracts/NFT1155V0.sol:NFT1155V0",
        "label": "_operatorApprovals",
        "offset": 0,
        "slot": "2",
        "type": "t_mapping(t_address,t_mapping(t_address,t_bool))"
      },
      {
        "astId": 7112,
        "contract": "contracts/NFT1155V0.sol:NFT1155V0",
        "label": "_uri",
        "offset": 0,
        "slot": "3",
        "type": "t_string_storage"
      },
      {
        "astId": 9587,
        "contract": "contracts/NFT1155V0.sol:NFT1155V0",
        "label": "_owner",
        "offset": 0,
        "slot": "4",
        "type": "t_address"
      },
      {
        "astId": 5639,
        "contract": "contracts/NFT1155V0.sol:NFT1155V0",
        "label": "_DOMAIN_SEPARATOR",
        "offset": 0,
        "slot": "5",
        "type": "t_bytes32"
      },
      {
        "astId": 5641,
        "contract": "contracts/NFT1155V0.sol:NFT1155V0",
        "label": "_CACHED_CHAIN_ID",
        "offset": 0,
        "slot": "6",
        "type": "t_uint256"
      },
      {
        "astId": 5643,
        "contract": "contracts/NFT1155V0.sol:NFT1155V0",
        "label": "MAX_ROYALTY_FEE",
        "offset": 0,
        "slot": "7",
        "type": "t_uint8"
      },
      {
        "astId": 5645,
        "contract": "contracts/NFT1155V0.sol:NFT1155V0",
        "label": "_factory",
        "offset": 1,
        "slot": "7",
        "type": "t_address"
      },
      {
        "astId": 5647,
        "contract": "contracts/NFT1155V0.sol:NFT1155V0",
        "label": "_baseURI",
        "offset": 0,
        "slot": "8",
        "type": "t_string_storage"
      },
      {
        "astId": 5651,
        "contract": "contracts/NFT1155V0.sol:NFT1155V0",
        "label": "_uris",
        "offset": 0,
        "slot": "9",
        "type": "t_mapping(t_uint256,t_string_storage)"
      },
      {
        "astId": 5656,
        "contract": "contracts/NFT1155V0.sol:NFT1155V0",
        "label": "nonces",
        "offset": 0,
        "slot": "10",
        "type": "t_mapping(t_address,t_uint256)"
      },
      {
        "astId": 9767,
        "contract": "contracts/NFT1155V0.sol:NFT1155V0",
        "label": "_status",
        "offset": 0,
        "slot": "11",
        "type": "t_bool"
      },
      {
        "astId": 4645,
        "contract": "contracts/NFT1155V0.sol:NFT1155V0",
        "label": "bestBid",
        "offset": 0,
        "slot": "12",
        "type": "t_mapping(t_bytes32,t_struct(BestBid)4639_storage)"
      },
      {
        "astId": 4650,
        "contract": "contracts/NFT1155V0.sol:NFT1155V0",
        "label": "isCancelledOrClaimed",
        "offset": 0,
        "slot": "13",
        "type": "t_mapping(t_bytes32,t_bool)"
      },
      {
        "astId": 4655,
        "contract": "contracts/NFT1155V0.sol:NFT1155V0",
        "label": "amountFilled",
        "offset": 0,
        "slot": "14",
        "type": "t_mapping(t_bytes32,t_uint256)"
      },
      {
        "astId": 2189,
        "contract": "contracts/NFT1155V0.sol:NFT1155V0",
        "label": "_MAX_ROYALTY_FEE",
        "offset": 0,
        "slot": "15",
        "type": "t_uint8"
      },
      {
        "astId": 2191,
        "contract": "contracts/NFT1155V0.sol:NFT1155V0",
        "label": "_royaltyFeeRecipient",
        "offset": 1,
        "slot": "15",
        "type": "t_address"
      },
      {
        "astId": 2193,
        "contract": "contracts/NFT1155V0.sol:NFT1155V0",
        "label": "_royaltyFee",
        "offset": 21,
        "slot": "15",
        "type": "t_uint8"
      }
    ],
    "types": {
      "t_address": {
        "encoding": "inplace",
        "label": "address",
        "numberOfBytes": "20"
      },
      "t_bool": {
        "encoding": "inplace",
        "label": "bool",
        "numberOfBytes": "1"
      },
      "t_bytes32": {
        "encoding": "inplace",
        "label": "bytes32",
        "numberOfBytes": "32"
      },
      "t_mapping(t_address,t_bool)": {
        "encoding": "mapping",
        "key": "t_address",
        "label": "mapping(address => bool)",
        "numberOfBytes": "32",
        "value": "t_bool"
      },
      "t_mapping(t_address,t_mapping(t_address,t_bool))": {
        "encoding": "mapping",
        "key": "t_address",
        "label": "mapping(address => mapping(address => bool))",
        "numberOfBytes": "32",
        "value": "t_mapping(t_address,t_bool)"
      },
      "t_mapping(t_address,t_uint256)": {
        "encoding": "mapping",
        "key": "t_address",
        "label": "mapping(address => uint256)",
        "numberOfBytes": "32",
        "value": "t_uint256"
      },
      "t_mapping(t_bytes32,t_bool)": {
        "encoding": "mapping",
        "key": "t_bytes32",
        "label": "mapping(bytes32 => bool)",
        "numberOfBytes": "32",
        "value": "t_bool"
      },
      "t_mapping(t_bytes32,t_struct(BestBid)4639_storage)": {
        "encoding": "mapping",
        "key": "t_bytes32",
        "label": "mapping(bytes32 => struct BaseExchange.BestBid)",
        "numberOfBytes": "32",
        "value": "t_struct(BestBid)4639_storage"
      },
      "t_mapping(t_bytes32,t_uint256)": {
        "encoding": "mapping",
        "key": "t_bytes32",
        "label": "mapping(bytes32 => uint256)",
        "numberOfBytes": "32",
        "value": "t_uint256"
      },
      "t_mapping(t_uint256,t_mapping(t_address,t_uint256))": {
        "encoding": "mapping",
        "key": "t_uint256",
        "label": "mapping(uint256 => mapping(address => uint256))",
        "numberOfBytes": "32",
        "value": "t_mapping(t_address,t_uint256)"
      },
      "t_mapping(t_uint256,t_string_storage)": {
        "encoding": "mapping",
        "key": "t_uint256",
        "label": "mapping(uint256 => string)",
        "numberOfBytes": "32",
        "value": "t_string_storage"
      },
      "t_string_storage": {
        "encoding": "bytes",
        "label": "string",
        "numberOfBytes": "32"
      },
      "t_struct(BestBid)4639_storage": {
        "encoding": "inplace",
        "label": "struct BaseExchange.BestBid",
        "members": [
          {
            "astId": 4628,
            "contract": "contracts/NFT1155V0.sol:NFT1155V0",
            "label": "bidder",
            "offset": 0,
            "slot": "0",
            "type": "t_address"
          },
          {
            "astId": 4630,
            "contract": "contracts/NFT1155V0.sol:NFT1155V0",
            "label": "amount",
            "offset": 0,
            "slot": "1",
            "type": "t_uint256"
          },
          {
            "astId": 4632,
            "contract": "contracts/NFT1155V0.sol:NFT1155V0",
            "label": "price",
            "offset": 0,
            "slot": "2",
            "type": "t_uint256"
          },
          {
            "astId": 4634,
            "contract": "contracts/NFT1155V0.sol:NFT1155V0",
            "label": "recipient",
            "offset": 0,
            "slot": "3",
            "type": "t_address"
          },
          {
            "astId": 4636,
            "contract": "contracts/NFT1155V0.sol:NFT1155V0",
            "label": "referrer",
            "offset": 0,
            "slot": "4",
            "type": "t_address"
          },
          {
            "astId": 4638,
            "contract": "contracts/NFT1155V0.sol:NFT1155V0",
            "label": "blockNumber",
            "offset": 0,
            "slot": "5",
            "type": "t_uint256"
          }
        ],
        "numberOfBytes": "192"
      },
      "t_uint256": {
        "encoding": "inplace",
        "label": "uint256",
        "numberOfBytes": "32"
      },
      "t_uint8": {
        "encoding": "inplace",
        "label": "uint8",
        "numberOfBytes": "1"
      }
    }
  }
}