{
  "address": "0x3050e5DC1Eb2A8fc6dC58015f920193B7E49C696",
  "abi": [
    {
      "anonymous": false,
      "inputs": [
        {
          "indexed": true,
          "internalType": "address",
          "name": "account",
          "type": "address"
        },
        {
          "indexed": true,
          "internalType": "address",
          "name": "operator",
          "type": "address"
        },
        {
          "indexed": false,
          "internalType": "bool",
          "name": "approved",
          "type": "bool"
        }
      ],
      "name": "ApprovalForAll",
      "type": "event"
    },
    {
      "anonymous": false,
      "inputs": [
        {
          "indexed": true,
          "internalType": "bytes32",
          "name": "hash",
          "type": "bytes32"
        },
        {
          "indexed": false,
          "internalType": "address",
          "name": "bidder",
          "type": "address"
        },
        {
          "indexed": false,
          "internalType": "uint256",
          "name": "amount",
          "type": "uint256"
        },
        {
          "indexed": false,
          "internalType": "uint256",
          "name": "price",
          "type": "uint256"
        },
        {
          "indexed": false,
          "internalType": "address",
          "name": "recipient",
          "type": "address"
        },
        {
          "indexed": false,
          "internalType": "address",
          "name": "referrer",
          "type": "address"
        }
      ],
      "name": "Bid",
      "type": "event"
    },
    {
      "anonymous": false,
      "inputs": [
        {
          "indexed": true,
          "internalType": "uint256",
          "name": "tokenId",
          "type": "uint256"
        },
        {
          "indexed": false,
          "internalType": "uint256",
          "name": "amount",
          "type": "uint256"
        },
        {
          "indexed": true,
          "internalType": "uint256",
          "name": "label",
          "type": "uint256"
        },
        {
          "indexed": false,
          "internalType": "bytes32",
          "name": "data",
          "type": "bytes32"
        }
      ],
      "name": "Burn",
      "type": "event"
    },
    {
      "anonymous": false,
      "inputs": [
        {
          "indexed": true,
          "internalType": "bytes32",
          "name": "hash",
          "type": "bytes32"
        }
      ],
      "name": "Cancel",
      "type": "event"
    },
    {
      "anonymous": false,
      "inputs": [
        {
          "indexed": true,
          "internalType": "bytes32",
          "name": "hash",
          "type": "bytes32"
        },
        {
          "indexed": false,
          "internalType": "address",
          "name": "bidder",
          "type": "address"
        },
        {
          "indexed": false,
          "internalType": "uint256",
          "name": "amount",
          "type": "uint256"
        },
        {
          "indexed": false,
          "internalType": "uint256",
          "name": "price",
          "type": "uint256"
        },
        {
          "indexed": false,
          "internalType": "address",
          "name": "recipient",
          "type": "address"
        },
        {
          "indexed": false,
          "internalType": "address",
          "name": "referrer",
          "type": "address"
        }
      ],
      "name": "Execute",
      "type": "event"
    },
    {
      "anonymous": false,
      "inputs": [
        {
          "indexed": true,
          "internalType": "address",
          "name": "previousOwner",
          "type": "address"
        },
        {
          "indexed": true,
          "internalType": "address",
          "name": "newOwner",
          "type": "address"
        }
      ],
      "name": "OwnershipTransferred",
      "type": "event"
    },
    {
      "anonymous": false,
      "inputs": [
        {
          "indexed": false,
          "internalType": "uint8",
          "name": "fee",
          "type": "uint8"
        }
      ],
      "name": "SetRoyaltyFee",
      "type": "event"
    },
    {
      "anonymous": false,
      "inputs": [
        {
          "indexed": false,
          "internalType": "address",
          "name": "recipient",
          "type": "address"
        }
      ],
      "name": "SetRoyaltyFeeRecipient",
      "type": "event"
    },
    {
      "anonymous": false,
      "inputs": [
        {
          "indexed": true,
          "internalType": "address",
          "name": "operator",
          "type": "address"
        },
        {
          "indexed": true,
          "internalType": "address",
          "name": "from",
          "type": "address"
        },
        {
          "indexed": true,
          "internalType": "address",
          "name": "to",
          "type": "address"
        },
        {
          "indexed": false,
          "internalType": "uint256[]",
          "name": "ids",
          "type": "uint256[]"
        },
        {
          "indexed": false,
          "internalType": "uint256[]",
          "name": "values",
          "type": "uint256[]"
        }
      ],
      "name": "TransferBatch",
      "type": "event"
    },
    {
      "anonymous": false,
      "inputs": [
        {
          "indexed": true,
          "internalType": "address",
          "name": "operator",
          "type": "address"
        },
        {
          "indexed": true,
          "internalType": "address",
          "name": "from",
          "type": "address"
        },
        {
          "indexed": true,
          "internalType": "address",
          "name": "to",
          "type": "address"
        },
        {
          "indexed": false,
          "internalType": "uint256",
          "name": "id",
          "type": "uint256"
        },
        {
          "indexed": false,
          "internalType": "uint256",
          "name": "value",
          "type": "uint256"
        }
      ],
      "name": "TransferSingle",
      "type": "event"
    },
    {
      "anonymous": false,
      "inputs": [
        {
          "indexed": false,
          "internalType": "string",
          "name": "value",
          "type": "string"
        },
        {
          "indexed": true,
          "internalType": "uint256",
          "name": "id",
          "type": "uint256"
        }
      ],
      "name": "URI",
      "type": "event"
    },
    {
      "inputs": [],
      "name": "DOMAIN_SEPARATOR",
      "outputs": [
        {
          "internalType": "bytes32",
          "name": "",
          "type": "bytes32"
        }
      ],
      "stateMutability": "view",
      "type": "function"
    },
    {
      "inputs": [],
      "name": "PERMIT_TYPEHASH",
      "outputs": [
        {
          "internalType": "bytes32",
          "name": "",
          "type": "bytes32"
        }
      ],
      "stateMutability": "view",
      "type": "function"
    },
    {
      "inputs": [
        {
          "internalType": "bytes32",
          "name": "",
          "type": "bytes32"
        }
      ],
      "name": "amountFilled",
      "outputs": [
        {
          "internalType": "uint256",
          "name": "",
          "type": "uint256"
        }
      ],
      "stateMutability": "view",
      "type": "function"
    },
    {
      "inputs": [
        {
          "internalType": "address",
          "name": "account",
          "type": "address"
        },
        {
          "internalType": "uint256",
          "name": "id",
          "type": "uint256"
        }
      ],
      "name": "balanceOf",
      "outputs": [
        {
          "internalType": "uint256",
          "name": "",
          "type": "uint256"
        }
      ],
      "stateMutability": "view",
      "type": "function"
    },
    {
      "inputs": [
        {
          "internalType": "address[]",
          "name": "accounts",
          "type": "address[]"
        },
        {
          "internalType": "uint256[]",
          "name": "ids",
          "type": "uint256[]"
        }
      ],
      "name": "balanceOfBatch",
      "outputs": [
        {
          "internalType": "uint256[]",
          "name": "",
          "type": "uint256[]"
        }
      ],
      "stateMutability": "view",
      "type": "function"
    },
    {
      "inputs": [
        {
          "internalType": "bytes32",
          "name": "",
          "type": "bytes32"
        }
      ],
      "name": "bestBid",
      "outputs": [
        {
          "internalType": "address",
          "name": "bidder",
          "type": "address"
        },
        {
          "internalType": "uint256",
          "name": "amount",
          "type": "uint256"
        },
        {
          "internalType": "uint256",
          "name": "price",
          "type": "uint256"
        },
        {
          "internalType": "address",
          "name": "recipient",
          "type": "address"
        },
        {
          "internalType": "address",
          "name": "referrer",
          "type": "address"
        },
        {
          "internalType": "uint256",
          "name": "blockNumber",
          "type": "uint256"
        }
      ],
      "stateMutability": "view",
      "type": "function"
    },
    {
      "inputs": [
        {
          "components": [
            {
              "internalType": "address",
              "name": "signer",
              "type": "address"
            },
            {
              "internalType": "address",
              "name": "token",
              "type": "address"
            },
            {
              "internalType": "uint256",
              "name": "tokenId",
              "type": "uint256"
            },
            {
              "internalType": "uint256",
              "name": "amount",
              "type": "uint256"
            },
            {
              "internalType": "address",
              "name": "strategy",
              "type": "address"
            },
            {
              "internalType": "address",
              "name": "currency",
              "type": "address"
            },
            {
              "internalType": "address",
              "name": "recipient",
              "type": "address"
            },
            {
              "internalType": "uint256",
              "name": "deadline",
              "type": "uint256"
            },
            {
              "internalType": "bytes",
              "name": "params",
              "type": "bytes"
            },
            {
              "internalType": "uint8",
              "name": "v",
              "type": "uint8"
            },
            {
              "internalType": "bytes32",
              "name": "r",
              "type": "bytes32"
            },
            {
              "internalType": "bytes32",
              "name": "s",
              "type": "bytes32"
            }
          ],
          "internalType": "struct Orders.Ask",
          "name": "askOrder",
          "type": "tuple"
        },
        {
          "internalType": "uint256",
          "name": "bidAmount",
          "type": "uint256"
        },
        {
          "internalType": "uint256",
          "name": "bidPrice",
          "type": "uint256"
        },
        {
          "internalType": "address",
          "name": "bidRecipient",
          "type": "address"
        },
        {
          "internalType": "address",
          "name": "bidReferrer",
          "type": "address"
        }
      ],
      "name": "bid",
      "outputs": [
        {
          "internalType": "bool",
          "name": "executed",
          "type": "bool"
        }
      ],
      "stateMutability": "nonpayable",
      "type": "function"
    },
    {
      "inputs": [
        {
          "components": [
            {
              "internalType": "address",
              "name": "signer",
              "type": "address"
            },
            {
              "internalType": "address",
              "name": "token",
              "type": "address"
            },
            {
              "internalType": "uint256",
              "name": "tokenId",
              "type": "uint256"
            },
            {
              "internalType": "uint256",
              "name": "amount",
              "type": "uint256"
            },
            {
              "internalType": "address",
              "name": "strategy",
              "type": "address"
            },
            {
              "internalType": "address",
              "name": "currency",
              "type": "address"
            },
            {
              "internalType": "address",
              "name": "recipient",
              "type": "address"
            },
            {
              "internalType": "uint256",
              "name": "deadline",
              "type": "uint256"
            },
            {
              "internalType": "bytes",
              "name": "params",
              "type": "bytes"
            },
            {
              "internalType": "uint8",
              "name": "v",
              "type": "uint8"
            },
            {
              "internalType": "bytes32",
              "name": "r",
              "type": "bytes32"
            },
            {
              "internalType": "bytes32",
              "name": "s",
              "type": "bytes32"
            }
          ],
          "internalType": "struct Orders.Ask",
          "name": "askOrder",
          "type": "tuple"
        },
        {
          "components": [
            {
              "internalType": "bytes32",
              "name": "askHash",
              "type": "bytes32"
            },
            {
              "internalType": "address",
              "name": "signer",
              "type": "address"
            },
            {
              "internalType": "uint256",
              "name": "amount",
              "type": "uint256"
            },
            {
              "internalType": "uint256",
              "name": "price",
              "type": "uint256"
            },
            {
              "internalType": "address",
              "name": "recipient",
              "type": "address"
            },
            {
              "internalType": "address",
              "name": "referrer",
              "type": "address"
            },
            {
              "internalType": "uint8",
              "name": "v",
              "type": "uint8"
            },
            {
              "internalType": "bytes32",
              "name": "r",
              "type": "bytes32"
            },
            {
              "internalType": "bytes32",
              "name": "s",
              "type": "bytes32"
            }
          ],
          "internalType": "struct Orders.Bid",
          "name": "bidOrder",
          "type": "tuple"
        }
      ],
      "name": "bid",
      "outputs": [
        {
          "internalType": "bool",
          "name": "executed",
          "type": "bool"
        }
      ],
      "stateMutability": "nonpayable",
      "type": "function"
    },
    {
      "inputs": [
        {
          "internalType": "uint256",
          "name": "tokenId",
          "type": "uint256"
        },
        {
          "internalType": "uint256",
          "name": "amount",
          "type": "uint256"
        },
        {
          "internalType": "uint256",
          "name": "label",
          "type": "uint256"
        },
        {
          "internalType": "bytes32",
          "name": "data",
          "type": "bytes32"
        }
      ],
      "name": "burn",
      "outputs": [],
      "stateMutability": "nonpayable",
      "type": "function"
    },
    {
      "inputs": [
        {
          "internalType": "uint256[]",
          "name": "tokenIds",
          "type": "uint256[]"
        },
        {
          "internalType": "uint256[]",
          "name": "amounts",
          "type": "uint256[]"
        }
      ],
      "name": "burnBatch",
      "outputs": [],
      "stateMutability": "nonpayable",
      "type": "function"
    },
    {
      "inputs": [
        {
          "internalType": "address",
          "name": "token",
          "type": "address"
        }
      ],
      "name": "canTrade",
      "outputs": [
        {
          "internalType": "bool",
          "name": "",
          "type": "bool"
        }
      ],
      "stateMutability": "view",
      "type": "function"
    },
    {
      "inputs": [
        {
          "components": [
            {
              "internalType": "address",
              "name": "signer",
              "type": "address"
            },
            {
              "internalType": "address",
              "name": "token",
              "type": "address"
            },
            {
              "internalType": "uint256",
              "name": "tokenId",
              "type": "uint256"
            },
            {
              "internalType": "uint256",
              "name": "amount",
              "type": "uint256"
            },
            {
              "internalType": "address",
              "name": "strategy",
              "type": "address"
            },
            {
              "internalType": "address",
              "name": "currency",
              "type": "address"
            },
            {
              "internalType": "address",
              "name": "recipient",
              "type": "address"
            },
            {
              "internalType": "uint256",
              "name": "deadline",
              "type": "uint256"
            },
            {
              "internalType": "bytes",
              "name": "params",
              "type": "bytes"
            },
            {
              "internalType": "uint8",
              "name": "v",
              "type": "uint8"
            },
            {
              "internalType": "bytes32",
              "name": "r",
              "type": "bytes32"
            },
            {
              "internalType": "bytes32",
              "name": "s",
              "type": "bytes32"
            }
          ],
          "internalType": "struct Orders.Ask",
          "name": "order",
          "type": "tuple"
        }
      ],
      "name": "cancel",
      "outputs": [],
      "stateMutability": "nonpayable",
      "type": "function"
    },
    {
      "inputs": [
        {
          "components": [
            {
              "internalType": "address",
              "name": "signer",
              "type": "address"
            },
            {
              "internalType": "address",
              "name": "token",
              "type": "address"
            },
            {
              "internalType": "uint256",
              "name": "tokenId",
              "type": "uint256"
            },
            {
              "internalType": "uint256",
              "name": "amount",
              "type": "uint256"
            },
            {
              "internalType": "address",
              "name": "strategy",
              "type": "address"
            },
            {
              "internalType": "address",
              "name": "currency",
              "type": "address"
            },
            {
              "internalType": "address",
              "name": "recipient",
              "type": "address"
            },
            {
              "internalType": "uint256",
              "name": "deadline",
              "type": "uint256"
            },
            {
              "internalType": "bytes",
              "name": "params",
              "type": "bytes"
            },
            {
              "internalType": "uint8",
              "name": "v",
              "type": "uint8"
            },
            {
              "internalType": "bytes32",
              "name": "r",
              "type": "bytes32"
            },
            {
              "internalType": "bytes32",
              "name": "s",
              "type": "bytes32"
            }
          ],
          "internalType": "struct Orders.Ask",
          "name": "askOrder",
          "type": "tuple"
        }
      ],
      "name": "claim",
      "outputs": [],
      "stateMutability": "nonpayable",
      "type": "function"
    },
    {
      "inputs": [],
      "name": "factory",
      "outputs": [
        {
          "internalType": "address",
          "name": "",
          "type": "address"
        }
      ],
      "stateMutability": "view",
      "type": "function"
    },
    {
      "inputs": [
        {
          "internalType": "address",
          "name": "_owner",
          "type": "address"
        },
        {
          "internalType": "uint256[]",
          "name": "tokenIds",
          "type": "uint256[]"
        },
        {
          "internalType": "uint256[]",
          "name": "amounts",
          "type": "uint256[]"
        },
        {
          "internalType": "address",
          "name": "royaltyFeeRecipient",
          "type": "address"
        },
        {
          "internalType": "uint8",
          "name": "royaltyFee",
          "type": "uint8"
        }
      ],
      "name": "initialize",
      "outputs": [],
      "stateMutability": "nonpayable",
      "type": "function"
    },
    {
      "inputs": [
        {
          "internalType": "address",
          "name": "_owner",
          "type": "address"
        }
      ],
      "name": "initialize",
      "outputs": [],
      "stateMutability": "nonpayable",
      "type": "function"
    },
    {
      "inputs": [
        {
          "internalType": "address",
          "name": "account",
          "type": "address"
        },
        {
          "internalType": "address",
          "name": "operator",
          "type": "address"
        }
      ],
      "name": "isApprovedForAll",
      "outputs": [
        {
          "internalType": "bool",
          "name": "",
          "type": "bool"
        }
      ],
      "stateMutability": "view",
      "type": "function"
    },
    {
      "inputs": [
        {
          "internalType": "bytes32",
          "name": "",
          "type": "bytes32"
        }
      ],
      "name": "isCancelled",
      "outputs": [
        {
          "internalType": "bool",
          "name": "",
          "type": "bool"
        }
      ],
      "stateMutability": "view",
      "type": "function"
    },
    {
      "inputs": [
        {
          "internalType": "address",
          "name": "to",
          "type": "address"
        },
        {
          "internalType": "uint256",
          "name": "tokenId",
          "type": "uint256"
        },
        {
          "internalType": "uint256",
          "name": "amount",
          "type": "uint256"
        },
        {
          "internalType": "bytes",
          "name": "data",
          "type": "bytes"
        }
      ],
      "name": "mint",
      "outputs": [],
      "stateMutability": "nonpayable",
      "type": "function"
    },
    {
      "inputs": [
        {
          "internalType": "address",
          "name": "to",
          "type": "address"
        },
        {
          "internalType": "uint256[]",
          "name": "tokenIds",
          "type": "uint256[]"
        },
        {
          "internalType": "uint256[]",
          "name": "amounts",
          "type": "uint256[]"
        },
        {
          "internalType": "bytes",
          "name": "data",
          "type": "bytes"
        }
      ],
      "name": "mintBatch",
      "outputs": [],
      "stateMutability": "nonpayable",
      "type": "function"
    },
    {
      "inputs": [
        {
          "internalType": "address",
          "name": "",
          "type": "address"
        }
      ],
      "name": "nonces",
      "outputs": [
        {
          "internalType": "uint256",
          "name": "",
          "type": "uint256"
        }
      ],
      "stateMutability": "view",
      "type": "function"
    },
    {
      "inputs": [],
      "name": "owner",
      "outputs": [
        {
          "internalType": "address",
          "name": "",
          "type": "address"
        }
      ],
      "stateMutability": "view",
      "type": "function"
    },
    {
      "inputs": [
        {
          "internalType": "address",
          "name": "owner",
          "type": "address"
        },
        {
          "internalType": "address",
          "name": "spender",
          "type": "address"
        },
        {
          "internalType": "uint256",
          "name": "deadline",
          "type": "uint256"
        },
        {
          "internalType": "uint8",
          "name": "v",
          "type": "uint8"
        },
        {
          "internalType": "bytes32",
          "name": "r",
          "type": "bytes32"
        },
        {
          "internalType": "bytes32",
          "name": "s",
          "type": "bytes32"
        }
      ],
      "name": "permit",
      "outputs": [],
      "stateMutability": "nonpayable",
      "type": "function"
    },
    {
      "inputs": [],
      "name": "renounceOwnership",
      "outputs": [],
      "stateMutability": "nonpayable",
      "type": "function"
    },
    {
      "inputs": [],
      "name": "royaltyFeeInfo",
      "outputs": [
        {
          "internalType": "address",
          "name": "recipient",
          "type": "address"
        },
        {
          "internalType": "uint8",
          "name": "permil",
          "type": "uint8"
        }
      ],
      "stateMutability": "view",
      "type": "function"
    },
    {
      "inputs": [
        {
          "internalType": "uint256",
          "name": "",
          "type": "uint256"
        },
        {
          "internalType": "uint256",
          "name": "_salePrice",
          "type": "uint256"
        }
      ],
      "name": "royaltyInfo",
      "outputs": [
        {
          "internalType": "address",
          "name": "",
          "type": "address"
        },
        {
          "internalType": "uint256",
          "name": "",
          "type": "uint256"
        }
      ],
      "stateMutability": "view",
      "type": "function"
    },
    {
      "inputs": [
        {
          "internalType": "address",
          "name": "from",
          "type": "address"
        },
        {
          "internalType": "address",
          "name": "to",
          "type": "address"
        },
        {
          "internalType": "uint256[]",
          "name": "ids",
          "type": "uint256[]"
        },
        {
          "internalType": "uint256[]",
          "name": "amounts",
          "type": "uint256[]"
        },
        {
          "internalType": "bytes",
          "name": "data",
          "type": "bytes"
        }
      ],
      "name": "safeBatchTransferFrom",
      "outputs": [],
      "stateMutability": "nonpayable",
      "type": "function"
    },
    {
      "inputs": [
        {
          "internalType": "address",
          "name": "from",
          "type": "address"
        },
        {
          "internalType": "address",
          "name": "to",
          "type": "address"
        },
        {
          "internalType": "uint256",
          "name": "id",
          "type": "uint256"
        },
        {
          "internalType": "uint256",
          "name": "amount",
          "type": "uint256"
        },
        {
          "internalType": "bytes",
          "name": "data",
          "type": "bytes"
        }
      ],
      "name": "safeTransferFrom",
      "outputs": [],
      "stateMutability": "nonpayable",
      "type": "function"
    },
    {
      "inputs": [
        {
          "internalType": "address",
          "name": "operator",
          "type": "address"
        },
        {
          "internalType": "bool",
          "name": "approved",
          "type": "bool"
        }
      ],
      "name": "setApprovalForAll",
      "outputs": [],
      "stateMutability": "nonpayable",
      "type": "function"
    },
    {
      "inputs": [
        {
          "internalType": "string",
          "name": "baseURI",
          "type": "string"
        }
      ],
      "name": "setBaseURI",
      "outputs": [],
      "stateMutability": "nonpayable",
      "type": "function"
    },
    {
      "inputs": [
        {
          "internalType": "uint8",
          "name": "royaltyFee",
          "type": "uint8"
        }
      ],
      "name": "setRoyaltyFee",
      "outputs": [],
      "stateMutability": "nonpayable",
      "type": "function"
    },
    {
      "inputs": [
        {
          "internalType": "address",
          "name": "royaltyFeeRecipient",
          "type": "address"
        }
      ],
      "name": "setRoyaltyFeeRecipient",
      "outputs": [],
      "stateMutability": "nonpayable",
      "type": "function"
    },
    {
      "inputs": [
        {
          "internalType": "uint256",
          "name": "id",
          "type": "uint256"
        },
        {
          "internalType": "string",
          "name": "newURI",
          "type": "string"
        }
      ],
      "name": "setURI",
      "outputs": [],
      "stateMutability": "nonpayable",
      "type": "function"
    },
    {
      "inputs": [
        {
          "internalType": "bytes4",
          "name": "interfaceId",
          "type": "bytes4"
        }
      ],
      "name": "supportsInterface",
      "outputs": [
        {
          "internalType": "bool",
          "name": "",
          "type": "bool"
        }
      ],
      "stateMutability": "view",
      "type": "function"
    },
    {
      "inputs": [
        {
          "internalType": "address",
          "name": "newOwner",
          "type": "address"
        }
      ],
      "name": "transferOwnership",
      "outputs": [],
      "stateMutability": "nonpayable",
      "type": "function"
    },
    {
      "inputs": [
        {
          "internalType": "uint256",
          "name": "id",
          "type": "uint256"
        }
      ],
      "name": "uri",
      "outputs": [
        {
          "internalType": "string",
          "name": "",
          "type": "string"
        }
      ],
      "stateMutability": "view",
      "type": "function"
    }
  ],
  "transactionHash": "0xd4842bd0759de62b711613f0652e1db62bcf69dbc4fc77d7559b4d9fb0e1b600",
  "args": [],
  "solcInputHash": "649f3e90395d33e221dc9854e5364e1a",
  "bytecode": "0x608060405234801561001057600080fd5b50614fb9806100206000396000f3fe608060405234801561001057600080fd5b506004361061021a5760003560e01c80635f7ef2fa116101255780639a5d4407116100ad578063c4d66de81161007c578063c4d66de8146105ad578063def27164146105c0578063e985e9c5146105d3578063f242432a146105e6578063f2fde38b146105f95761021a565b80639a5d44071461054d578063a22cb46514610570578063bff5e79d14610583578063c45a0155146105965761021a565b806375e6590f116100f457806375e6590f146104c25780637ecebe00146104e257806383ca4b6f14610502578063862440e2146105155780638da5cb5b146105285761021a565b80635f7ef2fa146104815780636ef8e02d14610494578063715018a6146104a7578063731133e9146104af5761021a565b806330adf81f116101a85780634e1273f4116101775780634e1273f41461037057806350bf994a14610390578063559f05dc146103bd57806355f804b3146103dc5780635771f997146103ef5761021a565b806330adf81f1461031b5780633644e5151461034257806344f09d111461034a57806348613c281461035d5761021a565b80630e89341c116101ef5780630e89341c14610290578063177315e3146102b05780631f7fdffa146102c35780632a55205a146102d65780632eb2c2d6146103085761021a565b8062893bf81461021f578062fdd58e1461023457806301ffc9a71461025a5780630935d6631461027d575b600080fd5b61023261022d36600461469f565b61060c565b005b6102476102423660046143a3565b6106e9565b6040519081526020015b60405180910390f35b61026d6102683660046145b8565b610739565b6040519015158152602001610251565b61023261028b36600461469f565b610766565b6102a361029e3660046145a0565b610ae0565b6040516102519190614af4565b6102326102be36600461487d565b610d1e565b6102326102d13660046142e0565b610d6c565b6102e96102e436600461485c565b610dd1565b604080516001600160a01b039093168352602083019190915201610251565b6102326103163660046140d3565b610e16565b6102477fdaab21af31ece73a508939fedd476a5ee5129a5ed4bb091f3236ffb45394df6281565b610247611054565b61026d6103583660046147a3565b611064565b61023261036b3660046141e2565b6110b4565b61038361037e366004614450565b6111b5565b6040516102519190614aa3565b600f546040805161010083046001600160a01b03168152600160a81b90920460ff16602083015201610251565b61026d6103cb36600461407f565b6001600160a01b0381163014919050565b6102326103ea3660046145f0565b6112d4565b6104426103fd3660046145a0565b600c602052600090815260409020805460018201546002830154600384015460048501546005909501546001600160a01b039485169593949293918316929091169086565b604080516001600160a01b03978816815260208101969096528501939093529084166060840152909216608082015260a081019190915260c001610251565b61023261048f3660046148ae565b611315565b6102326104a236600461407f565b61134b565b61023261137e565b6102326104bd3660046143ce565b6113f2565b6102476104d03660046145a0565b600e6020526000908152604090205481565b6102476104f036600461407f565b600a6020526000908152604090205481565b61023261051036600461451c565b611451565b610232610523366004614822565b6114bf565b6004546001600160a01b03165b6040516001600160a01b039091168152602001610251565b61026d61055b3660046145a0565b600d6020526000908152604090205460ff1681565b61023261057e366004614376565b61150d565b610232610591366004614246565b611518565b61053560075461010090046001600160a01b031690565b6102326105bb36600461407f565b611683565b61026d6105ce3660046146d1565b6117bf565b61026d6105e136600461409b565b6118ea565b6102326105f436600461417c565b611918565b61023261060736600461407f565b6119fe565b80516001600160a01b0316331461063e5760405162461bcd60e51b815260040161063590614b07565b60405180910390fd5b600061064982611ada565b6000818152600c60205260409020549091506001600160a01b0316156106a55760405162461bcd60e51b815260206004820152601160248201527053484f59553a204249445f45584953545360781b6044820152606401610635565b6000818152600d6020526040808220805460ff191660011790555182917fe8d9861dbc9c663ed3accd261bbe2fe01e0d3d9e5f51fa38523b265c7757a93a91a25050565b60006001600160a01b0383166107115760405162461bcd60e51b815260040161063590614ba9565b5060009081526001602090815260408083206001600160a01b03949094168352929052205490565b600063152a902d60e11b6001600160e01b03198316148061075e575061075e82611bb8565b90505b919050565b6002600b5414156107895760405162461bcd60e51b815260040161063590614b31565b6002600b5560208101516001600160a01b031630146107e45760405162461bcd60e51b815260206004820152601760248201527653484f59553a20494e56414c49445f45584348414e474560481b6044820152606401610635565b60006107ef82611ada565b90506107fb8282611c08565b61082381836000015184610120015185610140015186610160015161081e611054565b611ed8565b6000818152600c6020908152604091829020825160c08101845281546001600160a01b039081168083526001840154948301949094526002830154828601819052600384015482166060840152600480850154831660808086019190915260059095015460a08501529388015160e08901516101008a0151975163e01be26360e01b81529497919093169563e01be263956108c2959293919201614c47565b60206040518083038186803b1580156108da57600080fd5b505afa1580156108ee573d6000803e3d6000fd5b505050506040513d601f19601f820116820180604052508101906109129190614584565b61094f5760405162461bcd60e51b815260206004820152600e60248201526d53484f59553a204641494c55524560901b6044820152606401610635565b60c08301516001600160a01b038116610966575082515b61098d8460a00151836000015183856020015186604001516109889190614d52565b61208e565b15610a94576020808301516000858152600e9092526040909120546109b29190614d1a565b6000848152600e602052604090205560608201516001600160a01b0381166109d8575081515b6109f58560200151866000015183886040015187602001516122d1565b6000848152600c6020908152604080832080546001600160a01b03199081168255600182018590556002820185905560038201805482169055600482018054909116905560050192909255845190850151858301516080870151935188947f72fd87c5ad3903eb05815544ef7ea4640a18e631c9c02eb099c810834f82355594610a86949093909290918891614a71565b60405180910390a250610ad5565b6000838152600d6020526040808220805460ff191660011790555184917fe8d9861dbc9c663ed3accd261bbe2fe01e0d3d9e5f51fa38523b265c7757a93a91a25b50506001600b555050565b600081815260096020526040812080546060929190610afe90614dcb565b80601f0160208091040260200160405190810160405280929190818152602001828054610b2a90614dcb565b8015610b775780601f10610b4c57610100808354040283529160200191610b77565b820191906000526020600020905b815481529060010190602001808311610b5a57829003601f168201915b50505050509050600081511115610b8f579050610761565b600060088054610b9e90614dcb565b80601f0160208091040260200160405190810160405280929190818152602001828054610bca90614dcb565b8015610c175780601f10610bec57610100808354040283529160200191610c17565b820191906000526020600020905b815481529060010190602001808311610bfa57829003601f168201915b50505050509050600081511115610c515780604051602001610c3991906149ac565b60405160208183030381529060405292505050610761565b600760019054906101000a90046001600160a01b03166001600160a01b031663c6edbca46040518163ffffffff1660e01b815260040160006040518083038186803b158015610c9f57600080fd5b505afa158015610cb3573d6000803e3d6000fd5b505050506040513d6000823e601f3d908101601f19168201604052610cdb9190810190614622565b90506000610cea30601461231e565b90508181604051602001610cff929190614968565b6040516020818303038152906040529350505050610761565b50919050565b610d29338585612506565b6040805184815260208101839052839186917fed1397de7c11c080337d84f0acdca9b26b1237affe97a486bb12549594a70731910160405180910390a350505050565b33610d7f6004546001600160a01b031690565b6001600160a01b03161480610da3575060075461010090046001600160a01b031633145b610dbf5760405162461bcd60e51b815260040161063590614b07565b610dcb848484846125f8565b50505050565b600f54600090819061010081046001600160a01b0316906103e890610e0090600160a81b900460ff1686614d52565b610e0a9190614d32565b915091505b9250929050565b8151835114610e375760405162461bcd60e51b815260040161063590614bd9565b6001600160a01b038416610e5d5760405162461bcd60e51b815260040161063590614ba9565b6001600160a01b038516331480610e795750610e7985336118ea565b610e955760405162461bcd60e51b815260040161063590614b07565b3360005b8451811015610fe6576000858281518110610ec457634e487b7160e01b600052603260045260246000fd5b602002602001015190506000858381518110610ef057634e487b7160e01b600052603260045260246000fd5b60209081029190910181015160008481526001835260408082206001600160a01b038e168352909352919091205490915081811015610f415760405162461bcd60e51b815260040161063590614c10565b610f4b8282614d71565b6001600085815260200190815260200160002060008c6001600160a01b03166001600160a01b0316815260200190815260200160002081905550816001600085815260200190815260200160002060008b6001600160a01b03166001600160a01b031681526020019081526020016000206000828254610fcb9190614d1a565b9250508190555050505080610fdf90614e2c565b9050610e99565b50846001600160a01b0316866001600160a01b0316826001600160a01b03167f4a39dc06d4c0dbc64b70af90fd698a233a518aa5d07e595d983b8c0526c8f7fb8787604051611036929190614ab6565b60405180910390a461104c81878787878761275c565b505050505050565b600061105e6128c9565b90505b90565b60006002600b5414156110895760405162461bcd60e51b815260040161063590614b31565b6002600b556110a58661109b81611ada565b3388888888612975565b6001600b559695505050505050565b834211156110c157600080fd5b6001600160a01b0386166110e75760405162461bcd60e51b815260040161063590614ba9565b6001600160a01b038681166000818152600a60209081526040918290205482517fdaab21af31ece73a508939fedd476a5ee5129a5ed4bb091f3236ffb45394df6281840152808401949094529389166060840152608083019390935260a08083018890528151808403909101815260c090920190528051910120611171818886868661081e611054565b6001600160a01b0387166000908152600a6020526040812080546001929061119a908490614d1a565b909155506111ac905087876001612dcf565b50505050505050565b606081518351146111d85760405162461bcd60e51b815260040161063590614bd9565b600083516001600160401b0381111561120157634e487b7160e01b600052604160045260246000fd5b60405190808252806020026020018201604052801561122a578160200160208202803683370190505b50905060005b84518110156112cc5761129185828151811061125c57634e487b7160e01b600052603260045260246000fd5b602002602001015185838151811061128457634e487b7160e01b600052603260045260246000fd5b60200260200101516106e9565b8282815181106112b157634e487b7160e01b600052603260045260246000fd5b60209081029190910101526112c581614e2c565b9050611230565b509392505050565b6004546001600160a01b031633146112fe5760405162461bcd60e51b815260040161063590614b07565b8051611311906008906020840190613dda565b5050565b6004546001600160a01b0316331461133f5760405162461bcd60e51b815260040161063590614b07565b61134881612e93565b50565b6004546001600160a01b031633146113755760405162461bcd60e51b815260040161063590614b07565b61134881612fa4565b6004546001600160a01b031633146113a85760405162461bcd60e51b815260040161063590614b07565b6004546040516000916001600160a01b0316907f8be0079c531659141344cd1fd0a4f28419497f9722a3daafe3b4186f6b6457e0908390a3600480546001600160a01b0319169055565b336114056004546001600160a01b031690565b6001600160a01b03161480611429575060075461010090046001600160a01b031633145b6114455760405162461bcd60e51b815260040161063590614b07565b610dcb84848484613050565b610dcb338585808060200260200160405190810160405280939291908181526020018383602002808284376000920191909152505060408051602080890282810182019093528882529093508892508791829185019084908082843760009201919091525061310792505050565b6004546001600160a01b031633146114e95760405162461bcd60e51b815260040161063590614b07565b6000828152600960209081526040909120825161150892840190613dda565b505050565b611311338383612dcf565b600054610100900460ff1680611531575060005460ff16155b61154d5760405162461bcd60e51b815260040161063590614b5b565b600054610100900460ff1615801561156f576000805461ffff19166101011790555b6115776132ae565b61158086611683565b600760019054906101000a90046001600160a01b03166001600160a01b03166317e1f82e6040518163ffffffff1660e01b815260040160206040518083038186803b1580156115ce57600080fd5b505afa1580156115e2573d6000803e3d6000fd5b505050506040513d601f19601f8201168201806040525081019061160691906148ca565b600f805460ff191660ff9290921691909117905584511561163c5761163c868686604051806020016040528060008152506125f8565b61164583612fa4565b600f805460ff60a81b191660ff60a81b17905560ff82161561166a5761166a82612e93565b801561104c576000805461ff0019169055505050505050565b600054610100900460ff168061169c575060005460ff16155b6116b85760405162461bcd60e51b815260040161063590614b5b565b600054610100900460ff161580156116da576000805461ffff19166101011790555b6116f260405180602001604052806000815250613321565b6116fb82613396565b60078054610100600160a81b0319163361010002179055466006557f8b73c3c69bb8fe3d512ecc4cf759cc79239f7b179b0ffacaa9a75d522b39400f611740306133f6565b80516020918201206040805192830193909352918101919091527fc89efdaa54c0f20c7adf612882df0950f5a951637e0307cdcb4c672f298b8bc660608201524660808201523060a082015260c00160408051601f1981840301815291905280516020909101206005558015611311576000805461ff00191690555050565b60006002600b5414156117e45760405162461bcd60e51b815260040161063590614b31565b6002600b5560006117f484611ada565b8351909150811461183f5760405162461bcd60e51b81526020600482015260156024820152740a6909eb2aa7440aa9c9a82a886908a88be9082a69605b1b6044820152606401610635565b60208301516001600160a01b03166118915760405162461bcd60e51b815260206004820152601560248201527429a427acaa9d1024a72b20a624a22fa9a4a3a722a960591b6044820152606401610635565b6118ba61189d8461344b565b84602001518560c001518660e0015187610100015161081e611054565b6118dd848285602001518660400151876060015188608001518960a00151612975565b6001600b55949350505050565b6001600160a01b03918216600090815260026020908152604080832093909416825291909152205460ff1690565b6001600160a01b03841661193e5760405162461bcd60e51b815260040161063590614ba9565b6001600160a01b03851633148061195a575061195a85336118ea565b6119765760405162461bcd60e51b815260040161063590614b07565b33611996818787611986886134d6565b61198f886134d6565b5050505050565b6119a28686868661352f565b846001600160a01b0316866001600160a01b0316826001600160a01b0316600080516020614f6483398151915287876040516119e8929190918252602082015260400190565b60405180910390a461104c8187878787876135c6565b6004546001600160a01b03163314611a285760405162461bcd60e51b815260040161063590614b07565b6001600160a01b038116611a7e5760405162461bcd60e51b815260206004820152601860248201527f53484f59553a20494e56414c49445f4e45575f4f574e455200000000000000006044820152606401610635565b6004546040516001600160a01b038084169216907f8be0079c531659141344cd1fd0a4f28419497f9722a3daafe3b4186f6b6457e090600090a3600480546001600160a01b0319166001600160a01b0392909216919091179055565b80516020808301516040808501516060860151608087015160a088015160c089015160e08a01516101008b01518051908a0120965160009a611b9b9a7f17fdf8831f8bd77353b30f42ba9bc64e7144545a42a890389f298feeb45dec889a9199919897969594939201998a526001600160a01b0398891660208b015296881660408a01526060890195909552608088019390935290851660a0870152841660c086015290921660e08401526101008301919091526101208201526101400190565b604051602081830303815290604052805190602001209050919050565b60006001600160e01b03198216636cdb3d1360e11b1480611be957506001600160e01b031982166303a24d0760e21b145b8061075e57506301ffc9a760e01b6001600160e01b031983161461075e565b6000818152600d602052604090205460ff1615611c5a5760405162461bcd60e51b815260206004820152601060248201526f14d213d6554e8810d05390d15313115160821b6044820152606401610635565b81516001600160a01b0316611ca85760405162461bcd60e51b815260206004820152601460248201527329a427acaa9d1024a72b20a624a22fa6a0a5a2a960611b6044820152606401610635565b60208201516001600160a01b0316611cf75760405162461bcd60e51b815260206004820152601260248201527114d213d6554e881253959053125117d3919560721b6044820152606401610635565b6000826060015111611d435760405162461bcd60e51b815260206004820152601560248201527414d213d6554e881253959053125117d05353d55395605a1b6044820152606401610635565b60808201516001600160a01b0316611d9d5760405162461bcd60e51b815260206004820152601760248201527f53484f59553a20494e56414c49445f53545241544547590000000000000000006044820152606401610635565b60a08201516001600160a01b0316611df75760405162461bcd60e51b815260206004820152601760248201527f53484f59553a20494e56414c49445f43555252454e43590000000000000000006044820152606401610635565b611e0e60075461010090046001600160a01b031690565b6080830151604051632666e89f60e21b81526001600160a01b03918216600482015291169063999ba27c9060240160206040518083038186803b158015611e5457600080fd5b505afa158015611e68573d6000803e3d6000fd5b505050506040513d601f19601f82011682018060405250810190611e8c9190614584565b6113115760405162461bcd60e51b815260206004820152601f60248201527f53484f59553a2053545241544547595f4e4f545f57484954454c4953544544006044820152606401610635565b60405161190160f01b60208201526022810182905260428101879052600090606201604051602081830303815290604052805190602001209050611f1c863b151590565b1561202c57604080516020810186905280820185905260f887901b6001600160f81b0319166060820152815160418183030181526061820192839052630b135d3f60e11b9092526001600160a01b03881691631626ba7e91611f82918591606501614adb565b60206040518083038186803b158015611f9a57600080fd5b505afa158015611fae573d6000803e3d6000fd5b505050506040513d601f19601f82011682018060405250810190611fd291906145d4565b6001600160e01b031916631626ba7e60e01b146120275760405162461bcd60e51b815260206004820152601360248201527214d213d6554e8815539055551213d492569151606a1b6044820152606401610635565b6111ac565b856001600160a01b0316612042828787876136ba565b6001600160a01b0316146111ac5760405162461bcd60e51b815260206004820152601360248201527214d213d6554e8815539055551213d492569151606a1b6044820152606401610635565b600061209c85853085613863565b6120a8575060006122c9565b60006120c160075461010090046001600160a01b031690565b90506000839050600080836001600160a01b031663aec0b5436040518163ffffffff1660e01b8152600401604080518083038186803b15801561210357600080fd5b505afa158015612117573d6000803e3d6000fd5b505050506040513d601f19601f8201168201806040525081019061213b9190614422565b909250905060006103e861215260ff841689614d52565b61215c9190614d32565b90506121726001600160a01b038b168483613935565b61217c8185614d71565b9350505050600080836001600160a01b031663c2b11e186040518163ffffffff1660e01b8152600401604080518083038186803b1580156121bc57600080fd5b505afa1580156121d0573d6000803e3d6000fd5b505050506040513d601f19601f820116820180604052508101906121f49190614422565b909250905060006103e861220b60ff841689614d52565b6122159190614d32565b905061222b6001600160a01b038b168483613935565b6122358185614d71565b9350505050600080612260600f5461010081046001600160a01b031691600160a81b90910460ff1690565b909250905060ff808216146122ac5760006103e861228160ff841686614d52565b61228b9190614d32565b905080156122aa5761229d8185614d71565b93506122aa8a8483613987565b505b6122c06001600160a01b038a168885613935565b60019450505050505b949350505050565b6122dd8484848461352f565b60408051838152602081018390526001600160a01b0380861692908716913391600080516020614f6483398151915291015b60405180910390a45050505050565b6060600061232d836002614d52565b612338906002614d1a565b6001600160401b0381111561235d57634e487b7160e01b600052604160045260246000fd5b6040519080825280601f01601f191660200182016040528015612387576020820181803683370190505b509050600360fc1b816000815181106123b057634e487b7160e01b600052603260045260246000fd5b60200101906001600160f81b031916908160001a905350600f60fb1b816001815181106123ed57634e487b7160e01b600052603260045260246000fd5b60200101906001600160f81b031916908160001a9053506000612411846002614d52565b61241c906001614d1a565b90505b60018111156124b0576f181899199a1a9b1b9c1cb0b131b232b360811b85600f166010811061245e57634e487b7160e01b600052603260045260246000fd5b1a60f81b82828151811061248257634e487b7160e01b600052603260045260246000fd5b60200101906001600160f81b031916908160001a90535060049490941c936124a981614db4565b905061241f565b5083156124ff5760405162461bcd60e51b815260206004820181905260248201527f537472696e67733a20686578206c656e67746820696e73756666696369656e746044820152606401610635565b9392505050565b6001600160a01b03831661252c5760405162461bcd60e51b815260040161063590614ba9565b3361255c8185600061253d876134d6565b612546876134d6565b5050604080516020810190915260009052505050565b60008381526001602090815260408083206001600160a01b03881684529091529020548281101561259f5760405162461bcd60e51b815260040161063590614c10565b6125a98382614d71565b60008581526001602090815260408083206001600160a01b038a81168086529184528285209590955581518981529283018890529293861691600080516020614f64833981519152910161230f565b6001600160a01b03841661261e5760405162461bcd60e51b815260040161063590614ba9565b815183511461263f5760405162461bcd60e51b815260040161063590614bd9565b3360005b84518110156126f85783818151811061266c57634e487b7160e01b600052603260045260246000fd5b60200260200101516001600087848151811061269857634e487b7160e01b600052603260045260246000fd5b602002602001015181526020019081526020016000206000886001600160a01b03166001600160a01b0316815260200190815260200160002060008282546126e09190614d1a565b909155508190506126f081614e2c565b915050612643565b50846001600160a01b031660006001600160a01b0316826001600160a01b03167f4a39dc06d4c0dbc64b70af90fd698a233a518aa5d07e595d983b8c0526c8f7fb8787604051612749929190614ab6565b60405180910390a461198f816000878787875b6001600160a01b0384163b1561104c5760405163bc197c8160e01b81526001600160a01b0385169063bc197c81906127a090899089908890889088906004016149d9565b602060405180830381600087803b1580156127ba57600080fd5b505af19250505080156127ea575060408051601f3d908101601f191682019092526127e7918101906145d4565b60015b61286f576127f6614e73565b806308c379a01415612830575061280b614e8a565b806128165750612832565b8060405162461bcd60e51b81526004016106359190614af4565b505b60405162461bcd60e51b815260206004820152601260248201527129a427acaa9d102727afa922a1a2a4ab22a960711b6044820152606401610635565b6001600160e01b0319811663bc197c8160e01b146111ac5760405162461bcd60e51b815260206004820152601760248201527629a427acaa9d1024a72b20a624a22fa922a1a2a4ab22a960491b6044820152606401610635565b6000804660065414156128df575060055461105e565b7f8b73c3c69bb8fe3d512ecc4cf759cc79239f7b179b0ffacaa9a75d522b39400f612909306133f6565b80516020918201206040805192830193909352918101919091527fc89efdaa54c0f20c7adf612882df0950f5a951637e0307cdcb4c672f298b8bc660608201524660808201523060a082015260c001604051602081830303815290604052805190602001209050905090565b60208701516000906001600160a01b031630146129ce5760405162461bcd60e51b815260206004820152601760248201527653484f59553a20494e56414c49445f45584348414e474560481b6044820152606401610635565b60008511612a165760405162461bcd60e51b815260206004820152601560248201527414d213d6554e881253959053125117d05353d55395605a1b6044820152606401610635565b6000878152600e60205260409020546060890151612a348783614d1a565b1115612a745760405162461bcd60e51b815260206004820152600f60248201526e14d213d6554e8814d3d31117d3d555608a1b6044820152606401610635565b612a7e8989611c08565b612aa1888a600001518b61012001518c61014001518d610160015161081e611054565b88608001516001600160a01b031663e01be2638a60e001518b61010001518a896040518563ffffffff1660e01b8152600401612ae09493929190614c47565b60206040518083038186803b158015612af857600080fd5b505afa158015612b0c573d6000803e3d6000fd5b505050506040513d601f19601f82011682018060405250810190612b309190614584565b15612c3c57612b3f8682614d1a565b6000898152600e602052604090205560c08901516001600160a01b038116612b65575088515b60a08a0151612b7a9089836109888b8b614d52565b612bc65760405162461bcd60e51b815260206004820152601f60248201527f53484f59553a204641494c45445f544f5f5452414e534645525f46554e4453006044820152606401610635565b6001600160a01b038516612bd8578794505b612bf18a602001518b60000151878d604001518b6122d1565b887f72fd87c5ad3903eb05815544ef7ea4640a18e631c9c02eb099c810834f8235558989898989604051612c29959493929190614a71565b60405180910390a2600192505050612dc4565b6000888152600c60205260409081902060808b015160e08c01516101008d0151600284015460058501549551633140c34d60e11b815294956001600160a01b0390941694636281869a94612c999493928f928e9290600401614c7c565b60206040518083038186803b158015612cb157600080fd5b505afa158015612cc5573d6000803e3d6000fd5b505050506040513d601f19601f82011682018060405250810190612ce99190614584565b15612d8a5780546001600160a01b03808a166001600160a01b031992831617835560018301899055600283018890556003830180548883169084161790556004830180549187169190921617905543600582015560405189907f4055f76fe1f351fec66b9ba790ddbdc29eb45c038163a6b1327277441a8c65f190612d77908b908b908b908b908b90614a71565b60405180910390a2600092505050612dc4565b5060405162461bcd60e51b815260206004820152600e60248201526d53484f59553a204641494c55524560901b6044820152606401610635565b979650505050505050565b816001600160a01b0316836001600160a01b03161415612e265760405162461bcd60e51b815260206004820152601260248201527114d213d6554e881393d517d0531313d5d15160721b6044820152606401610635565b6001600160a01b03838116600081815260026020908152604080832094871680845294825291829020805460ff191686151590811790915591519182527f17307eab39ab6107e8899845ad3d59bd9653f200f220920489ca2b5937696c31910160405180910390a3505050565b600f54600160a81b900460ff9081161415612efb57600f5460ff9081169082161115612ef65760405162461bcd60e51b815260206004820152601260248201527153484f59553a20494e56414c49445f46454560701b6044820152606401610635565b612f4f565b600f5460ff600160a81b909104811690821610612f4f5760405162461bcd60e51b815260206004820152601260248201527153484f59553a20494e56414c49445f46454560701b6044820152606401610635565b600f805460ff60a81b1916600160a81b60ff8416908102919091179091556040519081527fd9ac3bc8ad92267d0b101786ddb4d37746ed1e3ee77637846294edf17dd9eb8a906020015b60405180910390a150565b6001600160a01b038116612ffa5760405162461bcd60e51b815260206004820152601c60248201527f53484f59553a20494e56414c49445f4645455f524543495049454e54000000006044820152606401610635565b600f8054610100600160a81b0319166101006001600160a01b038416908102919091179091556040519081527f1ce5f25607cb1a4fa6c947b55700213a9ed6a1d7ef1cf1d02ab467efd02a993e90602001612f99565b6001600160a01b0384166130765760405162461bcd60e51b815260040161063590614ba9565b3361308781600087611986886134d6565b60008481526001602090815260408083206001600160a01b0389168452909152812080548592906130b9908490614d1a565b909155505060408051858152602081018590526001600160a01b038088169260009291851691600080516020614f64833981519152910160405180910390a461198f816000878787876135c6565b6001600160a01b03831661312d5760405162461bcd60e51b815260040161063590614ba9565b805182511461314e5760405162461bcd60e51b815260040161063590614bd9565b6040805160208101909152600090523360005b835181101561324f57600084828151811061318c57634e487b7160e01b600052603260045260246000fd5b6020026020010151905060008483815181106131b857634e487b7160e01b600052603260045260246000fd5b60209081029190910181015160008481526001835260408082206001600160a01b038c1683529093529190912054909150818110156132095760405162461bcd60e51b815260040161063590614c10565b6132138282614d71565b60009384526001602090815260408086206001600160a01b038c168752909152909320929092555081905061324781614e2c565b915050613161565b5060006001600160a01b0316846001600160a01b0316826001600160a01b03167f4a39dc06d4c0dbc64b70af90fd698a233a518aa5d07e595d983b8c0526c8f7fb86866040516132a0929190614ab6565b60405180910390a450505050565b600054610100900460ff16806132c7575060005460ff16155b6132e35760405162461bcd60e51b815260040161063590614b5b565b600054610100900460ff16158015613305576000805461ffff19166101011790555b61330d613a16565b8015611348576000805461ff001916905550565b600054610100900460ff168061333a575060005460ff16155b6133565760405162461bcd60e51b815260040161063590614b5b565b600054610100900460ff16158015613378576000805461ffff19166101011790555b61338182613a75565b8015611311576000805461ff00191690555050565b600054610100900460ff16806133af575060005460ff16155b6133cb5760405162461bcd60e51b815260040161063590614b5b565b600054610100900460ff161580156133ed576000805461ffff19166101011790555b61338182613ad5565b60608161341e57506040805180820190915260048152630307830360e41b6020820152610761565b8160005b8115613441578061343281614e2c565b915050600882901c9150613422565b6122c9848261231e565b80516020808301516040808501516060860151608087015160a08801519351600097611b9b977fb98e1dc48988064e6dfb813618609d7da80a8841e5f277039788ac4b50d497b297919691959493920196875260208701959095526001600160a01b03938416604087015260608601929092526080850152811660a08401521660c082015260e00190565b6040805160018082528183019092526060916000919060208083019080368337019050509050828160008151811061351e57634e487b7160e01b600052603260045260246000fd5b602090810291909101015292915050565b60008281526001602090815260408083206001600160a01b0388168452909152902054818110156135725760405162461bcd60e51b815260040161063590614c10565b61357c8282614d71565b60008481526001602090815260408083206001600160a01b038a811685529252808320939093558616815290812080548492906135ba908490614d1a565b90915550505050505050565b6001600160a01b0384163b1561104c5760405163f23a6e6160e01b81526001600160a01b0385169063f23a6e619061360a9089908990889088908890600401614a37565b602060405180830381600087803b15801561362457600080fd5b505af1925050508015613654575060408051601f3d908101601f19168201909252613651918101906145d4565b60015b613660576127f6614e73565b6001600160e01b0319811663f23a6e6160e01b146111ac5760405162461bcd60e51b815260206004820152601760248201527629a427acaa9d1024a72b20a624a22fa922a1a2a4ab22a960491b6044820152606401610635565b60007f7fffffffffffffffffffffffffffffff5d576e7357a4501ddfe92f46681b20a08211156137375760405162461bcd60e51b815260206004820152602260248201527f45434453413a20696e76616c6964207369676e6174757265202773272076616c604482015261756560f01b6064820152608401610635565b8360ff16601b148061374c57508360ff16601c145b6137a35760405162461bcd60e51b815260206004820152602260248201527f45434453413a20696e76616c6964207369676e6174757265202776272076616c604482015261756560f01b6064820152608401610635565b6040805160008082526020820180845288905260ff871692820192909252606081018590526080810184905260019060a0016020604051602081039080840390855afa1580156137f7573d6000803e3d6000fd5b5050604051601f1901519150506001600160a01b03811661385a5760405162461bcd60e51b815260206004820152601860248201527f45434453413a20696e76616c6964207369676e617475726500000000000000006044820152606401610635565b95945050505050565b604080516001600160a01b0385811660248301528481166044830152606480830185905283518084039091018152608490920183526020820180516001600160e01b03166323b872dd60e01b179052915160009283928392918916916138c9919061494c565b6000604051808303816000865af19150503d8060008114613906576040519150601f19603f3d011682016040523d82523d6000602084013e61390b565b606091505b5091509150818015612dc4575080511580612dc4575080806020019051810190612dc49190614584565b604080516001600160a01b038416602482015260448082018490528251808303909101815260649091019091526020810180516001600160e01b031663a9059cbb60e01b179052611508908490613b8a565b61399b6001600160a01b0384168383613935565b813b1561150857816001600160a01b031663fff6cae96040518163ffffffff1660e01b8152600401602060405180830381600087803b1580156139dd57600080fd5b505af1925050508015613a0d575060408051601f3d908101601f19168201909252613a0a9181019061480a565b60015b610dcb57611508565b600054610100900460ff1680613a2f575060005460ff16155b613a4b5760405162461bcd60e51b815260040161063590614b5b565b600054610100900460ff16158015613a6d576000805461ffff19166101011790555b61330d613c5c565b600054610100900460ff1680613a8e575060005460ff16155b613aaa5760405162461bcd60e51b815260040161063590614b5b565b600054610100900460ff16158015613acc576000805461ffff19166101011790555b61338182613ccc565b600054610100900460ff1680613aee575060005460ff16155b613b0a5760405162461bcd60e51b815260040161063590614b5b565b600054610100900460ff16158015613b2c576000805461ffff19166101011790555b600480546001600160a01b0319166001600160a01b0384169081179091556040516000907f8be0079c531659141344cd1fd0a4f28419497f9722a3daafe3b4186f6b6457e0908290a38015611311576000805461ff00191690555050565b6000613bdf826040518060400160405280602081526020017f5361666545524332303a206c6f772d6c6576656c2063616c6c206661696c6564815250856001600160a01b0316613cdf9092919063ffffffff16565b8051909150156115085780806020019051810190613bfd9190614584565b6115085760405162461bcd60e51b815260206004820152602a60248201527f5361666545524332303a204552433230206f7065726174696f6e20646964206e6044820152691bdd081cdd58d8d9595960b21b6064820152608401610635565b600054610100900460ff1680613c75575060005460ff16155b613c915760405162461bcd60e51b815260040161063590614b5b565b600054610100900460ff16158015613cb3576000805461ffff19166101011790555b6001600b558015611348576000805461ff001916905550565b8051611311906003906020840190613dda565b60606122c9848460008585843b613d385760405162461bcd60e51b815260206004820152601d60248201527f416464726573733a2063616c6c20746f206e6f6e2d636f6e74726163740000006044820152606401610635565b600080866001600160a01b03168587604051613d54919061494c565b60006040518083038185875af1925050503d8060008114613d91576040519150601f19603f3d011682016040523d82523d6000602084013e613d96565b606091505b5091509150612dc482828660608315613db05750816124ff565b825115613dc05782518084602001fd5b8160405162461bcd60e51b81526004016106359190614af4565b828054613de690614dcb565b90600052602060002090601f016020900481019282613e085760008555613e4e565b82601f10613e2157805160ff1916838001178555613e4e565b82800160010185558215613e4e579182015b82811115613e4e578251825591602001919060010190613e33565b50613e5a929150613e5e565b5090565b5b80821115613e5a5760008155600101613e5f565b803561076181614f1b565b60008083601f840112613e8f578182fd5b5081356001600160401b03811115613ea5578182fd5b6020830191508360208260051b8501011115610e0f57600080fd5b600082601f830112613ed0578081fd5b81356020613edd82614cd0565b604051613eea8282614e00565b8381528281019150858301600585901b87018401881015613f09578586fd5b855b85811015613f2757813584529284019290840190600101613f0b565b5090979650505050505050565b600082601f830112613f44578081fd5b8135613f4f81614cf3565b604051613f5c8282614e00565b828152856020848701011115613f70578384fd5b82602086016020830137918201602001929092529392505050565b6000610180808385031215613f9e578182fd5b613fa781614cc3565b915050613fb382613e73565b8152613fc160208301613e73565b60208201526040820135604082015260608201356060820152613fe660808301613e73565b6080820152613ff760a08301613e73565b60a082015261400860c08301613e73565b60c082015260e082013560e0820152610100808301356001600160401b0381111561403257600080fd5b61403e85828601613f34565b828401525050610120614052818401614074565b9082015261014082810135908201526101609182013591810191909152919050565b803561076181614f54565b600060208284031215614090578081fd5b81356124ff81614f1b565b600080604083850312156140ad578081fd5b82356140b881614f1b565b915060208301356140c881614f1b565b809150509250929050565b600080600080600060a086880312156140ea578081fd5b85356140f581614f1b565b9450602086013561410581614f1b565b935060408601356001600160401b0380821115614120578283fd5b61412c89838a01613ec0565b94506060880135915080821115614141578283fd5b61414d89838a01613ec0565b93506080880135915080821115614162578283fd5b5061416f88828901613f34565b9150509295509295909350565b600080600080600060a08688031215614193578283fd5b853561419e81614f1b565b945060208601356141ae81614f1b565b9350604086013592506060860135915060808601356001600160401b038111156141d6578182fd5b61416f88828901613f34565b60008060008060008060c087890312156141fa578384fd5b863561420581614f1b565b9550602087013561421581614f1b565b945060408701359350606087013561422c81614f54565b9598949750929560808101359460a0909101359350915050565b600080600080600060a0868803121561425d578283fd5b853561426881614f1b565b945060208601356001600160401b0380821115614283578485fd5b61428f89838a01613ec0565b955060408801359150808211156142a4578485fd5b506142b188828901613ec0565b93505060608601356142c281614f1b565b915060808601356142d281614f54565b809150509295509295909350565b600080600080608085870312156142f5578182fd5b843561430081614f1b565b935060208501356001600160401b038082111561431b578384fd5b61432788838901613ec0565b9450604087013591508082111561433c578384fd5b61434888838901613ec0565b9350606087013591508082111561435d578283fd5b5061436a87828801613f34565b91505092959194509250565b60008060408385031215614388578182fd5b823561439381614f1b565b915060208301356140c881614f30565b600080604083850312156143b5578182fd5b82356143c081614f1b565b946020939093013593505050565b600080600080608085870312156143e3578182fd5b84356143ee81614f1b565b9350602085013592506040850135915060608501356001600160401b03811115614416578182fd5b61436a87828801613f34565b60008060408385031215614434578182fd5b825161443f81614f1b565b60208401519092506140c881614f54565b60008060408385031215614462578182fd5b82356001600160401b0380821115614478578384fd5b818501915085601f83011261448b578384fd5b8135602061449882614cd0565b6040516144a58282614e00565b8381528281019150858301600585901b870184018b10156144c4578889fd5b8896505b848710156144ef5780356144db81614f1b565b8352600196909601959183019183016144c8565b5096505086013592505080821115614505578283fd5b5061451285828601613ec0565b9150509250929050565b60008060008060408587031215614531578182fd5b84356001600160401b0380821115614547578384fd5b61455388838901613e7e565b9096509450602087013591508082111561456b578384fd5b5061457887828801613e7e565b95989497509550505050565b600060208284031215614595578081fd5b81516124ff81614f30565b6000602082840312156145b1578081fd5b5035919050565b6000602082840312156145c9578081fd5b81356124ff81614f3e565b6000602082840312156145e5578081fd5b81516124ff81614f3e565b600060208284031215614601578081fd5b81356001600160401b03811115614616578182fd5b6122c984828501613f34565b600060208284031215614633578081fd5b81516001600160401b03811115614648578182fd5b8201601f81018413614658578182fd5b805161466381614cf3565b6040516146708282614e00565b828152866020848601011115614684578485fd5b614695836020830160208701614d88565b9695505050505050565b6000602082840312156146b0578081fd5b81356001600160401b038111156146c5578182fd5b6122c984828501613f8b565b6000808284036101408112156146e5578283fd5b83356001600160401b038111156146fa578384fd5b61470686828701613f8b565b93505061012080601f198301121561471c578283fd5b61472581614cc3565b91506020850135825261473a60408601613e73565b6020830152606085013560408301526080850135606083015261475f60a08601613e73565b608083015261477060c08601613e73565b60a083015261478160e08601614074565b60c08301526101008581013560e0840152940135938101939093525092909150565b600080600080600060a086880312156147ba578283fd5b85356001600160401b038111156147cf578384fd5b6147db88828901613f8b565b955050602086013593506040860135925060608601356147fa81614f1b565b915060808601356142d281614f1b565b60006020828403121561481b578081fd5b5051919050565b60008060408385031215614834578182fd5b8235915060208301356001600160401b03811115614850578182fd5b61451285828601613f34565b6000806040838503121561486e578182fd5b50508035926020909101359150565b60008060008060808587031215614892578182fd5b5050823594602084013594506040840135936060013592509050565b6000602082840312156148bf578081fd5b81356124ff81614f54565b6000602082840312156148db578081fd5b81516124ff81614f54565b6000815180845260208085019450808401835b83811015614915578151875295820195908201906001016148f9565b509495945050505050565b60008151808452614938816020860160208601614d88565b601f01601f19169290920160200192915050565b6000825161495e818460208701614d88565b9190910192915050565b6000835161497a818460208801614d88565b83519083019061498e818360208801614d88565b6917bdb4b23e973539b7b760b11b9101908152600a01949350505050565b600082516149be818460208701614d88565b683db4b23e973539b7b760b91b920191825250600901919050565b6001600160a01b0386811682528516602082015260a060408201819052600090614a05908301866148e6565b8281036060840152614a1781866148e6565b90508281036080840152614a2b8185614920565b98975050505050505050565b6001600160a01b03868116825285166020820152604081018490526060810183905260a060808201819052600090612dc490830184614920565b6001600160a01b0395861681526020810194909452604084019290925283166060830152909116608082015260a00190565b6000602082526124ff60208301846148e6565b600060408252614ac960408301856148e6565b828103602084015261385a81856148e6565b6000838252604060208301526122c96040830184614920565b6000602082526124ff6020830184614920565b60208082526010908201526f29a427acaa9d102327a92124a22222a760811b604082015260600190565b60208082526010908201526f14d213d6554e8814915153951490539560821b604082015260600190565b6020808252602e908201527f496e697469616c697a61626c653a20636f6e747261637420697320616c72656160408201526d191e481a5b9a5d1a585b1a5e995960921b606082015260800190565b60208082526016908201527553484f59553a20494e56414c49445f4144445245535360501b604082015260600190565b60208082526018908201527f53484f59553a204c454e475448535f4e4f545f455155414c0000000000000000604082015260600190565b6020808252601b908201527f53484f59553a20494e53554646494349454e545f42414c414e43450000000000604082015260600190565b600085825260806020830152614c606080830186614920565b6001600160a01b03949094166040830152506060015292915050565b600087825260c06020830152614c9560c0830188614920565b6001600160a01b03969096166040830152506060810193909352608083019190915260a09091015292915050565b6040516107618282614e00565b60006001600160401b03821115614ce957614ce9614e5d565b5060051b60200190565b60006001600160401b03821115614d0c57614d0c614e5d565b50601f01601f191660200190565b60008219821115614d2d57614d2d614e47565b500190565b600082614d4d57634e487b7160e01b81526012600452602481fd5b500490565b6000816000190483118215151615614d6c57614d6c614e47565b500290565b600082821015614d8357614d83614e47565b500390565b60005b83811015614da3578181015183820152602001614d8b565b83811115610dcb5750506000910152565b600081614dc357614dc3614e47565b506000190190565b600181811c90821680614ddf57607f821691505b60208210811415610d1857634e487b7160e01b600052602260045260246000fd5b601f8201601f191681016001600160401b0381118282101715614e2557614e25614e5d565b6040525050565b6000600019821415614e4057614e40614e47565b5060010190565b634e487b7160e01b600052601160045260246000fd5b634e487b7160e01b600052604160045260246000fd5b600060033d111561106157600481823e5160e01c90565b600060443d1015614e9a57611061565b6040516003193d81016004833e81513d6001600160401b038160248401118184111715614ecb575050505050611061565b8285019150815181811115614ee557505050505050611061565b843d8701016020828501011115614f0157505050505050611061565b614f1060208286010187614e00565b509094505050505090565b6001600160a01b038116811461134857600080fd5b801515811461134857600080fd5b6001600160e01b03198116811461134857600080fd5b60ff8116811461134857600080fdfec3d58168c5ae7397731d063d5bbf3d657854427343f4c083240f7aacaa2d0f62a2646970667358221220be61ae42b0b67b3f325979031654c16d620f75f59c7188496481478a54deb7b464736f6c63430008030033",
  "devdoc": {
    "kind": "dev",
    "methods": {
      "balanceOf(address,uint256)": {
        "details": "See {IERC1155-balanceOf}. Requirements: - `account` cannot be the zero address."
      },
      "balanceOfBatch(address[],uint256[])": {
        "details": "See {IERC1155-balanceOfBatch}. Requirements: - `accounts` and `ids` must have the same length."
      },
      "isApprovedForAll(address,address)": {
        "details": "See {IERC1155-isApprovedForAll}."
      },
      "owner()": {
        "details": "Returns the address of the current owner."
      },
      "renounceOwnership()": {
        "details": "Leaves the contract without owner. It will not be possible to call `onlyOwner` functions anymore. Can only be called by the current owner. NOTE: Renouncing ownership will leave the contract without an owner, thereby removing any functionality that is only available to the owner."
      },
      "safeBatchTransferFrom(address,address,uint256[],uint256[],bytes)": {
        "details": "See {IERC1155-safeBatchTransferFrom}."
      },
      "safeTransferFrom(address,address,uint256,uint256,bytes)": {
        "details": "See {IERC1155-safeTransferFrom}."
      },
      "setApprovalForAll(address,bool)": {
        "details": "See {IERC1155-setApprovalForAll}."
      },
      "transferOwnership(address)": {
        "details": "Transfers ownership of the contract to a new account (`newOwner`). Can only be called by the current owner."
      }
    },
    "version": 1
  },
  "userdoc": {
    "kind": "user",
    "methods": {},
    "version": 1
  },
  "storageLayout": {
    "storage": [
      {
        "astId": 115,
        "contract": "contracts/NFT1155V0.sol:NFT1155V0",
        "label": "_initialized",
        "offset": 0,
        "slot": "0",
        "type": "t_bool"
      },
      {
        "astId": 118,
        "contract": "contracts/NFT1155V0.sol:NFT1155V0",
        "label": "_initializing",
        "offset": 1,
        "slot": "0",
        "type": "t_bool"
      },
      {
        "astId": 7886,
        "contract": "contracts/NFT1155V0.sol:NFT1155V0",
        "label": "_balances",
        "offset": 0,
        "slot": "1",
        "type": "t_mapping(t_uint256,t_mapping(t_address,t_uint256))"
      },
      {
        "astId": 7892,
        "contract": "contracts/NFT1155V0.sol:NFT1155V0",
        "label": "_operatorApprovals",
        "offset": 0,
        "slot": "2",
        "type": "t_mapping(t_address,t_mapping(t_address,t_bool))"
      },
      {
        "astId": 7894,
        "contract": "contracts/NFT1155V0.sol:NFT1155V0",
        "label": "_uri",
        "offset": 0,
        "slot": "3",
        "type": "t_string_storage"
      },
      {
        "astId": 10710,
        "contract": "contracts/NFT1155V0.sol:NFT1155V0",
        "label": "_owner",
        "offset": 0,
        "slot": "4",
        "type": "t_address"
      },
      {
        "astId": 6421,
        "contract": "contracts/NFT1155V0.sol:NFT1155V0",
        "label": "_DOMAIN_SEPARATOR",
        "offset": 0,
        "slot": "5",
        "type": "t_bytes32"
      },
      {
        "astId": 6423,
        "contract": "contracts/NFT1155V0.sol:NFT1155V0",
        "label": "_CACHED_CHAIN_ID",
        "offset": 0,
        "slot": "6",
        "type": "t_uint256"
      },
      {
        "astId": 6425,
        "contract": "contracts/NFT1155V0.sol:NFT1155V0",
        "label": "MAX_ROYALTY_FEE",
        "offset": 0,
        "slot": "7",
        "type": "t_uint8"
      },
      {
        "astId": 6427,
        "contract": "contracts/NFT1155V0.sol:NFT1155V0",
        "label": "_factory",
        "offset": 1,
        "slot": "7",
        "type": "t_address"
      },
      {
        "astId": 6429,
        "contract": "contracts/NFT1155V0.sol:NFT1155V0",
        "label": "_baseURI",
        "offset": 0,
        "slot": "8",
        "type": "t_string_storage"
      },
      {
        "astId": 6433,
        "contract": "contracts/NFT1155V0.sol:NFT1155V0",
        "label": "_uris",
        "offset": 0,
        "slot": "9",
        "type": "t_mapping(t_uint256,t_string_storage)"
      },
      {
        "astId": 6438,
        "contract": "contracts/NFT1155V0.sol:NFT1155V0",
        "label": "nonces",
        "offset": 0,
        "slot": "10",
        "type": "t_mapping(t_address,t_uint256)"
      },
      {
        "astId": 10890,
        "contract": "contracts/NFT1155V0.sol:NFT1155V0",
        "label": "_status",
        "offset": 0,
        "slot": "11",
        "type": "t_uint256"
      },
      {
        "astId": 5441,
        "contract": "contracts/NFT1155V0.sol:NFT1155V0",
        "label": "bestBid",
        "offset": 0,
        "slot": "12",
        "type": "t_mapping(t_bytes32,t_struct(BestBid)5435_storage)"
      },
      {
        "astId": 5446,
        "contract": "contracts/NFT1155V0.sol:NFT1155V0",
        "label": "isCancelled",
        "offset": 0,
        "slot": "13",
        "type": "t_mapping(t_bytes32,t_bool)"
      },
      {
        "astId": 5451,
        "contract": "contracts/NFT1155V0.sol:NFT1155V0",
        "label": "amountFilled",
        "offset": 0,
        "slot": "14",
        "type": "t_mapping(t_bytes32,t_uint256)"
      },
      {
        "astId": 3015,
        "contract": "contracts/NFT1155V0.sol:NFT1155V0",
        "label": "_MAX_ROYALTY_FEE",
        "offset": 0,
        "slot": "15",
        "type": "t_uint8"
      },
      {
        "astId": 3017,
        "contract": "contracts/NFT1155V0.sol:NFT1155V0",
        "label": "_royaltyFeeRecipient",
        "offset": 1,
        "slot": "15",
        "type": "t_address"
      },
      {
        "astId": 3019,
        "contract": "contracts/NFT1155V0.sol:NFT1155V0",
        "label": "_royaltyFee",
        "offset": 21,
        "slot": "15",
        "type": "t_uint8"
      }
    ],
    "types": {
      "t_address": {
        "encoding": "inplace",
        "label": "address",
        "numberOfBytes": "20"
      },
      "t_bool": {
        "encoding": "inplace",
        "label": "bool",
        "numberOfBytes": "1"
      },
      "t_bytes32": {
        "encoding": "inplace",
        "label": "bytes32",
        "numberOfBytes": "32"
      },
      "t_mapping(t_address,t_bool)": {
        "encoding": "mapping",
        "key": "t_address",
        "label": "mapping(address => bool)",
        "numberOfBytes": "32",
        "value": "t_bool"
      },
      "t_mapping(t_address,t_mapping(t_address,t_bool))": {
        "encoding": "mapping",
        "key": "t_address",
        "label": "mapping(address => mapping(address => bool))",
        "numberOfBytes": "32",
        "value": "t_mapping(t_address,t_bool)"
      },
      "t_mapping(t_address,t_uint256)": {
        "encoding": "mapping",
        "key": "t_address",
        "label": "mapping(address => uint256)",
        "numberOfBytes": "32",
        "value": "t_uint256"
      },
      "t_mapping(t_bytes32,t_bool)": {
        "encoding": "mapping",
        "key": "t_bytes32",
        "label": "mapping(bytes32 => bool)",
        "numberOfBytes": "32",
        "value": "t_bool"
      },
      "t_mapping(t_bytes32,t_struct(BestBid)5435_storage)": {
        "encoding": "mapping",
        "key": "t_bytes32",
        "label": "mapping(bytes32 => struct BaseExchange.BestBid)",
        "numberOfBytes": "32",
        "value": "t_struct(BestBid)5435_storage"
      },
      "t_mapping(t_bytes32,t_uint256)": {
        "encoding": "mapping",
        "key": "t_bytes32",
        "label": "mapping(bytes32 => uint256)",
        "numberOfBytes": "32",
        "value": "t_uint256"
      },
      "t_mapping(t_uint256,t_mapping(t_address,t_uint256))": {
        "encoding": "mapping",
        "key": "t_uint256",
        "label": "mapping(uint256 => mapping(address => uint256))",
        "numberOfBytes": "32",
        "value": "t_mapping(t_address,t_uint256)"
      },
      "t_mapping(t_uint256,t_string_storage)": {
        "encoding": "mapping",
        "key": "t_uint256",
        "label": "mapping(uint256 => string)",
        "numberOfBytes": "32",
        "value": "t_string_storage"
      },
      "t_string_storage": {
        "encoding": "bytes",
        "label": "string",
        "numberOfBytes": "32"
      },
      "t_struct(BestBid)5435_storage": {
        "encoding": "inplace",
        "label": "struct BaseExchange.BestBid",
        "members": [
          {
            "astId": 5424,
            "contract": "contracts/NFT1155V0.sol:NFT1155V0",
            "label": "bidder",
            "offset": 0,
            "slot": "0",
            "type": "t_address"
          },
          {
            "astId": 5426,
            "contract": "contracts/NFT1155V0.sol:NFT1155V0",
            "label": "amount",
            "offset": 0,
            "slot": "1",
            "type": "t_uint256"
          },
          {
            "astId": 5428,
            "contract": "contracts/NFT1155V0.sol:NFT1155V0",
            "label": "price",
            "offset": 0,
            "slot": "2",
            "type": "t_uint256"
          },
          {
            "astId": 5430,
            "contract": "contracts/NFT1155V0.sol:NFT1155V0",
            "label": "recipient",
            "offset": 0,
            "slot": "3",
            "type": "t_address"
          },
          {
            "astId": 5432,
            "contract": "contracts/NFT1155V0.sol:NFT1155V0",
            "label": "referrer",
            "offset": 0,
            "slot": "4",
            "type": "t_address"
          },
          {
            "astId": 5434,
            "contract": "contracts/NFT1155V0.sol:NFT1155V0",
            "label": "blockNumber",
            "offset": 0,
            "slot": "5",
            "type": "t_uint256"
          }
        ],
        "numberOfBytes": "192"
      },
      "t_uint256": {
        "encoding": "inplace",
        "label": "uint256",
        "numberOfBytes": "32"
      },
      "t_uint8": {
        "encoding": "inplace",
        "label": "uint8",
        "numberOfBytes": "1"
      }
    }
  }
}