{
  "address": "0x7e05aB4FD91fC097c2503af1392CD9D1bFe70De4",
  "abi": [
    {
      "anonymous": false,
      "inputs": [
        {
          "indexed": true,
          "internalType": "address",
          "name": "owner",
          "type": "address"
        },
        {
          "indexed": true,
          "internalType": "address",
          "name": "approved",
          "type": "address"
        },
        {
          "indexed": true,
          "internalType": "uint256",
          "name": "tokenId",
          "type": "uint256"
        }
      ],
      "name": "Approval",
      "type": "event"
    },
    {
      "anonymous": false,
      "inputs": [
        {
          "indexed": true,
          "internalType": "address",
          "name": "owner",
          "type": "address"
        },
        {
          "indexed": true,
          "internalType": "address",
          "name": "operator",
          "type": "address"
        },
        {
          "indexed": false,
          "internalType": "bool",
          "name": "approved",
          "type": "bool"
        }
      ],
      "name": "ApprovalForAll",
      "type": "event"
    },
    {
      "anonymous": false,
      "inputs": [
        {
          "indexed": true,
          "internalType": "bytes32",
          "name": "hash",
          "type": "bytes32"
        },
        {
          "indexed": false,
          "internalType": "address",
          "name": "bidder",
          "type": "address"
        },
        {
          "indexed": false,
          "internalType": "uint256",
          "name": "amount",
          "type": "uint256"
        },
        {
          "indexed": false,
          "internalType": "uint256",
          "name": "price",
          "type": "uint256"
        },
        {
          "indexed": false,
          "internalType": "address",
          "name": "recipient",
          "type": "address"
        },
        {
          "indexed": false,
          "internalType": "address",
          "name": "referrer",
          "type": "address"
        }
      ],
      "name": "Bid",
      "type": "event"
    },
    {
      "anonymous": false,
      "inputs": [
        {
          "indexed": true,
          "internalType": "uint256",
          "name": "tokenId",
          "type": "uint256"
        },
        {
          "indexed": true,
          "internalType": "uint256",
          "name": "label",
          "type": "uint256"
        },
        {
          "indexed": false,
          "internalType": "bytes32",
          "name": "data",
          "type": "bytes32"
        }
      ],
      "name": "Burn",
      "type": "event"
    },
    {
      "anonymous": false,
      "inputs": [
        {
          "indexed": true,
          "internalType": "bytes32",
          "name": "hash",
          "type": "bytes32"
        }
      ],
      "name": "Cancel",
      "type": "event"
    },
    {
      "anonymous": false,
      "inputs": [
        {
          "indexed": true,
          "internalType": "bytes32",
          "name": "hash",
          "type": "bytes32"
        },
        {
          "indexed": false,
          "internalType": "address",
          "name": "bidder",
          "type": "address"
        },
        {
          "indexed": false,
          "internalType": "uint256",
          "name": "amount",
          "type": "uint256"
        },
        {
          "indexed": false,
          "internalType": "uint256",
          "name": "price",
          "type": "uint256"
        },
        {
          "indexed": false,
          "internalType": "address",
          "name": "recipient",
          "type": "address"
        },
        {
          "indexed": false,
          "internalType": "address",
          "name": "referrer",
          "type": "address"
        }
      ],
      "name": "Execute",
      "type": "event"
    },
    {
      "anonymous": false,
      "inputs": [
        {
          "indexed": true,
          "internalType": "address",
          "name": "previousOwner",
          "type": "address"
        },
        {
          "indexed": true,
          "internalType": "address",
          "name": "newOwner",
          "type": "address"
        }
      ],
      "name": "OwnershipTransferred",
      "type": "event"
    },
    {
      "anonymous": false,
      "inputs": [
        {
          "indexed": false,
          "internalType": "uint256",
          "name": "toTokenId",
          "type": "uint256"
        }
      ],
      "name": "ParkTokenIds",
      "type": "event"
    },
    {
      "anonymous": false,
      "inputs": [
        {
          "indexed": false,
          "internalType": "uint8",
          "name": "fee",
          "type": "uint8"
        }
      ],
      "name": "SetRoyaltyFee",
      "type": "event"
    },
    {
      "anonymous": false,
      "inputs": [
        {
          "indexed": false,
          "internalType": "address",
          "name": "recipient",
          "type": "address"
        }
      ],
      "name": "SetRoyaltyFeeRecipient",
      "type": "event"
    },
    {
      "anonymous": false,
      "inputs": [
        {
          "indexed": true,
          "internalType": "address",
          "name": "from",
          "type": "address"
        },
        {
          "indexed": true,
          "internalType": "address",
          "name": "to",
          "type": "address"
        },
        {
          "indexed": true,
          "internalType": "uint256",
          "name": "tokenId",
          "type": "uint256"
        }
      ],
      "name": "Transfer",
      "type": "event"
    },
    {
      "inputs": [],
      "name": "DOMAIN_SEPARATOR",
      "outputs": [
        {
          "internalType": "bytes32",
          "name": "",
          "type": "bytes32"
        }
      ],
      "stateMutability": "view",
      "type": "function"
    },
    {
      "inputs": [],
      "name": "PERMIT_ALL_TYPEHASH",
      "outputs": [
        {
          "internalType": "bytes32",
          "name": "",
          "type": "bytes32"
        }
      ],
      "stateMutability": "view",
      "type": "function"
    },
    {
      "inputs": [],
      "name": "PERMIT_TYPEHASH",
      "outputs": [
        {
          "internalType": "bytes32",
          "name": "",
          "type": "bytes32"
        }
      ],
      "stateMutability": "view",
      "type": "function"
    },
    {
      "inputs": [
        {
          "internalType": "bytes32",
          "name": "",
          "type": "bytes32"
        }
      ],
      "name": "amountFilled",
      "outputs": [
        {
          "internalType": "uint256",
          "name": "",
          "type": "uint256"
        }
      ],
      "stateMutability": "view",
      "type": "function"
    },
    {
      "inputs": [
        {
          "internalType": "address",
          "name": "to",
          "type": "address"
        },
        {
          "internalType": "uint256",
          "name": "tokenId",
          "type": "uint256"
        }
      ],
      "name": "approve",
      "outputs": [],
      "stateMutability": "nonpayable",
      "type": "function"
    },
    {
      "inputs": [
        {
          "internalType": "address",
          "name": "owner",
          "type": "address"
        }
      ],
      "name": "balanceOf",
      "outputs": [
        {
          "internalType": "uint256",
          "name": "",
          "type": "uint256"
        }
      ],
      "stateMutability": "view",
      "type": "function"
    },
    {
      "inputs": [
        {
          "internalType": "bytes32",
          "name": "",
          "type": "bytes32"
        }
      ],
      "name": "bestBid",
      "outputs": [
        {
          "internalType": "address",
          "name": "bidder",
          "type": "address"
        },
        {
          "internalType": "uint256",
          "name": "amount",
          "type": "uint256"
        },
        {
          "internalType": "uint256",
          "name": "price",
          "type": "uint256"
        },
        {
          "internalType": "address",
          "name": "recipient",
          "type": "address"
        },
        {
          "internalType": "address",
          "name": "referrer",
          "type": "address"
        },
        {
          "internalType": "uint256",
          "name": "blockNumber",
          "type": "uint256"
        }
      ],
      "stateMutability": "view",
      "type": "function"
    },
    {
      "inputs": [
        {
          "components": [
            {
              "internalType": "address",
              "name": "signer",
              "type": "address"
            },
            {
              "internalType": "address",
              "name": "token",
              "type": "address"
            },
            {
              "internalType": "uint256",
              "name": "tokenId",
              "type": "uint256"
            },
            {
              "internalType": "uint256",
              "name": "amount",
              "type": "uint256"
            },
            {
              "internalType": "address",
              "name": "strategy",
              "type": "address"
            },
            {
              "internalType": "address",
              "name": "currency",
              "type": "address"
            },
            {
              "internalType": "address",
              "name": "recipient",
              "type": "address"
            },
            {
              "internalType": "uint256",
              "name": "deadline",
              "type": "uint256"
            },
            {
              "internalType": "bytes",
              "name": "params",
              "type": "bytes"
            },
            {
              "internalType": "uint8",
              "name": "v",
              "type": "uint8"
            },
            {
              "internalType": "bytes32",
              "name": "r",
              "type": "bytes32"
            },
            {
              "internalType": "bytes32",
              "name": "s",
              "type": "bytes32"
            }
          ],
          "internalType": "struct Orders.Ask",
          "name": "askOrder",
          "type": "tuple"
        },
        {
          "internalType": "uint256",
          "name": "bidAmount",
          "type": "uint256"
        },
        {
          "internalType": "uint256",
          "name": "bidPrice",
          "type": "uint256"
        },
        {
          "internalType": "address",
          "name": "bidRecipient",
          "type": "address"
        },
        {
          "internalType": "address",
          "name": "bidReferrer",
          "type": "address"
        }
      ],
      "name": "bid",
      "outputs": [
        {
          "internalType": "bool",
          "name": "executed",
          "type": "bool"
        }
      ],
      "stateMutability": "nonpayable",
      "type": "function"
    },
    {
      "inputs": [
        {
          "components": [
            {
              "internalType": "address",
              "name": "signer",
              "type": "address"
            },
            {
              "internalType": "address",
              "name": "token",
              "type": "address"
            },
            {
              "internalType": "uint256",
              "name": "tokenId",
              "type": "uint256"
            },
            {
              "internalType": "uint256",
              "name": "amount",
              "type": "uint256"
            },
            {
              "internalType": "address",
              "name": "strategy",
              "type": "address"
            },
            {
              "internalType": "address",
              "name": "currency",
              "type": "address"
            },
            {
              "internalType": "address",
              "name": "recipient",
              "type": "address"
            },
            {
              "internalType": "uint256",
              "name": "deadline",
              "type": "uint256"
            },
            {
              "internalType": "bytes",
              "name": "params",
              "type": "bytes"
            },
            {
              "internalType": "uint8",
              "name": "v",
              "type": "uint8"
            },
            {
              "internalType": "bytes32",
              "name": "r",
              "type": "bytes32"
            },
            {
              "internalType": "bytes32",
              "name": "s",
              "type": "bytes32"
            }
          ],
          "internalType": "struct Orders.Ask",
          "name": "askOrder",
          "type": "tuple"
        },
        {
          "components": [
            {
              "internalType": "bytes32",
              "name": "askHash",
              "type": "bytes32"
            },
            {
              "internalType": "address",
              "name": "signer",
              "type": "address"
            },
            {
              "internalType": "uint256",
              "name": "amount",
              "type": "uint256"
            },
            {
              "internalType": "uint256",
              "name": "price",
              "type": "uint256"
            },
            {
              "internalType": "address",
              "name": "recipient",
              "type": "address"
            },
            {
              "internalType": "address",
              "name": "referrer",
              "type": "address"
            },
            {
              "internalType": "uint8",
              "name": "v",
              "type": "uint8"
            },
            {
              "internalType": "bytes32",
              "name": "r",
              "type": "bytes32"
            },
            {
              "internalType": "bytes32",
              "name": "s",
              "type": "bytes32"
            }
          ],
          "internalType": "struct Orders.Bid",
          "name": "bidOrder",
          "type": "tuple"
        }
      ],
      "name": "bid",
      "outputs": [
        {
          "internalType": "bool",
          "name": "executed",
          "type": "bool"
        }
      ],
      "stateMutability": "nonpayable",
      "type": "function"
    },
    {
      "inputs": [
        {
          "internalType": "uint256",
          "name": "tokenId",
          "type": "uint256"
        },
        {
          "internalType": "uint256",
          "name": "label",
          "type": "uint256"
        },
        {
          "internalType": "bytes32",
          "name": "data",
          "type": "bytes32"
        }
      ],
      "name": "burn",
      "outputs": [],
      "stateMutability": "nonpayable",
      "type": "function"
    },
    {
      "inputs": [
        {
          "internalType": "uint256[]",
          "name": "tokenIds",
          "type": "uint256[]"
        }
      ],
      "name": "burnBatch",
      "outputs": [],
      "stateMutability": "nonpayable",
      "type": "function"
    },
    {
      "inputs": [
        {
          "internalType": "address",
          "name": "token",
          "type": "address"
        }
      ],
      "name": "canTrade",
      "outputs": [
        {
          "internalType": "bool",
          "name": "",
          "type": "bool"
        }
      ],
      "stateMutability": "view",
      "type": "function"
    },
    {
      "inputs": [
        {
          "components": [
            {
              "internalType": "address",
              "name": "signer",
              "type": "address"
            },
            {
              "internalType": "address",
              "name": "token",
              "type": "address"
            },
            {
              "internalType": "uint256",
              "name": "tokenId",
              "type": "uint256"
            },
            {
              "internalType": "uint256",
              "name": "amount",
              "type": "uint256"
            },
            {
              "internalType": "address",
              "name": "strategy",
              "type": "address"
            },
            {
              "internalType": "address",
              "name": "currency",
              "type": "address"
            },
            {
              "internalType": "address",
              "name": "recipient",
              "type": "address"
            },
            {
              "internalType": "uint256",
              "name": "deadline",
              "type": "uint256"
            },
            {
              "internalType": "bytes",
              "name": "params",
              "type": "bytes"
            },
            {
              "internalType": "uint8",
              "name": "v",
              "type": "uint8"
            },
            {
              "internalType": "bytes32",
              "name": "r",
              "type": "bytes32"
            },
            {
              "internalType": "bytes32",
              "name": "s",
              "type": "bytes32"
            }
          ],
          "internalType": "struct Orders.Ask",
          "name": "order",
          "type": "tuple"
        }
      ],
      "name": "cancel",
      "outputs": [],
      "stateMutability": "nonpayable",
      "type": "function"
    },
    {
      "inputs": [
        {
          "components": [
            {
              "internalType": "address",
              "name": "signer",
              "type": "address"
            },
            {
              "internalType": "address",
              "name": "token",
              "type": "address"
            },
            {
              "internalType": "uint256",
              "name": "tokenId",
              "type": "uint256"
            },
            {
              "internalType": "uint256",
              "name": "amount",
              "type": "uint256"
            },
            {
              "internalType": "address",
              "name": "strategy",
              "type": "address"
            },
            {
              "internalType": "address",
              "name": "currency",
              "type": "address"
            },
            {
              "internalType": "address",
              "name": "recipient",
              "type": "address"
            },
            {
              "internalType": "uint256",
              "name": "deadline",
              "type": "uint256"
            },
            {
              "internalType": "bytes",
              "name": "params",
              "type": "bytes"
            },
            {
              "internalType": "uint8",
              "name": "v",
              "type": "uint8"
            },
            {
              "internalType": "bytes32",
              "name": "r",
              "type": "bytes32"
            },
            {
              "internalType": "bytes32",
              "name": "s",
              "type": "bytes32"
            }
          ],
          "internalType": "struct Orders.Ask",
          "name": "askOrder",
          "type": "tuple"
        }
      ],
      "name": "claim",
      "outputs": [],
      "stateMutability": "nonpayable",
      "type": "function"
    },
    {
      "inputs": [],
      "name": "factory",
      "outputs": [
        {
          "internalType": "address",
          "name": "",
          "type": "address"
        }
      ],
      "stateMutability": "view",
      "type": "function"
    },
    {
      "inputs": [
        {
          "internalType": "uint256",
          "name": "tokenId",
          "type": "uint256"
        }
      ],
      "name": "getApproved",
      "outputs": [
        {
          "internalType": "address",
          "name": "",
          "type": "address"
        }
      ],
      "stateMutability": "view",
      "type": "function"
    },
    {
      "inputs": [
        {
          "internalType": "string",
          "name": "_name",
          "type": "string"
        },
        {
          "internalType": "string",
          "name": "_symbol",
          "type": "string"
        },
        {
          "internalType": "address",
          "name": "_owner",
          "type": "address"
        }
      ],
      "name": "initialize",
      "outputs": [],
      "stateMutability": "nonpayable",
      "type": "function"
    },
    {
      "inputs": [
        {
          "internalType": "address",
          "name": "_owner",
          "type": "address"
        },
        {
          "internalType": "string",
          "name": "_name",
          "type": "string"
        },
        {
          "internalType": "string",
          "name": "_symbol",
          "type": "string"
        },
        {
          "internalType": "uint256[]",
          "name": "tokenIds",
          "type": "uint256[]"
        },
        {
          "internalType": "address",
          "name": "royaltyFeeRecipient",
          "type": "address"
        },
        {
          "internalType": "uint8",
          "name": "royaltyFee",
          "type": "uint8"
        }
      ],
      "name": "initialize",
      "outputs": [],
      "stateMutability": "nonpayable",
      "type": "function"
    },
    {
      "inputs": [
        {
          "internalType": "address",
          "name": "_owner",
          "type": "address"
        },
        {
          "internalType": "string",
          "name": "_name",
          "type": "string"
        },
        {
          "internalType": "string",
          "name": "_symbol",
          "type": "string"
        },
        {
          "internalType": "uint256",
          "name": "toTokenId",
          "type": "uint256"
        },
        {
          "internalType": "address",
          "name": "royaltyFeeRecipient",
          "type": "address"
        },
        {
          "internalType": "uint8",
          "name": "royaltyFee",
          "type": "uint8"
        }
      ],
      "name": "initialize",
      "outputs": [],
      "stateMutability": "nonpayable",
      "type": "function"
    },
    {
      "inputs": [
        {
          "internalType": "address",
          "name": "owner",
          "type": "address"
        },
        {
          "internalType": "address",
          "name": "operator",
          "type": "address"
        }
      ],
      "name": "isApprovedForAll",
      "outputs": [
        {
          "internalType": "bool",
          "name": "",
          "type": "bool"
        }
      ],
      "stateMutability": "view",
      "type": "function"
    },
    {
      "inputs": [
        {
          "internalType": "bytes32",
          "name": "",
          "type": "bytes32"
        }
      ],
      "name": "isCancelled",
      "outputs": [
        {
          "internalType": "bool",
          "name": "",
          "type": "bool"
        }
      ],
      "stateMutability": "view",
      "type": "function"
    },
    {
      "inputs": [
        {
          "internalType": "address",
          "name": "to",
          "type": "address"
        },
        {
          "internalType": "uint256",
          "name": "tokenId",
          "type": "uint256"
        },
        {
          "internalType": "bytes",
          "name": "data",
          "type": "bytes"
        }
      ],
      "name": "mint",
      "outputs": [],
      "stateMutability": "nonpayable",
      "type": "function"
    },
    {
      "inputs": [
        {
          "internalType": "address",
          "name": "to",
          "type": "address"
        },
        {
          "internalType": "uint256[]",
          "name": "tokenIds",
          "type": "uint256[]"
        },
        {
          "internalType": "bytes",
          "name": "data",
          "type": "bytes"
        }
      ],
      "name": "mintBatch",
      "outputs": [],
      "stateMutability": "nonpayable",
      "type": "function"
    },
    {
      "inputs": [],
      "name": "name",
      "outputs": [
        {
          "internalType": "string",
          "name": "",
          "type": "string"
        }
      ],
      "stateMutability": "view",
      "type": "function"
    },
    {
      "inputs": [
        {
          "internalType": "uint256",
          "name": "",
          "type": "uint256"
        }
      ],
      "name": "nonces",
      "outputs": [
        {
          "internalType": "uint256",
          "name": "",
          "type": "uint256"
        }
      ],
      "stateMutability": "view",
      "type": "function"
    },
    {
      "inputs": [
        {
          "internalType": "address",
          "name": "",
          "type": "address"
        }
      ],
      "name": "noncesForAll",
      "outputs": [
        {
          "internalType": "uint256",
          "name": "",
          "type": "uint256"
        }
      ],
      "stateMutability": "view",
      "type": "function"
    },
    {
      "inputs": [],
      "name": "owner",
      "outputs": [
        {
          "internalType": "address",
          "name": "",
          "type": "address"
        }
      ],
      "stateMutability": "view",
      "type": "function"
    },
    {
      "inputs": [
        {
          "internalType": "uint256",
          "name": "tokenId",
          "type": "uint256"
        }
      ],
      "name": "ownerOf",
      "outputs": [
        {
          "internalType": "address",
          "name": "",
          "type": "address"
        }
      ],
      "stateMutability": "view",
      "type": "function"
    },
    {
      "inputs": [
        {
          "internalType": "uint256",
          "name": "toTokenId",
          "type": "uint256"
        }
      ],
      "name": "parkTokenIds",
      "outputs": [],
      "stateMutability": "nonpayable",
      "type": "function"
    },
    {
      "inputs": [
        {
          "internalType": "uint256",
          "name": "tokenId",
          "type": "uint256"
        }
      ],
      "name": "parked",
      "outputs": [
        {
          "internalType": "bool",
          "name": "",
          "type": "bool"
        }
      ],
      "stateMutability": "view",
      "type": "function"
    },
    {
      "inputs": [
        {
          "internalType": "address",
          "name": "spender",
          "type": "address"
        },
        {
          "internalType": "uint256",
          "name": "tokenId",
          "type": "uint256"
        },
        {
          "internalType": "uint256",
          "name": "deadline",
          "type": "uint256"
        },
        {
          "internalType": "uint8",
          "name": "v",
          "type": "uint8"
        },
        {
          "internalType": "bytes32",
          "name": "r",
          "type": "bytes32"
        },
        {
          "internalType": "bytes32",
          "name": "s",
          "type": "bytes32"
        }
      ],
      "name": "permit",
      "outputs": [],
      "stateMutability": "nonpayable",
      "type": "function"
    },
    {
      "inputs": [
        {
          "internalType": "address",
          "name": "owner",
          "type": "address"
        },
        {
          "internalType": "address",
          "name": "spender",
          "type": "address"
        },
        {
          "internalType": "uint256",
          "name": "deadline",
          "type": "uint256"
        },
        {
          "internalType": "uint8",
          "name": "v",
          "type": "uint8"
        },
        {
          "internalType": "bytes32",
          "name": "r",
          "type": "bytes32"
        },
        {
          "internalType": "bytes32",
          "name": "s",
          "type": "bytes32"
        }
      ],
      "name": "permitAll",
      "outputs": [],
      "stateMutability": "nonpayable",
      "type": "function"
    },
    {
      "inputs": [],
      "name": "renounceOwnership",
      "outputs": [],
      "stateMutability": "nonpayable",
      "type": "function"
    },
    {
      "inputs": [],
      "name": "royaltyFeeInfo",
      "outputs": [
        {
          "internalType": "address",
          "name": "recipient",
          "type": "address"
        },
        {
          "internalType": "uint8",
          "name": "permil",
          "type": "uint8"
        }
      ],
      "stateMutability": "view",
      "type": "function"
    },
    {
      "inputs": [
        {
          "internalType": "uint256",
          "name": "",
          "type": "uint256"
        },
        {
          "internalType": "uint256",
          "name": "_salePrice",
          "type": "uint256"
        }
      ],
      "name": "royaltyInfo",
      "outputs": [
        {
          "internalType": "address",
          "name": "",
          "type": "address"
        },
        {
          "internalType": "uint256",
          "name": "",
          "type": "uint256"
        }
      ],
      "stateMutability": "view",
      "type": "function"
    },
    {
      "inputs": [
        {
          "internalType": "address",
          "name": "from",
          "type": "address"
        },
        {
          "internalType": "address",
          "name": "to",
          "type": "address"
        },
        {
          "internalType": "uint256",
          "name": "tokenId",
          "type": "uint256"
        }
      ],
      "name": "safeTransferFrom",
      "outputs": [],
      "stateMutability": "nonpayable",
      "type": "function"
    },
    {
      "inputs": [
        {
          "internalType": "address",
          "name": "from",
          "type": "address"
        },
        {
          "internalType": "address",
          "name": "to",
          "type": "address"
        },
        {
          "internalType": "uint256",
          "name": "tokenId",
          "type": "uint256"
        },
        {
          "internalType": "bytes",
          "name": "_data",
          "type": "bytes"
        }
      ],
      "name": "safeTransferFrom",
      "outputs": [],
      "stateMutability": "nonpayable",
      "type": "function"
    },
    {
      "inputs": [
        {
          "internalType": "address",
          "name": "operator",
          "type": "address"
        },
        {
          "internalType": "bool",
          "name": "approved",
          "type": "bool"
        }
      ],
      "name": "setApprovalForAll",
      "outputs": [],
      "stateMutability": "nonpayable",
      "type": "function"
    },
    {
      "inputs": [
        {
          "internalType": "string",
          "name": "uri",
          "type": "string"
        }
      ],
      "name": "setBaseURI",
      "outputs": [],
      "stateMutability": "nonpayable",
      "type": "function"
    },
    {
      "inputs": [
        {
          "internalType": "uint8",
          "name": "royaltyFee",
          "type": "uint8"
        }
      ],
      "name": "setRoyaltyFee",
      "outputs": [],
      "stateMutability": "nonpayable",
      "type": "function"
    },
    {
      "inputs": [
        {
          "internalType": "address",
          "name": "royaltyFeeRecipient",
          "type": "address"
        }
      ],
      "name": "setRoyaltyFeeRecipient",
      "outputs": [],
      "stateMutability": "nonpayable",
      "type": "function"
    },
    {
      "inputs": [
        {
          "internalType": "uint256",
          "name": "id",
          "type": "uint256"
        },
        {
          "internalType": "string",
          "name": "newURI",
          "type": "string"
        }
      ],
      "name": "setTokenURI",
      "outputs": [],
      "stateMutability": "nonpayable",
      "type": "function"
    },
    {
      "inputs": [
        {
          "internalType": "bytes4",
          "name": "interfaceId",
          "type": "bytes4"
        }
      ],
      "name": "supportsInterface",
      "outputs": [
        {
          "internalType": "bool",
          "name": "",
          "type": "bool"
        }
      ],
      "stateMutability": "view",
      "type": "function"
    },
    {
      "inputs": [],
      "name": "symbol",
      "outputs": [
        {
          "internalType": "string",
          "name": "",
          "type": "string"
        }
      ],
      "stateMutability": "view",
      "type": "function"
    },
    {
      "inputs": [
        {
          "internalType": "uint256",
          "name": "tokenId",
          "type": "uint256"
        }
      ],
      "name": "tokenURI",
      "outputs": [
        {
          "internalType": "string",
          "name": "",
          "type": "string"
        }
      ],
      "stateMutability": "view",
      "type": "function"
    },
    {
      "inputs": [
        {
          "internalType": "address",
          "name": "from",
          "type": "address"
        },
        {
          "internalType": "address",
          "name": "to",
          "type": "address"
        },
        {
          "internalType": "uint256",
          "name": "tokenId",
          "type": "uint256"
        }
      ],
      "name": "transferFrom",
      "outputs": [],
      "stateMutability": "nonpayable",
      "type": "function"
    },
    {
      "inputs": [
        {
          "internalType": "address",
          "name": "newOwner",
          "type": "address"
        }
      ],
      "name": "transferOwnership",
      "outputs": [],
      "stateMutability": "nonpayable",
      "type": "function"
    }
  ],
  "transactionHash": "0x7f0cc98b0a5baf54cd7544372ecf12a04d88cc6167694a16c02fda73a6e736b7",
  "args": [],
  "solcInputHash": "649f3e90395d33e221dc9854e5364e1a",
  "bytecode": "0x608060405234801561001057600080fd5b5061517f806100206000396000f3fe608060405234801561001057600080fd5b50600436106102945760003560e01c806370a0823111610167578063a22cb465116100ce578063c87b56dd11610087578063c87b56dd146106e1578063c975e374146106f4578063def2716414610707578063e4623c1b1461071a578063e985e9c51461072d578063f2fde38b1461074057610294565b8063a22cb4651461065d578063aba0784714610670578063ac9a252114610683578063b4e13c8d14610696578063b88d4fde146106bd578063c45a0155146106d057610294565b80639443792c116101205780639443792c146105e657806394d008ef146105f957806395d89b411461060c578063994e7296146106145780639a5d4407146106275780639ecbcda21461064a57610294565b806370a0823114610567578063715018a61461057a57806375e6590f146105825780637ac2ff7b146105a25780638da5cb5b146105b5578063904dfb8e146105c657610294565b80632a55205a1161020b578063559f05dc116101c4578063559f05dc1461046a57806355f804b3146104895780635771f9971461049c5780635f7ef2fa1461052e5780636352211e146105415780636ef8e02d1461055457610294565b80632a55205a146103b657806330adf81f146103e85780633644e5151461040f57806342842e0e1461041757806344f09d111461042a57806350bf994a1461043d57610294565b80630935d6631161025d5780630935d66314610329578063095ea7b31461033c578063141a468c1461034f578063162094c41461037d578063228624821461039057806323b872dd146103a357610294565b8062893bf81461029957806301ffc9a7146102ae57806306fdde03146102d6578063077f224a146102eb578063081812fc146102fe575b600080fd5b6102ac6102a73660046149f6565b610753565b005b6102c16102bc3660046148af565b610830565b60405190151581526020015b60405180910390f35b6102de61085d565b6040516102cd9190614dc0565b6102ac6102f9366004614982565b6108ef565b61031161030c366004614897565b610a15565b6040516001600160a01b0390911681526020016102cd565b6102ac6103373660046149f6565b610a65565b6102ac61034a366004614763565b610ddf565b61036f61035d366004614897565b600e6020526000908152604090205481565b6040519081526020016102cd565b6102ac61038b366004614b87565b610e89565b6102ac61039e366004614584565b610ed2565b6102ac6103b1366004614477565b610f70565b6103c96103c4366004614bcb565b610feb565b604080516001600160a01b0390931683526020830191909152016102cd565b61036f7f49ecf333e5b8c95c40fdafc95c1ad136e8914a8fb55e9dc8bb01eaa83a2df9ad81565b61036f61102f565b6102ac610425366004614477565b61103e565b6102c1610438366004614afa565b611059565b6014546040805161010083046001600160a01b03168152600160a81b90920460ff166020830152016102cd565b6102c1610478366004614423565b6001600160a01b0381163014919050565b6102ac6104973660046148e7565b6110a9565b6104ef6104aa366004614897565b6011602052600090815260409020805460018201546002830154600384015460048501546005909501546001600160a01b039485169593949293918316929091169086565b604080516001600160a01b03978816815260208101969096528501939093529084166060840152909216608082015260a081019190915260c0016102cd565b6102ac61053c366004614c17565b6110ea565b61031161054f366004614897565b611120565b6102ac610562366004614423565b61113b565b61036f610575366004614423565b61116e565b6102ac6111d9565b61036f610590366004614897565b60136020526000908152604090205481565b6102ac6105b03660046147da565b61124d565b6008546001600160a01b0316610311565b61036f6105d4366004614423565b600f6020526000908152604090205481565b6102ac6105f4366004614bec565b611402565b6102ac61060736600461478e565b61147b565b6102de6114d4565b6102c1610622366004614897565b6114e3565b6102c1610635366004614897565b60126020526000908152604090205460ff1681565b6102ac610658366004614623565b6114ee565b6102ac61066b3660046145f6565b61168b565b6102ac61067e366004614520565b611696565b6102ac6106913660046146df565b6117eb565b61036f7fdaab21af31ece73a508939fedd476a5ee5129a5ed4bb091f3236ffb45394df6281565b6102ac6106cb3660046144b7565b611934565b600b546001600160a01b0316610311565b6102de6106ef366004614897565b611966565b6102ac610702366004614897565b611bfb565b6102c1610715366004614a28565b611c89565b6102ac610728366004614849565b611db4565b6102c161073b36600461443f565b611e41565b6102ac61074e366004614423565b611e6f565b80516001600160a01b031633146107855760405162461bcd60e51b815260040161077c90614dd3565b60405180910390fd5b600061079082611f4b565b6000818152601160205260409020549091506001600160a01b0316156107ec5760405162461bcd60e51b815260206004820152601160248201527053484f59553a204249445f45584953545360781b604482015260640161077c565b600081815260126020526040808220805460ff191660011790555182917fe8d9861dbc9c663ed3accd261bbe2fe01e0d3d9e5f51fa38523b265c7757a93a91a25050565b600063152a902d60e11b6001600160e01b031983161480610855575061085582612029565b90505b919050565b60606001805461086c9061505b565b80601f01602080910402602001604051908101604052809291908181526020018280546108989061505b565b80156108e55780601f106108ba576101008083540402835291602001916108e5565b820191906000526020600020905b8154815290600101906020018083116108c857829003601f168201915b5050505050905090565b600054610100900460ff1680610908575060005460ff16155b6109245760405162461bcd60e51b815260040161077c90614e95565b600054610100900460ff16158015610946576000805461ffff19166101011790555b6109508484612079565b610959826120f0565b600b80546001600160a01b0319163317905546600a8190558451602080870191909120604080517f8b73c3c69bb8fe3d512ecc4cf759cc79239f7b179b0ffacaa9a75d522b39400f938101939093528201527fc89efdaa54c0f20c7adf612882df0950f5a951637e0307cdcb4c672f298b8bc6606082015260808101919091523060a082015260c00160408051601f1981840301815291905280516020909101206009558015610a0f576000805461ff00191690555b50505050565b6000818152600460205260408120546001600160a01b0316610a495760405162461bcd60e51b815260040161077c90614e5e565b506000908152600660205260409020546001600160a01b031690565b60026010541415610a885760405162461bcd60e51b815260040161077c90614e34565b600260105560208101516001600160a01b03163014610ae35760405162461bcd60e51b815260206004820152601760248201527653484f59553a20494e56414c49445f45584348414e474560481b604482015260640161077c565b6000610aee82611f4b565b9050610afa8282612165565b610b22818360000151846101200151856101400151866101600151610b1d61102f565b61242a565b600081815260116020908152604091829020825160c08101845281546001600160a01b039081168083526001840154948301949094526002830154828601819052600384015482166060840152600480850154831660808086019190915260059095015460a08501529388015160e08901516101008a0151975163e01be26360e01b81529497919093169563e01be26395610bc1959293919201614ee3565b60206040518083038186803b158015610bd957600080fd5b505afa158015610bed573d6000803e3d6000fd5b505050506040513d601f19601f82011682018060405250810190610c11919061487b565b610c4e5760405162461bcd60e51b815260206004820152600e60248201526d53484f59553a204641494c55524560901b604482015260640161077c565b60c08301516001600160a01b038116610c65575082515b610c8c8460a0015183600001518385602001518660400151610c879190614fe2565b6125e0565b15610d935760208083015160008581526013909252604090912054610cb19190614fb6565b60008481526013602052604090205560608201516001600160a01b038116610cd7575081515b610cf485602001518660000151838860400151876020015161281e565b600084815260116020908152604080832080546001600160a01b03199081168255600182018590556002820185905560038201805482169055600482018054909116905560050192909255845190850151858301516080870151935188947f72fd87c5ad3903eb05815544ef7ea4640a18e631c9c02eb099c810834f82355594610d85949093909290918891614d75565b60405180910390a250610dd4565b600083815260126020526040808220805460ff191660011790555184917fe8d9861dbc9c663ed3accd261bbe2fe01e0d3d9e5f51fa38523b265c7757a93a91a25b505060016010555050565b6000610dea82611120565b9050806001600160a01b0316836001600160a01b03161415610e425760405162461bcd60e51b815260206004820152601160248201527053484f59553a20494e56414c49445f544f60781b604482015260640161077c565b336001600160a01b0382161480610e5e5750610e5e8133611e41565b610e7a5760405162461bcd60e51b815260040161077c90614dd3565b610e848383612865565b505050565b6008546001600160a01b03163314610eb35760405162461bcd60e51b815260040161077c90614dd3565b6000828152600d602090815260409091208251610e84928401906141b8565b33610ee56008546001600160a01b031690565b6001600160a01b03161480610f045750600b546001600160a01b031633145b610f205760405162461bcd60e51b815260040161077c90614dd3565b60005b8251811015610a0f57610f5e84848381518110610f5057634e487b7160e01b600052603260045260246000fd5b6020026020010151846128d3565b80610f6881615090565b915050610f23565b610f7a3382612906565b610fe05760405162461bcd60e51b815260206004820152603160248201527f4552433732313a207472616e736665722063616c6c6572206973206e6f74206f6044820152701ddb995c881b9bdc88185c1c1c9bdd9959607a1b606482015260840161077c565b610e84838383612990565b601454600090819061010081046001600160a01b0316906103e89061101a90600160a81b900460ff1686614fe2565b6110249190614fce565b915091509250929050565b6000611039612b30565b905090565b610e8483838360405180602001604052806000815250611934565b60006002601054141561107e5760405162461bcd60e51b815260040161077c90614e34565b600260105561109a8661109081611f4b565b3388888888612bdb565b60016010559695505050505050565b6008546001600160a01b031633146110d35760405162461bcd60e51b815260040161077c90614dd3565b80516110e690600c9060208401906141b8565b5050565b6008546001600160a01b031633146111145760405162461bcd60e51b815260040161077c90614dd3565b61111d81613035565b50565b6000908152600460205260409020546001600160a01b031690565b6008546001600160a01b031633146111655760405162461bcd60e51b815260040161077c90614dd3565b61111d8161313f565b60006001600160a01b0382166111bd5760405162461bcd60e51b815260206004820152601460248201527329a427acaa9d1024a72b20a624a22fa7aba722a960611b604482015260640161077c565b506001600160a01b031660009081526005602052604090205490565b6008546001600160a01b031633146112035760405162461bcd60e51b815260040161077c90614dd3565b6008546040516000916001600160a01b0316907f8be0079c531659141344cd1fd0a4f28419497f9722a3daafe3b4186f6b6457e0908390a3600880546001600160a01b0319169055565b8342111561128e5760405162461bcd60e51b815260206004820152600e60248201526d14d213d6554e881156141254915160921b604482015260640161077c565b600061129986611120565b90506001600160a01b0381166112ea5760405162461bcd60e51b815260206004820152601660248201527514d213d6554e881253959053125117d513d2d153925160521b604482015260640161077c565b806001600160a01b0316876001600160a01b031614156113435760405162461bcd60e51b815260206004820152601460248201527353484f59553a204e4f545f4e454345535341525960601b604482015260640161077c565b6000868152600e60209081526040918290205482517f49ecf333e5b8c95c40fdafc95c1ad136e8914a8fb55e9dc8bb01eaa83a2df9ad818401526001600160a01b038b1681850152606081018a9052608081019190915260a08082018990528351808303909101815260c090910190925281519101206113c98183878787610b1d61102f565b6000878152600e602052604081208054600192906113e8908490614fb6565b909155506113f890508888612865565b5050505050505050565b3361140c84611120565b6001600160a01b0316146114325760405162461bcd60e51b815260040161077c90614dd3565b61143b836131eb565b81837fb76a0da8ff1f8c54a41e3017cf87c65fc8f03e38d23eb45d4e9a1a5d7635b4c08360405161146e91815260200190565b60405180910390a3505050565b3361148e6008546001600160a01b031690565b6001600160a01b031614806114ad5750600b546001600160a01b031633145b6114c95760405162461bcd60e51b815260040161077c90614dd3565b610e848383836128d3565b60606002805461086c9061505b565b6000610855826132ac565b600054610100900460ff1680611507575060005460ff16155b6115235760405162461bcd60e51b815260040161077c90614e95565b600054610100900460ff16158015611545576000805461ffff19166101011790555b61154d6132d9565b6115588686896108ef565b600b60009054906101000a90046001600160a01b03166001600160a01b03166317e1f82e6040518163ffffffff1660e01b815260040160206040518083038186803b1580156115a657600080fd5b505afa1580156115ba573d6000803e3d6000fd5b505050506040513d601f19601f820116820180604052508101906115de9190614c33565b6014805460ff191660ff9290921691909117905560005b84518110156116415761162f8886838151811061162257634e487b7160e01b600052603260045260246000fd5b602002602001015161334c565b8061163981615090565b9150506115f5565b5061164b8361313f565b6014805460ff60a81b191660ff60a81b17905560ff8216156116705761167082613035565b8015611682576000805461ff00191690555b50505050505050565b6110e6338383613366565b834211156116d75760405162461bcd60e51b815260206004820152600e60248201526d14d213d6554e881156141254915160921b604482015260640161077c565b6001600160a01b0386166117265760405162461bcd60e51b815260206004820152601660248201527553484f59553a20494e56414c49445f4144445245535360501b604482015260640161077c565b6001600160a01b038681166000818152600f60209081526040918290205482517fdaab21af31ece73a508939fedd476a5ee5129a5ed4bb091f3236ffb45394df6281840152808401949094529389166060840152608083019390935260a08083018890528151808403909101815260c0909201905280519101206117b08188868686610b1d61102f565b6001600160a01b0387166000908152600f602052604081208054600192906117d9908490614fb6565b90915550611682905087876001613366565b600054610100900460ff1680611804575060005460ff16155b6118205760405162461bcd60e51b815260040161077c90614e95565b600054610100900460ff16158015611842576000805461ffff19166101011790555b61184a6132d9565b6118558686896108ef565b600b60009054906101000a90046001600160a01b03166001600160a01b03166317e1f82e6040518163ffffffff1660e01b815260040160206040518083038186803b1580156118a357600080fd5b505afa1580156118b7573d6000803e3d6000fd5b505050506040513d601f19601f820116820180604052508101906118db9190614c33565b6014805460ff191660ff929092169190911790556118f88461342d565b6040518481527fbd3ebe8ad09ded9d19d849088ef41c06e6369d712810f47ad52751826c17ff949060200160405180910390a161164b8361313f565b61193e3383612906565b61195a5760405162461bcd60e51b815260040161077c90614dd3565b610a0f84848484613485565b6000818152600460205260409020546060906001600160a01b03161515806119925750611992826132ac565b6119ae5760405162461bcd60e51b815260040161077c90614e5e565b6000828152600d6020526040812080546119c79061505b565b80601f01602080910402602001604051908101604052809291908181526020018280546119f39061505b565b8015611a405780601f10611a1557610100808354040283529160200191611a40565b820191906000526020600020905b815481529060010190602001808311611a2357829003601f168201915b50505050509050600081511115611a58579050610858565b6000600c8054611a679061505b565b80601f0160208091040260200160405190810160405280929190818152602001828054611a939061505b565b8015611ae05780601f10611ab557610100808354040283529160200191611ae0565b820191906000526020600020905b815481529060010190602001808311611ac357829003601f168201915b50505050509050600081511115611b245780611afb856134b8565b604051602001611b0c929190614c97565b60405160208183030381529060405292505050610858565b600b60009054906101000a90046001600160a01b03166001600160a01b0316633683a63d6040518163ffffffff1660e01b815260040160006040518083038186803b158015611b7257600080fd5b505afa158015611b86573d6000803e3d6000fd5b505050506040513d6000823e601f3d908101601f19168201604052611bae9190810190614919565b90506000611bbd3060146135d2565b90508181611bca876134b8565b604051602001611bdc93929190614cd6565b6040516020818303038152906040529350505050610858565b50919050565b33611c0e6008546001600160a01b031690565b6001600160a01b03161480611c2d5750600b546001600160a01b031633145b611c495760405162461bcd60e51b815260040161077c90614dd3565b611c528161342d565b6040518181527fbd3ebe8ad09ded9d19d849088ef41c06e6369d712810f47ad52751826c17ff94906020015b60405180910390a150565b600060026010541415611cae5760405162461bcd60e51b815260040161077c90614e34565b60026010556000611cbe84611f4b565b83519091508114611d095760405162461bcd60e51b81526020600482015260156024820152740a6909eb2aa7440aa9c9a82a886908a88be9082a69605b1b604482015260640161077c565b60208301516001600160a01b0316611d5b5760405162461bcd60e51b815260206004820152601560248201527429a427acaa9d1024a72b20a624a22fa9a4a3a722a960591b604482015260640161077c565b611d84611d67846137b3565b84602001518560c001518660e00151876101000151610b1d61102f565b611da7848285602001518660400151876060015188608001518960a00151612bdb565b6001601055949350505050565b60005b81518110156110e6576000828281518110611de257634e487b7160e01b600052603260045260246000fd5b60200260200101519050336001600160a01b0316611dff82611120565b6001600160a01b031614611e255760405162461bcd60e51b815260040161077c90614dd3565b611e2e816131eb565b5080611e3981615090565b915050611db7565b6001600160a01b03918216600090815260076020908152604080832093909416825291909152205460ff1690565b6008546001600160a01b03163314611e995760405162461bcd60e51b815260040161077c90614dd3565b6001600160a01b038116611eef5760405162461bcd60e51b815260206004820152601860248201527f53484f59553a20494e56414c49445f4e45575f4f574e45520000000000000000604482015260640161077c565b6008546040516001600160a01b038084169216907f8be0079c531659141344cd1fd0a4f28419497f9722a3daafe3b4186f6b6457e090600090a3600880546001600160a01b0319166001600160a01b0392909216919091179055565b80516020808301516040808501516060860151608087015160a088015160c089015160e08a01516101008b01518051908a0120965160009a61200c9a7f17fdf8831f8bd77353b30f42ba9bc64e7144545a42a890389f298feeb45dec889a9199919897969594939201998a526001600160a01b0398891660208b015296881660408a01526060890195909552608088019390935290851660a0870152841660c086015290921660e08401526101008301919091526101208201526101400190565b604051602081830303815290604052805190602001209050919050565b60006001600160e01b031982166380ac58cd60e01b148061205a57506001600160e01b03198216635b5e139f60e01b145b8061085557506301ffc9a760e01b6001600160e01b0319831614610855565b600054610100900460ff1680612092575060005460ff16155b6120ae5760405162461bcd60e51b815260040161077c90614e95565b600054610100900460ff161580156120d0576000805461ffff19166101011790555b6120da838361383e565b8015610e84576000805461ff0019169055505050565b600054610100900460ff1680612109575060005460ff16155b6121255760405162461bcd60e51b815260040161077c90614e95565b600054610100900460ff16158015612147576000805461ffff19166101011790555b612150826138d3565b80156110e6576000805461ff00191690555050565b60008181526012602052604090205460ff16156121b75760405162461bcd60e51b815260206004820152601060248201526f14d213d6554e8810d05390d15313115160821b604482015260640161077c565b81516001600160a01b03166122055760405162461bcd60e51b815260206004820152601460248201527329a427acaa9d1024a72b20a624a22fa6a0a5a2a960611b604482015260640161077c565b60208201516001600160a01b03166122545760405162461bcd60e51b815260206004820152601260248201527114d213d6554e881253959053125117d3919560721b604482015260640161077c565b60008260600151116122a05760405162461bcd60e51b815260206004820152601560248201527414d213d6554e881253959053125117d05353d55395605a1b604482015260640161077c565b60808201516001600160a01b03166122fa5760405162461bcd60e51b815260206004820152601760248201527f53484f59553a20494e56414c49445f5354524154454759000000000000000000604482015260640161077c565b60a08201516001600160a01b03166123545760405162461bcd60e51b815260206004820152601760248201527f53484f59553a20494e56414c49445f43555252454e4359000000000000000000604482015260640161077c565b600b546001600160a01b03166080830151604051632666e89f60e21b81526001600160a01b03918216600482015291169063999ba27c9060240160206040518083038186803b1580156123a657600080fd5b505afa1580156123ba573d6000803e3d6000fd5b505050506040513d601f19601f820116820180604052508101906123de919061487b565b6110e65760405162461bcd60e51b815260206004820152601f60248201527f53484f59553a2053545241544547595f4e4f545f57484954454c495354454400604482015260640161077c565b60405161190160f01b6020820152602281018290526042810187905260009060620160405160208183030381529060405280519060200120905061246e863b151590565b1561257e57604080516020810186905280820185905260f887901b6001600160f81b0319166060820152815160418183030181526061820192839052630b135d3f60e11b9092526001600160a01b03881691631626ba7e916124d4918591606501614da7565b60206040518083038186803b1580156124ec57600080fd5b505afa158015612500573d6000803e3d6000fd5b505050506040513d601f19601f8201168201806040525081019061252491906148cb565b6001600160e01b031916631626ba7e60e01b146125795760405162461bcd60e51b815260206004820152601360248201527214d213d6554e8815539055551213d492569151606a1b604482015260640161077c565b611682565b856001600160a01b031661259482878787613988565b6001600160a01b0316146116825760405162461bcd60e51b815260206004820152601360248201527214d213d6554e8815539055551213d492569151606a1b604482015260640161077c565b60006125ee85853085613b31565b6125fa57506000612816565b600061260e600b546001600160a01b031690565b90506000839050600080836001600160a01b031663aec0b5436040518163ffffffff1660e01b8152600401604080518083038186803b15801561265057600080fd5b505afa158015612664573d6000803e3d6000fd5b505050506040513d601f19601f82011682018060405250810190612688919061481b565b909250905060006103e861269f60ff841689614fe2565b6126a99190614fce565b90506126bf6001600160a01b038b168483613c03565b6126c98185615001565b9350505050600080836001600160a01b031663c2b11e186040518163ffffffff1660e01b8152600401604080518083038186803b15801561270957600080fd5b505afa15801561271d573d6000803e3d6000fd5b505050506040513d601f19601f82011682018060405250810190612741919061481b565b909250905060006103e861275860ff841689614fe2565b6127629190614fce565b90506127786001600160a01b038b168483613c03565b6127828185615001565b93505050506000806127ad60145461010081046001600160a01b031691600160a81b90910460ff1690565b909250905060ff808216146127f95760006103e86127ce60ff841686614fe2565b6127d89190614fce565b905080156127f7576127ea8185615001565b93506127f78a8483613c55565b505b61280d6001600160a01b038a168885613c03565b60019450505050505b949350505050565b6008546001600160a01b03858116911614801561283f575061283f826132ac565b156128535761284e838361334c565b61285e565b61285e848484612990565b5050505050565b600081815260066020526040902080546001600160a01b0319166001600160a01b038416908117909155819061289a82611120565b6001600160a01b03167f8c5be1e5ebec7d5bd14f71427d1e84f3dd0314c0f7b2291e5b200ac8c7c3b92560405160405180910390a45050565b6128dd8383613ce4565b6128ea6000848484613e12565b610e845760405162461bcd60e51b815260040161077c90614dfd565b6000818152600460205260408120546001600160a01b031661293a5760405162461bcd60e51b815260040161077c90614e5e565b600061294583611120565b9050806001600160a01b0316846001600160a01b031614806129805750836001600160a01b031661297584610a15565b6001600160a01b0316145b8061281657506128168185611e41565b826001600160a01b03166129a382611120565b6001600160a01b031614612a0b5760405162461bcd60e51b815260206004820152602960248201527f4552433732313a207472616e73666572206f6620746f6b656e2074686174206960448201526839903737ba1037bbb760b91b606482015260840161077c565b6001600160a01b038216612a6d5760405162461bcd60e51b8152602060048201526024808201527f4552433732313a207472616e7366657220746f20746865207a65726f206164646044820152637265737360e01b606482015260840161077c565b612a78600082612865565b6001600160a01b0383166000908152600560205260408120805460019290612aa1908490615001565b90915550506001600160a01b0382166000908152600560205260408120805460019290612acf908490614fb6565b909155505060008181526004602052604080822080546001600160a01b0319166001600160a01b0386811691821790925591518493918716917fddf252ad1be2c89b69c2b068fc378daa952ba7f163c4a11628f55a4df523b3ef91a4505050565b60008046600a541415612b465750600954611039565b7f8b73c3c69bb8fe3d512ecc4cf759cc79239f7b179b0ffacaa9a75d522b39400f612b6f61085d565b80516020918201206040805192830193909352918101919091527fc89efdaa54c0f20c7adf612882df0950f5a951637e0307cdcb4c672f298b8bc660608201524660808201523060a082015260c001604051602081830303815290604052805190602001209050905090565b60208701516000906001600160a01b03163014612c345760405162461bcd60e51b815260206004820152601760248201527653484f59553a20494e56414c49445f45584348414e474560481b604482015260640161077c565b60008511612c7c5760405162461bcd60e51b815260206004820152601560248201527414d213d6554e881253959053125117d05353d55395605a1b604482015260640161077c565b6000878152601360205260409020546060890151612c9a8783614fb6565b1115612cda5760405162461bcd60e51b815260206004820152600f60248201526e14d213d6554e8814d3d31117d3d555608a1b604482015260640161077c565b612ce48989612165565b612d07888a600001518b61012001518c61014001518d6101600151610b1d61102f565b88608001516001600160a01b031663e01be2638a60e001518b61010001518a896040518563ffffffff1660e01b8152600401612d469493929190614ee3565b60206040518083038186803b158015612d5e57600080fd5b505afa158015612d72573d6000803e3d6000fd5b505050506040513d601f19601f82011682018060405250810190612d96919061487b565b15612ea257612da58682614fb6565b60008981526013602052604090205560c08901516001600160a01b038116612dcb575088515b60a08a0151612de0908983610c878b8b614fe2565b612e2c5760405162461bcd60e51b815260206004820152601f60248201527f53484f59553a204641494c45445f544f5f5452414e534645525f46554e445300604482015260640161077c565b6001600160a01b038516612e3e578794505b612e578a602001518b60000151878d604001518b61281e565b887f72fd87c5ad3903eb05815544ef7ea4640a18e631c9c02eb099c810834f8235558989898989604051612e8f959493929190614d75565b60405180910390a260019250505061302a565b6000888152601160205260409081902060808b015160e08c01516101008d0151600284015460058501549551633140c34d60e11b815294956001600160a01b0390941694636281869a94612eff9493928f928e9290600401614f18565b60206040518083038186803b158015612f1757600080fd5b505afa158015612f2b573d6000803e3d6000fd5b505050506040513d601f19601f82011682018060405250810190612f4f919061487b565b15612ff05780546001600160a01b03808a166001600160a01b031992831617835560018301899055600283018890556003830180548883169084161790556004830180549187169190921617905543600582015560405189907f4055f76fe1f351fec66b9ba790ddbdc29eb45c038163a6b1327277441a8c65f190612fdd908b908b908b908b908b90614d75565b60405180910390a260009250505061302a565b5060405162461bcd60e51b815260206004820152600e60248201526d53484f59553a204641494c55524560901b604482015260640161077c565b979650505050505050565b601454600160a81b900460ff908116141561309d5760145460ff90811690821611156130985760405162461bcd60e51b815260206004820152601260248201527153484f59553a20494e56414c49445f46454560701b604482015260640161077c565b6130f1565b60145460ff600160a81b9091048116908216106130f15760405162461bcd60e51b815260206004820152601260248201527153484f59553a20494e56414c49445f46454560701b604482015260640161077c565b6014805460ff60a81b1916600160a81b60ff8416908102919091179091556040519081527fd9ac3bc8ad92267d0b101786ddb4d37746ed1e3ee77637846294edf17dd9eb8a90602001611c7e565b6001600160a01b0381166131955760405162461bcd60e51b815260206004820152601c60248201527f53484f59553a20494e56414c49445f4645455f524543495049454e5400000000604482015260640161077c565b60148054610100600160a81b0319166101006001600160a01b038416908102919091179091556040519081527f1ce5f25607cb1a4fa6c947b55700213a9ed6a1d7ef1cf1d02ab467efd02a993e90602001611c7e565b60006131f682611120565b90506001600160a01b03811661321e5760405162461bcd60e51b815260040161077c90614e5e565b613229600083612865565b6001600160a01b0381166000908152600560205260408120805460019290613252908490615001565b909155505060008281526004602052604080822080546001600160a01b0319169055518391906001600160a01b038416907fddf252ad1be2c89b69c2b068fc378daa952ba7f163c4a11628f55a4df523b3ef908390a45050565b6000806132b883611120565b90506001600160a01b0381161580156132d2575060035483105b9392505050565b600054610100900460ff16806132f2575060005460ff16155b61330e5760405162461bcd60e51b815260040161077c90614e95565b600054610100900460ff16158015613330576000805461ffff19166101011790555b613338613f1c565b801561111d576000805461ff001916905550565b6110e68282604051806020016040528060008152506128d3565b826001600160a01b0316826001600160a01b031614156133c85760405162461bcd60e51b815260206004820152601760248201527f53484f59553a20494e56414c49445f4f50455241544f52000000000000000000604482015260640161077c565b6001600160a01b03838116600081815260076020908152604080832094871680845294825291829020805460ff191686151590811790915591519182527f17307eab39ab6107e8899845ad3d59bd9653f200f220920489ca2b5937696c31910161146e565b60035480821161347f5760405162461bcd60e51b815260206004820152601a60248201527f53484f59553a20494e56414c49445f544f5f544f4b454e5f4944000000000000604482015260640161077c565b50600355565b613490848484612990565b61349c84848484613e12565b610a0f5760405162461bcd60e51b815260040161077c90614dfd565b6060816134dd57506040805180820190915260018152600360fc1b6020820152610858565b8160005b811561350757806134f181615090565b91506135009050600a83614fce565b91506134e1565b6000816001600160401b0381111561352f57634e487b7160e01b600052604160045260246000fd5b6040519080825280601f01601f191660200182016040528015613559576020820181803683370190505b5090505b84156128165761356e600183615001565b915061357b600a866150ab565b613586906030614fb6565b60f81b8183815181106135a957634e487b7160e01b600052603260045260246000fd5b60200101906001600160f81b031916908160001a9053506135cb600a86614fce565b945061355d565b606060006135e1836002614fe2565b6135ec906002614fb6565b6001600160401b0381111561361157634e487b7160e01b600052604160045260246000fd5b6040519080825280601f01601f19166020018201604052801561363b576020820181803683370190505b509050600360fc1b8160008151811061366457634e487b7160e01b600052603260045260246000fd5b60200101906001600160f81b031916908160001a905350600f60fb1b816001815181106136a157634e487b7160e01b600052603260045260246000fd5b60200101906001600160f81b031916908160001a90535060006136c5846002614fe2565b6136d0906001614fb6565b90505b6001811115613764576f181899199a1a9b1b9c1cb0b131b232b360811b85600f166010811061371257634e487b7160e01b600052603260045260246000fd5b1a60f81b82828151811061373657634e487b7160e01b600052603260045260246000fd5b60200101906001600160f81b031916908160001a90535060049490941c9361375d81615044565b90506136d3565b5083156132d25760405162461bcd60e51b815260206004820181905260248201527f537472696e67733a20686578206c656e67746820696e73756666696369656e74604482015260640161077c565b80516020808301516040808501516060860151608087015160a0880151935160009761200c977fb98e1dc48988064e6dfb813618609d7da80a8841e5f277039788ac4b50d497b297919691959493920196875260208701959095526001600160a01b03938416604087015260608601929092526080850152811660a08401521660c082015260e00190565b600054610100900460ff1680613857575060005460ff16155b6138735760405162461bcd60e51b815260040161077c90614e95565b600054610100900460ff16158015613895576000805461ffff19166101011790555b82516138a89060019060208601906141b8565b5081516138bc9060029060208501906141b8565b508015610e84576000805461ff0019169055505050565b600054610100900460ff16806138ec575060005460ff16155b6139085760405162461bcd60e51b815260040161077c90614e95565b600054610100900460ff1615801561392a576000805461ffff19166101011790555b600880546001600160a01b0319166001600160a01b0384169081179091556040516000907f8be0079c531659141344cd1fd0a4f28419497f9722a3daafe3b4186f6b6457e0908290a380156110e6576000805461ff00191690555050565b60007f7fffffffffffffffffffffffffffffff5d576e7357a4501ddfe92f46681b20a0821115613a055760405162461bcd60e51b815260206004820152602260248201527f45434453413a20696e76616c6964207369676e6174757265202773272076616c604482015261756560f01b606482015260840161077c565b8360ff16601b1480613a1a57508360ff16601c145b613a715760405162461bcd60e51b815260206004820152602260248201527f45434453413a20696e76616c6964207369676e6174757265202776272076616c604482015261756560f01b606482015260840161077c565b6040805160008082526020820180845288905260ff871692820192909252606081018590526080810184905260019060a0016020604051602081039080840390855afa158015613ac5573d6000803e3d6000fd5b5050604051601f1901519150506001600160a01b038116613b285760405162461bcd60e51b815260206004820152601860248201527f45434453413a20696e76616c6964207369676e61747572650000000000000000604482015260640161077c565b95945050505050565b604080516001600160a01b0385811660248301528481166044830152606480830185905283518084039091018152608490920183526020820180516001600160e01b03166323b872dd60e01b17905291516000928392839291891691613b979190614c7b565b6000604051808303816000865af19150503d8060008114613bd4576040519150601f19603f3d011682016040523d82523d6000602084013e613bd9565b606091505b509150915081801561302a57508051158061302a57508080602001905181019061302a919061487b565b604080516001600160a01b038416602482015260448082018490528251808303909101815260649091019091526020810180516001600160e01b031663a9059cbb60e01b179052610e84908490613f7b565b613c696001600160a01b0384168383613c03565b813b15610e8457816001600160a01b031663fff6cae96040518163ffffffff1660e01b8152600401602060405180830381600087803b158015613cab57600080fd5b505af1925050508015613cdb575060408051601f3d908101601f19168201909252613cd891810190614b6f565b60015b610a0f57610e84565b6001600160a01b038216613d2e5760405162461bcd60e51b815260206004820152601160248201527053484f59553a20494e56414c49445f544f60781b604482015260640161077c565b6000818152600460205260409020546001600160a01b031615613d8b5760405162461bcd60e51b815260206004820152601560248201527414d213d6554e881053149150511657d35253951151605a1b604482015260640161077c565b6001600160a01b0382166000908152600560205260408120805460019290613db4908490614fb6565b909155505060008181526004602052604080822080546001600160a01b0319166001600160a01b03861690811790915590518392907fddf252ad1be2c89b69c2b068fc378daa952ba7f163c4a11628f55a4df523b3ef908290a45050565b60006001600160a01b0384163b15613f1457604051630a85bd0160e11b81526001600160a01b0385169063150b7a0290613e56903390899088908890600401614d38565b602060405180830381600087803b158015613e7057600080fd5b505af1925050508015613ea0575060408051601f3d908101601f19168201909252613e9d918101906148cb565b60015b613efa573d808015613ece576040519150601f19603f3d011682016040523d82523d6000602084013e613ed3565b606091505b508051613ef25760405162461bcd60e51b815260040161077c90614dfd565b805181602001fd5b6001600160e01b031916630a85bd0160e11b149050612816565b506001612816565b600054610100900460ff1680613f35575060005460ff16155b613f515760405162461bcd60e51b815260040161077c90614e95565b600054610100900460ff16158015613f73576000805461ffff19166101011790555b61333861404d565b6000613fd0826040518060400160405280602081526020017f5361666545524332303a206c6f772d6c6576656c2063616c6c206661696c6564815250856001600160a01b03166140bd9092919063ffffffff16565b805190915015610e845780806020019051810190613fee919061487b565b610e845760405162461bcd60e51b815260206004820152602a60248201527f5361666545524332303a204552433230206f7065726174696f6e20646964206e6044820152691bdd081cdd58d8d9595960b21b606482015260840161077c565b600054610100900460ff1680614066575060005460ff16155b6140825760405162461bcd60e51b815260040161077c90614e95565b600054610100900460ff161580156140a4576000805461ffff19166101011790555b6001601055801561111d576000805461ff001916905550565b6060612816848460008585843b6141165760405162461bcd60e51b815260206004820152601d60248201527f416464726573733a2063616c6c20746f206e6f6e2d636f6e7472616374000000604482015260640161077c565b600080866001600160a01b031685876040516141329190614c7b565b60006040518083038185875af1925050503d806000811461416f576040519150601f19603f3d011682016040523d82523d6000602084013e614174565b606091505b509150915061302a8282866060831561418e5750816132d2565b82511561419e5782518084602001fd5b8160405162461bcd60e51b815260040161077c9190614dc0565b8280546141c49061505b565b90600052602060002090601f0160209004810192826141e6576000855561422c565b82601f106141ff57805160ff191683800117855561422c565b8280016001018555821561422c579182015b8281111561422c578251825591602001919060010190614211565b5061423892915061423c565b5090565b5b80821115614238576000815560010161423d565b803561085881615101565b600082601f83011261426c578081fd5b813560206001600160401b03821115614287576142876150eb565b8160051b614296828201614f5f565b8381528281019086840183880185018910156142b0578687fd5b8693505b858410156142d25780358352600193909301929184019184016142b4565b50979650505050505050565b600082601f8301126142ee578081fd5b81356143016142fc82614f8f565b614f5f565b818152846020838601011115614315578283fd5b816020850160208301379081016020019190915292915050565b6000610180808385031215614342578182fd5b61434b81614f5f565b91505061435782614251565b815261436560208301614251565b6020820152604082013560408201526060820135606082015261438a60808301614251565b608082015261439b60a08301614251565b60a08201526143ac60c08301614251565b60c082015260e082013560e0820152610100808301356001600160401b038111156143d657600080fd5b6143e2858286016142de565b8284015250506101206143f6818401614418565b9082015261014082810135908201526101609182013591810191909152919050565b80356108588161513a565b600060208284031215614434578081fd5b81356132d281615101565b60008060408385031215614451578081fd5b823561445c81615101565b9150602083013561446c81615101565b809150509250929050565b60008060006060848603121561448b578081fd5b833561449681615101565b925060208401356144a681615101565b929592945050506040919091013590565b600080600080608085870312156144cc578182fd5b84356144d781615101565b935060208501356144e781615101565b92506040850135915060608501356001600160401b03811115614508578182fd5b614514878288016142de565b91505092959194509250565b60008060008060008060c08789031215614538578384fd5b863561454381615101565b9550602087013561455381615101565b945060408701359350606087013561456a8161513a565b9598949750929560808101359460a0909101359350915050565b600080600060608486031215614598578081fd5b83356145a381615101565b925060208401356001600160401b03808211156145be578283fd5b6145ca8783880161425c565b935060408601359150808211156145df578283fd5b506145ec868287016142de565b9150509250925092565b60008060408385031215614608578182fd5b823561461381615101565b9150602083013561446c81615116565b60008060008060008060c0878903121561463b578384fd5b863561464681615101565b955060208701356001600160401b0380821115614661578586fd5b61466d8a838b016142de565b96506040890135915080821115614682578586fd5b61468e8a838b016142de565b955060608901359150808211156146a3578384fd5b506146b089828a0161425c565b93505060808701356146c181615101565b915060a08701356146d18161513a565b809150509295509295509295565b60008060008060008060c087890312156146f7578384fd5b863561470281615101565b955060208701356001600160401b038082111561471d578586fd5b6147298a838b016142de565b9650604089013591508082111561473e578586fd5b5061474b89828a016142de565b9450506060870135925060808701356146c181615101565b60008060408385031215614775578182fd5b823561478081615101565b946020939093013593505050565b6000806000606084860312156147a2578081fd5b83356147ad81615101565b92506020840135915060408401356001600160401b038111156147ce578182fd5b6145ec868287016142de565b60008060008060008060c087890312156147f2578384fd5b86356147fd81615101565b95506020870135945060408701359350606087013561456a8161513a565b6000806040838503121561482d578182fd5b825161483881615101565b602084015190925061446c8161513a565b60006020828403121561485a578081fd5b81356001600160401b0381111561486f578182fd5b6128168482850161425c565b60006020828403121561488c578081fd5b81516132d281615116565b6000602082840312156148a8578081fd5b5035919050565b6000602082840312156148c0578081fd5b81356132d281615124565b6000602082840312156148dc578081fd5b81516132d281615124565b6000602082840312156148f8578081fd5b81356001600160401b0381111561490d578182fd5b612816848285016142de565b60006020828403121561492a578081fd5b81516001600160401b0381111561493f578182fd5b8201601f8101841361494f578182fd5b805161495d6142fc82614f8f565b818152856020838501011115614971578384fd5b613b28826020830160208601615018565b600080600060608486031215614996578081fd5b83356001600160401b03808211156149ac578283fd5b6149b8878388016142de565b945060208601359150808211156149cd578283fd5b506149da868287016142de565b92505060408401356149eb81615101565b809150509250925092565b600060208284031215614a07578081fd5b81356001600160401b03811115614a1c578182fd5b6128168482850161432f565b600080828403610140811215614a3c578283fd5b83356001600160401b03811115614a51578384fd5b614a5d8682870161432f565b93505061012080601f1983011215614a73578283fd5b614a7c81614f5f565b915060208501358252614a9160408601614251565b60208301526060850135604083015260808501356060830152614ab660a08601614251565b6080830152614ac760c08601614251565b60a0830152614ad860e08601614418565b60c08301526101008581013560e0840152940135938101939093525092909150565b600080600080600060a08688031215614b11578283fd5b85356001600160401b03811115614b26578384fd5b614b328882890161432f565b95505060208601359350604086013592506060860135614b5181615101565b91506080860135614b6181615101565b809150509295509295909350565b600060208284031215614b80578081fd5b5051919050565b60008060408385031215614b99578182fd5b8235915060208301356001600160401b03811115614bb5578182fd5b614bc1858286016142de565b9150509250929050565b60008060408385031215614bdd578182fd5b50508035926020909101359150565b600080600060608486031215614c00578081fd5b505081359360208301359350604090920135919050565b600060208284031215614c28578081fd5b81356132d28161513a565b600060208284031215614c44578081fd5b81516132d28161513a565b60008151808452614c67816020860160208601615018565b601f01601f19169290920160200192915050565b60008251614c8d818460208701615018565b9190910192915050565b60008351614ca9818460208801615018565b835190830190614cbd818360208801615018565b64173539b7b760d91b9101908152600501949350505050565b60008451614ce8818460208901615018565b845190830190614cfc818360208901615018565b602f60f81b91019081528351614d19816001840160208801615018565b64173539b7b760d91b6001929091019182015260060195945050505050565b6001600160a01b0385811682528416602082015260408101839052608060608201819052600090614d6b90830184614c4f565b9695505050505050565b6001600160a01b0395861681526020810194909452604084019290925283166060830152909116608082015260a00190565b6000838252604060208301526128166040830184614c4f565b6000602082526132d26020830184614c4f565b60208082526010908201526f29a427acaa9d102327a92124a22222a760811b604082015260600190565b60208082526017908201527f53484f59553a20494e56414c49445f5245434549564552000000000000000000604082015260600190565b60208082526010908201526f14d213d6554e8814915153951490539560821b604082015260600190565b60208082526017908201527f53484f59553a20494e56414c49445f544f4b454e5f4944000000000000000000604082015260600190565b6020808252602e908201527f496e697469616c697a61626c653a20636f6e747261637420697320616c72656160408201526d191e481a5b9a5d1a585b1a5e995960921b606082015260800190565b600085825260806020830152614efc6080830186614c4f565b6001600160a01b03949094166040830152506060015292915050565b600087825260c06020830152614f3160c0830188614c4f565b6001600160a01b03969096166040830152506060810193909352608083019190915260a09091015292915050565b604051601f8201601f191681016001600160401b0381118282101715614f8757614f876150eb565b604052919050565b60006001600160401b03821115614fa857614fa86150eb565b50601f01601f191660200190565b60008219821115614fc957614fc96150bf565b500190565b600082614fdd57614fdd6150d5565b500490565b6000816000190483118215151615614ffc57614ffc6150bf565b500290565b600082821015615013576150136150bf565b500390565b60005b8381101561503357818101518382015260200161501b565b83811115610a0f5750506000910152565b600081615053576150536150bf565b506000190190565b600181811c9082168061506f57607f821691505b60208210811415611bf557634e487b7160e01b600052602260045260246000fd5b60006000198214156150a4576150a46150bf565b5060010190565b6000826150ba576150ba6150d5565b500690565b634e487b7160e01b600052601160045260246000fd5b634e487b7160e01b600052601260045260246000fd5b634e487b7160e01b600052604160045260246000fd5b6001600160a01b038116811461111d57600080fd5b801515811461111d57600080fd5b6001600160e01b03198116811461111d57600080fd5b60ff8116811461111d57600080fdfea26469706673582212203b0f1efe48b1d8aec8b854e79dbb6b2984404214797f511ee1c138cd35184cea64736f6c63430008030033",
  "devdoc": {
    "kind": "dev",
    "methods": {
      "approve(address,uint256)": {
        "details": "See {IERC721-approve}."
      },
      "balanceOf(address)": {
        "details": "See {IERC721-balanceOf}."
      },
      "getApproved(uint256)": {
        "details": "See {IERC721-getApproved}."
      },
      "isApprovedForAll(address,address)": {
        "details": "See {IERC721-isApprovedForAll}."
      },
      "name()": {
        "details": "See {IERC721Metadata-name}."
      },
      "owner()": {
        "details": "Returns the address of the current owner."
      },
      "ownerOf(uint256)": {
        "details": "See {IERC721-ownerOf}."
      },
      "renounceOwnership()": {
        "details": "Leaves the contract without owner. It will not be possible to call `onlyOwner` functions anymore. Can only be called by the current owner. NOTE: Renouncing ownership will leave the contract without an owner, thereby removing any functionality that is only available to the owner."
      },
      "safeTransferFrom(address,address,uint256)": {
        "details": "See {IERC721-safeTransferFrom}."
      },
      "safeTransferFrom(address,address,uint256,bytes)": {
        "details": "See {IERC721-safeTransferFrom}."
      },
      "setApprovalForAll(address,bool)": {
        "details": "See {IERC721-setApprovalForAll}."
      },
      "symbol()": {
        "details": "See {IERC721Metadata-symbol}."
      },
      "transferFrom(address,address,uint256)": {
        "details": "See {IERC721-transferFrom}."
      },
      "transferOwnership(address)": {
        "details": "Transfers ownership of the contract to a new account (`newOwner`). Can only be called by the current owner."
      }
    },
    "version": 1
  },
  "userdoc": {
    "kind": "user",
    "methods": {},
    "version": 1
  },
  "storageLayout": {
    "storage": [
      {
        "astId": 115,
        "contract": "contracts/NFT721V0.sol:NFT721V0",
        "label": "_initialized",
        "offset": 0,
        "slot": "0",
        "type": "t_bool"
      },
      {
        "astId": 118,
        "contract": "contracts/NFT721V0.sol:NFT721V0",
        "label": "_initializing",
        "offset": 1,
        "slot": "0",
        "type": "t_bool"
      },
      {
        "astId": 9831,
        "contract": "contracts/NFT721V0.sol:NFT721V0",
        "label": "_name",
        "offset": 0,
        "slot": "1",
        "type": "t_string_storage"
      },
      {
        "astId": 9833,
        "contract": "contracts/NFT721V0.sol:NFT721V0",
        "label": "_symbol",
        "offset": 0,
        "slot": "2",
        "type": "t_string_storage"
      },
      {
        "astId": 9835,
        "contract": "contracts/NFT721V0.sol:NFT721V0",
        "label": "_toTokenIdParked",
        "offset": 0,
        "slot": "3",
        "type": "t_uint256"
      },
      {
        "astId": 9839,
        "contract": "contracts/NFT721V0.sol:NFT721V0",
        "label": "_owners",
        "offset": 0,
        "slot": "4",
        "type": "t_mapping(t_uint256,t_address)"
      },
      {
        "astId": 9843,
        "contract": "contracts/NFT721V0.sol:NFT721V0",
        "label": "_balances",
        "offset": 0,
        "slot": "5",
        "type": "t_mapping(t_address,t_uint256)"
      },
      {
        "astId": 9847,
        "contract": "contracts/NFT721V0.sol:NFT721V0",
        "label": "_tokenApprovals",
        "offset": 0,
        "slot": "6",
        "type": "t_mapping(t_uint256,t_address)"
      },
      {
        "astId": 9853,
        "contract": "contracts/NFT721V0.sol:NFT721V0",
        "label": "_operatorApprovals",
        "offset": 0,
        "slot": "7",
        "type": "t_mapping(t_address,t_mapping(t_address,t_bool))"
      },
      {
        "astId": 10710,
        "contract": "contracts/NFT721V0.sol:NFT721V0",
        "label": "_owner",
        "offset": 0,
        "slot": "8",
        "type": "t_address"
      },
      {
        "astId": 6885,
        "contract": "contracts/NFT721V0.sol:NFT721V0",
        "label": "_DOMAIN_SEPARATOR",
        "offset": 0,
        "slot": "9",
        "type": "t_bytes32"
      },
      {
        "astId": 6887,
        "contract": "contracts/NFT721V0.sol:NFT721V0",
        "label": "_CACHED_CHAIN_ID",
        "offset": 0,
        "slot": "10",
        "type": "t_uint256"
      },
      {
        "astId": 6889,
        "contract": "contracts/NFT721V0.sol:NFT721V0",
        "label": "_factory",
        "offset": 0,
        "slot": "11",
        "type": "t_address"
      },
      {
        "astId": 6891,
        "contract": "contracts/NFT721V0.sol:NFT721V0",
        "label": "__baseURI",
        "offset": 0,
        "slot": "12",
        "type": "t_string_storage"
      },
      {
        "astId": 6895,
        "contract": "contracts/NFT721V0.sol:NFT721V0",
        "label": "_uris",
        "offset": 0,
        "slot": "13",
        "type": "t_mapping(t_uint256,t_string_storage)"
      },
      {
        "astId": 6900,
        "contract": "contracts/NFT721V0.sol:NFT721V0",
        "label": "nonces",
        "offset": 0,
        "slot": "14",
        "type": "t_mapping(t_uint256,t_uint256)"
      },
      {
        "astId": 6905,
        "contract": "contracts/NFT721V0.sol:NFT721V0",
        "label": "noncesForAll",
        "offset": 0,
        "slot": "15",
        "type": "t_mapping(t_address,t_uint256)"
      },
      {
        "astId": 10890,
        "contract": "contracts/NFT721V0.sol:NFT721V0",
        "label": "_status",
        "offset": 0,
        "slot": "16",
        "type": "t_uint256"
      },
      {
        "astId": 5441,
        "contract": "contracts/NFT721V0.sol:NFT721V0",
        "label": "bestBid",
        "offset": 0,
        "slot": "17",
        "type": "t_mapping(t_bytes32,t_struct(BestBid)5435_storage)"
      },
      {
        "astId": 5446,
        "contract": "contracts/NFT721V0.sol:NFT721V0",
        "label": "isCancelled",
        "offset": 0,
        "slot": "18",
        "type": "t_mapping(t_bytes32,t_bool)"
      },
      {
        "astId": 5451,
        "contract": "contracts/NFT721V0.sol:NFT721V0",
        "label": "amountFilled",
        "offset": 0,
        "slot": "19",
        "type": "t_mapping(t_bytes32,t_uint256)"
      },
      {
        "astId": 3305,
        "contract": "contracts/NFT721V0.sol:NFT721V0",
        "label": "_MAX_ROYALTY_FEE",
        "offset": 0,
        "slot": "20",
        "type": "t_uint8"
      },
      {
        "astId": 3307,
        "contract": "contracts/NFT721V0.sol:NFT721V0",
        "label": "_royaltyFeeRecipient",
        "offset": 1,
        "slot": "20",
        "type": "t_address"
      },
      {
        "astId": 3309,
        "contract": "contracts/NFT721V0.sol:NFT721V0",
        "label": "_royaltyFee",
        "offset": 21,
        "slot": "20",
        "type": "t_uint8"
      }
    ],
    "types": {
      "t_address": {
        "encoding": "inplace",
        "label": "address",
        "numberOfBytes": "20"
      },
      "t_bool": {
        "encoding": "inplace",
        "label": "bool",
        "numberOfBytes": "1"
      },
      "t_bytes32": {
        "encoding": "inplace",
        "label": "bytes32",
        "numberOfBytes": "32"
      },
      "t_mapping(t_address,t_bool)": {
        "encoding": "mapping",
        "key": "t_address",
        "label": "mapping(address => bool)",
        "numberOfBytes": "32",
        "value": "t_bool"
      },
      "t_mapping(t_address,t_mapping(t_address,t_bool))": {
        "encoding": "mapping",
        "key": "t_address",
        "label": "mapping(address => mapping(address => bool))",
        "numberOfBytes": "32",
        "value": "t_mapping(t_address,t_bool)"
      },
      "t_mapping(t_address,t_uint256)": {
        "encoding": "mapping",
        "key": "t_address",
        "label": "mapping(address => uint256)",
        "numberOfBytes": "32",
        "value": "t_uint256"
      },
      "t_mapping(t_bytes32,t_bool)": {
        "encoding": "mapping",
        "key": "t_bytes32",
        "label": "mapping(bytes32 => bool)",
        "numberOfBytes": "32",
        "value": "t_bool"
      },
      "t_mapping(t_bytes32,t_struct(BestBid)5435_storage)": {
        "encoding": "mapping",
        "key": "t_bytes32",
        "label": "mapping(bytes32 => struct BaseExchange.BestBid)",
        "numberOfBytes": "32",
        "value": "t_struct(BestBid)5435_storage"
      },
      "t_mapping(t_bytes32,t_uint256)": {
        "encoding": "mapping",
        "key": "t_bytes32",
        "label": "mapping(bytes32 => uint256)",
        "numberOfBytes": "32",
        "value": "t_uint256"
      },
      "t_mapping(t_uint256,t_address)": {
        "encoding": "mapping",
        "key": "t_uint256",
        "label": "mapping(uint256 => address)",
        "numberOfBytes": "32",
        "value": "t_address"
      },
      "t_mapping(t_uint256,t_string_storage)": {
        "encoding": "mapping",
        "key": "t_uint256",
        "label": "mapping(uint256 => string)",
        "numberOfBytes": "32",
        "value": "t_string_storage"
      },
      "t_mapping(t_uint256,t_uint256)": {
        "encoding": "mapping",
        "key": "t_uint256",
        "label": "mapping(uint256 => uint256)",
        "numberOfBytes": "32",
        "value": "t_uint256"
      },
      "t_string_storage": {
        "encoding": "bytes",
        "label": "string",
        "numberOfBytes": "32"
      },
      "t_struct(BestBid)5435_storage": {
        "encoding": "inplace",
        "label": "struct BaseExchange.BestBid",
        "members": [
          {
            "astId": 5424,
            "contract": "contracts/NFT721V0.sol:NFT721V0",
            "label": "bidder",
            "offset": 0,
            "slot": "0",
            "type": "t_address"
          },
          {
            "astId": 5426,
            "contract": "contracts/NFT721V0.sol:NFT721V0",
            "label": "amount",
            "offset": 0,
            "slot": "1",
            "type": "t_uint256"
          },
          {
            "astId": 5428,
            "contract": "contracts/NFT721V0.sol:NFT721V0",
            "label": "price",
            "offset": 0,
            "slot": "2",
            "type": "t_uint256"
          },
          {
            "astId": 5430,
            "contract": "contracts/NFT721V0.sol:NFT721V0",
            "label": "recipient",
            "offset": 0,
            "slot": "3",
            "type": "t_address"
          },
          {
            "astId": 5432,
            "contract": "contracts/NFT721V0.sol:NFT721V0",
            "label": "referrer",
            "offset": 0,
            "slot": "4",
            "type": "t_address"
          },
          {
            "astId": 5434,
            "contract": "contracts/NFT721V0.sol:NFT721V0",
            "label": "blockNumber",
            "offset": 0,
            "slot": "5",
            "type": "t_uint256"
          }
        ],
        "numberOfBytes": "192"
      },
      "t_uint256": {
        "encoding": "inplace",
        "label": "uint256",
        "numberOfBytes": "32"
      },
      "t_uint8": {
        "encoding": "inplace",
        "label": "uint8",
        "numberOfBytes": "1"
      }
    }
  }
}