{
  "address": "0x0d4DDC0Adf04E06dCb477EC44B90FdD60f038879",
  "abi": [
    {
      "anonymous": false,
      "inputs": [
        {
          "indexed": true,
          "internalType": "address",
          "name": "owner",
          "type": "address"
        },
        {
          "indexed": true,
          "internalType": "address",
          "name": "approved",
          "type": "address"
        },
        {
          "indexed": true,
          "internalType": "uint256",
          "name": "tokenId",
          "type": "uint256"
        }
      ],
      "name": "Approval",
      "type": "event"
    },
    {
      "anonymous": false,
      "inputs": [
        {
          "indexed": true,
          "internalType": "address",
          "name": "owner",
          "type": "address"
        },
        {
          "indexed": true,
          "internalType": "address",
          "name": "operator",
          "type": "address"
        },
        {
          "indexed": false,
          "internalType": "bool",
          "name": "approved",
          "type": "bool"
        }
      ],
      "name": "ApprovalForAll",
      "type": "event"
    },
    {
      "anonymous": false,
      "inputs": [
        {
          "indexed": true,
          "internalType": "bytes32",
          "name": "hash",
          "type": "bytes32"
        },
        {
          "indexed": false,
          "internalType": "address",
          "name": "bidder",
          "type": "address"
        },
        {
          "indexed": false,
          "internalType": "uint256",
          "name": "amount",
          "type": "uint256"
        },
        {
          "indexed": false,
          "internalType": "uint256",
          "name": "price",
          "type": "uint256"
        },
        {
          "indexed": false,
          "internalType": "address",
          "name": "recipient",
          "type": "address"
        },
        {
          "indexed": false,
          "internalType": "address",
          "name": "referrer",
          "type": "address"
        }
      ],
      "name": "Bid",
      "type": "event"
    },
    {
      "anonymous": false,
      "inputs": [
        {
          "indexed": true,
          "internalType": "uint256",
          "name": "tokenId",
          "type": "uint256"
        },
        {
          "indexed": true,
          "internalType": "uint256",
          "name": "label",
          "type": "uint256"
        },
        {
          "indexed": false,
          "internalType": "bytes32",
          "name": "data",
          "type": "bytes32"
        }
      ],
      "name": "Burn",
      "type": "event"
    },
    {
      "anonymous": false,
      "inputs": [
        {
          "indexed": true,
          "internalType": "bytes32",
          "name": "hash",
          "type": "bytes32"
        }
      ],
      "name": "Cancel",
      "type": "event"
    },
    {
      "anonymous": false,
      "inputs": [
        {
          "indexed": true,
          "internalType": "bytes32",
          "name": "hash",
          "type": "bytes32"
        },
        {
          "indexed": false,
          "internalType": "address",
          "name": "bidder",
          "type": "address"
        },
        {
          "indexed": false,
          "internalType": "uint256",
          "name": "amount",
          "type": "uint256"
        },
        {
          "indexed": false,
          "internalType": "uint256",
          "name": "price",
          "type": "uint256"
        },
        {
          "indexed": false,
          "internalType": "address",
          "name": "recipient",
          "type": "address"
        },
        {
          "indexed": false,
          "internalType": "address",
          "name": "referrer",
          "type": "address"
        }
      ],
      "name": "Claim",
      "type": "event"
    },
    {
      "anonymous": false,
      "inputs": [
        {
          "indexed": true,
          "internalType": "address",
          "name": "previousOwner",
          "type": "address"
        },
        {
          "indexed": true,
          "internalType": "address",
          "name": "newOwner",
          "type": "address"
        }
      ],
      "name": "OwnershipTransferred",
      "type": "event"
    },
    {
      "anonymous": false,
      "inputs": [
        {
          "indexed": false,
          "internalType": "uint256",
          "name": "toTokenId",
          "type": "uint256"
        }
      ],
      "name": "ParkTokenIds",
      "type": "event"
    },
    {
      "anonymous": false,
      "inputs": [
        {
          "indexed": false,
          "internalType": "uint8",
          "name": "fee",
          "type": "uint8"
        }
      ],
      "name": "SetRoyaltyFee",
      "type": "event"
    },
    {
      "anonymous": false,
      "inputs": [
        {
          "indexed": false,
          "internalType": "address",
          "name": "recipient",
          "type": "address"
        }
      ],
      "name": "SetRoyaltyFeeRecipient",
      "type": "event"
    },
    {
      "anonymous": false,
      "inputs": [
        {
          "indexed": true,
          "internalType": "address",
          "name": "from",
          "type": "address"
        },
        {
          "indexed": true,
          "internalType": "address",
          "name": "to",
          "type": "address"
        },
        {
          "indexed": true,
          "internalType": "uint256",
          "name": "tokenId",
          "type": "uint256"
        }
      ],
      "name": "Transfer",
      "type": "event"
    },
    {
      "inputs": [],
      "name": "DOMAIN_SEPARATOR",
      "outputs": [
        {
          "internalType": "bytes32",
          "name": "",
          "type": "bytes32"
        }
      ],
      "stateMutability": "view",
      "type": "function"
    },
    {
      "inputs": [],
      "name": "PERMIT_ALL_TYPEHASH",
      "outputs": [
        {
          "internalType": "bytes32",
          "name": "",
          "type": "bytes32"
        }
      ],
      "stateMutability": "view",
      "type": "function"
    },
    {
      "inputs": [],
      "name": "PERMIT_TYPEHASH",
      "outputs": [
        {
          "internalType": "bytes32",
          "name": "",
          "type": "bytes32"
        }
      ],
      "stateMutability": "view",
      "type": "function"
    },
    {
      "inputs": [
        {
          "internalType": "bytes32",
          "name": "",
          "type": "bytes32"
        }
      ],
      "name": "amountFilled",
      "outputs": [
        {
          "internalType": "uint256",
          "name": "",
          "type": "uint256"
        }
      ],
      "stateMutability": "view",
      "type": "function"
    },
    {
      "inputs": [
        {
          "internalType": "address",
          "name": "to",
          "type": "address"
        },
        {
          "internalType": "uint256",
          "name": "tokenId",
          "type": "uint256"
        }
      ],
      "name": "approve",
      "outputs": [],
      "stateMutability": "nonpayable",
      "type": "function"
    },
    {
      "inputs": [
        {
          "internalType": "address",
          "name": "owner",
          "type": "address"
        }
      ],
      "name": "balanceOf",
      "outputs": [
        {
          "internalType": "uint256",
          "name": "",
          "type": "uint256"
        }
      ],
      "stateMutability": "view",
      "type": "function"
    },
    {
      "inputs": [
        {
          "internalType": "bytes32",
          "name": "",
          "type": "bytes32"
        }
      ],
      "name": "bestBid",
      "outputs": [
        {
          "internalType": "address",
          "name": "bidder",
          "type": "address"
        },
        {
          "internalType": "uint256",
          "name": "amount",
          "type": "uint256"
        },
        {
          "internalType": "uint256",
          "name": "price",
          "type": "uint256"
        },
        {
          "internalType": "address",
          "name": "recipient",
          "type": "address"
        },
        {
          "internalType": "address",
          "name": "referrer",
          "type": "address"
        },
        {
          "internalType": "uint256",
          "name": "blockNumber",
          "type": "uint256"
        }
      ],
      "stateMutability": "view",
      "type": "function"
    },
    {
      "inputs": [
        {
          "components": [
            {
              "internalType": "address",
              "name": "signer",
              "type": "address"
            },
            {
              "internalType": "address",
              "name": "token",
              "type": "address"
            },
            {
              "internalType": "uint256",
              "name": "tokenId",
              "type": "uint256"
            },
            {
              "internalType": "uint256",
              "name": "amount",
              "type": "uint256"
            },
            {
              "internalType": "address",
              "name": "strategy",
              "type": "address"
            },
            {
              "internalType": "address",
              "name": "currency",
              "type": "address"
            },
            {
              "internalType": "address",
              "name": "recipient",
              "type": "address"
            },
            {
              "internalType": "uint256",
              "name": "deadline",
              "type": "uint256"
            },
            {
              "internalType": "bytes",
              "name": "params",
              "type": "bytes"
            },
            {
              "internalType": "uint8",
              "name": "v",
              "type": "uint8"
            },
            {
              "internalType": "bytes32",
              "name": "r",
              "type": "bytes32"
            },
            {
              "internalType": "bytes32",
              "name": "s",
              "type": "bytes32"
            }
          ],
          "internalType": "struct Orders.Ask",
          "name": "askOrder",
          "type": "tuple"
        },
        {
          "internalType": "uint256",
          "name": "bidAmount",
          "type": "uint256"
        },
        {
          "internalType": "uint256",
          "name": "bidPrice",
          "type": "uint256"
        },
        {
          "internalType": "address",
          "name": "bidRecipient",
          "type": "address"
        },
        {
          "internalType": "address",
          "name": "bidReferrer",
          "type": "address"
        }
      ],
      "name": "bid",
      "outputs": [
        {
          "internalType": "bool",
          "name": "executed",
          "type": "bool"
        }
      ],
      "stateMutability": "nonpayable",
      "type": "function"
    },
    {
      "inputs": [
        {
          "components": [
            {
              "internalType": "address",
              "name": "signer",
              "type": "address"
            },
            {
              "internalType": "address",
              "name": "token",
              "type": "address"
            },
            {
              "internalType": "uint256",
              "name": "tokenId",
              "type": "uint256"
            },
            {
              "internalType": "uint256",
              "name": "amount",
              "type": "uint256"
            },
            {
              "internalType": "address",
              "name": "strategy",
              "type": "address"
            },
            {
              "internalType": "address",
              "name": "currency",
              "type": "address"
            },
            {
              "internalType": "address",
              "name": "recipient",
              "type": "address"
            },
            {
              "internalType": "uint256",
              "name": "deadline",
              "type": "uint256"
            },
            {
              "internalType": "bytes",
              "name": "params",
              "type": "bytes"
            },
            {
              "internalType": "uint8",
              "name": "v",
              "type": "uint8"
            },
            {
              "internalType": "bytes32",
              "name": "r",
              "type": "bytes32"
            },
            {
              "internalType": "bytes32",
              "name": "s",
              "type": "bytes32"
            }
          ],
          "internalType": "struct Orders.Ask",
          "name": "askOrder",
          "type": "tuple"
        },
        {
          "components": [
            {
              "internalType": "bytes32",
              "name": "askHash",
              "type": "bytes32"
            },
            {
              "internalType": "address",
              "name": "signer",
              "type": "address"
            },
            {
              "internalType": "uint256",
              "name": "amount",
              "type": "uint256"
            },
            {
              "internalType": "uint256",
              "name": "price",
              "type": "uint256"
            },
            {
              "internalType": "address",
              "name": "recipient",
              "type": "address"
            },
            {
              "internalType": "address",
              "name": "referrer",
              "type": "address"
            },
            {
              "internalType": "uint8",
              "name": "v",
              "type": "uint8"
            },
            {
              "internalType": "bytes32",
              "name": "r",
              "type": "bytes32"
            },
            {
              "internalType": "bytes32",
              "name": "s",
              "type": "bytes32"
            }
          ],
          "internalType": "struct Orders.Bid",
          "name": "bidOrder",
          "type": "tuple"
        }
      ],
      "name": "bid",
      "outputs": [
        {
          "internalType": "bool",
          "name": "executed",
          "type": "bool"
        }
      ],
      "stateMutability": "nonpayable",
      "type": "function"
    },
    {
      "inputs": [
        {
          "internalType": "uint256",
          "name": "tokenId",
          "type": "uint256"
        },
        {
          "internalType": "uint256",
          "name": "label",
          "type": "uint256"
        },
        {
          "internalType": "bytes32",
          "name": "data",
          "type": "bytes32"
        }
      ],
      "name": "burn",
      "outputs": [],
      "stateMutability": "nonpayable",
      "type": "function"
    },
    {
      "inputs": [
        {
          "internalType": "uint256[]",
          "name": "tokenIds",
          "type": "uint256[]"
        }
      ],
      "name": "burnBatch",
      "outputs": [],
      "stateMutability": "nonpayable",
      "type": "function"
    },
    {
      "inputs": [
        {
          "internalType": "address",
          "name": "token",
          "type": "address"
        }
      ],
      "name": "canTrade",
      "outputs": [
        {
          "internalType": "bool",
          "name": "",
          "type": "bool"
        }
      ],
      "stateMutability": "view",
      "type": "function"
    },
    {
      "inputs": [
        {
          "components": [
            {
              "internalType": "address",
              "name": "signer",
              "type": "address"
            },
            {
              "internalType": "address",
              "name": "token",
              "type": "address"
            },
            {
              "internalType": "uint256",
              "name": "tokenId",
              "type": "uint256"
            },
            {
              "internalType": "uint256",
              "name": "amount",
              "type": "uint256"
            },
            {
              "internalType": "address",
              "name": "strategy",
              "type": "address"
            },
            {
              "internalType": "address",
              "name": "currency",
              "type": "address"
            },
            {
              "internalType": "address",
              "name": "recipient",
              "type": "address"
            },
            {
              "internalType": "uint256",
              "name": "deadline",
              "type": "uint256"
            },
            {
              "internalType": "bytes",
              "name": "params",
              "type": "bytes"
            },
            {
              "internalType": "uint8",
              "name": "v",
              "type": "uint8"
            },
            {
              "internalType": "bytes32",
              "name": "r",
              "type": "bytes32"
            },
            {
              "internalType": "bytes32",
              "name": "s",
              "type": "bytes32"
            }
          ],
          "internalType": "struct Orders.Ask",
          "name": "order",
          "type": "tuple"
        }
      ],
      "name": "cancel",
      "outputs": [],
      "stateMutability": "nonpayable",
      "type": "function"
    },
    {
      "inputs": [
        {
          "components": [
            {
              "internalType": "address",
              "name": "signer",
              "type": "address"
            },
            {
              "internalType": "address",
              "name": "token",
              "type": "address"
            },
            {
              "internalType": "uint256",
              "name": "tokenId",
              "type": "uint256"
            },
            {
              "internalType": "uint256",
              "name": "amount",
              "type": "uint256"
            },
            {
              "internalType": "address",
              "name": "strategy",
              "type": "address"
            },
            {
              "internalType": "address",
              "name": "currency",
              "type": "address"
            },
            {
              "internalType": "address",
              "name": "recipient",
              "type": "address"
            },
            {
              "internalType": "uint256",
              "name": "deadline",
              "type": "uint256"
            },
            {
              "internalType": "bytes",
              "name": "params",
              "type": "bytes"
            },
            {
              "internalType": "uint8",
              "name": "v",
              "type": "uint8"
            },
            {
              "internalType": "bytes32",
              "name": "r",
              "type": "bytes32"
            },
            {
              "internalType": "bytes32",
              "name": "s",
              "type": "bytes32"
            }
          ],
          "internalType": "struct Orders.Ask",
          "name": "askOrder",
          "type": "tuple"
        }
      ],
      "name": "claim",
      "outputs": [],
      "stateMutability": "nonpayable",
      "type": "function"
    },
    {
      "inputs": [],
      "name": "factory",
      "outputs": [
        {
          "internalType": "address",
          "name": "",
          "type": "address"
        }
      ],
      "stateMutability": "view",
      "type": "function"
    },
    {
      "inputs": [
        {
          "internalType": "uint256",
          "name": "tokenId",
          "type": "uint256"
        }
      ],
      "name": "getApproved",
      "outputs": [
        {
          "internalType": "address",
          "name": "",
          "type": "address"
        }
      ],
      "stateMutability": "view",
      "type": "function"
    },
    {
      "inputs": [
        {
          "internalType": "string",
          "name": "_name",
          "type": "string"
        },
        {
          "internalType": "string",
          "name": "_symbol",
          "type": "string"
        },
        {
          "internalType": "address",
          "name": "_owner",
          "type": "address"
        }
      ],
      "name": "initialize",
      "outputs": [],
      "stateMutability": "nonpayable",
      "type": "function"
    },
    {
      "inputs": [
        {
          "internalType": "address",
          "name": "_owner",
          "type": "address"
        },
        {
          "internalType": "string",
          "name": "_name",
          "type": "string"
        },
        {
          "internalType": "string",
          "name": "_symbol",
          "type": "string"
        },
        {
          "internalType": "uint256[]",
          "name": "tokenIds",
          "type": "uint256[]"
        },
        {
          "internalType": "address",
          "name": "royaltyFeeRecipient",
          "type": "address"
        },
        {
          "internalType": "uint8",
          "name": "royaltyFee",
          "type": "uint8"
        }
      ],
      "name": "initialize",
      "outputs": [],
      "stateMutability": "nonpayable",
      "type": "function"
    },
    {
      "inputs": [
        {
          "internalType": "address",
          "name": "_owner",
          "type": "address"
        },
        {
          "internalType": "string",
          "name": "_name",
          "type": "string"
        },
        {
          "internalType": "string",
          "name": "_symbol",
          "type": "string"
        },
        {
          "internalType": "uint256",
          "name": "toTokenId",
          "type": "uint256"
        },
        {
          "internalType": "address",
          "name": "royaltyFeeRecipient",
          "type": "address"
        },
        {
          "internalType": "uint8",
          "name": "royaltyFee",
          "type": "uint8"
        }
      ],
      "name": "initialize",
      "outputs": [],
      "stateMutability": "nonpayable",
      "type": "function"
    },
    {
      "inputs": [
        {
          "internalType": "address",
          "name": "owner",
          "type": "address"
        },
        {
          "internalType": "address",
          "name": "operator",
          "type": "address"
        }
      ],
      "name": "isApprovedForAll",
      "outputs": [
        {
          "internalType": "bool",
          "name": "",
          "type": "bool"
        }
      ],
      "stateMutability": "view",
      "type": "function"
    },
    {
      "inputs": [
        {
          "internalType": "bytes32",
          "name": "",
          "type": "bytes32"
        }
      ],
      "name": "isCancelledOrClaimed",
      "outputs": [
        {
          "internalType": "bool",
          "name": "",
          "type": "bool"
        }
      ],
      "stateMutability": "view",
      "type": "function"
    },
    {
      "inputs": [
        {
          "internalType": "address",
          "name": "to",
          "type": "address"
        },
        {
          "internalType": "uint256",
          "name": "tokenId",
          "type": "uint256"
        },
        {
          "internalType": "bytes",
          "name": "data",
          "type": "bytes"
        }
      ],
      "name": "mint",
      "outputs": [],
      "stateMutability": "nonpayable",
      "type": "function"
    },
    {
      "inputs": [
        {
          "internalType": "address",
          "name": "to",
          "type": "address"
        },
        {
          "internalType": "uint256[]",
          "name": "tokenIds",
          "type": "uint256[]"
        },
        {
          "internalType": "bytes",
          "name": "data",
          "type": "bytes"
        }
      ],
      "name": "mintBatch",
      "outputs": [],
      "stateMutability": "nonpayable",
      "type": "function"
    },
    {
      "inputs": [],
      "name": "name",
      "outputs": [
        {
          "internalType": "string",
          "name": "",
          "type": "string"
        }
      ],
      "stateMutability": "view",
      "type": "function"
    },
    {
      "inputs": [
        {
          "internalType": "uint256",
          "name": "",
          "type": "uint256"
        }
      ],
      "name": "nonces",
      "outputs": [
        {
          "internalType": "uint256",
          "name": "",
          "type": "uint256"
        }
      ],
      "stateMutability": "view",
      "type": "function"
    },
    {
      "inputs": [
        {
          "internalType": "address",
          "name": "",
          "type": "address"
        }
      ],
      "name": "noncesForAll",
      "outputs": [
        {
          "internalType": "uint256",
          "name": "",
          "type": "uint256"
        }
      ],
      "stateMutability": "view",
      "type": "function"
    },
    {
      "inputs": [],
      "name": "owner",
      "outputs": [
        {
          "internalType": "address",
          "name": "",
          "type": "address"
        }
      ],
      "stateMutability": "view",
      "type": "function"
    },
    {
      "inputs": [
        {
          "internalType": "uint256",
          "name": "tokenId",
          "type": "uint256"
        }
      ],
      "name": "ownerOf",
      "outputs": [
        {
          "internalType": "address",
          "name": "",
          "type": "address"
        }
      ],
      "stateMutability": "view",
      "type": "function"
    },
    {
      "inputs": [
        {
          "internalType": "uint256",
          "name": "toTokenId",
          "type": "uint256"
        }
      ],
      "name": "parkTokenIds",
      "outputs": [],
      "stateMutability": "nonpayable",
      "type": "function"
    },
    {
      "inputs": [
        {
          "internalType": "uint256",
          "name": "tokenId",
          "type": "uint256"
        }
      ],
      "name": "parked",
      "outputs": [
        {
          "internalType": "bool",
          "name": "",
          "type": "bool"
        }
      ],
      "stateMutability": "view",
      "type": "function"
    },
    {
      "inputs": [
        {
          "internalType": "address",
          "name": "spender",
          "type": "address"
        },
        {
          "internalType": "uint256",
          "name": "tokenId",
          "type": "uint256"
        },
        {
          "internalType": "uint256",
          "name": "deadline",
          "type": "uint256"
        },
        {
          "internalType": "uint8",
          "name": "v",
          "type": "uint8"
        },
        {
          "internalType": "bytes32",
          "name": "r",
          "type": "bytes32"
        },
        {
          "internalType": "bytes32",
          "name": "s",
          "type": "bytes32"
        }
      ],
      "name": "permit",
      "outputs": [],
      "stateMutability": "nonpayable",
      "type": "function"
    },
    {
      "inputs": [
        {
          "internalType": "address",
          "name": "owner",
          "type": "address"
        },
        {
          "internalType": "address",
          "name": "spender",
          "type": "address"
        },
        {
          "internalType": "uint256",
          "name": "deadline",
          "type": "uint256"
        },
        {
          "internalType": "uint8",
          "name": "v",
          "type": "uint8"
        },
        {
          "internalType": "bytes32",
          "name": "r",
          "type": "bytes32"
        },
        {
          "internalType": "bytes32",
          "name": "s",
          "type": "bytes32"
        }
      ],
      "name": "permitAll",
      "outputs": [],
      "stateMutability": "nonpayable",
      "type": "function"
    },
    {
      "inputs": [],
      "name": "renounceOwnership",
      "outputs": [],
      "stateMutability": "nonpayable",
      "type": "function"
    },
    {
      "inputs": [],
      "name": "royaltyFeeInfo",
      "outputs": [
        {
          "internalType": "address",
          "name": "recipient",
          "type": "address"
        },
        {
          "internalType": "uint8",
          "name": "permil",
          "type": "uint8"
        }
      ],
      "stateMutability": "view",
      "type": "function"
    },
    {
      "inputs": [
        {
          "internalType": "uint256",
          "name": "",
          "type": "uint256"
        },
        {
          "internalType": "uint256",
          "name": "_salePrice",
          "type": "uint256"
        }
      ],
      "name": "royaltyInfo",
      "outputs": [
        {
          "internalType": "address",
          "name": "",
          "type": "address"
        },
        {
          "internalType": "uint256",
          "name": "",
          "type": "uint256"
        }
      ],
      "stateMutability": "view",
      "type": "function"
    },
    {
      "inputs": [
        {
          "internalType": "address",
          "name": "from",
          "type": "address"
        },
        {
          "internalType": "address",
          "name": "to",
          "type": "address"
        },
        {
          "internalType": "uint256",
          "name": "tokenId",
          "type": "uint256"
        }
      ],
      "name": "safeTransferFrom",
      "outputs": [],
      "stateMutability": "nonpayable",
      "type": "function"
    },
    {
      "inputs": [
        {
          "internalType": "address",
          "name": "from",
          "type": "address"
        },
        {
          "internalType": "address",
          "name": "to",
          "type": "address"
        },
        {
          "internalType": "uint256",
          "name": "tokenId",
          "type": "uint256"
        },
        {
          "internalType": "bytes",
          "name": "_data",
          "type": "bytes"
        }
      ],
      "name": "safeTransferFrom",
      "outputs": [],
      "stateMutability": "nonpayable",
      "type": "function"
    },
    {
      "inputs": [
        {
          "internalType": "address",
          "name": "operator",
          "type": "address"
        },
        {
          "internalType": "bool",
          "name": "approved",
          "type": "bool"
        }
      ],
      "name": "setApprovalForAll",
      "outputs": [],
      "stateMutability": "nonpayable",
      "type": "function"
    },
    {
      "inputs": [
        {
          "internalType": "string",
          "name": "uri",
          "type": "string"
        }
      ],
      "name": "setBaseURI",
      "outputs": [],
      "stateMutability": "nonpayable",
      "type": "function"
    },
    {
      "inputs": [
        {
          "internalType": "uint8",
          "name": "royaltyFee",
          "type": "uint8"
        }
      ],
      "name": "setRoyaltyFee",
      "outputs": [],
      "stateMutability": "nonpayable",
      "type": "function"
    },
    {
      "inputs": [
        {
          "internalType": "address",
          "name": "royaltyFeeRecipient",
          "type": "address"
        }
      ],
      "name": "setRoyaltyFeeRecipient",
      "outputs": [],
      "stateMutability": "nonpayable",
      "type": "function"
    },
    {
      "inputs": [
        {
          "internalType": "uint256",
          "name": "id",
          "type": "uint256"
        },
        {
          "internalType": "string",
          "name": "newURI",
          "type": "string"
        }
      ],
      "name": "setTokenURI",
      "outputs": [],
      "stateMutability": "nonpayable",
      "type": "function"
    },
    {
      "inputs": [
        {
          "internalType": "bytes4",
          "name": "interfaceId",
          "type": "bytes4"
        }
      ],
      "name": "supportsInterface",
      "outputs": [
        {
          "internalType": "bool",
          "name": "",
          "type": "bool"
        }
      ],
      "stateMutability": "view",
      "type": "function"
    },
    {
      "inputs": [],
      "name": "symbol",
      "outputs": [
        {
          "internalType": "string",
          "name": "",
          "type": "string"
        }
      ],
      "stateMutability": "view",
      "type": "function"
    },
    {
      "inputs": [
        {
          "internalType": "uint256",
          "name": "tokenId",
          "type": "uint256"
        }
      ],
      "name": "tokenURI",
      "outputs": [
        {
          "internalType": "string",
          "name": "",
          "type": "string"
        }
      ],
      "stateMutability": "view",
      "type": "function"
    },
    {
      "inputs": [
        {
          "internalType": "address",
          "name": "from",
          "type": "address"
        },
        {
          "internalType": "address",
          "name": "to",
          "type": "address"
        },
        {
          "internalType": "uint256",
          "name": "tokenId",
          "type": "uint256"
        }
      ],
      "name": "transferFrom",
      "outputs": [],
      "stateMutability": "nonpayable",
      "type": "function"
    },
    {
      "inputs": [
        {
          "internalType": "address",
          "name": "newOwner",
          "type": "address"
        }
      ],
      "name": "transferOwnership",
      "outputs": [],
      "stateMutability": "nonpayable",
      "type": "function"
    }
  ],
  "transactionHash": "0x250f45f33dd5ecacb8288880d53864821270c2d8bf7eb133383681cfc2df894a",
  "args": [],
  "solcInputHash": "09f73e090f42c1ed7214a5f8ac964def",
  "bytecode": "0x608060405234801561001057600080fd5b506151e1806100206000396000f3fe608060405234801561001057600080fd5b50600436106102945760003560e01c806370a0823111610167578063aba07847116100ce578063c975e37411610087578063c975e374146106d1578063def27164146106e4578063e331a715146106f7578063e4623c1b1461071a578063e985e9c51461072d578063f2fde38b1461074057610294565b8063aba078471461064d578063ac9a252114610660578063b4e13c8d14610673578063b88d4fde1461069a578063c45a0155146106ad578063c87b56dd146106be57610294565b80639443792c116101205780639443792c146105e657806394d008ef146105f957806395d89b411461060c578063994e7296146106145780639ecbcda214610627578063a22cb4651461063a57610294565b806370a0823114610567578063715018a61461057a57806375e6590f146105825780637ac2ff7b146105a25780638da5cb5b146105b5578063904dfb8e146105c657610294565b80632a55205a1161020b578063559f05dc116101c4578063559f05dc1461046a57806355f804b3146104895780635771f9971461049c5780635f7ef2fa1461052e5780636352211e146105415780636ef8e02d1461055457610294565b80632a55205a146103b657806330adf81f146103e85780633644e5151461040f57806342842e0e1461041757806344f09d111461042a57806350bf994a1461043d57610294565b80630935d6631161025d5780630935d66314610329578063095ea7b31461033c578063141a468c1461034f578063162094c41461037d578063228624821461039057806323b872dd146103a357610294565b8062893bf81461029957806301ffc9a7146102ae57806306fdde03146102d6578063077f224a146102eb578063081812fc146102fe575b600080fd5b6102ac6102a7366004614a87565b610753565b005b6102c16102bc366004614940565b610830565b60405190151581526020015b60405180910390f35b6102de61085d565b6040516102cd9190614e51565b6102ac6102f9366004614a13565b6108ef565b61031161030c366004614928565b610a15565b6040516001600160a01b0390911681526020016102cd565b6102ac610337366004614a87565b610a65565b6102ac61034a3660046147f4565b610e02565b61036f61035d366004614928565b600e6020526000908152604090205481565b6040519081526020016102cd565b6102ac61038b366004614c18565b610eac565b6102ac61039e366004614615565b610ef5565b6102ac6103b1366004614508565b610f93565b6103c96103c4366004614c5c565b61100e565b604080516001600160a01b0390931683526020830191909152016102cd565b61036f7f49ecf333e5b8c95c40fdafc95c1ad136e8914a8fb55e9dc8bb01eaa83a2df9ad81565b61036f611052565b6102ac610425366004614508565b611061565b6102c1610438366004614b8b565b61107c565b6014546040805161010083046001600160a01b03168152600160a81b90920460ff166020830152016102cd565b6102c16104783660046144b4565b6001600160a01b0381163014919050565b6102ac610497366004614978565b6110df565b6104ef6104aa366004614928565b6011602052600090815260409020805460018201546002830154600384015460048501546005909501546001600160a01b039485169593949293918316929091169086565b604080516001600160a01b03978816815260208101969096528501939093529084166060840152909216608082015260a081019190915260c0016102cd565b6102ac61053c366004614ca8565b611120565b61031161054f366004614928565b611156565b6102ac6105623660046144b4565b611171565b61036f6105753660046144b4565b6111a4565b6102ac61120f565b61036f610590366004614928565b60136020526000908152604090205481565b6102ac6105b036600461486b565b611283565b6008546001600160a01b0316610311565b61036f6105d43660046144b4565b600f6020526000908152604090205481565b6102ac6105f4366004614c7d565b611438565b6102ac61060736600461481f565b6114b1565b6102de61150a565b6102c1610622366004614928565b611519565b6102ac6106353660046146b4565b611524565b6102ac610648366004614687565b6116c1565b6102ac61065b3660046145b1565b6116cc565b6102ac61066e366004614770565b611821565b61036f7fdaab21af31ece73a508939fedd476a5ee5129a5ed4bb091f3236ffb45394df6281565b6102ac6106a8366004614548565b61196a565b600b546001600160a01b0316610311565b6102de6106cc366004614928565b61199c565b6102ac6106df366004614928565b611c31565b6102c16106f2366004614ab9565b611cbf565b6102c1610705366004614928565b60126020526000908152604090205460ff1681565b6102ac6107283660046148da565b611dfd565b6102c161073b3660046144d0565b611e8a565b6102ac61074e3660046144b4565b611eb8565b80516001600160a01b031633146107855760405162461bcd60e51b815260040161077c90614e64565b60405180910390fd5b600061079082611f94565b6000818152601160205260409020549091506001600160a01b0316156107ec5760405162461bcd60e51b815260206004820152601160248201527053484f59553a204249445f45584953545360781b604482015260640161077c565b600081815260126020526040808220805460ff191660011790555182917fe8d9861dbc9c663ed3accd261bbe2fe01e0d3d9e5f51fa38523b265c7757a93a91a25050565b600063152a902d60e11b6001600160e01b031983161480610855575061085582612072565b90505b919050565b60606001805461086c906150bd565b80601f0160208091040260200160405190810160405280929190818152602001828054610898906150bd565b80156108e55780601f106108ba576101008083540402835291602001916108e5565b820191906000526020600020905b8154815290600101906020018083116108c857829003601f168201915b5050505050905090565b600054610100900460ff1680610908575060005460ff16155b6109245760405162461bcd60e51b815260040161077c90614f26565b600054610100900460ff16158015610946576000805461ffff19166101011790555b61095084846120c2565b61095982612139565b600b80546001600160a01b0319163317905546600a8190558451602080870191909120604080517f8b73c3c69bb8fe3d512ecc4cf759cc79239f7b179b0ffacaa9a75d522b39400f938101939093528201527fc89efdaa54c0f20c7adf612882df0950f5a951637e0307cdcb4c672f298b8bc6606082015260808101919091523060a082015260c00160408051601f1981840301815291905280516020909101206009558015610a0f576000805461ff00191690555b50505050565b6000818152600460205260408120546001600160a01b0316610a495760405162461bcd60e51b815260040161077c90614eef565b506000908152600660205260409020546001600160a01b031690565b60105460ff16151560011415610a8d5760405162461bcd60e51b815260040161077c90614ec5565b6010805460ff1916600117905560208101516001600160a01b03163014610af05760405162461bcd60e51b815260206004820152601760248201527653484f59553a20494e56414c49445f45584348414e474560481b604482015260640161077c565b6000610afb82611f94565b9050610b0782826121ae565b610b2f818360000151846101200151856101400151866101600151610b2a611052565b612473565b600081815260116020908152604091829020825160c08101845281546001600160a01b039081168083526001840154948301949094526002830154828601819052600384015482166060840152600480850154831660808086019190915260059095015460a085018190529489015160e08a01516101008b01519851636511995160e01b815295989190941696636511995196610bd796929491939192849284929101614f74565b60206040518083038186803b158015610bef57600080fd5b505afa158015610c03573d6000803e3d6000fd5b505050506040513d601f19601f82011682018060405250810190610c27919061490c565b610c645760405162461bcd60e51b815260206004820152600e60248201526d53484f59553a204641494c55524560901b604482015260640161077c565b60c08301516001600160a01b038116610c7b575082515b600083815260126020908152604091829020805460ff1916600117905560a086015184519185015192850151610cbf939192918591610cba9190615044565b612629565b15610dc65760208083015160008581526013909252604090912054610ce49190615018565b60008481526013602052604090205560608201516001600160a01b038116610d0a575081515b610d27856020015186600001518388604001518760200151612867565b600084815260116020908152604080832080546001600160a01b03199081168255600182018590556002820185905560038201805482169055600482018054909116905560050192909255845190850151858301516080870151935188947f0642c67a22e8657a7126bb3b9fb3f01965503642f884e4c6a1efd8ed24f46c0d94610db8949093909290918891614e06565b60405180910390a250610df2565b60405183907fe8d9861dbc9c663ed3accd261bbe2fe01e0d3d9e5f51fa38523b265c7757a93a90600090a25b50506010805460ff191690555050565b6000610e0d82611156565b9050806001600160a01b0316836001600160a01b03161415610e655760405162461bcd60e51b815260206004820152601160248201527053484f59553a20494e56414c49445f544f60781b604482015260640161077c565b336001600160a01b0382161480610e815750610e818133611e8a565b610e9d5760405162461bcd60e51b815260040161077c90614e64565b610ea783836128ae565b505050565b6008546001600160a01b03163314610ed65760405162461bcd60e51b815260040161077c90614e64565b6000828152600d602090815260409091208251610ea792840190614249565b33610f086008546001600160a01b031690565b6001600160a01b03161480610f275750600b546001600160a01b031633145b610f435760405162461bcd60e51b815260040161077c90614e64565b60005b8251811015610a0f57610f8184848381518110610f7357634e487b7160e01b600052603260045260246000fd5b60200260200101518461291c565b80610f8b816150f2565b915050610f46565b610f9d338261294f565b6110035760405162461bcd60e51b815260206004820152603160248201527f4552433732313a207472616e736665722063616c6c6572206973206e6f74206f6044820152701ddb995c881b9bdc88185c1c1c9bdd9959607a1b606482015260840161077c565b610ea78383836129d9565b601454600090819061010081046001600160a01b0316906103e89061103d90600160a81b900460ff1686615044565b6110479190615030565b915091509250929050565b600061105c612b79565b905090565b610ea78383836040518060200160405280600081525061196a565b60105460009060ff161515600114156110a75760405162461bcd60e51b815260040161077c90614ec5565b6010805460ff191660011790556110cb866110c181611f94565b3388888888612c24565b6010805460ff191690559695505050505050565b6008546001600160a01b031633146111095760405162461bcd60e51b815260040161077c90614e64565b805161111c90600c906020840190614249565b5050565b6008546001600160a01b0316331461114a5760405162461bcd60e51b815260040161077c90614e64565b611153816130c1565b50565b6000908152600460205260409020546001600160a01b031690565b6008546001600160a01b0316331461119b5760405162461bcd60e51b815260040161077c90614e64565b611153816131cb565b60006001600160a01b0382166111f35760405162461bcd60e51b815260206004820152601460248201527329a427acaa9d1024a72b20a624a22fa7aba722a960611b604482015260640161077c565b506001600160a01b031660009081526005602052604090205490565b6008546001600160a01b031633146112395760405162461bcd60e51b815260040161077c90614e64565b6008546040516000916001600160a01b0316907f8be0079c531659141344cd1fd0a4f28419497f9722a3daafe3b4186f6b6457e0908390a3600880546001600160a01b0319169055565b834211156112c45760405162461bcd60e51b815260206004820152600e60248201526d14d213d6554e881156141254915160921b604482015260640161077c565b60006112cf86611156565b90506001600160a01b0381166113205760405162461bcd60e51b815260206004820152601660248201527514d213d6554e881253959053125117d513d2d153925160521b604482015260640161077c565b806001600160a01b0316876001600160a01b031614156113795760405162461bcd60e51b815260206004820152601460248201527353484f59553a204e4f545f4e454345535341525960601b604482015260640161077c565b6000868152600e60209081526040918290205482517f49ecf333e5b8c95c40fdafc95c1ad136e8914a8fb55e9dc8bb01eaa83a2df9ad818401526001600160a01b038b1681850152606081018a9052608081019190915260a08082018990528351808303909101815260c090910190925281519101206113ff8183878787610b2a611052565b6000878152600e6020526040812080546001929061141e908490615018565b9091555061142e905088886128ae565b5050505050505050565b3361144284611156565b6001600160a01b0316146114685760405162461bcd60e51b815260040161077c90614e64565b61147183613277565b81837fb76a0da8ff1f8c54a41e3017cf87c65fc8f03e38d23eb45d4e9a1a5d7635b4c0836040516114a491815260200190565b60405180910390a3505050565b336114c46008546001600160a01b031690565b6001600160a01b031614806114e35750600b546001600160a01b031633145b6114ff5760405162461bcd60e51b815260040161077c90614e64565b610ea783838361291c565b60606002805461086c906150bd565b600061085582613338565b600054610100900460ff168061153d575060005460ff16155b6115595760405162461bcd60e51b815260040161077c90614f26565b600054610100900460ff1615801561157b576000805461ffff19166101011790555b611583613365565b61158e8686896108ef565b600b60009054906101000a90046001600160a01b03166001600160a01b03166317e1f82e6040518163ffffffff1660e01b815260040160206040518083038186803b1580156115dc57600080fd5b505afa1580156115f0573d6000803e3d6000fd5b505050506040513d601f19601f820116820180604052508101906116149190614cc4565b6014805460ff191660ff9290921691909117905560005b8451811015611677576116658886838151811061165857634e487b7160e01b600052603260045260246000fd5b60200260200101516133d8565b8061166f816150f2565b91505061162b565b50611681836131cb565b6014805460ff60a81b191660ff60a81b17905560ff8216156116a6576116a6826130c1565b80156116b8576000805461ff00191690555b50505050505050565b61111c3383836133f2565b8342111561170d5760405162461bcd60e51b815260206004820152600e60248201526d14d213d6554e881156141254915160921b604482015260640161077c565b6001600160a01b03861661175c5760405162461bcd60e51b815260206004820152601660248201527553484f59553a20494e56414c49445f4144445245535360501b604482015260640161077c565b6001600160a01b038681166000818152600f60209081526040918290205482517fdaab21af31ece73a508939fedd476a5ee5129a5ed4bb091f3236ffb45394df6281840152808401949094529389166060840152608083019390935260a08083018890528151808403909101815260c0909201905280519101206117e68188868686610b2a611052565b6001600160a01b0387166000908152600f6020526040812080546001929061180f908490615018565b909155506116b89050878760016133f2565b600054610100900460ff168061183a575060005460ff16155b6118565760405162461bcd60e51b815260040161077c90614f26565b600054610100900460ff16158015611878576000805461ffff19166101011790555b611880613365565b61188b8686896108ef565b600b60009054906101000a90046001600160a01b03166001600160a01b03166317e1f82e6040518163ffffffff1660e01b815260040160206040518083038186803b1580156118d957600080fd5b505afa1580156118ed573d6000803e3d6000fd5b505050506040513d601f19601f820116820180604052508101906119119190614cc4565b6014805460ff191660ff9290921691909117905561192e846134b9565b6040518481527fbd3ebe8ad09ded9d19d849088ef41c06e6369d712810f47ad52751826c17ff949060200160405180910390a1611681836131cb565b611974338361294f565b6119905760405162461bcd60e51b815260040161077c90614e64565b610a0f84848484613511565b6000818152600460205260409020546060906001600160a01b03161515806119c857506119c882613338565b6119e45760405162461bcd60e51b815260040161077c90614eef565b6000828152600d6020526040812080546119fd906150bd565b80601f0160208091040260200160405190810160405280929190818152602001828054611a29906150bd565b8015611a765780601f10611a4b57610100808354040283529160200191611a76565b820191906000526020600020905b815481529060010190602001808311611a5957829003601f168201915b50505050509050600081511115611a8e579050610858565b6000600c8054611a9d906150bd565b80601f0160208091040260200160405190810160405280929190818152602001828054611ac9906150bd565b8015611b165780601f10611aeb57610100808354040283529160200191611b16565b820191906000526020600020905b815481529060010190602001808311611af957829003601f168201915b50505050509050600081511115611b5a5780611b3185613544565b604051602001611b42929190614d28565b60405160208183030381529060405292505050610858565b600b60009054906101000a90046001600160a01b03166001600160a01b0316633683a63d6040518163ffffffff1660e01b815260040160006040518083038186803b158015611ba857600080fd5b505afa158015611bbc573d6000803e3d6000fd5b505050506040513d6000823e601f3d908101601f19168201604052611be491908101906149aa565b90506000611bf330601461365e565b90508181611c0087613544565b604051602001611c1293929190614d67565b6040516020818303038152906040529350505050610858565b50919050565b33611c446008546001600160a01b031690565b6001600160a01b03161480611c635750600b546001600160a01b031633145b611c7f5760405162461bcd60e51b815260040161077c90614e64565b611c88816134b9565b6040518181527fbd3ebe8ad09ded9d19d849088ef41c06e6369d712810f47ad52751826c17ff94906020015b60405180910390a150565b60105460009060ff16151560011415611cea5760405162461bcd60e51b815260040161077c90614ec5565b6010805460ff191660011790556000611d0284611f94565b83519091508114611d4d5760405162461bcd60e51b81526020600482015260156024820152740a6909eb2aa7440aa9c9a82a886908a88be9082a69605b1b604482015260640161077c565b60208301516001600160a01b0316611d9f5760405162461bcd60e51b815260206004820152601560248201527429a427acaa9d1024a72b20a624a22fa9a4a3a722a960591b604482015260640161077c565b611dc8611dab8461383f565b84602001518560c001518660e00151876101000151610b2a611052565b611deb848285602001518660400151876060015188608001518960a00151612c24565b6010805460ff19169055949350505050565b60005b815181101561111c576000828281518110611e2b57634e487b7160e01b600052603260045260246000fd5b60200260200101519050336001600160a01b0316611e4882611156565b6001600160a01b031614611e6e5760405162461bcd60e51b815260040161077c90614e64565b611e7781613277565b5080611e82816150f2565b915050611e00565b6001600160a01b03918216600090815260076020908152604080832093909416825291909152205460ff1690565b6008546001600160a01b03163314611ee25760405162461bcd60e51b815260040161077c90614e64565b6001600160a01b038116611f385760405162461bcd60e51b815260206004820152601860248201527f53484f59553a20494e56414c49445f4e45575f4f574e45520000000000000000604482015260640161077c565b6008546040516001600160a01b038084169216907f8be0079c531659141344cd1fd0a4f28419497f9722a3daafe3b4186f6b6457e090600090a3600880546001600160a01b0319166001600160a01b0392909216919091179055565b80516020808301516040808501516060860151608087015160a088015160c089015160e08a01516101008b01518051908a0120965160009a6120559a7f17fdf8831f8bd77353b30f42ba9bc64e7144545a42a890389f298feeb45dec889a9199919897969594939201998a526001600160a01b0398891660208b015296881660408a01526060890195909552608088019390935290851660a0870152841660c086015290921660e08401526101008301919091526101208201526101400190565b604051602081830303815290604052805190602001209050919050565b60006001600160e01b031982166380ac58cd60e01b14806120a357506001600160e01b03198216635b5e139f60e01b145b8061085557506301ffc9a760e01b6001600160e01b0319831614610855565b600054610100900460ff16806120db575060005460ff16155b6120f75760405162461bcd60e51b815260040161077c90614f26565b600054610100900460ff16158015612119576000805461ffff19166101011790555b61212383836138ca565b8015610ea7576000805461ff0019169055505050565b600054610100900460ff1680612152575060005460ff16155b61216e5760405162461bcd60e51b815260040161077c90614f26565b600054610100900460ff16158015612190576000805461ffff19166101011790555b6121998261395f565b801561111c576000805461ff00191690555050565b60008181526012602052604090205460ff16156122005760405162461bcd60e51b815260206004820152601060248201526f14d213d6554e8810d05390d15313115160821b604482015260640161077c565b81516001600160a01b031661224e5760405162461bcd60e51b815260206004820152601460248201527329a427acaa9d1024a72b20a624a22fa6a0a5a2a960611b604482015260640161077c565b60208201516001600160a01b031661229d5760405162461bcd60e51b815260206004820152601260248201527114d213d6554e881253959053125117d3919560721b604482015260640161077c565b60008260600151116122e95760405162461bcd60e51b815260206004820152601560248201527414d213d6554e881253959053125117d05353d55395605a1b604482015260640161077c565b60808201516001600160a01b03166123435760405162461bcd60e51b815260206004820152601760248201527f53484f59553a20494e56414c49445f5354524154454759000000000000000000604482015260640161077c565b60a08201516001600160a01b031661239d5760405162461bcd60e51b815260206004820152601760248201527f53484f59553a20494e56414c49445f43555252454e4359000000000000000000604482015260640161077c565b600b546001600160a01b03166080830151604051632666e89f60e21b81526001600160a01b03918216600482015291169063999ba27c9060240160206040518083038186803b1580156123ef57600080fd5b505afa158015612403573d6000803e3d6000fd5b505050506040513d601f19601f82011682018060405250810190612427919061490c565b61111c5760405162461bcd60e51b815260206004820152601f60248201527f53484f59553a2053545241544547595f4e4f545f57484954454c495354454400604482015260640161077c565b60405161190160f01b602082015260228101829052604281018790526000906062016040516020818303038152906040528051906020012090506124b7863b151590565b156125c757604080516020810186905280820185905260f887901b6001600160f81b0319166060820152815160418183030181526061820192839052630b135d3f60e11b9092526001600160a01b03881691631626ba7e9161251d918591606501614e38565b60206040518083038186803b15801561253557600080fd5b505afa158015612549573d6000803e3d6000fd5b505050506040513d601f19601f8201168201806040525081019061256d919061495c565b6001600160e01b031916631626ba7e60e01b146125c25760405162461bcd60e51b815260206004820152601360248201527214d213d6554e8815539055551213d492569151606a1b604482015260640161077c565b6116b8565b856001600160a01b03166125dd82878787613a14565b6001600160a01b0316146116b85760405162461bcd60e51b815260206004820152601360248201527214d213d6554e8815539055551213d492569151606a1b604482015260640161077c565b600061263785853085613bbd565b6126435750600061285f565b6000612657600b546001600160a01b031690565b90506000839050600080836001600160a01b031663aec0b5436040518163ffffffff1660e01b8152600401604080518083038186803b15801561269957600080fd5b505afa1580156126ad573d6000803e3d6000fd5b505050506040513d601f19601f820116820180604052508101906126d191906148ac565b909250905060006103e86126e860ff841689615044565b6126f29190615030565b90506127086001600160a01b038b168483613c8f565b6127128185615063565b9350505050600080836001600160a01b031663c2b11e186040518163ffffffff1660e01b8152600401604080518083038186803b15801561275257600080fd5b505afa158015612766573d6000803e3d6000fd5b505050506040513d601f19601f8201168201806040525081019061278a91906148ac565b909250905060006103e86127a160ff841689615044565b6127ab9190615030565b90506127c16001600160a01b038b168483613c8f565b6127cb8185615063565b93505050506000806127f660145461010081046001600160a01b031691600160a81b90910460ff1690565b909250905060ff808216146128425760006103e861281760ff841686615044565b6128219190615030565b90508015612840576128338185615063565b93506128408a8483613ce1565b505b6128566001600160a01b038a168885613c8f565b60019450505050505b949350505050565b6008546001600160a01b038581169116148015612888575061288882613338565b1561289c5761289783836133d8565b6128a7565b6128a78484846129d9565b5050505050565b600081815260066020526040902080546001600160a01b0319166001600160a01b03841690811790915581906128e382611156565b6001600160a01b03167f8c5be1e5ebec7d5bd14f71427d1e84f3dd0314c0f7b2291e5b200ac8c7c3b92560405160405180910390a45050565b6129268383613d70565b6129336000848484613e9e565b610ea75760405162461bcd60e51b815260040161077c90614e8e565b6000818152600460205260408120546001600160a01b03166129835760405162461bcd60e51b815260040161077c90614eef565b600061298e83611156565b9050806001600160a01b0316846001600160a01b031614806129c95750836001600160a01b03166129be84610a15565b6001600160a01b0316145b8061285f575061285f8185611e8a565b826001600160a01b03166129ec82611156565b6001600160a01b031614612a545760405162461bcd60e51b815260206004820152602960248201527f4552433732313a207472616e73666572206f6620746f6b656e2074686174206960448201526839903737ba1037bbb760b91b606482015260840161077c565b6001600160a01b038216612ab65760405162461bcd60e51b8152602060048201526024808201527f4552433732313a207472616e7366657220746f20746865207a65726f206164646044820152637265737360e01b606482015260840161077c565b612ac16000826128ae565b6001600160a01b0383166000908152600560205260408120805460019290612aea908490615063565b90915550506001600160a01b0382166000908152600560205260408120805460019290612b18908490615018565b909155505060008181526004602052604080822080546001600160a01b0319166001600160a01b0386811691821790925591518493918716917fddf252ad1be2c89b69c2b068fc378daa952ba7f163c4a11628f55a4df523b3ef91a4505050565b60008046600a541415612b8f575060095461105c565b7f8b73c3c69bb8fe3d512ecc4cf759cc79239f7b179b0ffacaa9a75d522b39400f612bb861085d565b80516020918201206040805192830193909352918101919091527fc89efdaa54c0f20c7adf612882df0950f5a951637e0307cdcb4c672f298b8bc660608201524660808201523060a082015260c001604051602081830303815290604052805190602001209050905090565b60208701516000906001600160a01b03163014612c7d5760405162461bcd60e51b815260206004820152601760248201527653484f59553a20494e56414c49445f45584348414e474560481b604482015260640161077c565b60008511612cc55760405162461bcd60e51b815260206004820152601560248201527414d213d6554e881253959053125117d05353d55395605a1b604482015260640161077c565b6000878152601360205260409020546060890151612ce38783615018565b1115612d235760405162461bcd60e51b815260206004820152600f60248201526e14d213d6554e8814d3d31117d3d555608a1b604482015260640161077c565b612d2d89896121ae565b612d50888a600001518b61012001518c61014001518d6101600151610b2a611052565b6000601160008a8152602001908152602001600020905089608001516001600160a01b031663651199518b60e001518c61010001518b8a8660000160009054906101000a90046001600160a01b0316876002015488600501546040518863ffffffff1660e01b8152600401612dcb9796959493929190614f74565b60206040518083038186803b158015612de357600080fd5b505afa158015612df7573d6000803e3d6000fd5b505050506040513d601f19601f82011682018060405250810190612e1b919061490c565b15612f2857612e2a8783615018565b60008a81526013602052604090205560c08a01516001600160a01b038116612e50575089515b60a08b0151612e65908a83610cba8c8c615044565b612eb15760405162461bcd60e51b815260206004820152601f60248201527f53484f59553a204641494c45445f544f5f5452414e534645525f46554e445300604482015260640161077c565b6001600160a01b038616612ec3578895505b612edc8b602001518c60000151888e604001518c612867565b897f0642c67a22e8657a7126bb3b9fb3f01965503642f884e4c6a1efd8ed24f46c0d8a8a8a8a8a604051612f14959493929190614e06565b60405180910390a2600193505050506130b6565b89608001516001600160a01b0316635f11a72b8b60e001518c61010001518b8a8660000160009054906101000a90046001600160a01b0316876002015488600501546040518863ffffffff1660e01b8152600401612f8c9796959493929190614f74565b60206040518083038186803b158015612fa457600080fd5b505afa158015612fb8573d6000803e3d6000fd5b505050506040513d601f19601f82011682018060405250810190612fdc919061490c565b1561307d5780546001600160a01b03808a166001600160a01b031992831617835560018301899055600283018890556003830180548883169084161790556004830180549187169190921617905543600582015560405189907f4055f76fe1f351fec66b9ba790ddbdc29eb45c038163a6b1327277441a8c65f19061306a908b908b908b908b908b90614e06565b60405180910390a26000925050506130b6565b60405162461bcd60e51b815260206004820152600e60248201526d53484f59553a204641494c55524560901b604482015260640161077c565b979650505050505050565b601454600160a81b900460ff90811614156131295760145460ff90811690821611156131245760405162461bcd60e51b815260206004820152601260248201527153484f59553a20494e56414c49445f46454560701b604482015260640161077c565b61317d565b60145460ff600160a81b90910481169082161061317d5760405162461bcd60e51b815260206004820152601260248201527153484f59553a20494e56414c49445f46454560701b604482015260640161077c565b6014805460ff60a81b1916600160a81b60ff8416908102919091179091556040519081527fd9ac3bc8ad92267d0b101786ddb4d37746ed1e3ee77637846294edf17dd9eb8a90602001611cb4565b6001600160a01b0381166132215760405162461bcd60e51b815260206004820152601c60248201527f53484f59553a20494e56414c49445f4645455f524543495049454e5400000000604482015260640161077c565b60148054610100600160a81b0319166101006001600160a01b038416908102919091179091556040519081527f1ce5f25607cb1a4fa6c947b55700213a9ed6a1d7ef1cf1d02ab467efd02a993e90602001611cb4565b600061328282611156565b90506001600160a01b0381166132aa5760405162461bcd60e51b815260040161077c90614eef565b6132b56000836128ae565b6001600160a01b03811660009081526005602052604081208054600192906132de908490615063565b909155505060008281526004602052604080822080546001600160a01b0319169055518391906001600160a01b038416907fddf252ad1be2c89b69c2b068fc378daa952ba7f163c4a11628f55a4df523b3ef908390a45050565b60008061334483611156565b90506001600160a01b03811615801561335e575060035483105b9392505050565b600054610100900460ff168061337e575060005460ff16155b61339a5760405162461bcd60e51b815260040161077c90614f26565b600054610100900460ff161580156133bc576000805461ffff19166101011790555b6133c4613fa8565b8015611153576000805461ff001916905550565b61111c82826040518060200160405280600081525061291c565b826001600160a01b0316826001600160a01b031614156134545760405162461bcd60e51b815260206004820152601760248201527f53484f59553a20494e56414c49445f4f50455241544f52000000000000000000604482015260640161077c565b6001600160a01b03838116600081815260076020908152604080832094871680845294825291829020805460ff191686151590811790915591519182527f17307eab39ab6107e8899845ad3d59bd9653f200f220920489ca2b5937696c3191016114a4565b60035480821161350b5760405162461bcd60e51b815260206004820152601a60248201527f53484f59553a20494e56414c49445f544f5f544f4b454e5f4944000000000000604482015260640161077c565b50600355565b61351c8484846129d9565b61352884848484613e9e565b610a0f5760405162461bcd60e51b815260040161077c90614e8e565b60608161356957506040805180820190915260018152600360fc1b6020820152610858565b8160005b8115613593578061357d816150f2565b915061358c9050600a83615030565b915061356d565b6000816001600160401b038111156135bb57634e487b7160e01b600052604160045260246000fd5b6040519080825280601f01601f1916602001820160405280156135e5576020820181803683370190505b5090505b841561285f576135fa600183615063565b9150613607600a8661510d565b613612906030615018565b60f81b81838151811061363557634e487b7160e01b600052603260045260246000fd5b60200101906001600160f81b031916908160001a905350613657600a86615030565b94506135e9565b6060600061366d836002615044565b613678906002615018565b6001600160401b0381111561369d57634e487b7160e01b600052604160045260246000fd5b6040519080825280601f01601f1916602001820160405280156136c7576020820181803683370190505b509050600360fc1b816000815181106136f057634e487b7160e01b600052603260045260246000fd5b60200101906001600160f81b031916908160001a905350600f60fb1b8160018151811061372d57634e487b7160e01b600052603260045260246000fd5b60200101906001600160f81b031916908160001a9053506000613751846002615044565b61375c906001615018565b90505b60018111156137f0576f181899199a1a9b1b9c1cb0b131b232b360811b85600f166010811061379e57634e487b7160e01b600052603260045260246000fd5b1a60f81b8282815181106137c257634e487b7160e01b600052603260045260246000fd5b60200101906001600160f81b031916908160001a90535060049490941c936137e9816150a6565b905061375f565b50831561335e5760405162461bcd60e51b815260206004820181905260248201527f537472696e67733a20686578206c656e67746820696e73756666696369656e74604482015260640161077c565b80516020808301516040808501516060860151608087015160a08801519351600097612055977fb98e1dc48988064e6dfb813618609d7da80a8841e5f277039788ac4b50d497b297919691959493920196875260208701959095526001600160a01b03938416604087015260608601929092526080850152811660a08401521660c082015260e00190565b600054610100900460ff16806138e3575060005460ff16155b6138ff5760405162461bcd60e51b815260040161077c90614f26565b600054610100900460ff16158015613921576000805461ffff19166101011790555b8251613934906001906020860190614249565b508151613948906002906020850190614249565b508015610ea7576000805461ff0019169055505050565b600054610100900460ff1680613978575060005460ff16155b6139945760405162461bcd60e51b815260040161077c90614f26565b600054610100900460ff161580156139b6576000805461ffff19166101011790555b600880546001600160a01b0319166001600160a01b0384169081179091556040516000907f8be0079c531659141344cd1fd0a4f28419497f9722a3daafe3b4186f6b6457e0908290a3801561111c576000805461ff00191690555050565b60007f7fffffffffffffffffffffffffffffff5d576e7357a4501ddfe92f46681b20a0821115613a915760405162461bcd60e51b815260206004820152602260248201527f45434453413a20696e76616c6964207369676e6174757265202773272076616c604482015261756560f01b606482015260840161077c565b8360ff16601b1480613aa657508360ff16601c145b613afd5760405162461bcd60e51b815260206004820152602260248201527f45434453413a20696e76616c6964207369676e6174757265202776272076616c604482015261756560f01b606482015260840161077c565b6040805160008082526020820180845288905260ff871692820192909252606081018590526080810184905260019060a0016020604051602081039080840390855afa158015613b51573d6000803e3d6000fd5b5050604051601f1901519150506001600160a01b038116613bb45760405162461bcd60e51b815260206004820152601860248201527f45434453413a20696e76616c6964207369676e61747572650000000000000000604482015260640161077c565b95945050505050565b604080516001600160a01b0385811660248301528481166044830152606480830185905283518084039091018152608490920183526020820180516001600160e01b03166323b872dd60e01b17905291516000928392839291891691613c239190614d0c565b6000604051808303816000865af19150503d8060008114613c60576040519150601f19603f3d011682016040523d82523d6000602084013e613c65565b606091505b50915091508180156130b65750805115806130b65750808060200190518101906130b6919061490c565b604080516001600160a01b038416602482015260448082018490528251808303909101815260649091019091526020810180516001600160e01b031663a9059cbb60e01b179052610ea7908490614007565b613cf56001600160a01b0384168383613c8f565b813b15610ea757816001600160a01b031663fff6cae96040518163ffffffff1660e01b8152600401602060405180830381600087803b158015613d3757600080fd5b505af1925050508015613d67575060408051601f3d908101601f19168201909252613d6491810190614c00565b60015b610a0f57610ea7565b6001600160a01b038216613dba5760405162461bcd60e51b815260206004820152601160248201527053484f59553a20494e56414c49445f544f60781b604482015260640161077c565b6000818152600460205260409020546001600160a01b031615613e175760405162461bcd60e51b815260206004820152601560248201527414d213d6554e881053149150511657d35253951151605a1b604482015260640161077c565b6001600160a01b0382166000908152600560205260408120805460019290613e40908490615018565b909155505060008181526004602052604080822080546001600160a01b0319166001600160a01b03861690811790915590518392907fddf252ad1be2c89b69c2b068fc378daa952ba7f163c4a11628f55a4df523b3ef908290a45050565b60006001600160a01b0384163b15613fa057604051630a85bd0160e11b81526001600160a01b0385169063150b7a0290613ee2903390899088908890600401614dc9565b602060405180830381600087803b158015613efc57600080fd5b505af1925050508015613f2c575060408051601f3d908101601f19168201909252613f299181019061495c565b60015b613f86573d808015613f5a576040519150601f19603f3d011682016040523d82523d6000602084013e613f5f565b606091505b508051613f7e5760405162461bcd60e51b815260040161077c90614e8e565b805181602001fd5b6001600160e01b031916630a85bd0160e11b14905061285f565b50600161285f565b600054610100900460ff1680613fc1575060005460ff16155b613fdd5760405162461bcd60e51b815260040161077c90614f26565b600054610100900460ff16158015613fff576000805461ffff19166101011790555b6133c46140d9565b600061405c826040518060400160405280602081526020017f5361666545524332303a206c6f772d6c6576656c2063616c6c206661696c6564815250856001600160a01b031661414e9092919063ffffffff16565b805190915015610ea7578080602001905181019061407a919061490c565b610ea75760405162461bcd60e51b815260206004820152602a60248201527f5361666545524332303a204552433230206f7065726174696f6e20646964206e6044820152691bdd081cdd58d8d9595960b21b606482015260840161077c565b600054610100900460ff16806140f2575060005460ff16155b61410e5760405162461bcd60e51b815260040161077c90614f26565b600054610100900460ff16158015614130576000805461ffff19166101011790555b6010805460ff191690558015611153576000805461ff001916905550565b606061285f848460008585843b6141a75760405162461bcd60e51b815260206004820152601d60248201527f416464726573733a2063616c6c20746f206e6f6e2d636f6e7472616374000000604482015260640161077c565b600080866001600160a01b031685876040516141c39190614d0c565b60006040518083038185875af1925050503d8060008114614200576040519150601f19603f3d011682016040523d82523d6000602084013e614205565b606091505b50915091506130b68282866060831561421f57508161335e565b82511561422f5782518084602001fd5b8160405162461bcd60e51b815260040161077c9190614e51565b828054614255906150bd565b90600052602060002090601f01602090048101928261427757600085556142bd565b82601f1061429057805160ff19168380011785556142bd565b828001600101855582156142bd579182015b828111156142bd5782518255916020019190600101906142a2565b506142c99291506142cd565b5090565b5b808211156142c957600081556001016142ce565b803561085881615163565b600082601f8301126142fd578081fd5b813560206001600160401b038211156143185761431861514d565b8160051b614327828201614fc1565b838152828101908684018388018501891015614341578687fd5b8693505b85841015614363578035835260019390930192918401918401614345565b50979650505050505050565b600082601f83011261437f578081fd5b813561439261438d82614ff1565b614fc1565b8181528460208386010111156143a6578283fd5b816020850160208301379081016020019190915292915050565b60006101808083850312156143d3578182fd5b6143dc81614fc1565b9150506143e8826142e2565b81526143f6602083016142e2565b6020820152604082013560408201526060820135606082015261441b608083016142e2565b608082015261442c60a083016142e2565b60a082015261443d60c083016142e2565b60c082015260e082013560e0820152610100808301356001600160401b0381111561446757600080fd5b6144738582860161436f565b8284015250506101206144878184016144a9565b9082015261014082810135908201526101609182013591810191909152919050565b80356108588161519c565b6000602082840312156144c5578081fd5b813561335e81615163565b600080604083850312156144e2578081fd5b82356144ed81615163565b915060208301356144fd81615163565b809150509250929050565b60008060006060848603121561451c578081fd5b833561452781615163565b9250602084013561453781615163565b929592945050506040919091013590565b6000806000806080858703121561455d578182fd5b843561456881615163565b9350602085013561457881615163565b92506040850135915060608501356001600160401b03811115614599578182fd5b6145a58782880161436f565b91505092959194509250565b60008060008060008060c087890312156145c9578384fd5b86356145d481615163565b955060208701356145e481615163565b94506040870135935060608701356145fb8161519c565b9598949750929560808101359460a0909101359350915050565b600080600060608486031215614629578081fd5b833561463481615163565b925060208401356001600160401b038082111561464f578283fd5b61465b878388016142ed565b93506040860135915080821115614670578283fd5b5061467d8682870161436f565b9150509250925092565b60008060408385031215614699578182fd5b82356146a481615163565b915060208301356144fd81615178565b60008060008060008060c087890312156146cc578384fd5b86356146d781615163565b955060208701356001600160401b03808211156146f2578586fd5b6146fe8a838b0161436f565b96506040890135915080821115614713578586fd5b61471f8a838b0161436f565b95506060890135915080821115614734578384fd5b5061474189828a016142ed565b935050608087013561475281615163565b915060a08701356147628161519c565b809150509295509295509295565b60008060008060008060c08789031215614788578384fd5b863561479381615163565b955060208701356001600160401b03808211156147ae578586fd5b6147ba8a838b0161436f565b965060408901359150808211156147cf578586fd5b506147dc89828a0161436f565b94505060608701359250608087013561475281615163565b60008060408385031215614806578182fd5b823561481181615163565b946020939093013593505050565b600080600060608486031215614833578081fd5b833561483e81615163565b92506020840135915060408401356001600160401b0381111561485f578182fd5b61467d8682870161436f565b60008060008060008060c08789031215614883578384fd5b863561488e81615163565b9550602087013594506040870135935060608701356145fb8161519c565b600080604083850312156148be578182fd5b82516148c981615163565b60208401519092506144fd8161519c565b6000602082840312156148eb578081fd5b81356001600160401b03811115614900578182fd5b61285f848285016142ed565b60006020828403121561491d578081fd5b815161335e81615178565b600060208284031215614939578081fd5b5035919050565b600060208284031215614951578081fd5b813561335e81615186565b60006020828403121561496d578081fd5b815161335e81615186565b600060208284031215614989578081fd5b81356001600160401b0381111561499e578182fd5b61285f8482850161436f565b6000602082840312156149bb578081fd5b81516001600160401b038111156149d0578182fd5b8201601f810184136149e0578182fd5b80516149ee61438d82614ff1565b818152856020838501011115614a02578384fd5b613bb482602083016020860161507a565b600080600060608486031215614a27578081fd5b83356001600160401b0380821115614a3d578283fd5b614a498783880161436f565b94506020860135915080821115614a5e578283fd5b50614a6b8682870161436f565b9250506040840135614a7c81615163565b809150509250925092565b600060208284031215614a98578081fd5b81356001600160401b03811115614aad578182fd5b61285f848285016143c0565b600080828403610140811215614acd578283fd5b83356001600160401b03811115614ae2578384fd5b614aee868287016143c0565b93505061012080601f1983011215614b04578283fd5b614b0d81614fc1565b915060208501358252614b22604086016142e2565b60208301526060850135604083015260808501356060830152614b4760a086016142e2565b6080830152614b5860c086016142e2565b60a0830152614b6960e086016144a9565b60c08301526101008581013560e0840152940135938101939093525092909150565b600080600080600060a08688031215614ba2578283fd5b85356001600160401b03811115614bb7578384fd5b614bc3888289016143c0565b95505060208601359350604086013592506060860135614be281615163565b91506080860135614bf281615163565b809150509295509295909350565b600060208284031215614c11578081fd5b5051919050565b60008060408385031215614c2a578182fd5b8235915060208301356001600160401b03811115614c46578182fd5b614c528582860161436f565b9150509250929050565b60008060408385031215614c6e578182fd5b50508035926020909101359150565b600080600060608486031215614c91578081fd5b505081359360208301359350604090920135919050565b600060208284031215614cb9578081fd5b813561335e8161519c565b600060208284031215614cd5578081fd5b815161335e8161519c565b60008151808452614cf881602086016020860161507a565b601f01601f19169290920160200192915050565b60008251614d1e81846020870161507a565b9190910192915050565b60008351614d3a81846020880161507a565b835190830190614d4e81836020880161507a565b64173539b7b760d91b9101908152600501949350505050565b60008451614d7981846020890161507a565b845190830190614d8d81836020890161507a565b602f60f81b91019081528351614daa81600184016020880161507a565b64173539b7b760d91b6001929091019182015260060195945050505050565b6001600160a01b0385811682528416602082015260408101839052608060608201819052600090614dfc90830184614ce0565b9695505050505050565b6001600160a01b0395861681526020810194909452604084019290925283166060830152909116608082015260a00190565b60008382526040602083015261285f6040830184614ce0565b60006020825261335e6020830184614ce0565b60208082526010908201526f29a427acaa9d102327a92124a22222a760811b604082015260600190565b60208082526017908201527f53484f59553a20494e56414c49445f5245434549564552000000000000000000604082015260600190565b60208082526010908201526f14d213d6554e8814915153951490539560821b604082015260600190565b60208082526017908201527f53484f59553a20494e56414c49445f544f4b454e5f4944000000000000000000604082015260600190565b6020808252602e908201527f496e697469616c697a61626c653a20636f6e747261637420697320616c72656160408201526d191e481a5b9a5d1a585b1a5e995960921b606082015260800190565b600088825260e06020830152614f8d60e0830189614ce0565b6001600160a01b03978816604084015260608301969096525092909416608083015260a082015260c0019190915292915050565b604051601f8201601f191681016001600160401b0381118282101715614fe957614fe961514d565b604052919050565b60006001600160401b0382111561500a5761500a61514d565b50601f01601f191660200190565b6000821982111561502b5761502b615121565b500190565b60008261503f5761503f615137565b500490565b600081600019048311821515161561505e5761505e615121565b500290565b60008282101561507557615075615121565b500390565b60005b8381101561509557818101518382015260200161507d565b83811115610a0f5750506000910152565b6000816150b5576150b5615121565b506000190190565b600181811c908216806150d157607f821691505b60208210811415611c2b57634e487b7160e01b600052602260045260246000fd5b600060001982141561510657615106615121565b5060010190565b60008261511c5761511c615137565b500690565b634e487b7160e01b600052601160045260246000fd5b634e487b7160e01b600052601260045260246000fd5b634e487b7160e01b600052604160045260246000fd5b6001600160a01b038116811461115357600080fd5b801515811461115357600080fd5b6001600160e01b03198116811461115357600080fd5b60ff8116811461115357600080fdfea2646970667358221220cfbfcd91a2b2e142c11dff7c038b6e475c44b3455d60b9fbca40063f66ed80fc64736f6c63430008030033",
  "devdoc": {
    "kind": "dev",
    "methods": {
      "approve(address,uint256)": {
        "details": "See {IERC721-approve}."
      },
      "balanceOf(address)": {
        "details": "See {IERC721-balanceOf}."
      },
      "getApproved(uint256)": {
        "details": "See {IERC721-getApproved}."
      },
      "isApprovedForAll(address,address)": {
        "details": "See {IERC721-isApprovedForAll}."
      },
      "name()": {
        "details": "See {IERC721Metadata-name}."
      },
      "owner()": {
        "details": "Returns the address of the current owner."
      },
      "ownerOf(uint256)": {
        "details": "See {IERC721-ownerOf}."
      },
      "renounceOwnership()": {
        "details": "Leaves the contract without owner. It will not be possible to call `onlyOwner` functions anymore. Can only be called by the current owner. NOTE: Renouncing ownership will leave the contract without an owner, thereby removing any functionality that is only available to the owner."
      },
      "safeTransferFrom(address,address,uint256)": {
        "details": "See {IERC721-safeTransferFrom}."
      },
      "safeTransferFrom(address,address,uint256,bytes)": {
        "details": "See {IERC721-safeTransferFrom}."
      },
      "setApprovalForAll(address,bool)": {
        "details": "See {IERC721-setApprovalForAll}."
      },
      "symbol()": {
        "details": "See {IERC721Metadata-symbol}."
      },
      "transferFrom(address,address,uint256)": {
        "details": "See {IERC721-transferFrom}."
      },
      "transferOwnership(address)": {
        "details": "Transfers ownership of the contract to a new account (`newOwner`). Can only be called by the current owner."
      }
    },
    "version": 1
  },
  "userdoc": {
    "kind": "user",
    "methods": {},
    "version": 1
  },
  "storageLayout": {
    "storage": [
      {
        "astId": 115,
        "contract": "contracts/NFT721V0.sol:NFT721V0",
        "label": "_initialized",
        "offset": 0,
        "slot": "0",
        "type": "t_bool"
      },
      {
        "astId": 118,
        "contract": "contracts/NFT721V0.sol:NFT721V0",
        "label": "_initializing",
        "offset": 1,
        "slot": "0",
        "type": "t_bool"
      },
      {
        "astId": 8708,
        "contract": "contracts/NFT721V0.sol:NFT721V0",
        "label": "_name",
        "offset": 0,
        "slot": "1",
        "type": "t_string_storage"
      },
      {
        "astId": 8710,
        "contract": "contracts/NFT721V0.sol:NFT721V0",
        "label": "_symbol",
        "offset": 0,
        "slot": "2",
        "type": "t_string_storage"
      },
      {
        "astId": 8712,
        "contract": "contracts/NFT721V0.sol:NFT721V0",
        "label": "_toTokenIdParked",
        "offset": 0,
        "slot": "3",
        "type": "t_uint256"
      },
      {
        "astId": 8716,
        "contract": "contracts/NFT721V0.sol:NFT721V0",
        "label": "_owners",
        "offset": 0,
        "slot": "4",
        "type": "t_mapping(t_uint256,t_address)"
      },
      {
        "astId": 8720,
        "contract": "contracts/NFT721V0.sol:NFT721V0",
        "label": "_balances",
        "offset": 0,
        "slot": "5",
        "type": "t_mapping(t_address,t_uint256)"
      },
      {
        "astId": 8724,
        "contract": "contracts/NFT721V0.sol:NFT721V0",
        "label": "_tokenApprovals",
        "offset": 0,
        "slot": "6",
        "type": "t_mapping(t_uint256,t_address)"
      },
      {
        "astId": 8730,
        "contract": "contracts/NFT721V0.sol:NFT721V0",
        "label": "_operatorApprovals",
        "offset": 0,
        "slot": "7",
        "type": "t_mapping(t_address,t_mapping(t_address,t_bool))"
      },
      {
        "astId": 9587,
        "contract": "contracts/NFT721V0.sol:NFT721V0",
        "label": "_owner",
        "offset": 0,
        "slot": "8",
        "type": "t_address"
      },
      {
        "astId": 6103,
        "contract": "contracts/NFT721V0.sol:NFT721V0",
        "label": "_DOMAIN_SEPARATOR",
        "offset": 0,
        "slot": "9",
        "type": "t_bytes32"
      },
      {
        "astId": 6105,
        "contract": "contracts/NFT721V0.sol:NFT721V0",
        "label": "_CACHED_CHAIN_ID",
        "offset": 0,
        "slot": "10",
        "type": "t_uint256"
      },
      {
        "astId": 6107,
        "contract": "contracts/NFT721V0.sol:NFT721V0",
        "label": "_factory",
        "offset": 0,
        "slot": "11",
        "type": "t_address"
      },
      {
        "astId": 6109,
        "contract": "contracts/NFT721V0.sol:NFT721V0",
        "label": "__baseURI",
        "offset": 0,
        "slot": "12",
        "type": "t_string_storage"
      },
      {
        "astId": 6113,
        "contract": "contracts/NFT721V0.sol:NFT721V0",
        "label": "_uris",
        "offset": 0,
        "slot": "13",
        "type": "t_mapping(t_uint256,t_string_storage)"
      },
      {
        "astId": 6118,
        "contract": "contracts/NFT721V0.sol:NFT721V0",
        "label": "nonces",
        "offset": 0,
        "slot": "14",
        "type": "t_mapping(t_uint256,t_uint256)"
      },
      {
        "astId": 6123,
        "contract": "contracts/NFT721V0.sol:NFT721V0",
        "label": "noncesForAll",
        "offset": 0,
        "slot": "15",
        "type": "t_mapping(t_address,t_uint256)"
      },
      {
        "astId": 9767,
        "contract": "contracts/NFT721V0.sol:NFT721V0",
        "label": "_status",
        "offset": 0,
        "slot": "16",
        "type": "t_bool"
      },
      {
        "astId": 4645,
        "contract": "contracts/NFT721V0.sol:NFT721V0",
        "label": "bestBid",
        "offset": 0,
        "slot": "17",
        "type": "t_mapping(t_bytes32,t_struct(BestBid)4639_storage)"
      },
      {
        "astId": 4650,
        "contract": "contracts/NFT721V0.sol:NFT721V0",
        "label": "isCancelledOrClaimed",
        "offset": 0,
        "slot": "18",
        "type": "t_mapping(t_bytes32,t_bool)"
      },
      {
        "astId": 4655,
        "contract": "contracts/NFT721V0.sol:NFT721V0",
        "label": "amountFilled",
        "offset": 0,
        "slot": "19",
        "type": "t_mapping(t_bytes32,t_uint256)"
      },
      {
        "astId": 2479,
        "contract": "contracts/NFT721V0.sol:NFT721V0",
        "label": "_MAX_ROYALTY_FEE",
        "offset": 0,
        "slot": "20",
        "type": "t_uint8"
      },
      {
        "astId": 2481,
        "contract": "contracts/NFT721V0.sol:NFT721V0",
        "label": "_royaltyFeeRecipient",
        "offset": 1,
        "slot": "20",
        "type": "t_address"
      },
      {
        "astId": 2483,
        "contract": "contracts/NFT721V0.sol:NFT721V0",
        "label": "_royaltyFee",
        "offset": 21,
        "slot": "20",
        "type": "t_uint8"
      }
    ],
    "types": {
      "t_address": {
        "encoding": "inplace",
        "label": "address",
        "numberOfBytes": "20"
      },
      "t_bool": {
        "encoding": "inplace",
        "label": "bool",
        "numberOfBytes": "1"
      },
      "t_bytes32": {
        "encoding": "inplace",
        "label": "bytes32",
        "numberOfBytes": "32"
      },
      "t_mapping(t_address,t_bool)": {
        "encoding": "mapping",
        "key": "t_address",
        "label": "mapping(address => bool)",
        "numberOfBytes": "32",
        "value": "t_bool"
      },
      "t_mapping(t_address,t_mapping(t_address,t_bool))": {
        "encoding": "mapping",
        "key": "t_address",
        "label": "mapping(address => mapping(address => bool))",
        "numberOfBytes": "32",
        "value": "t_mapping(t_address,t_bool)"
      },
      "t_mapping(t_address,t_uint256)": {
        "encoding": "mapping",
        "key": "t_address",
        "label": "mapping(address => uint256)",
        "numberOfBytes": "32",
        "value": "t_uint256"
      },
      "t_mapping(t_bytes32,t_bool)": {
        "encoding": "mapping",
        "key": "t_bytes32",
        "label": "mapping(bytes32 => bool)",
        "numberOfBytes": "32",
        "value": "t_bool"
      },
      "t_mapping(t_bytes32,t_struct(BestBid)4639_storage)": {
        "encoding": "mapping",
        "key": "t_bytes32",
        "label": "mapping(bytes32 => struct BaseExchange.BestBid)",
        "numberOfBytes": "32",
        "value": "t_struct(BestBid)4639_storage"
      },
      "t_mapping(t_bytes32,t_uint256)": {
        "encoding": "mapping",
        "key": "t_bytes32",
        "label": "mapping(bytes32 => uint256)",
        "numberOfBytes": "32",
        "value": "t_uint256"
      },
      "t_mapping(t_uint256,t_address)": {
        "encoding": "mapping",
        "key": "t_uint256",
        "label": "mapping(uint256 => address)",
        "numberOfBytes": "32",
        "value": "t_address"
      },
      "t_mapping(t_uint256,t_string_storage)": {
        "encoding": "mapping",
        "key": "t_uint256",
        "label": "mapping(uint256 => string)",
        "numberOfBytes": "32",
        "value": "t_string_storage"
      },
      "t_mapping(t_uint256,t_uint256)": {
        "encoding": "mapping",
        "key": "t_uint256",
        "label": "mapping(uint256 => uint256)",
        "numberOfBytes": "32",
        "value": "t_uint256"
      },
      "t_string_storage": {
        "encoding": "bytes",
        "label": "string",
        "numberOfBytes": "32"
      },
      "t_struct(BestBid)4639_storage": {
        "encoding": "inplace",
        "label": "struct BaseExchange.BestBid",
        "members": [
          {
            "astId": 4628,
            "contract": "contracts/NFT721V0.sol:NFT721V0",
            "label": "bidder",
            "offset": 0,
            "slot": "0",
            "type": "t_address"
          },
          {
            "astId": 4630,
            "contract": "contracts/NFT721V0.sol:NFT721V0",
            "label": "amount",
            "offset": 0,
            "slot": "1",
            "type": "t_uint256"
          },
          {
            "astId": 4632,
            "contract": "contracts/NFT721V0.sol:NFT721V0",
            "label": "price",
            "offset": 0,
            "slot": "2",
            "type": "t_uint256"
          },
          {
            "astId": 4634,
            "contract": "contracts/NFT721V0.sol:NFT721V0",
            "label": "recipient",
            "offset": 0,
            "slot": "3",
            "type": "t_address"
          },
          {
            "astId": 4636,
            "contract": "contracts/NFT721V0.sol:NFT721V0",
            "label": "referrer",
            "offset": 0,
            "slot": "4",
            "type": "t_address"
          },
          {
            "astId": 4638,
            "contract": "contracts/NFT721V0.sol:NFT721V0",
            "label": "blockNumber",
            "offset": 0,
            "slot": "5",
            "type": "t_uint256"
          }
        ],
        "numberOfBytes": "192"
      },
      "t_uint256": {
        "encoding": "inplace",
        "label": "uint256",
        "numberOfBytes": "32"
      },
      "t_uint8": {
        "encoding": "inplace",
        "label": "uint8",
        "numberOfBytes": "1"
      }
    }
  }
}