{
  "address": "0xa4c18b60Ba6B7a83dB3Eaf48363C07923E627502",
  "abi": [
    {
      "anonymous": false,
      "inputs": [
        {
          "indexed": true,
          "internalType": "address",
          "name": "owner",
          "type": "address"
        },
        {
          "indexed": true,
          "internalType": "address",
          "name": "approved",
          "type": "address"
        },
        {
          "indexed": true,
          "internalType": "uint256",
          "name": "tokenId",
          "type": "uint256"
        }
      ],
      "name": "Approval",
      "type": "event"
    },
    {
      "anonymous": false,
      "inputs": [
        {
          "indexed": true,
          "internalType": "address",
          "name": "owner",
          "type": "address"
        },
        {
          "indexed": true,
          "internalType": "address",
          "name": "operator",
          "type": "address"
        },
        {
          "indexed": false,
          "internalType": "bool",
          "name": "approved",
          "type": "bool"
        }
      ],
      "name": "ApprovalForAll",
      "type": "event"
    },
    {
      "anonymous": false,
      "inputs": [
        {
          "indexed": true,
          "internalType": "bytes32",
          "name": "hash",
          "type": "bytes32"
        },
        {
          "indexed": false,
          "internalType": "address",
          "name": "bidder",
          "type": "address"
        },
        {
          "indexed": false,
          "internalType": "uint256",
          "name": "amount",
          "type": "uint256"
        },
        {
          "indexed": false,
          "internalType": "uint256",
          "name": "price",
          "type": "uint256"
        },
        {
          "indexed": false,
          "internalType": "address",
          "name": "recipient",
          "type": "address"
        },
        {
          "indexed": false,
          "internalType": "address",
          "name": "referrer",
          "type": "address"
        }
      ],
      "name": "Bid",
      "type": "event"
    },
    {
      "anonymous": false,
      "inputs": [
        {
          "indexed": true,
          "internalType": "uint256",
          "name": "tokenId",
          "type": "uint256"
        },
        {
          "indexed": true,
          "internalType": "uint256",
          "name": "label",
          "type": "uint256"
        },
        {
          "indexed": false,
          "internalType": "bytes32",
          "name": "data",
          "type": "bytes32"
        }
      ],
      "name": "Burn",
      "type": "event"
    },
    {
      "anonymous": false,
      "inputs": [
        {
          "indexed": true,
          "internalType": "bytes32",
          "name": "hash",
          "type": "bytes32"
        }
      ],
      "name": "Cancel",
      "type": "event"
    },
    {
      "anonymous": false,
      "inputs": [
        {
          "indexed": true,
          "internalType": "bytes32",
          "name": "hash",
          "type": "bytes32"
        },
        {
          "indexed": false,
          "internalType": "address",
          "name": "bidder",
          "type": "address"
        },
        {
          "indexed": false,
          "internalType": "uint256",
          "name": "amount",
          "type": "uint256"
        },
        {
          "indexed": false,
          "internalType": "uint256",
          "name": "price",
          "type": "uint256"
        },
        {
          "indexed": false,
          "internalType": "address",
          "name": "recipient",
          "type": "address"
        },
        {
          "indexed": false,
          "internalType": "address",
          "name": "referrer",
          "type": "address"
        }
      ],
      "name": "Claim",
      "type": "event"
    },
    {
      "anonymous": false,
      "inputs": [
        {
          "indexed": true,
          "internalType": "address",
          "name": "previousOwner",
          "type": "address"
        },
        {
          "indexed": true,
          "internalType": "address",
          "name": "newOwner",
          "type": "address"
        }
      ],
      "name": "OwnershipTransferred",
      "type": "event"
    },
    {
      "anonymous": false,
      "inputs": [
        {
          "indexed": false,
          "internalType": "uint256",
          "name": "toTokenId",
          "type": "uint256"
        }
      ],
      "name": "ParkTokenIds",
      "type": "event"
    },
    {
      "anonymous": false,
      "inputs": [
        {
          "indexed": false,
          "internalType": "string",
          "name": "uri",
          "type": "string"
        }
      ],
      "name": "SetBaseURI",
      "type": "event"
    },
    {
      "anonymous": false,
      "inputs": [
        {
          "indexed": false,
          "internalType": "uint8",
          "name": "fee",
          "type": "uint8"
        }
      ],
      "name": "SetRoyaltyFee",
      "type": "event"
    },
    {
      "anonymous": false,
      "inputs": [
        {
          "indexed": false,
          "internalType": "address",
          "name": "recipient",
          "type": "address"
        }
      ],
      "name": "SetRoyaltyFeeRecipient",
      "type": "event"
    },
    {
      "anonymous": false,
      "inputs": [
        {
          "indexed": true,
          "internalType": "uint256",
          "name": "tokenId",
          "type": "uint256"
        },
        {
          "indexed": false,
          "internalType": "string",
          "name": "uri",
          "type": "string"
        }
      ],
      "name": "SetTokenURI",
      "type": "event"
    },
    {
      "anonymous": false,
      "inputs": [
        {
          "indexed": true,
          "internalType": "address",
          "name": "from",
          "type": "address"
        },
        {
          "indexed": true,
          "internalType": "address",
          "name": "to",
          "type": "address"
        },
        {
          "indexed": true,
          "internalType": "uint256",
          "name": "tokenId",
          "type": "uint256"
        }
      ],
      "name": "Transfer",
      "type": "event"
    },
    {
      "anonymous": false,
      "inputs": [
        {
          "indexed": true,
          "internalType": "address",
          "name": "proxy",
          "type": "address"
        },
        {
          "indexed": true,
          "internalType": "bytes32",
          "name": "askHash",
          "type": "bytes32"
        },
        {
          "indexed": true,
          "internalType": "address",
          "name": "bidder",
          "type": "address"
        },
        {
          "indexed": false,
          "internalType": "bytes32",
          "name": "bidHash",
          "type": "bytes32"
        }
      ],
      "name": "UpdateApprovedBidHash",
      "type": "event"
    },
    {
      "inputs": [],
      "name": "DOMAIN_SEPARATOR",
      "outputs": [
        {
          "internalType": "bytes32",
          "name": "",
          "type": "bytes32"
        }
      ],
      "stateMutability": "view",
      "type": "function"
    },
    {
      "inputs": [],
      "name": "PERMIT_ALL_TYPEHASH",
      "outputs": [
        {
          "internalType": "bytes32",
          "name": "",
          "type": "bytes32"
        }
      ],
      "stateMutability": "view",
      "type": "function"
    },
    {
      "inputs": [],
      "name": "PERMIT_TYPEHASH",
      "outputs": [
        {
          "internalType": "bytes32",
          "name": "",
          "type": "bytes32"
        }
      ],
      "stateMutability": "view",
      "type": "function"
    },
    {
      "inputs": [
        {
          "internalType": "bytes32",
          "name": "",
          "type": "bytes32"
        }
      ],
      "name": "amountFilled",
      "outputs": [
        {
          "internalType": "uint256",
          "name": "",
          "type": "uint256"
        }
      ],
      "stateMutability": "view",
      "type": "function"
    },
    {
      "inputs": [
        {
          "internalType": "address",
          "name": "to",
          "type": "address"
        },
        {
          "internalType": "uint256",
          "name": "tokenId",
          "type": "uint256"
        }
      ],
      "name": "approve",
      "outputs": [],
      "stateMutability": "nonpayable",
      "type": "function"
    },
    {
      "inputs": [
        {
          "internalType": "address",
          "name": "proxy",
          "type": "address"
        },
        {
          "internalType": "bytes32",
          "name": "askHash",
          "type": "bytes32"
        },
        {
          "internalType": "address",
          "name": "bidder",
          "type": "address"
        }
      ],
      "name": "approvedBidHash",
      "outputs": [
        {
          "internalType": "bytes32",
          "name": "bidHash",
          "type": "bytes32"
        }
      ],
      "stateMutability": "view",
      "type": "function"
    },
    {
      "inputs": [
        {
          "internalType": "address",
          "name": "owner",
          "type": "address"
        }
      ],
      "name": "balanceOf",
      "outputs": [
        {
          "internalType": "uint256",
          "name": "",
          "type": "uint256"
        }
      ],
      "stateMutability": "view",
      "type": "function"
    },
    {
      "inputs": [
        {
          "internalType": "bytes32",
          "name": "",
          "type": "bytes32"
        }
      ],
      "name": "bestBid",
      "outputs": [
        {
          "internalType": "address",
          "name": "bidder",
          "type": "address"
        },
        {
          "internalType": "uint256",
          "name": "amount",
          "type": "uint256"
        },
        {
          "internalType": "uint256",
          "name": "price",
          "type": "uint256"
        },
        {
          "internalType": "address",
          "name": "recipient",
          "type": "address"
        },
        {
          "internalType": "address",
          "name": "referrer",
          "type": "address"
        },
        {
          "internalType": "uint256",
          "name": "timestamp",
          "type": "uint256"
        }
      ],
      "stateMutability": "view",
      "type": "function"
    },
    {
      "inputs": [
        {
          "components": [
            {
              "internalType": "address",
              "name": "signer",
              "type": "address"
            },
            {
              "internalType": "address",
              "name": "proxy",
              "type": "address"
            },
            {
              "internalType": "address",
              "name": "token",
              "type": "address"
            },
            {
              "internalType": "uint256",
              "name": "tokenId",
              "type": "uint256"
            },
            {
              "internalType": "uint256",
              "name": "amount",
              "type": "uint256"
            },
            {
              "internalType": "address",
              "name": "strategy",
              "type": "address"
            },
            {
              "internalType": "address",
              "name": "currency",
              "type": "address"
            },
            {
              "internalType": "address",
              "name": "recipient",
              "type": "address"
            },
            {
              "internalType": "uint256",
              "name": "deadline",
              "type": "uint256"
            },
            {
              "internalType": "bytes",
              "name": "params",
              "type": "bytes"
            },
            {
              "internalType": "uint8",
              "name": "v",
              "type": "uint8"
            },
            {
              "internalType": "bytes32",
              "name": "r",
              "type": "bytes32"
            },
            {
              "internalType": "bytes32",
              "name": "s",
              "type": "bytes32"
            }
          ],
          "internalType": "struct Orders.Ask",
          "name": "askOrder",
          "type": "tuple"
        },
        {
          "internalType": "uint256",
          "name": "bidAmount",
          "type": "uint256"
        },
        {
          "internalType": "uint256",
          "name": "bidPrice",
          "type": "uint256"
        },
        {
          "internalType": "address",
          "name": "bidRecipient",
          "type": "address"
        },
        {
          "internalType": "address",
          "name": "bidReferrer",
          "type": "address"
        }
      ],
      "name": "bid",
      "outputs": [
        {
          "internalType": "bool",
          "name": "executed",
          "type": "bool"
        }
      ],
      "stateMutability": "nonpayable",
      "type": "function"
    },
    {
      "inputs": [
        {
          "components": [
            {
              "internalType": "address",
              "name": "signer",
              "type": "address"
            },
            {
              "internalType": "address",
              "name": "proxy",
              "type": "address"
            },
            {
              "internalType": "address",
              "name": "token",
              "type": "address"
            },
            {
              "internalType": "uint256",
              "name": "tokenId",
              "type": "uint256"
            },
            {
              "internalType": "uint256",
              "name": "amount",
              "type": "uint256"
            },
            {
              "internalType": "address",
              "name": "strategy",
              "type": "address"
            },
            {
              "internalType": "address",
              "name": "currency",
              "type": "address"
            },
            {
              "internalType": "address",
              "name": "recipient",
              "type": "address"
            },
            {
              "internalType": "uint256",
              "name": "deadline",
              "type": "uint256"
            },
            {
              "internalType": "bytes",
              "name": "params",
              "type": "bytes"
            },
            {
              "internalType": "uint8",
              "name": "v",
              "type": "uint8"
            },
            {
              "internalType": "bytes32",
              "name": "r",
              "type": "bytes32"
            },
            {
              "internalType": "bytes32",
              "name": "s",
              "type": "bytes32"
            }
          ],
          "internalType": "struct Orders.Ask",
          "name": "askOrder",
          "type": "tuple"
        },
        {
          "components": [
            {
              "internalType": "bytes32",
              "name": "askHash",
              "type": "bytes32"
            },
            {
              "internalType": "address",
              "name": "signer",
              "type": "address"
            },
            {
              "internalType": "uint256",
              "name": "amount",
              "type": "uint256"
            },
            {
              "internalType": "uint256",
              "name": "price",
              "type": "uint256"
            },
            {
              "internalType": "address",
              "name": "recipient",
              "type": "address"
            },
            {
              "internalType": "address",
              "name": "referrer",
              "type": "address"
            },
            {
              "internalType": "uint8",
              "name": "v",
              "type": "uint8"
            },
            {
              "internalType": "bytes32",
              "name": "r",
              "type": "bytes32"
            },
            {
              "internalType": "bytes32",
              "name": "s",
              "type": "bytes32"
            }
          ],
          "internalType": "struct Orders.Bid",
          "name": "bidOrder",
          "type": "tuple"
        }
      ],
      "name": "bid",
      "outputs": [
        {
          "internalType": "bool",
          "name": "executed",
          "type": "bool"
        }
      ],
      "stateMutability": "nonpayable",
      "type": "function"
    },
    {
      "inputs": [
        {
          "internalType": "uint256",
          "name": "tokenId",
          "type": "uint256"
        },
        {
          "internalType": "uint256",
          "name": "label",
          "type": "uint256"
        },
        {
          "internalType": "bytes32",
          "name": "data",
          "type": "bytes32"
        }
      ],
      "name": "burn",
      "outputs": [],
      "stateMutability": "nonpayable",
      "type": "function"
    },
    {
      "inputs": [
        {
          "internalType": "uint256[]",
          "name": "tokenIds",
          "type": "uint256[]"
        }
      ],
      "name": "burnBatch",
      "outputs": [],
      "stateMutability": "nonpayable",
      "type": "function"
    },
    {
      "inputs": [
        {
          "internalType": "address",
          "name": "token",
          "type": "address"
        }
      ],
      "name": "canTrade",
      "outputs": [
        {
          "internalType": "bool",
          "name": "",
          "type": "bool"
        }
      ],
      "stateMutability": "view",
      "type": "function"
    },
    {
      "inputs": [
        {
          "components": [
            {
              "internalType": "address",
              "name": "signer",
              "type": "address"
            },
            {
              "internalType": "address",
              "name": "proxy",
              "type": "address"
            },
            {
              "internalType": "address",
              "name": "token",
              "type": "address"
            },
            {
              "internalType": "uint256",
              "name": "tokenId",
              "type": "uint256"
            },
            {
              "internalType": "uint256",
              "name": "amount",
              "type": "uint256"
            },
            {
              "internalType": "address",
              "name": "strategy",
              "type": "address"
            },
            {
              "internalType": "address",
              "name": "currency",
              "type": "address"
            },
            {
              "internalType": "address",
              "name": "recipient",
              "type": "address"
            },
            {
              "internalType": "uint256",
              "name": "deadline",
              "type": "uint256"
            },
            {
              "internalType": "bytes",
              "name": "params",
              "type": "bytes"
            },
            {
              "internalType": "uint8",
              "name": "v",
              "type": "uint8"
            },
            {
              "internalType": "bytes32",
              "name": "r",
              "type": "bytes32"
            },
            {
              "internalType": "bytes32",
              "name": "s",
              "type": "bytes32"
            }
          ],
          "internalType": "struct Orders.Ask",
          "name": "order",
          "type": "tuple"
        }
      ],
      "name": "cancel",
      "outputs": [],
      "stateMutability": "nonpayable",
      "type": "function"
    },
    {
      "inputs": [
        {
          "components": [
            {
              "internalType": "address",
              "name": "signer",
              "type": "address"
            },
            {
              "internalType": "address",
              "name": "proxy",
              "type": "address"
            },
            {
              "internalType": "address",
              "name": "token",
              "type": "address"
            },
            {
              "internalType": "uint256",
              "name": "tokenId",
              "type": "uint256"
            },
            {
              "internalType": "uint256",
              "name": "amount",
              "type": "uint256"
            },
            {
              "internalType": "address",
              "name": "strategy",
              "type": "address"
            },
            {
              "internalType": "address",
              "name": "currency",
              "type": "address"
            },
            {
              "internalType": "address",
              "name": "recipient",
              "type": "address"
            },
            {
              "internalType": "uint256",
              "name": "deadline",
              "type": "uint256"
            },
            {
              "internalType": "bytes",
              "name": "params",
              "type": "bytes"
            },
            {
              "internalType": "uint8",
              "name": "v",
              "type": "uint8"
            },
            {
              "internalType": "bytes32",
              "name": "r",
              "type": "bytes32"
            },
            {
              "internalType": "bytes32",
              "name": "s",
              "type": "bytes32"
            }
          ],
          "internalType": "struct Orders.Ask",
          "name": "askOrder",
          "type": "tuple"
        }
      ],
      "name": "claim",
      "outputs": [],
      "stateMutability": "nonpayable",
      "type": "function"
    },
    {
      "inputs": [],
      "name": "factory",
      "outputs": [
        {
          "internalType": "address",
          "name": "",
          "type": "address"
        }
      ],
      "stateMutability": "view",
      "type": "function"
    },
    {
      "inputs": [
        {
          "internalType": "uint256",
          "name": "tokenId",
          "type": "uint256"
        }
      ],
      "name": "getApproved",
      "outputs": [
        {
          "internalType": "address",
          "name": "",
          "type": "address"
        }
      ],
      "stateMutability": "view",
      "type": "function"
    },
    {
      "inputs": [
        {
          "internalType": "string",
          "name": "_name",
          "type": "string"
        },
        {
          "internalType": "string",
          "name": "_symbol",
          "type": "string"
        },
        {
          "internalType": "address",
          "name": "_owner",
          "type": "address"
        }
      ],
      "name": "initialize",
      "outputs": [],
      "stateMutability": "nonpayable",
      "type": "function"
    },
    {
      "inputs": [
        {
          "internalType": "address",
          "name": "_owner",
          "type": "address"
        },
        {
          "internalType": "string",
          "name": "_name",
          "type": "string"
        },
        {
          "internalType": "string",
          "name": "_symbol",
          "type": "string"
        },
        {
          "internalType": "uint256[]",
          "name": "tokenIds",
          "type": "uint256[]"
        },
        {
          "internalType": "address",
          "name": "royaltyFeeRecipient",
          "type": "address"
        },
        {
          "internalType": "uint8",
          "name": "royaltyFee",
          "type": "uint8"
        }
      ],
      "name": "initialize",
      "outputs": [],
      "stateMutability": "nonpayable",
      "type": "function"
    },
    {
      "inputs": [
        {
          "internalType": "address",
          "name": "_owner",
          "type": "address"
        },
        {
          "internalType": "string",
          "name": "_name",
          "type": "string"
        },
        {
          "internalType": "string",
          "name": "_symbol",
          "type": "string"
        },
        {
          "internalType": "uint256",
          "name": "toTokenId",
          "type": "uint256"
        },
        {
          "internalType": "address",
          "name": "royaltyFeeRecipient",
          "type": "address"
        },
        {
          "internalType": "uint8",
          "name": "royaltyFee",
          "type": "uint8"
        }
      ],
      "name": "initialize",
      "outputs": [],
      "stateMutability": "nonpayable",
      "type": "function"
    },
    {
      "inputs": [
        {
          "internalType": "address",
          "name": "owner",
          "type": "address"
        },
        {
          "internalType": "address",
          "name": "operator",
          "type": "address"
        }
      ],
      "name": "isApprovedForAll",
      "outputs": [
        {
          "internalType": "bool",
          "name": "",
          "type": "bool"
        }
      ],
      "stateMutability": "view",
      "type": "function"
    },
    {
      "inputs": [
        {
          "internalType": "bytes32",
          "name": "",
          "type": "bytes32"
        }
      ],
      "name": "isCancelledOrClaimed",
      "outputs": [
        {
          "internalType": "bool",
          "name": "",
          "type": "bool"
        }
      ],
      "stateMutability": "view",
      "type": "function"
    },
    {
      "inputs": [
        {
          "internalType": "address",
          "name": "to",
          "type": "address"
        },
        {
          "internalType": "uint256",
          "name": "tokenId",
          "type": "uint256"
        },
        {
          "internalType": "bytes",
          "name": "data",
          "type": "bytes"
        }
      ],
      "name": "mint",
      "outputs": [],
      "stateMutability": "nonpayable",
      "type": "function"
    },
    {
      "inputs": [
        {
          "internalType": "address",
          "name": "to",
          "type": "address"
        },
        {
          "internalType": "uint256[]",
          "name": "tokenIds",
          "type": "uint256[]"
        },
        {
          "internalType": "bytes",
          "name": "data",
          "type": "bytes"
        }
      ],
      "name": "mintBatch",
      "outputs": [],
      "stateMutability": "nonpayable",
      "type": "function"
    },
    {
      "inputs": [],
      "name": "name",
      "outputs": [
        {
          "internalType": "string",
          "name": "",
          "type": "string"
        }
      ],
      "stateMutability": "view",
      "type": "function"
    },
    {
      "inputs": [
        {
          "internalType": "uint256",
          "name": "",
          "type": "uint256"
        }
      ],
      "name": "nonces",
      "outputs": [
        {
          "internalType": "uint256",
          "name": "",
          "type": "uint256"
        }
      ],
      "stateMutability": "view",
      "type": "function"
    },
    {
      "inputs": [
        {
          "internalType": "address",
          "name": "",
          "type": "address"
        }
      ],
      "name": "noncesForAll",
      "outputs": [
        {
          "internalType": "uint256",
          "name": "",
          "type": "uint256"
        }
      ],
      "stateMutability": "view",
      "type": "function"
    },
    {
      "inputs": [],
      "name": "owner",
      "outputs": [
        {
          "internalType": "address",
          "name": "",
          "type": "address"
        }
      ],
      "stateMutability": "view",
      "type": "function"
    },
    {
      "inputs": [
        {
          "internalType": "uint256",
          "name": "tokenId",
          "type": "uint256"
        }
      ],
      "name": "ownerOf",
      "outputs": [
        {
          "internalType": "address",
          "name": "",
          "type": "address"
        }
      ],
      "stateMutability": "view",
      "type": "function"
    },
    {
      "inputs": [
        {
          "internalType": "uint256",
          "name": "toTokenId",
          "type": "uint256"
        }
      ],
      "name": "parkTokenIds",
      "outputs": [],
      "stateMutability": "nonpayable",
      "type": "function"
    },
    {
      "inputs": [
        {
          "internalType": "uint256",
          "name": "tokenId",
          "type": "uint256"
        }
      ],
      "name": "parked",
      "outputs": [
        {
          "internalType": "bool",
          "name": "",
          "type": "bool"
        }
      ],
      "stateMutability": "view",
      "type": "function"
    },
    {
      "inputs": [
        {
          "internalType": "address",
          "name": "spender",
          "type": "address"
        },
        {
          "internalType": "uint256",
          "name": "tokenId",
          "type": "uint256"
        },
        {
          "internalType": "uint256",
          "name": "deadline",
          "type": "uint256"
        },
        {
          "internalType": "uint8",
          "name": "v",
          "type": "uint8"
        },
        {
          "internalType": "bytes32",
          "name": "r",
          "type": "bytes32"
        },
        {
          "internalType": "bytes32",
          "name": "s",
          "type": "bytes32"
        }
      ],
      "name": "permit",
      "outputs": [],
      "stateMutability": "nonpayable",
      "type": "function"
    },
    {
      "inputs": [
        {
          "internalType": "address",
          "name": "owner",
          "type": "address"
        },
        {
          "internalType": "address",
          "name": "spender",
          "type": "address"
        },
        {
          "internalType": "uint256",
          "name": "deadline",
          "type": "uint256"
        },
        {
          "internalType": "uint8",
          "name": "v",
          "type": "uint8"
        },
        {
          "internalType": "bytes32",
          "name": "r",
          "type": "bytes32"
        },
        {
          "internalType": "bytes32",
          "name": "s",
          "type": "bytes32"
        }
      ],
      "name": "permitAll",
      "outputs": [],
      "stateMutability": "nonpayable",
      "type": "function"
    },
    {
      "inputs": [],
      "name": "renounceOwnership",
      "outputs": [],
      "stateMutability": "nonpayable",
      "type": "function"
    },
    {
      "inputs": [
        {
          "internalType": "uint256",
          "name": "",
          "type": "uint256"
        },
        {
          "internalType": "uint256",
          "name": "_salePrice",
          "type": "uint256"
        }
      ],
      "name": "royaltyInfo",
      "outputs": [
        {
          "internalType": "address",
          "name": "",
          "type": "address"
        },
        {
          "internalType": "uint256",
          "name": "",
          "type": "uint256"
        }
      ],
      "stateMutability": "view",
      "type": "function"
    },
    {
      "inputs": [
        {
          "internalType": "address",
          "name": "from",
          "type": "address"
        },
        {
          "internalType": "address",
          "name": "to",
          "type": "address"
        },
        {
          "internalType": "uint256",
          "name": "tokenId",
          "type": "uint256"
        }
      ],
      "name": "safeTransferFrom",
      "outputs": [],
      "stateMutability": "nonpayable",
      "type": "function"
    },
    {
      "inputs": [
        {
          "internalType": "address",
          "name": "from",
          "type": "address"
        },
        {
          "internalType": "address",
          "name": "to",
          "type": "address"
        },
        {
          "internalType": "uint256",
          "name": "tokenId",
          "type": "uint256"
        },
        {
          "internalType": "bytes",
          "name": "_data",
          "type": "bytes"
        }
      ],
      "name": "safeTransferFrom",
      "outputs": [],
      "stateMutability": "nonpayable",
      "type": "function"
    },
    {
      "inputs": [
        {
          "internalType": "address",
          "name": "operator",
          "type": "address"
        },
        {
          "internalType": "bool",
          "name": "approved",
          "type": "bool"
        }
      ],
      "name": "setApprovalForAll",
      "outputs": [],
      "stateMutability": "nonpayable",
      "type": "function"
    },
    {
      "inputs": [
        {
          "internalType": "string",
          "name": "uri",
          "type": "string"
        }
      ],
      "name": "setBaseURI",
      "outputs": [],
      "stateMutability": "nonpayable",
      "type": "function"
    },
    {
      "inputs": [
        {
          "internalType": "uint8",
          "name": "royaltyFee",
          "type": "uint8"
        }
      ],
      "name": "setRoyaltyFee",
      "outputs": [],
      "stateMutability": "nonpayable",
      "type": "function"
    },
    {
      "inputs": [
        {
          "internalType": "address",
          "name": "royaltyFeeRecipient",
          "type": "address"
        }
      ],
      "name": "setRoyaltyFeeRecipient",
      "outputs": [],
      "stateMutability": "nonpayable",
      "type": "function"
    },
    {
      "inputs": [
        {
          "internalType": "uint256",
          "name": "id",
          "type": "uint256"
        },
        {
          "internalType": "string",
          "name": "newURI",
          "type": "string"
        }
      ],
      "name": "setTokenURI",
      "outputs": [],
      "stateMutability": "nonpayable",
      "type": "function"
    },
    {
      "inputs": [
        {
          "internalType": "bytes4",
          "name": "interfaceId",
          "type": "bytes4"
        }
      ],
      "name": "supportsInterface",
      "outputs": [
        {
          "internalType": "bool",
          "name": "",
          "type": "bool"
        }
      ],
      "stateMutability": "view",
      "type": "function"
    },
    {
      "inputs": [],
      "name": "symbol",
      "outputs": [
        {
          "internalType": "string",
          "name": "",
          "type": "string"
        }
      ],
      "stateMutability": "view",
      "type": "function"
    },
    {
      "inputs": [
        {
          "internalType": "uint256",
          "name": "tokenId",
          "type": "uint256"
        }
      ],
      "name": "tokenURI",
      "outputs": [
        {
          "internalType": "string",
          "name": "",
          "type": "string"
        }
      ],
      "stateMutability": "view",
      "type": "function"
    },
    {
      "inputs": [
        {
          "internalType": "address",
          "name": "from",
          "type": "address"
        },
        {
          "internalType": "address",
          "name": "to",
          "type": "address"
        },
        {
          "internalType": "uint256",
          "name": "tokenId",
          "type": "uint256"
        }
      ],
      "name": "transferFrom",
      "outputs": [],
      "stateMutability": "nonpayable",
      "type": "function"
    },
    {
      "inputs": [
        {
          "internalType": "address",
          "name": "newOwner",
          "type": "address"
        }
      ],
      "name": "transferOwnership",
      "outputs": [],
      "stateMutability": "nonpayable",
      "type": "function"
    },
    {
      "inputs": [
        {
          "internalType": "bytes32",
          "name": "askHash",
          "type": "bytes32"
        },
        {
          "internalType": "address",
          "name": "bidder",
          "type": "address"
        },
        {
          "internalType": "bytes32",
          "name": "bidHash",
          "type": "bytes32"
        }
      ],
      "name": "updateApprovedBidHash",
      "outputs": [],
      "stateMutability": "nonpayable",
      "type": "function"
    }
  ],
  "transactionHash": "0xd3547e258727bac1b50ce821be2adc2c915a11d41323a1a8dc7689a2697db235",
  "args": [],
  "solcInputHash": "b703ce783dd708774c8a875798f6f227",
  "bytecode": "0x608060405234801561001057600080fd5b506155f880620000216000396000f3fe608060405234801561001057600080fd5b50600436106102a05760003560e01c80637688266311610167578063b4e13c8d116100ce578063cb27e1b611610087578063cb27e1b6146106d6578063d0d09246146106e9578063e331a715146106fc578063e4623c1b1461071f578063e985e9c514610732578063f2fde38b14610745576102a0565b8063b4e13c8d14610652578063b81e846614610679578063b88d4fde1461068c578063c45a01551461069f578063c87b56dd146106b0578063c975e374146106c3576102a0565b806395d89b411161012057806395d89b41146105eb578063994e7296146105f35780639ecbcda214610606578063a22cb46514610619578063aba078471461062c578063ac9a25211461063f576102a0565b8063768826631461056e5780637ac2ff7b146105815780638da5cb5b14610594578063904dfb8e146105a55780639443792c146105c557806394d008ef146105d8576102a0565b806338bc54cd1161020b5780635f7ef2fa116101c45780635f7ef2fa146104fa5780636352211e1461050d5780636ef8e02d1461052057806370a0823114610533578063715018a61461054657806375e6590f1461054e576102a0565b806338bc54cd146103fd5780633cf32cd11461041057806342842e0e14610423578063559f05dc1461043657806355f804b3146104555780635771f99714610468576102a0565b8063162094c41161025d578063162094c414610363578063228624821461037657806323b872dd146103895780632a55205a1461039c57806330adf81f146103ce5780633644e515146103f5576102a0565b806301ffc9a7146102a557806306fdde03146102cd578063077f224a146102e2578063081812fc146102f7578063095ea7b314610322578063141a468c14610335575b600080fd5b6102b86102b3366004614d61565b610758565b60405190151581526020015b60405180910390f35b6102d5610785565b6040516102c491906152b5565b6102f56102f0366004614e34565b610817565b005b61030a610305366004614d23565b61094c565b6040516001600160a01b0390911681526020016102c4565b6102f5610330366004614bc2565b61099c565b610355610343366004614d23565b600e6020526000908152604090205481565b6040519081526020016102c4565b6102f561037136600461502e565b610a46565b6102f56103843660046149a2565b610acc565b6102f5610397366004614895565b610b6a565b6103af6103aa366004615072565b610bcb565b604080516001600160a01b0390931683526020830191909152016102c4565b6103557f49ecf333e5b8c95c40fdafc95c1ad136e8914a8fb55e9dc8bb01eaa83a2df9ad81565b610355610c29565b6102b861040b366004614fa1565b610c38565b6102f561041e366004614e9d565b610cc6565b6102f5610431366004614895565b610db1565b6102b8610444366004614841565b6001600160a01b0381163014919050565b6102f5610463366004614d99565b610dcc565b6104bb610476366004614d23565b6012602052600090815260409020805460018201546002830154600384015460048501546005909501546001600160a01b039485169593949293918316929091169086565b604080516001600160a01b03978816815260208101969096528501939093529084166060840152909216608082015260a081019190915260c0016102c4565b6102f56105083660046150be565b610e44565b61030a61051b366004614d23565b610e7a565b6102f561052e366004614841565b610e95565b610355610541366004614841565b610ec8565b6102f5610f33565b61035561055c366004614d23565b60146020526000908152604090205481565b6102f561057c366004614d3b565b610fa7565b6102f561058f366004614c66565b611012565b6008546001600160a01b031661030a565b6103556105b3366004614841565b600f6020526000908152604090205481565b6102f56105d3366004615093565b6111bf565b6102f56105e6366004614c1a565b611238565b6102d5611291565b6102b8610601366004614d23565b6112a0565b6102f5610614366004614a82565b6112ab565b6102f5610627366004614a14565b611448565b6102f561063a36600461493e565b611457565b6102f561064d366004614b3e565b6115f3565b6103557fdaab21af31ece73a508939fedd476a5ee5129a5ed4bb091f3236ffb45394df6281565b6102b8610687366004614ecf565b61173c565b6102f561069a3660046148d5565b611978565b600b546001600160a01b031661030a565b6102d56106be366004614d23565b6119aa565b6102f56106d1366004614d23565b611c3f565b6103556106e4366004614a41565b611cc6565b6102f56106f7366004614e9d565b611cfc565b6102b861070a366004614d23565b60136020526000908152604090205460ff1681565b6102f561072d366004614cd5565b6120b9565b6102b861074036600461485d565b612146565b6102f5610753366004614841565b612174565b600063152a902d60e11b6001600160e01b03198316148061077d575061077d82612250565b90505b919050565b606060018054610794906154d4565b80601f01602080910402602001604051908101604052809291908181526020018280546107c0906154d4565b801561080d5780601f106107e25761010080835404028352916020019161080d565b820191906000526020600020905b8154815290600101906020018083116107f057829003601f168201915b5050505050905090565b600054610100900460ff1680610830575060005460ff16155b6108555760405162461bcd60e51b815260040161084c9061538a565b60405180910390fd5b600054610100900460ff16158015610877576000805461ffff19166101011790555b61088184846122a0565b61088a82612317565b600b80546001600160a01b0319163317905546600a557f8b73c3c69bb8fe3d512ecc4cf759cc79239f7b179b0ffacaa9a75d522b39400f6108ca3061238c565b80516020918201206040805192830193909352918101919091527fc89efdaa54c0f20c7adf612882df0950f5a951637e0307cdcb4c672f298b8bc660608201524660808201523060a082015260c00160408051601f1981840301815291905280516020909101206009558015610946576000805461ff00191690555b50505050565b6000818152600460205260408120546001600160a01b03166109805760405162461bcd60e51b815260040161084c90615353565b506000908152600660205260409020546001600160a01b031690565b60006109a782610e7a565b9050806001600160a01b0316836001600160a01b031614156109ff5760405162461bcd60e51b815260206004820152601160248201527053484f59553a20494e56414c49445f544f60781b604482015260640161084c565b336001600160a01b0382161480610a1b5750610a1b8133612146565b610a375760405162461bcd60e51b815260040161084c906152c8565b610a4183836123e9565b505050565b6008546001600160a01b03163314610a705760405162461bcd60e51b815260040161084c906152c8565b6000828152600d602090815260409091208251610a8f928401906145c4565b50817fd2d827dddfc9c9a02afc5fc68d3251684b36e213a7999ebd90a861f25df4077e82604051610ac091906152b5565b60405180910390a25050565b33610adf6008546001600160a01b031690565b6001600160a01b03161480610afe5750600b546001600160a01b031633145b610b1a5760405162461bcd60e51b815260040161084c906152c8565b60005b825181101561094657610b5884848381518110610b4a57634e487b7160e01b600052603260045260246000fd5b602002602001015184612457565b80610b6281615509565b915050610b1d565b610b74338261248a565b610bc05760405162461bcd60e51b815260206004820152601d60248201527f53484f59553a204e4f545f415050524f5645445f4e4f525f4f574e4552000000604482015260640161084c565b610a41838383612514565b60155460009081908190600160a81b900460ff90811614610c0e576015546103e890610c0190600160a81b900460ff168661545b565b610c0b9190615447565b90505b60155461010090046001600160a01b03169590945092505050565b6000610c33612696565b905090565b60105460009060ff16151560011415610c635760405162461bcd60e51b815260040161084c90615329565b6010805460ff1916600117905560208601516001600160a01b031615610c9b5760405162461bcd60e51b815260040161084c906152c8565b610cb286610ca888612742565b338888888861282f565b6010805460ff191690559695505050505050565b80516001600160a01b0316331480610cea575060208101516001600160a01b031633145b610d065760405162461bcd60e51b815260040161084c906152c8565b6000610d1182612742565b6000818152601260205260409020549091506001600160a01b031615610d6d5760405162461bcd60e51b815260206004820152601160248201527053484f59553a204249445f45584953545360781b604482015260640161084c565b600081815260136020526040808220805460ff191660011790555182917fe8d9861dbc9c663ed3accd261bbe2fe01e0d3d9e5f51fa38523b265c7757a93a91a25050565b610a4183838360405180602001604052806000815250611978565b6008546001600160a01b03163314610df65760405162461bcd60e51b815260040161084c906152c8565b8051610e0990600c9060208401906145c4565b507f23c8c9488efebfd474e85a7956de6f39b17c7ab88502d42a623db2d8e382bbaa81604051610e3991906152b5565b60405180910390a150565b6008546001600160a01b03163314610e6e5760405162461bcd60e51b815260040161084c906152c8565b610e7781612d14565b50565b6000908152600460205260409020546001600160a01b031690565b6008546001600160a01b03163314610ebf5760405162461bcd60e51b815260040161084c906152c8565b610e7781612e1e565b60006001600160a01b038216610f175760405162461bcd60e51b815260206004820152601460248201527329a427acaa9d1024a72b20a624a22fa7aba722a960611b604482015260640161084c565b506001600160a01b031660009081526005602052604090205490565b6008546001600160a01b03163314610f5d5760405162461bcd60e51b815260040161084c906152c8565b6008546040516000916001600160a01b0316907f8be0079c531659141344cd1fd0a4f28419497f9722a3daafe3b4186f6b6457e0908390a3600880546001600160a01b0319169055565b33600081815260116020908152604080832087845282528083206001600160a01b03871680855290835292819020859055518481529192869290917fb45107556fea5943927a97bcb8910e249aea88961a6a30fb2f06674dbd44004b910160405180910390a4505050565b834211156110535760405162461bcd60e51b815260206004820152600e60248201526d14d213d6554e881156141254915160921b604482015260640161084c565b600061105e86610e7a565b90506001600160a01b0381166110af5760405162461bcd60e51b815260206004820152601660248201527514d213d6554e881253959053125117d513d2d153925160521b604482015260640161084c565b806001600160a01b0316876001600160a01b031614156111085760405162461bcd60e51b815260206004820152601460248201527353484f59553a204e4f545f4e454345535341525960601b604482015260640161084c565b6000868152600e6020526040812080547f49ecf333e5b8c95c40fdafc95c1ad136e8914a8fb55e9dc8bb01eaa83a2df9ad918a918a918561114883615509565b909155506040805160208101959095526001600160a01b03909316928401929092526060830152608082015260a0810187905260c0016040516020818303038152906040528051906020012090506111ab81838787876111a6610c29565b612eca565b6111b588886123e9565b5050505050505050565b336111c984610e7a565b6001600160a01b0316146111ef5760405162461bcd60e51b815260040161084c906152c8565b6111f883613080565b81837fb76a0da8ff1f8c54a41e3017cf87c65fc8f03e38d23eb45d4e9a1a5d7635b4c08360405161122b91815260200190565b60405180910390a3505050565b3361124b6008546001600160a01b031690565b6001600160a01b0316148061126a5750600b546001600160a01b031633145b6112865760405162461bcd60e51b815260040161084c906152c8565b610a41838383612457565b606060028054610794906154d4565b600061077d82613141565b600054610100900460ff16806112c4575060005460ff16155b6112e05760405162461bcd60e51b815260040161084c9061538a565b600054610100900460ff16158015611302576000805461ffff19166101011790555b61130a61316d565b611315868689610817565b600b60009054906101000a90046001600160a01b03166001600160a01b03166317e1f82e6040518163ffffffff1660e01b815260040160206040518083038186803b15801561136357600080fd5b505afa158015611377573d6000803e3d6000fd5b505050506040513d601f19601f8201168201806040525081019061139b91906150da565b6015805460ff191660ff9290921691909117905560005b84518110156113fe576113ec888683815181106113df57634e487b7160e01b600052603260045260246000fd5b60200260200101516131e0565b806113f681615509565b9150506113b2565b5061140883612e1e565b6015805460ff60a81b191660ff60a81b17905560ff82161561142d5761142d82612d14565b801561143f576000805461ff00191690555b50505050505050565b6114533383836131fa565b5050565b834211156114985760405162461bcd60e51b815260206004820152600e60248201526d14d213d6554e881156141254915160921b604482015260640161084c565b6001600160a01b0386166114e75760405162461bcd60e51b815260206004820152601660248201527553484f59553a20494e56414c49445f4144445245535360501b604482015260640161084c565b856001600160a01b0316856001600160a01b031614156115405760405162461bcd60e51b815260206004820152601460248201527353484f59553a204e4f545f4e454345535341525960601b604482015260640161084c565b6001600160a01b0386166000908152600f6020526040812080547fdaab21af31ece73a508939fedd476a5ee5129a5ed4bb091f3236ffb45394df6291899189918561158a83615509565b909155506040805160208101959095526001600160a01b039384169085015291166060830152608082015260a0810186905260c0016040516020818303038152906040528051906020012090506115e781888686866111a6610c29565b61143f878760016131fa565b600054610100900460ff168061160c575060005460ff16155b6116285760405162461bcd60e51b815260040161084c9061538a565b600054610100900460ff1615801561164a576000805461ffff19166101011790555b61165261316d565b61165d868689610817565b600b60009054906101000a90046001600160a01b03166001600160a01b03166317e1f82e6040518163ffffffff1660e01b815260040160206040518083038186803b1580156116ab57600080fd5b505afa1580156116bf573d6000803e3d6000fd5b505050506040513d601f19601f820116820180604052508101906116e391906150da565b6015805460ff191660ff92909216919091179055611700846132c1565b6040518481527fbd3ebe8ad09ded9d19d849088ef41c06e6369d712810f47ad52751826c17ff949060200160405180910390a161140883612e1e565b60105460009060ff161515600114156117675760405162461bcd60e51b815260040161084c90615329565b6010805460ff19166001179055600061177f84612742565b835190915081146117ca5760405162461bcd60e51b81526020600482015260156024820152740a6909eb2aa7440aa9c9a82a886908a88be9082a69605b1b604482015260640161084c565b60208301516001600160a01b031661181c5760405162461bcd60e51b815260206004820152601560248201527429a427acaa9d1024a72b20a624a22fa9a4a3a722a960591b604482015260640161084c565b600061182784613319565b60208601519091506001600160a01b0316156119215760208501516001600160a01b031633148061188d57506020808601516001600160a01b03908116600090815260118352604080822086835284528082208885015190931682529190925290205481145b6118a95760405162461bcd60e51b815260040161084c906152c8565b602085810180516001600160a01b03908116600090815260118452604080822087835285528082208986018051851684529086528183208390555193519051918252928216938693909216917fb45107556fea5943927a97bcb8910e249aea88961a6a30fb2f06674dbd44004b910160405180910390a45b6119428185602001518660c001518760e001518861010001516111a6610c29565b611965858386602001518760400151886060015189608001518a60a0015161282f565b6010805460ff1916905595945050505050565b611982338361248a565b61199e5760405162461bcd60e51b815260040161084c906152c8565b610946848484846133a4565b6000818152600460205260409020546060906001600160a01b03161515806119d657506119d682613141565b6119f25760405162461bcd60e51b815260040161084c90615353565b6000828152600d602052604081208054611a0b906154d4565b80601f0160208091040260200160405190810160405280929190818152602001828054611a37906154d4565b8015611a845780601f10611a5957610100808354040283529160200191611a84565b820191906000526020600020905b815481529060010190602001808311611a6757829003601f168201915b50505050509050600081511115611a9c579050610780565b6000600c8054611aab906154d4565b80601f0160208091040260200160405190810160405280929190818152602001828054611ad7906154d4565b8015611b245780601f10611af957610100808354040283529160200191611b24565b820191906000526020600020905b815481529060010190602001808311611b0757829003601f168201915b50505050509050600081511115611b685780611b3f856133d7565b604051602001611b5092919061513e565b60405160208183030381529060405292505050610780565b600b60009054906101000a90046001600160a01b03166001600160a01b0316633683a63d6040518163ffffffff1660e01b815260040160006040518083038186803b158015611bb657600080fd5b505afa158015611bca573d6000803e3d6000fd5b505050506040513d6000823e601f3d908101601f19168201604052611bf29190810190614dcb565b90506000611c013060146134f1565b90508181611c0e876133d7565b604051602001611c209392919061517d565b6040516020818303038152906040529350505050610780565b50919050565b33611c526008546001600160a01b031690565b6001600160a01b03161480611c715750600b546001600160a01b031633145b611c8d5760405162461bcd60e51b815260040161084c906152c8565b611c96816132c1565b6040518181527fbd3ebe8ad09ded9d19d849088ef41c06e6369d712810f47ad52751826c17ff9490602001610e39565b6001600160a01b0380841660009081526011602090815260408083208684528252808320938516835292905220545b9392505050565b60105460ff16151560011415611d245760405162461bcd60e51b815260040161084c90615329565b6010805460ff1916600117905560408101516001600160a01b03163014611d875760405162461bcd60e51b815260206004820152601760248201527653484f59553a20494e56414c49445f45584348414e474560481b604482015260640161084c565b6000611d9282612742565b9050611d9e82826136d2565b611dc18183600001518461014001518561016001518661018001516111a6610c29565b600081815260126020908152604091829020825160c08101845281546001600160a01b0390811680835260018401548386015260028401548387018190526003850154831660608501526004808601548416608086015260059095015460a08086018290528a0151968a01516101008b01516101208c0151995163610e2d3b60e01b81529699989095169763610e2d3b97611e6b9792969591949193919284928492909101615212565b60206040518083038186803b158015611e8357600080fd5b505afa158015611e97573d6000803e3d6000fd5b505050506040513d601f19601f82011682018060405250810190611ebb9190614d07565b611ef85760405162461bcd60e51b815260206004820152600e60248201526d53484f59553a204641494c55524560901b604482015260640161084c565b60e08301516001600160a01b038116611f0f575082515b600083815260136020908152604091829020805460ff1916600117905585820151606087015160c088015186519387015194870151611f6095939492939192918791611f5b919061545b565b6139a4565b611fac5760405162461bcd60e51b815260206004820152601f60248201527f53484f59553a204641494c45445f544f5f5452414e534645525f46554e445300604482015260640161084c565b60208083015160008581526014909252604090912054611fcc919061542f565b60008481526014602052604090205560608201516001600160a01b038116611ff2575081515b61200f856040015186600001518388606001518760200151613c11565b600084815260126020908152604080832080546001600160a01b03199081168255600182018590556002820185905560038201805482169055600482018054909116905560050192909255845190850151858301516080870151935188947f0642c67a22e8657a7126bb3b9fb3f01965503642f884e4c6a1efd8ed24f46c0d946120a094909390929091889161526a565b60405180910390a250506010805460ff19169055505050565b60005b81518110156114535760008282815181106120e757634e487b7160e01b600052603260045260246000fd5b60200260200101519050336001600160a01b031661210482610e7a565b6001600160a01b03161461212a5760405162461bcd60e51b815260040161084c906152c8565b61213381613080565b508061213e81615509565b9150506120bc565b6001600160a01b03918216600090815260076020908152604080832093909416825291909152205460ff1690565b6008546001600160a01b0316331461219e5760405162461bcd60e51b815260040161084c906152c8565b6001600160a01b0381166121f45760405162461bcd60e51b815260206004820152601860248201527f53484f59553a20494e56414c49445f4e45575f4f574e45520000000000000000604482015260640161084c565b6008546040516001600160a01b038084169216907f8be0079c531659141344cd1fd0a4f28419497f9722a3daafe3b4186f6b6457e090600090a3600880546001600160a01b0319166001600160a01b0392909216919091179055565b60006001600160e01b031982166380ac58cd60e01b148061228157506001600160e01b03198216635b5e139f60e01b145b8061077d57506301ffc9a760e01b6001600160e01b031983161461077d565b600054610100900460ff16806122b9575060005460ff16155b6122d55760405162461bcd60e51b815260040161084c9061538a565b600054610100900460ff161580156122f7576000805461ffff19166101011790555b6123018383613c58565b8015610a41576000805461ff0019169055505050565b600054610100900460ff1680612330575060005460ff16155b61234c5760405162461bcd60e51b815260040161084c9061538a565b600054610100900460ff1615801561236e576000805461ffff19166101011790555b61237782613ced565b8015611453576000805461ff00191690555050565b6060816123b457506040805180820190915260048152630307830360e41b6020820152610780565b8160005b81156123d757806123c881615509565b915050600882901c91506123b8565b6123e184826134f1565b949350505050565b600081815260066020526040902080546001600160a01b0319166001600160a01b038416908117909155819061241e82610e7a565b6001600160a01b03167f8c5be1e5ebec7d5bd14f71427d1e84f3dd0314c0f7b2291e5b200ac8c7c3b92560405160405180910390a45050565b6124618383613da2565b61246e6000848484613ed0565b610a415760405162461bcd60e51b815260040161084c906152f2565b6000818152600460205260408120546001600160a01b03166124be5760405162461bcd60e51b815260040161084c90615353565b60006124c983610e7a565b9050806001600160a01b0316846001600160a01b031614806125045750836001600160a01b03166124f98461094c565b6001600160a01b0316145b806123e157506123e18185612146565b826001600160a01b031661252782610e7a565b6001600160a01b03161461257d5760405162461bcd60e51b815260206004820152601960248201527f53484f59553a205452414e534645525f464f5242494444454e00000000000000604482015260640161084c565b6001600160a01b0382166125d35760405162461bcd60e51b815260206004820152601860248201527f53484f59553a20494e56414c49445f524543495049454e540000000000000000604482015260640161084c565b6125de6000826123e9565b6001600160a01b038316600090815260056020526040812080546001929061260790849061547a565b90915550506001600160a01b038216600090815260056020526040812080546001929061263590849061542f565b909155505060008181526004602052604080822080546001600160a01b0319166001600160a01b0386811691821790925591518493918716917fddf252ad1be2c89b69c2b068fc378daa952ba7f163c4a11628f55a4df523b3ef91a4505050565b60008046600a5414156126ac5750600954610c33565b7f8b73c3c69bb8fe3d512ecc4cf759cc79239f7b179b0ffacaa9a75d522b39400f6126d63061238c565b80516020918201206040805192830193909352918101919091527fc89efdaa54c0f20c7adf612882df0950f5a951637e0307cdcb4c672f298b8bc660608201524660808201523060a082015260c001604051602081830303815290604052805190602001209050905090565b80516020808301516040808501516060860151608087015160a088015160c089015160e08a01516101008b01516101208c01518051908b0120975160009b6128129b7f5fbc9a24e1532fa5245d1ec2dc5592849ae97ac5475f361b1a1f7a6e2ac9b2fd9b919a919998979695949392019a8b526001600160a01b03998a1660208c015297891660408b015295881660608a0152608089019490945260a0880192909252851660c0870152841660e08601529092166101008401526101208301919091526101408201526101600190565b604051602081830303815290604052805190602001209050919050565b60408701516000906001600160a01b031630146128885760405162461bcd60e51b815260206004820152601760248201527653484f59553a20494e56414c49445f45584348414e474560481b604482015260640161084c565b600085116128d05760405162461bcd60e51b815260206004820152601560248201527414d213d6554e881253959053125117d05353d55395605a1b604482015260640161084c565b60008781526014602052604090205460808901516128ee878361542f565b111561292e5760405162461bcd60e51b815260206004820152600f60248201526e14d213d6554e8814d3d31117d3d555608a1b604482015260640161084c565b61293889896136d2565b61295b888a600001518b61014001518c61016001518d61018001516111a6610c29565b6000601260008a815260200190815260200160002090508960a001516001600160a01b031663610e2d3b8b602001518c61010001518d61012001518c8b8760000160009054906101000a90046001600160a01b0316886002015489600501546040518963ffffffff1660e01b81526004016129dd989796959493929190615212565b60206040518083038186803b1580156129f557600080fd5b505afa158015612a09573d6000803e3d6000fd5b505050506040513d601f19601f82011682018060405250810190612a2d9190614d07565b15612b7457612a3c878361542f565b60008a81526014602052604090205560808a0151612a5a888461542f565b1415612a7a576000898152601360205260409020805460ff191660011790555b60e08a01516001600160a01b038116612a91575089515b612ab18b604001518c606001518d60c001518c858d8d611f5b919061545b565b612afd5760405162461bcd60e51b815260206004820152601f60248201527f53484f59553a204641494c45445f544f5f5452414e534645525f46554e445300604482015260640161084c565b6001600160a01b038616612b0f578895505b612b288b604001518c60000151888e606001518c613c11565b897f0642c67a22e8657a7126bb3b9fb3f01965503642f884e4c6a1efd8ed24f46c0d8a8a8a8a8a604051612b6095949392919061526a565b60405180910390a260019350505050612d09565b8960a001516001600160a01b031663e9b3838f8b602001518c61010001518d61012001518c8b8760000160009054906101000a90046001600160a01b0316886002015489600501546040518963ffffffff1660e01b8152600401612bdf989796959493929190615212565b60206040518083038186803b158015612bf757600080fd5b505afa158015612c0b573d6000803e3d6000fd5b505050506040513d601f19601f82011682018060405250810190612c2f9190614d07565b15612cd05780546001600160a01b03808a166001600160a01b031992831617835560018301899055600283018890556003830180548883169084161790556004830180549187169190921617905542600582015560405189907f4055f76fe1f351fec66b9ba790ddbdc29eb45c038163a6b1327277441a8c65f190612cbd908b908b908b908b908b9061526a565b60405180910390a2600092505050612d09565b60405162461bcd60e51b815260206004820152600e60248201526d53484f59553a204641494c55524560901b604482015260640161084c565b979650505050505050565b601554600160a81b900460ff9081161415612d7c5760155460ff9081169082161115612d775760405162461bcd60e51b815260206004820152601260248201527153484f59553a20494e56414c49445f46454560701b604482015260640161084c565b612dd0565b60155460ff600160a81b909104811690821610612dd05760405162461bcd60e51b815260206004820152601260248201527153484f59553a20494e56414c49445f46454560701b604482015260640161084c565b6015805460ff60a81b1916600160a81b60ff8416908102919091179091556040519081527fd9ac3bc8ad92267d0b101786ddb4d37746ed1e3ee77637846294edf17dd9eb8a90602001610e39565b6001600160a01b038116612e745760405162461bcd60e51b815260206004820152601c60248201527f53484f59553a20494e56414c49445f4645455f524543495049454e5400000000604482015260640161084c565b60158054610100600160a81b0319166101006001600160a01b038416908102919091179091556040519081527f1ce5f25607cb1a4fa6c947b55700213a9ed6a1d7ef1cf1d02ab467efd02a993e90602001610e39565b60405161190160f01b60208201526022810182905260428101879052600090606201604051602081830303815290604052805190602001209050612f0e863b151590565b1561301e57604080516020810186905280820185905260f887901b6001600160f81b0319166060820152815160418183030181526061820192839052630b135d3f60e11b9092526001600160a01b03881691631626ba7e91612f7491859160650161529c565b60206040518083038186803b158015612f8c57600080fd5b505afa158015612fa0573d6000803e3d6000fd5b505050506040513d601f19601f82011682018060405250810190612fc49190614d7d565b6001600160e01b031916631626ba7e60e01b146130195760405162461bcd60e51b815260206004820152601360248201527214d213d6554e8815539055551213d492569151606a1b604482015260640161084c565b61143f565b856001600160a01b031661303482878787613fdd565b6001600160a01b03161461143f5760405162461bcd60e51b815260206004820152601360248201527214d213d6554e8815539055551213d492569151606a1b604482015260640161084c565b600061308b82610e7a565b90506001600160a01b0381166130b35760405162461bcd60e51b815260040161084c90615353565b6130be6000836123e9565b6001600160a01b03811660009081526005602052604081208054600192906130e790849061547a565b909155505060008281526004602052604080822080546001600160a01b0319169055518391906001600160a01b038416907fddf252ad1be2c89b69c2b068fc378daa952ba7f163c4a11628f55a4df523b3ef908390a45050565b60008061314d83610e7a565b90506001600160a01b038116158015611cf5575060035483109392505050565b600054610100900460ff1680613186575060005460ff16155b6131a25760405162461bcd60e51b815260040161084c9061538a565b600054610100900460ff161580156131c4576000805461ffff19166101011790555b6131cc614170565b8015610e77576000805461ff001916905550565b611453828260405180602001604052806000815250612457565b826001600160a01b0316826001600160a01b0316141561325c5760405162461bcd60e51b815260206004820152601760248201527f53484f59553a20494e56414c49445f4f50455241544f52000000000000000000604482015260640161084c565b6001600160a01b03838116600081815260076020908152604080832094871680845294825291829020805460ff191686151590811790915591519182527f17307eab39ab6107e8899845ad3d59bd9653f200f220920489ca2b5937696c31910161122b565b6003548082116133135760405162461bcd60e51b815260206004820152601a60248201527f53484f59553a20494e56414c49445f544f5f544f4b454e5f4944000000000000604482015260640161084c565b50600355565b80516020808301516040808501516060860151608087015160a08801519351600097612812977fb98e1dc48988064e6dfb813618609d7da80a8841e5f277039788ac4b50d497b297919691959493920196875260208701959095526001600160a01b03938416604087015260608601929092526080850152811660a08401521660c082015260e00190565b6133af848484612514565b6133bb84848484613ed0565b6109465760405162461bcd60e51b815260040161084c906152f2565b6060816133fc57506040805180820190915260018152600360fc1b6020820152610780565b8160005b8115613426578061341081615509565b915061341f9050600a83615447565b9150613400565b6000816001600160401b0381111561344e57634e487b7160e01b600052604160045260246000fd5b6040519080825280601f01601f191660200182016040528015613478576020820181803683370190505b5090505b84156123e15761348d60018361547a565b915061349a600a86615524565b6134a590603061542f565b60f81b8183815181106134c857634e487b7160e01b600052603260045260246000fd5b60200101906001600160f81b031916908160001a9053506134ea600a86615447565b945061347c565b6060600061350083600261545b565b61350b90600261542f565b6001600160401b0381111561353057634e487b7160e01b600052604160045260246000fd5b6040519080825280601f01601f19166020018201604052801561355a576020820181803683370190505b509050600360fc1b8160008151811061358357634e487b7160e01b600052603260045260246000fd5b60200101906001600160f81b031916908160001a905350600f60fb1b816001815181106135c057634e487b7160e01b600052603260045260246000fd5b60200101906001600160f81b031916908160001a90535060006135e484600261545b565b6135ef90600161542f565b90505b6001811115613683576f181899199a1a9b1b9c1cb0b131b232b360811b85600f166010811061363157634e487b7160e01b600052603260045260246000fd5b1a60f81b82828151811061365557634e487b7160e01b600052603260045260246000fd5b60200101906001600160f81b031916908160001a90535060049490941c9361367c816154bd565b90506135f2565b508315611cf55760405162461bcd60e51b815260206004820181905260248201527f537472696e67733a20686578206c656e67746820696e73756666696369656e74604482015260640161084c565b60008181526013602052604090205460ff16156137315760405162461bcd60e51b815260206004820152601b60248201527f53484f59553a2043414e43454c4c45445f4f525f434c41494d45440000000000604482015260640161084c565b81516001600160a01b031661377f5760405162461bcd60e51b815260206004820152601460248201527329a427acaa9d1024a72b20a624a22fa6a0a5a2a960611b604482015260640161084c565b60408201516001600160a01b03166137ce5760405162461bcd60e51b815260206004820152601260248201527114d213d6554e881253959053125117d3919560721b604482015260640161084c565b600082608001511161381a5760405162461bcd60e51b815260206004820152601560248201527414d213d6554e881253959053125117d05353d55395605a1b604482015260640161084c565b60a08201516001600160a01b03166138745760405162461bcd60e51b815260206004820152601760248201527f53484f59553a20494e56414c49445f5354524154454759000000000000000000604482015260640161084c565b60c08201516001600160a01b03166138ce5760405162461bcd60e51b815260206004820152601760248201527f53484f59553a20494e56414c49445f43555252454e4359000000000000000000604482015260640161084c565b600b546001600160a01b031660a0830151604051632666e89f60e21b81526001600160a01b03918216600482015291169063999ba27c9060240160206040518083038186803b15801561392057600080fd5b505afa158015613934573d6000803e3d6000fd5b505050506040513d601f19601f820116820180604052508101906139589190614d07565b6114535760405162461bcd60e51b815260206004820152601f60248201527f53484f59553a2053545241544547595f4e4f545f57484954454c495354454400604482015260640161084c565b60006139b2858530856141cf565b6139be57506000613c07565b60006139d2600b546001600160a01b031690565b90506000839050600080836001600160a01b031663aec0b5436040518163ffffffff1660e01b8152600401604080518083038186803b158015613a1457600080fd5b505afa158015613a28573d6000803e3d6000fd5b505050506040513d601f19601f82011682018060405250810190613a4c9190614ca7565b909250905060006103e8613a6360ff84168961545b565b613a6d9190615447565b9050613a836001600160a01b038b1684836142a1565b613a8d818561547a565b9350505050600080836001600160a01b031663c2b11e186040518163ffffffff1660e01b8152600401604080518083038186803b158015613acd57600080fd5b505afa158015613ae1573d6000803e3d6000fd5b505050506040513d601f19601f82011682018060405250810190613b059190614ca7565b909250905060006103e8613b1c60ff84168961545b565b613b269190615447565b9050613b3c6001600160a01b038b1684836142a1565b613b46818561547a565b60405163152a902d60e11b8152600481018d9052602481018990529094506001600160a01b038d169350632a55205a92506044019050604080518083038186803b158015613b9357600080fd5b505afa925050508015613bc3575060408051601f3d908101601f19168201909252613bc091810190614bed565b60015b613bcc57613bec565b8015613be957613bdc818461547a565b9250613be98983836142f3565b50505b613c006001600160a01b03881686836142a1565b6001925050505b9695505050505050565b6008546001600160a01b038581169116148015613c325750613c3282613141565b15613c4657613c4183836131e0565b613c51565b613c51848484612514565b5050505050565b600054610100900460ff1680613c71575060005460ff16155b613c8d5760405162461bcd60e51b815260040161084c9061538a565b600054610100900460ff16158015613caf576000805461ffff19166101011790555b8251613cc29060019060208601906145c4565b508151613cd69060029060208501906145c4565b508015610a41576000805461ff0019169055505050565b600054610100900460ff1680613d06575060005460ff16155b613d225760405162461bcd60e51b815260040161084c9061538a565b600054610100900460ff16158015613d44576000805461ffff19166101011790555b600880546001600160a01b0319166001600160a01b0384169081179091556040516000907f8be0079c531659141344cd1fd0a4f28419497f9722a3daafe3b4186f6b6457e0908290a38015611453576000805461ff00191690555050565b6001600160a01b038216613dec5760405162461bcd60e51b815260206004820152601160248201527053484f59553a20494e56414c49445f544f60781b604482015260640161084c565b6000818152600460205260409020546001600160a01b031615613e495760405162461bcd60e51b815260206004820152601560248201527414d213d6554e881053149150511657d35253951151605a1b604482015260640161084c565b6001600160a01b0382166000908152600560205260408120805460019290613e7290849061542f565b909155505060008181526004602052604080822080546001600160a01b0319166001600160a01b03861690811790915590518392907fddf252ad1be2c89b69c2b068fc378daa952ba7f163c4a11628f55a4df523b3ef908290a45050565b60006001600160a01b0384163b15613fd257604051630a85bd0160e11b81526001600160a01b0385169063150b7a0290613f149033908990889088906004016151df565b602060405180830381600087803b158015613f2e57600080fd5b505af1925050508015613f5e575060408051601f3d908101601f19168201909252613f5b91810190614d7d565b60015b613fb8573d808015613f8c576040519150601f19603f3d011682016040523d82523d6000602084013e613f91565b606091505b508051613fb05760405162461bcd60e51b815260040161084c906152f2565b805181602001fd5b6001600160e01b031916630a85bd0160e11b1490506123e1565b506001949350505050565b60007f7fffffffffffffffffffffffffffffff5d576e7357a4501ddfe92f46681b20a082111561404f5760405162461bcd60e51b815260206004820181905260248201527f53484f59553a20494e56414c49445f5349474e41545552455f535f56414c5545604482015260640161084c565b8360ff16601b148061406457508360ff16601c145b6140b05760405162461bcd60e51b815260206004820181905260248201527f53484f59553a20494e56414c49445f5349474e41545552455f565f56414c5545604482015260640161084c565b6040805160008082526020820180845288905260ff871692820192909252606081018590526080810184905260019060a0016020604051602081039080840390855afa158015614104573d6000803e3d6000fd5b5050604051601f1901519150506001600160a01b0381166141675760405162461bcd60e51b815260206004820152601860248201527f53484f59553a20494e56414c49445f5349474e41545552450000000000000000604482015260640161084c565b95945050505050565b600054610100900460ff1680614189575060005460ff16155b6141a55760405162461bcd60e51b815260040161084c9061538a565b600054610100900460ff161580156141c7576000805461ffff19166101011790555b6131cc614382565b604080516001600160a01b0385811660248301528481166044830152606480830185905283518084039091018152608490920183526020820180516001600160e01b03166323b872dd60e01b179052915160009283928392918916916142359190615122565b6000604051808303816000865af19150503d8060008114614272576040519150601f19603f3d011682016040523d82523d6000602084013e614277565b606091505b5091509150818015612d09575080511580612d09575080806020019051810190612d099190614d07565b604080516001600160a01b038416602482015260448082018490528251808303909101815260649091019091526020810180516001600160e01b031663a9059cbb60e01b179052610a419084906143f7565b6143076001600160a01b03841683836142a1565b813b15610a4157816001600160a01b031663fff6cae96040518163ffffffff1660e01b8152600401602060405180830381600087803b15801561434957600080fd5b505af1925050508015614379575060408051601f3d908101601f1916820190925261437691810190615016565b60015b61094657610a41565b600054610100900460ff168061439b575060005460ff16155b6143b75760405162461bcd60e51b815260040161084c9061538a565b600054610100900460ff161580156143d9576000805461ffff19166101011790555b6010805460ff191690558015610e77576000805461ff001916905550565b600061444c826040518060400160405280602081526020017f5361666545524332303a206c6f772d6c6576656c2063616c6c206661696c6564815250856001600160a01b03166144c99092919063ffffffff16565b805190915015610a41578080602001905181019061446a9190614d07565b610a415760405162461bcd60e51b815260206004820152602a60248201527f5361666545524332303a204552433230206f7065726174696f6e20646964206e6044820152691bdd081cdd58d8d9595960b21b606482015260840161084c565b60606123e1848460008585843b6145225760405162461bcd60e51b815260206004820152601d60248201527f416464726573733a2063616c6c20746f206e6f6e2d636f6e7472616374000000604482015260640161084c565b600080866001600160a01b0316858760405161453e9190615122565b60006040518083038185875af1925050503d806000811461457b576040519150601f19603f3d011682016040523d82523d6000602084013e614580565b606091505b5091509150612d098282866060831561459a575081611cf5565b8251156145aa5782518084602001fd5b8160405162461bcd60e51b815260040161084c91906152b5565b8280546145d0906154d4565b90600052602060002090601f0160209004810192826145f25760008555614638565b82601f1061460b57805160ff1916838001178555614638565b82800160010185558215614638579182015b8281111561463857825182559160200191906001019061461d565b50614644929150614648565b5090565b5b808211156146445760008155600101614649565b80356107808161557a565b600082601f830112614678578081fd5b813560206001600160401b0382111561469357614693615564565b8160051b6146a28282016153d8565b8381528281019086840183880185018910156146bc578687fd5b8693505b858410156146de5780358352600193909301929184019184016146c0565b50979650505050505050565b600082601f8301126146fa578081fd5b813561470d61470882615408565b6153d8565b818152846020838601011115614721578283fd5b816020850160208301379081016020019190915292915050565b60006101a080838503121561474e578182fd5b614757816153d8565b9150506147638261465d565b81526147716020830161465d565b60208201526147826040830161465d565b604082015260608201356060820152608082013560808201526147a760a0830161465d565b60a08201526147b860c0830161465d565b60c08201526147c960e0830161465d565b60e08201526101008281013590820152610120808301356001600160401b038111156147f457600080fd5b614800858286016146ea565b828401525050610140614814818401614836565b9082015261016082810135908201526101809182013591810191909152919050565b8035610780816155b3565b600060208284031215614852578081fd5b8135611cf58161557a565b6000806040838503121561486f578081fd5b823561487a8161557a565b9150602083013561488a8161557a565b809150509250929050565b6000806000606084860312156148a9578081fd5b83356148b48161557a565b925060208401356148c48161557a565b929592945050506040919091013590565b600080600080608085870312156148ea578182fd5b84356148f58161557a565b935060208501356149058161557a565b92506040850135915060608501356001600160401b03811115614926578182fd5b614932878288016146ea565b91505092959194509250565b60008060008060008060c08789031215614956578384fd5b86356149618161557a565b955060208701356149718161557a565b9450604087013593506060870135614988816155b3565b9598949750929560808101359460a0909101359350915050565b6000806000606084860312156149b6578081fd5b83356149c18161557a565b925060208401356001600160401b03808211156149dc578283fd5b6149e887838801614668565b935060408601359150808211156149fd578283fd5b50614a0a868287016146ea565b9150509250925092565b60008060408385031215614a26578182fd5b8235614a318161557a565b9150602083013561488a8161558f565b600080600060608486031215614a55578081fd5b8335614a608161557a565b9250602084013591506040840135614a778161557a565b809150509250925092565b60008060008060008060c08789031215614a9a578384fd5b8635614aa58161557a565b955060208701356001600160401b0380821115614ac0578586fd5b614acc8a838b016146ea565b96506040890135915080821115614ae1578586fd5b614aed8a838b016146ea565b95506060890135915080821115614b02578384fd5b50614b0f89828a01614668565b9350506080870135614b208161557a565b915060a0870135614b30816155b3565b809150509295509295509295565b60008060008060008060c08789031215614b56578384fd5b8635614b618161557a565b955060208701356001600160401b0380821115614b7c578586fd5b614b888a838b016146ea565b96506040890135915080821115614b9d578586fd5b50614baa89828a016146ea565b945050606087013592506080870135614b208161557a565b60008060408385031215614bd4578182fd5b8235614bdf8161557a565b946020939093013593505050565b60008060408385031215614bff578182fd5b8251614c0a8161557a565b6020939093015192949293505050565b600080600060608486031215614c2e578081fd5b8335614c398161557a565b92506020840135915060408401356001600160401b03811115614c5a578182fd5b614a0a868287016146ea565b60008060008060008060c08789031215614c7e578384fd5b8635614c898161557a565b955060208701359450604087013593506060870135614988816155b3565b60008060408385031215614cb9578182fd5b8251614cc48161557a565b602084015190925061488a816155b3565b600060208284031215614ce6578081fd5b81356001600160401b03811115614cfb578182fd5b6123e184828501614668565b600060208284031215614d18578081fd5b8151611cf58161558f565b600060208284031215614d34578081fd5b5035919050565b600080600060608486031215614d4f578081fd5b8335925060208401356148c48161557a565b600060208284031215614d72578081fd5b8135611cf58161559d565b600060208284031215614d8e578081fd5b8151611cf58161559d565b600060208284031215614daa578081fd5b81356001600160401b03811115614dbf578182fd5b6123e1848285016146ea565b600060208284031215614ddc578081fd5b81516001600160401b03811115614df1578182fd5b8201601f81018413614e01578182fd5b8051614e0f61470882615408565b818152856020838501011115614e23578384fd5b614167826020830160208601615491565b600080600060608486031215614e48578081fd5b83356001600160401b0380821115614e5e578283fd5b614e6a878388016146ea565b94506020860135915080821115614e7f578283fd5b50614e8c868287016146ea565b9250506040840135614a778161557a565b600060208284031215614eae578081fd5b81356001600160401b03811115614ec3578182fd5b6123e18482850161473b565b600080828403610140811215614ee3578283fd5b83356001600160401b03811115614ef8578384fd5b614f048682870161473b565b93505061012080601f1983011215614f1a578283fd5b614f23816153d8565b915060208501358252614f386040860161465d565b60208301526060850135604083015260808501356060830152614f5d60a0860161465d565b6080830152614f6e60c0860161465d565b60a0830152614f7f60e08601614836565b60c08301526101008581013560e0840152940135938101939093525092909150565b600080600080600060a08688031215614fb8578283fd5b85356001600160401b03811115614fcd578384fd5b614fd98882890161473b565b95505060208601359350604086013592506060860135614ff88161557a565b915060808601356150088161557a565b809150509295509295909350565b600060208284031215615027578081fd5b5051919050565b60008060408385031215615040578182fd5b8235915060208301356001600160401b0381111561505c578182fd5b615068858286016146ea565b9150509250929050565b60008060408385031215615084578182fd5b50508035926020909101359150565b6000806000606084860312156150a7578081fd5b505081359360208301359350604090920135919050565b6000602082840312156150cf578081fd5b8135611cf5816155b3565b6000602082840312156150eb578081fd5b8151611cf5816155b3565b6000815180845261510e816020860160208601615491565b601f01601f19169290920160200192915050565b60008251615134818460208701615491565b9190910192915050565b60008351615150818460208801615491565b835190830190615164818360208801615491565b64173539b7b760d91b9101908152600501949350505050565b6000845161518f818460208901615491565b8451908301906151a3818360208901615491565b602f60f81b910190815283516151c0816001840160208801615491565b64173539b7b760d91b6001929091019182015260060195945050505050565b6001600160a01b0385811682528416602082015260408101839052608060608201819052600090613c07908301846150f6565b6001600160a01b038981168252602082018990526101006040830181905260009161523f8483018b6150f6565b9881166060850152608084019790975250509290931660a083015260c082015260e001529392505050565b6001600160a01b0395861681526020810194909452604084019290925283166060830152909116608082015260a00190565b6000838252604060208301526123e160408301846150f6565b600060208252611cf560208301846150f6565b60208082526010908201526f29a427acaa9d102327a92124a22222a760811b604082015260600190565b60208082526017908201527f53484f59553a20494e56414c49445f5245434549564552000000000000000000604082015260600190565b60208082526010908201526f14d213d6554e8814915153951490539560821b604082015260600190565b60208082526017908201527f53484f59553a20494e56414c49445f544f4b454e5f4944000000000000000000604082015260600190565b6020808252602e908201527f496e697469616c697a61626c653a20636f6e747261637420697320616c72656160408201526d191e481a5b9a5d1a585b1a5e995960921b606082015260800190565b604051601f8201601f191681016001600160401b038111828210171561540057615400615564565b604052919050565b60006001600160401b0382111561542157615421615564565b50601f01601f191660200190565b6000821982111561544257615442615538565b500190565b6000826154565761545661554e565b500490565b600081600019048311821515161561547557615475615538565b500290565b60008282101561548c5761548c615538565b500390565b60005b838110156154ac578181015183820152602001615494565b838111156109465750506000910152565b6000816154cc576154cc615538565b506000190190565b600181811c908216806154e857607f821691505b60208210811415611c3957634e487b7160e01b600052602260045260246000fd5b600060001982141561551d5761551d615538565b5060010190565b6000826155335761553361554e565b500690565b634e487b7160e01b600052601160045260246000fd5b634e487b7160e01b600052601260045260246000fd5b634e487b7160e01b600052604160045260246000fd5b6001600160a01b0381168114610e7757600080fd5b8015158114610e7757600080fd5b6001600160e01b031981168114610e7757600080fd5b60ff81168114610e7757600080fdfea2646970667358221220b70a8b0405a829f240d4a2614fee564edeeefa931b046447bff00adaf386460664736f6c63430008030033",
  "devdoc": {
    "kind": "dev",
    "methods": {
      "approve(address,uint256)": {
        "details": "See {IERC721-approve}."
      },
      "balanceOf(address)": {
        "details": "See {IERC721-balanceOf}."
      },
      "getApproved(uint256)": {
        "details": "See {IERC721-getApproved}."
      },
      "isApprovedForAll(address,address)": {
        "details": "See {IERC721-isApprovedForAll}."
      },
      "name()": {
        "details": "See {IERC721Metadata-name}."
      },
      "owner()": {
        "details": "Returns the address of the current owner."
      },
      "ownerOf(uint256)": {
        "details": "See {IERC721-ownerOf}."
      },
      "renounceOwnership()": {
        "details": "Leaves the contract without owner. It will not be possible to call `onlyOwner` functions anymore. Can only be called by the current owner. NOTE: Renouncing ownership will leave the contract without an owner, thereby removing any functionality that is only available to the owner."
      },
      "safeTransferFrom(address,address,uint256)": {
        "details": "See {IERC721-safeTransferFrom}."
      },
      "safeTransferFrom(address,address,uint256,bytes)": {
        "details": "See {IERC721-safeTransferFrom}."
      },
      "setApprovalForAll(address,bool)": {
        "details": "See {IERC721-setApprovalForAll}."
      },
      "symbol()": {
        "details": "See {IERC721Metadata-symbol}."
      },
      "transferFrom(address,address,uint256)": {
        "details": "See {IERC721-transferFrom}."
      },
      "transferOwnership(address)": {
        "details": "Transfers ownership of the contract to a new account (`newOwner`). Can only be called by the current owner."
      }
    },
    "version": 1
  },
  "userdoc": {
    "kind": "user",
    "methods": {},
    "version": 1
  },
  "storageLayout": {
    "storage": [
      {
        "astId": 115,
        "contract": "contracts/NFT721V0.sol:NFT721V0",
        "label": "_initialized",
        "offset": 0,
        "slot": "0",
        "type": "t_bool"
      },
      {
        "astId": 118,
        "contract": "contracts/NFT721V0.sol:NFT721V0",
        "label": "_initializing",
        "offset": 1,
        "slot": "0",
        "type": "t_bool"
      },
      {
        "astId": 11219,
        "contract": "contracts/NFT721V0.sol:NFT721V0",
        "label": "_name",
        "offset": 0,
        "slot": "1",
        "type": "t_string_storage"
      },
      {
        "astId": 11221,
        "contract": "contracts/NFT721V0.sol:NFT721V0",
        "label": "_symbol",
        "offset": 0,
        "slot": "2",
        "type": "t_string_storage"
      },
      {
        "astId": 11223,
        "contract": "contracts/NFT721V0.sol:NFT721V0",
        "label": "_toTokenIdParked",
        "offset": 0,
        "slot": "3",
        "type": "t_uint256"
      },
      {
        "astId": 11227,
        "contract": "contracts/NFT721V0.sol:NFT721V0",
        "label": "_owners",
        "offset": 0,
        "slot": "4",
        "type": "t_mapping(t_uint256,t_address)"
      },
      {
        "astId": 11231,
        "contract": "contracts/NFT721V0.sol:NFT721V0",
        "label": "_balances",
        "offset": 0,
        "slot": "5",
        "type": "t_mapping(t_address,t_uint256)"
      },
      {
        "astId": 11235,
        "contract": "contracts/NFT721V0.sol:NFT721V0",
        "label": "_tokenApprovals",
        "offset": 0,
        "slot": "6",
        "type": "t_mapping(t_uint256,t_address)"
      },
      {
        "astId": 11241,
        "contract": "contracts/NFT721V0.sol:NFT721V0",
        "label": "_operatorApprovals",
        "offset": 0,
        "slot": "7",
        "type": "t_mapping(t_address,t_mapping(t_address,t_bool))"
      },
      {
        "astId": 12098,
        "contract": "contracts/NFT721V0.sol:NFT721V0",
        "label": "_owner",
        "offset": 0,
        "slot": "8",
        "type": "t_address"
      },
      {
        "astId": 8591,
        "contract": "contracts/NFT721V0.sol:NFT721V0",
        "label": "_DOMAIN_SEPARATOR",
        "offset": 0,
        "slot": "9",
        "type": "t_bytes32"
      },
      {
        "astId": 8593,
        "contract": "contracts/NFT721V0.sol:NFT721V0",
        "label": "_CACHED_CHAIN_ID",
        "offset": 0,
        "slot": "10",
        "type": "t_uint256"
      },
      {
        "astId": 8595,
        "contract": "contracts/NFT721V0.sol:NFT721V0",
        "label": "_factory",
        "offset": 0,
        "slot": "11",
        "type": "t_address"
      },
      {
        "astId": 8597,
        "contract": "contracts/NFT721V0.sol:NFT721V0",
        "label": "__baseURI",
        "offset": 0,
        "slot": "12",
        "type": "t_string_storage"
      },
      {
        "astId": 8601,
        "contract": "contracts/NFT721V0.sol:NFT721V0",
        "label": "_uris",
        "offset": 0,
        "slot": "13",
        "type": "t_mapping(t_uint256,t_string_storage)"
      },
      {
        "astId": 8606,
        "contract": "contracts/NFT721V0.sol:NFT721V0",
        "label": "nonces",
        "offset": 0,
        "slot": "14",
        "type": "t_mapping(t_uint256,t_uint256)"
      },
      {
        "astId": 8611,
        "contract": "contracts/NFT721V0.sol:NFT721V0",
        "label": "noncesForAll",
        "offset": 0,
        "slot": "15",
        "type": "t_mapping(t_address,t_uint256)"
      },
      {
        "astId": 12278,
        "contract": "contracts/NFT721V0.sol:NFT721V0",
        "label": "_status",
        "offset": 0,
        "slot": "16",
        "type": "t_bool"
      },
      {
        "astId": 6988,
        "contract": "contracts/NFT721V0.sol:NFT721V0",
        "label": "_bidHashes",
        "offset": 0,
        "slot": "17",
        "type": "t_mapping(t_address,t_mapping(t_bytes32,t_mapping(t_address,t_bytes32)))"
      },
      {
        "astId": 6994,
        "contract": "contracts/NFT721V0.sol:NFT721V0",
        "label": "bestBid",
        "offset": 0,
        "slot": "18",
        "type": "t_mapping(t_bytes32,t_struct(BestBid)6980_storage)"
      },
      {
        "astId": 6999,
        "contract": "contracts/NFT721V0.sol:NFT721V0",
        "label": "isCancelledOrClaimed",
        "offset": 0,
        "slot": "19",
        "type": "t_mapping(t_bytes32,t_bool)"
      },
      {
        "astId": 7004,
        "contract": "contracts/NFT721V0.sol:NFT721V0",
        "label": "amountFilled",
        "offset": 0,
        "slot": "20",
        "type": "t_mapping(t_bytes32,t_uint256)"
      },
      {
        "astId": 4689,
        "contract": "contracts/NFT721V0.sol:NFT721V0",
        "label": "_MAX_ROYALTY_FEE",
        "offset": 0,
        "slot": "21",
        "type": "t_uint8"
      },
      {
        "astId": 4691,
        "contract": "contracts/NFT721V0.sol:NFT721V0",
        "label": "_royaltyFeeRecipient",
        "offset": 1,
        "slot": "21",
        "type": "t_address"
      },
      {
        "astId": 4693,
        "contract": "contracts/NFT721V0.sol:NFT721V0",
        "label": "_royaltyFee",
        "offset": 21,
        "slot": "21",
        "type": "t_uint8"
      }
    ],
    "types": {
      "t_address": {
        "encoding": "inplace",
        "label": "address",
        "numberOfBytes": "20"
      },
      "t_bool": {
        "encoding": "inplace",
        "label": "bool",
        "numberOfBytes": "1"
      },
      "t_bytes32": {
        "encoding": "inplace",
        "label": "bytes32",
        "numberOfBytes": "32"
      },
      "t_mapping(t_address,t_bool)": {
        "encoding": "mapping",
        "key": "t_address",
        "label": "mapping(address => bool)",
        "numberOfBytes": "32",
        "value": "t_bool"
      },
      "t_mapping(t_address,t_bytes32)": {
        "encoding": "mapping",
        "key": "t_address",
        "label": "mapping(address => bytes32)",
        "numberOfBytes": "32",
        "value": "t_bytes32"
      },
      "t_mapping(t_address,t_mapping(t_address,t_bool))": {
        "encoding": "mapping",
        "key": "t_address",
        "label": "mapping(address => mapping(address => bool))",
        "numberOfBytes": "32",
        "value": "t_mapping(t_address,t_bool)"
      },
      "t_mapping(t_address,t_mapping(t_bytes32,t_mapping(t_address,t_bytes32)))": {
        "encoding": "mapping",
        "key": "t_address",
        "label": "mapping(address => mapping(bytes32 => mapping(address => bytes32)))",
        "numberOfBytes": "32",
        "value": "t_mapping(t_bytes32,t_mapping(t_address,t_bytes32))"
      },
      "t_mapping(t_address,t_uint256)": {
        "encoding": "mapping",
        "key": "t_address",
        "label": "mapping(address => uint256)",
        "numberOfBytes": "32",
        "value": "t_uint256"
      },
      "t_mapping(t_bytes32,t_bool)": {
        "encoding": "mapping",
        "key": "t_bytes32",
        "label": "mapping(bytes32 => bool)",
        "numberOfBytes": "32",
        "value": "t_bool"
      },
      "t_mapping(t_bytes32,t_mapping(t_address,t_bytes32))": {
        "encoding": "mapping",
        "key": "t_bytes32",
        "label": "mapping(bytes32 => mapping(address => bytes32))",
        "numberOfBytes": "32",
        "value": "t_mapping(t_address,t_bytes32)"
      },
      "t_mapping(t_bytes32,t_struct(BestBid)6980_storage)": {
        "encoding": "mapping",
        "key": "t_bytes32",
        "label": "mapping(bytes32 => struct BaseExchange.BestBid)",
        "numberOfBytes": "32",
        "value": "t_struct(BestBid)6980_storage"
      },
      "t_mapping(t_bytes32,t_uint256)": {
        "encoding": "mapping",
        "key": "t_bytes32",
        "label": "mapping(bytes32 => uint256)",
        "numberOfBytes": "32",
        "value": "t_uint256"
      },
      "t_mapping(t_uint256,t_address)": {
        "encoding": "mapping",
        "key": "t_uint256",
        "label": "mapping(uint256 => address)",
        "numberOfBytes": "32",
        "value": "t_address"
      },
      "t_mapping(t_uint256,t_string_storage)": {
        "encoding": "mapping",
        "key": "t_uint256",
        "label": "mapping(uint256 => string)",
        "numberOfBytes": "32",
        "value": "t_string_storage"
      },
      "t_mapping(t_uint256,t_uint256)": {
        "encoding": "mapping",
        "key": "t_uint256",
        "label": "mapping(uint256 => uint256)",
        "numberOfBytes": "32",
        "value": "t_uint256"
      },
      "t_string_storage": {
        "encoding": "bytes",
        "label": "string",
        "numberOfBytes": "32"
      },
      "t_struct(BestBid)6980_storage": {
        "encoding": "inplace",
        "label": "struct BaseExchange.BestBid",
        "members": [
          {
            "astId": 6969,
            "contract": "contracts/NFT721V0.sol:NFT721V0",
            "label": "bidder",
            "offset": 0,
            "slot": "0",
            "type": "t_address"
          },
          {
            "astId": 6971,
            "contract": "contracts/NFT721V0.sol:NFT721V0",
            "label": "amount",
            "offset": 0,
            "slot": "1",
            "type": "t_uint256"
          },
          {
            "astId": 6973,
            "contract": "contracts/NFT721V0.sol:NFT721V0",
            "label": "price",
            "offset": 0,
            "slot": "2",
            "type": "t_uint256"
          },
          {
            "astId": 6975,
            "contract": "contracts/NFT721V0.sol:NFT721V0",
            "label": "recipient",
            "offset": 0,
            "slot": "3",
            "type": "t_address"
          },
          {
            "astId": 6977,
            "contract": "contracts/NFT721V0.sol:NFT721V0",
            "label": "referrer",
            "offset": 0,
            "slot": "4",
            "type": "t_address"
          },
          {
            "astId": 6979,
            "contract": "contracts/NFT721V0.sol:NFT721V0",
            "label": "timestamp",
            "offset": 0,
            "slot": "5",
            "type": "t_uint256"
          }
        ],
        "numberOfBytes": "192"
      },
      "t_uint256": {
        "encoding": "inplace",
        "label": "uint256",
        "numberOfBytes": "32"
      },
      "t_uint8": {
        "encoding": "inplace",
        "label": "uint8",
        "numberOfBytes": "1"
      }
    }
  }
}