{
  "address": "0x2f4201449a3a19337C9Cd1dEfB0E706587da172D",
  "abi": [
    {
      "anonymous": false,
      "inputs": [
        {
          "indexed": true,
          "internalType": "address",
          "name": "owner",
          "type": "address"
        },
        {
          "indexed": true,
          "internalType": "address",
          "name": "spender",
          "type": "address"
        },
        {
          "indexed": false,
          "internalType": "uint256",
          "name": "value",
          "type": "uint256"
        }
      ],
      "name": "Approval",
      "type": "event"
    },
    {
      "anonymous": false,
      "inputs": [
        {
          "indexed": true,
          "internalType": "bytes32",
          "name": "hash",
          "type": "bytes32"
        },
        {
          "indexed": false,
          "internalType": "address",
          "name": "bidder",
          "type": "address"
        },
        {
          "indexed": false,
          "internalType": "uint256",
          "name": "amount",
          "type": "uint256"
        },
        {
          "indexed": false,
          "internalType": "uint256",
          "name": "price",
          "type": "uint256"
        },
        {
          "indexed": false,
          "internalType": "address",
          "name": "recipient",
          "type": "address"
        },
        {
          "indexed": false,
          "internalType": "address",
          "name": "referrer",
          "type": "address"
        }
      ],
      "name": "Bid",
      "type": "event"
    },
    {
      "anonymous": false,
      "inputs": [
        {
          "indexed": false,
          "internalType": "uint256",
          "name": "amount",
          "type": "uint256"
        },
        {
          "indexed": true,
          "internalType": "uint256",
          "name": "label",
          "type": "uint256"
        },
        {
          "indexed": false,
          "internalType": "bytes32",
          "name": "data",
          "type": "bytes32"
        }
      ],
      "name": "Burn",
      "type": "event"
    },
    {
      "anonymous": false,
      "inputs": [
        {
          "indexed": true,
          "internalType": "bytes32",
          "name": "hash",
          "type": "bytes32"
        }
      ],
      "name": "Cancel",
      "type": "event"
    },
    {
      "anonymous": false,
      "inputs": [
        {
          "indexed": true,
          "internalType": "address",
          "name": "to",
          "type": "address"
        },
        {
          "indexed": false,
          "internalType": "uint256",
          "name": "amount",
          "type": "uint256"
        }
      ],
      "name": "DividendWithdrawn",
      "type": "event"
    },
    {
      "anonymous": false,
      "inputs": [
        {
          "indexed": true,
          "internalType": "bytes32",
          "name": "hash",
          "type": "bytes32"
        },
        {
          "indexed": false,
          "internalType": "address",
          "name": "bidder",
          "type": "address"
        },
        {
          "indexed": false,
          "internalType": "uint256",
          "name": "amount",
          "type": "uint256"
        },
        {
          "indexed": false,
          "internalType": "uint256",
          "name": "price",
          "type": "uint256"
        },
        {
          "indexed": false,
          "internalType": "address",
          "name": "recipient",
          "type": "address"
        },
        {
          "indexed": false,
          "internalType": "address",
          "name": "referrer",
          "type": "address"
        }
      ],
      "name": "Execute",
      "type": "event"
    },
    {
      "anonymous": false,
      "inputs": [
        {
          "indexed": true,
          "internalType": "address",
          "name": "previousOwner",
          "type": "address"
        },
        {
          "indexed": true,
          "internalType": "address",
          "name": "newOwner",
          "type": "address"
        }
      ],
      "name": "OwnershipTransferred",
      "type": "event"
    },
    {
      "anonymous": false,
      "inputs": [
        {
          "indexed": false,
          "internalType": "uint256",
          "name": "increased",
          "type": "uint256"
        }
      ],
      "name": "Sync",
      "type": "event"
    },
    {
      "anonymous": false,
      "inputs": [
        {
          "indexed": true,
          "internalType": "address",
          "name": "from",
          "type": "address"
        },
        {
          "indexed": true,
          "internalType": "address",
          "name": "to",
          "type": "address"
        },
        {
          "indexed": false,
          "internalType": "uint256",
          "name": "value",
          "type": "uint256"
        }
      ],
      "name": "Transfer",
      "type": "event"
    },
    {
      "inputs": [],
      "name": "DOMAIN_SEPARATOR",
      "outputs": [
        {
          "internalType": "bytes32",
          "name": "",
          "type": "bytes32"
        }
      ],
      "stateMutability": "view",
      "type": "function"
    },
    {
      "inputs": [],
      "name": "MAGNITUDE",
      "outputs": [
        {
          "internalType": "uint256",
          "name": "",
          "type": "uint256"
        }
      ],
      "stateMutability": "view",
      "type": "function"
    },
    {
      "inputs": [
        {
          "internalType": "address",
          "name": "account",
          "type": "address"
        }
      ],
      "name": "accumulativeDividendOf",
      "outputs": [
        {
          "internalType": "uint256",
          "name": "",
          "type": "uint256"
        }
      ],
      "stateMutability": "view",
      "type": "function"
    },
    {
      "inputs": [
        {
          "internalType": "address",
          "name": "owner",
          "type": "address"
        },
        {
          "internalType": "address",
          "name": "spender",
          "type": "address"
        }
      ],
      "name": "allowance",
      "outputs": [
        {
          "internalType": "uint256",
          "name": "",
          "type": "uint256"
        }
      ],
      "stateMutability": "view",
      "type": "function"
    },
    {
      "inputs": [
        {
          "internalType": "bytes32",
          "name": "",
          "type": "bytes32"
        }
      ],
      "name": "amountFilled",
      "outputs": [
        {
          "internalType": "uint256",
          "name": "",
          "type": "uint256"
        }
      ],
      "stateMutability": "view",
      "type": "function"
    },
    {
      "inputs": [
        {
          "internalType": "address",
          "name": "spender",
          "type": "address"
        },
        {
          "internalType": "uint256",
          "name": "amount",
          "type": "uint256"
        }
      ],
      "name": "approve",
      "outputs": [
        {
          "internalType": "bool",
          "name": "",
          "type": "bool"
        }
      ],
      "stateMutability": "nonpayable",
      "type": "function"
    },
    {
      "inputs": [
        {
          "internalType": "address",
          "name": "account",
          "type": "address"
        }
      ],
      "name": "balanceOf",
      "outputs": [
        {
          "internalType": "uint256",
          "name": "",
          "type": "uint256"
        }
      ],
      "stateMutability": "view",
      "type": "function"
    },
    {
      "inputs": [
        {
          "internalType": "bytes32",
          "name": "",
          "type": "bytes32"
        }
      ],
      "name": "bestBid",
      "outputs": [
        {
          "internalType": "address",
          "name": "bidder",
          "type": "address"
        },
        {
          "internalType": "uint256",
          "name": "amount",
          "type": "uint256"
        },
        {
          "internalType": "uint256",
          "name": "price",
          "type": "uint256"
        },
        {
          "internalType": "address",
          "name": "recipient",
          "type": "address"
        },
        {
          "internalType": "address",
          "name": "referrer",
          "type": "address"
        },
        {
          "internalType": "uint256",
          "name": "blockNumber",
          "type": "uint256"
        }
      ],
      "stateMutability": "view",
      "type": "function"
    },
    {
      "inputs": [
        {
          "components": [
            {
              "internalType": "address",
              "name": "signer",
              "type": "address"
            },
            {
              "internalType": "address",
              "name": "token",
              "type": "address"
            },
            {
              "internalType": "uint256",
              "name": "tokenId",
              "type": "uint256"
            },
            {
              "internalType": "uint256",
              "name": "amount",
              "type": "uint256"
            },
            {
              "internalType": "address",
              "name": "strategy",
              "type": "address"
            },
            {
              "internalType": "address",
              "name": "currency",
              "type": "address"
            },
            {
              "internalType": "address",
              "name": "recipient",
              "type": "address"
            },
            {
              "internalType": "uint256",
              "name": "deadline",
              "type": "uint256"
            },
            {
              "internalType": "bytes",
              "name": "params",
              "type": "bytes"
            },
            {
              "internalType": "uint8",
              "name": "v",
              "type": "uint8"
            },
            {
              "internalType": "bytes32",
              "name": "r",
              "type": "bytes32"
            },
            {
              "internalType": "bytes32",
              "name": "s",
              "type": "bytes32"
            }
          ],
          "internalType": "struct Orders.Ask",
          "name": "askOrder",
          "type": "tuple"
        },
        {
          "internalType": "uint256",
          "name": "bidAmount",
          "type": "uint256"
        },
        {
          "internalType": "uint256",
          "name": "bidPrice",
          "type": "uint256"
        },
        {
          "internalType": "address",
          "name": "bidRecipient",
          "type": "address"
        },
        {
          "internalType": "address",
          "name": "bidReferrer",
          "type": "address"
        }
      ],
      "name": "bid",
      "outputs": [
        {
          "internalType": "bool",
          "name": "executed",
          "type": "bool"
        }
      ],
      "stateMutability": "nonpayable",
      "type": "function"
    },
    {
      "inputs": [
        {
          "components": [
            {
              "internalType": "address",
              "name": "signer",
              "type": "address"
            },
            {
              "internalType": "address",
              "name": "token",
              "type": "address"
            },
            {
              "internalType": "uint256",
              "name": "tokenId",
              "type": "uint256"
            },
            {
              "internalType": "uint256",
              "name": "amount",
              "type": "uint256"
            },
            {
              "internalType": "address",
              "name": "strategy",
              "type": "address"
            },
            {
              "internalType": "address",
              "name": "currency",
              "type": "address"
            },
            {
              "internalType": "address",
              "name": "recipient",
              "type": "address"
            },
            {
              "internalType": "uint256",
              "name": "deadline",
              "type": "uint256"
            },
            {
              "internalType": "bytes",
              "name": "params",
              "type": "bytes"
            },
            {
              "internalType": "uint8",
              "name": "v",
              "type": "uint8"
            },
            {
              "internalType": "bytes32",
              "name": "r",
              "type": "bytes32"
            },
            {
              "internalType": "bytes32",
              "name": "s",
              "type": "bytes32"
            }
          ],
          "internalType": "struct Orders.Ask",
          "name": "askOrder",
          "type": "tuple"
        },
        {
          "components": [
            {
              "internalType": "bytes32",
              "name": "askHash",
              "type": "bytes32"
            },
            {
              "internalType": "address",
              "name": "signer",
              "type": "address"
            },
            {
              "internalType": "uint256",
              "name": "amount",
              "type": "uint256"
            },
            {
              "internalType": "uint256",
              "name": "price",
              "type": "uint256"
            },
            {
              "internalType": "address",
              "name": "recipient",
              "type": "address"
            },
            {
              "internalType": "address",
              "name": "referrer",
              "type": "address"
            },
            {
              "internalType": "uint8",
              "name": "v",
              "type": "uint8"
            },
            {
              "internalType": "bytes32",
              "name": "r",
              "type": "bytes32"
            },
            {
              "internalType": "bytes32",
              "name": "s",
              "type": "bytes32"
            }
          ],
          "internalType": "struct Orders.Bid",
          "name": "bidOrder",
          "type": "tuple"
        }
      ],
      "name": "bid",
      "outputs": [
        {
          "internalType": "bool",
          "name": "executed",
          "type": "bool"
        }
      ],
      "stateMutability": "nonpayable",
      "type": "function"
    },
    {
      "inputs": [
        {
          "internalType": "uint256",
          "name": "value",
          "type": "uint256"
        },
        {
          "internalType": "uint256",
          "name": "label",
          "type": "uint256"
        },
        {
          "internalType": "bytes32",
          "name": "data",
          "type": "bytes32"
        }
      ],
      "name": "burn",
      "outputs": [],
      "stateMutability": "nonpayable",
      "type": "function"
    },
    {
      "inputs": [
        {
          "internalType": "address",
          "name": "token",
          "type": "address"
        }
      ],
      "name": "canTrade",
      "outputs": [
        {
          "internalType": "bool",
          "name": "",
          "type": "bool"
        }
      ],
      "stateMutability": "view",
      "type": "function"
    },
    {
      "inputs": [
        {
          "components": [
            {
              "internalType": "address",
              "name": "signer",
              "type": "address"
            },
            {
              "internalType": "address",
              "name": "token",
              "type": "address"
            },
            {
              "internalType": "uint256",
              "name": "tokenId",
              "type": "uint256"
            },
            {
              "internalType": "uint256",
              "name": "amount",
              "type": "uint256"
            },
            {
              "internalType": "address",
              "name": "strategy",
              "type": "address"
            },
            {
              "internalType": "address",
              "name": "currency",
              "type": "address"
            },
            {
              "internalType": "address",
              "name": "recipient",
              "type": "address"
            },
            {
              "internalType": "uint256",
              "name": "deadline",
              "type": "uint256"
            },
            {
              "internalType": "bytes",
              "name": "params",
              "type": "bytes"
            },
            {
              "internalType": "uint8",
              "name": "v",
              "type": "uint8"
            },
            {
              "internalType": "bytes32",
              "name": "r",
              "type": "bytes32"
            },
            {
              "internalType": "bytes32",
              "name": "s",
              "type": "bytes32"
            }
          ],
          "internalType": "struct Orders.Ask",
          "name": "order",
          "type": "tuple"
        }
      ],
      "name": "cancel",
      "outputs": [],
      "stateMutability": "nonpayable",
      "type": "function"
    },
    {
      "inputs": [
        {
          "components": [
            {
              "internalType": "address",
              "name": "signer",
              "type": "address"
            },
            {
              "internalType": "address",
              "name": "token",
              "type": "address"
            },
            {
              "internalType": "uint256",
              "name": "tokenId",
              "type": "uint256"
            },
            {
              "internalType": "uint256",
              "name": "amount",
              "type": "uint256"
            },
            {
              "internalType": "address",
              "name": "strategy",
              "type": "address"
            },
            {
              "internalType": "address",
              "name": "currency",
              "type": "address"
            },
            {
              "internalType": "address",
              "name": "recipient",
              "type": "address"
            },
            {
              "internalType": "uint256",
              "name": "deadline",
              "type": "uint256"
            },
            {
              "internalType": "bytes",
              "name": "params",
              "type": "bytes"
            },
            {
              "internalType": "uint8",
              "name": "v",
              "type": "uint8"
            },
            {
              "internalType": "bytes32",
              "name": "r",
              "type": "bytes32"
            },
            {
              "internalType": "bytes32",
              "name": "s",
              "type": "bytes32"
            }
          ],
          "internalType": "struct Orders.Ask",
          "name": "askOrder",
          "type": "tuple"
        }
      ],
      "name": "claim",
      "outputs": [],
      "stateMutability": "nonpayable",
      "type": "function"
    },
    {
      "inputs": [],
      "name": "decimals",
      "outputs": [
        {
          "internalType": "uint8",
          "name": "",
          "type": "uint8"
        }
      ],
      "stateMutability": "view",
      "type": "function"
    },
    {
      "inputs": [
        {
          "internalType": "address",
          "name": "spender",
          "type": "address"
        },
        {
          "internalType": "uint256",
          "name": "subtractedValue",
          "type": "uint256"
        }
      ],
      "name": "decreaseAllowance",
      "outputs": [
        {
          "internalType": "bool",
          "name": "",
          "type": "bool"
        }
      ],
      "stateMutability": "nonpayable",
      "type": "function"
    },
    {
      "inputs": [
        {
          "internalType": "address",
          "name": "account",
          "type": "address"
        }
      ],
      "name": "dividendOf",
      "outputs": [
        {
          "internalType": "uint256",
          "name": "",
          "type": "uint256"
        }
      ],
      "stateMutability": "view",
      "type": "function"
    },
    {
      "inputs": [],
      "name": "dividendToken",
      "outputs": [
        {
          "internalType": "address",
          "name": "",
          "type": "address"
        }
      ],
      "stateMutability": "view",
      "type": "function"
    },
    {
      "inputs": [],
      "name": "factory",
      "outputs": [
        {
          "internalType": "address",
          "name": "",
          "type": "address"
        }
      ],
      "stateMutability": "view",
      "type": "function"
    },
    {
      "inputs": [
        {
          "internalType": "address",
          "name": "spender",
          "type": "address"
        },
        {
          "internalType": "uint256",
          "name": "addedValue",
          "type": "uint256"
        }
      ],
      "name": "increaseAllowance",
      "outputs": [
        {
          "internalType": "bool",
          "name": "",
          "type": "bool"
        }
      ],
      "stateMutability": "nonpayable",
      "type": "function"
    },
    {
      "inputs": [
        {
          "internalType": "address",
          "name": "_owner",
          "type": "address"
        },
        {
          "internalType": "string",
          "name": "_name",
          "type": "string"
        },
        {
          "internalType": "string",
          "name": "_symbol",
          "type": "string"
        },
        {
          "internalType": "address",
          "name": "_dividendToken",
          "type": "address"
        }
      ],
      "name": "initialize",
      "outputs": [],
      "stateMutability": "nonpayable",
      "type": "function"
    },
    {
      "inputs": [
        {
          "internalType": "bytes32",
          "name": "",
          "type": "bytes32"
        }
      ],
      "name": "isCancelled",
      "outputs": [
        {
          "internalType": "bool",
          "name": "",
          "type": "bool"
        }
      ],
      "stateMutability": "view",
      "type": "function"
    },
    {
      "inputs": [
        {
          "internalType": "address",
          "name": "account",
          "type": "address"
        },
        {
          "internalType": "uint256",
          "name": "value",
          "type": "uint256"
        }
      ],
      "name": "mint",
      "outputs": [],
      "stateMutability": "nonpayable",
      "type": "function"
    },
    {
      "inputs": [],
      "name": "name",
      "outputs": [
        {
          "internalType": "string",
          "name": "",
          "type": "string"
        }
      ],
      "stateMutability": "view",
      "type": "function"
    },
    {
      "inputs": [],
      "name": "owner",
      "outputs": [
        {
          "internalType": "address",
          "name": "",
          "type": "address"
        }
      ],
      "stateMutability": "view",
      "type": "function"
    },
    {
      "inputs": [],
      "name": "renounceOwnership",
      "outputs": [],
      "stateMutability": "nonpayable",
      "type": "function"
    },
    {
      "inputs": [],
      "name": "royaltyFeeInfo",
      "outputs": [
        {
          "internalType": "address",
          "name": "",
          "type": "address"
        },
        {
          "internalType": "uint8",
          "name": "",
          "type": "uint8"
        }
      ],
      "stateMutability": "view",
      "type": "function"
    },
    {
      "inputs": [],
      "name": "symbol",
      "outputs": [
        {
          "internalType": "string",
          "name": "",
          "type": "string"
        }
      ],
      "stateMutability": "view",
      "type": "function"
    },
    {
      "inputs": [],
      "name": "sync",
      "outputs": [
        {
          "internalType": "uint256",
          "name": "increased",
          "type": "uint256"
        }
      ],
      "stateMutability": "payable",
      "type": "function"
    },
    {
      "inputs": [],
      "name": "totalDividend",
      "outputs": [
        {
          "internalType": "uint256",
          "name": "",
          "type": "uint256"
        }
      ],
      "stateMutability": "view",
      "type": "function"
    },
    {
      "inputs": [],
      "name": "totalSupply",
      "outputs": [
        {
          "internalType": "uint256",
          "name": "",
          "type": "uint256"
        }
      ],
      "stateMutability": "view",
      "type": "function"
    },
    {
      "inputs": [
        {
          "internalType": "address",
          "name": "recipient",
          "type": "address"
        },
        {
          "internalType": "uint256",
          "name": "amount",
          "type": "uint256"
        }
      ],
      "name": "transfer",
      "outputs": [
        {
          "internalType": "bool",
          "name": "",
          "type": "bool"
        }
      ],
      "stateMutability": "nonpayable",
      "type": "function"
    },
    {
      "inputs": [
        {
          "internalType": "address",
          "name": "sender",
          "type": "address"
        },
        {
          "internalType": "address",
          "name": "recipient",
          "type": "address"
        },
        {
          "internalType": "uint256",
          "name": "amount",
          "type": "uint256"
        }
      ],
      "name": "transferFrom",
      "outputs": [
        {
          "internalType": "bool",
          "name": "",
          "type": "bool"
        }
      ],
      "stateMutability": "nonpayable",
      "type": "function"
    },
    {
      "inputs": [
        {
          "internalType": "address",
          "name": "newOwner",
          "type": "address"
        }
      ],
      "name": "transferOwnership",
      "outputs": [],
      "stateMutability": "nonpayable",
      "type": "function"
    },
    {
      "inputs": [],
      "name": "withdrawDividend",
      "outputs": [],
      "stateMutability": "nonpayable",
      "type": "function"
    },
    {
      "inputs": [
        {
          "internalType": "address",
          "name": "account",
          "type": "address"
        }
      ],
      "name": "withdrawableDividendOf",
      "outputs": [
        {
          "internalType": "uint256",
          "name": "",
          "type": "uint256"
        }
      ],
      "stateMutability": "view",
      "type": "function"
    },
    {
      "inputs": [
        {
          "internalType": "address",
          "name": "account",
          "type": "address"
        }
      ],
      "name": "withdrawnDividendOf",
      "outputs": [
        {
          "internalType": "uint256",
          "name": "",
          "type": "uint256"
        }
      ],
      "stateMutability": "view",
      "type": "function"
    },
    {
      "stateMutability": "payable",
      "type": "receive"
    }
  ],
  "transactionHash": "0xad5af4e8da9a832667a90daefabe754b47fe0c6050b14c930e113f9cd5f2653d",
  "args": [],
  "solcInputHash": "649f3e90395d33e221dc9854e5364e1a",
  "bytecode": "0x608060405234801561001057600080fd5b50613bc2806100206000396000f3fe60806040526004361061021d5760003560e01c80636a474002116101235780639a5d4407116100ab578063c45a01551161006f578063c45a01551461075a578063dd62ed3e14610778578063def27164146107be578063f2fde38b146107de578063fff6cae9146107fe57610292565b80639a5d440714610694578063a457c2d7146106c4578063a8b9d240146106e4578063a9059cbb14610704578063aafd847a1461072457610292565b806375e6590f116100f257806375e6590f146105f45780638da5cb5b1461062157806391b89fba1461063f5780639443792c1461065f57806395d89b411461067f57610292565b80636a4740021461057c5780636d3036a71461059157806370a08231146105a9578063715018a6146105df57610292565b80633644e515116101a65780634b6acafb116101755780634b6acafb1461045a57806350bf994a14610470578063559f05dc146104915780635771f997146104bd578063613d25bb1461055c57610292565b80633644e515146103e557806339509351146103fa57806340c10f191461041a57806344f09d111461043a57610292565b80631582358e116101ed5780631582358e1461033257806318160ddd1461036a57806323b872dd1461038957806327ce0147146103a9578063313ce567146103c957610292565b8062893bf81461029757806306fdde03146102b75780630935d663146102e2578063095ea7b31461030257610292565b36610292573415610290576006546001600160a01b0316156102865760405162461bcd60e51b815260206004820152601c60248201527f53484f59553a20554e41424c455f544f5f524543454956455f4554480000000060448201526064015b60405180910390fd5b61028e610802565b505b005b600080fd5b3480156102a357600080fd5b506102906102b2366004613633565b61093a565b3480156102c357600080fd5b506102cc610a0e565b6040516102d99190613885565b60405180910390f35b3480156102ee57600080fd5b506102906102fd366004613633565b610aa0565b34801561030e57600080fd5b5061032261031d36600461357a565b610e1a565b60405190151581526020016102d9565b34801561033e57600080fd5b50600654610352906001600160a01b031681565b6040516001600160a01b0390911681526020016102d9565b34801561037657600080fd5b506003545b6040519081526020016102d9565b34801561039557600080fd5b506103226103a43660046134b4565b610e31565b3480156103b557600080fd5b5061037b6103c4366004613460565b610ed3565b3480156103d557600080fd5b50604051601281526020016102d9565b3480156103f157600080fd5b5061037b610f38565b34801561040657600080fd5b5061032261041536600461357a565b610fe4565b34801561042657600080fd5b5061029061043536600461357a565b61101b565b34801561044657600080fd5b50610322610455366004613739565b611053565b34801561046657600080fd5b5061037b60075481565b34801561047c57600080fd5b506040805160008082526020820152016102d9565b34801561049d57600080fd5b506103226104ac366004613460565b6001600160a01b0381163014919050565b3480156104c957600080fd5b5061051d6104d83660046135f3565b600c602052600090815260409020805460018201546002830154600384015460048501546005909501546001600160a01b039485169593949293918316929091169086565b604080516001600160a01b03978816815260208101969096528501939093529084166060840152909216608082015260a081019190915260c0016102d9565b34801561056857600080fd5b506102906105773660046134f4565b6110a3565b34801561058857600080fd5b506102906111cb565b34801561059d57600080fd5b5061037b600160801b81565b3480156105b557600080fd5b5061037b6105c4366004613460565b6001600160a01b031660009081526001602052604090205490565b3480156105eb57600080fd5b50610290611268565b34801561060057600080fd5b5061037b61060f3660046135f3565b600e6020526000908152604090205481565b34801561062d57600080fd5b50600f546001600160a01b0316610352565b34801561064b57600080fd5b5061037b61065a366004613460565b6112dc565b34801561066b57600080fd5b5061029061067a3660046137c7565b6112e7565b34801561068b57600080fd5b506102cc611331565b3480156106a057600080fd5b506103226106af3660046135f3565b600d6020526000908152604090205460ff1681565b3480156106d057600080fd5b506103226106df36600461357a565b611340565b3480156106f057600080fd5b5061037b6106ff366004613460565b6113cd565b34801561071057600080fd5b5061032261071f36600461357a565b6113f9565b34801561073057600080fd5b5061037b61073f366004613460565b6001600160a01b03166000908152600a602052604090205490565b34801561076657600080fd5b506012546001600160a01b0316610352565b34801561078457600080fd5b5061037b61079336600461347c565b6001600160a01b03918216600090815260026020908152604080832093909416825291909152205490565b3480156107ca57600080fd5b506103226107d9366004613666565b611406565b3480156107ea57600080fd5b506102906107f9366004613460565b611531565b61037b5b60008061080e60035490565b9050600081116108535760405162461bcd60e51b815260206004820152601060248201526f53484f59553a204e4f5f535550504c5960801b604482015260640161027d565b60065460009061086c906001600160a01b03163061160d565b90506007548161087c9190613abe565b9250600083116108ce5760405162461bcd60e51b815260206004820152601a60248201527f53484f59553a20494e53554646494349454e545f414d4f554e54000000000000604482015260640161027d565b816108dd600160801b85613a60565b6108e79190613a40565b600860008282546108f89190613a28565b909155505060078190556040518381527f8a0df8ef054fae2c3d2d19a7b322e864870cc9fd3cb07fb9526309c596244bf49060200160405180910390a1505090565b80516001600160a01b031633146109635760405162461bcd60e51b815260040161027d90613898565b600061096e826116ae565b6000818152600c60205260409020549091506001600160a01b0316156109ca5760405162461bcd60e51b815260206004820152601160248201527053484f59553a204249445f45584953545360781b604482015260640161027d565b6000818152600d6020526040808220805460ff191660011790555182917fe8d9861dbc9c663ed3accd261bbe2fe01e0d3d9e5f51fa38523b265c7757a93a91a25050565b606060048054610a1d90613b01565b80601f0160208091040260200160405190810160405280929190818152602001828054610a4990613b01565b8015610a965780601f10610a6b57610100808354040283529160200191610a96565b820191906000526020600020905b815481529060010190602001808311610a7957829003601f168201915b5050505050905090565b6002600b541415610ac35760405162461bcd60e51b815260040161027d906138c2565b6002600b5560208101516001600160a01b03163014610b1e5760405162461bcd60e51b815260206004820152601760248201527653484f59553a20494e56414c49445f45584348414e474560481b604482015260640161027d565b6000610b29826116ae565b9050610b35828261178c565b610b5d818360000151846101200151856101400151866101600151610b58610f38565b611a51565b6000818152600c6020908152604091829020825160c08101845281546001600160a01b039081168083526001840154948301949094526002830154828601819052600384015482166060840152600480850154831660808086019190915260059095015460a08501529388015160e08901516101008a0151975163e01be26360e01b81529497919093169563e01be26395610bfc95929391920161393a565b60206040518083038186803b158015610c1457600080fd5b505afa158015610c28573d6000803e3d6000fd5b505050506040513d601f19601f82011682018060405250810190610c4c91906135d3565b610c895760405162461bcd60e51b815260206004820152600e60248201526d53484f59553a204641494c55524560901b604482015260640161027d565b60c08301516001600160a01b038116610ca0575082515b610cc78460a0015183600001518385602001518660400151610cc29190613a60565b611c10565b15610dce576020808301516000858152600e909252604090912054610cec9190613a28565b6000848152600e602052604090205560608201516001600160a01b038116610d12575081515b610d2f856020015186600001518388604001518760200151611e34565b6000848152600c6020908152604080832080546001600160a01b03199081168255600182018590556002820185905560038201805482169055600482018054909116905560050192909255845190850151858301516080870151935188947f72fd87c5ad3903eb05815544ef7ea4640a18e631c9c02eb099c810834f82355594610dc094909390929091889161383a565b60405180910390a250610e0f565b6000838152600d6020526040808220805460ff191660011790555184917fe8d9861dbc9c663ed3accd261bbe2fe01e0d3d9e5f51fa38523b265c7757a93a91a25b50506001600b555050565b6000610e27338484611e3f565b5060015b92915050565b6000610e3e848484611f3d565b6001600160a01b038416600090815260026020908152604080832033845290915290205482811015610eb25760405162461bcd60e51b815260206004820152601d60248201527f53484f59553a20494e53554646494349454e545f414c4c4f57414e4345000000604482015260640161027d565b610ec68533610ec18685613abe565b611e3f565b60019150505b9392505050565b6001600160a01b0381166000908152600960209081526040808320546001909252822054600160801b91610f2691610f1790600854610f129190613a60565b611fc0565b610f2191906139e7565b61202a565b610f309190613a40565b90505b919050565b600080466011541415610f4e5750601054610fdf565b7f8b73c3c69bb8fe3d512ecc4cf759cc79239f7b179b0ffacaa9a75d522b39400f610f77610a0e565b80516020918201206040805192830193909352918101919091527fc89efdaa54c0f20c7adf612882df0950f5a951637e0307cdcb4c672f298b8bc660608201524660808201523060a082015260c0016040516020818303038152906040528051906020012090505b905090565b3360008181526002602090815260408083206001600160a01b03871684529091528120549091610e27918590610ec1908690613a28565b600f546001600160a01b031633146110455760405162461bcd60e51b815260040161027d90613898565b61104f828261207c565b5050565b60006002600b5414156110785760405162461bcd60e51b815260040161027d906138c2565b6002600b556110948661108a816116ae565b33888888886120c8565b6001600b559695505050505050565b600054610100900460ff16806110bc575060005460ff16155b6110d85760405162461bcd60e51b815260040161027d906138ec565b600054610100900460ff161580156110fa576000805461ffff19166101011790555b61110385612522565b61110e848484612597565b601280546001600160a01b031916331790554660118190558451602080870191909120604080517f8b73c3c69bb8fe3d512ecc4cf759cc79239f7b179b0ffacaa9a75d522b39400f938101939093528201527fc89efdaa54c0f20c7adf612882df0950f5a951637e0307cdcb4c672f298b8bc6606082015260808101919091523060a082015260c00160408051601f19818403018152919052805160209091012060105580156111c4576000805461ff00191690555b5050505050565b60006111d6336113cd565b9050801561126557336000908152600a6020526040812080548392906111fd908490613a28565b909155505060405181815233907fee503bee2bb6a87e57bc57db795f98137327401a0e7b7ce42e37926cc1a9ca4d9060200160405180910390a280600760008282546112499190613abe565b9091555050600654611265906001600160a01b0316338361262b565b50565b600f546001600160a01b031633146112925760405162461bcd60e51b815260040161027d90613898565b600f546040516000916001600160a01b0316907f8be0079c531659141344cd1fd0a4f28419497f9722a3daafe3b4186f6b6457e0908390a3600f80546001600160a01b0319169055565b6000610f30826113cd565b6112f133846126fb565b604080518481526020810183905283917fb76a0da8ff1f8c54a41e3017cf87c65fc8f03e38d23eb45d4e9a1a5d7635b4c0910160405180910390a2505050565b606060058054610a1d90613b01565b3360009081526002602090815260408083206001600160a01b0386168452909152812054828110156113b45760405162461bcd60e51b815260206004820152601a60248201527f53484f59553a20414c4c4f57414e43455f554e444552464c4f57000000000000604482015260640161027d565b6113c33385610ec18685613abe565b5060019392505050565b6001600160a01b0381166000908152600a60205260408120546113ef83610ed3565b610f309190613abe565b6000610e27338484611f3d565b60006002600b54141561142b5760405162461bcd60e51b815260040161027d906138c2565b6002600b55600061143b846116ae565b835190915081146114865760405162461bcd60e51b81526020600482015260156024820152740a6909eb2aa7440aa9c9a82a886908a88be9082a69605b1b604482015260640161027d565b60208301516001600160a01b03166114d85760405162461bcd60e51b815260206004820152601560248201527429a427acaa9d1024a72b20a624a22fa9a4a3a722a960591b604482015260640161027d565b6115016114e48461273e565b84602001518560c001518660e00151876101000151610b58610f38565b611524848285602001518660400151876060015188608001518960a001516120c8565b6001600b55949350505050565b600f546001600160a01b0316331461155b5760405162461bcd60e51b815260040161027d90613898565b6001600160a01b0381166115b15760405162461bcd60e51b815260206004820152601860248201527f53484f59553a20494e56414c49445f4e45575f4f574e45520000000000000000604482015260640161027d565b600f546040516001600160a01b038084169216907f8be0079c531659141344cd1fd0a4f28419497f9722a3daafe3b4186f6b6457e090600090a3600f80546001600160a01b0319166001600160a01b0392909216919091179055565b60006001600160a01b03831661162e57506001600160a01b03811631610e2b565b6040516370a0823160e01b81526001600160a01b0383811660048301528416906370a082319060240160206040518083038186803b15801561166f57600080fd5b505afa158015611683573d6000803e3d6000fd5b505050506040513d601f19601f820116820180604052508101906116a791906137af565b9050610e2b565b80516020808301516040808501516060860151608087015160a088015160c089015160e08a01516101008b01518051908a0120965160009a61176f9a7f17fdf8831f8bd77353b30f42ba9bc64e7144545a42a890389f298feeb45dec889a9199919897969594939201998a526001600160a01b0398891660208b015296881660408a01526060890195909552608088019390935290851660a0870152841660c086015290921660e08401526101008301919091526101208201526101400190565b604051602081830303815290604052805190602001209050919050565b6000818152600d602052604090205460ff16156117de5760405162461bcd60e51b815260206004820152601060248201526f14d213d6554e8810d05390d15313115160821b604482015260640161027d565b81516001600160a01b031661182c5760405162461bcd60e51b815260206004820152601460248201527329a427acaa9d1024a72b20a624a22fa6a0a5a2a960611b604482015260640161027d565b60208201516001600160a01b031661187b5760405162461bcd60e51b815260206004820152601260248201527114d213d6554e881253959053125117d3919560721b604482015260640161027d565b60008260600151116118c75760405162461bcd60e51b815260206004820152601560248201527414d213d6554e881253959053125117d05353d55395605a1b604482015260640161027d565b60808201516001600160a01b03166119215760405162461bcd60e51b815260206004820152601760248201527f53484f59553a20494e56414c49445f5354524154454759000000000000000000604482015260640161027d565b60a08201516001600160a01b031661197b5760405162461bcd60e51b815260206004820152601760248201527f53484f59553a20494e56414c49445f43555252454e4359000000000000000000604482015260640161027d565b6012546001600160a01b03166080830151604051632666e89f60e21b81526001600160a01b03918216600482015291169063999ba27c9060240160206040518083038186803b1580156119cd57600080fd5b505afa1580156119e1573d6000803e3d6000fd5b505050506040513d601f19601f82011682018060405250810190611a0591906135d3565b61104f5760405162461bcd60e51b815260206004820152601f60248201527f53484f59553a2053545241544547595f4e4f545f57484954454c495354454400604482015260640161027d565b60405161190160f01b60208201526022810182905260428101879052600090606201604051602081830303815290604052805190602001209050611a95863b151590565b15611ba557604080516020810186905280820185905260f887901b6001600160f81b0319166060820152815160418183030181526061820192839052630b135d3f60e11b9092526001600160a01b03881691631626ba7e91611afb91859160650161386c565b60206040518083038186803b158015611b1357600080fd5b505afa158015611b27573d6000803e3d6000fd5b505050506040513d601f19601f82011682018060405250810190611b4b919061360b565b6001600160e01b031916631626ba7e60e01b14611ba05760405162461bcd60e51b815260206004820152601360248201527214d213d6554e8815539055551213d492569151606a1b604482015260640161027d565b611c07565b856001600160a01b0316611bbb828787876127c9565b6001600160a01b031614611c075760405162461bcd60e51b815260206004820152601360248201527214d213d6554e8815539055551213d492569151606a1b604482015260640161027d565b50505050505050565b6000611c1e85853085612972565b611c2a57506000611e2c565b6000611c3e6012546001600160a01b031690565b90506000839050600080836001600160a01b031663aec0b5436040518163ffffffff1660e01b8152600401604080518083038186803b158015611c8057600080fd5b505afa158015611c94573d6000803e3d6000fd5b505050506040513d601f19601f82011682018060405250810190611cb891906135a5565b909250905060006103e8611ccf60ff841689613a60565b611cd99190613a40565b9050611cef6001600160a01b038b168483612a44565b611cf98185613abe565b9350505050600080836001600160a01b031663c2b11e186040518163ffffffff1660e01b8152600401604080518083038186803b158015611d3957600080fd5b505afa158015611d4d573d6000803e3d6000fd5b505050506040513d601f19601f82011682018060405250810190611d7191906135a5565b909250905060006103e8611d8860ff841689613a60565b611d929190613a40565b9050611da86001600160a01b038b168483612a44565b611db28185613abe565b9350505050600080611dc360008091565b909250905060ff80821614611e0f5760006103e8611de460ff841686613a60565b611dee9190613a40565b90508015611e0d57611e008185613abe565b9350611e0d8a8483612a96565b505b611e236001600160a01b038a168885612a44565b60019450505050505b949350505050565b6111c4848483611f3d565b6001600160a01b038316611e8c5760405162461bcd60e51b815260206004820152601460248201527329a427acaa9d1024a72b20a624a22fa7aba722a960611b604482015260640161027d565b6001600160a01b038216611edb5760405162461bcd60e51b815260206004820152601660248201527529a427acaa9d1024a72b20a624a22fa9a822a72222a960511b604482015260640161027d565b6001600160a01b0383811660008181526002602090815260408083209487168084529482529182902085905590518481527f8c5be1e5ebec7d5bd14f71427d1e84f3dd0314c0f7b2291e5b200ac8c7c3b92591015b60405180910390a3505050565b611f48838383612b25565b6000611f5b82600854610f129190613a60565b6001600160a01b038516600090815260096020526040812080549293508392909190611f889084906139e7565b90915550506001600160a01b03831660009081526009602052604081208054839290611fb5908490613a7f565b909155505050505050565b6000600160ff1b82106120265760405162461bcd60e51b815260206004820152602860248201527f53616665436173743a2076616c756520646f65736e27742066697420696e2061604482015267371034b73a191a9b60c11b606482015260840161027d565b5090565b6000808212156120265760405162461bcd60e51b815260206004820181905260248201527f53616665436173743a2076616c7565206d75737420626520706f736974697665604482015260640161027d565b6120868282612ccc565b61209781600854610f129190613a60565b6001600160a01b038316600090815260096020526040812080549091906120bf908490613a7f565b90915550505050565b60208701516000906001600160a01b031630146121215760405162461bcd60e51b815260206004820152601760248201527653484f59553a20494e56414c49445f45584348414e474560481b604482015260640161027d565b600085116121695760405162461bcd60e51b815260206004820152601560248201527414d213d6554e881253959053125117d05353d55395605a1b604482015260640161027d565b6000878152600e602052604090205460608901516121878783613a28565b11156121c75760405162461bcd60e51b815260206004820152600f60248201526e14d213d6554e8814d3d31117d3d555608a1b604482015260640161027d565b6121d1898961178c565b6121f4888a600001518b61012001518c61014001518d6101600151610b58610f38565b88608001516001600160a01b031663e01be2638a60e001518b61010001518a896040518563ffffffff1660e01b8152600401612233949392919061393a565b60206040518083038186803b15801561224b57600080fd5b505afa15801561225f573d6000803e3d6000fd5b505050506040513d601f19601f8201168201806040525081019061228391906135d3565b1561238f576122928682613a28565b6000898152600e602052604090205560c08901516001600160a01b0381166122b8575088515b60a08a01516122cd908983610cc28b8b613a60565b6123195760405162461bcd60e51b815260206004820152601f60248201527f53484f59553a204641494c45445f544f5f5452414e534645525f46554e445300604482015260640161027d565b6001600160a01b03851661232b578794505b6123448a602001518b60000151878d604001518b611e34565b887f72fd87c5ad3903eb05815544ef7ea4640a18e631c9c02eb099c810834f823555898989898960405161237c95949392919061383a565b60405180910390a2600192505050612517565b6000888152600c60205260409081902060808b015160e08c01516101008d0151600284015460058501549551633140c34d60e11b815294956001600160a01b0390941694636281869a946123ec9493928f928e929060040161396f565b60206040518083038186803b15801561240457600080fd5b505afa158015612418573d6000803e3d6000fd5b505050506040513d601f19601f8201168201806040525081019061243c91906135d3565b156124dd5780546001600160a01b03808a166001600160a01b031992831617835560018301899055600283018890556003830180548883169084161790556004830180549187169190921617905543600582015560405189907f4055f76fe1f351fec66b9ba790ddbdc29eb45c038163a6b1327277441a8c65f1906124ca908b908b908b908b908b9061383a565b60405180910390a2600092505050612517565b5060405162461bcd60e51b815260206004820152600e60248201526d53484f59553a204641494c55524560901b604482015260640161027d565b979650505050505050565b600054610100900460ff168061253b575060005460ff16155b6125575760405162461bcd60e51b815260040161027d906138ec565b600054610100900460ff16158015612579576000805461ffff19166101011790555b61258282612da4565b801561104f576000805461ff00191690555050565b600054610100900460ff16806125b0575060005460ff16155b6125cc5760405162461bcd60e51b815260040161027d906138ec565b600054610100900460ff161580156125ee576000805461ffff19166101011790555b6125f88484612e59565b600680546001600160a01b0319166001600160a01b0384161790558015612625576000805461ff00191690555b50505050565b6001600160a01b0383166126e2576000826001600160a01b03168260405160006040518083038185875af1925050503d8060008114612686576040519150601f19603f3d011682016040523d82523d6000602084013e61268b565b606091505b50509050806126dc5760405162461bcd60e51b815260206004820152601760248201527f53484f59553a205452414e534645525f4641494c555245000000000000000000604482015260640161027d565b506126f6565b6126f66001600160a01b0384168383612a44565b505050565b6127058282612ed0565b61271681600854610f129190613a60565b6001600160a01b038316600090815260096020526040812080549091906120bf9084906139e7565b80516020808301516040808501516060860151608087015160a0880151935160009761176f977fb98e1dc48988064e6dfb813618609d7da80a8841e5f277039788ac4b50d497b297919691959493920196875260208701959095526001600160a01b03938416604087015260608601929092526080850152811660a08401521660c082015260e00190565b60007f7fffffffffffffffffffffffffffffff5d576e7357a4501ddfe92f46681b20a08211156128465760405162461bcd60e51b815260206004820152602260248201527f45434453413a20696e76616c6964207369676e6174757265202773272076616c604482015261756560f01b606482015260840161027d565b8360ff16601b148061285b57508360ff16601c145b6128b25760405162461bcd60e51b815260206004820152602260248201527f45434453413a20696e76616c6964207369676e6174757265202776272076616c604482015261756560f01b606482015260840161027d565b6040805160008082526020820180845288905260ff871692820192909252606081018590526080810184905260019060a0016020604051602081039080840390855afa158015612906573d6000803e3d6000fd5b5050604051601f1901519150506001600160a01b0381166129695760405162461bcd60e51b815260206004820152601860248201527f45434453413a20696e76616c6964207369676e61747572650000000000000000604482015260640161027d565b95945050505050565b604080516001600160a01b0385811660248301528481166044830152606480830185905283518084039091018152608490920183526020820180516001600160e01b03166323b872dd60e01b179052915160009283928392918916916129d8919061381e565b6000604051808303816000865af19150503d8060008114612a15576040519150601f19603f3d011682016040523d82523d6000602084013e612a1a565b606091505b509150915081801561251757508051158061251757508080602001905181019061251791906135d3565b604080516001600160a01b038416602482015260448082018490528251808303909101815260649091019091526020810180516001600160e01b031663a9059cbb60e01b1790526126f6908490613003565b612aaa6001600160a01b0384168383612a44565b813b156126f657816001600160a01b031663fff6cae96040518163ffffffff1660e01b8152600401602060405180830381600087803b158015612aec57600080fd5b505af1925050508015612b1c575060408051601f3d908101601f19168201909252612b19918101906137af565b60015b612625576126f6565b6001600160a01b038316612b735760405162461bcd60e51b815260206004820152601560248201527429a427acaa9d1024a72b20a624a22fa9a2a72222a960591b604482015260640161027d565b6001600160a01b038216612bc95760405162461bcd60e51b815260206004820152601860248201527f53484f59553a20494e56414c49445f524543495049454e540000000000000000604482015260640161027d565b6001600160a01b03831660009081526001602052604090205481811015612c325760405162461bcd60e51b815260206004820152601b60248201527f53484f59553a20494e53554646494349454e545f42414c414e43450000000000604482015260640161027d565b612c3c8282613abe565b6001600160a01b038086166000908152600160205260408082209390935590851681529081208054849290612c72908490613a28565b92505081905550826001600160a01b0316846001600160a01b03167fddf252ad1be2c89b69c2b068fc378daa952ba7f163c4a11628f55a4df523b3ef84604051612cbe91815260200190565b60405180910390a350505050565b6001600160a01b038216612d1b5760405162461bcd60e51b815260206004820152601660248201527514d213d6554e881253959053125117d050d0d3d5539560521b604482015260640161027d565b8060036000828254612d2d9190613a28565b90915550506001600160a01b03821660009081526001602052604081208054839290612d5a908490613a28565b90915550506040518181526001600160a01b038316906000907fddf252ad1be2c89b69c2b068fc378daa952ba7f163c4a11628f55a4df523b3ef9060200160405180910390a35050565b600054610100900460ff1680612dbd575060005460ff16155b612dd95760405162461bcd60e51b815260040161027d906138ec565b600054610100900460ff16158015612dfb576000805461ffff19166101011790555b600f80546001600160a01b0319166001600160a01b0384169081179091556040516000907f8be0079c531659141344cd1fd0a4f28419497f9722a3daafe3b4186f6b6457e0908290a3801561104f576000805461ff00191690555050565b600054610100900460ff1680612e72575060005460ff16155b612e8e5760405162461bcd60e51b815260040161027d906138ec565b600054610100900460ff16158015612eb0576000805461ffff19166101011790555b612eba83836130d5565b80156126f6576000805461ff0019169055505050565b6001600160a01b038216612f1f5760405162461bcd60e51b815260206004820152601660248201527514d213d6554e881253959053125117d050d0d3d5539560521b604482015260640161027d565b6001600160a01b03821660009081526001602052604090205481811015612f885760405162461bcd60e51b815260206004820152601b60248201527f53484f59553a20494e53554646494349454e545f42414c414e43450000000000604482015260640161027d565b612f928282613abe565b6001600160a01b03841660009081526001602052604081209190915560038054849290612fc0908490613abe565b90915550506040518281526000906001600160a01b038516907fddf252ad1be2c89b69c2b068fc378daa952ba7f163c4a11628f55a4df523b3ef90602001611f30565b6000613058826040518060400160405280602081526020017f5361666545524332303a206c6f772d6c6576656c2063616c6c206661696c6564815250856001600160a01b031661316a9092919063ffffffff16565b8051909150156126f6578080602001905181019061307691906135d3565b6126f65760405162461bcd60e51b815260206004820152602a60248201527f5361666545524332303a204552433230206f7065726174696f6e20646964206e6044820152691bdd081cdd58d8d9595960b21b606482015260840161027d565b600054610100900460ff16806130ee575060005460ff16155b61310a5760405162461bcd60e51b815260040161027d906138ec565b600054610100900460ff1615801561312c576000805461ffff19166101011790555b825161313f906004906020860190613265565b508151613153906005906020850190613265565b5080156126f6576000805461ff0019169055505050565b6060611e2c848460008585843b6131c35760405162461bcd60e51b815260206004820152601d60248201527f416464726573733a2063616c6c20746f206e6f6e2d636f6e7472616374000000604482015260640161027d565b600080866001600160a01b031685876040516131df919061381e565b60006040518083038185875af1925050503d806000811461321c576040519150601f19603f3d011682016040523d82523d6000602084013e613221565b606091505b50915091506125178282866060831561323b575081610ecc565b82511561324b5782518084602001fd5b8160405162461bcd60e51b815260040161027d9190613885565b82805461327190613b01565b90600052602060002090601f01602090048101928261329357600085556132d9565b82601f106132ac57805160ff19168380011785556132d9565b828001600101855582156132d9579182015b828111156132d95782518255916020019190600101906132be565b506120269291505b8082111561202657600081556001016132e1565b8035610f3381613b68565b600082601f830112613310578081fd5b813567ffffffffffffffff81111561332a5761332a613b52565b61333d601f8201601f19166020016139b6565b818152846020838601011115613351578283fd5b816020850160208301379081016020019190915292915050565b600061018080838503121561337e578182fd5b613387816139b6565b915050613393826132f5565b81526133a1602083016132f5565b602082015260408201356040820152606082013560608201526133c6608083016132f5565b60808201526133d760a083016132f5565b60a08201526133e860c083016132f5565b60c082015260e082013560e08201526101008083013567ffffffffffffffff81111561341357600080fd5b61341f85828601613300565b828401525050610120613433818401613455565b9082015261014082810135908201526101609182013591810191909152919050565b8035610f3381613b7d565b600060208284031215613471578081fd5b8135610ecc81613b68565b6000806040838503121561348e578081fd5b823561349981613b68565b915060208301356134a981613b68565b809150509250929050565b6000806000606084860312156134c8578081fd5b83356134d381613b68565b925060208401356134e381613b68565b929592945050506040919091013590565b60008060008060808587031215613509578081fd5b843561351481613b68565b9350602085013567ffffffffffffffff80821115613530578283fd5b61353c88838901613300565b94506040870135915080821115613551578283fd5b5061355e87828801613300565b925050606085013561356f81613b68565b939692955090935050565b6000806040838503121561358c578182fd5b823561359781613b68565b946020939093013593505050565b600080604083850312156135b7578182fd5b82516135c281613b68565b60208401519092506134a981613b7d565b6000602082840312156135e4578081fd5b81518015158114610ecc578182fd5b600060208284031215613604578081fd5b5035919050565b60006020828403121561361c578081fd5b81516001600160e01b031981168114610ecc578182fd5b600060208284031215613644578081fd5b813567ffffffffffffffff81111561365a578182fd5b611e2c8482850161336b565b60008082840361014081121561367a578283fd5b833567ffffffffffffffff811115613690578384fd5b61369c8682870161336b565b93505061012080601f19830112156136b2578283fd5b6136bb816139b6565b9150602085013582526136d0604086016132f5565b602083015260608501356040830152608085013560608301526136f560a086016132f5565b608083015261370660c086016132f5565b60a083015261371760e08601613455565b60c08301526101008581013560e0840152940135938101939093525092909150565b600080600080600060a08688031215613750578283fd5b853567ffffffffffffffff811115613766578384fd5b6137728882890161336b565b9550506020860135935060408601359250606086013561379181613b68565b915060808601356137a181613b68565b809150509295509295909350565b6000602082840312156137c0578081fd5b5051919050565b6000806000606084860312156137db578081fd5b505081359360208301359350604090920135919050565b6000815180845261380a816020860160208601613ad5565b601f01601f19169290920160200192915050565b60008251613830818460208701613ad5565b9190910192915050565b6001600160a01b0395861681526020810194909452604084019290925283166060830152909116608082015260a00190565b600083825260406020830152611e2c60408301846137f2565b600060208252610ecc60208301846137f2565b60208082526010908201526f29a427acaa9d102327a92124a22222a760811b604082015260600190565b60208082526010908201526f14d213d6554e8814915153951490539560821b604082015260600190565b6020808252602e908201527f496e697469616c697a61626c653a20636f6e747261637420697320616c72656160408201526d191e481a5b9a5d1a585b1a5e995960921b606082015260800190565b60008582526080602083015261395360808301866137f2565b6001600160a01b03949094166040830152506060015292915050565b600087825260c0602083015261398860c08301886137f2565b6001600160a01b03969096166040830152506060810193909352608083019190915260a09091015292915050565b604051601f8201601f1916810167ffffffffffffffff811182821017156139df576139df613b52565b604052919050565b600080821280156001600160ff1b0384900385131615613a0957613a09613b3c565b600160ff1b8390038412811615613a2257613a22613b3c565b50500190565b60008219821115613a3b57613a3b613b3c565b500190565b600082613a5b57634e487b7160e01b81526012600452602481fd5b500490565b6000816000190483118215151615613a7a57613a7a613b3c565b500290565b60008083128015600160ff1b850184121615613a9d57613a9d613b3c565b6001600160ff1b0384018313811615613ab857613ab8613b3c565b50500390565b600082821015613ad057613ad0613b3c565b500390565b60005b83811015613af0578181015183820152602001613ad8565b838111156126255750506000910152565b600181811c90821680613b1557607f821691505b60208210811415613b3657634e487b7160e01b600052602260045260246000fd5b50919050565b634e487b7160e01b600052601160045260246000fd5b634e487b7160e01b600052604160045260246000fd5b6001600160a01b038116811461126557600080fd5b60ff8116811461126557600080fdfea2646970667358221220af01c04a0a761584e09bf77167d25d45400d00397f6ca98ca1e1bccc43fd98a264736f6c63430008030033",
  "devdoc": {
    "kind": "dev",
    "methods": {
      "accumulativeDividendOf(address)": {
        "details": "accumulativeDividendOf(account) = withdrawableDividendOf(account) + withdrawnDividendOf(account) = (magnifiedDividendPerShare * balanceOf(account) + magnifiedDividendCorrections[account]) / magnitude",
        "params": {
          "account": "The address of a token holder."
        },
        "returns": {
          "_0": "The amount of dividend in wei that `account` has earned in total."
        }
      },
      "allowance(address,address)": {
        "details": "See {IERC20-allowance}."
      },
      "approve(address,uint256)": {
        "details": "See {IERC20-approve}. Requirements: - `spender` cannot be the zero address."
      },
      "balanceOf(address)": {
        "details": "See {IERC20-balanceOf}."
      },
      "decimals()": {
        "details": "Returns the number of decimals used to get its user representation. For example, if `decimals` equals `2`, a balance of `505` tokens should be displayed to a user as `5,05` (`505 / 10 ** 2`). Tokens usually opt for a value of 18, imitating the relationship between Ether and Wei. This is the value {ERC20} uses, unless this function is overridden; NOTE: This information is only used for _display_ purposes: it in no way affects any of the arithmetic of the contract, including {IERC20-balanceOf} and {IERC20-transfer}."
      },
      "decreaseAllowance(address,uint256)": {
        "details": "Atomically decreases the allowance granted to `spender` by the caller. This is an alternative to {approve} that can be used as a mitigation for problems described in {IERC20-approve}. Emits an {Approval} event indicating the updated allowance. Requirements: - `spender` cannot be the zero address. - `spender` must have allowance for the caller of at least `subtractedValue`."
      },
      "dividendOf(address)": {
        "params": {
          "account": "The address of a token holder."
        },
        "returns": {
          "_0": "The amount of dividend in wei that `account` can withdraw."
        }
      },
      "increaseAllowance(address,uint256)": {
        "details": "Atomically increases the allowance granted to `spender` by the caller. This is an alternative to {approve} that can be used as a mitigation for problems described in {IERC20-approve}. Emits an {Approval} event indicating the updated allowance. Requirements: - `spender` cannot be the zero address."
      },
      "name()": {
        "details": "Returns the name of the token."
      },
      "owner()": {
        "details": "Returns the address of the current owner."
      },
      "renounceOwnership()": {
        "details": "Leaves the contract without owner. It will not be possible to call `onlyOwner` functions anymore. Can only be called by the current owner. NOTE: Renouncing ownership will leave the contract without an owner, thereby removing any functionality that is only available to the owner."
      },
      "symbol()": {
        "details": "Returns the symbol of the token, usually a shorter version of the name."
      },
      "sync()": {
        "details": "It reverts if the total supply of tokens is 0.",
        "returns": {
          "increased": "The amount of total dividend increased It emits the `Sync` event if the amount of received ether/erc20 is greater than 0. About undistributed ether/erc20:   In each distribution, there is a small amount of ether/erc20 not distributed,     the magnified amount of which is     `(msg.value * magnitude) % totalSupply()`.   With a well-chosen `magnitude`, the amount of undistributed ether/erc20     (de-magnified) in a distribution can be less than 1 wei.   We can actually keep track of the undistributed ether/erc20 in a distribution     and try to distribute it in the next distribution,     but keeping track of such data on-chain costs much more than     the saved ether/erc20, so we don't do that."
        }
      },
      "totalSupply()": {
        "details": "See {IERC20-totalSupply}."
      },
      "transfer(address,uint256)": {
        "details": "See {IERC20-transfer}. Requirements: - `recipient` cannot be the zero address. - the caller must have a balance of at least `amount`."
      },
      "transferFrom(address,address,uint256)": {
        "details": "See {IERC20-transferFrom}. Emits an {Approval} event indicating the updated allowance. This is not required by the EIP. See the note at the beginning of {ERC20}. Requirements: - `sender` and `recipient` cannot be the zero address. - `sender` must have a balance of at least `amount`. - the caller must have allowance for ``sender``'s tokens of at least `amount`."
      },
      "transferOwnership(address)": {
        "details": "Transfers ownership of the contract to a new account (`newOwner`). Can only be called by the current owner."
      },
      "withdrawDividend()": {
        "details": "It emits a `DividendWithdrawn` event if the amount of withdrawn ether/erc20 is greater than 0."
      },
      "withdrawableDividendOf(address)": {
        "params": {
          "account": "The address of a token holder."
        },
        "returns": {
          "_0": "The amount of dividend in wei that `account` can withdraw."
        }
      },
      "withdrawnDividendOf(address)": {
        "params": {
          "account": "The address of a token holder."
        },
        "returns": {
          "_0": "The amount of dividend in wei that `account` has withdrawn."
        }
      }
    },
    "version": 1
  },
  "userdoc": {
    "kind": "user",
    "methods": {
      "accumulativeDividendOf(address)": {
        "notice": "View the amount of dividend in wei that an address has earned in total."
      },
      "dividendOf(address)": {
        "notice": "View the amount of dividend in wei that an address can withdraw."
      },
      "sync()": {
        "notice": "Syncs the amount of ether/erc20 increased to token holders as dividends."
      },
      "withdrawDividend()": {
        "notice": "Withdraws the ether/erc20 distributed to the sender."
      },
      "withdrawableDividendOf(address)": {
        "notice": "View the amount of dividend in wei that an address can withdraw."
      },
      "withdrawnDividendOf(address)": {
        "notice": "View the amount of dividend in wei that an address has withdrawn."
      }
    },
    "version": 1
  },
  "storageLayout": {
    "storage": [
      {
        "astId": 115,
        "contract": "contracts/SocialTokenV0.sol:SocialTokenV0",
        "label": "_initialized",
        "offset": 0,
        "slot": "0",
        "type": "t_bool"
      },
      {
        "astId": 118,
        "contract": "contracts/SocialTokenV0.sol:SocialTokenV0",
        "label": "_initializing",
        "offset": 1,
        "slot": "0",
        "type": "t_bool"
      },
      {
        "astId": 8956,
        "contract": "contracts/SocialTokenV0.sol:SocialTokenV0",
        "label": "_balances",
        "offset": 0,
        "slot": "1",
        "type": "t_mapping(t_address,t_uint256)"
      },
      {
        "astId": 8962,
        "contract": "contracts/SocialTokenV0.sol:SocialTokenV0",
        "label": "_allowances",
        "offset": 0,
        "slot": "2",
        "type": "t_mapping(t_address,t_mapping(t_address,t_uint256))"
      },
      {
        "astId": 8964,
        "contract": "contracts/SocialTokenV0.sol:SocialTokenV0",
        "label": "_totalSupply",
        "offset": 0,
        "slot": "3",
        "type": "t_uint256"
      },
      {
        "astId": 8966,
        "contract": "contracts/SocialTokenV0.sol:SocialTokenV0",
        "label": "_name",
        "offset": 0,
        "slot": "4",
        "type": "t_string_storage"
      },
      {
        "astId": 8968,
        "contract": "contracts/SocialTokenV0.sol:SocialTokenV0",
        "label": "_symbol",
        "offset": 0,
        "slot": "5",
        "type": "t_string_storage"
      },
      {
        "astId": 7529,
        "contract": "contracts/SocialTokenV0.sol:SocialTokenV0",
        "label": "dividendToken",
        "offset": 0,
        "slot": "6",
        "type": "t_address"
      },
      {
        "astId": 7532,
        "contract": "contracts/SocialTokenV0.sol:SocialTokenV0",
        "label": "totalDividend",
        "offset": 0,
        "slot": "7",
        "type": "t_uint256"
      },
      {
        "astId": 7534,
        "contract": "contracts/SocialTokenV0.sol:SocialTokenV0",
        "label": "magnifiedDividendPerShare",
        "offset": 0,
        "slot": "8",
        "type": "t_uint256"
      },
      {
        "astId": 7559,
        "contract": "contracts/SocialTokenV0.sol:SocialTokenV0",
        "label": "magnifiedDividendCorrections",
        "offset": 0,
        "slot": "9",
        "type": "t_mapping(t_address,t_int256)"
      },
      {
        "astId": 7563,
        "contract": "contracts/SocialTokenV0.sol:SocialTokenV0",
        "label": "withdrawnDividends",
        "offset": 0,
        "slot": "10",
        "type": "t_mapping(t_address,t_uint256)"
      },
      {
        "astId": 10890,
        "contract": "contracts/SocialTokenV0.sol:SocialTokenV0",
        "label": "_status",
        "offset": 0,
        "slot": "11",
        "type": "t_uint256"
      },
      {
        "astId": 5441,
        "contract": "contracts/SocialTokenV0.sol:SocialTokenV0",
        "label": "bestBid",
        "offset": 0,
        "slot": "12",
        "type": "t_mapping(t_bytes32,t_struct(BestBid)5435_storage)"
      },
      {
        "astId": 5446,
        "contract": "contracts/SocialTokenV0.sol:SocialTokenV0",
        "label": "isCancelled",
        "offset": 0,
        "slot": "13",
        "type": "t_mapping(t_bytes32,t_bool)"
      },
      {
        "astId": 5451,
        "contract": "contracts/SocialTokenV0.sol:SocialTokenV0",
        "label": "amountFilled",
        "offset": 0,
        "slot": "14",
        "type": "t_mapping(t_bytes32,t_uint256)"
      },
      {
        "astId": 10710,
        "contract": "contracts/SocialTokenV0.sol:SocialTokenV0",
        "label": "_owner",
        "offset": 0,
        "slot": "15",
        "type": "t_address"
      },
      {
        "astId": 4131,
        "contract": "contracts/SocialTokenV0.sol:SocialTokenV0",
        "label": "_DOMAIN_SEPARATOR",
        "offset": 0,
        "slot": "16",
        "type": "t_bytes32"
      },
      {
        "astId": 4133,
        "contract": "contracts/SocialTokenV0.sol:SocialTokenV0",
        "label": "_CACHED_CHAIN_ID",
        "offset": 0,
        "slot": "17",
        "type": "t_uint256"
      },
      {
        "astId": 4135,
        "contract": "contracts/SocialTokenV0.sol:SocialTokenV0",
        "label": "_factory",
        "offset": 0,
        "slot": "18",
        "type": "t_address"
      }
    ],
    "types": {
      "t_address": {
        "encoding": "inplace",
        "label": "address",
        "numberOfBytes": "20"
      },
      "t_bool": {
        "encoding": "inplace",
        "label": "bool",
        "numberOfBytes": "1"
      },
      "t_bytes32": {
        "encoding": "inplace",
        "label": "bytes32",
        "numberOfBytes": "32"
      },
      "t_int256": {
        "encoding": "inplace",
        "label": "int256",
        "numberOfBytes": "32"
      },
      "t_mapping(t_address,t_int256)": {
        "encoding": "mapping",
        "key": "t_address",
        "label": "mapping(address => int256)",
        "numberOfBytes": "32",
        "value": "t_int256"
      },
      "t_mapping(t_address,t_mapping(t_address,t_uint256))": {
        "encoding": "mapping",
        "key": "t_address",
        "label": "mapping(address => mapping(address => uint256))",
        "numberOfBytes": "32",
        "value": "t_mapping(t_address,t_uint256)"
      },
      "t_mapping(t_address,t_uint256)": {
        "encoding": "mapping",
        "key": "t_address",
        "label": "mapping(address => uint256)",
        "numberOfBytes": "32",
        "value": "t_uint256"
      },
      "t_mapping(t_bytes32,t_bool)": {
        "encoding": "mapping",
        "key": "t_bytes32",
        "label": "mapping(bytes32 => bool)",
        "numberOfBytes": "32",
        "value": "t_bool"
      },
      "t_mapping(t_bytes32,t_struct(BestBid)5435_storage)": {
        "encoding": "mapping",
        "key": "t_bytes32",
        "label": "mapping(bytes32 => struct BaseExchange.BestBid)",
        "numberOfBytes": "32",
        "value": "t_struct(BestBid)5435_storage"
      },
      "t_mapping(t_bytes32,t_uint256)": {
        "encoding": "mapping",
        "key": "t_bytes32",
        "label": "mapping(bytes32 => uint256)",
        "numberOfBytes": "32",
        "value": "t_uint256"
      },
      "t_string_storage": {
        "encoding": "bytes",
        "label": "string",
        "numberOfBytes": "32"
      },
      "t_struct(BestBid)5435_storage": {
        "encoding": "inplace",
        "label": "struct BaseExchange.BestBid",
        "members": [
          {
            "astId": 5424,
            "contract": "contracts/SocialTokenV0.sol:SocialTokenV0",
            "label": "bidder",
            "offset": 0,
            "slot": "0",
            "type": "t_address"
          },
          {
            "astId": 5426,
            "contract": "contracts/SocialTokenV0.sol:SocialTokenV0",
            "label": "amount",
            "offset": 0,
            "slot": "1",
            "type": "t_uint256"
          },
          {
            "astId": 5428,
            "contract": "contracts/SocialTokenV0.sol:SocialTokenV0",
            "label": "price",
            "offset": 0,
            "slot": "2",
            "type": "t_uint256"
          },
          {
            "astId": 5430,
            "contract": "contracts/SocialTokenV0.sol:SocialTokenV0",
            "label": "recipient",
            "offset": 0,
            "slot": "3",
            "type": "t_address"
          },
          {
            "astId": 5432,
            "contract": "contracts/SocialTokenV0.sol:SocialTokenV0",
            "label": "referrer",
            "offset": 0,
            "slot": "4",
            "type": "t_address"
          },
          {
            "astId": 5434,
            "contract": "contracts/SocialTokenV0.sol:SocialTokenV0",
            "label": "blockNumber",
            "offset": 0,
            "slot": "5",
            "type": "t_uint256"
          }
        ],
        "numberOfBytes": "192"
      },
      "t_uint256": {
        "encoding": "inplace",
        "label": "uint256",
        "numberOfBytes": "32"
      }
    }
  }
}