{
  "address": "0xBAD32C9bf3Ebe1cb6AF60a5Efc39ef989148c59F",
  "abi": [
    {
      "inputs": [
        {
          "internalType": "address",
          "name": "protocolFeeRecipient",
          "type": "address"
        },
        {
          "internalType": "uint8",
          "name": "protocolFee",
          "type": "uint8"
        },
        {
          "internalType": "address",
          "name": "operationalFeeRecipient",
          "type": "address"
        },
        {
          "internalType": "uint8",
          "name": "operationalFee",
          "type": "uint8"
        },
        {
          "internalType": "string",
          "name": "_baseURI721",
          "type": "string"
        },
        {
          "internalType": "string",
          "name": "_baseURI1155",
          "type": "string"
        }
      ],
      "stateMutability": "nonpayable",
      "type": "constructor"
    },
    {
      "anonymous": false,
      "inputs": [
        {
          "indexed": true,
          "internalType": "address",
          "name": "proxy",
          "type": "address"
        },
        {
          "indexed": true,
          "internalType": "address",
          "name": "owner",
          "type": "address"
        },
        {
          "indexed": false,
          "internalType": "uint256[]",
          "name": "tokenIds",
          "type": "uint256[]"
        },
        {
          "indexed": false,
          "internalType": "uint256[]",
          "name": "amounts",
          "type": "uint256[]"
        },
        {
          "indexed": false,
          "internalType": "address",
          "name": "royaltyFeeRecipient",
          "type": "address"
        },
        {
          "indexed": false,
          "internalType": "uint8",
          "name": "royaltyFee",
          "type": "uint8"
        }
      ],
      "name": "DeployNFT1155AndMintBatch",
      "type": "event"
    },
    {
      "anonymous": false,
      "inputs": [
        {
          "indexed": true,
          "internalType": "address",
          "name": "proxy",
          "type": "address"
        },
        {
          "indexed": true,
          "internalType": "address",
          "name": "owner",
          "type": "address"
        },
        {
          "indexed": false,
          "internalType": "string",
          "name": "name",
          "type": "string"
        },
        {
          "indexed": false,
          "internalType": "string",
          "name": "symbol",
          "type": "string"
        },
        {
          "indexed": false,
          "internalType": "uint256[]",
          "name": "tokenIds",
          "type": "uint256[]"
        },
        {
          "indexed": false,
          "internalType": "address",
          "name": "royaltyFeeRecipient",
          "type": "address"
        },
        {
          "indexed": false,
          "internalType": "uint8",
          "name": "royaltyFee",
          "type": "uint8"
        }
      ],
      "name": "DeployNFT721AndMintBatch",
      "type": "event"
    },
    {
      "anonymous": false,
      "inputs": [
        {
          "indexed": true,
          "internalType": "address",
          "name": "proxy",
          "type": "address"
        },
        {
          "indexed": true,
          "internalType": "address",
          "name": "owner",
          "type": "address"
        },
        {
          "indexed": false,
          "internalType": "string",
          "name": "name",
          "type": "string"
        },
        {
          "indexed": false,
          "internalType": "string",
          "name": "symbol",
          "type": "string"
        },
        {
          "indexed": false,
          "internalType": "uint256",
          "name": "toTokenId",
          "type": "uint256"
        },
        {
          "indexed": false,
          "internalType": "address",
          "name": "royaltyFeeRecipient",
          "type": "address"
        },
        {
          "indexed": false,
          "internalType": "uint8",
          "name": "royaltyFee",
          "type": "uint8"
        }
      ],
      "name": "DeployNFT721AndPark",
      "type": "event"
    },
    {
      "anonymous": false,
      "inputs": [
        {
          "indexed": true,
          "internalType": "address",
          "name": "proxy",
          "type": "address"
        },
        {
          "indexed": true,
          "internalType": "address",
          "name": "owner",
          "type": "address"
        },
        {
          "indexed": false,
          "internalType": "string",
          "name": "name",
          "type": "string"
        },
        {
          "indexed": false,
          "internalType": "string",
          "name": "symbol",
          "type": "string"
        },
        {
          "indexed": true,
          "internalType": "address",
          "name": "dividendToken",
          "type": "address"
        },
        {
          "indexed": false,
          "internalType": "uint256",
          "name": "initialSupply",
          "type": "uint256"
        }
      ],
      "name": "DeploySocialToken",
      "type": "event"
    },
    {
      "anonymous": false,
      "inputs": [
        {
          "indexed": true,
          "internalType": "address",
          "name": "previousOwner",
          "type": "address"
        },
        {
          "indexed": true,
          "internalType": "address",
          "name": "newOwner",
          "type": "address"
        }
      ],
      "name": "OwnershipTransferred",
      "type": "event"
    },
    {
      "anonymous": false,
      "inputs": [
        {
          "indexed": false,
          "internalType": "address",
          "name": "exchange",
          "type": "address"
        }
      ],
      "name": "UpgradeERC1155Exchange",
      "type": "event"
    },
    {
      "anonymous": false,
      "inputs": [
        {
          "indexed": false,
          "internalType": "address",
          "name": "exchange",
          "type": "address"
        }
      ],
      "name": "UpgradeERC721Exchange",
      "type": "event"
    },
    {
      "anonymous": false,
      "inputs": [
        {
          "indexed": false,
          "internalType": "address",
          "name": "newTarget",
          "type": "address"
        }
      ],
      "name": "UpgradeNFT1155",
      "type": "event"
    },
    {
      "anonymous": false,
      "inputs": [
        {
          "indexed": false,
          "internalType": "address",
          "name": "newTarget",
          "type": "address"
        }
      ],
      "name": "UpgradeNFT721",
      "type": "event"
    },
    {
      "anonymous": false,
      "inputs": [
        {
          "indexed": false,
          "internalType": "address",
          "name": "newTarget",
          "type": "address"
        }
      ],
      "name": "UpgradeSocialToken",
      "type": "event"
    },
    {
      "inputs": [],
      "name": "DOMAIN_SEPARATOR",
      "outputs": [
        {
          "internalType": "bytes32",
          "name": "",
          "type": "bytes32"
        }
      ],
      "stateMutability": "view",
      "type": "function"
    },
    {
      "inputs": [],
      "name": "MAX_OPERATIONAL_FEE",
      "outputs": [
        {
          "internalType": "uint8",
          "name": "",
          "type": "uint8"
        }
      ],
      "stateMutability": "view",
      "type": "function"
    },
    {
      "inputs": [],
      "name": "MAX_ROYALTY_FEE",
      "outputs": [
        {
          "internalType": "uint8",
          "name": "",
          "type": "uint8"
        }
      ],
      "stateMutability": "view",
      "type": "function"
    },
    {
      "inputs": [],
      "name": "MINT_BATCH_1155_TYPEHASH",
      "outputs": [
        {
          "internalType": "bytes32",
          "name": "",
          "type": "bytes32"
        }
      ],
      "stateMutability": "view",
      "type": "function"
    },
    {
      "inputs": [],
      "name": "MINT_BATCH_721_TYPEHASH",
      "outputs": [
        {
          "internalType": "bytes32",
          "name": "",
          "type": "bytes32"
        }
      ],
      "stateMutability": "view",
      "type": "function"
    },
    {
      "inputs": [],
      "name": "MINT_SOCIAL_TOKEN_TYPEHASH",
      "outputs": [
        {
          "internalType": "bytes32",
          "name": "",
          "type": "bytes32"
        }
      ],
      "stateMutability": "view",
      "type": "function"
    },
    {
      "inputs": [],
      "name": "PARK_TOKEN_IDS_721_TYPEHASH",
      "outputs": [
        {
          "internalType": "bytes32",
          "name": "",
          "type": "bytes32"
        }
      ],
      "stateMutability": "view",
      "type": "function"
    },
    {
      "inputs": [],
      "name": "baseURI1155",
      "outputs": [
        {
          "internalType": "string",
          "name": "",
          "type": "string"
        }
      ],
      "stateMutability": "view",
      "type": "function"
    },
    {
      "inputs": [],
      "name": "baseURI721",
      "outputs": [
        {
          "internalType": "string",
          "name": "",
          "type": "string"
        }
      ],
      "stateMutability": "view",
      "type": "function"
    },
    {
      "inputs": [
        {
          "internalType": "address",
          "name": "owner",
          "type": "address"
        },
        {
          "internalType": "uint256[]",
          "name": "tokenIds",
          "type": "uint256[]"
        },
        {
          "internalType": "uint256[]",
          "name": "amounts",
          "type": "uint256[]"
        },
        {
          "internalType": "address",
          "name": "royaltyFeeRecipient",
          "type": "address"
        },
        {
          "internalType": "uint8",
          "name": "royaltyFee",
          "type": "uint8"
        }
      ],
      "name": "deployNFT1155AndMintBatch",
      "outputs": [
        {
          "internalType": "address",
          "name": "nft",
          "type": "address"
        }
      ],
      "stateMutability": "nonpayable",
      "type": "function"
    },
    {
      "inputs": [
        {
          "internalType": "address",
          "name": "owner",
          "type": "address"
        },
        {
          "internalType": "string",
          "name": "name",
          "type": "string"
        },
        {
          "internalType": "string",
          "name": "symbol",
          "type": "string"
        },
        {
          "internalType": "uint256[]",
          "name": "tokenIds",
          "type": "uint256[]"
        },
        {
          "internalType": "address",
          "name": "royaltyFeeRecipient",
          "type": "address"
        },
        {
          "internalType": "uint8",
          "name": "royaltyFee",
          "type": "uint8"
        }
      ],
      "name": "deployNFT721AndMintBatch",
      "outputs": [
        {
          "internalType": "address",
          "name": "nft",
          "type": "address"
        }
      ],
      "stateMutability": "nonpayable",
      "type": "function"
    },
    {
      "inputs": [
        {
          "internalType": "address",
          "name": "owner",
          "type": "address"
        },
        {
          "internalType": "string",
          "name": "name",
          "type": "string"
        },
        {
          "internalType": "string",
          "name": "symbol",
          "type": "string"
        },
        {
          "internalType": "uint256",
          "name": "toTokenId",
          "type": "uint256"
        },
        {
          "internalType": "address",
          "name": "royaltyFeeRecipient",
          "type": "address"
        },
        {
          "internalType": "uint8",
          "name": "royaltyFee",
          "type": "uint8"
        }
      ],
      "name": "deployNFT721AndPark",
      "outputs": [
        {
          "internalType": "address",
          "name": "nft",
          "type": "address"
        }
      ],
      "stateMutability": "nonpayable",
      "type": "function"
    },
    {
      "inputs": [
        {
          "internalType": "address",
          "name": "owner",
          "type": "address"
        },
        {
          "internalType": "string",
          "name": "name",
          "type": "string"
        },
        {
          "internalType": "string",
          "name": "symbol",
          "type": "string"
        },
        {
          "internalType": "address",
          "name": "dividendToken",
          "type": "address"
        },
        {
          "internalType": "uint256",
          "name": "initialSupply",
          "type": "uint256"
        }
      ],
      "name": "deploySocialToken",
      "outputs": [
        {
          "internalType": "address",
          "name": "proxy",
          "type": "address"
        }
      ],
      "stateMutability": "nonpayable",
      "type": "function"
    },
    {
      "inputs": [],
      "name": "erc1155Exchange",
      "outputs": [
        {
          "internalType": "address",
          "name": "",
          "type": "address"
        }
      ],
      "stateMutability": "view",
      "type": "function"
    },
    {
      "inputs": [],
      "name": "erc721Exchange",
      "outputs": [
        {
          "internalType": "address",
          "name": "",
          "type": "address"
        }
      ],
      "stateMutability": "view",
      "type": "function"
    },
    {
      "inputs": [
        {
          "internalType": "address",
          "name": "",
          "type": "address"
        }
      ],
      "name": "isDeployerWhitelisted",
      "outputs": [
        {
          "internalType": "bool",
          "name": "",
          "type": "bool"
        }
      ],
      "stateMutability": "view",
      "type": "function"
    },
    {
      "inputs": [
        {
          "internalType": "address",
          "name": "query",
          "type": "address"
        }
      ],
      "name": "isNFT1155",
      "outputs": [
        {
          "internalType": "bool",
          "name": "result",
          "type": "bool"
        }
      ],
      "stateMutability": "view",
      "type": "function"
    },
    {
      "inputs": [
        {
          "internalType": "address",
          "name": "query",
          "type": "address"
        }
      ],
      "name": "isNFT721",
      "outputs": [
        {
          "internalType": "bool",
          "name": "result",
          "type": "bool"
        }
      ],
      "stateMutability": "view",
      "type": "function"
    },
    {
      "inputs": [
        {
          "internalType": "address",
          "name": "query",
          "type": "address"
        }
      ],
      "name": "isSocialToken",
      "outputs": [
        {
          "internalType": "bool",
          "name": "result",
          "type": "bool"
        }
      ],
      "stateMutability": "view",
      "type": "function"
    },
    {
      "inputs": [
        {
          "internalType": "address",
          "name": "",
          "type": "address"
        }
      ],
      "name": "isStrategyWhitelisted",
      "outputs": [
        {
          "internalType": "bool",
          "name": "",
          "type": "bool"
        }
      ],
      "stateMutability": "view",
      "type": "function"
    },
    {
      "inputs": [
        {
          "internalType": "address",
          "name": "nft",
          "type": "address"
        },
        {
          "internalType": "address",
          "name": "to",
          "type": "address"
        },
        {
          "internalType": "uint256[]",
          "name": "tokenIds",
          "type": "uint256[]"
        },
        {
          "internalType": "uint256[]",
          "name": "amounts",
          "type": "uint256[]"
        },
        {
          "internalType": "bytes",
          "name": "data",
          "type": "bytes"
        },
        {
          "internalType": "uint8",
          "name": "v",
          "type": "uint8"
        },
        {
          "internalType": "bytes32",
          "name": "r",
          "type": "bytes32"
        },
        {
          "internalType": "bytes32",
          "name": "s",
          "type": "bytes32"
        }
      ],
      "name": "mintBatch1155",
      "outputs": [],
      "stateMutability": "nonpayable",
      "type": "function"
    },
    {
      "inputs": [
        {
          "internalType": "address",
          "name": "nft",
          "type": "address"
        },
        {
          "internalType": "address",
          "name": "to",
          "type": "address"
        },
        {
          "internalType": "uint256[]",
          "name": "tokenIds",
          "type": "uint256[]"
        },
        {
          "internalType": "bytes",
          "name": "data",
          "type": "bytes"
        },
        {
          "internalType": "uint8",
          "name": "v",
          "type": "uint8"
        },
        {
          "internalType": "bytes32",
          "name": "r",
          "type": "bytes32"
        },
        {
          "internalType": "bytes32",
          "name": "s",
          "type": "bytes32"
        }
      ],
      "name": "mintBatch721",
      "outputs": [],
      "stateMutability": "nonpayable",
      "type": "function"
    },
    {
      "inputs": [
        {
          "internalType": "address",
          "name": "token",
          "type": "address"
        },
        {
          "internalType": "address",
          "name": "to",
          "type": "address"
        },
        {
          "internalType": "uint256",
          "name": "amount",
          "type": "uint256"
        },
        {
          "internalType": "uint8",
          "name": "v",
          "type": "uint8"
        },
        {
          "internalType": "bytes32",
          "name": "r",
          "type": "bytes32"
        },
        {
          "internalType": "bytes32",
          "name": "s",
          "type": "bytes32"
        }
      ],
      "name": "mintSocialToken",
      "outputs": [],
      "stateMutability": "nonpayable",
      "type": "function"
    },
    {
      "inputs": [
        {
          "internalType": "address",
          "name": "",
          "type": "address"
        }
      ],
      "name": "nonces",
      "outputs": [
        {
          "internalType": "uint256",
          "name": "",
          "type": "uint256"
        }
      ],
      "stateMutability": "view",
      "type": "function"
    },
    {
      "inputs": [],
      "name": "operationalFeeInfo",
      "outputs": [
        {
          "internalType": "address",
          "name": "recipient",
          "type": "address"
        },
        {
          "internalType": "uint8",
          "name": "permil",
          "type": "uint8"
        }
      ],
      "stateMutability": "view",
      "type": "function"
    },
    {
      "inputs": [],
      "name": "owner",
      "outputs": [
        {
          "internalType": "address",
          "name": "",
          "type": "address"
        }
      ],
      "stateMutability": "view",
      "type": "function"
    },
    {
      "inputs": [
        {
          "internalType": "address",
          "name": "nft",
          "type": "address"
        },
        {
          "internalType": "uint256",
          "name": "toTokenId",
          "type": "uint256"
        },
        {
          "internalType": "uint8",
          "name": "v",
          "type": "uint8"
        },
        {
          "internalType": "bytes32",
          "name": "r",
          "type": "bytes32"
        },
        {
          "internalType": "bytes32",
          "name": "s",
          "type": "bytes32"
        }
      ],
      "name": "parkTokenIds721",
      "outputs": [],
      "stateMutability": "nonpayable",
      "type": "function"
    },
    {
      "inputs": [],
      "name": "protocolFeeInfo",
      "outputs": [
        {
          "internalType": "address",
          "name": "recipient",
          "type": "address"
        },
        {
          "internalType": "uint8",
          "name": "permil",
          "type": "uint8"
        }
      ],
      "stateMutability": "view",
      "type": "function"
    },
    {
      "inputs": [],
      "name": "renounceOwnership",
      "outputs": [],
      "stateMutability": "nonpayable",
      "type": "function"
    },
    {
      "inputs": [
        {
          "internalType": "string",
          "name": "uri",
          "type": "string"
        }
      ],
      "name": "setBaseURI1155",
      "outputs": [],
      "stateMutability": "nonpayable",
      "type": "function"
    },
    {
      "inputs": [
        {
          "internalType": "string",
          "name": "uri",
          "type": "string"
        }
      ],
      "name": "setBaseURI721",
      "outputs": [],
      "stateMutability": "nonpayable",
      "type": "function"
    },
    {
      "inputs": [
        {
          "internalType": "address",
          "name": "deployer",
          "type": "address"
        },
        {
          "internalType": "bool",
          "name": "whitelisted",
          "type": "bool"
        }
      ],
      "name": "setDeployerWhitelisted",
      "outputs": [],
      "stateMutability": "nonpayable",
      "type": "function"
    },
    {
      "inputs": [
        {
          "internalType": "uint8",
          "name": "operationalFee",
          "type": "uint8"
        }
      ],
      "name": "setOperationalFee",
      "outputs": [],
      "stateMutability": "nonpayable",
      "type": "function"
    },
    {
      "inputs": [
        {
          "internalType": "address",
          "name": "operationalFeeRecipient",
          "type": "address"
        }
      ],
      "name": "setOperationalFeeRecipient",
      "outputs": [],
      "stateMutability": "nonpayable",
      "type": "function"
    },
    {
      "inputs": [
        {
          "internalType": "address",
          "name": "protocolFeeRecipient",
          "type": "address"
        }
      ],
      "name": "setProtocolFeeRecipient",
      "outputs": [],
      "stateMutability": "nonpayable",
      "type": "function"
    },
    {
      "inputs": [
        {
          "internalType": "address",
          "name": "strategy",
          "type": "address"
        },
        {
          "internalType": "bool",
          "name": "whitelisted",
          "type": "bool"
        }
      ],
      "name": "setStrategyWhitelisted",
      "outputs": [],
      "stateMutability": "nonpayable",
      "type": "function"
    },
    {
      "inputs": [
        {
          "internalType": "address",
          "name": "newOwner",
          "type": "address"
        }
      ],
      "name": "transferOwnership",
      "outputs": [],
      "stateMutability": "nonpayable",
      "type": "function"
    },
    {
      "inputs": [
        {
          "internalType": "address",
          "name": "exchange",
          "type": "address"
        }
      ],
      "name": "upgradeERC1155Exchange",
      "outputs": [],
      "stateMutability": "nonpayable",
      "type": "function"
    },
    {
      "inputs": [
        {
          "internalType": "address",
          "name": "exchange",
          "type": "address"
        }
      ],
      "name": "upgradeERC721Exchange",
      "outputs": [],
      "stateMutability": "nonpayable",
      "type": "function"
    },
    {
      "inputs": [
        {
          "internalType": "address",
          "name": "newTarget",
          "type": "address"
        }
      ],
      "name": "upgradeNFT1155",
      "outputs": [],
      "stateMutability": "nonpayable",
      "type": "function"
    },
    {
      "inputs": [
        {
          "internalType": "address",
          "name": "newTarget",
          "type": "address"
        }
      ],
      "name": "upgradeNFT721",
      "outputs": [],
      "stateMutability": "nonpayable",
      "type": "function"
    },
    {
      "inputs": [
        {
          "internalType": "address",
          "name": "newTarget",
          "type": "address"
        }
      ],
      "name": "upgradeSocialToken",
      "outputs": [],
      "stateMutability": "nonpayable",
      "type": "function"
    }
  ],
  "transactionHash": "0x872bd7a6d1486b617c93c2867410ee148b48cb2e5e6a48044e41fbd3676f6dd8",
  "args": [
    "0x93c7020393df59A951217d92d982d67A34a1557D",
    25,
    "0x93c7020393df59A951217d92d982d67A34a1557D",
    0,
    "https://raw.githubusercontent.com/shoyunft/metadata/master/rinkeby/",
    "https://raw.githubusercontent.com/shoyunft/metadata/master/rinkeby/"
  ],
  "solcInputHash": "09f73e090f42c1ed7214a5f8ac964def",
  "bytecode": "0x60c06040523480156200001157600080fd5b50604051620035f5380380620035f5833981016040819052620000349162000329565b600080546001600160a01b031916339081178255604051909182917f8be0079c531659141344cd1fd0a4f28419497f9722a3daafe3b4186f6b6457e0908290a350600480546001600160a01b038881166001600160a81b031992831617600160a01b60ff8a81168202929092179094556005805492891692909316919091179086169092029190911790558151620000d4906007906020850190620001a1565b508051620000ea906008906020840190620001a1565b504660a0818152604080517f8b73c3c69bb8fe3d512ecc4cf759cc79239f7b179b0ffacaa9a75d522b39400f60208201527f3d756f2d713885339bf87a67d06485521802e959f50d61d7607ed7117e51bc16918101919091527fc89efdaa54c0f20c7adf612882df0950f5a951637e0307cdcb4c672f298b8bc660608201526080810192909252309082015260c00160408051601f198184030181529190528051602090910120608052506200042d945050505050565b828054620001af90620003da565b90600052602060002090601f016020900481019282620001d357600085556200021e565b82601f10620001ee57805160ff19168380011785556200021e565b828001600101855582156200021e579182015b828111156200021e57825182559160200191906001019062000201565b506200022c92915062000230565b5090565b5b808211156200022c576000815560010162000231565b80516001600160a01b03811681146200025f57600080fd5b919050565b600082601f83011262000275578081fd5b81516001600160401b038082111562000292576200029262000417565b604051601f8301601f19908116603f01168101908282118183101715620002bd57620002bd62000417565b81604052838152602092508683858801011115620002d9578485fd5b8491505b83821015620002fc5785820183015181830184015290820190620002dd565b838211156200030d57848385830101525b9695505050505050565b805160ff811681146200025f57600080fd5b60008060008060008060c0878903121562000342578182fd5b6200034d8762000247565b95506200035d6020880162000317565b94506200036d6040880162000247565b93506200037d6060880162000317565b60808801519093506001600160401b03808211156200039a578384fd5b620003a88a838b0162000264565b935060a0890151915080821115620003be578283fd5b50620003cd89828a0162000264565b9150509295509295509295565b600181811c90821680620003ef57607f821691505b602082108114156200041157634e487b7160e01b600052602260045260246000fd5b50919050565b634e487b7160e01b600052604160045260246000fd5b60805160a0516131a2620004536000396000610cf301526000610d1b01526131a26000f3fe608060405234801561001057600080fd5b506004361061025e5760003560e01c8063706e1ce511610146578063aec0b543116100c3578063d1640c9e11610087578063d1640c9e146105c5578063d4ed40be146105e8578063d5f7e756146105fb578063e521cb921461060e578063e7ceca8114610621578063f2fde38b146106345761025e565b8063aec0b54314610540578063c2b11e181461057a578063c6edbca414610597578063c756db161461059f578063cb03111c146105b25761025e565b80638da5cb5b1161010a5780638da5cb5b146104ab5780638f4ac6b2146104bc57806398f66f79146104cf578063999ba27c146104f6578063a984253f146105195761025e565b8063706e1ce51461044a578063715018a61461045d57806374949588146104655780637ecebe00146104785780638518482e146104985761025e565b806334375c90116101df57806345943ee1116101a357806345943ee1146103d35780634dd5ad0b146103f65780634e3a599b146103fe57806353ebf022146104115780635ef00369146104245780636d934447146104375761025e565b806334375c901461037d5780633644e515146103905780633683a63d146103985780633869faeb146103ad57806343ae710b146103c05761025e565b80632030959811610226578063203095981461030a57806324b72fd914610331578063262b9f6314610344578063272f37bc146103575780633419b1681461036a5761025e565b806304895e021461026357806309e9e859146102785780630b3aef6f146102a85780630e309d87146102dd57806317e1f82e146102f0575b600080fd5b61027661027136600461246e565b610647565b005b61028b6102863660046126a3565b6106f2565b6040516001600160a01b0390911681526020015b60405180910390f35b6102cf7f884adba7f4e17962aed36c871036adea39c6d9f81fb25407a78db239e9731e8681565b60405190815260200161029f565b6102766102eb36600461273a565b6108ab565b6102f860fa81565b60405160ff909116815260200161029f565b6102cf7f3fddacac0a7d8b05f741f01ff6becadd9986be8631a2af41a675f365dd74090d81565b61027661033f36600461273a565b610900565b6102766103523660046129ce565b61097b565b61028b610365366004612776565b6109bc565b610276610378366004612957565b610b6c565b60095461028b906001600160a01b031681565b6102cf610ced565b6103a0610de4565b60405161029f9190612eef565b61028b6103bb36600461283b565b610e72565b600a5461028b906001600160a01b031681565b6103e66103e136600461246e565b61100e565b604051901515815260200161029f565b6102f8603281565b6103e661040c36600461246e565b6110a7565b61027661041f36600461246e565b6110fc565b6103e661043236600461246e565b6111aa565b61028b6104453660046128c9565b6111fe565b61027661045836600461246e565b6113b3565b61027661145b565b610276610473366004612a09565b6114cf565b6102cf61048636600461246e565b60066020526000908152604090205481565b6102766104a63660046129ce565b611562565b6000546001600160a01b031661028b565b6102766104ca3660046124ad565b61159f565b6102cf7f8f4bf92e5271f5ec2f59dc3fc74368af0064fb84b40a3de9150dd26c08cda10481565b6103e661050436600461246e565b600c6020526000908152604090205460ff1681565b6102cf7fb47ce0f6456fcc2f16b7d6e7b0255eb73822b401248e672a4543c2b3d718304381565b6004546001600160a01b03811690600160a01b900460ff165b604080516001600160a01b03909316835260ff90911660208301520161029f565b6005546001600160a01b03811690600160a01b900460ff16610559565b6103a0611736565b6102766105ad366004612641565b611743565b6102766105c036600461246e565b6118d1565b6103e66105d336600461246e565b600b6020526000908152604090205460ff1681565b6102766105f636600461258c565b611949565b61027661060936600461246e565b611ac9565b61027661061c36600461246e565b611b71565b61027661062f36600461246e565b611c13565b61027661064236600461246e565b611c8b565b6000546001600160a01b0316331461067a5760405162461bcd60e51b815260040161067190612f62565b60405180910390fd5b6001600160a01b0381166106d05760405162461bcd60e51b815260206004820152601860248201527f53484f59553a20494e56414c49445f524543495049454e5400000000000000006044820152606401610671565b600580546001600160a01b0319166001600160a01b0392909216919091179055565b6000808052600b60205260008051602061314d8339815191525460ff16806107295750336000908152600b602052604090205460ff165b6107455760405162461bcd60e51b815260040161067190612f38565b6001600160a01b03861661076b5760405162461bcd60e51b815260040161067190612f97565b83518551146107bc5760405162461bcd60e51b815260206004820152601860248201527f53484f59553a204c454e475448535f4e4f545f455155414c00000000000000006044820152606401610671565b6002805461084f91906107d190600190613054565b815481106107ef57634e487b7160e01b600052603260045260246000fd5b6000918252602090912001546040516001600160a01b03909116906108209089908990899089908990602401612ba2565b60408051601f198184030181529190526020810180516001600160e01b031663bff5e79d60e01b179052611d75565b9050856001600160a01b0316816001600160a01b03167fe8e548b895f4fdeb62d7c9df220d96b267c9b1333933d6d222abe97c9eb4e1788787878760405161089a9493929190612d07565b60405180910390a395945050505050565b6000546001600160a01b031633146108d55760405162461bcd60e51b815260040161067190612f62565b6001600160a01b03919091166000908152600b60205260409020805460ff1916911515919091179055565b6000546001600160a01b0316331461092a5760405162461bcd60e51b815260040161067190612f62565b6001600160a01b0382166109505760405162461bcd60e51b815260040161067190612f97565b6001600160a01b03919091166000908152600c60205260409020805460ff1916911515919091179055565b6000546001600160a01b031633146109a55760405162461bcd60e51b815260040161067190612f62565b80516109b8906007906020840190612241565b5050565b6000808052600b60205260008051602061314d8339815191525460ff16806109f35750336000908152600b602052604090205460ff165b610a0f5760405162461bcd60e51b815260040161067190612f38565b86610a2c5760405162461bcd60e51b815260040161067190612ff6565b84610a495760405162461bcd60e51b815260040161067190612fc7565b6001600160a01b038916610a6f5760405162461bcd60e51b815260040161067190612f97565b60018054610b079190610a83908290613054565b81548110610aa157634e487b7160e01b600052603260045260246000fd5b6000918252602090912001546040516001600160a01b0390911690610ad8908c908c908c908c908c908c908c908c90602401612bf4565b60408051601f198184030181529190526020810180516001600160e01b0316634f65e6d160e11b179052611d75565b9050886001600160a01b0316816001600160a01b03167ffa2a29eed800c9b77b7b93bac9b8f33afdf859cdcdc8dabed1fee5879c5b85fa8a8a8a8a8a8a8a604051610b589796959493929190612e39565b60405180910390a398975050505050505050565b6000856001600160a01b0316638da5cb5b6040518163ffffffff1660e01b815260040160206040518083038186803b158015610ba757600080fd5b505afa158015610bbb573d6000803e3d6000fd5b505050506040513d601f19601f82011682018060405250810190610bdf9190612491565b6001600160a01b0381166000908152600660205260408120805492935090917f3fddacac0a7d8b05f741f01ff6becadd9986be8631a2af41a675f365dd74090d918991899185610c2e836130ed565b909155506040805160208101959095526001600160a01b03909316928401929092526060830152608082015260a001604051602081830303815290604052805190602001209050610c8a8183878787610c85610ced565b611e78565b60405163325d78dd60e21b8152600481018790526001600160a01b0388169063c975e37490602401600060405180830381600087803b158015610ccc57600080fd5b505af1158015610ce0573d6000803e3d6000fd5b5050505050505050505050565b600080467f00000000000000000000000000000000000000000000000000000000000000001415610d3f57507f0000000000000000000000000000000000000000000000000000000000000000610ddf565b604080517f8b73c3c69bb8fe3d512ecc4cf759cc79239f7b179b0ffacaa9a75d522b39400f60208201527f3d756f2d713885339bf87a67d06485521802e959f50d61d7607ed7117e51bc16918101919091527fc89efdaa54c0f20c7adf612882df0950f5a951637e0307cdcb4c672f298b8bc660608201524660808201523060a082015260c0016040516020818303038152906040528051906020012090505b905090565b60078054610df1906130b2565b80601f0160208091040260200160405190810160405280929190818152602001828054610e1d906130b2565b8015610e6a5780601f10610e3f57610100808354040283529160200191610e6a565b820191906000526020600020905b815481529060010190602001808311610e4d57829003601f168201915b505050505081565b6000808052600b60205260008051602061314d8339815191525460ff1680610ea95750336000908152600b602052604090205460ff165b610ec55760405162461bcd60e51b815260040161067190612f38565b86610ee25760405162461bcd60e51b815260040161067190612ff6565b84610eff5760405162461bcd60e51b815260040161067190612fc7565b6001600160a01b038916610f255760405162461bcd60e51b815260040161067190612f97565b60018054610fbd9190610f39908290613054565b81548110610f5757634e487b7160e01b600052603260045260246000fd5b6000918252602090912001546040516001600160a01b0390911690610f8e908c908c908c908c908c908c908c908c90602401612c5f565b60408051601f198184030181529190526020810180516001600160e01b031663ac9a252160e01b179052611d75565b9050886001600160a01b0316816001600160a01b03167f56a094468f3010722aa253bc3d45e75efe2a0550b929f9f0f4d4591dbca5131d8a8a8a8a8a8a8a604051610b589796959493929190612e9c565b60006001600160a01b038216611026575060006110a2565b6002545b6001811061109c5761107b6002611042600184613054565b8154811061106057634e487b7160e01b600052603260045260246000fd5b6000918252602090912001546001600160a01b031684612037565b1561108a5760019150506110a2565b806110948161309b565b91505061102a565b50600090505b919050565b60006001600160a01b0382166110bf575060006110a2565b6003545b6001811061109c576110db6003611042600184613054565b156110ea5760019150506110a2565b806110f48161309b565b9150506110c3565b6000546001600160a01b031633146111265760405162461bcd60e51b815260040161067190612f62565b6001805480820182556000919091527fb10e2d527612073b26eecdfd717e6a320cf44b4afac2b0732d9fcbe2b7fa0cf60180546001600160a01b0319166001600160a01b0383169081179091556040519081527f90dccdf0d0809c3f945a409a3ce4652bf2c9b283e5aad88b3e36361433132cbb906020015b60405180910390a150565b60006001600160a01b0382166111c2575060006110a2565b6001545b6001811061109c576111dd60016110428184613054565b156111ec5760019150506110a2565b806111f68161309b565b9150506111c6565b6000808052600b60205260008051602061314d8339815191525460ff16806112355750336000908152600b602052604090205460ff165b6112515760405162461bcd60e51b815260040161067190612f38565b60008551116112725760405162461bcd60e51b815260040161067190612ff6565b60008451116112935760405162461bcd60e51b815260040161067190612fc7565b6001600160a01b0386166112b95760405162461bcd60e51b815260040161067190612f97565b600086868686866040516024016112d4959493929190612cbd565b60408051601f198184030181529190526020810180516001600160e01b0316633ad985f360e11b1790526003805491925061134e9161131590600190613054565b8154811061133357634e487b7160e01b600052603260045260246000fd5b6000918252602090912001546001600160a01b031682611d75565b9150836001600160a01b0316876001600160a01b0316836001600160a01b03167f77f9d3ebcfb8384da9e83f3940965c11d9aa857870489f196679555bba1888d28989886040516113a193929190612f02565b60405180910390a45095945050505050565b6000546001600160a01b031633146113dd5760405162461bcd60e51b815260040161067190612f62565b600380546001810182556000919091527fc2575a0e9e593c00f959f8c92f12db2869c3395a3b0502d05e2516446f71f85b0180546001600160a01b0319166001600160a01b0383169081179091556040519081527fe8698a9880993ca12864a4d6e8bff70e3e073d4104aa0f9a8fdb2b74576922ab9060200161119f565b6000546001600160a01b031633146114855760405162461bcd60e51b815260040161067190612f62565b600080546040516001600160a01b03909116907f8be0079c531659141344cd1fd0a4f28419497f9722a3daafe3b4186f6b6457e0908390a3600080546001600160a01b0319169055565b6000546001600160a01b031633146114f95760405162461bcd60e51b815260040161067190612f62565b603260ff821611156115425760405162461bcd60e51b815260206004820152601260248201527153484f59553a20494e56414c49445f46454560701b6044820152606401610671565b6005805460ff909216600160a01b0260ff60a01b19909216919091179055565b6000546001600160a01b0316331461158c5760405162461bcd60e51b815260040161067190612f62565b80516109b8906008906020840190612241565b60008b6001600160a01b0316638da5cb5b6040518163ffffffff1660e01b815260040160206040518083038186803b1580156115da57600080fd5b505afa1580156115ee573d6000803e3d6000fd5b505050506040513d601f19601f820116820180604052508101906116129190612491565b905060007fb47ce0f6456fcc2f16b7d6e7b0255eb73822b401248e672a4543c2b3d718304360001b8d8d8d8d8d8d8d8d600660008c6001600160a01b03166001600160a01b031681526020019081526020016000206000815480929190611678906130ed565b919050556040516020016116959a99989796959493929190612d51565b6040516020818303038152906040528051906020012090506116bd8183878787610c85610ced565b604051630fbfeffd60e11b81526001600160a01b038e1690631f7fdffa906116f5908f908f908f908f908f908f908f90600401612b03565b600060405180830381600087803b15801561170f57600080fd5b505af1158015611723573d6000803e3d6000fd5b5050505050505050505050505050505050565b60088054610df1906130b2565b6000866001600160a01b0316638da5cb5b6040518163ffffffff1660e01b815260040160206040518083038186803b15801561177e57600080fd5b505afa158015611792573d6000803e3d6000fd5b505050506040513d601f19601f820116820180604052508101906117b69190612491565b6001600160a01b0381166000908152600660205260408120805492935090917f8f4bf92e5271f5ec2f59dc3fc74368af0064fb84b40a3de9150dd26c08cda104918a918a918a919086611808836130ed565b909155506040805160208101969096526001600160a01b0394851690860152929091166060840152608083015260a082015260c0016040516020818303038152906040528051906020012090506118658183878787610c85610ced565b6040516340c10f1960e01b81526001600160a01b038881166004830152602482018890528916906340c10f1990604401600060405180830381600087803b1580156118af57600080fd5b505af11580156118c3573d6000803e3d6000fd5b505050505050505050505050565b6000546001600160a01b031633146118fb5760405162461bcd60e51b815260040161067190612f62565b600980546001600160a01b0319166001600160a01b0383169081179091556040519081527f7906d96d0db1eb8f6805ac6930c6abd633b14b59c0b239412e1fd979ca1254669060200161119f565b6000896001600160a01b0316638da5cb5b6040518163ffffffff1660e01b815260040160206040518083038186803b15801561198457600080fd5b505afa158015611998573d6000803e3d6000fd5b505050506040513d601f19601f820116820180604052508101906119bc9190612491565b6001600160a01b0381166000908152600660205260408120805492935090917f884adba7f4e17962aed36c871036adea39c6d9f81fb25407a78db239e9731e86918d918d918d918d918d918d9189611a13836130ed565b91905055604051602001611a2e989796959493929190612dc4565b604051602081830303815290604052805190602001209050611a568183878787610c85610ced565b604051631143124160e11b81526001600160a01b038c1690632286248290611a8a908d908d908d908d908d90600401612b5e565b600060405180830381600087803b158015611aa457600080fd5b505af1158015611ab8573d6000803e3d6000fd5b505050505050505050505050505050565b6000546001600160a01b03163314611af35760405162461bcd60e51b815260040161067190612f62565b600280546001810182556000919091527f405787fa12a823e0f2b7631cc41b3ba8828b3321ca811111fa75cd3aa3bb5ace0180546001600160a01b0319166001600160a01b0383169081179091556040519081527f1c9e0a997b60cd0855450b5761db24330074e914ceab5b053193b28d6a3e45639060200161119f565b6000546001600160a01b03163314611b9b5760405162461bcd60e51b815260040161067190612f62565b6001600160a01b038116611bf15760405162461bcd60e51b815260206004820152601c60248201527f53484f59553a20494e56414c49445f4645455f524543495049454e54000000006044820152606401610671565b600480546001600160a01b0319166001600160a01b0392909216919091179055565b6000546001600160a01b03163314611c3d5760405162461bcd60e51b815260040161067190612f62565b600a80546001600160a01b0319166001600160a01b0383169081179091556040519081527fca237d3f5dd115a560a2d7ddcc75a87200fca9a3b55e7f78330108c92b87a99a9060200161119f565b6000546001600160a01b03163314611cb55760405162461bcd60e51b815260040161067190612f62565b6001600160a01b038116611d1a5760405162461bcd60e51b815260206004820152602660248201527f4f776e61626c653a206e6577206f776e657220697320746865207a65726f206160448201526564647265737360d01b6064820152608401610671565b600080546040516001600160a01b03808516939216917f8be0079c531659141344cd1fd0a4f28419497f9722a3daafe3b4186f6b6457e091a3600080546001600160a01b0319166001600160a01b0392909216919091179055565b6000808360601b9050604051733d602d80600a3d3981f3363d3d373d3d3d363d7360601b81528160148201526e5af43d82803e903d91602b57fd5bf360881b60288201526037816000f0925050600083511115611e71576000826001600160a01b031684604051611de69190612ae7565b6000604051808303816000865af19150503d8060008114611e23576040519150601f19603f3d011682016040523d82523d6000602084013e611e28565b606091505b5050905080611e6f5760405162461bcd60e51b815260206004820152601360248201527253484f59553a2043414c4c5f4641494c55524560681b6044820152606401610671565b505b5092915050565b60405161190160f01b60208201526022810182905260428101879052600090606201604051602081830303815290604052805190602001209050611ebc863b151590565b15611fcc57604080516020810186905280820185905260f887901b6001600160f81b0319166060820152815160418183030181526061820192839052630b135d3f60e11b9092526001600160a01b03881691631626ba7e91611f22918591606501612e20565b60206040518083038186803b158015611f3a57600080fd5b505afa158015611f4e573d6000803e3d6000fd5b505050506040513d601f19601f82011682018060405250810190611f7291906129a6565b6001600160e01b031916631626ba7e60e01b14611fc75760405162461bcd60e51b815260206004820152601360248201527214d213d6554e8815539055551213d492569151606a1b6044820152606401610671565b61202e565b856001600160a01b0316611fe282878787612098565b6001600160a01b03161461202e5760405162461bcd60e51b815260206004820152601360248201527214d213d6554e8815539055551213d492569151606a1b6044820152606401610671565b50505050505050565b6000808360601b905060405169363d3d373d3d3d363d7360b01b815281600a8201526e5af43d82803e903d91602b57fd5bf360881b601e82015260408101602d600082873c600d810151600d83015114815183511416935050505092915050565b60007f7fffffffffffffffffffffffffffffff5d576e7357a4501ddfe92f46681b20a08211156121155760405162461bcd60e51b815260206004820152602260248201527f45434453413a20696e76616c6964207369676e6174757265202773272076616c604482015261756560f01b6064820152608401610671565b8360ff16601b148061212a57508360ff16601c145b6121815760405162461bcd60e51b815260206004820152602260248201527f45434453413a20696e76616c6964207369676e6174757265202776272076616c604482015261756560f01b6064820152608401610671565b6040805160008082526020820180845288905260ff871692820192909252606081018590526080810184905260019060a0016020604051602081039080840390855afa1580156121d5573d6000803e3d6000fd5b5050604051601f1901519150506001600160a01b0381166122385760405162461bcd60e51b815260206004820152601860248201527f45434453413a20696e76616c6964207369676e617475726500000000000000006044820152606401610671565b95945050505050565b82805461224d906130b2565b90600052602060002090601f01602090048101928261226f57600085556122b5565b82601f1061228857805160ff19168380011785556122b5565b828001600101855582156122b5579182015b828111156122b557825182559160200191906001019061229a565b506122c19291506122c5565b5090565b5b808211156122c157600081556001016122c6565b80356110a281613134565b60008083601f8401126122f6578182fd5b50813567ffffffffffffffff81111561230d578182fd5b6020830191508360208260051b850101111561232857600080fd5b9250929050565b600082601f83011261233f578081fd5b8135602067ffffffffffffffff82111561235b5761235b61311e565b8160051b61236a828201613023565b838152828101908684018388018501891015612384578687fd5b8693505b858410156123a6578035835260019390930192918401918401612388565b50979650505050505050565b60008083601f8401126123c3578182fd5b50813567ffffffffffffffff8111156123da578182fd5b60208301915083602082850101111561232857600080fd5b600082601f830112612402578081fd5b813567ffffffffffffffff81111561241c5761241c61311e565b61242f601f8201601f1916602001613023565b818152846020838601011115612443578283fd5b816020850160208301379081016020019190915292915050565b803560ff811681146110a257600080fd5b60006020828403121561247f578081fd5b813561248a81613134565b9392505050565b6000602082840312156124a2578081fd5b815161248a81613134565b60008060008060008060008060008060006101008c8e0312156124ce578687fd5b6124d78c6122da565b9a506124e560208d016122da565b995067ffffffffffffffff8060408e01351115612500578788fd5b6125108e60408f01358f016122e5565b909a50985060608d0135811015612525578788fd5b6125358e60608f01358f016122e5565b909850965060808d013581101561254a578586fd5b5061255b8d60808e01358e016123b2565b909550935061256c60a08d0161245d565b925060c08c0135915060e08c013590509295989b509295989b9093969950565b600080600080600080600080600060e08a8c0312156125a9578485fd5b89356125b481613134565b985060208a01356125c481613134565b975060408a013567ffffffffffffffff808211156125e0578687fd5b6125ec8d838e016122e5565b909950975060608c0135915080821115612604578687fd5b506126118c828d016123b2565b9096509450612624905060808b0161245d565b925060a08a0135915060c08a013590509295985092959850929598565b60008060008060008060c08789031215612659578182fd5b863561266481613134565b9550602087013561267481613134565b9450604087013593506126896060880161245d565b92506080870135915060a087013590509295509295509295565b600080600080600060a086880312156126ba578081fd5b85356126c581613134565b9450602086013567ffffffffffffffff808211156126e1578283fd5b6126ed89838a0161232f565b95506040880135915080821115612702578283fd5b5061270f8882890161232f565b935050606086013561272081613134565b915061272e6080870161245d565b90509295509295909350565b6000806040838503121561274c578182fd5b823561275781613134565b91506020830135801515811461276b578182fd5b809150509250929050565b60008060008060008060008060c0898b031215612791578182fd5b883561279c81613134565b9750602089013567ffffffffffffffff808211156127b8578384fd5b6127c48c838d016123b2565b909950975060408b01359150808211156127dc578384fd5b6127e88c838d016123b2565b909750955060608b0135915080821115612800578384fd5b5061280d8b828c0161232f565b935050608089013561281e81613134565b915061282c60a08a0161245d565b90509295985092959890939650565b60008060008060008060008060c0898b031215612856578182fd5b883561286181613134565b9750602089013567ffffffffffffffff8082111561287d578384fd5b6128898c838d016123b2565b909950975060408b01359150808211156128a1578384fd5b506128ae8b828c016123b2565b90965094505060608901359250608089013561281e81613134565b600080600080600060a086880312156128e0578283fd5b85356128eb81613134565b9450602086013567ffffffffffffffff80821115612907578485fd5b61291389838a016123f2565b95506040880135915080821115612928578485fd5b50612935888289016123f2565b935050606086013561294681613134565b949793965091946080013592915050565b600080600080600060a0868803121561296e578283fd5b853561297981613134565b94506020860135935061298e6040870161245d565b94979396509394606081013594506080013592915050565b6000602082840312156129b7578081fd5b81516001600160e01b03198116811461248a578182fd5b6000602082840312156129df578081fd5b813567ffffffffffffffff8111156129f5578182fd5b612a01848285016123f2565b949350505050565b600060208284031215612a1a578081fd5b61248a8261245d565b81835260006001600160fb1b03831115612a3b578081fd5b8260051b80836020870137939093016020019283525090919050565b6000815180845260208085019450808401835b83811015612a8657815187529582019590820190600101612a6a565b509495945050505050565b60008284528282602086013780602084860101526020601f19601f85011685010190509392505050565b60008151808452612ad381602086016020860161306b565b601f01601f19169290920160200192915050565b60008251612af981846020870161306b565b9190910192915050565b6001600160a01b0388168152608060208201819052600090612b28908301888a612a23565b8281036040840152612b3b818789612a23565b90508281036060840152612b50818587612a91565b9a9950505050505050505050565b6001600160a01b0386168152606060208201819052600090612b839083018688612a23565b8281036040840152612b96818587612a91565b98975050505050505050565b600060018060a01b03808816835260a06020840152612bc460a0840188612a57565b8381036040850152612bd68188612a57565b959091166060840152505060ff919091166080909101529392505050565b600060018060a01b03808b16835260c06020840152612c1760c084018a8c612a91565b8381036040850152612c2a81898b612a91565b90508381036060850152612c3e8188612a57565b959091166080840152505060ff9190911660a0909101529695505050505050565b600060018060a01b03808b16835260c06020840152612c8260c084018a8c612a91565b8381036040850152612c9581898b612a91565b92505085606084015280851660808401525060ff831660a08301529998505050505050505050565b600060018060a01b03808816835260a06020840152612cdf60a0840188612abb565b8381036040850152612cf18188612abb565b9590911660608401525050608001529392505050565b600060808252612d1a6080830187612a57565b8281036020840152612d2c8187612a57565b6001600160a01b03959095166040840152505060ff9190911660609091015292915050565b8a81526001600160a01b038a811660208301528916604082015260e060608201819052600090612d84908301898b612a23565b8281036080840152612d9781888a612a23565b905082810360a0840152612dac818688612a91565b9150508260c08301529b9a5050505050505050505050565b8881526001600160a01b0388811660208301528716604082015260c060608201819052600090612df79083018789612a23565b8281036080840152612e0a818688612a91565b9150508260a08301529998505050505050505050565b600083825260406020830152612a016040830184612abb565b600060a08252612e4d60a08301898b612a91565b8281036020840152612e6081888a612a91565b90508281036040840152612e748187612a57565b6001600160a01b03959095166060840152505060ff9190911660809091015295945050505050565b600060a08252612eb060a08301898b612a91565b8281036020840152612ec381888a612a91565b604084019690965250506001600160a01b0392909216606083015260ff16608090910152949350505050565b60006020825261248a6020830184612abb565b600060608252612f156060830186612abb565b8281036020840152612f278186612abb565b915050826040830152949350505050565b60208082526010908201526f29a427acaa9d102327a92124a22222a760811b604082015260600190565b6020808252818101527f4f776e61626c653a2063616c6c6572206973206e6f7420746865206f776e6572604082015260600190565b60208082526016908201527553484f59553a20494e56414c49445f4144445245535360501b604082015260600190565b60208082526015908201527414d213d6554e881253959053125117d4d6535093d3605a1b604082015260600190565b60208082526013908201527253484f59553a20494e56414c49445f4e414d4560681b604082015260600190565b604051601f8201601f1916810167ffffffffffffffff8111828210171561304c5761304c61311e565b604052919050565b60008282101561306657613066613108565b500390565b60005b8381101561308657818101518382015260200161306e565b83811115613095576000848401525b50505050565b6000816130aa576130aa613108565b506000190190565b600181811c908216806130c657607f821691505b602082108114156130e757634e487b7160e01b600052602260045260246000fd5b50919050565b600060001982141561310157613101613108565b5060010190565b634e487b7160e01b600052601160045260246000fd5b634e487b7160e01b600052604160045260246000fd5b6001600160a01b038116811461314957600080fd5b5056fedf7de25b7f1fd6d0b5205f0e18f1f35bd7b8d84cce336588d184533ce43a6f76a2646970667358221220dc32ad8ea11441493fe0b6594cd3c7703d2323464ee1e7ca6d0bc0a46415554064736f6c63430008030033",
  "devdoc": {
    "kind": "dev",
    "methods": {
      "owner()": {
        "details": "Returns the address of the current owner."
      },
      "renounceOwnership()": {
        "details": "Leaves the contract without owner. It will not be possible to call `onlyOwner` functions anymore. Can only be called by the current owner. NOTE: Renouncing ownership will leave the contract without an owner, thereby removing any functionality that is only available to the owner."
      },
      "transferOwnership(address)": {
        "details": "Transfers ownership of the contract to a new account (`newOwner`). Can only be called by the current owner."
      }
    },
    "version": 1
  },
  "userdoc": {
    "kind": "user",
    "methods": {},
    "version": 1
  },
  "storageLayout": {
    "storage": [
      {
        "astId": 7,
        "contract": "contracts/TokenFactory.sol:TokenFactory",
        "label": "_owner",
        "offset": 0,
        "slot": "0",
        "type": "t_address"
      },
      {
        "astId": 3470,
        "contract": "contracts/TokenFactory.sol:TokenFactory",
        "label": "_targets721",
        "offset": 0,
        "slot": "1",
        "type": "t_array(t_address)dyn_storage"
      },
      {
        "astId": 3473,
        "contract": "contracts/TokenFactory.sol:TokenFactory",
        "label": "_targets1155",
        "offset": 0,
        "slot": "2",
        "type": "t_array(t_address)dyn_storage"
      },
      {
        "astId": 3476,
        "contract": "contracts/TokenFactory.sol:TokenFactory",
        "label": "_targetsSocialToken",
        "offset": 0,
        "slot": "3",
        "type": "t_array(t_address)dyn_storage"
      },
      {
        "astId": 3478,
        "contract": "contracts/TokenFactory.sol:TokenFactory",
        "label": "_protocolFeeRecipient",
        "offset": 0,
        "slot": "4",
        "type": "t_address"
      },
      {
        "astId": 3480,
        "contract": "contracts/TokenFactory.sol:TokenFactory",
        "label": "_protocolFee",
        "offset": 20,
        "slot": "4",
        "type": "t_uint8"
      },
      {
        "astId": 3482,
        "contract": "contracts/TokenFactory.sol:TokenFactory",
        "label": "_operationalFeeRecipient",
        "offset": 0,
        "slot": "5",
        "type": "t_address"
      },
      {
        "astId": 3484,
        "contract": "contracts/TokenFactory.sol:TokenFactory",
        "label": "_operationalFee",
        "offset": 20,
        "slot": "5",
        "type": "t_uint8"
      },
      {
        "astId": 3489,
        "contract": "contracts/TokenFactory.sol:TokenFactory",
        "label": "nonces",
        "offset": 0,
        "slot": "6",
        "type": "t_mapping(t_address,t_uint256)"
      },
      {
        "astId": 3492,
        "contract": "contracts/TokenFactory.sol:TokenFactory",
        "label": "baseURI721",
        "offset": 0,
        "slot": "7",
        "type": "t_string_storage"
      },
      {
        "astId": 3495,
        "contract": "contracts/TokenFactory.sol:TokenFactory",
        "label": "baseURI1155",
        "offset": 0,
        "slot": "8",
        "type": "t_string_storage"
      },
      {
        "astId": 3498,
        "contract": "contracts/TokenFactory.sol:TokenFactory",
        "label": "erc721Exchange",
        "offset": 0,
        "slot": "9",
        "type": "t_address"
      },
      {
        "astId": 3501,
        "contract": "contracts/TokenFactory.sol:TokenFactory",
        "label": "erc1155Exchange",
        "offset": 0,
        "slot": "10",
        "type": "t_address"
      },
      {
        "astId": 3506,
        "contract": "contracts/TokenFactory.sol:TokenFactory",
        "label": "isDeployerWhitelisted",
        "offset": 0,
        "slot": "11",
        "type": "t_mapping(t_address,t_bool)"
      },
      {
        "astId": 3511,
        "contract": "contracts/TokenFactory.sol:TokenFactory",
        "label": "isStrategyWhitelisted",
        "offset": 0,
        "slot": "12",
        "type": "t_mapping(t_address,t_bool)"
      }
    ],
    "types": {
      "t_address": {
        "encoding": "inplace",
        "label": "address",
        "numberOfBytes": "20"
      },
      "t_array(t_address)dyn_storage": {
        "base": "t_address",
        "encoding": "dynamic_array",
        "label": "address[]",
        "numberOfBytes": "32"
      },
      "t_bool": {
        "encoding": "inplace",
        "label": "bool",
        "numberOfBytes": "1"
      },
      "t_mapping(t_address,t_bool)": {
        "encoding": "mapping",
        "key": "t_address",
        "label": "mapping(address => bool)",
        "numberOfBytes": "32",
        "value": "t_bool"
      },
      "t_mapping(t_address,t_uint256)": {
        "encoding": "mapping",
        "key": "t_address",
        "label": "mapping(address => uint256)",
        "numberOfBytes": "32",
        "value": "t_uint256"
      },
      "t_string_storage": {
        "encoding": "bytes",
        "label": "string",
        "numberOfBytes": "32"
      },
      "t_uint256": {
        "encoding": "inplace",
        "label": "uint256",
        "numberOfBytes": "32"
      },
      "t_uint8": {
        "encoding": "inplace",
        "label": "uint8",
        "numberOfBytes": "1"
      }
    }
  }
}