{
  "address": "0x204A0AC6e958B1779E10480B9EEa7Ae7CfE084D8",
  "abi": [
    {
      "inputs": [
        {
          "internalType": "address",
          "name": "protocolFeeRecipient",
          "type": "address"
        },
        {
          "internalType": "uint8",
          "name": "protocolFee",
          "type": "uint8"
        },
        {
          "internalType": "address",
          "name": "operationalFeeRecipient",
          "type": "address"
        },
        {
          "internalType": "uint8",
          "name": "operationalFee",
          "type": "uint8"
        },
        {
          "internalType": "string",
          "name": "_baseURI721",
          "type": "string"
        },
        {
          "internalType": "string",
          "name": "_baseURI1155",
          "type": "string"
        }
      ],
      "stateMutability": "nonpayable",
      "type": "constructor"
    },
    {
      "anonymous": false,
      "inputs": [
        {
          "indexed": true,
          "internalType": "address",
          "name": "proxy",
          "type": "address"
        },
        {
          "indexed": true,
          "internalType": "address",
          "name": "owner",
          "type": "address"
        },
        {
          "indexed": false,
          "internalType": "uint256[]",
          "name": "tokenIds",
          "type": "uint256[]"
        },
        {
          "indexed": false,
          "internalType": "uint256[]",
          "name": "amounts",
          "type": "uint256[]"
        },
        {
          "indexed": false,
          "internalType": "address",
          "name": "royaltyFeeRecipient",
          "type": "address"
        },
        {
          "indexed": false,
          "internalType": "uint8",
          "name": "royaltyFee",
          "type": "uint8"
        }
      ],
      "name": "DeployNFT1155AndMintBatch",
      "type": "event"
    },
    {
      "anonymous": false,
      "inputs": [
        {
          "indexed": true,
          "internalType": "address",
          "name": "proxy",
          "type": "address"
        },
        {
          "indexed": true,
          "internalType": "address",
          "name": "owner",
          "type": "address"
        },
        {
          "indexed": false,
          "internalType": "string",
          "name": "name",
          "type": "string"
        },
        {
          "indexed": false,
          "internalType": "string",
          "name": "symbol",
          "type": "string"
        },
        {
          "indexed": false,
          "internalType": "uint256[]",
          "name": "tokenIds",
          "type": "uint256[]"
        },
        {
          "indexed": false,
          "internalType": "address",
          "name": "royaltyFeeRecipient",
          "type": "address"
        },
        {
          "indexed": false,
          "internalType": "uint8",
          "name": "royaltyFee",
          "type": "uint8"
        }
      ],
      "name": "DeployNFT721AndMintBatch",
      "type": "event"
    },
    {
      "anonymous": false,
      "inputs": [
        {
          "indexed": true,
          "internalType": "address",
          "name": "proxy",
          "type": "address"
        },
        {
          "indexed": true,
          "internalType": "address",
          "name": "owner",
          "type": "address"
        },
        {
          "indexed": false,
          "internalType": "string",
          "name": "name",
          "type": "string"
        },
        {
          "indexed": false,
          "internalType": "string",
          "name": "symbol",
          "type": "string"
        },
        {
          "indexed": false,
          "internalType": "uint256",
          "name": "toTokenId",
          "type": "uint256"
        },
        {
          "indexed": false,
          "internalType": "address",
          "name": "royaltyFeeRecipient",
          "type": "address"
        },
        {
          "indexed": false,
          "internalType": "uint8",
          "name": "royaltyFee",
          "type": "uint8"
        }
      ],
      "name": "DeployNFT721AndPark",
      "type": "event"
    },
    {
      "anonymous": false,
      "inputs": [
        {
          "indexed": true,
          "internalType": "address",
          "name": "proxy",
          "type": "address"
        },
        {
          "indexed": true,
          "internalType": "address",
          "name": "owner",
          "type": "address"
        },
        {
          "indexed": false,
          "internalType": "string",
          "name": "name",
          "type": "string"
        },
        {
          "indexed": false,
          "internalType": "string",
          "name": "symbol",
          "type": "string"
        },
        {
          "indexed": true,
          "internalType": "address",
          "name": "dividendToken",
          "type": "address"
        }
      ],
      "name": "DeploySocialToken",
      "type": "event"
    },
    {
      "anonymous": false,
      "inputs": [
        {
          "indexed": true,
          "internalType": "address",
          "name": "previousOwner",
          "type": "address"
        },
        {
          "indexed": true,
          "internalType": "address",
          "name": "newOwner",
          "type": "address"
        }
      ],
      "name": "OwnershipTransferred",
      "type": "event"
    },
    {
      "anonymous": false,
      "inputs": [
        {
          "indexed": true,
          "internalType": "address",
          "name": "nft",
          "type": "address"
        },
        {
          "indexed": true,
          "internalType": "uint256",
          "name": "tokenId",
          "type": "uint256"
        },
        {
          "indexed": true,
          "internalType": "string",
          "name": "tag",
          "type": "string"
        },
        {
          "indexed": false,
          "internalType": "uint256",
          "name": "tagNonce",
          "type": "uint256"
        }
      ],
      "name": "Tag",
      "type": "event"
    },
    {
      "anonymous": false,
      "inputs": [
        {
          "indexed": false,
          "internalType": "address",
          "name": "exchange",
          "type": "address"
        }
      ],
      "name": "UpgradeERC1155Exchange",
      "type": "event"
    },
    {
      "anonymous": false,
      "inputs": [
        {
          "indexed": false,
          "internalType": "address",
          "name": "exchange",
          "type": "address"
        }
      ],
      "name": "UpgradeERC721Exchange",
      "type": "event"
    },
    {
      "anonymous": false,
      "inputs": [
        {
          "indexed": false,
          "internalType": "address",
          "name": "newTarget",
          "type": "address"
        }
      ],
      "name": "UpgradeNFT1155",
      "type": "event"
    },
    {
      "anonymous": false,
      "inputs": [
        {
          "indexed": false,
          "internalType": "address",
          "name": "newTarget",
          "type": "address"
        }
      ],
      "name": "UpgradeNFT721",
      "type": "event"
    },
    {
      "anonymous": false,
      "inputs": [
        {
          "indexed": false,
          "internalType": "address",
          "name": "newTarget",
          "type": "address"
        }
      ],
      "name": "UpgradeSocialToken",
      "type": "event"
    },
    {
      "inputs": [],
      "name": "DOMAIN_SEPARATOR",
      "outputs": [
        {
          "internalType": "bytes32",
          "name": "",
          "type": "bytes32"
        }
      ],
      "stateMutability": "view",
      "type": "function"
    },
    {
      "inputs": [],
      "name": "MAX_OPERATIONAL_FEE",
      "outputs": [
        {
          "internalType": "uint8",
          "name": "",
          "type": "uint8"
        }
      ],
      "stateMutability": "view",
      "type": "function"
    },
    {
      "inputs": [],
      "name": "MAX_ROYALTY_FEE",
      "outputs": [
        {
          "internalType": "uint8",
          "name": "",
          "type": "uint8"
        }
      ],
      "stateMutability": "view",
      "type": "function"
    },
    {
      "inputs": [],
      "name": "MINT_BATCH_1155_TYPEHASH",
      "outputs": [
        {
          "internalType": "bytes32",
          "name": "",
          "type": "bytes32"
        }
      ],
      "stateMutability": "view",
      "type": "function"
    },
    {
      "inputs": [],
      "name": "MINT_BATCH_721_TYPEHASH",
      "outputs": [
        {
          "internalType": "bytes32",
          "name": "",
          "type": "bytes32"
        }
      ],
      "stateMutability": "view",
      "type": "function"
    },
    {
      "inputs": [],
      "name": "PARK_TOKEN_IDS_721",
      "outputs": [
        {
          "internalType": "bytes32",
          "name": "",
          "type": "bytes32"
        }
      ],
      "stateMutability": "view",
      "type": "function"
    },
    {
      "inputs": [],
      "name": "baseURI1155",
      "outputs": [
        {
          "internalType": "string",
          "name": "",
          "type": "string"
        }
      ],
      "stateMutability": "view",
      "type": "function"
    },
    {
      "inputs": [],
      "name": "baseURI721",
      "outputs": [
        {
          "internalType": "string",
          "name": "",
          "type": "string"
        }
      ],
      "stateMutability": "view",
      "type": "function"
    },
    {
      "inputs": [
        {
          "internalType": "address",
          "name": "owner",
          "type": "address"
        },
        {
          "internalType": "uint256[]",
          "name": "tokenIds",
          "type": "uint256[]"
        },
        {
          "internalType": "uint256[]",
          "name": "amounts",
          "type": "uint256[]"
        },
        {
          "internalType": "address",
          "name": "royaltyFeeRecipient",
          "type": "address"
        },
        {
          "internalType": "uint8",
          "name": "royaltyFee",
          "type": "uint8"
        }
      ],
      "name": "deployNFT1155AndMintBatch",
      "outputs": [
        {
          "internalType": "address",
          "name": "nft",
          "type": "address"
        }
      ],
      "stateMutability": "nonpayable",
      "type": "function"
    },
    {
      "inputs": [
        {
          "internalType": "address",
          "name": "owner",
          "type": "address"
        },
        {
          "internalType": "string",
          "name": "name",
          "type": "string"
        },
        {
          "internalType": "string",
          "name": "symbol",
          "type": "string"
        },
        {
          "internalType": "uint256[]",
          "name": "tokenIds",
          "type": "uint256[]"
        },
        {
          "internalType": "address",
          "name": "royaltyFeeRecipient",
          "type": "address"
        },
        {
          "internalType": "uint8",
          "name": "royaltyFee",
          "type": "uint8"
        }
      ],
      "name": "deployNFT721AndMintBatch",
      "outputs": [
        {
          "internalType": "address",
          "name": "nft",
          "type": "address"
        }
      ],
      "stateMutability": "nonpayable",
      "type": "function"
    },
    {
      "inputs": [
        {
          "internalType": "address",
          "name": "owner",
          "type": "address"
        },
        {
          "internalType": "string",
          "name": "name",
          "type": "string"
        },
        {
          "internalType": "string",
          "name": "symbol",
          "type": "string"
        },
        {
          "internalType": "uint256",
          "name": "toTokenId",
          "type": "uint256"
        },
        {
          "internalType": "address",
          "name": "royaltyFeeRecipient",
          "type": "address"
        },
        {
          "internalType": "uint8",
          "name": "royaltyFee",
          "type": "uint8"
        }
      ],
      "name": "deployNFT721AndPark",
      "outputs": [
        {
          "internalType": "address",
          "name": "nft",
          "type": "address"
        }
      ],
      "stateMutability": "nonpayable",
      "type": "function"
    },
    {
      "inputs": [
        {
          "internalType": "address",
          "name": "owner",
          "type": "address"
        },
        {
          "internalType": "string",
          "name": "name",
          "type": "string"
        },
        {
          "internalType": "string",
          "name": "symbol",
          "type": "string"
        },
        {
          "internalType": "address",
          "name": "dividendToken",
          "type": "address"
        }
      ],
      "name": "deploySocialToken",
      "outputs": [
        {
          "internalType": "address",
          "name": "proxy",
          "type": "address"
        }
      ],
      "stateMutability": "nonpayable",
      "type": "function"
    },
    {
      "inputs": [],
      "name": "erc1155Exchange",
      "outputs": [
        {
          "internalType": "address",
          "name": "",
          "type": "address"
        }
      ],
      "stateMutability": "view",
      "type": "function"
    },
    {
      "inputs": [],
      "name": "erc721Exchange",
      "outputs": [
        {
          "internalType": "address",
          "name": "",
          "type": "address"
        }
      ],
      "stateMutability": "view",
      "type": "function"
    },
    {
      "inputs": [
        {
          "internalType": "address",
          "name": "",
          "type": "address"
        }
      ],
      "name": "isDeployerWhitelisted",
      "outputs": [
        {
          "internalType": "bool",
          "name": "",
          "type": "bool"
        }
      ],
      "stateMutability": "view",
      "type": "function"
    },
    {
      "inputs": [
        {
          "internalType": "address",
          "name": "query",
          "type": "address"
        }
      ],
      "name": "isNFT1155",
      "outputs": [
        {
          "internalType": "bool",
          "name": "result",
          "type": "bool"
        }
      ],
      "stateMutability": "view",
      "type": "function"
    },
    {
      "inputs": [
        {
          "internalType": "address",
          "name": "query",
          "type": "address"
        }
      ],
      "name": "isNFT721",
      "outputs": [
        {
          "internalType": "bool",
          "name": "result",
          "type": "bool"
        }
      ],
      "stateMutability": "view",
      "type": "function"
    },
    {
      "inputs": [
        {
          "internalType": "address",
          "name": "query",
          "type": "address"
        }
      ],
      "name": "isSocialToken",
      "outputs": [
        {
          "internalType": "bool",
          "name": "result",
          "type": "bool"
        }
      ],
      "stateMutability": "view",
      "type": "function"
    },
    {
      "inputs": [
        {
          "internalType": "address",
          "name": "",
          "type": "address"
        }
      ],
      "name": "isStrategyWhitelisted",
      "outputs": [
        {
          "internalType": "bool",
          "name": "",
          "type": "bool"
        }
      ],
      "stateMutability": "view",
      "type": "function"
    },
    {
      "inputs": [
        {
          "internalType": "address",
          "name": "nft",
          "type": "address"
        },
        {
          "internalType": "address",
          "name": "to",
          "type": "address"
        },
        {
          "internalType": "uint256[]",
          "name": "tokenIds",
          "type": "uint256[]"
        },
        {
          "internalType": "uint256[]",
          "name": "amounts",
          "type": "uint256[]"
        },
        {
          "internalType": "bytes",
          "name": "data",
          "type": "bytes"
        },
        {
          "internalType": "uint8",
          "name": "v",
          "type": "uint8"
        },
        {
          "internalType": "bytes32",
          "name": "r",
          "type": "bytes32"
        },
        {
          "internalType": "bytes32",
          "name": "s",
          "type": "bytes32"
        }
      ],
      "name": "mintBatch1155",
      "outputs": [],
      "stateMutability": "nonpayable",
      "type": "function"
    },
    {
      "inputs": [
        {
          "internalType": "address",
          "name": "nft",
          "type": "address"
        },
        {
          "internalType": "address",
          "name": "to",
          "type": "address"
        },
        {
          "internalType": "uint256[]",
          "name": "tokenIds",
          "type": "uint256[]"
        },
        {
          "internalType": "bytes",
          "name": "data",
          "type": "bytes"
        },
        {
          "internalType": "uint8",
          "name": "v",
          "type": "uint8"
        },
        {
          "internalType": "bytes32",
          "name": "r",
          "type": "bytes32"
        },
        {
          "internalType": "bytes32",
          "name": "s",
          "type": "bytes32"
        }
      ],
      "name": "mintBatch721",
      "outputs": [],
      "stateMutability": "nonpayable",
      "type": "function"
    },
    {
      "inputs": [
        {
          "internalType": "address",
          "name": "",
          "type": "address"
        }
      ],
      "name": "nonces",
      "outputs": [
        {
          "internalType": "uint256",
          "name": "",
          "type": "uint256"
        }
      ],
      "stateMutability": "view",
      "type": "function"
    },
    {
      "inputs": [],
      "name": "operationalFeeInfo",
      "outputs": [
        {
          "internalType": "address",
          "name": "recipient",
          "type": "address"
        },
        {
          "internalType": "uint8",
          "name": "permil",
          "type": "uint8"
        }
      ],
      "stateMutability": "view",
      "type": "function"
    },
    {
      "inputs": [],
      "name": "owner",
      "outputs": [
        {
          "internalType": "address",
          "name": "",
          "type": "address"
        }
      ],
      "stateMutability": "view",
      "type": "function"
    },
    {
      "inputs": [
        {
          "internalType": "address",
          "name": "nft",
          "type": "address"
        },
        {
          "internalType": "uint256",
          "name": "toTokenId",
          "type": "uint256"
        },
        {
          "internalType": "uint8",
          "name": "v",
          "type": "uint8"
        },
        {
          "internalType": "bytes32",
          "name": "r",
          "type": "bytes32"
        },
        {
          "internalType": "bytes32",
          "name": "s",
          "type": "bytes32"
        }
      ],
      "name": "parkTokenIds721",
      "outputs": [],
      "stateMutability": "nonpayable",
      "type": "function"
    },
    {
      "inputs": [],
      "name": "protocolFeeInfo",
      "outputs": [
        {
          "internalType": "address",
          "name": "recipient",
          "type": "address"
        },
        {
          "internalType": "uint8",
          "name": "permil",
          "type": "uint8"
        }
      ],
      "stateMutability": "view",
      "type": "function"
    },
    {
      "inputs": [],
      "name": "renounceOwnership",
      "outputs": [],
      "stateMutability": "nonpayable",
      "type": "function"
    },
    {
      "inputs": [
        {
          "internalType": "string",
          "name": "uri",
          "type": "string"
        }
      ],
      "name": "setBaseURI1155",
      "outputs": [],
      "stateMutability": "nonpayable",
      "type": "function"
    },
    {
      "inputs": [
        {
          "internalType": "string",
          "name": "uri",
          "type": "string"
        }
      ],
      "name": "setBaseURI721",
      "outputs": [],
      "stateMutability": "nonpayable",
      "type": "function"
    },
    {
      "inputs": [
        {
          "internalType": "address",
          "name": "deployer",
          "type": "address"
        },
        {
          "internalType": "bool",
          "name": "whitelisted",
          "type": "bool"
        }
      ],
      "name": "setDeployerWhitelisted",
      "outputs": [],
      "stateMutability": "nonpayable",
      "type": "function"
    },
    {
      "inputs": [
        {
          "internalType": "uint8",
          "name": "operationalFee",
          "type": "uint8"
        }
      ],
      "name": "setOperationalFee",
      "outputs": [],
      "stateMutability": "nonpayable",
      "type": "function"
    },
    {
      "inputs": [
        {
          "internalType": "address",
          "name": "operationalFeeRecipient",
          "type": "address"
        }
      ],
      "name": "setOperationalFeeRecipient",
      "outputs": [],
      "stateMutability": "nonpayable",
      "type": "function"
    },
    {
      "inputs": [
        {
          "internalType": "address",
          "name": "protocolFeeRecipient",
          "type": "address"
        }
      ],
      "name": "setProtocolFeeRecipient",
      "outputs": [],
      "stateMutability": "nonpayable",
      "type": "function"
    },
    {
      "inputs": [
        {
          "internalType": "address",
          "name": "strategy",
          "type": "address"
        },
        {
          "internalType": "bool",
          "name": "whitelisted",
          "type": "bool"
        }
      ],
      "name": "setStrategyWhitelisted",
      "outputs": [],
      "stateMutability": "nonpayable",
      "type": "function"
    },
    {
      "inputs": [
        {
          "internalType": "address",
          "name": "",
          "type": "address"
        },
        {
          "internalType": "uint256",
          "name": "",
          "type": "uint256"
        }
      ],
      "name": "tagNonces",
      "outputs": [
        {
          "internalType": "uint256",
          "name": "",
          "type": "uint256"
        }
      ],
      "stateMutability": "view",
      "type": "function"
    },
    {
      "inputs": [
        {
          "internalType": "address",
          "name": "newOwner",
          "type": "address"
        }
      ],
      "name": "transferOwnership",
      "outputs": [],
      "stateMutability": "nonpayable",
      "type": "function"
    },
    {
      "inputs": [
        {
          "internalType": "address",
          "name": "exchange",
          "type": "address"
        }
      ],
      "name": "upgradeERC1155Exchange",
      "outputs": [],
      "stateMutability": "nonpayable",
      "type": "function"
    },
    {
      "inputs": [
        {
          "internalType": "address",
          "name": "exchange",
          "type": "address"
        }
      ],
      "name": "upgradeERC721Exchange",
      "outputs": [],
      "stateMutability": "nonpayable",
      "type": "function"
    },
    {
      "inputs": [
        {
          "internalType": "address",
          "name": "newTarget",
          "type": "address"
        }
      ],
      "name": "upgradeNFT1155",
      "outputs": [],
      "stateMutability": "nonpayable",
      "type": "function"
    },
    {
      "inputs": [
        {
          "internalType": "address",
          "name": "newTarget",
          "type": "address"
        }
      ],
      "name": "upgradeNFT721",
      "outputs": [],
      "stateMutability": "nonpayable",
      "type": "function"
    },
    {
      "inputs": [
        {
          "internalType": "address",
          "name": "newTarget",
          "type": "address"
        }
      ],
      "name": "upgradeSocialToken",
      "outputs": [],
      "stateMutability": "nonpayable",
      "type": "function"
    }
  ],
  "transactionHash": "0x980df4dc6fde42a3303c04ed7fd5cbeef0e0c7b6d919ba2fae12d9e2f4be7772",
  "args": [
    "0x93c7020393df59A951217d92d982d67A34a1557D",
    25,
    "0x93c7020393df59A951217d92d982d67A34a1557D",
    0,
    "https://raw.githubusercontent.com/shoyunft/metadata/master/rinkeby/",
    "https://raw.githubusercontent.com/shoyunft/metadata/master/rinkeby/"
  ],
  "solcInputHash": "649f3e90395d33e221dc9854e5364e1a",
  "bytecode": "0x60c06040523480156200001157600080fd5b50604051620033b8380380620033b8833981016040819052620000349162000329565b600080546001600160a01b031916339081178255604051909182917f8be0079c531659141344cd1fd0a4f28419497f9722a3daafe3b4186f6b6457e0908290a350600480546001600160a01b038881166001600160a81b031992831617600160a01b60ff8a81168202929092179094556005805492891692909316919091179086169092029190911790558151620000d4906007906020850190620001a1565b508051620000ea906008906020840190620001a1565b504660a0818152604080517f8b73c3c69bb8fe3d512ecc4cf759cc79239f7b179b0ffacaa9a75d522b39400f60208201527f3d756f2d713885339bf87a67d06485521802e959f50d61d7607ed7117e51bc16918101919091527fc89efdaa54c0f20c7adf612882df0950f5a951637e0307cdcb4c672f298b8bc660608201526080810192909252309082015260c00160408051601f198184030181529190528051602090910120608052506200042d945050505050565b828054620001af90620003da565b90600052602060002090601f016020900481019282620001d357600085556200021e565b82601f10620001ee57805160ff19168380011785556200021e565b828001600101855582156200021e579182015b828111156200021e57825182559160200191906001019062000201565b506200022c92915062000230565b5090565b5b808211156200022c576000815560010162000231565b80516001600160a01b03811681146200025f57600080fd5b919050565b600082601f83011262000275578081fd5b81516001600160401b038082111562000292576200029262000417565b604051601f8301601f19908116603f01168101908282118183101715620002bd57620002bd62000417565b81604052838152602092508683858801011115620002d9578485fd5b8491505b83821015620002fc5785820183015181830184015290820190620002dd565b838211156200030d57848385830101525b9695505050505050565b805160ff811681146200025f57600080fd5b60008060008060008060c0878903121562000342578182fd5b6200034d8762000247565b95506200035d6020880162000317565b94506200036d6040880162000247565b93506200037d6060880162000317565b60808801519093506001600160401b03808211156200039a578384fd5b620003a88a838b0162000264565b935060a0890151915080821115620003be578283fd5b50620003cd89828a0162000264565b9150509295509295509295565b600181811c90821680620003ef57607f821691505b602082108114156200041157634e487b7160e01b600052602260045260246000fd5b50919050565b634e487b7160e01b600052604160045260246000fd5b60805160a051612f65620004536000396000610cd901526000610d010152612f656000f3fe608060405234801561001057600080fd5b50600436106102535760003560e01c8063706e1ce511610146578063aec0b543116100c3578063d1640c9e11610087578063d1640c9e146105ab578063d4ed40be146105ce578063d5f7e756146105e1578063e521cb92146105f4578063e7ceca8114610607578063f2fde38b1461061a57610253565b8063aec0b54314610526578063bc96e8c714610560578063c2b11e1814610573578063c6edbca414610590578063cb03111c1461059857610253565b80638518482e1161010a5780638518482e146104a55780638da5cb5b146104b85780638f4ac6b2146104c9578063999ba27c146104dc578063a984253f146104ff57610253565b8063706e1ce514610430578063715018a614610443578063749495881461044b5780637ecebe001461045e57806381bedf161461047e57610253565b806334375c90116101d457806345943ee11161019857806345943ee1146103cc5780634dd5ad0b146103ef5780634e3a599b146103f757806353ebf0221461040a5780635ef003691461041d57610253565b806334375c90146103765780633644e515146103895780633683a63d146103915780633869faeb146103a657806343ae710b146103b957610253565b806324b72fd91161021b57806324b72fd9146102ff57806325ea867814610312578063262b9f631461033d578063272f37bc146103505780633419b1681461036357610253565b806304895e021461025857806309e9e8591461026d5780630b3aef6f1461029d5780630e309d87146102d257806317e1f82e146102e5575b600080fd5b61026b610266366004612282565b61062d565b005b61028061027b366004612455565b6106d8565b6040516001600160a01b0390911681526020015b60405180910390f35b6102c47f884adba7f4e17962aed36c871036adea39c6d9f81fb25407a78db239e9731e8681565b604051908152602001610294565b61026b6102e03660046124ec565b610891565b6102ed60fa81565b60405160ff9091168152602001610294565b61026b61030d3660046124ec565b6108e6565b6102c4610320366004612701565b600d60209081526000928352604080842090915290825290205481565b61026b61034b3660046127a3565b610961565b61028061035e366004612528565b6109a2565b61026b61037136600461272c565b610b52565b600954610280906001600160a01b031681565b6102c4610cd3565b610399610dca565b6040516102949190612cc3565b6102806103b43660046125ed565b610e58565b600a54610280906001600160a01b031681565b6103df6103da366004612282565b610ff4565b6040519015158152602001610294565b6102ed603281565b6103df610405366004612282565b611078565b61026b610418366004612282565b6110b8565b6103df61042b366004612282565b611166565b61026b61043e366004612282565b6111a5565b61026b61124d565b61026b6104593660046127de565b6112c1565b6102c461046c366004612282565b60066020526000908152604090205481565b6102c47f3fddacac0a7d8b05f741f01ff6becadd9986be8631a2af41a675f365dd74090d81565b61026b6104b33660046127a3565b611354565b6000546001600160a01b0316610280565b61026b6104d73660046122c1565b611391565b6103df6104ea366004612282565b600c6020526000908152604090205460ff1681565b6102c47fb47ce0f6456fcc2f16b7d6e7b0255eb73822b401248e672a4543c2b3d718304381565b6004546001600160a01b03811690600160a01b900460ff165b604080516001600160a01b03909316835260ff909116602083015201610294565b61028061056e36600461267b565b611528565b6005546001600160a01b03811690600160a01b900460ff1661053f565b6103996116d8565b61026b6105a6366004612282565b6116e5565b6103df6105b9366004612282565b600b6020526000908152604090205460ff1681565b61026b6105dc3660046123a0565b61175d565b61026b6105ef366004612282565b6118dd565b61026b610602366004612282565b611985565b61026b610615366004612282565b611a27565b61026b610628366004612282565b611a9f565b6000546001600160a01b031633146106605760405162461bcd60e51b815260040161065790612d25565b60405180910390fd5b6001600160a01b0381166106b65760405162461bcd60e51b815260206004820152601860248201527f53484f59553a20494e56414c49445f524543495049454e5400000000000000006044820152606401610657565b600580546001600160a01b0319166001600160a01b0392909216919091179055565b6000808052600b602052600080516020612f108339815191525460ff168061070f5750336000908152600b602052604090205460ff165b61072b5760405162461bcd60e51b815260040161065790612cfb565b6001600160a01b0386166107515760405162461bcd60e51b815260040161065790612d5a565b83518551146107a25760405162461bcd60e51b815260206004820152601860248201527f53484f59553a204c454e475448535f4e4f545f455155414c00000000000000006044820152606401610657565b6002805461083591906107b790600190612e17565b815481106107d557634e487b7160e01b600052603260045260246000fd5b6000918252602090912001546040516001600160a01b03909116906108069089908990899089908990602401612977565b60408051601f198184030181529190526020810180516001600160e01b031663bff5e79d60e01b179052611b89565b9050856001600160a01b0316816001600160a01b03167fe8e548b895f4fdeb62d7c9df220d96b267c9b1333933d6d222abe97c9eb4e178878787876040516108809493929190612adb565b60405180910390a395945050505050565b6000546001600160a01b031633146108bb5760405162461bcd60e51b815260040161065790612d25565b6001600160a01b03919091166000908152600b60205260409020805460ff1916911515919091179055565b6000546001600160a01b031633146109105760405162461bcd60e51b815260040161065790612d25565b6001600160a01b0382166109365760405162461bcd60e51b815260040161065790612d5a565b6001600160a01b03919091166000908152600c60205260409020805460ff1916911515919091179055565b6000546001600160a01b0316331461098b5760405162461bcd60e51b815260040161065790612d25565b805161099e906007906020840190612055565b5050565b6000808052600b602052600080516020612f108339815191525460ff16806109d95750336000908152600b602052604090205460ff165b6109f55760405162461bcd60e51b815260040161065790612cfb565b86610a125760405162461bcd60e51b815260040161065790612db9565b84610a2f5760405162461bcd60e51b815260040161065790612d8a565b6001600160a01b038916610a555760405162461bcd60e51b815260040161065790612d5a565b60018054610aed9190610a69908290612e17565b81548110610a8757634e487b7160e01b600052603260045260246000fd5b6000918252602090912001546040516001600160a01b0390911690610abe908c908c908c908c908c908c908c908c906024016129c9565b60408051601f198184030181529190526020810180516001600160e01b0316634f65e6d160e11b179052611b89565b9050886001600160a01b0316816001600160a01b03167ffa2a29eed800c9b77b7b93bac9b8f33afdf859cdcdc8dabed1fee5879c5b85fa8a8a8a8a8a8a8a604051610b3e9796959493929190612c0d565b60405180910390a398975050505050505050565b6000856001600160a01b0316638da5cb5b6040518163ffffffff1660e01b815260040160206040518083038186803b158015610b8d57600080fd5b505afa158015610ba1573d6000803e3d6000fd5b505050506040513d601f19601f82011682018060405250810190610bc591906122a5565b6001600160a01b0381166000908152600660205260408120805492935090917f3fddacac0a7d8b05f741f01ff6becadd9986be8631a2af41a675f365dd74090d918991899185610c1483612eb0565b909155506040805160208101959095526001600160a01b03909316928401929092526060830152608082015260a001604051602081830303815290604052805190602001209050610c708183878787610c6b610cd3565b611c8c565b60405163325d78dd60e21b8152600481018790526001600160a01b0388169063c975e37490602401600060405180830381600087803b158015610cb257600080fd5b505af1158015610cc6573d6000803e3d6000fd5b5050505050505050505050565b600080467f00000000000000000000000000000000000000000000000000000000000000001415610d2557507f0000000000000000000000000000000000000000000000000000000000000000610dc5565b604080517f8b73c3c69bb8fe3d512ecc4cf759cc79239f7b179b0ffacaa9a75d522b39400f60208201527f3d756f2d713885339bf87a67d06485521802e959f50d61d7607ed7117e51bc16918101919091527fc89efdaa54c0f20c7adf612882df0950f5a951637e0307cdcb4c672f298b8bc660608201524660808201523060a082015260c0016040516020818303038152906040528051906020012090505b905090565b60078054610dd790612e75565b80601f0160208091040260200160405190810160405280929190818152602001828054610e0390612e75565b8015610e505780601f10610e2557610100808354040283529160200191610e50565b820191906000526020600020905b815481529060010190602001808311610e3357829003601f168201915b505050505081565b6000808052600b602052600080516020612f108339815191525460ff1680610e8f5750336000908152600b602052604090205460ff165b610eab5760405162461bcd60e51b815260040161065790612cfb565b86610ec85760405162461bcd60e51b815260040161065790612db9565b84610ee55760405162461bcd60e51b815260040161065790612d8a565b6001600160a01b038916610f0b5760405162461bcd60e51b815260040161065790612d5a565b60018054610fa39190610f1f908290612e17565b81548110610f3d57634e487b7160e01b600052603260045260246000fd5b6000918252602090912001546040516001600160a01b0390911690610f74908c908c908c908c908c908c908c908c90602401612a34565b60408051601f198184030181529190526020810180516001600160e01b031663ac9a252160e01b179052611b89565b9050886001600160a01b0316816001600160a01b03167f56a094468f3010722aa253bc3d45e75efe2a0550b929f9f0f4d4591dbca5131d8a8a8a8a8a8a8a604051610b3e9796959493929190612c70565b6002546000905b6001811061106d5761104c6002611013600184612e17565b8154811061103157634e487b7160e01b600052603260045260246000fd5b6000918252602090912001546001600160a01b031684611e4b565b1561105b576001915050611073565b8061106581612e5e565b915050610ffb565b50600090505b919050565b6003546000905b6001811061106d576110976003611013600184612e17565b156110a6576001915050611073565b806110b081612e5e565b91505061107f565b6000546001600160a01b031633146110e25760405162461bcd60e51b815260040161065790612d25565b6001805480820182556000919091527fb10e2d527612073b26eecdfd717e6a320cf44b4afac2b0732d9fcbe2b7fa0cf60180546001600160a01b0319166001600160a01b0383169081179091556040519081527f90dccdf0d0809c3f945a409a3ce4652bf2c9b283e5aad88b3e36361433132cbb906020015b60405180910390a150565b6001546000905b6001811061106d5761118460016110138184612e17565b15611193576001915050611073565b8061119d81612e5e565b91505061116d565b6000546001600160a01b031633146111cf5760405162461bcd60e51b815260040161065790612d25565b600380546001810182556000919091527fc2575a0e9e593c00f959f8c92f12db2869c3395a3b0502d05e2516446f71f85b0180546001600160a01b0319166001600160a01b0383169081179091556040519081527fe8698a9880993ca12864a4d6e8bff70e3e073d4104aa0f9a8fdb2b74576922ab9060200161115b565b6000546001600160a01b031633146112775760405162461bcd60e51b815260040161065790612d25565b600080546040516001600160a01b03909116907f8be0079c531659141344cd1fd0a4f28419497f9722a3daafe3b4186f6b6457e0908390a3600080546001600160a01b0319169055565b6000546001600160a01b031633146112eb5760405162461bcd60e51b815260040161065790612d25565b603260ff821611156113345760405162461bcd60e51b815260206004820152601260248201527153484f59553a20494e56414c49445f46454560701b6044820152606401610657565b6005805460ff909216600160a01b0260ff60a01b19909216919091179055565b6000546001600160a01b0316331461137e5760405162461bcd60e51b815260040161065790612d25565b805161099e906008906020840190612055565b60008b6001600160a01b0316638da5cb5b6040518163ffffffff1660e01b815260040160206040518083038186803b1580156113cc57600080fd5b505afa1580156113e0573d6000803e3d6000fd5b505050506040513d601f19601f8201168201806040525081019061140491906122a5565b905060007fb47ce0f6456fcc2f16b7d6e7b0255eb73822b401248e672a4543c2b3d718304360001b8d8d8d8d8d8d8d8d600660008c6001600160a01b03166001600160a01b03168152602001908152602001600020600081548092919061146a90612eb0565b919050556040516020016114879a99989796959493929190612b25565b6040516020818303038152906040528051906020012090506114af8183878787610c6b610cd3565b604051630fbfeffd60e11b81526001600160a01b038e1690631f7fdffa906114e7908f908f908f908f908f908f908f906004016128d8565b600060405180830381600087803b15801561150157600080fd5b505af1158015611515573d6000803e3d6000fd5b5050505050505050505050505050505050565b6000808052600b602052600080516020612f108339815191525460ff168061155f5750336000908152600b602052604090205460ff165b61157b5760405162461bcd60e51b815260040161065790612cfb565b600084511161159c5760405162461bcd60e51b815260040161065790612db9565b60008351116115bd5760405162461bcd60e51b815260040161065790612d8a565b6001600160a01b0385166115e35760405162461bcd60e51b815260040161065790612d5a565b6000858585856040516024016115fc9493929190612a92565b60408051601f198184030181529190526020810180516001600160e01b031663613d25bb60e01b179052600380549192506116769161163d90600190612e17565b8154811061165b57634e487b7160e01b600052603260045260246000fd5b6000918252602090912001546001600160a01b031682611b89565b9150826001600160a01b0316866001600160a01b0316836001600160a01b03167fb17d2759d3d0f9f291f22b908114ad38cb6e664c1355972dc09eeed60c23020088886040516116c7929190612cd6565b60405180910390a450949350505050565b60088054610dd790612e75565b6000546001600160a01b0316331461170f5760405162461bcd60e51b815260040161065790612d25565b600980546001600160a01b0319166001600160a01b0383169081179091556040519081527f7906d96d0db1eb8f6805ac6930c6abd633b14b59c0b239412e1fd979ca1254669060200161115b565b6000896001600160a01b0316638da5cb5b6040518163ffffffff1660e01b815260040160206040518083038186803b15801561179857600080fd5b505afa1580156117ac573d6000803e3d6000fd5b505050506040513d601f19601f820116820180604052508101906117d091906122a5565b6001600160a01b0381166000908152600660205260408120805492935090917f884adba7f4e17962aed36c871036adea39c6d9f81fb25407a78db239e9731e86918d918d918d918d918d918d918961182783612eb0565b91905055604051602001611842989796959493929190612b98565b60405160208183030381529060405280519060200120905061186a8183878787610c6b610cd3565b604051631143124160e11b81526001600160a01b038c169063228624829061189e908d908d908d908d908d90600401612933565b600060405180830381600087803b1580156118b857600080fd5b505af11580156118cc573d6000803e3d6000fd5b505050505050505050505050505050565b6000546001600160a01b031633146119075760405162461bcd60e51b815260040161065790612d25565b600280546001810182556000919091527f405787fa12a823e0f2b7631cc41b3ba8828b3321ca811111fa75cd3aa3bb5ace0180546001600160a01b0319166001600160a01b0383169081179091556040519081527f1c9e0a997b60cd0855450b5761db24330074e914ceab5b053193b28d6a3e45639060200161115b565b6000546001600160a01b031633146119af5760405162461bcd60e51b815260040161065790612d25565b6001600160a01b038116611a055760405162461bcd60e51b815260206004820152601c60248201527f53484f59553a20494e56414c49445f4645455f524543495049454e54000000006044820152606401610657565b600480546001600160a01b0319166001600160a01b0392909216919091179055565b6000546001600160a01b03163314611a515760405162461bcd60e51b815260040161065790612d25565b600a80546001600160a01b0319166001600160a01b0383169081179091556040519081527fca237d3f5dd115a560a2d7ddcc75a87200fca9a3b55e7f78330108c92b87a99a9060200161115b565b6000546001600160a01b03163314611ac95760405162461bcd60e51b815260040161065790612d25565b6001600160a01b038116611b2e5760405162461bcd60e51b815260206004820152602660248201527f4f776e61626c653a206e6577206f776e657220697320746865207a65726f206160448201526564647265737360d01b6064820152608401610657565b600080546040516001600160a01b03808516939216917f8be0079c531659141344cd1fd0a4f28419497f9722a3daafe3b4186f6b6457e091a3600080546001600160a01b0319166001600160a01b0392909216919091179055565b6000808360601b9050604051733d602d80600a3d3981f3363d3d373d3d3d363d7360601b81528160148201526e5af43d82803e903d91602b57fd5bf360881b60288201526037816000f0925050600083511115611c85576000826001600160a01b031684604051611bfa91906128bc565b6000604051808303816000865af19150503d8060008114611c37576040519150601f19603f3d011682016040523d82523d6000602084013e611c3c565b606091505b5050905080611c835760405162461bcd60e51b815260206004820152601360248201527253484f59553a2043414c4c5f4641494c55524560681b6044820152606401610657565b505b5092915050565b60405161190160f01b60208201526022810182905260428101879052600090606201604051602081830303815290604052805190602001209050611cd0863b151590565b15611de057604080516020810186905280820185905260f887901b6001600160f81b0319166060820152815160418183030181526061820192839052630b135d3f60e11b9092526001600160a01b03881691631626ba7e91611d36918591606501612bf4565b60206040518083038186803b158015611d4e57600080fd5b505afa158015611d62573d6000803e3d6000fd5b505050506040513d601f19601f82011682018060405250810190611d86919061277b565b6001600160e01b031916631626ba7e60e01b14611ddb5760405162461bcd60e51b815260206004820152601360248201527214d213d6554e8815539055551213d492569151606a1b6044820152606401610657565b611e42565b856001600160a01b0316611df682878787611eac565b6001600160a01b031614611e425760405162461bcd60e51b815260206004820152601360248201527214d213d6554e8815539055551213d492569151606a1b6044820152606401610657565b50505050505050565b6000808360601b905060405169363d3d373d3d3d363d7360b01b815281600a8201526e5af43d82803e903d91602b57fd5bf360881b601e82015260408101602d600082873c600d810151600d83015114815183511416935050505092915050565b60007f7fffffffffffffffffffffffffffffff5d576e7357a4501ddfe92f46681b20a0821115611f295760405162461bcd60e51b815260206004820152602260248201527f45434453413a20696e76616c6964207369676e6174757265202773272076616c604482015261756560f01b6064820152608401610657565b8360ff16601b1480611f3e57508360ff16601c145b611f955760405162461bcd60e51b815260206004820152602260248201527f45434453413a20696e76616c6964207369676e6174757265202776272076616c604482015261756560f01b6064820152608401610657565b6040805160008082526020820180845288905260ff871692820192909252606081018590526080810184905260019060a0016020604051602081039080840390855afa158015611fe9573d6000803e3d6000fd5b5050604051601f1901519150506001600160a01b03811661204c5760405162461bcd60e51b815260206004820152601860248201527f45434453413a20696e76616c6964207369676e617475726500000000000000006044820152606401610657565b95945050505050565b82805461206190612e75565b90600052602060002090601f01602090048101928261208357600085556120c9565b82601f1061209c57805160ff19168380011785556120c9565b828001600101855582156120c9579182015b828111156120c95782518255916020019190600101906120ae565b506120d59291506120d9565b5090565b5b808211156120d557600081556001016120da565b803561107381612ef7565b60008083601f84011261210a578182fd5b50813567ffffffffffffffff811115612121578182fd5b6020830191508360208260051b850101111561213c57600080fd5b9250929050565b600082601f830112612153578081fd5b8135602067ffffffffffffffff82111561216f5761216f612ee1565b8160051b61217e828201612de6565b838152828101908684018388018501891015612198578687fd5b8693505b858410156121ba57803583526001939093019291840191840161219c565b50979650505050505050565b60008083601f8401126121d7578182fd5b50813567ffffffffffffffff8111156121ee578182fd5b60208301915083602082850101111561213c57600080fd5b600082601f830112612216578081fd5b813567ffffffffffffffff81111561223057612230612ee1565b612243601f8201601f1916602001612de6565b818152846020838601011115612257578283fd5b816020850160208301379081016020019190915292915050565b803560ff8116811461107357600080fd5b600060208284031215612293578081fd5b813561229e81612ef7565b9392505050565b6000602082840312156122b6578081fd5b815161229e81612ef7565b60008060008060008060008060008060006101008c8e0312156122e2578687fd5b6122eb8c6120ee565b9a506122f960208d016120ee565b995067ffffffffffffffff8060408e01351115612314578788fd5b6123248e60408f01358f016120f9565b909a50985060608d0135811015612339578788fd5b6123498e60608f01358f016120f9565b909850965060808d013581101561235e578586fd5b5061236f8d60808e01358e016121c6565b909550935061238060a08d01612271565b925060c08c0135915060e08c013590509295989b509295989b9093969950565b600080600080600080600080600060e08a8c0312156123bd578485fd5b89356123c881612ef7565b985060208a01356123d881612ef7565b975060408a013567ffffffffffffffff808211156123f4578687fd5b6124008d838e016120f9565b909950975060608c0135915080821115612418578687fd5b506124258c828d016121c6565b9096509450612438905060808b01612271565b925060a08a0135915060c08a013590509295985092959850929598565b600080600080600060a0868803121561246c578081fd5b853561247781612ef7565b9450602086013567ffffffffffffffff80821115612493578283fd5b61249f89838a01612143565b955060408801359150808211156124b4578283fd5b506124c188828901612143565b93505060608601356124d281612ef7565b91506124e060808701612271565b90509295509295909350565b600080604083850312156124fe578182fd5b823561250981612ef7565b91506020830135801515811461251d578182fd5b809150509250929050565b60008060008060008060008060c0898b031215612543578182fd5b883561254e81612ef7565b9750602089013567ffffffffffffffff8082111561256a578384fd5b6125768c838d016121c6565b909950975060408b013591508082111561258e578384fd5b61259a8c838d016121c6565b909750955060608b01359150808211156125b2578384fd5b506125bf8b828c01612143565b93505060808901356125d081612ef7565b91506125de60a08a01612271565b90509295985092959890939650565b60008060008060008060008060c0898b031215612608578182fd5b883561261381612ef7565b9750602089013567ffffffffffffffff8082111561262f578384fd5b61263b8c838d016121c6565b909950975060408b0135915080821115612653578384fd5b506126608b828c016121c6565b9096509450506060890135925060808901356125d081612ef7565b60008060008060808587031215612690578182fd5b843561269b81612ef7565b9350602085013567ffffffffffffffff808211156126b7578384fd5b6126c388838901612206565b945060408701359150808211156126d8578384fd5b506126e587828801612206565b92505060608501356126f681612ef7565b939692955090935050565b60008060408385031215612713578182fd5b823561271e81612ef7565b946020939093013593505050565b600080600080600060a08688031215612743578283fd5b853561274e81612ef7565b94506020860135935061276360408701612271565b94979396509394606081013594506080013592915050565b60006020828403121561278c578081fd5b81516001600160e01b03198116811461229e578182fd5b6000602082840312156127b4578081fd5b813567ffffffffffffffff8111156127ca578182fd5b6127d684828501612206565b949350505050565b6000602082840312156127ef578081fd5b61229e82612271565b81835260006001600160fb1b03831115612810578081fd5b8260051b80836020870137939093016020019283525090919050565b6000815180845260208085019450808401835b8381101561285b5781518752958201959082019060010161283f565b509495945050505050565b60008284528282602086013780602084860101526020601f19601f85011685010190509392505050565b600081518084526128a8816020860160208601612e2e565b601f01601f19169290920160200192915050565b600082516128ce818460208701612e2e565b9190910192915050565b6001600160a01b03881681526080602082018190526000906128fd908301888a6127f8565b82810360408401526129108187896127f8565b90508281036060840152612925818587612866565b9a9950505050505050505050565b6001600160a01b038616815260606020820181905260009061295890830186886127f8565b828103604084015261296b818587612866565b98975050505050505050565b600060018060a01b03808816835260a0602084015261299960a084018861282c565b83810360408501526129ab818861282c565b959091166060840152505060ff919091166080909101529392505050565b600060018060a01b03808b16835260c060208401526129ec60c084018a8c612866565b83810360408501526129ff81898b612866565b90508381036060850152612a13818861282c565b959091166080840152505060ff9190911660a0909101529695505050505050565b600060018060a01b03808b16835260c06020840152612a5760c084018a8c612866565b8381036040850152612a6a81898b612866565b92505085606084015280851660808401525060ff831660a08301529998505050505050505050565b600060018060a01b03808716835260806020840152612ab46080840187612890565b8381036040850152612ac68187612890565b92505080841660608401525095945050505050565b600060808252612aee608083018761282c565b8281036020840152612b00818761282c565b6001600160a01b03959095166040840152505060ff9190911660609091015292915050565b8a81526001600160a01b038a811660208301528916604082015260e060608201819052600090612b58908301898b6127f8565b8281036080840152612b6b81888a6127f8565b905082810360a0840152612b80818688612866565b9150508260c08301529b9a5050505050505050505050565b8881526001600160a01b0388811660208301528716604082015260c060608201819052600090612bcb90830187896127f8565b8281036080840152612bde818688612866565b9150508260a08301529998505050505050505050565b6000838252604060208301526127d66040830184612890565b600060a08252612c2160a08301898b612866565b8281036020840152612c3481888a612866565b90508281036040840152612c48818761282c565b6001600160a01b03959095166060840152505060ff9190911660809091015295945050505050565b600060a08252612c8460a08301898b612866565b8281036020840152612c9781888a612866565b604084019690965250506001600160a01b0392909216606083015260ff16608090910152949350505050565b60006020825261229e6020830184612890565b600060408252612ce96040830185612890565b828103602084015261204c8185612890565b60208082526010908201526f29a427acaa9d102327a92124a22222a760811b604082015260600190565b6020808252818101527f4f776e61626c653a2063616c6c6572206973206e6f7420746865206f776e6572604082015260600190565b60208082526016908201527553484f59553a20494e56414c49445f4144445245535360501b604082015260600190565b60208082526015908201527414d213d6554e881253959053125117d4d6535093d3605a1b604082015260600190565b60208082526013908201527253484f59553a20494e56414c49445f4e414d4560681b604082015260600190565b604051601f8201601f1916810167ffffffffffffffff81118282101715612e0f57612e0f612ee1565b604052919050565b600082821015612e2957612e29612ecb565b500390565b60005b83811015612e49578181015183820152602001612e31565b83811115612e58576000848401525b50505050565b600081612e6d57612e6d612ecb565b506000190190565b600181811c90821680612e8957607f821691505b60208210811415612eaa57634e487b7160e01b600052602260045260246000fd5b50919050565b6000600019821415612ec457612ec4612ecb565b5060010190565b634e487b7160e01b600052601160045260246000fd5b634e487b7160e01b600052604160045260246000fd5b6001600160a01b0381168114612f0c57600080fd5b5056fedf7de25b7f1fd6d0b5205f0e18f1f35bd7b8d84cce336588d184533ce43a6f76a26469706673582212208561951fb3f96097694c4cdfcca5322bb4d71305830987e3b31ba9b8c59d0c5664736f6c63430008030033",
  "devdoc": {
    "kind": "dev",
    "methods": {
      "owner()": {
        "details": "Returns the address of the current owner."
      },
      "renounceOwnership()": {
        "details": "Leaves the contract without owner. It will not be possible to call `onlyOwner` functions anymore. Can only be called by the current owner. NOTE: Renouncing ownership will leave the contract without an owner, thereby removing any functionality that is only available to the owner."
      },
      "transferOwnership(address)": {
        "details": "Transfers ownership of the contract to a new account (`newOwner`). Can only be called by the current owner."
      }
    },
    "version": 1
  },
  "userdoc": {
    "kind": "user",
    "methods": {},
    "version": 1
  },
  "storageLayout": {
    "storage": [
      {
        "astId": 7,
        "contract": "contracts/TokenFactory.sol:TokenFactory",
        "label": "_owner",
        "offset": 0,
        "slot": "0",
        "type": "t_address"
      },
      {
        "astId": 4352,
        "contract": "contracts/TokenFactory.sol:TokenFactory",
        "label": "_targets721",
        "offset": 0,
        "slot": "1",
        "type": "t_array(t_address)dyn_storage"
      },
      {
        "astId": 4355,
        "contract": "contracts/TokenFactory.sol:TokenFactory",
        "label": "_targets1155",
        "offset": 0,
        "slot": "2",
        "type": "t_array(t_address)dyn_storage"
      },
      {
        "astId": 4358,
        "contract": "contracts/TokenFactory.sol:TokenFactory",
        "label": "_targetsSocialToken",
        "offset": 0,
        "slot": "3",
        "type": "t_array(t_address)dyn_storage"
      },
      {
        "astId": 4360,
        "contract": "contracts/TokenFactory.sol:TokenFactory",
        "label": "_protocolFeeRecipient",
        "offset": 0,
        "slot": "4",
        "type": "t_address"
      },
      {
        "astId": 4362,
        "contract": "contracts/TokenFactory.sol:TokenFactory",
        "label": "_protocolFee",
        "offset": 20,
        "slot": "4",
        "type": "t_uint8"
      },
      {
        "astId": 4364,
        "contract": "contracts/TokenFactory.sol:TokenFactory",
        "label": "_operationalFeeRecipient",
        "offset": 0,
        "slot": "5",
        "type": "t_address"
      },
      {
        "astId": 4366,
        "contract": "contracts/TokenFactory.sol:TokenFactory",
        "label": "_operationalFee",
        "offset": 20,
        "slot": "5",
        "type": "t_uint8"
      },
      {
        "astId": 4371,
        "contract": "contracts/TokenFactory.sol:TokenFactory",
        "label": "nonces",
        "offset": 0,
        "slot": "6",
        "type": "t_mapping(t_address,t_uint256)"
      },
      {
        "astId": 4374,
        "contract": "contracts/TokenFactory.sol:TokenFactory",
        "label": "baseURI721",
        "offset": 0,
        "slot": "7",
        "type": "t_string_storage"
      },
      {
        "astId": 4377,
        "contract": "contracts/TokenFactory.sol:TokenFactory",
        "label": "baseURI1155",
        "offset": 0,
        "slot": "8",
        "type": "t_string_storage"
      },
      {
        "astId": 4380,
        "contract": "contracts/TokenFactory.sol:TokenFactory",
        "label": "erc721Exchange",
        "offset": 0,
        "slot": "9",
        "type": "t_address"
      },
      {
        "astId": 4383,
        "contract": "contracts/TokenFactory.sol:TokenFactory",
        "label": "erc1155Exchange",
        "offset": 0,
        "slot": "10",
        "type": "t_address"
      },
      {
        "astId": 4388,
        "contract": "contracts/TokenFactory.sol:TokenFactory",
        "label": "isDeployerWhitelisted",
        "offset": 0,
        "slot": "11",
        "type": "t_mapping(t_address,t_bool)"
      },
      {
        "astId": 4393,
        "contract": "contracts/TokenFactory.sol:TokenFactory",
        "label": "isStrategyWhitelisted",
        "offset": 0,
        "slot": "12",
        "type": "t_mapping(t_address,t_bool)"
      },
      {
        "astId": 4399,
        "contract": "contracts/TokenFactory.sol:TokenFactory",
        "label": "tagNonces",
        "offset": 0,
        "slot": "13",
        "type": "t_mapping(t_address,t_mapping(t_uint256,t_uint256))"
      }
    ],
    "types": {
      "t_address": {
        "encoding": "inplace",
        "label": "address",
        "numberOfBytes": "20"
      },
      "t_array(t_address)dyn_storage": {
        "base": "t_address",
        "encoding": "dynamic_array",
        "label": "address[]",
        "numberOfBytes": "32"
      },
      "t_bool": {
        "encoding": "inplace",
        "label": "bool",
        "numberOfBytes": "1"
      },
      "t_mapping(t_address,t_bool)": {
        "encoding": "mapping",
        "key": "t_address",
        "label": "mapping(address => bool)",
        "numberOfBytes": "32",
        "value": "t_bool"
      },
      "t_mapping(t_address,t_mapping(t_uint256,t_uint256))": {
        "encoding": "mapping",
        "key": "t_address",
        "label": "mapping(address => mapping(uint256 => uint256))",
        "numberOfBytes": "32",
        "value": "t_mapping(t_uint256,t_uint256)"
      },
      "t_mapping(t_address,t_uint256)": {
        "encoding": "mapping",
        "key": "t_address",
        "label": "mapping(address => uint256)",
        "numberOfBytes": "32",
        "value": "t_uint256"
      },
      "t_mapping(t_uint256,t_uint256)": {
        "encoding": "mapping",
        "key": "t_uint256",
        "label": "mapping(uint256 => uint256)",
        "numberOfBytes": "32",
        "value": "t_uint256"
      },
      "t_string_storage": {
        "encoding": "bytes",
        "label": "string",
        "numberOfBytes": "32"
      },
      "t_uint256": {
        "encoding": "inplace",
        "label": "uint256",
        "numberOfBytes": "32"
      },
      "t_uint8": {
        "encoding": "inplace",
        "label": "uint8",
        "numberOfBytes": "1"
      }
    }
  }
}