{
  "address": "0x8954ABcBc4B858C2DBFC1283E4eBf6466070332c",
  "abi": [
    {
      "inputs": [
        {
          "internalType": "address",
          "name": "proxy",
          "type": "address"
        },
        {
          "internalType": "uint256",
          "name": "deadline",
          "type": "uint256"
        },
        {
          "internalType": "bytes",
          "name": "params",
          "type": "bytes"
        },
        {
          "internalType": "address",
          "name": "",
          "type": "address"
        },
        {
          "internalType": "uint256",
          "name": "bidPrice",
          "type": "uint256"
        },
        {
          "internalType": "address",
          "name": "",
          "type": "address"
        },
        {
          "internalType": "uint256",
          "name": "bestBidPrice",
          "type": "uint256"
        },
        {
          "internalType": "uint256",
          "name": "",
          "type": "uint256"
        }
      ],
      "name": "canBid",
      "outputs": [
        {
          "internalType": "bool",
          "name": "",
          "type": "bool"
        }
      ],
      "stateMutability": "view",
      "type": "function"
    },
    {
      "inputs": [
        {
          "internalType": "address",
          "name": "proxy",
          "type": "address"
        },
        {
          "internalType": "uint256",
          "name": "deadline",
          "type": "uint256"
        },
        {
          "internalType": "bytes",
          "name": "params",
          "type": "bytes"
        },
        {
          "internalType": "address",
          "name": "bidder",
          "type": "address"
        },
        {
          "internalType": "uint256",
          "name": "bidPrice",
          "type": "uint256"
        },
        {
          "internalType": "address",
          "name": "bestBidder",
          "type": "address"
        },
        {
          "internalType": "uint256",
          "name": "bestBidPrice",
          "type": "uint256"
        },
        {
          "internalType": "uint256",
          "name": "",
          "type": "uint256"
        }
      ],
      "name": "canClaim",
      "outputs": [
        {
          "internalType": "bool",
          "name": "",
          "type": "bool"
        }
      ],
      "stateMutability": "view",
      "type": "function"
    }
  ],
  "transactionHash": "0x66222e662b5441bd1ed9b93d834e828fea2967b0f7c8014040a42fc40f404ecd",
  "args": [],
  "solcInputHash": "c35eb8f1a98968c4fcd094db75c5b52f",
  "bytecode": "0x608060405234801561001057600080fd5b50610420806100206000396000f3fe608060405234801561001057600080fd5b50600436106100365760003560e01c8063610e2d3b1461003b578063e9b3838f14610062575b600080fd5b61004e6100493660046102ad565b610075565b604051901515815260200160405180910390f35b61004e6100703660046102ad565b610192565b60006001600160a01b0389166100b757836001600160a01b0316866001600160a01b03161480156100a557508285145b80156100b057504288105b9050610186565b600080888060200190518101906100ce91906103b1565b91509150600082116101275760405162461bcd60e51b815260206004820152601a60248201527f53484f59553a20494e56414c49445f53544152545f505249434500000000000060448201526064015b60405180910390fd5b8981106101725760405162461bcd60e51b815260206004820152601960248201527814d213d6554e881253959053125117d4d5105495115117d055603a1b604482015260640161011e565b8187101580156101815750428a105b925050505b98975050505050505050565b60006001600160a01b03891661028957600080888060200190518101906101b991906103b1565b915091506000821161020d5760405162461bcd60e51b815260206004820152601a60248201527f53484f59553a20494e56414c49445f53544152545f5052494345000000000000604482015260640161011e565b8981106102585760405162461bcd60e51b815260206004820152601960248201527814d213d6554e881253959053125117d4d5105495115117d055603a1b604482015260640161011e565b4280821180159061026857508a81105b80156102745750828810155b801561027f57508588115b9350505050610186565b506000610186565b80356001600160a01b03811681146102a857600080fd5b919050565b600080600080600080600080610100898b0312156102c9578384fd5b6102d289610291565b975060208901359650604089013567ffffffffffffffff808211156102f5578586fd5b818b0191508b601f830112610308578586fd5b81358181111561031a5761031a6103d4565b604051601f8201601f19908116603f01168101908382118183101715610342576103426103d4565b816040528281528e602084870101111561035a578889fd5b8260208601602083013791820160200188905250975061037f91505060608a01610291565b94506080890135935061039460a08a01610291565b925060c0890135915060e089013590509295985092959890939650565b600080604083850312156103c3578182fd5b505080516020909101519092909150565b634e487b7160e01b600052604160045260246000fdfea2646970667358221220ad26b5127c227550d582c53add16d11424eb5924560f4425b273f031cba6b5df64736f6c63430008030033",
  "devdoc": {
    "kind": "dev",
    "methods": {},
    "version": 1
  },
  "userdoc": {
    "kind": "user",
    "methods": {},
    "version": 1
  },
  "storageLayout": {
    "storage": [],
    "types": null
  }
}