{
  "address": "0xDd6716b7b2cEb6b528179809ca9B872759fFd53b",
  "abi": [
    {
      "inputs": [
        {
          "internalType": "address",
          "name": "factory_",
          "type": "address"
        }
      ],
      "stateMutability": "nonpayable",
      "type": "constructor"
    },
    {
      "anonymous": false,
      "inputs": [
        {
          "indexed": true,
          "internalType": "bytes32",
          "name": "hash",
          "type": "bytes32"
        },
        {
          "indexed": false,
          "internalType": "address",
          "name": "bidder",
          "type": "address"
        },
        {
          "indexed": false,
          "internalType": "uint256",
          "name": "amount",
          "type": "uint256"
        },
        {
          "indexed": false,
          "internalType": "uint256",
          "name": "price",
          "type": "uint256"
        },
        {
          "indexed": false,
          "internalType": "address",
          "name": "recipient",
          "type": "address"
        },
        {
          "indexed": false,
          "internalType": "address",
          "name": "referrer",
          "type": "address"
        }
      ],
      "name": "Bid",
      "type": "event"
    },
    {
      "anonymous": false,
      "inputs": [
        {
          "indexed": true,
          "internalType": "bytes32",
          "name": "hash",
          "type": "bytes32"
        }
      ],
      "name": "Cancel",
      "type": "event"
    },
    {
      "anonymous": false,
      "inputs": [
        {
          "indexed": true,
          "internalType": "bytes32",
          "name": "hash",
          "type": "bytes32"
        },
        {
          "indexed": false,
          "internalType": "address",
          "name": "bidder",
          "type": "address"
        },
        {
          "indexed": false,
          "internalType": "uint256",
          "name": "amount",
          "type": "uint256"
        },
        {
          "indexed": false,
          "internalType": "uint256",
          "name": "price",
          "type": "uint256"
        },
        {
          "indexed": false,
          "internalType": "address",
          "name": "recipient",
          "type": "address"
        },
        {
          "indexed": false,
          "internalType": "address",
          "name": "referrer",
          "type": "address"
        }
      ],
      "name": "Claim",
      "type": "event"
    },
    {
      "inputs": [],
      "name": "DOMAIN_SEPARATOR",
      "outputs": [
        {
          "internalType": "bytes32",
          "name": "",
          "type": "bytes32"
        }
      ],
      "stateMutability": "view",
      "type": "function"
    },
    {
      "inputs": [
        {
          "internalType": "bytes32",
          "name": "",
          "type": "bytes32"
        }
      ],
      "name": "amountFilled",
      "outputs": [
        {
          "internalType": "uint256",
          "name": "",
          "type": "uint256"
        }
      ],
      "stateMutability": "view",
      "type": "function"
    },
    {
      "inputs": [
        {
          "internalType": "bytes32",
          "name": "",
          "type": "bytes32"
        }
      ],
      "name": "bestBid",
      "outputs": [
        {
          "internalType": "address",
          "name": "bidder",
          "type": "address"
        },
        {
          "internalType": "uint256",
          "name": "amount",
          "type": "uint256"
        },
        {
          "internalType": "uint256",
          "name": "price",
          "type": "uint256"
        },
        {
          "internalType": "address",
          "name": "recipient",
          "type": "address"
        },
        {
          "internalType": "address",
          "name": "referrer",
          "type": "address"
        },
        {
          "internalType": "uint256",
          "name": "blockNumber",
          "type": "uint256"
        }
      ],
      "stateMutability": "view",
      "type": "function"
    },
    {
      "inputs": [
        {
          "components": [
            {
              "internalType": "address",
              "name": "signer",
              "type": "address"
            },
            {
              "internalType": "address",
              "name": "token",
              "type": "address"
            },
            {
              "internalType": "uint256",
              "name": "tokenId",
              "type": "uint256"
            },
            {
              "internalType": "uint256",
              "name": "amount",
              "type": "uint256"
            },
            {
              "internalType": "address",
              "name": "strategy",
              "type": "address"
            },
            {
              "internalType": "address",
              "name": "currency",
              "type": "address"
            },
            {
              "internalType": "address",
              "name": "recipient",
              "type": "address"
            },
            {
              "internalType": "uint256",
              "name": "deadline",
              "type": "uint256"
            },
            {
              "internalType": "bytes",
              "name": "params",
              "type": "bytes"
            },
            {
              "internalType": "uint8",
              "name": "v",
              "type": "uint8"
            },
            {
              "internalType": "bytes32",
              "name": "r",
              "type": "bytes32"
            },
            {
              "internalType": "bytes32",
              "name": "s",
              "type": "bytes32"
            }
          ],
          "internalType": "struct Orders.Ask",
          "name": "askOrder",
          "type": "tuple"
        },
        {
          "internalType": "uint256",
          "name": "bidAmount",
          "type": "uint256"
        },
        {
          "internalType": "uint256",
          "name": "bidPrice",
          "type": "uint256"
        },
        {
          "internalType": "address",
          "name": "bidRecipient",
          "type": "address"
        },
        {
          "internalType": "address",
          "name": "bidReferrer",
          "type": "address"
        }
      ],
      "name": "bid",
      "outputs": [
        {
          "internalType": "bool",
          "name": "executed",
          "type": "bool"
        }
      ],
      "stateMutability": "nonpayable",
      "type": "function"
    },
    {
      "inputs": [
        {
          "components": [
            {
              "internalType": "address",
              "name": "signer",
              "type": "address"
            },
            {
              "internalType": "address",
              "name": "token",
              "type": "address"
            },
            {
              "internalType": "uint256",
              "name": "tokenId",
              "type": "uint256"
            },
            {
              "internalType": "uint256",
              "name": "amount",
              "type": "uint256"
            },
            {
              "internalType": "address",
              "name": "strategy",
              "type": "address"
            },
            {
              "internalType": "address",
              "name": "currency",
              "type": "address"
            },
            {
              "internalType": "address",
              "name": "recipient",
              "type": "address"
            },
            {
              "internalType": "uint256",
              "name": "deadline",
              "type": "uint256"
            },
            {
              "internalType": "bytes",
              "name": "params",
              "type": "bytes"
            },
            {
              "internalType": "uint8",
              "name": "v",
              "type": "uint8"
            },
            {
              "internalType": "bytes32",
              "name": "r",
              "type": "bytes32"
            },
            {
              "internalType": "bytes32",
              "name": "s",
              "type": "bytes32"
            }
          ],
          "internalType": "struct Orders.Ask",
          "name": "askOrder",
          "type": "tuple"
        },
        {
          "components": [
            {
              "internalType": "bytes32",
              "name": "askHash",
              "type": "bytes32"
            },
            {
              "internalType": "address",
              "name": "signer",
              "type": "address"
            },
            {
              "internalType": "uint256",
              "name": "amount",
              "type": "uint256"
            },
            {
              "internalType": "uint256",
              "name": "price",
              "type": "uint256"
            },
            {
              "internalType": "address",
              "name": "recipient",
              "type": "address"
            },
            {
              "internalType": "address",
              "name": "referrer",
              "type": "address"
            },
            {
              "internalType": "uint8",
              "name": "v",
              "type": "uint8"
            },
            {
              "internalType": "bytes32",
              "name": "r",
              "type": "bytes32"
            },
            {
              "internalType": "bytes32",
              "name": "s",
              "type": "bytes32"
            }
          ],
          "internalType": "struct Orders.Bid",
          "name": "bidOrder",
          "type": "tuple"
        }
      ],
      "name": "bid",
      "outputs": [
        {
          "internalType": "bool",
          "name": "executed",
          "type": "bool"
        }
      ],
      "stateMutability": "nonpayable",
      "type": "function"
    },
    {
      "inputs": [
        {
          "internalType": "address",
          "name": "nft",
          "type": "address"
        }
      ],
      "name": "canTrade",
      "outputs": [
        {
          "internalType": "bool",
          "name": "",
          "type": "bool"
        }
      ],
      "stateMutability": "view",
      "type": "function"
    },
    {
      "inputs": [
        {
          "components": [
            {
              "internalType": "address",
              "name": "signer",
              "type": "address"
            },
            {
              "internalType": "address",
              "name": "token",
              "type": "address"
            },
            {
              "internalType": "uint256",
              "name": "tokenId",
              "type": "uint256"
            },
            {
              "internalType": "uint256",
              "name": "amount",
              "type": "uint256"
            },
            {
              "internalType": "address",
              "name": "strategy",
              "type": "address"
            },
            {
              "internalType": "address",
              "name": "currency",
              "type": "address"
            },
            {
              "internalType": "address",
              "name": "recipient",
              "type": "address"
            },
            {
              "internalType": "uint256",
              "name": "deadline",
              "type": "uint256"
            },
            {
              "internalType": "bytes",
              "name": "params",
              "type": "bytes"
            },
            {
              "internalType": "uint8",
              "name": "v",
              "type": "uint8"
            },
            {
              "internalType": "bytes32",
              "name": "r",
              "type": "bytes32"
            },
            {
              "internalType": "bytes32",
              "name": "s",
              "type": "bytes32"
            }
          ],
          "internalType": "struct Orders.Ask",
          "name": "order",
          "type": "tuple"
        }
      ],
      "name": "cancel",
      "outputs": [],
      "stateMutability": "nonpayable",
      "type": "function"
    },
    {
      "inputs": [
        {
          "components": [
            {
              "internalType": "address",
              "name": "signer",
              "type": "address"
            },
            {
              "internalType": "address",
              "name": "token",
              "type": "address"
            },
            {
              "internalType": "uint256",
              "name": "tokenId",
              "type": "uint256"
            },
            {
              "internalType": "uint256",
              "name": "amount",
              "type": "uint256"
            },
            {
              "internalType": "address",
              "name": "strategy",
              "type": "address"
            },
            {
              "internalType": "address",
              "name": "currency",
              "type": "address"
            },
            {
              "internalType": "address",
              "name": "recipient",
              "type": "address"
            },
            {
              "internalType": "uint256",
              "name": "deadline",
              "type": "uint256"
            },
            {
              "internalType": "bytes",
              "name": "params",
              "type": "bytes"
            },
            {
              "internalType": "uint8",
              "name": "v",
              "type": "uint8"
            },
            {
              "internalType": "bytes32",
              "name": "r",
              "type": "bytes32"
            },
            {
              "internalType": "bytes32",
              "name": "s",
              "type": "bytes32"
            }
          ],
          "internalType": "struct Orders.Ask",
          "name": "askOrder",
          "type": "tuple"
        }
      ],
      "name": "claim",
      "outputs": [],
      "stateMutability": "nonpayable",
      "type": "function"
    },
    {
      "inputs": [],
      "name": "factory",
      "outputs": [
        {
          "internalType": "address",
          "name": "",
          "type": "address"
        }
      ],
      "stateMutability": "view",
      "type": "function"
    },
    {
      "inputs": [
        {
          "internalType": "bytes32",
          "name": "",
          "type": "bytes32"
        }
      ],
      "name": "isCancelledOrClaimed",
      "outputs": [
        {
          "internalType": "bool",
          "name": "",
          "type": "bool"
        }
      ],
      "stateMutability": "view",
      "type": "function"
    }
  ],
  "transactionHash": "0xc08db2261995c747939d402145e70fc95819cf9503ccbf362c77834536c0636d",
  "args": [
    "0x932126d05B66aEdF93E7889C06cCe86D1EC19Cab"
  ],
  "solcInputHash": "ef584d04a9560a34dfa91987c913844c",
  "bytecode": "0x60e06040523480156200001157600080fd5b5060405162002c5338038062002c53833981016040819052620000349162000562565b6200003e620000fd565b606081901b6001600160601b03191660c0524660a0527f8b73c3c69bb8fe3d512ecc4cf759cc79239f7b179b0ffacaa9a75d522b39400f6200008c30620001b2602090811b62000a4917901c565b80516020918201206040805192830193909352918101919091527fc89efdaa54c0f20c7adf612882df0950f5a951637e0307cdcb4c672f298b8bc660608201524660808201523060a082015260c00160408051601f1981840301815291905280516020909101206080525062000616565b600054610100900460ff168062000117575060005460ff16155b6200016f5760405162461bcd60e51b815260206004820152602e602482015260008051602062002c3383398151915260448201526d191e481a5b9a5d1a585b1a5e995960921b60648201526084015b60405180910390fd5b600054610100900460ff1615801562000192576000805461ffff19166101011790555b6200019c62000219565b8015620001af576000805461ff00191690555b50565b606081620001dc57506040805180820190915260048152630307830360e41b602082015262000214565b8160005b8115620002035780620001f381620005e2565b915050600882901c9150620001e0565b6200020f8482620002b4565b925050505b919050565b600054610100900460ff168062000233575060005460ff16155b620002875760405162461bcd60e51b815260206004820152602e602482015260008051602062002c3383398151915260448201526d191e481a5b9a5d1a585b1a5e995960921b606482015260840162000166565b600054610100900460ff16158015620002aa576000805461ffff19166101011790555b6200019c620004b0565b60606000620002c5836002620005a6565b620002d29060026200058b565b6001600160401b03811115620002f857634e487b7160e01b600052604160045260246000fd5b6040519080825280601f01601f19166020018201604052801562000323576020820181803683370190505b509050600360fc1b816000815181106200034d57634e487b7160e01b600052603260045260246000fd5b60200101906001600160f81b031916908160001a905350600f60fb1b816001815181106200038b57634e487b7160e01b600052603260045260246000fd5b60200101906001600160f81b031916908160001a9053506000620003b1846002620005a6565b620003be9060016200058b565b90505b600181111562000458576f181899199a1a9b1b9c1cb0b131b232b360811b85600f16601081106200040257634e487b7160e01b600052603260045260246000fd5b1a60f81b8282815181106200042757634e487b7160e01b600052603260045260246000fd5b60200101906001600160f81b031916908160001a90535060049490941c936200045081620005c8565b9050620003c1565b508315620004a95760405162461bcd60e51b815260206004820181905260248201527f537472696e67733a20686578206c656e67746820696e73756666696369656e74604482015260640162000166565b9392505050565b600054610100900460ff1680620004ca575060005460ff16155b6200051e5760405162461bcd60e51b815260206004820152602e602482015260008051602062002c3383398151915260448201526d191e481a5b9a5d1a585b1a5e995960921b606482015260840162000166565b600054610100900460ff1615801562000541576000805461ffff19166101011790555b6000805462ff0000191690558015620001af576000805461ff001916905550565b60006020828403121562000574578081fd5b81516001600160a01b0381168114620004a9578182fd5b60008219821115620005a157620005a162000600565b500190565b6000816000190483118215151615620005c357620005c362000600565b500290565b600081620005da57620005da62000600565b506000190190565b6000600019821415620005f957620005f962000600565b5060010190565b634e487b7160e01b600052601160045260246000fd5b60805160a05160c05160601c6125d56200065e600039600081816101dc0152818161087d01528181610d82015261104c0152600061070a0152600061073201526125d56000f3fe608060405234801561001057600080fd5b506004361061009d5760003560e01c80635771f997116100665780635771f9971461011b57806375e6590f146101af578063c45a0155146101cf578063def2716414610206578063e331a715146102195761009d565b8062893bf8146100a25780630935d663146100b75780633644e515146100ca57806344f09d11146100e5578063559f05dc14610108575b600080fd5b6100b56100b036600461219e565b61023c565b005b6100b56100c536600461219e565b610338565b6100d2610704565b6040519081526020015b60405180910390f35b6100f86100f33660046122a4565b6107ed565b60405190151581526020016100dc565b6100f86101163660046120bc565b61085b565b61017061012936600461215e565b60016020819052600091825260409091208054918101546002820154600383015460048401546005909401546001600160a01b039586169593949293918216929091169086565b604080516001600160a01b03978816815260208101969096528501939093529084166060840152909216608082015260a081019190915260c0016100dc565b6100d26101bd36600461215e565b60036020526000908152604090205481565b6040516001600160a01b037f00000000000000000000000000000000000000000000000000000000000000001681526020016100dc565b6100f86102143660046121d1565b610902565b6100f861022736600461215e565b60026020526000908152604090205460ff1681565b80516001600160a01b0316331461028d5760405162461bcd60e51b815260206004820152601060248201526f29a427acaa9d102327a92124a22222a760811b60448201526064015b60405180910390fd5b600061029882610aa6565b6000818152600160205260409020549091506001600160a01b0316156102f45760405162461bcd60e51b815260206004820152601160248201527053484f59553a204249445f45584953545360781b6044820152606401610284565b600081815260026020526040808220805460ff191660011790555182917fe8d9861dbc9c663ed3accd261bbe2fe01e0d3d9e5f51fa38523b265c7757a93a91a25050565b60005460ff62010000909104161515600114156103675760405162461bcd60e51b8152600401610284906123d8565b6000805462ff000019166201000017905560208101516103869061085b565b6103cc5760405162461bcd60e51b815260206004820152601760248201527653484f59553a20494e56414c49445f45584348414e474560481b6044820152606401610284565b60006103d782610aa6565b90506103e38282610b84565b61040b818360000151846101200151856101400151866101600151610406610704565b610e6f565b600081815260016020818152604092839020835160c08101855281546001600160a01b0390811680835294830154938201939093526002820154818601819052600383015484166060830152600480840154851660808085019190915260059094015460a084018190529389015160e08a01516101008b01519851636511995160e01b8152949891909616966365119951966104b4969095929491939192849284929101612402565b60206040518083038186803b1580156104cc57600080fd5b505afa1580156104e0573d6000803e3d6000fd5b505050506040513d601f19601f82011682018060405250810190610504919061213e565b6105415760405162461bcd60e51b815260206004820152600e60248201526d53484f59553a204641494c55524560901b6044820152606401610284565b60c08301516001600160a01b038116610558575082515b600083815260026020908152604091829020805460ff19166001179055858101518683015160a0880151865193870151948701516105a8959394929391929187916105a391906124b8565b61102e565b6105f45760405162461bcd60e51b815260206004820152601f60248201527f53484f59553a204641494c45445f544f5f5452414e534645525f46554e4453006044820152606401610284565b602080830151600085815260039092526040909120546106149190612480565b60008481526003602052604090205560608201516001600160a01b03811661063a575081515b6106578560200151866000015183886040015187602001516112aa565b600084815260016020818152604080842080546001600160a01b031990811682559381018590556002810185905560038101805485169055600481018054909416909355600590920192909255845191850151858201516080870151925188947f0642c67a22e8657a7126bb3b9fb3f01965503642f884e4c6a1efd8ed24f46c0d946106e9949193919288919061237a565b60405180910390a250506000805462ff000019169055505050565b600080467f0000000000000000000000000000000000000000000000000000000000000000141561075657507f00000000000000000000000000000000000000000000000000000000000000006107e8565b7f8b73c3c69bb8fe3d512ecc4cf759cc79239f7b179b0ffacaa9a75d522b39400f61078030610a49565b80516020918201206040805192830193909352918101919091527fc89efdaa54c0f20c7adf612882df0950f5a951637e0307cdcb4c672f298b8bc660608201524660808201523060a082015260c0016040516020818303038152906040528051906020012090505b905090565b6000805460ff620100009091041615156001141561081d5760405162461bcd60e51b8152600401610284906123d8565b6000805462ff00001916620100001790556108458661083b81610aa6565b338888888861131b565b6000805462ff0000191690559695505050505050565b604051635ef0036960e01b81526001600160a01b0382811660048301526000917f000000000000000000000000000000000000000000000000000000000000000090911690635ef003699060240160206040518083038186803b1580156108c157600080fd5b505afa1580156108d5573d6000803e3d6000fd5b505050506040513d601f19601f820116820180604052508101906108f9919061213e565b1590505b919050565b6000805460ff62010000909104161515600114156109325760405162461bcd60e51b8152600401610284906123d8565b6000805462ff000019166201000017815561094c84610aa6565b835190915081146109975760405162461bcd60e51b81526020600482015260156024820152740a6909eb2aa7440aa9c9a82a886908a88be9082a69605b1b6044820152606401610284565b60208301516001600160a01b03166109e95760405162461bcd60e51b815260206004820152601560248201527429a427acaa9d1024a72b20a624a22fa9a4a3a722a960591b6044820152606401610284565b610a126109f5846117bf565b84602001518560c001518660e00151876101000151610406610704565b610a35848285602001518660400151876060015188608001518960a0015161131b565b6000805462ff000019169055949350505050565b606081610a7157506040805180820190915260048152630307830360e41b60208201526108fd565b8160005b8115610a945780610a8581612531565b915050600882901c9150610a75565b610a9e848261184a565b949350505050565b80516020808301516040808501516060860151608087015160a088015160c089015160e08a01516101008b01518051908a0120965160009a610b679a7f17fdf8831f8bd77353b30f42ba9bc64e7144545a42a890389f298feeb45dec889a9199919897969594939201998a526001600160a01b0398891660208b015296881660408a01526060890195909552608088019390935290851660a0870152841660c086015290921660e08401526101008301919091526101208201526101400190565b604051602081830303815290604052805190602001209050919050565b60008181526002602052604090205460ff1615610be35760405162461bcd60e51b815260206004820152601b60248201527f53484f59553a2043414e43454c4c45445f4f525f434c41494d454400000000006044820152606401610284565b81516001600160a01b0316610c315760405162461bcd60e51b815260206004820152601460248201527329a427acaa9d1024a72b20a624a22fa6a0a5a2a960611b6044820152606401610284565b60208201516001600160a01b0316610c805760405162461bcd60e51b815260206004820152601260248201527114d213d6554e881253959053125117d3919560721b6044820152606401610284565b6000826060015111610ccc5760405162461bcd60e51b815260206004820152601560248201527414d213d6554e881253959053125117d05353d55395605a1b6044820152606401610284565b60808201516001600160a01b0316610d265760405162461bcd60e51b815260206004820152601760248201527f53484f59553a20494e56414c49445f53545241544547590000000000000000006044820152606401610284565b60a08201516001600160a01b0316610d805760405162461bcd60e51b815260206004820152601760248201527f53484f59553a20494e56414c49445f43555252454e43590000000000000000006044820152606401610284565b7f00000000000000000000000000000000000000000000000000000000000000006080830151604051632666e89f60e21b81526001600160a01b03918216600482015291169063999ba27c9060240160206040518083038186803b158015610de757600080fd5b505afa158015610dfb573d6000803e3d6000fd5b505050506040513d601f19601f82011682018060405250810190610e1f919061213e565b610e6b5760405162461bcd60e51b815260206004820152601f60248201527f53484f59553a2053545241544547595f4e4f545f57484954454c4953544544006044820152606401610284565b5050565b60405161190160f01b60208201526022810182905260428101879052600090606201604051602081830303815290604052805190602001209050610eb3863b151590565b15610fc357604080516020810186905280820185905260f887901b6001600160f81b0319166060820152815160418183030181526061820192839052630b135d3f60e11b9092526001600160a01b03881691631626ba7e91610f199185916065016123ac565b60206040518083038186803b158015610f3157600080fd5b505afa158015610f45573d6000803e3d6000fd5b505050506040513d601f19601f82011682018060405250810190610f699190612176565b6001600160e01b031916631626ba7e60e01b14610fbe5760405162461bcd60e51b815260206004820152601360248201527214d213d6554e8815539055551213d492569151606a1b6044820152606401610284565b611025565b856001600160a01b0316610fd982878787611a33565b6001600160a01b0316146110255760405162461bcd60e51b815260206004820152601360248201527214d213d6554e8815539055551213d492569151606a1b6044820152606401610284565b50505050505050565b600061103c85853085611bc6565b611048575060006112a0565b60007f000000000000000000000000000000000000000000000000000000000000000090506000839050600080836001600160a01b031663aec0b5436040518163ffffffff1660e01b8152600401604080518083038186803b1580156110ad57600080fd5b505afa1580156110c1573d6000803e3d6000fd5b505050506040513d601f19601f820116820180604052508101906110e59190612105565b909250905060006103e86110fc60ff8416896124b8565b6111069190612498565b905061111c6001600160a01b038b168483611c98565b61112681856124d7565b9350505050600080836001600160a01b031663c2b11e186040518163ffffffff1660e01b8152600401604080518083038186803b15801561116657600080fd5b505afa15801561117a573d6000803e3d6000fd5b505050506040513d601f19601f8201168201806040525081019061119e9190612105565b909250905060006103e86111b560ff8416896124b8565b6111bf9190612498565b90506111d56001600160a01b038b168483611c98565b6111df81856124d7565b60405163152a902d60e11b8152600481018d9052602481018990529094506001600160a01b038d169350632a55205a92506044019050604080518083038186803b15801561122c57600080fd5b505afa92505050801561125c575060408051601f3d908101601f19168201909252611259918101906120d8565b60015b61126557611285565b80156112825761127581846124d7565b9250611282898383611cef565b50505b6112996001600160a01b0388168683611c98565b6001925050505b9695505050505050565b604051632142170760e11b81526001600160a01b0385811660048301528481166024830152604482018490528616906342842e0e90606401600060405180830381600087803b1580156112fc57600080fd5b505af1158015611310573d6000803e3d6000fd5b505050505050505050565b600061132a886020015161085b565b6113705760405162461bcd60e51b815260206004820152601760248201527653484f59553a20494e56414c49445f45584348414e474560481b6044820152606401610284565b600085116113b85760405162461bcd60e51b815260206004820152601560248201527414d213d6554e881253959053125117d05353d55395605a1b6044820152606401610284565b60008781526003602052604090205460608901516113d68783612480565b11156114165760405162461bcd60e51b815260206004820152600f60248201526e14d213d6554e8814d3d31117d3d555608a1b6044820152606401610284565b6114208989610b84565b611443888a600001518b61012001518c61014001518d6101600151610406610704565b6000600160008a8152602001908152602001600020905089608001516001600160a01b031663651199518b60e001518c61010001518b8a8660000160009054906101000a90046001600160a01b0316876002015488600501546040518863ffffffff1660e01b81526004016114be9796959493929190612402565b60206040518083038186803b1580156114d657600080fd5b505afa1580156114ea573d6000803e3d6000fd5b505050506040513d601f19601f8201168201806040525081019061150e919061213e565b156116265761151d8783612480565b60008a81526003602052604090205560c08a01516001600160a01b038116611543575089515b6115638b602001518c604001518d60a001518c858d8d6105a391906124b8565b6115af5760405162461bcd60e51b815260206004820152601f60248201527f53484f59553a204641494c45445f544f5f5452414e534645525f46554e4453006044820152606401610284565b6001600160a01b0386166115c1578895505b6115da8b602001518c60000151888e604001518c6112aa565b897f0642c67a22e8657a7126bb3b9fb3f01965503642f884e4c6a1efd8ed24f46c0d8a8a8a8a8a60405161161295949392919061237a565b60405180910390a2600193505050506117b4565b89608001516001600160a01b0316635f11a72b8b60e001518c61010001518b8a8660000160009054906101000a90046001600160a01b0316876002015488600501546040518863ffffffff1660e01b815260040161168a9796959493929190612402565b60206040518083038186803b1580156116a257600080fd5b505afa1580156116b6573d6000803e3d6000fd5b505050506040513d601f19601f820116820180604052508101906116da919061213e565b1561177b5780546001600160a01b03808a166001600160a01b031992831617835560018301899055600283018890556003830180548883169084161790556004830180549187169190921617905543600582015560405189907f4055f76fe1f351fec66b9ba790ddbdc29eb45c038163a6b1327277441a8c65f190611768908b908b908b908b908b9061237a565b60405180910390a26000925050506117b4565b60405162461bcd60e51b815260206004820152600e60248201526d53484f59553a204641494c55524560901b6044820152606401610284565b979650505050505050565b80516020808301516040808501516060860151608087015160a08801519351600097610b67977fb98e1dc48988064e6dfb813618609d7da80a8841e5f277039788ac4b50d497b297919691959493920196875260208701959095526001600160a01b03938416604087015260608601929092526080850152811660a08401521660c082015260e00190565b606060006118598360026124b8565b611864906002612480565b67ffffffffffffffff81111561188a57634e487b7160e01b600052604160045260246000fd5b6040519080825280601f01601f1916602001820160405280156118b4576020820181803683370190505b509050600360fc1b816000815181106118dd57634e487b7160e01b600052603260045260246000fd5b60200101906001600160f81b031916908160001a905350600f60fb1b8160018151811061191a57634e487b7160e01b600052603260045260246000fd5b60200101906001600160f81b031916908160001a905350600061193e8460026124b8565b611949906001612480565b90505b60018111156119dd576f181899199a1a9b1b9c1cb0b131b232b360811b85600f166010811061198b57634e487b7160e01b600052603260045260246000fd5b1a60f81b8282815181106119af57634e487b7160e01b600052603260045260246000fd5b60200101906001600160f81b031916908160001a90535060049490941c936119d68161251a565b905061194c565b508315611a2c5760405162461bcd60e51b815260206004820181905260248201527f537472696e67733a20686578206c656e67746820696e73756666696369656e746044820152606401610284565b9392505050565b60007f7fffffffffffffffffffffffffffffff5d576e7357a4501ddfe92f46681b20a0821115611aa55760405162461bcd60e51b815260206004820181905260248201527f53484f59553a20494e56414c49445f5349474e41545552455f535f56414c55456044820152606401610284565b8360ff16601b1480611aba57508360ff16601c145b611b065760405162461bcd60e51b815260206004820181905260248201527f53484f59553a20494e56414c49445f5349474e41545552455f565f56414c55456044820152606401610284565b6040805160008082526020820180845288905260ff871692820192909252606081018590526080810184905260019060a0016020604051602081039080840390855afa158015611b5a573d6000803e3d6000fd5b5050604051601f1901519150506001600160a01b038116611bbd5760405162461bcd60e51b815260206004820152601860248201527f53484f59553a20494e56414c49445f5349474e415455524500000000000000006044820152606401610284565b95945050505050565b604080516001600160a01b0385811660248301528481166044830152606480830185905283518084039091018152608490920183526020820180516001600160e01b03166323b872dd60e01b17905291516000928392839291891691611c2c919061235e565b6000604051808303816000865af19150503d8060008114611c69576040519150601f19603f3d011682016040523d82523d6000602084013e611c6e565b606091505b50915091508180156117b45750805115806117b45750808060200190518101906117b4919061213e565b604080516001600160a01b038416602482015260448082018490528251808303909101815260649091019091526020810180516001600160e01b031663a9059cbb60e01b179052611cea908490611d84565b505050565b611d036001600160a01b0384168383611c98565b813b15611cea57816001600160a01b031663fff6cae96040518163ffffffff1660e01b8152600401602060405180830381600087803b158015611d4557600080fd5b505af1925050508015611d75575060408051601f3d908101601f19168201909252611d729181019061231a565b60015b611d7e57611cea565b50505050565b6000611dd9826040518060400160405280602081526020017f5361666545524332303a206c6f772d6c6576656c2063616c6c206661696c6564815250856001600160a01b0316611e569092919063ffffffff16565b805190915015611cea5780806020019051810190611df7919061213e565b611cea5760405162461bcd60e51b815260206004820152602a60248201527f5361666545524332303a204552433230206f7065726174696f6e20646964206e6044820152691bdd081cdd58d8d9595960b21b6064820152608401610284565b6060610a9e848460008585843b611eaf5760405162461bcd60e51b815260206004820152601d60248201527f416464726573733a2063616c6c20746f206e6f6e2d636f6e74726163740000006044820152606401610284565b600080866001600160a01b03168587604051611ecb919061235e565b60006040518083038185875af1925050503d8060008114611f08576040519150601f19603f3d011682016040523d82523d6000602084013e611f0d565b606091505b50915091506117b482828660608315611f27575081611a2c565b825115611f375782518084602001fd5b8160405162461bcd60e51b815260040161028491906123c5565b80356108fd81612578565b600082601f830112611f6c578081fd5b813567ffffffffffffffff811115611f8657611f86612562565b611f99601f8201601f191660200161244f565b818152846020838601011115611fad578283fd5b816020850160208301379081016020019190915292915050565b6000610180808385031215611fda578182fd5b611fe38161244f565b915050611fef82611f51565b8152611ffd60208301611f51565b6020820152604082013560408201526060820135606082015261202260808301611f51565b608082015261203360a08301611f51565b60a082015261204460c08301611f51565b60c082015260e082013560e08201526101008083013567ffffffffffffffff81111561206f57600080fd5b61207b85828601611f5c565b82840152505061012061208f8184016120b1565b9082015261014082810135908201526101609182013591810191909152919050565b80356108fd81612590565b6000602082840312156120cd578081fd5b8135611a2c81612578565b600080604083850312156120ea578081fd5b82516120f581612578565b6020939093015192949293505050565b60008060408385031215612117578182fd5b825161212281612578565b602084015190925061213381612590565b809150509250929050565b60006020828403121561214f578081fd5b81518015158114611a2c578182fd5b60006020828403121561216f578081fd5b5035919050565b600060208284031215612187578081fd5b81516001600160e01b031981168114611a2c578182fd5b6000602082840312156121af578081fd5b813567ffffffffffffffff8111156121c5578182fd5b610a9e84828501611fc7565b6000808284036101408112156121e5578283fd5b833567ffffffffffffffff8111156121fb578384fd5b61220786828701611fc7565b93505061012080601f198301121561221d578283fd5b6122268161244f565b91506020850135825261223b60408601611f51565b6020830152606085013560408301526080850135606083015261226060a08601611f51565b608083015261227160c08601611f51565b60a083015261228260e086016120b1565b60c08301526101008581013560e0840152940135938101939093525092909150565b600080600080600060a086880312156122bb578081fd5b853567ffffffffffffffff8111156122d1578182fd5b6122dd88828901611fc7565b955050602086013593506040860135925060608601356122fc81612578565b9150608086013561230c81612578565b809150509295509295909350565b60006020828403121561232b578081fd5b5051919050565b6000815180845261234a8160208601602086016124ee565b601f01601f19169290920160200192915050565b600082516123708184602087016124ee565b9190910192915050565b6001600160a01b0395861681526020810194909452604084019290925283166060830152909116608082015260a00190565b600083825260406020830152610a9e6040830184612332565b600060208252611a2c6020830184612332565b60208082526010908201526f14d213d6554e8814915153951490539560821b604082015260600190565b600088825260e0602083015261241b60e0830189612332565b6001600160a01b03978816604084015260608301969096525092909416608083015260a082015260c0019190915292915050565b604051601f8201601f1916810167ffffffffffffffff8111828210171561247857612478612562565b604052919050565b600082198211156124935761249361254c565b500190565b6000826124b357634e487b7160e01b81526012600452602481fd5b500490565b60008160001904831182151516156124d2576124d261254c565b500290565b6000828210156124e9576124e961254c565b500390565b60005b838110156125095781810151838201526020016124f1565b83811115611d7e5750506000910152565b6000816125295761252961254c565b506000190190565b60006000198214156125455761254561254c565b5060010190565b634e487b7160e01b600052601160045260246000fd5b634e487b7160e01b600052604160045260246000fd5b6001600160a01b038116811461258d57600080fd5b50565b60ff8116811461258d57600080fdfea26469706673582212201d92e791ffd45d272d14d13b3756ccf829b9729c5b3acee0d18412952891db3c64736f6c63430008030033496e697469616c697a61626c653a20636f6e747261637420697320616c726561",
  "devdoc": {
    "kind": "dev",
    "methods": {},
    "version": 1
  },
  "userdoc": {
    "kind": "user",
    "methods": {},
    "version": 1
  },
  "storageLayout": {
    "storage": [
      {
        "astId": 115,
        "contract": "contracts/ERC721ExchangeV0.sol:ERC721ExchangeV0",
        "label": "_initialized",
        "offset": 0,
        "slot": "0",
        "type": "t_bool"
      },
      {
        "astId": 118,
        "contract": "contracts/ERC721ExchangeV0.sol:ERC721ExchangeV0",
        "label": "_initializing",
        "offset": 1,
        "slot": "0",
        "type": "t_bool"
      },
      {
        "astId": 12336,
        "contract": "contracts/ERC721ExchangeV0.sol:ERC721ExchangeV0",
        "label": "_status",
        "offset": 2,
        "slot": "0",
        "type": "t_bool"
      },
      {
        "astId": 7196,
        "contract": "contracts/ERC721ExchangeV0.sol:ERC721ExchangeV0",
        "label": "bestBid",
        "offset": 0,
        "slot": "1",
        "type": "t_mapping(t_bytes32,t_struct(BestBid)7190_storage)"
      },
      {
        "astId": 7201,
        "contract": "contracts/ERC721ExchangeV0.sol:ERC721ExchangeV0",
        "label": "isCancelledOrClaimed",
        "offset": 0,
        "slot": "2",
        "type": "t_mapping(t_bytes32,t_bool)"
      },
      {
        "astId": 7206,
        "contract": "contracts/ERC721ExchangeV0.sol:ERC721ExchangeV0",
        "label": "amountFilled",
        "offset": 0,
        "slot": "3",
        "type": "t_mapping(t_bytes32,t_uint256)"
      }
    ],
    "types": {
      "t_address": {
        "encoding": "inplace",
        "label": "address",
        "numberOfBytes": "20"
      },
      "t_bool": {
        "encoding": "inplace",
        "label": "bool",
        "numberOfBytes": "1"
      },
      "t_bytes32": {
        "encoding": "inplace",
        "label": "bytes32",
        "numberOfBytes": "32"
      },
      "t_mapping(t_bytes32,t_bool)": {
        "encoding": "mapping",
        "key": "t_bytes32",
        "label": "mapping(bytes32 => bool)",
        "numberOfBytes": "32",
        "value": "t_bool"
      },
      "t_mapping(t_bytes32,t_struct(BestBid)7190_storage)": {
        "encoding": "mapping",
        "key": "t_bytes32",
        "label": "mapping(bytes32 => struct BaseExchange.BestBid)",
        "numberOfBytes": "32",
        "value": "t_struct(BestBid)7190_storage"
      },
      "t_mapping(t_bytes32,t_uint256)": {
        "encoding": "mapping",
        "key": "t_bytes32",
        "label": "mapping(bytes32 => uint256)",
        "numberOfBytes": "32",
        "value": "t_uint256"
      },
      "t_struct(BestBid)7190_storage": {
        "encoding": "inplace",
        "label": "struct BaseExchange.BestBid",
        "members": [
          {
            "astId": 7179,
            "contract": "contracts/ERC721ExchangeV0.sol:ERC721ExchangeV0",
            "label": "bidder",
            "offset": 0,
            "slot": "0",
            "type": "t_address"
          },
          {
            "astId": 7181,
            "contract": "contracts/ERC721ExchangeV0.sol:ERC721ExchangeV0",
            "label": "amount",
            "offset": 0,
            "slot": "1",
            "type": "t_uint256"
          },
          {
            "astId": 7183,
            "contract": "contracts/ERC721ExchangeV0.sol:ERC721ExchangeV0",
            "label": "price",
            "offset": 0,
            "slot": "2",
            "type": "t_uint256"
          },
          {
            "astId": 7185,
            "contract": "contracts/ERC721ExchangeV0.sol:ERC721ExchangeV0",
            "label": "recipient",
            "offset": 0,
            "slot": "3",
            "type": "t_address"
          },
          {
            "astId": 7187,
            "contract": "contracts/ERC721ExchangeV0.sol:ERC721ExchangeV0",
            "label": "referrer",
            "offset": 0,
            "slot": "4",
            "type": "t_address"
          },
          {
            "astId": 7189,
            "contract": "contracts/ERC721ExchangeV0.sol:ERC721ExchangeV0",
            "label": "blockNumber",
            "offset": 0,
            "slot": "5",
            "type": "t_uint256"
          }
        ],
        "numberOfBytes": "192"
      },
      "t_uint256": {
        "encoding": "inplace",
        "label": "uint256",
        "numberOfBytes": "32"
      }
    }
  }
}