{
  "address": "0xc86245759Ae4Ff698724172E6333df37109dF49b",
  "abi": [
    {
      "anonymous": false,
      "inputs": [
        {
          "indexed": true,
          "internalType": "address",
          "name": "owner",
          "type": "address"
        },
        {
          "indexed": true,
          "internalType": "address",
          "name": "approved",
          "type": "address"
        },
        {
          "indexed": true,
          "internalType": "uint256",
          "name": "tokenId",
          "type": "uint256"
        }
      ],
      "name": "Approval",
      "type": "event"
    },
    {
      "anonymous": false,
      "inputs": [
        {
          "indexed": true,
          "internalType": "address",
          "name": "owner",
          "type": "address"
        },
        {
          "indexed": true,
          "internalType": "address",
          "name": "operator",
          "type": "address"
        },
        {
          "indexed": false,
          "internalType": "bool",
          "name": "approved",
          "type": "bool"
        }
      ],
      "name": "ApprovalForAll",
      "type": "event"
    },
    {
      "anonymous": false,
      "inputs": [
        {
          "indexed": true,
          "internalType": "bytes32",
          "name": "hash",
          "type": "bytes32"
        },
        {
          "indexed": false,
          "internalType": "address",
          "name": "bidder",
          "type": "address"
        },
        {
          "indexed": false,
          "internalType": "uint256",
          "name": "amount",
          "type": "uint256"
        },
        {
          "indexed": false,
          "internalType": "uint256",
          "name": "price",
          "type": "uint256"
        },
        {
          "indexed": false,
          "internalType": "address",
          "name": "recipient",
          "type": "address"
        },
        {
          "indexed": false,
          "internalType": "address",
          "name": "referrer",
          "type": "address"
        }
      ],
      "name": "Bid",
      "type": "event"
    },
    {
      "anonymous": false,
      "inputs": [
        {
          "indexed": true,
          "internalType": "uint256",
          "name": "label",
          "type": "uint256"
        },
        {
          "indexed": false,
          "internalType": "bytes32",
          "name": "data",
          "type": "bytes32"
        }
      ],
      "name": "Burn",
      "type": "event"
    },
    {
      "anonymous": false,
      "inputs": [
        {
          "indexed": true,
          "internalType": "bytes32",
          "name": "hash",
          "type": "bytes32"
        }
      ],
      "name": "Cancel",
      "type": "event"
    },
    {
      "anonymous": false,
      "inputs": [
        {
          "indexed": true,
          "internalType": "bytes32",
          "name": "hash",
          "type": "bytes32"
        },
        {
          "indexed": false,
          "internalType": "address",
          "name": "bidder",
          "type": "address"
        },
        {
          "indexed": false,
          "internalType": "uint256",
          "name": "amount",
          "type": "uint256"
        },
        {
          "indexed": false,
          "internalType": "uint256",
          "name": "price",
          "type": "uint256"
        },
        {
          "indexed": false,
          "internalType": "address",
          "name": "recipient",
          "type": "address"
        },
        {
          "indexed": false,
          "internalType": "address",
          "name": "referrer",
          "type": "address"
        }
      ],
      "name": "Execute",
      "type": "event"
    },
    {
      "anonymous": false,
      "inputs": [
        {
          "indexed": true,
          "internalType": "address",
          "name": "previousOwner",
          "type": "address"
        },
        {
          "indexed": true,
          "internalType": "address",
          "name": "newOwner",
          "type": "address"
        }
      ],
      "name": "OwnershipTransferred",
      "type": "event"
    },
    {
      "anonymous": false,
      "inputs": [
        {
          "indexed": false,
          "internalType": "uint256",
          "name": "toTokenId",
          "type": "uint256"
        }
      ],
      "name": "ParkTokenIds",
      "type": "event"
    },
    {
      "anonymous": false,
      "inputs": [
        {
          "indexed": false,
          "internalType": "uint8",
          "name": "fee",
          "type": "uint8"
        }
      ],
      "name": "SetRoyaltyFee",
      "type": "event"
    },
    {
      "anonymous": false,
      "inputs": [
        {
          "indexed": false,
          "internalType": "address",
          "name": "recipient",
          "type": "address"
        }
      ],
      "name": "SetRoyaltyFeeRecipient",
      "type": "event"
    },
    {
      "anonymous": false,
      "inputs": [
        {
          "indexed": true,
          "internalType": "address",
          "name": "from",
          "type": "address"
        },
        {
          "indexed": true,
          "internalType": "address",
          "name": "to",
          "type": "address"
        },
        {
          "indexed": true,
          "internalType": "uint256",
          "name": "tokenId",
          "type": "uint256"
        }
      ],
      "name": "Transfer",
      "type": "event"
    },
    {
      "inputs": [],
      "name": "DOMAIN_SEPARATOR",
      "outputs": [
        {
          "internalType": "bytes32",
          "name": "",
          "type": "bytes32"
        }
      ],
      "stateMutability": "view",
      "type": "function"
    },
    {
      "inputs": [],
      "name": "PERMIT_ALL_TYPEHASH",
      "outputs": [
        {
          "internalType": "bytes32",
          "name": "",
          "type": "bytes32"
        }
      ],
      "stateMutability": "view",
      "type": "function"
    },
    {
      "inputs": [],
      "name": "PERMIT_TYPEHASH",
      "outputs": [
        {
          "internalType": "bytes32",
          "name": "",
          "type": "bytes32"
        }
      ],
      "stateMutability": "view",
      "type": "function"
    },
    {
      "inputs": [
        {
          "internalType": "bytes32",
          "name": "",
          "type": "bytes32"
        }
      ],
      "name": "amountFilled",
      "outputs": [
        {
          "internalType": "uint256",
          "name": "",
          "type": "uint256"
        }
      ],
      "stateMutability": "view",
      "type": "function"
    },
    {
      "inputs": [
        {
          "internalType": "address",
          "name": "to",
          "type": "address"
        },
        {
          "internalType": "uint256",
          "name": "tokenId",
          "type": "uint256"
        }
      ],
      "name": "approve",
      "outputs": [],
      "stateMutability": "nonpayable",
      "type": "function"
    },
    {
      "inputs": [
        {
          "internalType": "address",
          "name": "owner",
          "type": "address"
        }
      ],
      "name": "balanceOf",
      "outputs": [
        {
          "internalType": "uint256",
          "name": "",
          "type": "uint256"
        }
      ],
      "stateMutability": "view",
      "type": "function"
    },
    {
      "inputs": [
        {
          "internalType": "bytes32",
          "name": "",
          "type": "bytes32"
        }
      ],
      "name": "bestBid",
      "outputs": [
        {
          "internalType": "address",
          "name": "bidder",
          "type": "address"
        },
        {
          "internalType": "uint256",
          "name": "amount",
          "type": "uint256"
        },
        {
          "internalType": "uint256",
          "name": "price",
          "type": "uint256"
        },
        {
          "internalType": "address",
          "name": "recipient",
          "type": "address"
        },
        {
          "internalType": "address",
          "name": "referrer",
          "type": "address"
        },
        {
          "internalType": "uint256",
          "name": "blockNumber",
          "type": "uint256"
        }
      ],
      "stateMutability": "view",
      "type": "function"
    },
    {
      "inputs": [
        {
          "components": [
            {
              "internalType": "address",
              "name": "signer",
              "type": "address"
            },
            {
              "internalType": "address",
              "name": "token",
              "type": "address"
            },
            {
              "internalType": "uint256",
              "name": "tokenId",
              "type": "uint256"
            },
            {
              "internalType": "uint256",
              "name": "amount",
              "type": "uint256"
            },
            {
              "internalType": "address",
              "name": "strategy",
              "type": "address"
            },
            {
              "internalType": "address",
              "name": "currency",
              "type": "address"
            },
            {
              "internalType": "address",
              "name": "recipient",
              "type": "address"
            },
            {
              "internalType": "uint256",
              "name": "deadline",
              "type": "uint256"
            },
            {
              "internalType": "bytes",
              "name": "params",
              "type": "bytes"
            },
            {
              "internalType": "uint8",
              "name": "v",
              "type": "uint8"
            },
            {
              "internalType": "bytes32",
              "name": "r",
              "type": "bytes32"
            },
            {
              "internalType": "bytes32",
              "name": "s",
              "type": "bytes32"
            }
          ],
          "internalType": "struct Orders.Ask",
          "name": "askOrder",
          "type": "tuple"
        },
        {
          "internalType": "uint256",
          "name": "bidAmount",
          "type": "uint256"
        },
        {
          "internalType": "uint256",
          "name": "bidPrice",
          "type": "uint256"
        },
        {
          "internalType": "address",
          "name": "bidRecipient",
          "type": "address"
        },
        {
          "internalType": "address",
          "name": "bidReferrer",
          "type": "address"
        }
      ],
      "name": "bid",
      "outputs": [
        {
          "internalType": "bool",
          "name": "executed",
          "type": "bool"
        }
      ],
      "stateMutability": "nonpayable",
      "type": "function"
    },
    {
      "inputs": [
        {
          "components": [
            {
              "internalType": "address",
              "name": "signer",
              "type": "address"
            },
            {
              "internalType": "address",
              "name": "token",
              "type": "address"
            },
            {
              "internalType": "uint256",
              "name": "tokenId",
              "type": "uint256"
            },
            {
              "internalType": "uint256",
              "name": "amount",
              "type": "uint256"
            },
            {
              "internalType": "address",
              "name": "strategy",
              "type": "address"
            },
            {
              "internalType": "address",
              "name": "currency",
              "type": "address"
            },
            {
              "internalType": "address",
              "name": "recipient",
              "type": "address"
            },
            {
              "internalType": "uint256",
              "name": "deadline",
              "type": "uint256"
            },
            {
              "internalType": "bytes",
              "name": "params",
              "type": "bytes"
            },
            {
              "internalType": "uint8",
              "name": "v",
              "type": "uint8"
            },
            {
              "internalType": "bytes32",
              "name": "r",
              "type": "bytes32"
            },
            {
              "internalType": "bytes32",
              "name": "s",
              "type": "bytes32"
            }
          ],
          "internalType": "struct Orders.Ask",
          "name": "askOrder",
          "type": "tuple"
        },
        {
          "components": [
            {
              "internalType": "bytes32",
              "name": "askHash",
              "type": "bytes32"
            },
            {
              "internalType": "address",
              "name": "signer",
              "type": "address"
            },
            {
              "internalType": "uint256",
              "name": "amount",
              "type": "uint256"
            },
            {
              "internalType": "uint256",
              "name": "price",
              "type": "uint256"
            },
            {
              "internalType": "address",
              "name": "recipient",
              "type": "address"
            },
            {
              "internalType": "address",
              "name": "referrer",
              "type": "address"
            },
            {
              "internalType": "uint8",
              "name": "v",
              "type": "uint8"
            },
            {
              "internalType": "bytes32",
              "name": "r",
              "type": "bytes32"
            },
            {
              "internalType": "bytes32",
              "name": "s",
              "type": "bytes32"
            }
          ],
          "internalType": "struct Orders.Bid",
          "name": "bidOrder",
          "type": "tuple"
        }
      ],
      "name": "bid",
      "outputs": [
        {
          "internalType": "bool",
          "name": "executed",
          "type": "bool"
        }
      ],
      "stateMutability": "nonpayable",
      "type": "function"
    },
    {
      "inputs": [
        {
          "internalType": "uint256",
          "name": "tokenId",
          "type": "uint256"
        },
        {
          "internalType": "uint256",
          "name": "label",
          "type": "uint256"
        },
        {
          "internalType": "bytes32",
          "name": "data",
          "type": "bytes32"
        }
      ],
      "name": "burn",
      "outputs": [],
      "stateMutability": "nonpayable",
      "type": "function"
    },
    {
      "inputs": [
        {
          "internalType": "uint256[]",
          "name": "tokenIds",
          "type": "uint256[]"
        }
      ],
      "name": "burnBatch",
      "outputs": [],
      "stateMutability": "nonpayable",
      "type": "function"
    },
    {
      "inputs": [
        {
          "internalType": "address",
          "name": "token",
          "type": "address"
        }
      ],
      "name": "canTrade",
      "outputs": [
        {
          "internalType": "bool",
          "name": "",
          "type": "bool"
        }
      ],
      "stateMutability": "view",
      "type": "function"
    },
    {
      "inputs": [
        {
          "components": [
            {
              "internalType": "address",
              "name": "signer",
              "type": "address"
            },
            {
              "internalType": "address",
              "name": "token",
              "type": "address"
            },
            {
              "internalType": "uint256",
              "name": "tokenId",
              "type": "uint256"
            },
            {
              "internalType": "uint256",
              "name": "amount",
              "type": "uint256"
            },
            {
              "internalType": "address",
              "name": "strategy",
              "type": "address"
            },
            {
              "internalType": "address",
              "name": "currency",
              "type": "address"
            },
            {
              "internalType": "address",
              "name": "recipient",
              "type": "address"
            },
            {
              "internalType": "uint256",
              "name": "deadline",
              "type": "uint256"
            },
            {
              "internalType": "bytes",
              "name": "params",
              "type": "bytes"
            },
            {
              "internalType": "uint8",
              "name": "v",
              "type": "uint8"
            },
            {
              "internalType": "bytes32",
              "name": "r",
              "type": "bytes32"
            },
            {
              "internalType": "bytes32",
              "name": "s",
              "type": "bytes32"
            }
          ],
          "internalType": "struct Orders.Ask",
          "name": "order",
          "type": "tuple"
        }
      ],
      "name": "cancel",
      "outputs": [],
      "stateMutability": "nonpayable",
      "type": "function"
    },
    {
      "inputs": [
        {
          "components": [
            {
              "internalType": "address",
              "name": "signer",
              "type": "address"
            },
            {
              "internalType": "address",
              "name": "token",
              "type": "address"
            },
            {
              "internalType": "uint256",
              "name": "tokenId",
              "type": "uint256"
            },
            {
              "internalType": "uint256",
              "name": "amount",
              "type": "uint256"
            },
            {
              "internalType": "address",
              "name": "strategy",
              "type": "address"
            },
            {
              "internalType": "address",
              "name": "currency",
              "type": "address"
            },
            {
              "internalType": "address",
              "name": "recipient",
              "type": "address"
            },
            {
              "internalType": "uint256",
              "name": "deadline",
              "type": "uint256"
            },
            {
              "internalType": "bytes",
              "name": "params",
              "type": "bytes"
            },
            {
              "internalType": "uint8",
              "name": "v",
              "type": "uint8"
            },
            {
              "internalType": "bytes32",
              "name": "r",
              "type": "bytes32"
            },
            {
              "internalType": "bytes32",
              "name": "s",
              "type": "bytes32"
            }
          ],
          "internalType": "struct Orders.Ask",
          "name": "askOrder",
          "type": "tuple"
        }
      ],
      "name": "claim",
      "outputs": [],
      "stateMutability": "nonpayable",
      "type": "function"
    },
    {
      "inputs": [],
      "name": "factory",
      "outputs": [
        {
          "internalType": "address",
          "name": "",
          "type": "address"
        }
      ],
      "stateMutability": "view",
      "type": "function"
    },
    {
      "inputs": [
        {
          "internalType": "uint256",
          "name": "tokenId",
          "type": "uint256"
        }
      ],
      "name": "getApproved",
      "outputs": [
        {
          "internalType": "address",
          "name": "",
          "type": "address"
        }
      ],
      "stateMutability": "view",
      "type": "function"
    },
    {
      "inputs": [
        {
          "internalType": "string",
          "name": "_name",
          "type": "string"
        },
        {
          "internalType": "string",
          "name": "_symbol",
          "type": "string"
        },
        {
          "internalType": "address",
          "name": "_owner",
          "type": "address"
        }
      ],
      "name": "initialize",
      "outputs": [],
      "stateMutability": "nonpayable",
      "type": "function"
    },
    {
      "inputs": [
        {
          "internalType": "address",
          "name": "_owner",
          "type": "address"
        },
        {
          "internalType": "string",
          "name": "_name",
          "type": "string"
        },
        {
          "internalType": "string",
          "name": "_symbol",
          "type": "string"
        },
        {
          "internalType": "uint256[]",
          "name": "tokenIds",
          "type": "uint256[]"
        },
        {
          "internalType": "address",
          "name": "royaltyFeeRecipient",
          "type": "address"
        },
        {
          "internalType": "uint8",
          "name": "royaltyFee",
          "type": "uint8"
        }
      ],
      "name": "initialize",
      "outputs": [],
      "stateMutability": "nonpayable",
      "type": "function"
    },
    {
      "inputs": [
        {
          "internalType": "address",
          "name": "_owner",
          "type": "address"
        },
        {
          "internalType": "string",
          "name": "_name",
          "type": "string"
        },
        {
          "internalType": "string",
          "name": "_symbol",
          "type": "string"
        },
        {
          "internalType": "uint256",
          "name": "toTokenId",
          "type": "uint256"
        },
        {
          "internalType": "address",
          "name": "royaltyFeeRecipient",
          "type": "address"
        },
        {
          "internalType": "uint8",
          "name": "royaltyFee",
          "type": "uint8"
        }
      ],
      "name": "initialize",
      "outputs": [],
      "stateMutability": "nonpayable",
      "type": "function"
    },
    {
      "inputs": [
        {
          "internalType": "address",
          "name": "owner",
          "type": "address"
        },
        {
          "internalType": "address",
          "name": "operator",
          "type": "address"
        }
      ],
      "name": "isApprovedForAll",
      "outputs": [
        {
          "internalType": "bool",
          "name": "",
          "type": "bool"
        }
      ],
      "stateMutability": "view",
      "type": "function"
    },
    {
      "inputs": [
        {
          "internalType": "bytes32",
          "name": "",
          "type": "bytes32"
        }
      ],
      "name": "isCancelled",
      "outputs": [
        {
          "internalType": "bool",
          "name": "",
          "type": "bool"
        }
      ],
      "stateMutability": "view",
      "type": "function"
    },
    {
      "inputs": [
        {
          "internalType": "address",
          "name": "to",
          "type": "address"
        },
        {
          "internalType": "uint256",
          "name": "tokenId",
          "type": "uint256"
        },
        {
          "internalType": "bytes",
          "name": "data",
          "type": "bytes"
        }
      ],
      "name": "mint",
      "outputs": [],
      "stateMutability": "nonpayable",
      "type": "function"
    },
    {
      "inputs": [
        {
          "internalType": "address",
          "name": "to",
          "type": "address"
        },
        {
          "internalType": "uint256[]",
          "name": "tokenIds",
          "type": "uint256[]"
        },
        {
          "internalType": "bytes",
          "name": "data",
          "type": "bytes"
        }
      ],
      "name": "mintBatch",
      "outputs": [],
      "stateMutability": "nonpayable",
      "type": "function"
    },
    {
      "inputs": [],
      "name": "name",
      "outputs": [
        {
          "internalType": "string",
          "name": "",
          "type": "string"
        }
      ],
      "stateMutability": "view",
      "type": "function"
    },
    {
      "inputs": [
        {
          "internalType": "uint256",
          "name": "",
          "type": "uint256"
        }
      ],
      "name": "nonces",
      "outputs": [
        {
          "internalType": "uint256",
          "name": "",
          "type": "uint256"
        }
      ],
      "stateMutability": "view",
      "type": "function"
    },
    {
      "inputs": [
        {
          "internalType": "address",
          "name": "",
          "type": "address"
        }
      ],
      "name": "noncesForAll",
      "outputs": [
        {
          "internalType": "uint256",
          "name": "",
          "type": "uint256"
        }
      ],
      "stateMutability": "view",
      "type": "function"
    },
    {
      "inputs": [],
      "name": "owner",
      "outputs": [
        {
          "internalType": "address",
          "name": "",
          "type": "address"
        }
      ],
      "stateMutability": "view",
      "type": "function"
    },
    {
      "inputs": [
        {
          "internalType": "uint256",
          "name": "tokenId",
          "type": "uint256"
        }
      ],
      "name": "ownerOf",
      "outputs": [
        {
          "internalType": "address",
          "name": "",
          "type": "address"
        }
      ],
      "stateMutability": "view",
      "type": "function"
    },
    {
      "inputs": [
        {
          "internalType": "uint256",
          "name": "toTokenId",
          "type": "uint256"
        }
      ],
      "name": "parkTokenIds",
      "outputs": [],
      "stateMutability": "nonpayable",
      "type": "function"
    },
    {
      "inputs": [
        {
          "internalType": "uint256",
          "name": "tokenId",
          "type": "uint256"
        }
      ],
      "name": "parked",
      "outputs": [
        {
          "internalType": "bool",
          "name": "",
          "type": "bool"
        }
      ],
      "stateMutability": "view",
      "type": "function"
    },
    {
      "inputs": [
        {
          "internalType": "address",
          "name": "spender",
          "type": "address"
        },
        {
          "internalType": "uint256",
          "name": "tokenId",
          "type": "uint256"
        },
        {
          "internalType": "uint256",
          "name": "deadline",
          "type": "uint256"
        },
        {
          "internalType": "uint8",
          "name": "v",
          "type": "uint8"
        },
        {
          "internalType": "bytes32",
          "name": "r",
          "type": "bytes32"
        },
        {
          "internalType": "bytes32",
          "name": "s",
          "type": "bytes32"
        }
      ],
      "name": "permit",
      "outputs": [],
      "stateMutability": "nonpayable",
      "type": "function"
    },
    {
      "inputs": [
        {
          "internalType": "address",
          "name": "owner",
          "type": "address"
        },
        {
          "internalType": "address",
          "name": "spender",
          "type": "address"
        },
        {
          "internalType": "uint256",
          "name": "deadline",
          "type": "uint256"
        },
        {
          "internalType": "uint8",
          "name": "v",
          "type": "uint8"
        },
        {
          "internalType": "bytes32",
          "name": "r",
          "type": "bytes32"
        },
        {
          "internalType": "bytes32",
          "name": "s",
          "type": "bytes32"
        }
      ],
      "name": "permitAll",
      "outputs": [],
      "stateMutability": "nonpayable",
      "type": "function"
    },
    {
      "inputs": [],
      "name": "renounceOwnership",
      "outputs": [],
      "stateMutability": "nonpayable",
      "type": "function"
    },
    {
      "inputs": [],
      "name": "royaltyFeeInfo",
      "outputs": [
        {
          "internalType": "address",
          "name": "recipient",
          "type": "address"
        },
        {
          "internalType": "uint8",
          "name": "permil",
          "type": "uint8"
        }
      ],
      "stateMutability": "view",
      "type": "function"
    },
    {
      "inputs": [
        {
          "internalType": "uint256",
          "name": "",
          "type": "uint256"
        },
        {
          "internalType": "uint256",
          "name": "_salePrice",
          "type": "uint256"
        }
      ],
      "name": "royaltyInfo",
      "outputs": [
        {
          "internalType": "address",
          "name": "",
          "type": "address"
        },
        {
          "internalType": "uint256",
          "name": "",
          "type": "uint256"
        }
      ],
      "stateMutability": "view",
      "type": "function"
    },
    {
      "inputs": [
        {
          "internalType": "address",
          "name": "from",
          "type": "address"
        },
        {
          "internalType": "address",
          "name": "to",
          "type": "address"
        },
        {
          "internalType": "uint256",
          "name": "tokenId",
          "type": "uint256"
        }
      ],
      "name": "safeTransferFrom",
      "outputs": [],
      "stateMutability": "nonpayable",
      "type": "function"
    },
    {
      "inputs": [
        {
          "internalType": "address",
          "name": "from",
          "type": "address"
        },
        {
          "internalType": "address",
          "name": "to",
          "type": "address"
        },
        {
          "internalType": "uint256",
          "name": "tokenId",
          "type": "uint256"
        },
        {
          "internalType": "bytes",
          "name": "_data",
          "type": "bytes"
        }
      ],
      "name": "safeTransferFrom",
      "outputs": [],
      "stateMutability": "nonpayable",
      "type": "function"
    },
    {
      "inputs": [
        {
          "internalType": "address",
          "name": "operator",
          "type": "address"
        },
        {
          "internalType": "bool",
          "name": "approved",
          "type": "bool"
        }
      ],
      "name": "setApprovalForAll",
      "outputs": [],
      "stateMutability": "nonpayable",
      "type": "function"
    },
    {
      "inputs": [
        {
          "internalType": "string",
          "name": "uri",
          "type": "string"
        }
      ],
      "name": "setBaseURI",
      "outputs": [],
      "stateMutability": "nonpayable",
      "type": "function"
    },
    {
      "inputs": [
        {
          "internalType": "uint8",
          "name": "royaltyFee",
          "type": "uint8"
        }
      ],
      "name": "setRoyaltyFee",
      "outputs": [],
      "stateMutability": "nonpayable",
      "type": "function"
    },
    {
      "inputs": [
        {
          "internalType": "address",
          "name": "royaltyFeeRecipient",
          "type": "address"
        }
      ],
      "name": "setRoyaltyFeeRecipient",
      "outputs": [],
      "stateMutability": "nonpayable",
      "type": "function"
    },
    {
      "inputs": [
        {
          "internalType": "uint256",
          "name": "id",
          "type": "uint256"
        },
        {
          "internalType": "string",
          "name": "newURI",
          "type": "string"
        }
      ],
      "name": "setTokenURI",
      "outputs": [],
      "stateMutability": "nonpayable",
      "type": "function"
    },
    {
      "inputs": [
        {
          "internalType": "bytes4",
          "name": "interfaceId",
          "type": "bytes4"
        }
      ],
      "name": "supportsInterface",
      "outputs": [
        {
          "internalType": "bool",
          "name": "",
          "type": "bool"
        }
      ],
      "stateMutability": "view",
      "type": "function"
    },
    {
      "inputs": [],
      "name": "symbol",
      "outputs": [
        {
          "internalType": "string",
          "name": "",
          "type": "string"
        }
      ],
      "stateMutability": "view",
      "type": "function"
    },
    {
      "inputs": [
        {
          "internalType": "uint256",
          "name": "tokenId",
          "type": "uint256"
        }
      ],
      "name": "tokenURI",
      "outputs": [
        {
          "internalType": "string",
          "name": "",
          "type": "string"
        }
      ],
      "stateMutability": "view",
      "type": "function"
    },
    {
      "inputs": [
        {
          "internalType": "address",
          "name": "from",
          "type": "address"
        },
        {
          "internalType": "address",
          "name": "to",
          "type": "address"
        },
        {
          "internalType": "uint256",
          "name": "tokenId",
          "type": "uint256"
        }
      ],
      "name": "transferFrom",
      "outputs": [],
      "stateMutability": "nonpayable",
      "type": "function"
    },
    {
      "inputs": [
        {
          "internalType": "address",
          "name": "newOwner",
          "type": "address"
        }
      ],
      "name": "transferOwnership",
      "outputs": [],
      "stateMutability": "nonpayable",
      "type": "function"
    }
  ],
  "transactionHash": "0x17c66045a3082db27bec6c81016a5a8bbacec454d34d8fd603512b6cd86f892d",
  "args": [],
  "solcInputHash": "32583b38f67c09af81ba33af8bcbd7d0",
  "bytecode": "0x608060405234801561001057600080fd5b506151e1806100206000396000f3fe608060405234801561001057600080fd5b50600436106102945760003560e01c806370a0823111610167578063a22cb465116100ce578063c87b56dd11610087578063c87b56dd146106e1578063c975e374146106f4578063def2716414610707578063e4623c1b1461071a578063e985e9c51461072d578063f2fde38b1461074057610294565b8063a22cb4651461065d578063aba0784714610670578063ac9a252114610683578063b4e13c8d14610696578063b88d4fde146106bd578063c45a0155146106d057610294565b80639443792c116101205780639443792c146105e657806394d008ef146105f957806395d89b411461060c578063994e7296146106145780639a5d4407146106275780639ecbcda21461064a57610294565b806370a0823114610567578063715018a61461057a57806375e6590f146105825780637ac2ff7b146105a25780638da5cb5b146105b5578063904dfb8e146105c657610294565b80632a55205a1161020b578063559f05dc116101c4578063559f05dc1461046a57806355f804b3146104895780635771f9971461049c5780635f7ef2fa1461052e5780636352211e146105415780636ef8e02d1461055457610294565b80632a55205a146103b657806330adf81f146103e85780633644e5151461040f57806342842e0e1461041757806344f09d111461042a57806350bf994a1461043d57610294565b80630935d6631161025d5780630935d66314610329578063095ea7b31461033c578063141a468c1461034f578063162094c41461037d578063228624821461039057806323b872dd146103a357610294565b8062893bf81461029957806301ffc9a7146102ae57806306fdde03146102d6578063077f224a146102eb578063081812fc146102fe575b600080fd5b6102ac6102a73660046149ed565b610753565b005b6102c16102bc36600461489d565b610830565b60405190151581526020015b60405180910390f35b6102de61085d565b6040516102cd9190614df5565b6102ac6102f9366004614979565b6108ef565b61031161030c366004614885565b610a11565b6040516001600160a01b0390911681526020016102cd565b6102ac6103373660046149ed565b610a61565b6102ac61034a366004614751565b610dd3565b61036f61035d366004614885565b600d6020526000908152604090205481565b6040519081526020016102cd565b6102ac61038b366004614b7e565b610e7d565b6102ac61039e366004614572565b610ec6565b6102ac6103b1366004614465565b610f4f565b6103c96103c4366004614bc2565b610fca565b604080516001600160a01b0390931683526020830191909152016102cd565b61036f7f49ecf333e5b8c95c40fdafc95c1ad136e8914a8fb55e9dc8bb01eaa83a2df9ad81565b60095461036f565b6102ac610425366004614465565b61100e565b6102c1610438366004614af1565b611029565b6013546040805161010083046001600160a01b03168152600160a81b90920460ff166020830152016102cd565b6102c1610478366004614411565b6001600160a01b0381163014919050565b6102ac6104973660046148d5565b611079565b6104ef6104aa366004614885565b6010602052600090815260409020805460018201546002830154600384015460048501546005909501546001600160a01b039485169593949293918316929091169086565b604080516001600160a01b03978816815260208101969096528501939093529084166060840152909216608082015260a081019190915260c0016102cd565b6102ac61053c366004614c0e565b6110ba565b61031161054f366004614885565b6111f5565b6102ac610562366004614411565b611210565b61036f610575366004614411565b6112e6565b6102ac611351565b61036f610590366004614885565b60126020526000908152604090205481565b6102ac6105b03660046147c8565b6113c5565b6008546001600160a01b0316610311565b61036f6105d4366004614411565b600e6020526000908152604090205481565b6102ac6105f4366004614be3565b61170c565b6102ac61060736600461477c565b611784565b6102de6117dd565b6102c1610622366004614885565b6117ec565b6102c1610635366004614885565b60116020526000908152604090205460ff1681565b6102ac610658366004614611565b6117f7565b6102ac61066b3660046145e4565b611994565b6102ac61067e36600461450e565b61199f565b6102ac6106913660046146cd565b611c94565b61036f7fdaab21af31ece73a508939fedd476a5ee5129a5ed4bb091f3236ffb45394df6281565b6102ac6106cb3660046144a5565b611d4c565b600a546001600160a01b0316610311565b6102de6106ef366004614885565b611d7e565b6102ac610702366004614885565b612013565b6102c1610715366004614a1f565b612085565b6102ac610728366004614837565b6121ad565b6102c161073b36600461442d565b61223a565b6102ac61074e366004614411565b612268565b80516001600160a01b031633146107855760405162461bcd60e51b815260040161077c90614e08565b60405180910390fd5b600061079082612344565b6000818152601060205260409020549091506001600160a01b0316156107ec5760405162461bcd60e51b815260206004820152601160248201527053484f59553a204249445f45584953545360781b604482015260640161077c565b600081815260116020526040808220805460ff191660011790555182917fe8d9861dbc9c663ed3accd261bbe2fe01e0d3d9e5f51fa38523b265c7757a93a91a25050565b600063152a902d60e11b6001600160e01b031983161480610855575061085582612422565b90505b919050565b60606001805461086c906150bd565b80601f0160208091040260200160405190810160405280929190818152602001828054610898906150bd565b80156108e55780601f106108ba576101008083540402835291602001916108e5565b820191906000526020600020905b8154815290600101906020018083116108c857829003601f168201915b5050505050905090565b600054610100900460ff1680610908575060005460ff16155b6109245760405162461bcd60e51b815260040161077c90614eca565b600054610100900460ff16158015610946576000805461ffff19166101011790555b6109508484612472565b610959826124e9565b600a80546001600160a01b031916331790558351602080860191909120604080517f8b73c3c69bb8fe3d512ecc4cf759cc79239f7b179b0ffacaa9a75d522b39400f938101939093528201527fc89efdaa54c0f20c7adf612882df0950f5a951637e0307cdcb4c672f298b8bc6606082015246608082018190523060a08301529060c00160408051601f198184030181529190528051602090910120600955508015610a0b576000805461ff00191690555b50505050565b6000818152600460205260408120546001600160a01b0316610a455760405162461bcd60e51b815260040161077c90614e93565b506000908152600660205260409020546001600160a01b031690565b6002600f541415610a845760405162461bcd60e51b815260040161077c90614e69565b6002600f5560208101516001600160a01b03163014610adf5760405162461bcd60e51b815260206004820152601760248201527653484f59553a20494e56414c49445f45584348414e474560481b604482015260640161077c565b6000610aea82612344565b9050610af6828261255e565b610b16818360000151846101200151856101400151866101600151612823565b600081815260106020908152604091829020825160c08101845281546001600160a01b039081168083526001840154948301949094526002830154828601819052600384015482166060840152600480850154831660808086019190915260059095015460a08501529388015160e08901516101008a0151975163e01be26360e01b81529497919093169563e01be26395610bb5959293919201614f45565b60206040518083038186803b158015610bcd57600080fd5b505afa158015610be1573d6000803e3d6000fd5b505050506040513d601f19601f82011682018060405250810190610c059190614869565b610c425760405162461bcd60e51b815260206004820152600e60248201526d53484f59553a204641494c55524560901b604482015260640161077c565b60c08301516001600160a01b038116610c59575082515b610c808460a0015183600001518385602001518660400151610c7b9190615044565b6129d2565b15610d875760208083015160008581526012909252604090912054610ca59190615018565b60008481526012602052604090205560608201516001600160a01b038116610ccb575081515b610ce8856020015186600001518388604001518760200151612c10565b600084815260106020908152604080832080546001600160a01b03199081168255600182018590556002820185905560038201805482169055600482018054909116905560050192909255845190850151858301516080870151935188947f72fd87c5ad3903eb05815544ef7ea4640a18e631c9c02eb099c810834f82355594610d79949093909290918891614daa565b60405180910390a250610dc8565b600083815260116020526040808220805460ff191660011790555184917fe8d9861dbc9c663ed3accd261bbe2fe01e0d3d9e5f51fa38523b265c7757a93a91a25b50506001600f555050565b6000610dde826111f5565b9050806001600160a01b0316836001600160a01b03161415610e365760405162461bcd60e51b815260206004820152601160248201527053484f59553a20494e56414c49445f544f60781b604482015260640161077c565b336001600160a01b0382161480610e525750610e52813361223a565b610e6e5760405162461bcd60e51b815260040161077c90614e08565b610e788383612c57565b505050565b6008546001600160a01b03163314610ea75760405162461bcd60e51b815260040161077c90614e08565b6000828152600c602090815260409091208251610e78928401906141a6565b33610ed96008546001600160a01b031690565b6001600160a01b031614610eff5760405162461bcd60e51b815260040161077c90614e08565b60005b8251811015610a0b57610f3d84848381518110610f2f57634e487b7160e01b600052603260045260246000fd5b602002602001015184612cc5565b80610f47816150f2565b915050610f02565b610f593382612cf8565b610fbf5760405162461bcd60e51b815260206004820152603160248201527f4552433732313a207472616e736665722063616c6c6572206973206e6f74206f6044820152701ddb995c881b9bdc88185c1c1c9bdd9959607a1b606482015260840161077c565b610e78838383612d82565b601354600090819061010081046001600160a01b0316906103e890610ff990600160a81b900460ff1686615044565b6110039190615030565b915091509250929050565b610e7883838360405180602001604052806000815250611d4c565b60006002600f54141561104e5760405162461bcd60e51b815260040161077c90614e69565b6002600f5561106a8661106081612344565b3388888888612f22565b6001600f559695505050505050565b6008546001600160a01b031633146110a35760405162461bcd60e51b815260040161077c90614e08565b80516110b690600b9060208401906141a6565b5050565b6008546001600160a01b031633146110e45760405162461bcd60e51b815260040161077c90614e08565b601354600160a81b900460ff908116141561114c5760135460ff90811690821611156111475760405162461bcd60e51b815260206004820152601260248201527153484f59553a20494e56414c49445f46454560701b604482015260640161077c565b6111a0565b60135460ff600160a81b9091048116908216106111a05760405162461bcd60e51b815260206004820152601260248201527153484f59553a20494e56414c49445f46454560701b604482015260640161077c565b6013805460ff60a81b1916600160a81b60ff8416908102919091179091556040519081527fd9ac3bc8ad92267d0b101786ddb4d37746ed1e3ee77637846294edf17dd9eb8a906020015b60405180910390a150565b6000908152600460205260409020546001600160a01b031690565b6008546001600160a01b0316331461123a5760405162461bcd60e51b815260040161077c90614e08565b6001600160a01b0381166112905760405162461bcd60e51b815260206004820152601c60248201527f53484f59553a20494e56414c49445f4645455f524543495049454e5400000000604482015260640161077c565b60138054610100600160a81b0319166101006001600160a01b038416908102919091179091556040519081527f1ce5f25607cb1a4fa6c947b55700213a9ed6a1d7ef1cf1d02ab467efd02a993e906020016111ea565b60006001600160a01b0382166113355760405162461bcd60e51b815260206004820152601460248201527329a427acaa9d1024a72b20a624a22fa7aba722a960611b604482015260640161077c565b506001600160a01b031660009081526005602052604090205490565b6008546001600160a01b0316331461137b5760405162461bcd60e51b815260040161077c90614e08565b6008546040516000916001600160a01b0316907f8be0079c531659141344cd1fd0a4f28419497f9722a3daafe3b4186f6b6457e0908390a3600880546001600160a01b0319169055565b834211156114065760405162461bcd60e51b815260206004820152600e60248201526d14d213d6554e881156141254915160921b604482015260640161077c565b6009546000868152600d602090815260408083205481517f49ecf333e5b8c95c40fdafc95c1ad136e8914a8fb55e9dc8bb01eaa83a2df9ad818501526001600160a01b038c1681840152606081018b9052608081019190915260a08082018a90528251808303909101815260c0820190925281519190920120919261148f92909160e001614d52565b6040516020818303038152906040528051906020012090506001600d600088815260200190815260200160002060008282546114cb9190615018565b90915550600090506114dc876111f5565b9050806001600160a01b0316886001600160a01b031614156115375760405162461bcd60e51b815260206004820152601460248201527353484f59553a204e4f545f4e454345535341525960601b604482015260640161077c565b803b1561161357806001600160a01b0316631626ba7e8386868960405160200161156393929190614c72565b6040516020818303038152906040526040518363ffffffff1660e01b815260040161158f929190614ddc565b60206040518083038186803b1580156115a757600080fd5b505afa1580156115bb573d6000803e3d6000fd5b505050506040513d601f19601f820116820180604052508101906115df91906148b9565b6001600160e01b031916631626ba7e60e01b1461160e5760405162461bcd60e51b815260040161077c90614f18565b6116f8565b6040805160008082526020820180845285905260ff881692820192909252606081018690526080810185905260019060a0016020604051602081039080840390855afa158015611667573d6000803e3d6000fd5b5050604051601f1901519150506001600160a01b0381166116c55760405162461bcd60e51b815260206004820152601860248201527753484f59553a20494e56414c49445f5349474e415455524560401b604482015260640161077c565b816001600160a01b0316816001600160a01b0316146116f65760405162461bcd60e51b815260040161077c90614f18565b505b6117028888612c57565b5050505050505050565b33611716846111f5565b6001600160a01b03161461173c5760405162461bcd60e51b815260040161077c90614e08565b61174583613379565b817f94b3f0faea6b3f73e3a1aa978781772e16c3f2198f55f3ee6802f60bbdc5ae4d8260405161177791815260200190565b60405180910390a2505050565b600a546001600160a01b03163314806117b65750336117ab6008546001600160a01b031690565b6001600160a01b0316145b6117d25760405162461bcd60e51b815260040161077c90614e08565b610e78838383612cc5565b60606002805461086c906150bd565b60006108558261343a565b600054610100900460ff1680611810575060005460ff16155b61182c5760405162461bcd60e51b815260040161077c90614eca565b600054610100900460ff1615801561184e576000805461ffff19166101011790555b611856613467565b6118618686896108ef565b600a60009054906101000a90046001600160a01b03166001600160a01b03166317e1f82e6040518163ffffffff1660e01b815260040160206040518083038186803b1580156118af57600080fd5b505afa1580156118c3573d6000803e3d6000fd5b505050506040513d601f19601f820116820180604052508101906118e79190614c2a565b6013805460ff191660ff9290921691909117905560005b845181101561194a576119388886838151811061192b57634e487b7160e01b600052603260045260246000fd5b60200260200101516134db565b80611942816150f2565b9150506118fe565b5061195483611210565b6013805460ff60a81b191660ff60a81b17905560ff82161561197957611979826110ba565b801561198b576000805461ff00191690555b50505050505050565b6110b63383836134f5565b834211156119e05760405162461bcd60e51b815260206004820152600e60248201526d14d213d6554e881156141254915160921b604482015260640161077c565b6009546001600160a01b038781166000818152600e602090815260408083205481517fdaab21af31ece73a508939fedd476a5ee5129a5ed4bb091f3236ffb45394df6293810193909352908201939093529289166060840152608083019190915260a08201879052919060c00160405160208183030381529060405280519060200120604051602001611a74929190614d52565b6040516020818303038152906040528051906020012090506001600e6000896001600160a01b03166001600160a01b031681526020019081526020016000206000828254611ac29190615018565b9091555050863b15611ba357866001600160a01b0316631626ba7e82858588604051602001611af393929190614c72565b6040516020818303038152906040526040518363ffffffff1660e01b8152600401611b1f929190614ddc565b60206040518083038186803b158015611b3757600080fd5b505afa158015611b4b573d6000803e3d6000fd5b505050506040513d601f19601f82011682018060405250810190611b6f91906148b9565b6001600160e01b031916631626ba7e60e01b14611b9e5760405162461bcd60e51b815260040161077c90614f18565b611c88565b6040805160008082526020820180845284905260ff871692820192909252606081018590526080810184905260019060a0016020604051602081039080840390855afa158015611bf7573d6000803e3d6000fd5b5050604051601f1901519150506001600160a01b038116611c555760405162461bcd60e51b815260206004820152601860248201527753484f59553a20494e56414c49445f5349474e415455524560401b604482015260640161077c565b876001600160a01b0316816001600160a01b031614611c865760405162461bcd60e51b815260040161077c90614f18565b505b61198b878760016134f5565b600054610100900460ff1680611cad575060005460ff16155b611cc95760405162461bcd60e51b815260040161077c90614eca565b600054610100900460ff16158015611ceb576000805461ffff19166101011790555b611cf3613467565b611cfe8686896108ef565b611d07846135c4565b6040518481527fbd3ebe8ad09ded9d19d849088ef41c06e6369d712810f47ad52751826c17ff949060200160405180910390a1611d4383611210565b611979826110ba565b611d563383612cf8565b611d725760405162461bcd60e51b815260040161077c90614e08565b610a0b8484848461361c565b6000818152600460205260409020546060906001600160a01b0316151580611daa5750611daa8261343a565b611dc65760405162461bcd60e51b815260040161077c90614e93565b6000828152600c602052604081208054611ddf906150bd565b80601f0160208091040260200160405190810160405280929190818152602001828054611e0b906150bd565b8015611e585780601f10611e2d57610100808354040283529160200191611e58565b820191906000526020600020905b815481529060010190602001808311611e3b57829003601f168201915b50505050509050600081511115611e70579050610858565b6000600b8054611e7f906150bd565b80601f0160208091040260200160405190810160405280929190818152602001828054611eab906150bd565b8015611ef85780601f10611ecd57610100808354040283529160200191611ef8565b820191906000526020600020905b815481529060010190602001808311611edb57829003601f168201915b50505050509050600081511115611f3c5780611f138561364f565b604051602001611f24929190614cb1565b60405160208183030381529060405292505050610858565b600a60009054906101000a90046001600160a01b03166001600160a01b0316633683a63d6040518163ffffffff1660e01b815260040160006040518083038186803b158015611f8a57600080fd5b505afa158015611f9e573d6000803e3d6000fd5b505050506040513d6000823e601f3d908101601f19168201604052611fc69190810190614907565b90506000611fd5306014613769565b90508181611fe28761364f565b604051602001611ff493929190614cf0565b6040516020818303038152906040529350505050610858565b50919050565b336120266008546001600160a01b031690565b6001600160a01b03161461204c5760405162461bcd60e51b815260040161077c90614e08565b612055816135c4565b6040518181527fbd3ebe8ad09ded9d19d849088ef41c06e6369d712810f47ad52751826c17ff94906020016111ea565b60006002600f5414156120aa5760405162461bcd60e51b815260040161077c90614e69565b6002600f5560006120ba84612344565b835190915081146121055760405162461bcd60e51b81526020600482015260156024820152740a6909eb2aa7440aa9c9a82a886908a88be9082a69605b1b604482015260640161077c565b60208301516001600160a01b03166121575760405162461bcd60e51b815260206004820152601560248201527429a427acaa9d1024a72b20a624a22fa9a4a3a722a960591b604482015260640161077c565b61217d6121638461394a565b84602001518560c001518660e00151876101000151612823565b6121a0848285602001518660400151876060015188608001518960a00151612f22565b6001600f55949350505050565b60005b81518110156110b65760008282815181106121db57634e487b7160e01b600052603260045260246000fd5b60200260200101519050336001600160a01b03166121f8826111f5565b6001600160a01b03161461221e5760405162461bcd60e51b815260040161077c90614e08565b61222781613379565b5080612232816150f2565b9150506121b0565b6001600160a01b03918216600090815260076020908152604080832093909416825291909152205460ff1690565b6008546001600160a01b031633146122925760405162461bcd60e51b815260040161077c90614e08565b6001600160a01b0381166122e85760405162461bcd60e51b815260206004820152601860248201527f53484f59553a20494e56414c49445f4e45575f4f574e45520000000000000000604482015260640161077c565b6008546040516001600160a01b038084169216907f8be0079c531659141344cd1fd0a4f28419497f9722a3daafe3b4186f6b6457e090600090a3600880546001600160a01b0319166001600160a01b0392909216919091179055565b80516020808301516040808501516060860151608087015160a088015160c089015160e08a01516101008b01518051908a0120965160009a6124059a7f17fdf8831f8bd77353b30f42ba9bc64e7144545a42a890389f298feeb45dec889a9199919897969594939201998a526001600160a01b0398891660208b015296881660408a01526060890195909552608088019390935290851660a0870152841660c086015290921660e08401526101008301919091526101208201526101400190565b604051602081830303815290604052805190602001209050919050565b60006001600160e01b031982166380ac58cd60e01b148061245357506001600160e01b03198216635b5e139f60e01b145b8061085557506301ffc9a760e01b6001600160e01b0319831614610855565b600054610100900460ff168061248b575060005460ff16155b6124a75760405162461bcd60e51b815260040161077c90614eca565b600054610100900460ff161580156124c9576000805461ffff19166101011790555b6124d383836139d5565b8015610e78576000805461ff0019169055505050565b600054610100900460ff1680612502575060005460ff16155b61251e5760405162461bcd60e51b815260040161077c90614eca565b600054610100900460ff16158015612540576000805461ffff19166101011790555b61254982613a6a565b80156110b6576000805461ff00191690555050565b60008181526011602052604090205460ff16156125b05760405162461bcd60e51b815260206004820152601060248201526f14d213d6554e8810d05390d15313115160821b604482015260640161077c565b81516001600160a01b03166125fe5760405162461bcd60e51b815260206004820152601460248201527329a427acaa9d1024a72b20a624a22fa6a0a5a2a960611b604482015260640161077c565b60208201516001600160a01b031661264d5760405162461bcd60e51b815260206004820152601260248201527114d213d6554e881253959053125117d3919560721b604482015260640161077c565b60008260600151116126995760405162461bcd60e51b815260206004820152601560248201527414d213d6554e881253959053125117d05353d55395605a1b604482015260640161077c565b60808201516001600160a01b03166126f35760405162461bcd60e51b815260206004820152601760248201527f53484f59553a20494e56414c49445f5354524154454759000000000000000000604482015260640161077c565b60a08201516001600160a01b031661274d5760405162461bcd60e51b815260206004820152601760248201527f53484f59553a20494e56414c49445f43555252454e4359000000000000000000604482015260640161077c565b600a546001600160a01b03166080830151604051632666e89f60e21b81526001600160a01b03918216600482015291169063999ba27c9060240160206040518083038186803b15801561279f57600080fd5b505afa1580156127b3573d6000803e3d6000fd5b505050506040513d601f19601f820116820180604052508101906127d79190614869565b6110b65760405162461bcd60e51b815260206004820152601f60248201527f53484f59553a2053545241544547595f4e4f545f57484954454c495354454400604482015260640161077c565b600061282e60095490565b86604051602001612840929190614d52565b604051602081830303815290604052805190602001209050612862853b151590565b1561293c57846001600160a01b0316631626ba7e8285858860405160200161288c93929190614c72565b6040516020818303038152906040526040518363ffffffff1660e01b81526004016128b8929190614ddc565b60206040518083038186803b1580156128d057600080fd5b505afa1580156128e4573d6000803e3d6000fd5b505050506040513d601f19601f8201168201806040525081019061290891906148b9565b6001600160e01b031916631626ba7e60e01b146129375760405162461bcd60e51b815260040161077c90614f18565b6129ca565b60408051600081526020810180835283905260ff86169181019190915260608101849052608081018390526001600160a01b0386169060019060a0016020604051602081039080840390855afa15801561299a573d6000803e3d6000fd5b505050602060405103516001600160a01b0316146129ca5760405162461bcd60e51b815260040161077c90614f18565b505050505050565b60006129e085853085613b1f565b6129ec57506000612c08565b6000612a00600a546001600160a01b031690565b90506000839050600080836001600160a01b031663aec0b5436040518163ffffffff1660e01b8152600401604080518083038186803b158015612a4257600080fd5b505afa158015612a56573d6000803e3d6000fd5b505050506040513d601f19601f82011682018060405250810190612a7a9190614809565b909250905060006103e8612a9160ff841689615044565b612a9b9190615030565b9050612ab16001600160a01b038b168483613bf1565b612abb8185615063565b9350505050600080836001600160a01b031663c2b11e186040518163ffffffff1660e01b8152600401604080518083038186803b158015612afb57600080fd5b505afa158015612b0f573d6000803e3d6000fd5b505050506040513d601f19601f82011682018060405250810190612b339190614809565b909250905060006103e8612b4a60ff841689615044565b612b549190615030565b9050612b6a6001600160a01b038b168483613bf1565b612b748185615063565b9350505050600080612b9f60135461010081046001600160a01b031691600160a81b90910460ff1690565b909250905060ff80821614612beb5760006103e8612bc060ff841686615044565b612bca9190615030565b90508015612be957612bdc8185615063565b9350612be98a8483613c43565b505b612bff6001600160a01b038a168885613bf1565b60019450505050505b949350505050565b6008546001600160a01b038581169116148015612c315750612c318261343a565b15612c4557612c4083836134db565b612c50565b612c50848484612d82565b5050505050565b600081815260066020526040902080546001600160a01b0319166001600160a01b0384169081179091558190612c8c826111f5565b6001600160a01b03167f8c5be1e5ebec7d5bd14f71427d1e84f3dd0314c0f7b2291e5b200ac8c7c3b92560405160405180910390a45050565b612ccf8383613cd2565b612cdc6000848484613e00565b610e785760405162461bcd60e51b815260040161077c90614e32565b6000818152600460205260408120546001600160a01b0316612d2c5760405162461bcd60e51b815260040161077c90614e93565b6000612d37836111f5565b9050806001600160a01b0316846001600160a01b03161480612d725750836001600160a01b0316612d6784610a11565b6001600160a01b0316145b80612c085750612c08818561223a565b826001600160a01b0316612d95826111f5565b6001600160a01b031614612dfd5760405162461bcd60e51b815260206004820152602960248201527f4552433732313a207472616e73666572206f6620746f6b656e2074686174206960448201526839903737ba1037bbb760b91b606482015260840161077c565b6001600160a01b038216612e5f5760405162461bcd60e51b8152602060048201526024808201527f4552433732313a207472616e7366657220746f20746865207a65726f206164646044820152637265737360e01b606482015260840161077c565b612e6a600082612c57565b6001600160a01b0383166000908152600560205260408120805460019290612e93908490615063565b90915550506001600160a01b0382166000908152600560205260408120805460019290612ec1908490615018565b909155505060008181526004602052604080822080546001600160a01b0319166001600160a01b0386811691821790925591518493918716917fddf252ad1be2c89b69c2b068fc378daa952ba7f163c4a11628f55a4df523b3ef91a4505050565b60208701516000906001600160a01b03163014612f7b5760405162461bcd60e51b815260206004820152601760248201527653484f59553a20494e56414c49445f45584348414e474560481b604482015260640161077c565b60008511612fc35760405162461bcd60e51b815260206004820152601560248201527414d213d6554e881253959053125117d05353d55395605a1b604482015260640161077c565b6000878152601260205260409020546060890151612fe18783615018565b11156130215760405162461bcd60e51b815260206004820152600f60248201526e14d213d6554e8814d3d31117d3d555608a1b604482015260640161077c565b61302b898961255e565b61304b888a600001518b61012001518c61014001518d6101600151612823565b88608001516001600160a01b031663e01be2638a60e001518b61010001518a896040518563ffffffff1660e01b815260040161308a9493929190614f45565b60206040518083038186803b1580156130a257600080fd5b505afa1580156130b6573d6000803e3d6000fd5b505050506040513d601f19601f820116820180604052508101906130da9190614869565b156131e6576130e98682615018565b60008981526012602052604090205560c08901516001600160a01b03811661310f575088515b60a08a0151613124908983610c7b8b8b615044565b6131705760405162461bcd60e51b815260206004820152601f60248201527f53484f59553a204641494c45445f544f5f5452414e534645525f46554e445300604482015260640161077c565b6001600160a01b038516613182578794505b61319b8a602001518b60000151878d604001518b612c10565b887f72fd87c5ad3903eb05815544ef7ea4640a18e631c9c02eb099c810834f82355589898989896040516131d3959493929190614daa565b60405180910390a260019250505061336e565b6000888152601060205260409081902060808b015160e08c01516101008d0151600284015460058501549551633140c34d60e11b815294956001600160a01b0390941694636281869a946132439493928f928e9290600401614f7a565b60206040518083038186803b15801561325b57600080fd5b505afa15801561326f573d6000803e3d6000fd5b505050506040513d601f19601f820116820180604052508101906132939190614869565b156133345780546001600160a01b03808a166001600160a01b031992831617835560018301899055600283018890556003830180548883169084161790556004830180549187169190921617905543600582015560405189907f4055f76fe1f351fec66b9ba790ddbdc29eb45c038163a6b1327277441a8c65f190613321908b908b908b908b908b90614daa565b60405180910390a260009250505061336e565b5060405162461bcd60e51b815260206004820152600e60248201526d53484f59553a204641494c55524560901b604482015260640161077c565b979650505050505050565b6000613384826111f5565b90506001600160a01b0381166133ac5760405162461bcd60e51b815260040161077c90614e93565b6133b7600083612c57565b6001600160a01b03811660009081526005602052604081208054600192906133e0908490615063565b909155505060008281526004602052604080822080546001600160a01b0319169055518391906001600160a01b038416907fddf252ad1be2c89b69c2b068fc378daa952ba7f163c4a11628f55a4df523b3ef908390a45050565b600080613446836111f5565b90506001600160a01b038116158015613460575060035483105b9392505050565b600054610100900460ff1680613480575060005460ff16155b61349c5760405162461bcd60e51b815260040161077c90614eca565b600054610100900460ff161580156134be576000805461ffff19166101011790555b6134c6613f0a565b80156134d8576000805461ff00191690555b50565b6110b6828260405180602001604052806000815250612cc5565b826001600160a01b0316826001600160a01b031614156135575760405162461bcd60e51b815260206004820152601760248201527f53484f59553a20494e56414c49445f4f50455241544f52000000000000000000604482015260640161077c565b6001600160a01b03838116600081815260076020908152604080832094871680845294825291829020805460ff191686151590811790915591519182527f17307eab39ab6107e8899845ad3d59bd9653f200f220920489ca2b5937696c31910160405180910390a3505050565b6003548082116136165760405162461bcd60e51b815260206004820152601a60248201527f53484f59553a20494e56414c49445f544f5f544f4b454e5f4944000000000000604482015260640161077c565b50600355565b613627848484612d82565b61363384848484613e00565b610a0b5760405162461bcd60e51b815260040161077c90614e32565b60608161367457506040805180820190915260018152600360fc1b6020820152610858565b8160005b811561369e5780613688816150f2565b91506136979050600a83615030565b9150613678565b6000816001600160401b038111156136c657634e487b7160e01b600052604160045260246000fd5b6040519080825280601f01601f1916602001820160405280156136f0576020820181803683370190505b5090505b8415612c0857613705600183615063565b9150613712600a8661510d565b61371d906030615018565b60f81b81838151811061374057634e487b7160e01b600052603260045260246000fd5b60200101906001600160f81b031916908160001a905350613762600a86615030565b94506136f4565b60606000613778836002615044565b613783906002615018565b6001600160401b038111156137a857634e487b7160e01b600052604160045260246000fd5b6040519080825280601f01601f1916602001820160405280156137d2576020820181803683370190505b509050600360fc1b816000815181106137fb57634e487b7160e01b600052603260045260246000fd5b60200101906001600160f81b031916908160001a905350600f60fb1b8160018151811061383857634e487b7160e01b600052603260045260246000fd5b60200101906001600160f81b031916908160001a905350600061385c846002615044565b613867906001615018565b90505b60018111156138fb576f181899199a1a9b1b9c1cb0b131b232b360811b85600f16601081106138a957634e487b7160e01b600052603260045260246000fd5b1a60f81b8282815181106138cd57634e487b7160e01b600052603260045260246000fd5b60200101906001600160f81b031916908160001a90535060049490941c936138f4816150a6565b905061386a565b5083156134605760405162461bcd60e51b815260206004820181905260248201527f537472696e67733a20686578206c656e67746820696e73756666696369656e74604482015260640161077c565b80516020808301516040808501516060860151608087015160a08801519351600097612405977fb98e1dc48988064e6dfb813618609d7da80a8841e5f277039788ac4b50d497b297919691959493920196875260208701959095526001600160a01b03938416604087015260608601929092526080850152811660a08401521660c082015260e00190565b600054610100900460ff16806139ee575060005460ff16155b613a0a5760405162461bcd60e51b815260040161077c90614eca565b600054610100900460ff16158015613a2c576000805461ffff19166101011790555b8251613a3f9060019060208601906141a6565b508151613a539060029060208501906141a6565b508015610e78576000805461ff0019169055505050565b600054610100900460ff1680613a83575060005460ff16155b613a9f5760405162461bcd60e51b815260040161077c90614eca565b600054610100900460ff16158015613ac1576000805461ffff19166101011790555b600880546001600160a01b0319166001600160a01b0384169081179091556040516000907f8be0079c531659141344cd1fd0a4f28419497f9722a3daafe3b4186f6b6457e0908290a380156110b6576000805461ff00191690555050565b604080516001600160a01b0385811660248301528481166044830152606480830185905283518084039091018152608490920183526020820180516001600160e01b03166323b872dd60e01b17905291516000928392839291891691613b859190614c95565b6000604051808303816000865af19150503d8060008114613bc2576040519150601f19603f3d011682016040523d82523d6000602084013e613bc7565b606091505b509150915081801561336e57508051158061336e57508080602001905181019061336e9190614869565b604080516001600160a01b038416602482015260448082018490528251808303909101815260649091019091526020810180516001600160e01b031663a9059cbb60e01b179052610e78908490613f69565b613c576001600160a01b0384168383613bf1565b813b15610e7857816001600160a01b031663fff6cae96040518163ffffffff1660e01b8152600401602060405180830381600087803b158015613c9957600080fd5b505af1925050508015613cc9575060408051601f3d908101601f19168201909252613cc691810190614b66565b60015b610a0b57610e78565b6001600160a01b038216613d1c5760405162461bcd60e51b815260206004820152601160248201527053484f59553a20494e56414c49445f544f60781b604482015260640161077c565b6000818152600460205260409020546001600160a01b031615613d795760405162461bcd60e51b815260206004820152601560248201527414d213d6554e881053149150511657d35253951151605a1b604482015260640161077c565b6001600160a01b0382166000908152600560205260408120805460019290613da2908490615018565b909155505060008181526004602052604080822080546001600160a01b0319166001600160a01b03861690811790915590518392907fddf252ad1be2c89b69c2b068fc378daa952ba7f163c4a11628f55a4df523b3ef908290a45050565b60006001600160a01b0384163b15613f0257604051630a85bd0160e11b81526001600160a01b0385169063150b7a0290613e44903390899088908890600401614d6d565b602060405180830381600087803b158015613e5e57600080fd5b505af1925050508015613e8e575060408051601f3d908101601f19168201909252613e8b918101906148b9565b60015b613ee8573d808015613ebc576040519150601f19603f3d011682016040523d82523d6000602084013e613ec1565b606091505b508051613ee05760405162461bcd60e51b815260040161077c90614e32565b805181602001fd5b6001600160e01b031916630a85bd0160e11b149050612c08565b506001612c08565b600054610100900460ff1680613f23575060005460ff16155b613f3f5760405162461bcd60e51b815260040161077c90614eca565b600054610100900460ff16158015613f61576000805461ffff19166101011790555b6134c661403b565b6000613fbe826040518060400160405280602081526020017f5361666545524332303a206c6f772d6c6576656c2063616c6c206661696c6564815250856001600160a01b03166140ab9092919063ffffffff16565b805190915015610e785780806020019051810190613fdc9190614869565b610e785760405162461bcd60e51b815260206004820152602a60248201527f5361666545524332303a204552433230206f7065726174696f6e20646964206e6044820152691bdd081cdd58d8d9595960b21b606482015260840161077c565b600054610100900460ff1680614054575060005460ff16155b6140705760405162461bcd60e51b815260040161077c90614eca565b600054610100900460ff16158015614092576000805461ffff19166101011790555b6001600f5580156134d8576000805461ff001916905550565b6060612c08848460008585843b6141045760405162461bcd60e51b815260206004820152601d60248201527f416464726573733a2063616c6c20746f206e6f6e2d636f6e7472616374000000604482015260640161077c565b600080866001600160a01b031685876040516141209190614c95565b60006040518083038185875af1925050503d806000811461415d576040519150601f19603f3d011682016040523d82523d6000602084013e614162565b606091505b509150915061336e8282866060831561417c575081613460565b82511561418c5782518084602001fd5b8160405162461bcd60e51b815260040161077c9190614df5565b8280546141b2906150bd565b90600052602060002090601f0160209004810192826141d4576000855561421a565b82601f106141ed57805160ff191683800117855561421a565b8280016001018555821561421a579182015b8281111561421a5782518255916020019190600101906141ff565b5061422692915061422a565b5090565b5b80821115614226576000815560010161422b565b803561085881615163565b600082601f83011261425a578081fd5b813560206001600160401b038211156142755761427561514d565b8160051b614284828201614fc1565b83815282810190868401838801850189101561429e578687fd5b8693505b858410156142c05780358352600193909301929184019184016142a2565b50979650505050505050565b600082601f8301126142dc578081fd5b81356142ef6142ea82614ff1565b614fc1565b818152846020838601011115614303578283fd5b816020850160208301379081016020019190915292915050565b6000610180808385031215614330578182fd5b61433981614fc1565b9150506143458261423f565b81526143536020830161423f565b602082015260408201356040820152606082013560608201526143786080830161423f565b608082015261438960a0830161423f565b60a082015261439a60c0830161423f565b60c082015260e082013560e0820152610100808301356001600160401b038111156143c457600080fd5b6143d0858286016142cc565b8284015250506101206143e4818401614406565b9082015261014082810135908201526101609182013591810191909152919050565b80356108588161519c565b600060208284031215614422578081fd5b813561346081615163565b6000806040838503121561443f578081fd5b823561444a81615163565b9150602083013561445a81615163565b809150509250929050565b600080600060608486031215614479578081fd5b833561448481615163565b9250602084013561449481615163565b929592945050506040919091013590565b600080600080608085870312156144ba578182fd5b84356144c581615163565b935060208501356144d581615163565b92506040850135915060608501356001600160401b038111156144f6578182fd5b614502878288016142cc565b91505092959194509250565b60008060008060008060c08789031215614526578384fd5b863561453181615163565b9550602087013561454181615163565b94506040870135935060608701356145588161519c565b9598949750929560808101359460a0909101359350915050565b600080600060608486031215614586578081fd5b833561459181615163565b925060208401356001600160401b03808211156145ac578283fd5b6145b88783880161424a565b935060408601359150808211156145cd578283fd5b506145da868287016142cc565b9150509250925092565b600080604083850312156145f6578182fd5b823561460181615163565b9150602083013561445a81615178565b60008060008060008060c08789031215614629578384fd5b863561463481615163565b955060208701356001600160401b038082111561464f578586fd5b61465b8a838b016142cc565b96506040890135915080821115614670578586fd5b61467c8a838b016142cc565b95506060890135915080821115614691578384fd5b5061469e89828a0161424a565b93505060808701356146af81615163565b915060a08701356146bf8161519c565b809150509295509295509295565b60008060008060008060c087890312156146e5578384fd5b86356146f081615163565b955060208701356001600160401b038082111561470b578586fd5b6147178a838b016142cc565b9650604089013591508082111561472c578586fd5b5061473989828a016142cc565b9450506060870135925060808701356146af81615163565b60008060408385031215614763578182fd5b823561476e81615163565b946020939093013593505050565b600080600060608486031215614790578081fd5b833561479b81615163565b92506020840135915060408401356001600160401b038111156147bc578182fd5b6145da868287016142cc565b60008060008060008060c087890312156147e0578384fd5b86356147eb81615163565b9550602087013594506040870135935060608701356145588161519c565b6000806040838503121561481b578182fd5b825161482681615163565b602084015190925061445a8161519c565b600060208284031215614848578081fd5b81356001600160401b0381111561485d578182fd5b612c088482850161424a565b60006020828403121561487a578081fd5b815161346081615178565b600060208284031215614896578081fd5b5035919050565b6000602082840312156148ae578081fd5b813561346081615186565b6000602082840312156148ca578081fd5b815161346081615186565b6000602082840312156148e6578081fd5b81356001600160401b038111156148fb578182fd5b612c08848285016142cc565b600060208284031215614918578081fd5b81516001600160401b0381111561492d578182fd5b8201601f8101841361493d578182fd5b805161494b6142ea82614ff1565b81815285602083850101111561495f578384fd5b61497082602083016020860161507a565b95945050505050565b60008060006060848603121561498d578081fd5b83356001600160401b03808211156149a3578283fd5b6149af878388016142cc565b945060208601359150808211156149c4578283fd5b506149d1868287016142cc565b92505060408401356149e281615163565b809150509250925092565b6000602082840312156149fe578081fd5b81356001600160401b03811115614a13578182fd5b612c088482850161431d565b600080828403610140811215614a33578283fd5b83356001600160401b03811115614a48578384fd5b614a548682870161431d565b93505061012080601f1983011215614a6a578283fd5b614a7381614fc1565b915060208501358252614a886040860161423f565b60208301526060850135604083015260808501356060830152614aad60a0860161423f565b6080830152614abe60c0860161423f565b60a0830152614acf60e08601614406565b60c08301526101008581013560e0840152940135938101939093525092909150565b600080600080600060a08688031215614b08578283fd5b85356001600160401b03811115614b1d578384fd5b614b298882890161431d565b95505060208601359350604086013592506060860135614b4881615163565b91506080860135614b5881615163565b809150509295509295909350565b600060208284031215614b77578081fd5b5051919050565b60008060408385031215614b90578182fd5b8235915060208301356001600160401b03811115614bac578182fd5b614bb8858286016142cc565b9150509250929050565b60008060408385031215614bd4578182fd5b50508035926020909101359150565b600080600060608486031215614bf7578081fd5b505081359360208301359350604090920135919050565b600060208284031215614c1f578081fd5b81356134608161519c565b600060208284031215614c3b578081fd5b81516134608161519c565b60008151808452614c5e81602086016020860161507a565b601f01601f19169290920160200192915050565b928352602083019190915260f81b6001600160f81b031916604082015260410190565b60008251614ca781846020870161507a565b9190910192915050565b60008351614cc381846020880161507a565b835190830190614cd781836020880161507a565b64173539b7b760d91b9101908152600501949350505050565b60008451614d0281846020890161507a565b845190830190614d1681836020890161507a565b602f60f81b91019081528351614d3381600184016020880161507a565b64173539b7b760d91b6001929091019182015260060195945050505050565b61190160f01b81526002810192909252602282015260420190565b6001600160a01b0385811682528416602082015260408101839052608060608201819052600090614da090830184614c46565b9695505050505050565b6001600160a01b0395861681526020810194909452604084019290925283166060830152909116608082015260a00190565b600083825260406020830152612c086040830184614c46565b6000602082526134606020830184614c46565b60208082526010908201526f29a427acaa9d102327a92124a22222a760811b604082015260600190565b60208082526017908201527f53484f59553a20494e56414c49445f5245434549564552000000000000000000604082015260600190565b60208082526010908201526f14d213d6554e8814915153951490539560821b604082015260600190565b60208082526017908201527f53484f59553a20494e56414c49445f544f4b454e5f4944000000000000000000604082015260600190565b6020808252602e908201527f496e697469616c697a61626c653a20636f6e747261637420697320616c72656160408201526d191e481a5b9a5d1a585b1a5e995960921b606082015260800190565b60208082526013908201527214d213d6554e8815539055551213d492569151606a1b604082015260600190565b600085825260806020830152614f5e6080830186614c46565b6001600160a01b03949094166040830152506060015292915050565b600087825260c06020830152614f9360c0830188614c46565b6001600160a01b03969096166040830152506060810193909352608083019190915260a09091015292915050565b604051601f8201601f191681016001600160401b0381118282101715614fe957614fe961514d565b604052919050565b60006001600160401b0382111561500a5761500a61514d565b50601f01601f191660200190565b6000821982111561502b5761502b615121565b500190565b60008261503f5761503f615137565b500490565b600081600019048311821515161561505e5761505e615121565b500290565b60008282101561507557615075615121565b500390565b60005b8381101561509557818101518382015260200161507d565b83811115610a0b5750506000910152565b6000816150b5576150b5615121565b506000190190565b600181811c908216806150d157607f821691505b6020821081141561200d57634e487b7160e01b600052602260045260246000fd5b600060001982141561510657615106615121565b5060010190565b60008261511c5761511c615137565b500690565b634e487b7160e01b600052601160045260246000fd5b634e487b7160e01b600052601260045260246000fd5b634e487b7160e01b600052604160045260246000fd5b6001600160a01b03811681146134d857600080fd5b80151581146134d857600080fd5b6001600160e01b0319811681146134d857600080fd5b60ff811681146134d857600080fdfea2646970667358221220860a716efe75d647ff70fba93a66008701cb45a62688f5ed1494f316d3040d6c64736f6c63430008030033",
  "devdoc": {
    "kind": "dev",
    "methods": {
      "approve(address,uint256)": {
        "details": "See {IERC721-approve}."
      },
      "balanceOf(address)": {
        "details": "See {IERC721-balanceOf}."
      },
      "getApproved(uint256)": {
        "details": "See {IERC721-getApproved}."
      },
      "isApprovedForAll(address,address)": {
        "details": "See {IERC721-isApprovedForAll}."
      },
      "name()": {
        "details": "See {IERC721Metadata-name}."
      },
      "owner()": {
        "details": "Returns the address of the current owner."
      },
      "ownerOf(uint256)": {
        "details": "See {IERC721-ownerOf}."
      },
      "renounceOwnership()": {
        "details": "Leaves the contract without owner. It will not be possible to call `onlyOwner` functions anymore. Can only be called by the current owner. NOTE: Renouncing ownership will leave the contract without an owner, thereby removing any functionality that is only available to the owner."
      },
      "safeTransferFrom(address,address,uint256)": {
        "details": "See {IERC721-safeTransferFrom}."
      },
      "safeTransferFrom(address,address,uint256,bytes)": {
        "details": "See {IERC721-safeTransferFrom}."
      },
      "setApprovalForAll(address,bool)": {
        "details": "See {IERC721-setApprovalForAll}."
      },
      "symbol()": {
        "details": "See {IERC721Metadata-symbol}."
      },
      "tokenURI(uint256)": {
        "details": "See {IERC721Metadata-tokenURI}."
      },
      "transferFrom(address,address,uint256)": {
        "details": "See {IERC721-transferFrom}."
      },
      "transferOwnership(address)": {
        "details": "Transfers ownership of the contract to a new account (`newOwner`). Can only be called by the current owner."
      }
    },
    "version": 1
  },
  "userdoc": {
    "kind": "user",
    "methods": {},
    "version": 1
  },
  "storageLayout": {
    "storage": [
      {
        "astId": 115,
        "contract": "contracts/NFT721V0.sol:NFT721V0",
        "label": "_initialized",
        "offset": 0,
        "slot": "0",
        "type": "t_bool"
      },
      {
        "astId": 118,
        "contract": "contracts/NFT721V0.sol:NFT721V0",
        "label": "_initializing",
        "offset": 1,
        "slot": "0",
        "type": "t_bool"
      },
      {
        "astId": 9409,
        "contract": "contracts/NFT721V0.sol:NFT721V0",
        "label": "_name",
        "offset": 0,
        "slot": "1",
        "type": "t_string_storage"
      },
      {
        "astId": 9411,
        "contract": "contracts/NFT721V0.sol:NFT721V0",
        "label": "_symbol",
        "offset": 0,
        "slot": "2",
        "type": "t_string_storage"
      },
      {
        "astId": 9413,
        "contract": "contracts/NFT721V0.sol:NFT721V0",
        "label": "_toTokenIdParked",
        "offset": 0,
        "slot": "3",
        "type": "t_uint256"
      },
      {
        "astId": 9417,
        "contract": "contracts/NFT721V0.sol:NFT721V0",
        "label": "_owners",
        "offset": 0,
        "slot": "4",
        "type": "t_mapping(t_uint256,t_address)"
      },
      {
        "astId": 9421,
        "contract": "contracts/NFT721V0.sol:NFT721V0",
        "label": "_balances",
        "offset": 0,
        "slot": "5",
        "type": "t_mapping(t_address,t_uint256)"
      },
      {
        "astId": 9425,
        "contract": "contracts/NFT721V0.sol:NFT721V0",
        "label": "_tokenApprovals",
        "offset": 0,
        "slot": "6",
        "type": "t_mapping(t_uint256,t_address)"
      },
      {
        "astId": 9431,
        "contract": "contracts/NFT721V0.sol:NFT721V0",
        "label": "_operatorApprovals",
        "offset": 0,
        "slot": "7",
        "type": "t_mapping(t_address,t_mapping(t_address,t_bool))"
      },
      {
        "astId": 10285,
        "contract": "contracts/NFT721V0.sol:NFT721V0",
        "label": "_owner",
        "offset": 0,
        "slot": "8",
        "type": "t_address"
      },
      {
        "astId": 6449,
        "contract": "contracts/NFT721V0.sol:NFT721V0",
        "label": "_DOMAIN_SEPARATOR",
        "offset": 0,
        "slot": "9",
        "type": "t_bytes32"
      },
      {
        "astId": 6451,
        "contract": "contracts/NFT721V0.sol:NFT721V0",
        "label": "_factory",
        "offset": 0,
        "slot": "10",
        "type": "t_address"
      },
      {
        "astId": 6453,
        "contract": "contracts/NFT721V0.sol:NFT721V0",
        "label": "__baseURI",
        "offset": 0,
        "slot": "11",
        "type": "t_string_storage"
      },
      {
        "astId": 6457,
        "contract": "contracts/NFT721V0.sol:NFT721V0",
        "label": "_uris",
        "offset": 0,
        "slot": "12",
        "type": "t_mapping(t_uint256,t_string_storage)"
      },
      {
        "astId": 6462,
        "contract": "contracts/NFT721V0.sol:NFT721V0",
        "label": "nonces",
        "offset": 0,
        "slot": "13",
        "type": "t_mapping(t_uint256,t_uint256)"
      },
      {
        "astId": 6467,
        "contract": "contracts/NFT721V0.sol:NFT721V0",
        "label": "noncesForAll",
        "offset": 0,
        "slot": "14",
        "type": "t_mapping(t_address,t_uint256)"
      },
      {
        "astId": 10468,
        "contract": "contracts/NFT721V0.sol:NFT721V0",
        "label": "_status",
        "offset": 0,
        "slot": "15",
        "type": "t_uint256"
      },
      {
        "astId": 4974,
        "contract": "contracts/NFT721V0.sol:NFT721V0",
        "label": "bestBid",
        "offset": 0,
        "slot": "16",
        "type": "t_mapping(t_bytes32,t_struct(BestBid)4968_storage)"
      },
      {
        "astId": 4979,
        "contract": "contracts/NFT721V0.sol:NFT721V0",
        "label": "isCancelled",
        "offset": 0,
        "slot": "17",
        "type": "t_mapping(t_bytes32,t_bool)"
      },
      {
        "astId": 4984,
        "contract": "contracts/NFT721V0.sol:NFT721V0",
        "label": "amountFilled",
        "offset": 0,
        "slot": "18",
        "type": "t_mapping(t_bytes32,t_uint256)"
      },
      {
        "astId": 3226,
        "contract": "contracts/NFT721V0.sol:NFT721V0",
        "label": "_MAX_ROYALTY_FEE",
        "offset": 0,
        "slot": "19",
        "type": "t_uint8"
      },
      {
        "astId": 3228,
        "contract": "contracts/NFT721V0.sol:NFT721V0",
        "label": "_royaltyFeeRecipient",
        "offset": 1,
        "slot": "19",
        "type": "t_address"
      },
      {
        "astId": 3230,
        "contract": "contracts/NFT721V0.sol:NFT721V0",
        "label": "_royaltyFee",
        "offset": 21,
        "slot": "19",
        "type": "t_uint8"
      }
    ],
    "types": {
      "t_address": {
        "encoding": "inplace",
        "label": "address",
        "numberOfBytes": "20"
      },
      "t_bool": {
        "encoding": "inplace",
        "label": "bool",
        "numberOfBytes": "1"
      },
      "t_bytes32": {
        "encoding": "inplace",
        "label": "bytes32",
        "numberOfBytes": "32"
      },
      "t_mapping(t_address,t_bool)": {
        "encoding": "mapping",
        "key": "t_address",
        "label": "mapping(address => bool)",
        "numberOfBytes": "32",
        "value": "t_bool"
      },
      "t_mapping(t_address,t_mapping(t_address,t_bool))": {
        "encoding": "mapping",
        "key": "t_address",
        "label": "mapping(address => mapping(address => bool))",
        "numberOfBytes": "32",
        "value": "t_mapping(t_address,t_bool)"
      },
      "t_mapping(t_address,t_uint256)": {
        "encoding": "mapping",
        "key": "t_address",
        "label": "mapping(address => uint256)",
        "numberOfBytes": "32",
        "value": "t_uint256"
      },
      "t_mapping(t_bytes32,t_bool)": {
        "encoding": "mapping",
        "key": "t_bytes32",
        "label": "mapping(bytes32 => bool)",
        "numberOfBytes": "32",
        "value": "t_bool"
      },
      "t_mapping(t_bytes32,t_struct(BestBid)4968_storage)": {
        "encoding": "mapping",
        "key": "t_bytes32",
        "label": "mapping(bytes32 => struct BaseExchange.BestBid)",
        "numberOfBytes": "32",
        "value": "t_struct(BestBid)4968_storage"
      },
      "t_mapping(t_bytes32,t_uint256)": {
        "encoding": "mapping",
        "key": "t_bytes32",
        "label": "mapping(bytes32 => uint256)",
        "numberOfBytes": "32",
        "value": "t_uint256"
      },
      "t_mapping(t_uint256,t_address)": {
        "encoding": "mapping",
        "key": "t_uint256",
        "label": "mapping(uint256 => address)",
        "numberOfBytes": "32",
        "value": "t_address"
      },
      "t_mapping(t_uint256,t_string_storage)": {
        "encoding": "mapping",
        "key": "t_uint256",
        "label": "mapping(uint256 => string)",
        "numberOfBytes": "32",
        "value": "t_string_storage"
      },
      "t_mapping(t_uint256,t_uint256)": {
        "encoding": "mapping",
        "key": "t_uint256",
        "label": "mapping(uint256 => uint256)",
        "numberOfBytes": "32",
        "value": "t_uint256"
      },
      "t_string_storage": {
        "encoding": "bytes",
        "label": "string",
        "numberOfBytes": "32"
      },
      "t_struct(BestBid)4968_storage": {
        "encoding": "inplace",
        "label": "struct BaseExchange.BestBid",
        "members": [
          {
            "astId": 4957,
            "contract": "contracts/NFT721V0.sol:NFT721V0",
            "label": "bidder",
            "offset": 0,
            "slot": "0",
            "type": "t_address"
          },
          {
            "astId": 4959,
            "contract": "contracts/NFT721V0.sol:NFT721V0",
            "label": "amount",
            "offset": 0,
            "slot": "1",
            "type": "t_uint256"
          },
          {
            "astId": 4961,
            "contract": "contracts/NFT721V0.sol:NFT721V0",
            "label": "price",
            "offset": 0,
            "slot": "2",
            "type": "t_uint256"
          },
          {
            "astId": 4963,
            "contract": "contracts/NFT721V0.sol:NFT721V0",
            "label": "recipient",
            "offset": 0,
            "slot": "3",
            "type": "t_address"
          },
          {
            "astId": 4965,
            "contract": "contracts/NFT721V0.sol:NFT721V0",
            "label": "referrer",
            "offset": 0,
            "slot": "4",
            "type": "t_address"
          },
          {
            "astId": 4967,
            "contract": "contracts/NFT721V0.sol:NFT721V0",
            "label": "blockNumber",
            "offset": 0,
            "slot": "5",
            "type": "t_uint256"
          }
        ],
        "numberOfBytes": "192"
      },
      "t_uint256": {
        "encoding": "inplace",
        "label": "uint256",
        "numberOfBytes": "32"
      },
      "t_uint8": {
        "encoding": "inplace",
        "label": "uint8",
        "numberOfBytes": "1"
      }
    }
  }
}