{
  "address": "0x1084bd062044330E3D4797Ce15F1F0708003dB98",
  "abi": [
    {
      "anonymous": false,
      "inputs": [
        {
          "indexed": true,
          "internalType": "address",
          "name": "owner",
          "type": "address"
        },
        {
          "indexed": true,
          "internalType": "address",
          "name": "approved",
          "type": "address"
        },
        {
          "indexed": true,
          "internalType": "uint256",
          "name": "tokenId",
          "type": "uint256"
        }
      ],
      "name": "Approval",
      "type": "event"
    },
    {
      "anonymous": false,
      "inputs": [
        {
          "indexed": true,
          "internalType": "address",
          "name": "owner",
          "type": "address"
        },
        {
          "indexed": true,
          "internalType": "address",
          "name": "operator",
          "type": "address"
        },
        {
          "indexed": false,
          "internalType": "bool",
          "name": "approved",
          "type": "bool"
        }
      ],
      "name": "ApprovalForAll",
      "type": "event"
    },
    {
      "anonymous": false,
      "inputs": [
        {
          "indexed": true,
          "internalType": "bytes32",
          "name": "hash",
          "type": "bytes32"
        },
        {
          "indexed": false,
          "internalType": "address",
          "name": "bidder",
          "type": "address"
        },
        {
          "indexed": false,
          "internalType": "uint256",
          "name": "amount",
          "type": "uint256"
        },
        {
          "indexed": false,
          "internalType": "uint256",
          "name": "price",
          "type": "uint256"
        },
        {
          "indexed": false,
          "internalType": "address",
          "name": "recipient",
          "type": "address"
        },
        {
          "indexed": false,
          "internalType": "address",
          "name": "referrer",
          "type": "address"
        }
      ],
      "name": "Bid",
      "type": "event"
    },
    {
      "anonymous": false,
      "inputs": [
        {
          "indexed": true,
          "internalType": "uint256",
          "name": "tokenId",
          "type": "uint256"
        },
        {
          "indexed": true,
          "internalType": "uint256",
          "name": "label",
          "type": "uint256"
        },
        {
          "indexed": false,
          "internalType": "bytes32",
          "name": "data",
          "type": "bytes32"
        }
      ],
      "name": "Burn",
      "type": "event"
    },
    {
      "anonymous": false,
      "inputs": [
        {
          "indexed": true,
          "internalType": "bytes32",
          "name": "hash",
          "type": "bytes32"
        }
      ],
      "name": "Cancel",
      "type": "event"
    },
    {
      "anonymous": false,
      "inputs": [
        {
          "indexed": true,
          "internalType": "bytes32",
          "name": "hash",
          "type": "bytes32"
        },
        {
          "indexed": false,
          "internalType": "address",
          "name": "bidder",
          "type": "address"
        },
        {
          "indexed": false,
          "internalType": "uint256",
          "name": "amount",
          "type": "uint256"
        },
        {
          "indexed": false,
          "internalType": "uint256",
          "name": "price",
          "type": "uint256"
        },
        {
          "indexed": false,
          "internalType": "address",
          "name": "recipient",
          "type": "address"
        },
        {
          "indexed": false,
          "internalType": "address",
          "name": "referrer",
          "type": "address"
        }
      ],
      "name": "Claim",
      "type": "event"
    },
    {
      "anonymous": false,
      "inputs": [
        {
          "indexed": true,
          "internalType": "address",
          "name": "previousOwner",
          "type": "address"
        },
        {
          "indexed": true,
          "internalType": "address",
          "name": "newOwner",
          "type": "address"
        }
      ],
      "name": "OwnershipTransferred",
      "type": "event"
    },
    {
      "anonymous": false,
      "inputs": [
        {
          "indexed": false,
          "internalType": "uint256",
          "name": "toTokenId",
          "type": "uint256"
        }
      ],
      "name": "ParkTokenIds",
      "type": "event"
    },
    {
      "anonymous": false,
      "inputs": [
        {
          "indexed": false,
          "internalType": "string",
          "name": "uri",
          "type": "string"
        }
      ],
      "name": "SetBaseURI",
      "type": "event"
    },
    {
      "anonymous": false,
      "inputs": [
        {
          "indexed": false,
          "internalType": "uint8",
          "name": "fee",
          "type": "uint8"
        }
      ],
      "name": "SetRoyaltyFee",
      "type": "event"
    },
    {
      "anonymous": false,
      "inputs": [
        {
          "indexed": false,
          "internalType": "address",
          "name": "recipient",
          "type": "address"
        }
      ],
      "name": "SetRoyaltyFeeRecipient",
      "type": "event"
    },
    {
      "anonymous": false,
      "inputs": [
        {
          "indexed": true,
          "internalType": "uint256",
          "name": "tokenId",
          "type": "uint256"
        },
        {
          "indexed": false,
          "internalType": "string",
          "name": "uri",
          "type": "string"
        }
      ],
      "name": "SetTokenURI",
      "type": "event"
    },
    {
      "anonymous": false,
      "inputs": [
        {
          "indexed": true,
          "internalType": "address",
          "name": "from",
          "type": "address"
        },
        {
          "indexed": true,
          "internalType": "address",
          "name": "to",
          "type": "address"
        },
        {
          "indexed": true,
          "internalType": "uint256",
          "name": "tokenId",
          "type": "uint256"
        }
      ],
      "name": "Transfer",
      "type": "event"
    },
    {
      "inputs": [],
      "name": "DOMAIN_SEPARATOR",
      "outputs": [
        {
          "internalType": "bytes32",
          "name": "",
          "type": "bytes32"
        }
      ],
      "stateMutability": "view",
      "type": "function"
    },
    {
      "inputs": [],
      "name": "PERMIT_ALL_TYPEHASH",
      "outputs": [
        {
          "internalType": "bytes32",
          "name": "",
          "type": "bytes32"
        }
      ],
      "stateMutability": "view",
      "type": "function"
    },
    {
      "inputs": [],
      "name": "PERMIT_TYPEHASH",
      "outputs": [
        {
          "internalType": "bytes32",
          "name": "",
          "type": "bytes32"
        }
      ],
      "stateMutability": "view",
      "type": "function"
    },
    {
      "inputs": [
        {
          "internalType": "bytes32",
          "name": "",
          "type": "bytes32"
        }
      ],
      "name": "amountFilled",
      "outputs": [
        {
          "internalType": "uint256",
          "name": "",
          "type": "uint256"
        }
      ],
      "stateMutability": "view",
      "type": "function"
    },
    {
      "inputs": [
        {
          "internalType": "address",
          "name": "to",
          "type": "address"
        },
        {
          "internalType": "uint256",
          "name": "tokenId",
          "type": "uint256"
        }
      ],
      "name": "approve",
      "outputs": [],
      "stateMutability": "nonpayable",
      "type": "function"
    },
    {
      "inputs": [
        {
          "internalType": "address",
          "name": "owner",
          "type": "address"
        }
      ],
      "name": "balanceOf",
      "outputs": [
        {
          "internalType": "uint256",
          "name": "",
          "type": "uint256"
        }
      ],
      "stateMutability": "view",
      "type": "function"
    },
    {
      "inputs": [
        {
          "internalType": "bytes32",
          "name": "",
          "type": "bytes32"
        }
      ],
      "name": "bestBid",
      "outputs": [
        {
          "internalType": "address",
          "name": "bidder",
          "type": "address"
        },
        {
          "internalType": "uint256",
          "name": "amount",
          "type": "uint256"
        },
        {
          "internalType": "uint256",
          "name": "price",
          "type": "uint256"
        },
        {
          "internalType": "address",
          "name": "recipient",
          "type": "address"
        },
        {
          "internalType": "address",
          "name": "referrer",
          "type": "address"
        },
        {
          "internalType": "uint256",
          "name": "blockNumber",
          "type": "uint256"
        }
      ],
      "stateMutability": "view",
      "type": "function"
    },
    {
      "inputs": [
        {
          "components": [
            {
              "internalType": "address",
              "name": "signer",
              "type": "address"
            },
            {
              "internalType": "address",
              "name": "token",
              "type": "address"
            },
            {
              "internalType": "uint256",
              "name": "tokenId",
              "type": "uint256"
            },
            {
              "internalType": "uint256",
              "name": "amount",
              "type": "uint256"
            },
            {
              "internalType": "address",
              "name": "strategy",
              "type": "address"
            },
            {
              "internalType": "address",
              "name": "currency",
              "type": "address"
            },
            {
              "internalType": "address",
              "name": "recipient",
              "type": "address"
            },
            {
              "internalType": "uint256",
              "name": "deadline",
              "type": "uint256"
            },
            {
              "internalType": "bytes",
              "name": "params",
              "type": "bytes"
            },
            {
              "internalType": "uint8",
              "name": "v",
              "type": "uint8"
            },
            {
              "internalType": "bytes32",
              "name": "r",
              "type": "bytes32"
            },
            {
              "internalType": "bytes32",
              "name": "s",
              "type": "bytes32"
            }
          ],
          "internalType": "struct Orders.Ask",
          "name": "askOrder",
          "type": "tuple"
        },
        {
          "internalType": "uint256",
          "name": "bidAmount",
          "type": "uint256"
        },
        {
          "internalType": "uint256",
          "name": "bidPrice",
          "type": "uint256"
        },
        {
          "internalType": "address",
          "name": "bidRecipient",
          "type": "address"
        },
        {
          "internalType": "address",
          "name": "bidReferrer",
          "type": "address"
        }
      ],
      "name": "bid",
      "outputs": [
        {
          "internalType": "bool",
          "name": "executed",
          "type": "bool"
        }
      ],
      "stateMutability": "nonpayable",
      "type": "function"
    },
    {
      "inputs": [
        {
          "components": [
            {
              "internalType": "address",
              "name": "signer",
              "type": "address"
            },
            {
              "internalType": "address",
              "name": "token",
              "type": "address"
            },
            {
              "internalType": "uint256",
              "name": "tokenId",
              "type": "uint256"
            },
            {
              "internalType": "uint256",
              "name": "amount",
              "type": "uint256"
            },
            {
              "internalType": "address",
              "name": "strategy",
              "type": "address"
            },
            {
              "internalType": "address",
              "name": "currency",
              "type": "address"
            },
            {
              "internalType": "address",
              "name": "recipient",
              "type": "address"
            },
            {
              "internalType": "uint256",
              "name": "deadline",
              "type": "uint256"
            },
            {
              "internalType": "bytes",
              "name": "params",
              "type": "bytes"
            },
            {
              "internalType": "uint8",
              "name": "v",
              "type": "uint8"
            },
            {
              "internalType": "bytes32",
              "name": "r",
              "type": "bytes32"
            },
            {
              "internalType": "bytes32",
              "name": "s",
              "type": "bytes32"
            }
          ],
          "internalType": "struct Orders.Ask",
          "name": "askOrder",
          "type": "tuple"
        },
        {
          "components": [
            {
              "internalType": "bytes32",
              "name": "askHash",
              "type": "bytes32"
            },
            {
              "internalType": "address",
              "name": "signer",
              "type": "address"
            },
            {
              "internalType": "uint256",
              "name": "amount",
              "type": "uint256"
            },
            {
              "internalType": "uint256",
              "name": "price",
              "type": "uint256"
            },
            {
              "internalType": "address",
              "name": "recipient",
              "type": "address"
            },
            {
              "internalType": "address",
              "name": "referrer",
              "type": "address"
            },
            {
              "internalType": "uint8",
              "name": "v",
              "type": "uint8"
            },
            {
              "internalType": "bytes32",
              "name": "r",
              "type": "bytes32"
            },
            {
              "internalType": "bytes32",
              "name": "s",
              "type": "bytes32"
            }
          ],
          "internalType": "struct Orders.Bid",
          "name": "bidOrder",
          "type": "tuple"
        }
      ],
      "name": "bid",
      "outputs": [
        {
          "internalType": "bool",
          "name": "executed",
          "type": "bool"
        }
      ],
      "stateMutability": "nonpayable",
      "type": "function"
    },
    {
      "inputs": [
        {
          "internalType": "uint256",
          "name": "tokenId",
          "type": "uint256"
        },
        {
          "internalType": "uint256",
          "name": "label",
          "type": "uint256"
        },
        {
          "internalType": "bytes32",
          "name": "data",
          "type": "bytes32"
        }
      ],
      "name": "burn",
      "outputs": [],
      "stateMutability": "nonpayable",
      "type": "function"
    },
    {
      "inputs": [
        {
          "internalType": "uint256[]",
          "name": "tokenIds",
          "type": "uint256[]"
        }
      ],
      "name": "burnBatch",
      "outputs": [],
      "stateMutability": "nonpayable",
      "type": "function"
    },
    {
      "inputs": [
        {
          "internalType": "address",
          "name": "token",
          "type": "address"
        }
      ],
      "name": "canTrade",
      "outputs": [
        {
          "internalType": "bool",
          "name": "",
          "type": "bool"
        }
      ],
      "stateMutability": "view",
      "type": "function"
    },
    {
      "inputs": [
        {
          "components": [
            {
              "internalType": "address",
              "name": "signer",
              "type": "address"
            },
            {
              "internalType": "address",
              "name": "token",
              "type": "address"
            },
            {
              "internalType": "uint256",
              "name": "tokenId",
              "type": "uint256"
            },
            {
              "internalType": "uint256",
              "name": "amount",
              "type": "uint256"
            },
            {
              "internalType": "address",
              "name": "strategy",
              "type": "address"
            },
            {
              "internalType": "address",
              "name": "currency",
              "type": "address"
            },
            {
              "internalType": "address",
              "name": "recipient",
              "type": "address"
            },
            {
              "internalType": "uint256",
              "name": "deadline",
              "type": "uint256"
            },
            {
              "internalType": "bytes",
              "name": "params",
              "type": "bytes"
            },
            {
              "internalType": "uint8",
              "name": "v",
              "type": "uint8"
            },
            {
              "internalType": "bytes32",
              "name": "r",
              "type": "bytes32"
            },
            {
              "internalType": "bytes32",
              "name": "s",
              "type": "bytes32"
            }
          ],
          "internalType": "struct Orders.Ask",
          "name": "order",
          "type": "tuple"
        }
      ],
      "name": "cancel",
      "outputs": [],
      "stateMutability": "nonpayable",
      "type": "function"
    },
    {
      "inputs": [
        {
          "components": [
            {
              "internalType": "address",
              "name": "signer",
              "type": "address"
            },
            {
              "internalType": "address",
              "name": "token",
              "type": "address"
            },
            {
              "internalType": "uint256",
              "name": "tokenId",
              "type": "uint256"
            },
            {
              "internalType": "uint256",
              "name": "amount",
              "type": "uint256"
            },
            {
              "internalType": "address",
              "name": "strategy",
              "type": "address"
            },
            {
              "internalType": "address",
              "name": "currency",
              "type": "address"
            },
            {
              "internalType": "address",
              "name": "recipient",
              "type": "address"
            },
            {
              "internalType": "uint256",
              "name": "deadline",
              "type": "uint256"
            },
            {
              "internalType": "bytes",
              "name": "params",
              "type": "bytes"
            },
            {
              "internalType": "uint8",
              "name": "v",
              "type": "uint8"
            },
            {
              "internalType": "bytes32",
              "name": "r",
              "type": "bytes32"
            },
            {
              "internalType": "bytes32",
              "name": "s",
              "type": "bytes32"
            }
          ],
          "internalType": "struct Orders.Ask",
          "name": "askOrder",
          "type": "tuple"
        }
      ],
      "name": "claim",
      "outputs": [],
      "stateMutability": "nonpayable",
      "type": "function"
    },
    {
      "inputs": [],
      "name": "factory",
      "outputs": [
        {
          "internalType": "address",
          "name": "",
          "type": "address"
        }
      ],
      "stateMutability": "view",
      "type": "function"
    },
    {
      "inputs": [
        {
          "internalType": "uint256",
          "name": "tokenId",
          "type": "uint256"
        }
      ],
      "name": "getApproved",
      "outputs": [
        {
          "internalType": "address",
          "name": "",
          "type": "address"
        }
      ],
      "stateMutability": "view",
      "type": "function"
    },
    {
      "inputs": [
        {
          "internalType": "string",
          "name": "_name",
          "type": "string"
        },
        {
          "internalType": "string",
          "name": "_symbol",
          "type": "string"
        },
        {
          "internalType": "address",
          "name": "_owner",
          "type": "address"
        }
      ],
      "name": "initialize",
      "outputs": [],
      "stateMutability": "nonpayable",
      "type": "function"
    },
    {
      "inputs": [
        {
          "internalType": "address",
          "name": "_owner",
          "type": "address"
        },
        {
          "internalType": "string",
          "name": "_name",
          "type": "string"
        },
        {
          "internalType": "string",
          "name": "_symbol",
          "type": "string"
        },
        {
          "internalType": "uint256[]",
          "name": "tokenIds",
          "type": "uint256[]"
        },
        {
          "internalType": "address",
          "name": "royaltyFeeRecipient",
          "type": "address"
        },
        {
          "internalType": "uint8",
          "name": "royaltyFee",
          "type": "uint8"
        }
      ],
      "name": "initialize",
      "outputs": [],
      "stateMutability": "nonpayable",
      "type": "function"
    },
    {
      "inputs": [
        {
          "internalType": "address",
          "name": "_owner",
          "type": "address"
        },
        {
          "internalType": "string",
          "name": "_name",
          "type": "string"
        },
        {
          "internalType": "string",
          "name": "_symbol",
          "type": "string"
        },
        {
          "internalType": "uint256",
          "name": "toTokenId",
          "type": "uint256"
        },
        {
          "internalType": "address",
          "name": "royaltyFeeRecipient",
          "type": "address"
        },
        {
          "internalType": "uint8",
          "name": "royaltyFee",
          "type": "uint8"
        }
      ],
      "name": "initialize",
      "outputs": [],
      "stateMutability": "nonpayable",
      "type": "function"
    },
    {
      "inputs": [
        {
          "internalType": "address",
          "name": "owner",
          "type": "address"
        },
        {
          "internalType": "address",
          "name": "operator",
          "type": "address"
        }
      ],
      "name": "isApprovedForAll",
      "outputs": [
        {
          "internalType": "bool",
          "name": "",
          "type": "bool"
        }
      ],
      "stateMutability": "view",
      "type": "function"
    },
    {
      "inputs": [
        {
          "internalType": "bytes32",
          "name": "",
          "type": "bytes32"
        }
      ],
      "name": "isCancelledOrClaimed",
      "outputs": [
        {
          "internalType": "bool",
          "name": "",
          "type": "bool"
        }
      ],
      "stateMutability": "view",
      "type": "function"
    },
    {
      "inputs": [
        {
          "internalType": "address",
          "name": "to",
          "type": "address"
        },
        {
          "internalType": "uint256",
          "name": "tokenId",
          "type": "uint256"
        },
        {
          "internalType": "bytes",
          "name": "data",
          "type": "bytes"
        }
      ],
      "name": "mint",
      "outputs": [],
      "stateMutability": "nonpayable",
      "type": "function"
    },
    {
      "inputs": [
        {
          "internalType": "address",
          "name": "to",
          "type": "address"
        },
        {
          "internalType": "uint256[]",
          "name": "tokenIds",
          "type": "uint256[]"
        },
        {
          "internalType": "bytes",
          "name": "data",
          "type": "bytes"
        }
      ],
      "name": "mintBatch",
      "outputs": [],
      "stateMutability": "nonpayable",
      "type": "function"
    },
    {
      "inputs": [],
      "name": "name",
      "outputs": [
        {
          "internalType": "string",
          "name": "",
          "type": "string"
        }
      ],
      "stateMutability": "view",
      "type": "function"
    },
    {
      "inputs": [
        {
          "internalType": "uint256",
          "name": "",
          "type": "uint256"
        }
      ],
      "name": "nonces",
      "outputs": [
        {
          "internalType": "uint256",
          "name": "",
          "type": "uint256"
        }
      ],
      "stateMutability": "view",
      "type": "function"
    },
    {
      "inputs": [
        {
          "internalType": "address",
          "name": "",
          "type": "address"
        }
      ],
      "name": "noncesForAll",
      "outputs": [
        {
          "internalType": "uint256",
          "name": "",
          "type": "uint256"
        }
      ],
      "stateMutability": "view",
      "type": "function"
    },
    {
      "inputs": [],
      "name": "owner",
      "outputs": [
        {
          "internalType": "address",
          "name": "",
          "type": "address"
        }
      ],
      "stateMutability": "view",
      "type": "function"
    },
    {
      "inputs": [
        {
          "internalType": "uint256",
          "name": "tokenId",
          "type": "uint256"
        }
      ],
      "name": "ownerOf",
      "outputs": [
        {
          "internalType": "address",
          "name": "",
          "type": "address"
        }
      ],
      "stateMutability": "view",
      "type": "function"
    },
    {
      "inputs": [
        {
          "internalType": "uint256",
          "name": "toTokenId",
          "type": "uint256"
        }
      ],
      "name": "parkTokenIds",
      "outputs": [],
      "stateMutability": "nonpayable",
      "type": "function"
    },
    {
      "inputs": [
        {
          "internalType": "uint256",
          "name": "tokenId",
          "type": "uint256"
        }
      ],
      "name": "parked",
      "outputs": [
        {
          "internalType": "bool",
          "name": "",
          "type": "bool"
        }
      ],
      "stateMutability": "view",
      "type": "function"
    },
    {
      "inputs": [
        {
          "internalType": "address",
          "name": "spender",
          "type": "address"
        },
        {
          "internalType": "uint256",
          "name": "tokenId",
          "type": "uint256"
        },
        {
          "internalType": "uint256",
          "name": "deadline",
          "type": "uint256"
        },
        {
          "internalType": "uint8",
          "name": "v",
          "type": "uint8"
        },
        {
          "internalType": "bytes32",
          "name": "r",
          "type": "bytes32"
        },
        {
          "internalType": "bytes32",
          "name": "s",
          "type": "bytes32"
        }
      ],
      "name": "permit",
      "outputs": [],
      "stateMutability": "nonpayable",
      "type": "function"
    },
    {
      "inputs": [
        {
          "internalType": "address",
          "name": "owner",
          "type": "address"
        },
        {
          "internalType": "address",
          "name": "spender",
          "type": "address"
        },
        {
          "internalType": "uint256",
          "name": "deadline",
          "type": "uint256"
        },
        {
          "internalType": "uint8",
          "name": "v",
          "type": "uint8"
        },
        {
          "internalType": "bytes32",
          "name": "r",
          "type": "bytes32"
        },
        {
          "internalType": "bytes32",
          "name": "s",
          "type": "bytes32"
        }
      ],
      "name": "permitAll",
      "outputs": [],
      "stateMutability": "nonpayable",
      "type": "function"
    },
    {
      "inputs": [],
      "name": "renounceOwnership",
      "outputs": [],
      "stateMutability": "nonpayable",
      "type": "function"
    },
    {
      "inputs": [
        {
          "internalType": "uint256",
          "name": "",
          "type": "uint256"
        },
        {
          "internalType": "uint256",
          "name": "_salePrice",
          "type": "uint256"
        }
      ],
      "name": "royaltyInfo",
      "outputs": [
        {
          "internalType": "address",
          "name": "",
          "type": "address"
        },
        {
          "internalType": "uint256",
          "name": "",
          "type": "uint256"
        }
      ],
      "stateMutability": "view",
      "type": "function"
    },
    {
      "inputs": [
        {
          "internalType": "address",
          "name": "from",
          "type": "address"
        },
        {
          "internalType": "address",
          "name": "to",
          "type": "address"
        },
        {
          "internalType": "uint256",
          "name": "tokenId",
          "type": "uint256"
        }
      ],
      "name": "safeTransferFrom",
      "outputs": [],
      "stateMutability": "nonpayable",
      "type": "function"
    },
    {
      "inputs": [
        {
          "internalType": "address",
          "name": "from",
          "type": "address"
        },
        {
          "internalType": "address",
          "name": "to",
          "type": "address"
        },
        {
          "internalType": "uint256",
          "name": "tokenId",
          "type": "uint256"
        },
        {
          "internalType": "bytes",
          "name": "_data",
          "type": "bytes"
        }
      ],
      "name": "safeTransferFrom",
      "outputs": [],
      "stateMutability": "nonpayable",
      "type": "function"
    },
    {
      "inputs": [
        {
          "internalType": "address",
          "name": "operator",
          "type": "address"
        },
        {
          "internalType": "bool",
          "name": "approved",
          "type": "bool"
        }
      ],
      "name": "setApprovalForAll",
      "outputs": [],
      "stateMutability": "nonpayable",
      "type": "function"
    },
    {
      "inputs": [
        {
          "internalType": "string",
          "name": "uri",
          "type": "string"
        }
      ],
      "name": "setBaseURI",
      "outputs": [],
      "stateMutability": "nonpayable",
      "type": "function"
    },
    {
      "inputs": [
        {
          "internalType": "uint8",
          "name": "royaltyFee",
          "type": "uint8"
        }
      ],
      "name": "setRoyaltyFee",
      "outputs": [],
      "stateMutability": "nonpayable",
      "type": "function"
    },
    {
      "inputs": [
        {
          "internalType": "address",
          "name": "royaltyFeeRecipient",
          "type": "address"
        }
      ],
      "name": "setRoyaltyFeeRecipient",
      "outputs": [],
      "stateMutability": "nonpayable",
      "type": "function"
    },
    {
      "inputs": [
        {
          "internalType": "uint256",
          "name": "id",
          "type": "uint256"
        },
        {
          "internalType": "string",
          "name": "newURI",
          "type": "string"
        }
      ],
      "name": "setTokenURI",
      "outputs": [],
      "stateMutability": "nonpayable",
      "type": "function"
    },
    {
      "inputs": [
        {
          "internalType": "bytes4",
          "name": "interfaceId",
          "type": "bytes4"
        }
      ],
      "name": "supportsInterface",
      "outputs": [
        {
          "internalType": "bool",
          "name": "",
          "type": "bool"
        }
      ],
      "stateMutability": "view",
      "type": "function"
    },
    {
      "inputs": [],
      "name": "symbol",
      "outputs": [
        {
          "internalType": "string",
          "name": "",
          "type": "string"
        }
      ],
      "stateMutability": "view",
      "type": "function"
    },
    {
      "inputs": [
        {
          "internalType": "uint256",
          "name": "tokenId",
          "type": "uint256"
        }
      ],
      "name": "tokenURI",
      "outputs": [
        {
          "internalType": "string",
          "name": "",
          "type": "string"
        }
      ],
      "stateMutability": "view",
      "type": "function"
    },
    {
      "inputs": [
        {
          "internalType": "address",
          "name": "from",
          "type": "address"
        },
        {
          "internalType": "address",
          "name": "to",
          "type": "address"
        },
        {
          "internalType": "uint256",
          "name": "tokenId",
          "type": "uint256"
        }
      ],
      "name": "transferFrom",
      "outputs": [],
      "stateMutability": "nonpayable",
      "type": "function"
    },
    {
      "inputs": [
        {
          "internalType": "address",
          "name": "newOwner",
          "type": "address"
        }
      ],
      "name": "transferOwnership",
      "outputs": [],
      "stateMutability": "nonpayable",
      "type": "function"
    }
  ],
  "transactionHash": "0x4c6fd3259d025fb3cb9fb67981ec804107a780c230bb73a9e10a7c82082b651f",
  "args": [],
  "solcInputHash": "ef584d04a9560a34dfa91987c913844c",
  "bytecode": "0x608060405234801561001057600080fd5b50615310806100206000396000f3fe608060405234801561001057600080fd5b50600436106102895760003560e01c8063715018a61161015c578063aba07847116100ce578063c975e37411610087578063c975e37414610699578063def27164146106ac578063e331a715146106bf578063e4623c1b146106e2578063e985e9c5146106f5578063f2fde38b1461070857610289565b8063aba0784714610615578063ac9a252114610628578063b4e13c8d1461063b578063b88d4fde14610662578063c45a015514610675578063c87b56dd1461068657610289565b80639443792c116101205780639443792c146105ae57806394d008ef146105c157806395d89b41146105d4578063994e7296146105dc5780639ecbcda2146105ef578063a22cb4651461060257610289565b8063715018a61461054257806375e6590f1461054a5780637ac2ff7b1461056a5780638da5cb5b1461057d578063904dfb8e1461058e57610289565b80632a55205a1161020057806355f804b3116101b957806355f804b3146104515780635771f997146104645780635f7ef2fa146104f65780636352211e146105095780636ef8e02d1461051c57806370a082311461052f57610289565b80632a55205a146103ab57806330adf81f146103dd5780633644e5151461040457806342842e0e1461040c57806344f09d111461041f578063559f05dc1461043257610289565b80630935d663116102525780630935d6631461031e578063095ea7b314610331578063141a468c14610344578063162094c414610372578063228624821461038557806323b872dd1461039857610289565b8062893bf81461028e57806301ffc9a7146102a357806306fdde03146102cb578063077f224a146102e0578063081812fc146102f3575b600080fd5b6102a161029c366004614bc0565b61071b565b005b6102b66102b1366004614a79565b6107f8565b60405190151581526020015b60405180910390f35b6102d3610825565b6040516102c29190614f80565b6102a16102ee366004614b4c565b6108b7565b610306610301366004614a61565b6109e3565b6040516001600160a01b0390911681526020016102c2565b6102a161032c366004614bc0565b610a33565b6102a161033f366004614900565b610df2565b610364610352366004614a61565b600e6020526000908152604090205481565b6040519081526020016102c2565b6102a1610380366004614d51565b610e9c565b6102a1610393366004614721565b610f22565b6102a16103a6366004614614565b610fc0565b6103be6103b9366004614d95565b611021565b604080516001600160a01b0390931683526020830191909152016102c2565b6103647f49ecf333e5b8c95c40fdafc95c1ad136e8914a8fb55e9dc8bb01eaa83a2df9ad81565b61036461107f565b6102a161041a366004614614565b61108e565b6102b661042d366004614cc4565b6110a9565b6102b66104403660046145c0565b6001600160a01b0381163014919050565b6102a161045f366004614ab1565b61110c565b6104b7610472366004614a61565b6011602052600090815260409020805460018201546002830154600384015460048501546005909501546001600160a01b039485169593949293918316929091169086565b604080516001600160a01b03978816815260208101969096528501939093529084166060840152909216608082015260a081019190915260c0016102c2565b6102a1610504366004614de1565b611184565b610306610517366004614a61565b6111ba565b6102a161052a3660046145c0565b6111d5565b61036461053d3660046145c0565b611208565b6102a1611273565b610364610558366004614a61565b60136020526000908152604090205481565b6102a16105783660046149a4565b6112e7565b6008546001600160a01b0316610306565b61036461059c3660046145c0565b600f6020526000908152604090205481565b6102a16105bc366004614db6565b61148f565b6102a16105cf366004614958565b611508565b6102d3611561565b6102b66105ea366004614a61565b611570565b6102a16105fd3660046147c0565b61157b565b6102a1610610366004614793565b611718565b6102a16106233660046146bd565b611727565b6102a161063636600461487c565b6118c3565b6103647fdaab21af31ece73a508939fedd476a5ee5129a5ed4bb091f3236ffb45394df6281565b6102a1610670366004614654565b611a0c565b600b546001600160a01b0316610306565b6102d3610694366004614a61565b611a3e565b6102a16106a7366004614a61565b611cd3565b6102b66106ba366004614bf2565b611d5a565b6102b66106cd366004614a61565b60126020526000908152604090205460ff1681565b6102a16106f0366004614a13565b611e98565b6102b66107033660046145dc565b611f25565b6102a16107163660046145c0565b611f53565b80516001600160a01b0316331461074d5760405162461bcd60e51b815260040161074490614f93565b60405180910390fd5b60006107588261202f565b6000818152601160205260409020549091506001600160a01b0316156107b45760405162461bcd60e51b815260206004820152601160248201527053484f59553a204249445f45584953545360781b6044820152606401610744565b600081815260126020526040808220805460ff191660011790555182917fe8d9861dbc9c663ed3accd261bbe2fe01e0d3d9e5f51fa38523b265c7757a93a91a25050565b600063152a902d60e11b6001600160e01b03198316148061081d575061081d8261210d565b90505b919050565b606060018054610834906151ec565b80601f0160208091040260200160405190810160405280929190818152602001828054610860906151ec565b80156108ad5780601f10610882576101008083540402835291602001916108ad565b820191906000526020600020905b81548152906001019060200180831161089057829003601f168201915b5050505050905090565b600054610100900460ff16806108d0575060005460ff16155b6108ec5760405162461bcd60e51b815260040161074490615055565b600054610100900460ff1615801561090e576000805461ffff19166101011790555b610918848461215d565b610921826121d4565b600b80546001600160a01b0319163317905546600a557f8b73c3c69bb8fe3d512ecc4cf759cc79239f7b179b0ffacaa9a75d522b39400f61096130612249565b80516020918201206040805192830193909352918101919091527fc89efdaa54c0f20c7adf612882df0950f5a951637e0307cdcb4c672f298b8bc660608201524660808201523060a082015260c00160408051601f19818403018152919052805160209091012060095580156109dd576000805461ff00191690555b50505050565b6000818152600460205260408120546001600160a01b0316610a175760405162461bcd60e51b81526004016107449061501e565b506000908152600660205260409020546001600160a01b031690565b60105460ff16151560011415610a5b5760405162461bcd60e51b815260040161074490614ff4565b6010805460ff1916600117905560208101516001600160a01b03163014610abe5760405162461bcd60e51b815260206004820152601760248201527653484f59553a20494e56414c49445f45584348414e474560481b6044820152606401610744565b6000610ac98261202f565b9050610ad582826122a6565b610afd818360000151846101200151856101400151866101600151610af861107f565b612578565b600081815260116020908152604091829020825160c08101845281546001600160a01b039081168083526001840154948301949094526002830154828601819052600384015482166060840152600480850154831660808086019190915260059095015460a085018190529489015160e08a01516101008b01519851636511995160e01b815295989190941696636511995196610ba5969294919391928492849291016150a3565b60206040518083038186803b158015610bbd57600080fd5b505afa158015610bd1573d6000803e3d6000fd5b505050506040513d601f19601f82011682018060405250810190610bf59190614a45565b610c325760405162461bcd60e51b815260206004820152600e60248201526d53484f59553a204641494c55524560901b6044820152606401610744565b60c08301516001600160a01b038116610c49575082515b600083815260126020908152604091829020805460ff19166001179055858101518683015160a088015186519387015194870151610c9995939492939192918791610c949190615173565b61272e565b610ce55760405162461bcd60e51b815260206004820152601f60248201527f53484f59553a204641494c45445f544f5f5452414e534645525f46554e4453006044820152606401610744565b60208083015160008581526013909252604090912054610d059190615147565b60008481526013602052604090205560608201516001600160a01b038116610d2b575081515b610d4885602001518660000151838860400151876020015161299b565b600084815260116020908152604080832080546001600160a01b03199081168255600182018590556002820185905560038201805482169055600482018054909116905560050192909255845190850151858301516080870151935188947f0642c67a22e8657a7126bb3b9fb3f01965503642f884e4c6a1efd8ed24f46c0d94610dd9949093909290918891614f35565b60405180910390a250506010805460ff19169055505050565b6000610dfd826111ba565b9050806001600160a01b0316836001600160a01b03161415610e555760405162461bcd60e51b815260206004820152601160248201527053484f59553a20494e56414c49445f544f60781b6044820152606401610744565b336001600160a01b0382161480610e715750610e718133611f25565b610e8d5760405162461bcd60e51b815260040161074490614f93565b610e9783836129e2565b505050565b6008546001600160a01b03163314610ec65760405162461bcd60e51b815260040161074490614f93565b6000828152600d602090815260409091208251610ee592840190614355565b50817fd2d827dddfc9c9a02afc5fc68d3251684b36e213a7999ebd90a861f25df4077e82604051610f169190614f80565b60405180910390a25050565b33610f356008546001600160a01b031690565b6001600160a01b03161480610f545750600b546001600160a01b031633145b610f705760405162461bcd60e51b815260040161074490614f93565b60005b82518110156109dd57610fae84848381518110610fa057634e487b7160e01b600052603260045260246000fd5b602002602001015184612a50565b80610fb881615221565b915050610f73565b610fca3382612a83565b6110165760405162461bcd60e51b815260206004820152601d60248201527f53484f59553a204e4f545f415050524f5645445f4e4f525f4f574e45520000006044820152606401610744565b610e97838383612b0d565b60145460009081908190600160a81b900460ff90811614611064576014546103e89061105790600160a81b900460ff1686615173565b611061919061515f565b90505b60145461010090046001600160a01b03169590945092505050565b6000611089612c8f565b905090565b610e9783838360405180602001604052806000815250611a0c565b60105460009060ff161515600114156110d45760405162461bcd60e51b815260040161074490614ff4565b6010805460ff191660011790556110f8866110ee8161202f565b3388888888612d3b565b6010805460ff191690559695505050505050565b6008546001600160a01b031633146111365760405162461bcd60e51b815260040161074490614f93565b805161114990600c906020840190614355565b507f23c8c9488efebfd474e85a7956de6f39b17c7ab88502d42a623db2d8e382bbaa816040516111799190614f80565b60405180910390a150565b6008546001600160a01b031633146111ae5760405162461bcd60e51b815260040161074490614f93565b6111b7816131e3565b50565b6000908152600460205260409020546001600160a01b031690565b6008546001600160a01b031633146111ff5760405162461bcd60e51b815260040161074490614f93565b6111b7816132ed565b60006001600160a01b0382166112575760405162461bcd60e51b815260206004820152601460248201527329a427acaa9d1024a72b20a624a22fa7aba722a960611b6044820152606401610744565b506001600160a01b031660009081526005602052604090205490565b6008546001600160a01b0316331461129d5760405162461bcd60e51b815260040161074490614f93565b6008546040516000916001600160a01b0316907f8be0079c531659141344cd1fd0a4f28419497f9722a3daafe3b4186f6b6457e0908390a3600880546001600160a01b0319169055565b834211156113285760405162461bcd60e51b815260206004820152600e60248201526d14d213d6554e881156141254915160921b6044820152606401610744565b6000611333866111ba565b90506001600160a01b0381166113845760405162461bcd60e51b815260206004820152601660248201527514d213d6554e881253959053125117d513d2d153925160521b6044820152606401610744565b806001600160a01b0316876001600160a01b031614156113dd5760405162461bcd60e51b815260206004820152601460248201527353484f59553a204e4f545f4e454345535341525960601b6044820152606401610744565b6000868152600e6020526040812080547f49ecf333e5b8c95c40fdafc95c1ad136e8914a8fb55e9dc8bb01eaa83a2df9ad918a918a918561141d83615221565b909155506040805160208101959095526001600160a01b03909316928401929092526060830152608082015260a0810187905260c00160405160208183030381529060405280519060200120905061147b8183878787610af861107f565b61148588886129e2565b5050505050505050565b33611499846111ba565b6001600160a01b0316146114bf5760405162461bcd60e51b815260040161074490614f93565b6114c883613399565b81837fb76a0da8ff1f8c54a41e3017cf87c65fc8f03e38d23eb45d4e9a1a5d7635b4c0836040516114fb91815260200190565b60405180910390a3505050565b3361151b6008546001600160a01b031690565b6001600160a01b0316148061153a5750600b546001600160a01b031633145b6115565760405162461bcd60e51b815260040161074490614f93565b610e97838383612a50565b606060028054610834906151ec565b600061081d8261345a565b600054610100900460ff1680611594575060005460ff16155b6115b05760405162461bcd60e51b815260040161074490615055565b600054610100900460ff161580156115d2576000805461ffff19166101011790555b6115da613487565b6115e58686896108b7565b600b60009054906101000a90046001600160a01b03166001600160a01b03166317e1f82e6040518163ffffffff1660e01b815260040160206040518083038186803b15801561163357600080fd5b505afa158015611647573d6000803e3d6000fd5b505050506040513d601f19601f8201168201806040525081019061166b9190614dfd565b6014805460ff191660ff9290921691909117905560005b84518110156116ce576116bc888683815181106116af57634e487b7160e01b600052603260045260246000fd5b60200260200101516134fa565b806116c681615221565b915050611682565b506116d8836132ed565b6014805460ff60a81b191660ff60a81b17905560ff8216156116fd576116fd826131e3565b801561170f576000805461ff00191690555b50505050505050565b611723338383613514565b5050565b834211156117685760405162461bcd60e51b815260206004820152600e60248201526d14d213d6554e881156141254915160921b6044820152606401610744565b6001600160a01b0386166117b75760405162461bcd60e51b815260206004820152601660248201527553484f59553a20494e56414c49445f4144445245535360501b6044820152606401610744565b856001600160a01b0316856001600160a01b031614156118105760405162461bcd60e51b815260206004820152601460248201527353484f59553a204e4f545f4e454345535341525960601b6044820152606401610744565b6001600160a01b0386166000908152600f6020526040812080547fdaab21af31ece73a508939fedd476a5ee5129a5ed4bb091f3236ffb45394df6291899189918561185a83615221565b909155506040805160208101959095526001600160a01b039384169085015291166060830152608082015260a0810186905260c0016040516020818303038152906040528051906020012090506118b78188868686610af861107f565b61170f87876001613514565b600054610100900460ff16806118dc575060005460ff16155b6118f85760405162461bcd60e51b815260040161074490615055565b600054610100900460ff1615801561191a576000805461ffff19166101011790555b611922613487565b61192d8686896108b7565b600b60009054906101000a90046001600160a01b03166001600160a01b03166317e1f82e6040518163ffffffff1660e01b815260040160206040518083038186803b15801561197b57600080fd5b505afa15801561198f573d6000803e3d6000fd5b505050506040513d601f19601f820116820180604052508101906119b39190614dfd565b6014805460ff191660ff929092169190911790556119d0846135db565b6040518481527fbd3ebe8ad09ded9d19d849088ef41c06e6369d712810f47ad52751826c17ff949060200160405180910390a16116d8836132ed565b611a163383612a83565b611a325760405162461bcd60e51b815260040161074490614f93565b6109dd84848484613633565b6000818152600460205260409020546060906001600160a01b0316151580611a6a5750611a6a8261345a565b611a865760405162461bcd60e51b81526004016107449061501e565b6000828152600d602052604081208054611a9f906151ec565b80601f0160208091040260200160405190810160405280929190818152602001828054611acb906151ec565b8015611b185780601f10611aed57610100808354040283529160200191611b18565b820191906000526020600020905b815481529060010190602001808311611afb57829003601f168201915b50505050509050600081511115611b30579050610820565b6000600c8054611b3f906151ec565b80601f0160208091040260200160405190810160405280929190818152602001828054611b6b906151ec565b8015611bb85780601f10611b8d57610100808354040283529160200191611bb8565b820191906000526020600020905b815481529060010190602001808311611b9b57829003601f168201915b50505050509050600081511115611bfc5780611bd385613666565b604051602001611be4929190614e61565b60405160208183030381529060405292505050610820565b600b60009054906101000a90046001600160a01b03166001600160a01b0316633683a63d6040518163ffffffff1660e01b815260040160006040518083038186803b158015611c4a57600080fd5b505afa158015611c5e573d6000803e3d6000fd5b505050506040513d6000823e601f3d908101601f19168201604052611c869190810190614ae3565b90506000611c95306014613780565b90508181611ca287613666565b604051602001611cb493929190614ea0565b6040516020818303038152906040529350505050610820565b50919050565b33611ce66008546001600160a01b031690565b6001600160a01b03161480611d055750600b546001600160a01b031633145b611d215760405162461bcd60e51b815260040161074490614f93565b611d2a816135db565b6040518181527fbd3ebe8ad09ded9d19d849088ef41c06e6369d712810f47ad52751826c17ff9490602001611179565b60105460009060ff16151560011415611d855760405162461bcd60e51b815260040161074490614ff4565b6010805460ff191660011790556000611d9d8461202f565b83519091508114611de85760405162461bcd60e51b81526020600482015260156024820152740a6909eb2aa7440aa9c9a82a886908a88be9082a69605b1b6044820152606401610744565b60208301516001600160a01b0316611e3a5760405162461bcd60e51b815260206004820152601560248201527429a427acaa9d1024a72b20a624a22fa9a4a3a722a960591b6044820152606401610744565b611e63611e4684613961565b84602001518560c001518660e00151876101000151610af861107f565b611e86848285602001518660400151876060015188608001518960a00151612d3b565b6010805460ff19169055949350505050565b60005b8151811015611723576000828281518110611ec657634e487b7160e01b600052603260045260246000fd5b60200260200101519050336001600160a01b0316611ee3826111ba565b6001600160a01b031614611f095760405162461bcd60e51b815260040161074490614f93565b611f1281613399565b5080611f1d81615221565b915050611e9b565b6001600160a01b03918216600090815260076020908152604080832093909416825291909152205460ff1690565b6008546001600160a01b03163314611f7d5760405162461bcd60e51b815260040161074490614f93565b6001600160a01b038116611fd35760405162461bcd60e51b815260206004820152601860248201527f53484f59553a20494e56414c49445f4e45575f4f574e455200000000000000006044820152606401610744565b6008546040516001600160a01b038084169216907f8be0079c531659141344cd1fd0a4f28419497f9722a3daafe3b4186f6b6457e090600090a3600880546001600160a01b0319166001600160a01b0392909216919091179055565b80516020808301516040808501516060860151608087015160a088015160c089015160e08a01516101008b01518051908a0120965160009a6120f09a7f17fdf8831f8bd77353b30f42ba9bc64e7144545a42a890389f298feeb45dec889a9199919897969594939201998a526001600160a01b0398891660208b015296881660408a01526060890195909552608088019390935290851660a0870152841660c086015290921660e08401526101008301919091526101208201526101400190565b604051602081830303815290604052805190602001209050919050565b60006001600160e01b031982166380ac58cd60e01b148061213e57506001600160e01b03198216635b5e139f60e01b145b8061081d57506301ffc9a760e01b6001600160e01b031983161461081d565b600054610100900460ff1680612176575060005460ff16155b6121925760405162461bcd60e51b815260040161074490615055565b600054610100900460ff161580156121b4576000805461ffff19166101011790555b6121be83836139ec565b8015610e97576000805461ff0019169055505050565b600054610100900460ff16806121ed575060005460ff16155b6122095760405162461bcd60e51b815260040161074490615055565b600054610100900460ff1615801561222b576000805461ffff19166101011790555b61223482613a81565b8015611723576000805461ff00191690555050565b60608161227157506040805180820190915260048152630307830360e41b6020820152610820565b8160005b8115612294578061228581615221565b915050600882901c9150612275565b61229e8482613780565b949350505050565b60008181526012602052604090205460ff16156123055760405162461bcd60e51b815260206004820152601b60248201527f53484f59553a2043414e43454c4c45445f4f525f434c41494d454400000000006044820152606401610744565b81516001600160a01b03166123535760405162461bcd60e51b815260206004820152601460248201527329a427acaa9d1024a72b20a624a22fa6a0a5a2a960611b6044820152606401610744565b60208201516001600160a01b03166123a25760405162461bcd60e51b815260206004820152601260248201527114d213d6554e881253959053125117d3919560721b6044820152606401610744565b60008260600151116123ee5760405162461bcd60e51b815260206004820152601560248201527414d213d6554e881253959053125117d05353d55395605a1b6044820152606401610744565b60808201516001600160a01b03166124485760405162461bcd60e51b815260206004820152601760248201527f53484f59553a20494e56414c49445f53545241544547590000000000000000006044820152606401610744565b60a08201516001600160a01b03166124a25760405162461bcd60e51b815260206004820152601760248201527f53484f59553a20494e56414c49445f43555252454e43590000000000000000006044820152606401610744565b600b546001600160a01b03166080830151604051632666e89f60e21b81526001600160a01b03918216600482015291169063999ba27c9060240160206040518083038186803b1580156124f457600080fd5b505afa158015612508573d6000803e3d6000fd5b505050506040513d601f19601f8201168201806040525081019061252c9190614a45565b6117235760405162461bcd60e51b815260206004820152601f60248201527f53484f59553a2053545241544547595f4e4f545f57484954454c4953544544006044820152606401610744565b60405161190160f01b602082015260228101829052604281018790526000906062016040516020818303038152906040528051906020012090506125bc863b151590565b156126cc57604080516020810186905280820185905260f887901b6001600160f81b0319166060820152815160418183030181526061820192839052630b135d3f60e11b9092526001600160a01b03881691631626ba7e91612622918591606501614f67565b60206040518083038186803b15801561263a57600080fd5b505afa15801561264e573d6000803e3d6000fd5b505050506040513d601f19601f820116820180604052508101906126729190614a95565b6001600160e01b031916631626ba7e60e01b146126c75760405162461bcd60e51b815260206004820152601360248201527214d213d6554e8815539055551213d492569151606a1b6044820152606401610744565b61170f565b856001600160a01b03166126e282878787613b36565b6001600160a01b03161461170f5760405162461bcd60e51b815260206004820152601360248201527214d213d6554e8815539055551213d492569151606a1b6044820152606401610744565b600061273c85853085613cc9565b61274857506000612991565b600061275c600b546001600160a01b031690565b90506000839050600080836001600160a01b031663aec0b5436040518163ffffffff1660e01b8152600401604080518083038186803b15801561279e57600080fd5b505afa1580156127b2573d6000803e3d6000fd5b505050506040513d601f19601f820116820180604052508101906127d691906149e5565b909250905060006103e86127ed60ff841689615173565b6127f7919061515f565b905061280d6001600160a01b038b168483613d9b565b6128178185615192565b9350505050600080836001600160a01b031663c2b11e186040518163ffffffff1660e01b8152600401604080518083038186803b15801561285757600080fd5b505afa15801561286b573d6000803e3d6000fd5b505050506040513d601f19601f8201168201806040525081019061288f91906149e5565b909250905060006103e86128a660ff841689615173565b6128b0919061515f565b90506128c66001600160a01b038b168483613d9b565b6128d08185615192565b60405163152a902d60e11b8152600481018d9052602481018990529094506001600160a01b038d169350632a55205a92506044019050604080518083038186803b15801561291d57600080fd5b505afa92505050801561294d575060408051601f3d908101601f1916820190925261294a9181019061492b565b60015b61295657612976565b8015612973576129668184615192565b9250612973898383613ded565b50505b61298a6001600160a01b0388168683613d9b565b6001925050505b9695505050505050565b6008546001600160a01b0385811691161480156129bc57506129bc8261345a565b156129d0576129cb83836134fa565b6129db565b6129db848484612b0d565b5050505050565b600081815260066020526040902080546001600160a01b0319166001600160a01b0384169081179091558190612a17826111ba565b6001600160a01b03167f8c5be1e5ebec7d5bd14f71427d1e84f3dd0314c0f7b2291e5b200ac8c7c3b92560405160405180910390a45050565b612a5a8383613e7c565b612a676000848484613faa565b610e975760405162461bcd60e51b815260040161074490614fbd565b6000818152600460205260408120546001600160a01b0316612ab75760405162461bcd60e51b81526004016107449061501e565b6000612ac2836111ba565b9050806001600160a01b0316846001600160a01b03161480612afd5750836001600160a01b0316612af2846109e3565b6001600160a01b0316145b8061229e575061229e8185611f25565b826001600160a01b0316612b20826111ba565b6001600160a01b031614612b765760405162461bcd60e51b815260206004820152601960248201527f53484f59553a205452414e534645525f464f5242494444454e000000000000006044820152606401610744565b6001600160a01b038216612bcc5760405162461bcd60e51b815260206004820152601860248201527f53484f59553a20494e56414c49445f524543495049454e5400000000000000006044820152606401610744565b612bd76000826129e2565b6001600160a01b0383166000908152600560205260408120805460019290612c00908490615192565b90915550506001600160a01b0382166000908152600560205260408120805460019290612c2e908490615147565b909155505060008181526004602052604080822080546001600160a01b0319166001600160a01b0386811691821790925591518493918716917fddf252ad1be2c89b69c2b068fc378daa952ba7f163c4a11628f55a4df523b3ef91a4505050565b60008046600a541415612ca55750600954611089565b7f8b73c3c69bb8fe3d512ecc4cf759cc79239f7b179b0ffacaa9a75d522b39400f612ccf30612249565b80516020918201206040805192830193909352918101919091527fc89efdaa54c0f20c7adf612882df0950f5a951637e0307cdcb4c672f298b8bc660608201524660808201523060a082015260c001604051602081830303815290604052805190602001209050905090565b60208701516000906001600160a01b03163014612d945760405162461bcd60e51b815260206004820152601760248201527653484f59553a20494e56414c49445f45584348414e474560481b6044820152606401610744565b60008511612ddc5760405162461bcd60e51b815260206004820152601560248201527414d213d6554e881253959053125117d05353d55395605a1b6044820152606401610744565b6000878152601360205260409020546060890151612dfa8783615147565b1115612e3a5760405162461bcd60e51b815260206004820152600f60248201526e14d213d6554e8814d3d31117d3d555608a1b6044820152606401610744565b612e4489896122a6565b612e67888a600001518b61012001518c61014001518d6101600151610af861107f565b6000601160008a8152602001908152602001600020905089608001516001600160a01b031663651199518b60e001518c61010001518b8a8660000160009054906101000a90046001600160a01b0316876002015488600501546040518863ffffffff1660e01b8152600401612ee297969594939291906150a3565b60206040518083038186803b158015612efa57600080fd5b505afa158015612f0e573d6000803e3d6000fd5b505050506040513d601f19601f82011682018060405250810190612f329190614a45565b1561304a57612f418783615147565b60008a81526013602052604090205560c08a01516001600160a01b038116612f67575089515b612f878b602001518c604001518d60a001518c858d8d610c949190615173565b612fd35760405162461bcd60e51b815260206004820152601f60248201527f53484f59553a204641494c45445f544f5f5452414e534645525f46554e4453006044820152606401610744565b6001600160a01b038616612fe5578895505b612ffe8b602001518c60000151888e604001518c61299b565b897f0642c67a22e8657a7126bb3b9fb3f01965503642f884e4c6a1efd8ed24f46c0d8a8a8a8a8a604051613036959493929190614f35565b60405180910390a2600193505050506131d8565b89608001516001600160a01b0316635f11a72b8b60e001518c61010001518b8a8660000160009054906101000a90046001600160a01b0316876002015488600501546040518863ffffffff1660e01b81526004016130ae97969594939291906150a3565b60206040518083038186803b1580156130c657600080fd5b505afa1580156130da573d6000803e3d6000fd5b505050506040513d601f19601f820116820180604052508101906130fe9190614a45565b1561319f5780546001600160a01b03808a166001600160a01b031992831617835560018301899055600283018890556003830180548883169084161790556004830180549187169190921617905543600582015560405189907f4055f76fe1f351fec66b9ba790ddbdc29eb45c038163a6b1327277441a8c65f19061318c908b908b908b908b908b90614f35565b60405180910390a26000925050506131d8565b60405162461bcd60e51b815260206004820152600e60248201526d53484f59553a204641494c55524560901b6044820152606401610744565b979650505050505050565b601454600160a81b900460ff908116141561324b5760145460ff90811690821611156132465760405162461bcd60e51b815260206004820152601260248201527153484f59553a20494e56414c49445f46454560701b6044820152606401610744565b61329f565b60145460ff600160a81b90910481169082161061329f5760405162461bcd60e51b815260206004820152601260248201527153484f59553a20494e56414c49445f46454560701b6044820152606401610744565b6014805460ff60a81b1916600160a81b60ff8416908102919091179091556040519081527fd9ac3bc8ad92267d0b101786ddb4d37746ed1e3ee77637846294edf17dd9eb8a90602001611179565b6001600160a01b0381166133435760405162461bcd60e51b815260206004820152601c60248201527f53484f59553a20494e56414c49445f4645455f524543495049454e54000000006044820152606401610744565b60148054610100600160a81b0319166101006001600160a01b038416908102919091179091556040519081527f1ce5f25607cb1a4fa6c947b55700213a9ed6a1d7ef1cf1d02ab467efd02a993e90602001611179565b60006133a4826111ba565b90506001600160a01b0381166133cc5760405162461bcd60e51b81526004016107449061501e565b6133d76000836129e2565b6001600160a01b0381166000908152600560205260408120805460019290613400908490615192565b909155505060008281526004602052604080822080546001600160a01b0319169055518391906001600160a01b038416907fddf252ad1be2c89b69c2b068fc378daa952ba7f163c4a11628f55a4df523b3ef908390a45050565b600080613466836111ba565b90506001600160a01b038116158015613480575060035483105b9392505050565b600054610100900460ff16806134a0575060005460ff16155b6134bc5760405162461bcd60e51b815260040161074490615055565b600054610100900460ff161580156134de576000805461ffff19166101011790555b6134e66140b4565b80156111b7576000805461ff001916905550565b611723828260405180602001604052806000815250612a50565b826001600160a01b0316826001600160a01b031614156135765760405162461bcd60e51b815260206004820152601760248201527f53484f59553a20494e56414c49445f4f50455241544f520000000000000000006044820152606401610744565b6001600160a01b03838116600081815260076020908152604080832094871680845294825291829020805460ff191686151590811790915591519182527f17307eab39ab6107e8899845ad3d59bd9653f200f220920489ca2b5937696c3191016114fb565b60035480821161362d5760405162461bcd60e51b815260206004820152601a60248201527f53484f59553a20494e56414c49445f544f5f544f4b454e5f49440000000000006044820152606401610744565b50600355565b61363e848484612b0d565b61364a84848484613faa565b6109dd5760405162461bcd60e51b815260040161074490614fbd565b60608161368b57506040805180820190915260018152600360fc1b6020820152610820565b8160005b81156136b5578061369f81615221565b91506136ae9050600a8361515f565b915061368f565b6000816001600160401b038111156136dd57634e487b7160e01b600052604160045260246000fd5b6040519080825280601f01601f191660200182016040528015613707576020820181803683370190505b5090505b841561229e5761371c600183615192565b9150613729600a8661523c565b613734906030615147565b60f81b81838151811061375757634e487b7160e01b600052603260045260246000fd5b60200101906001600160f81b031916908160001a905350613779600a8661515f565b945061370b565b6060600061378f836002615173565b61379a906002615147565b6001600160401b038111156137bf57634e487b7160e01b600052604160045260246000fd5b6040519080825280601f01601f1916602001820160405280156137e9576020820181803683370190505b509050600360fc1b8160008151811061381257634e487b7160e01b600052603260045260246000fd5b60200101906001600160f81b031916908160001a905350600f60fb1b8160018151811061384f57634e487b7160e01b600052603260045260246000fd5b60200101906001600160f81b031916908160001a9053506000613873846002615173565b61387e906001615147565b90505b6001811115613912576f181899199a1a9b1b9c1cb0b131b232b360811b85600f16601081106138c057634e487b7160e01b600052603260045260246000fd5b1a60f81b8282815181106138e457634e487b7160e01b600052603260045260246000fd5b60200101906001600160f81b031916908160001a90535060049490941c9361390b816151d5565b9050613881565b5083156134805760405162461bcd60e51b815260206004820181905260248201527f537472696e67733a20686578206c656e67746820696e73756666696369656e746044820152606401610744565b80516020808301516040808501516060860151608087015160a088015193516000976120f0977fb98e1dc48988064e6dfb813618609d7da80a8841e5f277039788ac4b50d497b297919691959493920196875260208701959095526001600160a01b03938416604087015260608601929092526080850152811660a08401521660c082015260e00190565b600054610100900460ff1680613a05575060005460ff16155b613a215760405162461bcd60e51b815260040161074490615055565b600054610100900460ff16158015613a43576000805461ffff19166101011790555b8251613a56906001906020860190614355565b508151613a6a906002906020850190614355565b508015610e97576000805461ff0019169055505050565b600054610100900460ff1680613a9a575060005460ff16155b613ab65760405162461bcd60e51b815260040161074490615055565b600054610100900460ff16158015613ad8576000805461ffff19166101011790555b600880546001600160a01b0319166001600160a01b0384169081179091556040516000907f8be0079c531659141344cd1fd0a4f28419497f9722a3daafe3b4186f6b6457e0908290a38015611723576000805461ff00191690555050565b60007f7fffffffffffffffffffffffffffffff5d576e7357a4501ddfe92f46681b20a0821115613ba85760405162461bcd60e51b815260206004820181905260248201527f53484f59553a20494e56414c49445f5349474e41545552455f535f56414c55456044820152606401610744565b8360ff16601b1480613bbd57508360ff16601c145b613c095760405162461bcd60e51b815260206004820181905260248201527f53484f59553a20494e56414c49445f5349474e41545552455f565f56414c55456044820152606401610744565b6040805160008082526020820180845288905260ff871692820192909252606081018590526080810184905260019060a0016020604051602081039080840390855afa158015613c5d573d6000803e3d6000fd5b5050604051601f1901519150506001600160a01b038116613cc05760405162461bcd60e51b815260206004820152601860248201527f53484f59553a20494e56414c49445f5349474e415455524500000000000000006044820152606401610744565b95945050505050565b604080516001600160a01b0385811660248301528481166044830152606480830185905283518084039091018152608490920183526020820180516001600160e01b03166323b872dd60e01b17905291516000928392839291891691613d2f9190614e45565b6000604051808303816000865af19150503d8060008114613d6c576040519150601f19603f3d011682016040523d82523d6000602084013e613d71565b606091505b50915091508180156131d85750805115806131d85750808060200190518101906131d89190614a45565b604080516001600160a01b038416602482015260448082018490528251808303909101815260649091019091526020810180516001600160e01b031663a9059cbb60e01b179052610e97908490614113565b613e016001600160a01b0384168383613d9b565b813b15610e9757816001600160a01b031663fff6cae96040518163ffffffff1660e01b8152600401602060405180830381600087803b158015613e4357600080fd5b505af1925050508015613e73575060408051601f3d908101601f19168201909252613e7091810190614d39565b60015b6109dd57610e97565b6001600160a01b038216613ec65760405162461bcd60e51b815260206004820152601160248201527053484f59553a20494e56414c49445f544f60781b6044820152606401610744565b6000818152600460205260409020546001600160a01b031615613f235760405162461bcd60e51b815260206004820152601560248201527414d213d6554e881053149150511657d35253951151605a1b6044820152606401610744565b6001600160a01b0382166000908152600560205260408120805460019290613f4c908490615147565b909155505060008181526004602052604080822080546001600160a01b0319166001600160a01b03861690811790915590518392907fddf252ad1be2c89b69c2b068fc378daa952ba7f163c4a11628f55a4df523b3ef908290a45050565b60006001600160a01b0384163b156140ac57604051630a85bd0160e11b81526001600160a01b0385169063150b7a0290613fee903390899088908890600401614f02565b602060405180830381600087803b15801561400857600080fd5b505af1925050508015614038575060408051601f3d908101601f1916820190925261403591810190614a95565b60015b614092573d808015614066576040519150601f19603f3d011682016040523d82523d6000602084013e61406b565b606091505b50805161408a5760405162461bcd60e51b815260040161074490614fbd565b805181602001fd5b6001600160e01b031916630a85bd0160e11b14905061229e565b50600161229e565b600054610100900460ff16806140cd575060005460ff16155b6140e95760405162461bcd60e51b815260040161074490615055565b600054610100900460ff1615801561410b576000805461ffff19166101011790555b6134e66141e5565b6000614168826040518060400160405280602081526020017f5361666545524332303a206c6f772d6c6576656c2063616c6c206661696c6564815250856001600160a01b031661425a9092919063ffffffff16565b805190915015610e9757808060200190518101906141869190614a45565b610e975760405162461bcd60e51b815260206004820152602a60248201527f5361666545524332303a204552433230206f7065726174696f6e20646964206e6044820152691bdd081cdd58d8d9595960b21b6064820152608401610744565b600054610100900460ff16806141fe575060005460ff16155b61421a5760405162461bcd60e51b815260040161074490615055565b600054610100900460ff1615801561423c576000805461ffff19166101011790555b6010805460ff1916905580156111b7576000805461ff001916905550565b606061229e848460008585843b6142b35760405162461bcd60e51b815260206004820152601d60248201527f416464726573733a2063616c6c20746f206e6f6e2d636f6e74726163740000006044820152606401610744565b600080866001600160a01b031685876040516142cf9190614e45565b60006040518083038185875af1925050503d806000811461430c576040519150601f19603f3d011682016040523d82523d6000602084013e614311565b606091505b50915091506131d88282866060831561432b575081613480565b82511561433b5782518084602001fd5b8160405162461bcd60e51b81526004016107449190614f80565b828054614361906151ec565b90600052602060002090601f01602090048101928261438357600085556143c9565b82601f1061439c57805160ff19168380011785556143c9565b828001600101855582156143c9579182015b828111156143c95782518255916020019190600101906143ae565b506143d59291506143d9565b5090565b5b808211156143d557600081556001016143da565b803561082081615292565b600082601f830112614409578081fd5b813560206001600160401b038211156144245761442461527c565b8160051b6144338282016150f0565b83815282810190868401838801850189101561444d578687fd5b8693505b8584101561446f578035835260019390930192918401918401614451565b50979650505050505050565b600082601f83011261448b578081fd5b813561449e61449982615120565b6150f0565b8181528460208386010111156144b2578283fd5b816020850160208301379081016020019190915292915050565b60006101808083850312156144df578182fd5b6144e8816150f0565b9150506144f4826143ee565b8152614502602083016143ee565b60208201526040820135604082015260608201356060820152614527608083016143ee565b608082015261453860a083016143ee565b60a082015261454960c083016143ee565b60c082015260e082013560e0820152610100808301356001600160401b0381111561457357600080fd5b61457f8582860161447b565b8284015250506101206145938184016145b5565b9082015261014082810135908201526101609182013591810191909152919050565b8035610820816152cb565b6000602082840312156145d1578081fd5b813561348081615292565b600080604083850312156145ee578081fd5b82356145f981615292565b9150602083013561460981615292565b809150509250929050565b600080600060608486031215614628578081fd5b833561463381615292565b9250602084013561464381615292565b929592945050506040919091013590565b60008060008060808587031215614669578182fd5b843561467481615292565b9350602085013561468481615292565b92506040850135915060608501356001600160401b038111156146a5578182fd5b6146b18782880161447b565b91505092959194509250565b60008060008060008060c087890312156146d5578384fd5b86356146e081615292565b955060208701356146f081615292565b9450604087013593506060870135614707816152cb565b9598949750929560808101359460a0909101359350915050565b600080600060608486031215614735578081fd5b833561474081615292565b925060208401356001600160401b038082111561475b578283fd5b614767878388016143f9565b9350604086013591508082111561477c578283fd5b506147898682870161447b565b9150509250925092565b600080604083850312156147a5578182fd5b82356147b081615292565b91506020830135614609816152a7565b60008060008060008060c087890312156147d8578384fd5b86356147e381615292565b955060208701356001600160401b03808211156147fe578586fd5b61480a8a838b0161447b565b9650604089013591508082111561481f578586fd5b61482b8a838b0161447b565b95506060890135915080821115614840578384fd5b5061484d89828a016143f9565b935050608087013561485e81615292565b915060a087013561486e816152cb565b809150509295509295509295565b60008060008060008060c08789031215614894578384fd5b863561489f81615292565b955060208701356001600160401b03808211156148ba578586fd5b6148c68a838b0161447b565b965060408901359150808211156148db578586fd5b506148e889828a0161447b565b94505060608701359250608087013561485e81615292565b60008060408385031215614912578182fd5b823561491d81615292565b946020939093013593505050565b6000806040838503121561493d578182fd5b825161494881615292565b6020939093015192949293505050565b60008060006060848603121561496c578081fd5b833561497781615292565b92506020840135915060408401356001600160401b03811115614998578182fd5b6147898682870161447b565b60008060008060008060c087890312156149bc578384fd5b86356149c781615292565b955060208701359450604087013593506060870135614707816152cb565b600080604083850312156149f7578182fd5b8251614a0281615292565b6020840151909250614609816152cb565b600060208284031215614a24578081fd5b81356001600160401b03811115614a39578182fd5b61229e848285016143f9565b600060208284031215614a56578081fd5b8151613480816152a7565b600060208284031215614a72578081fd5b5035919050565b600060208284031215614a8a578081fd5b8135613480816152b5565b600060208284031215614aa6578081fd5b8151613480816152b5565b600060208284031215614ac2578081fd5b81356001600160401b03811115614ad7578182fd5b61229e8482850161447b565b600060208284031215614af4578081fd5b81516001600160401b03811115614b09578182fd5b8201601f81018413614b19578182fd5b8051614b2761449982615120565b818152856020838501011115614b3b578384fd5b613cc08260208301602086016151a9565b600080600060608486031215614b60578081fd5b83356001600160401b0380821115614b76578283fd5b614b828783880161447b565b94506020860135915080821115614b97578283fd5b50614ba48682870161447b565b9250506040840135614bb581615292565b809150509250925092565b600060208284031215614bd1578081fd5b81356001600160401b03811115614be6578182fd5b61229e848285016144cc565b600080828403610140811215614c06578283fd5b83356001600160401b03811115614c1b578384fd5b614c27868287016144cc565b93505061012080601f1983011215614c3d578283fd5b614c46816150f0565b915060208501358252614c5b604086016143ee565b60208301526060850135604083015260808501356060830152614c8060a086016143ee565b6080830152614c9160c086016143ee565b60a0830152614ca260e086016145b5565b60c08301526101008581013560e0840152940135938101939093525092909150565b600080600080600060a08688031215614cdb578283fd5b85356001600160401b03811115614cf0578384fd5b614cfc888289016144cc565b95505060208601359350604086013592506060860135614d1b81615292565b91506080860135614d2b81615292565b809150509295509295909350565b600060208284031215614d4a578081fd5b5051919050565b60008060408385031215614d63578182fd5b8235915060208301356001600160401b03811115614d7f578182fd5b614d8b8582860161447b565b9150509250929050565b60008060408385031215614da7578182fd5b50508035926020909101359150565b600080600060608486031215614dca578081fd5b505081359360208301359350604090920135919050565b600060208284031215614df2578081fd5b8135613480816152cb565b600060208284031215614e0e578081fd5b8151613480816152cb565b60008151808452614e318160208601602086016151a9565b601f01601f19169290920160200192915050565b60008251614e578184602087016151a9565b9190910192915050565b60008351614e738184602088016151a9565b835190830190614e878183602088016151a9565b64173539b7b760d91b9101908152600501949350505050565b60008451614eb28184602089016151a9565b845190830190614ec68183602089016151a9565b602f60f81b91019081528351614ee38160018401602088016151a9565b64173539b7b760d91b6001929091019182015260060195945050505050565b6001600160a01b038581168252841660208201526040810183905260806060820181905260009061299190830184614e19565b6001600160a01b0395861681526020810194909452604084019290925283166060830152909116608082015260a00190565b60008382526040602083015261229e6040830184614e19565b6000602082526134806020830184614e19565b60208082526010908201526f29a427acaa9d102327a92124a22222a760811b604082015260600190565b60208082526017908201527f53484f59553a20494e56414c49445f5245434549564552000000000000000000604082015260600190565b60208082526010908201526f14d213d6554e8814915153951490539560821b604082015260600190565b60208082526017908201527f53484f59553a20494e56414c49445f544f4b454e5f4944000000000000000000604082015260600190565b6020808252602e908201527f496e697469616c697a61626c653a20636f6e747261637420697320616c72656160408201526d191e481a5b9a5d1a585b1a5e995960921b606082015260800190565b600088825260e060208301526150bc60e0830189614e19565b6001600160a01b03978816604084015260608301969096525092909416608083015260a082015260c0019190915292915050565b604051601f8201601f191681016001600160401b03811182821017156151185761511861527c565b604052919050565b60006001600160401b038211156151395761513961527c565b50601f01601f191660200190565b6000821982111561515a5761515a615250565b500190565b60008261516e5761516e615266565b500490565b600081600019048311821515161561518d5761518d615250565b500290565b6000828210156151a4576151a4615250565b500390565b60005b838110156151c45781810151838201526020016151ac565b838111156109dd5750506000910152565b6000816151e4576151e4615250565b506000190190565b600181811c9082168061520057607f821691505b60208210811415611ccd57634e487b7160e01b600052602260045260246000fd5b600060001982141561523557615235615250565b5060010190565b60008261524b5761524b615266565b500690565b634e487b7160e01b600052601160045260246000fd5b634e487b7160e01b600052601260045260246000fd5b634e487b7160e01b600052604160045260246000fd5b6001600160a01b03811681146111b757600080fd5b80151581146111b757600080fd5b6001600160e01b0319811681146111b757600080fd5b60ff811681146111b757600080fdfea264697066735822122042b5d4ffe2b1fbde8ca9dfb9f60dd224ca47de88fc1c9b601bee7b920c65f69064736f6c63430008030033",
  "devdoc": {
    "kind": "dev",
    "methods": {
      "approve(address,uint256)": {
        "details": "See {IERC721-approve}."
      },
      "balanceOf(address)": {
        "details": "See {IERC721-balanceOf}."
      },
      "getApproved(uint256)": {
        "details": "See {IERC721-getApproved}."
      },
      "isApprovedForAll(address,address)": {
        "details": "See {IERC721-isApprovedForAll}."
      },
      "name()": {
        "details": "See {IERC721Metadata-name}."
      },
      "owner()": {
        "details": "Returns the address of the current owner."
      },
      "ownerOf(uint256)": {
        "details": "See {IERC721-ownerOf}."
      },
      "renounceOwnership()": {
        "details": "Leaves the contract without owner. It will not be possible to call `onlyOwner` functions anymore. Can only be called by the current owner. NOTE: Renouncing ownership will leave the contract without an owner, thereby removing any functionality that is only available to the owner."
      },
      "safeTransferFrom(address,address,uint256)": {
        "details": "See {IERC721-safeTransferFrom}."
      },
      "safeTransferFrom(address,address,uint256,bytes)": {
        "details": "See {IERC721-safeTransferFrom}."
      },
      "setApprovalForAll(address,bool)": {
        "details": "See {IERC721-setApprovalForAll}."
      },
      "symbol()": {
        "details": "See {IERC721Metadata-symbol}."
      },
      "transferFrom(address,address,uint256)": {
        "details": "See {IERC721-transferFrom}."
      },
      "transferOwnership(address)": {
        "details": "Transfers ownership of the contract to a new account (`newOwner`). Can only be called by the current owner."
      }
    },
    "version": 1
  },
  "userdoc": {
    "kind": "user",
    "methods": {},
    "version": 1
  },
  "storageLayout": {
    "storage": [
      {
        "astId": 115,
        "contract": "contracts/NFT721V0.sol:NFT721V0",
        "label": "_initialized",
        "offset": 0,
        "slot": "0",
        "type": "t_bool"
      },
      {
        "astId": 118,
        "contract": "contracts/NFT721V0.sol:NFT721V0",
        "label": "_initializing",
        "offset": 1,
        "slot": "0",
        "type": "t_bool"
      },
      {
        "astId": 11277,
        "contract": "contracts/NFT721V0.sol:NFT721V0",
        "label": "_name",
        "offset": 0,
        "slot": "1",
        "type": "t_string_storage"
      },
      {
        "astId": 11279,
        "contract": "contracts/NFT721V0.sol:NFT721V0",
        "label": "_symbol",
        "offset": 0,
        "slot": "2",
        "type": "t_string_storage"
      },
      {
        "astId": 11281,
        "contract": "contracts/NFT721V0.sol:NFT721V0",
        "label": "_toTokenIdParked",
        "offset": 0,
        "slot": "3",
        "type": "t_uint256"
      },
      {
        "astId": 11285,
        "contract": "contracts/NFT721V0.sol:NFT721V0",
        "label": "_owners",
        "offset": 0,
        "slot": "4",
        "type": "t_mapping(t_uint256,t_address)"
      },
      {
        "astId": 11289,
        "contract": "contracts/NFT721V0.sol:NFT721V0",
        "label": "_balances",
        "offset": 0,
        "slot": "5",
        "type": "t_mapping(t_address,t_uint256)"
      },
      {
        "astId": 11293,
        "contract": "contracts/NFT721V0.sol:NFT721V0",
        "label": "_tokenApprovals",
        "offset": 0,
        "slot": "6",
        "type": "t_mapping(t_uint256,t_address)"
      },
      {
        "astId": 11299,
        "contract": "contracts/NFT721V0.sol:NFT721V0",
        "label": "_operatorApprovals",
        "offset": 0,
        "slot": "7",
        "type": "t_mapping(t_address,t_mapping(t_address,t_bool))"
      },
      {
        "astId": 12156,
        "contract": "contracts/NFT721V0.sol:NFT721V0",
        "label": "_owner",
        "offset": 0,
        "slot": "8",
        "type": "t_address"
      },
      {
        "astId": 8649,
        "contract": "contracts/NFT721V0.sol:NFT721V0",
        "label": "_DOMAIN_SEPARATOR",
        "offset": 0,
        "slot": "9",
        "type": "t_bytes32"
      },
      {
        "astId": 8651,
        "contract": "contracts/NFT721V0.sol:NFT721V0",
        "label": "_CACHED_CHAIN_ID",
        "offset": 0,
        "slot": "10",
        "type": "t_uint256"
      },
      {
        "astId": 8653,
        "contract": "contracts/NFT721V0.sol:NFT721V0",
        "label": "_factory",
        "offset": 0,
        "slot": "11",
        "type": "t_address"
      },
      {
        "astId": 8655,
        "contract": "contracts/NFT721V0.sol:NFT721V0",
        "label": "__baseURI",
        "offset": 0,
        "slot": "12",
        "type": "t_string_storage"
      },
      {
        "astId": 8659,
        "contract": "contracts/NFT721V0.sol:NFT721V0",
        "label": "_uris",
        "offset": 0,
        "slot": "13",
        "type": "t_mapping(t_uint256,t_string_storage)"
      },
      {
        "astId": 8664,
        "contract": "contracts/NFT721V0.sol:NFT721V0",
        "label": "nonces",
        "offset": 0,
        "slot": "14",
        "type": "t_mapping(t_uint256,t_uint256)"
      },
      {
        "astId": 8669,
        "contract": "contracts/NFT721V0.sol:NFT721V0",
        "label": "noncesForAll",
        "offset": 0,
        "slot": "15",
        "type": "t_mapping(t_address,t_uint256)"
      },
      {
        "astId": 12336,
        "contract": "contracts/NFT721V0.sol:NFT721V0",
        "label": "_status",
        "offset": 0,
        "slot": "16",
        "type": "t_bool"
      },
      {
        "astId": 7196,
        "contract": "contracts/NFT721V0.sol:NFT721V0",
        "label": "bestBid",
        "offset": 0,
        "slot": "17",
        "type": "t_mapping(t_bytes32,t_struct(BestBid)7190_storage)"
      },
      {
        "astId": 7201,
        "contract": "contracts/NFT721V0.sol:NFT721V0",
        "label": "isCancelledOrClaimed",
        "offset": 0,
        "slot": "18",
        "type": "t_mapping(t_bytes32,t_bool)"
      },
      {
        "astId": 7206,
        "contract": "contracts/NFT721V0.sol:NFT721V0",
        "label": "amountFilled",
        "offset": 0,
        "slot": "19",
        "type": "t_mapping(t_bytes32,t_uint256)"
      },
      {
        "astId": 4899,
        "contract": "contracts/NFT721V0.sol:NFT721V0",
        "label": "_MAX_ROYALTY_FEE",
        "offset": 0,
        "slot": "20",
        "type": "t_uint8"
      },
      {
        "astId": 4901,
        "contract": "contracts/NFT721V0.sol:NFT721V0",
        "label": "_royaltyFeeRecipient",
        "offset": 1,
        "slot": "20",
        "type": "t_address"
      },
      {
        "astId": 4903,
        "contract": "contracts/NFT721V0.sol:NFT721V0",
        "label": "_royaltyFee",
        "offset": 21,
        "slot": "20",
        "type": "t_uint8"
      }
    ],
    "types": {
      "t_address": {
        "encoding": "inplace",
        "label": "address",
        "numberOfBytes": "20"
      },
      "t_bool": {
        "encoding": "inplace",
        "label": "bool",
        "numberOfBytes": "1"
      },
      "t_bytes32": {
        "encoding": "inplace",
        "label": "bytes32",
        "numberOfBytes": "32"
      },
      "t_mapping(t_address,t_bool)": {
        "encoding": "mapping",
        "key": "t_address",
        "label": "mapping(address => bool)",
        "numberOfBytes": "32",
        "value": "t_bool"
      },
      "t_mapping(t_address,t_mapping(t_address,t_bool))": {
        "encoding": "mapping",
        "key": "t_address",
        "label": "mapping(address => mapping(address => bool))",
        "numberOfBytes": "32",
        "value": "t_mapping(t_address,t_bool)"
      },
      "t_mapping(t_address,t_uint256)": {
        "encoding": "mapping",
        "key": "t_address",
        "label": "mapping(address => uint256)",
        "numberOfBytes": "32",
        "value": "t_uint256"
      },
      "t_mapping(t_bytes32,t_bool)": {
        "encoding": "mapping",
        "key": "t_bytes32",
        "label": "mapping(bytes32 => bool)",
        "numberOfBytes": "32",
        "value": "t_bool"
      },
      "t_mapping(t_bytes32,t_struct(BestBid)7190_storage)": {
        "encoding": "mapping",
        "key": "t_bytes32",
        "label": "mapping(bytes32 => struct BaseExchange.BestBid)",
        "numberOfBytes": "32",
        "value": "t_struct(BestBid)7190_storage"
      },
      "t_mapping(t_bytes32,t_uint256)": {
        "encoding": "mapping",
        "key": "t_bytes32",
        "label": "mapping(bytes32 => uint256)",
        "numberOfBytes": "32",
        "value": "t_uint256"
      },
      "t_mapping(t_uint256,t_address)": {
        "encoding": "mapping",
        "key": "t_uint256",
        "label": "mapping(uint256 => address)",
        "numberOfBytes": "32",
        "value": "t_address"
      },
      "t_mapping(t_uint256,t_string_storage)": {
        "encoding": "mapping",
        "key": "t_uint256",
        "label": "mapping(uint256 => string)",
        "numberOfBytes": "32",
        "value": "t_string_storage"
      },
      "t_mapping(t_uint256,t_uint256)": {
        "encoding": "mapping",
        "key": "t_uint256",
        "label": "mapping(uint256 => uint256)",
        "numberOfBytes": "32",
        "value": "t_uint256"
      },
      "t_string_storage": {
        "encoding": "bytes",
        "label": "string",
        "numberOfBytes": "32"
      },
      "t_struct(BestBid)7190_storage": {
        "encoding": "inplace",
        "label": "struct BaseExchange.BestBid",
        "members": [
          {
            "astId": 7179,
            "contract": "contracts/NFT721V0.sol:NFT721V0",
            "label": "bidder",
            "offset": 0,
            "slot": "0",
            "type": "t_address"
          },
          {
            "astId": 7181,
            "contract": "contracts/NFT721V0.sol:NFT721V0",
            "label": "amount",
            "offset": 0,
            "slot": "1",
            "type": "t_uint256"
          },
          {
            "astId": 7183,
            "contract": "contracts/NFT721V0.sol:NFT721V0",
            "label": "price",
            "offset": 0,
            "slot": "2",
            "type": "t_uint256"
          },
          {
            "astId": 7185,
            "contract": "contracts/NFT721V0.sol:NFT721V0",
            "label": "recipient",
            "offset": 0,
            "slot": "3",
            "type": "t_address"
          },
          {
            "astId": 7187,
            "contract": "contracts/NFT721V0.sol:NFT721V0",
            "label": "referrer",
            "offset": 0,
            "slot": "4",
            "type": "t_address"
          },
          {
            "astId": 7189,
            "contract": "contracts/NFT721V0.sol:NFT721V0",
            "label": "blockNumber",
            "offset": 0,
            "slot": "5",
            "type": "t_uint256"
          }
        ],
        "numberOfBytes": "192"
      },
      "t_uint256": {
        "encoding": "inplace",
        "label": "uint256",
        "numberOfBytes": "32"
      },
      "t_uint8": {
        "encoding": "inplace",
        "label": "uint8",
        "numberOfBytes": "1"
      }
    }
  }
}