{
  "address": "0xEAaE42B4200bf840313E9287871F9b7C3f8F5780",
  "abi": [
    {
      "anonymous": false,
      "inputs": [
        {
          "indexed": true,
          "internalType": "address",
          "name": "owner",
          "type": "address"
        },
        {
          "indexed": true,
          "internalType": "address",
          "name": "approved",
          "type": "address"
        },
        {
          "indexed": true,
          "internalType": "uint256",
          "name": "tokenId",
          "type": "uint256"
        }
      ],
      "name": "Approval",
      "type": "event"
    },
    {
      "anonymous": false,
      "inputs": [
        {
          "indexed": true,
          "internalType": "address",
          "name": "owner",
          "type": "address"
        },
        {
          "indexed": true,
          "internalType": "address",
          "name": "operator",
          "type": "address"
        },
        {
          "indexed": false,
          "internalType": "bool",
          "name": "approved",
          "type": "bool"
        }
      ],
      "name": "ApprovalForAll",
      "type": "event"
    },
    {
      "anonymous": false,
      "inputs": [
        {
          "indexed": true,
          "internalType": "bytes32",
          "name": "hash",
          "type": "bytes32"
        },
        {
          "indexed": false,
          "internalType": "address",
          "name": "bidder",
          "type": "address"
        },
        {
          "indexed": false,
          "internalType": "uint256",
          "name": "amount",
          "type": "uint256"
        },
        {
          "indexed": false,
          "internalType": "uint256",
          "name": "price",
          "type": "uint256"
        },
        {
          "indexed": false,
          "internalType": "address",
          "name": "recipient",
          "type": "address"
        },
        {
          "indexed": false,
          "internalType": "address",
          "name": "referrer",
          "type": "address"
        }
      ],
      "name": "Bid",
      "type": "event"
    },
    {
      "anonymous": false,
      "inputs": [
        {
          "indexed": true,
          "internalType": "uint256",
          "name": "tokenId",
          "type": "uint256"
        },
        {
          "indexed": true,
          "internalType": "uint256",
          "name": "label",
          "type": "uint256"
        },
        {
          "indexed": false,
          "internalType": "bytes32",
          "name": "data",
          "type": "bytes32"
        }
      ],
      "name": "Burn",
      "type": "event"
    },
    {
      "anonymous": false,
      "inputs": [
        {
          "indexed": true,
          "internalType": "bytes32",
          "name": "hash",
          "type": "bytes32"
        }
      ],
      "name": "Cancel",
      "type": "event"
    },
    {
      "anonymous": false,
      "inputs": [
        {
          "indexed": true,
          "internalType": "bytes32",
          "name": "hash",
          "type": "bytes32"
        },
        {
          "indexed": false,
          "internalType": "address",
          "name": "bidder",
          "type": "address"
        },
        {
          "indexed": false,
          "internalType": "uint256",
          "name": "amount",
          "type": "uint256"
        },
        {
          "indexed": false,
          "internalType": "uint256",
          "name": "price",
          "type": "uint256"
        },
        {
          "indexed": false,
          "internalType": "address",
          "name": "recipient",
          "type": "address"
        },
        {
          "indexed": false,
          "internalType": "address",
          "name": "referrer",
          "type": "address"
        }
      ],
      "name": "Claim",
      "type": "event"
    },
    {
      "anonymous": false,
      "inputs": [
        {
          "indexed": true,
          "internalType": "address",
          "name": "previousOwner",
          "type": "address"
        },
        {
          "indexed": true,
          "internalType": "address",
          "name": "newOwner",
          "type": "address"
        }
      ],
      "name": "OwnershipTransferred",
      "type": "event"
    },
    {
      "anonymous": false,
      "inputs": [
        {
          "indexed": false,
          "internalType": "uint256",
          "name": "toTokenId",
          "type": "uint256"
        }
      ],
      "name": "ParkTokenIds",
      "type": "event"
    },
    {
      "anonymous": false,
      "inputs": [
        {
          "indexed": false,
          "internalType": "string",
          "name": "uri",
          "type": "string"
        }
      ],
      "name": "SetBaseURI",
      "type": "event"
    },
    {
      "anonymous": false,
      "inputs": [
        {
          "indexed": false,
          "internalType": "bool",
          "name": "locked",
          "type": "bool"
        }
      ],
      "name": "SetLocked",
      "type": "event"
    },
    {
      "anonymous": false,
      "inputs": [
        {
          "indexed": false,
          "internalType": "uint8",
          "name": "fee",
          "type": "uint8"
        }
      ],
      "name": "SetRoyaltyFee",
      "type": "event"
    },
    {
      "anonymous": false,
      "inputs": [
        {
          "indexed": false,
          "internalType": "address",
          "name": "recipient",
          "type": "address"
        }
      ],
      "name": "SetRoyaltyFeeRecipient",
      "type": "event"
    },
    {
      "anonymous": false,
      "inputs": [
        {
          "indexed": true,
          "internalType": "uint256",
          "name": "tokenId",
          "type": "uint256"
        },
        {
          "indexed": false,
          "internalType": "string",
          "name": "uri",
          "type": "string"
        }
      ],
      "name": "SetTokenURI",
      "type": "event"
    },
    {
      "anonymous": false,
      "inputs": [
        {
          "indexed": true,
          "internalType": "address",
          "name": "from",
          "type": "address"
        },
        {
          "indexed": true,
          "internalType": "address",
          "name": "to",
          "type": "address"
        },
        {
          "indexed": true,
          "internalType": "uint256",
          "name": "tokenId",
          "type": "uint256"
        }
      ],
      "name": "Transfer",
      "type": "event"
    },
    {
      "anonymous": false,
      "inputs": [
        {
          "indexed": true,
          "internalType": "address",
          "name": "proxy",
          "type": "address"
        },
        {
          "indexed": true,
          "internalType": "bytes32",
          "name": "askHash",
          "type": "bytes32"
        },
        {
          "indexed": true,
          "internalType": "address",
          "name": "bidder",
          "type": "address"
        },
        {
          "indexed": false,
          "internalType": "bytes32",
          "name": "bidHash",
          "type": "bytes32"
        }
      ],
      "name": "UpdateApprovedBidHash",
      "type": "event"
    },
    {
      "inputs": [],
      "name": "DOMAIN_SEPARATOR",
      "outputs": [
        {
          "internalType": "bytes32",
          "name": "",
          "type": "bytes32"
        }
      ],
      "stateMutability": "view",
      "type": "function"
    },
    {
      "inputs": [],
      "name": "PERMIT_ALL_TYPEHASH",
      "outputs": [
        {
          "internalType": "bytes32",
          "name": "",
          "type": "bytes32"
        }
      ],
      "stateMutability": "view",
      "type": "function"
    },
    {
      "inputs": [],
      "name": "PERMIT_TYPEHASH",
      "outputs": [
        {
          "internalType": "bytes32",
          "name": "",
          "type": "bytes32"
        }
      ],
      "stateMutability": "view",
      "type": "function"
    },
    {
      "inputs": [
        {
          "internalType": "bytes32",
          "name": "",
          "type": "bytes32"
        }
      ],
      "name": "amountFilled",
      "outputs": [
        {
          "internalType": "uint256",
          "name": "",
          "type": "uint256"
        }
      ],
      "stateMutability": "view",
      "type": "function"
    },
    {
      "inputs": [
        {
          "internalType": "address",
          "name": "to",
          "type": "address"
        },
        {
          "internalType": "uint256",
          "name": "tokenId",
          "type": "uint256"
        }
      ],
      "name": "approve",
      "outputs": [],
      "stateMutability": "nonpayable",
      "type": "function"
    },
    {
      "inputs": [
        {
          "internalType": "address",
          "name": "proxy",
          "type": "address"
        },
        {
          "internalType": "bytes32",
          "name": "askHash",
          "type": "bytes32"
        },
        {
          "internalType": "address",
          "name": "bidder",
          "type": "address"
        }
      ],
      "name": "approvedBidHash",
      "outputs": [
        {
          "internalType": "bytes32",
          "name": "bidHash",
          "type": "bytes32"
        }
      ],
      "stateMutability": "view",
      "type": "function"
    },
    {
      "inputs": [
        {
          "internalType": "address",
          "name": "owner",
          "type": "address"
        }
      ],
      "name": "balanceOf",
      "outputs": [
        {
          "internalType": "uint256",
          "name": "",
          "type": "uint256"
        }
      ],
      "stateMutability": "view",
      "type": "function"
    },
    {
      "inputs": [
        {
          "internalType": "bytes32",
          "name": "",
          "type": "bytes32"
        }
      ],
      "name": "bestBid",
      "outputs": [
        {
          "internalType": "address",
          "name": "bidder",
          "type": "address"
        },
        {
          "internalType": "uint256",
          "name": "amount",
          "type": "uint256"
        },
        {
          "internalType": "uint256",
          "name": "price",
          "type": "uint256"
        },
        {
          "internalType": "address",
          "name": "recipient",
          "type": "address"
        },
        {
          "internalType": "address",
          "name": "referrer",
          "type": "address"
        },
        {
          "internalType": "uint256",
          "name": "timestamp",
          "type": "uint256"
        }
      ],
      "stateMutability": "view",
      "type": "function"
    },
    {
      "inputs": [
        {
          "components": [
            {
              "internalType": "address",
              "name": "signer",
              "type": "address"
            },
            {
              "internalType": "address",
              "name": "proxy",
              "type": "address"
            },
            {
              "internalType": "address",
              "name": "token",
              "type": "address"
            },
            {
              "internalType": "uint256",
              "name": "tokenId",
              "type": "uint256"
            },
            {
              "internalType": "uint256",
              "name": "amount",
              "type": "uint256"
            },
            {
              "internalType": "address",
              "name": "strategy",
              "type": "address"
            },
            {
              "internalType": "address",
              "name": "currency",
              "type": "address"
            },
            {
              "internalType": "address",
              "name": "recipient",
              "type": "address"
            },
            {
              "internalType": "uint256",
              "name": "deadline",
              "type": "uint256"
            },
            {
              "internalType": "bytes",
              "name": "params",
              "type": "bytes"
            },
            {
              "internalType": "uint8",
              "name": "v",
              "type": "uint8"
            },
            {
              "internalType": "bytes32",
              "name": "r",
              "type": "bytes32"
            },
            {
              "internalType": "bytes32",
              "name": "s",
              "type": "bytes32"
            }
          ],
          "internalType": "struct Orders.Ask",
          "name": "askOrder",
          "type": "tuple"
        },
        {
          "internalType": "uint256",
          "name": "bidAmount",
          "type": "uint256"
        },
        {
          "internalType": "uint256",
          "name": "bidPrice",
          "type": "uint256"
        },
        {
          "internalType": "address",
          "name": "bidRecipient",
          "type": "address"
        },
        {
          "internalType": "address",
          "name": "bidReferrer",
          "type": "address"
        }
      ],
      "name": "bid",
      "outputs": [
        {
          "internalType": "bool",
          "name": "executed",
          "type": "bool"
        }
      ],
      "stateMutability": "nonpayable",
      "type": "function"
    },
    {
      "inputs": [
        {
          "components": [
            {
              "internalType": "address",
              "name": "signer",
              "type": "address"
            },
            {
              "internalType": "address",
              "name": "proxy",
              "type": "address"
            },
            {
              "internalType": "address",
              "name": "token",
              "type": "address"
            },
            {
              "internalType": "uint256",
              "name": "tokenId",
              "type": "uint256"
            },
            {
              "internalType": "uint256",
              "name": "amount",
              "type": "uint256"
            },
            {
              "internalType": "address",
              "name": "strategy",
              "type": "address"
            },
            {
              "internalType": "address",
              "name": "currency",
              "type": "address"
            },
            {
              "internalType": "address",
              "name": "recipient",
              "type": "address"
            },
            {
              "internalType": "uint256",
              "name": "deadline",
              "type": "uint256"
            },
            {
              "internalType": "bytes",
              "name": "params",
              "type": "bytes"
            },
            {
              "internalType": "uint8",
              "name": "v",
              "type": "uint8"
            },
            {
              "internalType": "bytes32",
              "name": "r",
              "type": "bytes32"
            },
            {
              "internalType": "bytes32",
              "name": "s",
              "type": "bytes32"
            }
          ],
          "internalType": "struct Orders.Ask",
          "name": "askOrder",
          "type": "tuple"
        },
        {
          "components": [
            {
              "internalType": "bytes32",
              "name": "askHash",
              "type": "bytes32"
            },
            {
              "internalType": "address",
              "name": "signer",
              "type": "address"
            },
            {
              "internalType": "uint256",
              "name": "amount",
              "type": "uint256"
            },
            {
              "internalType": "uint256",
              "name": "price",
              "type": "uint256"
            },
            {
              "internalType": "address",
              "name": "recipient",
              "type": "address"
            },
            {
              "internalType": "address",
              "name": "referrer",
              "type": "address"
            },
            {
              "internalType": "uint8",
              "name": "v",
              "type": "uint8"
            },
            {
              "internalType": "bytes32",
              "name": "r",
              "type": "bytes32"
            },
            {
              "internalType": "bytes32",
              "name": "s",
              "type": "bytes32"
            }
          ],
          "internalType": "struct Orders.Bid",
          "name": "bidOrder",
          "type": "tuple"
        }
      ],
      "name": "bid",
      "outputs": [
        {
          "internalType": "bool",
          "name": "executed",
          "type": "bool"
        }
      ],
      "stateMutability": "nonpayable",
      "type": "function"
    },
    {
      "inputs": [
        {
          "internalType": "uint256",
          "name": "tokenId",
          "type": "uint256"
        },
        {
          "internalType": "uint256",
          "name": "label",
          "type": "uint256"
        },
        {
          "internalType": "bytes32",
          "name": "data",
          "type": "bytes32"
        }
      ],
      "name": "burn",
      "outputs": [],
      "stateMutability": "nonpayable",
      "type": "function"
    },
    {
      "inputs": [
        {
          "internalType": "uint256[]",
          "name": "tokenIds",
          "type": "uint256[]"
        }
      ],
      "name": "burnBatch",
      "outputs": [],
      "stateMutability": "nonpayable",
      "type": "function"
    },
    {
      "inputs": [
        {
          "internalType": "address",
          "name": "token",
          "type": "address"
        }
      ],
      "name": "canTrade",
      "outputs": [
        {
          "internalType": "bool",
          "name": "",
          "type": "bool"
        }
      ],
      "stateMutability": "view",
      "type": "function"
    },
    {
      "inputs": [
        {
          "components": [
            {
              "internalType": "address",
              "name": "signer",
              "type": "address"
            },
            {
              "internalType": "address",
              "name": "proxy",
              "type": "address"
            },
            {
              "internalType": "address",
              "name": "token",
              "type": "address"
            },
            {
              "internalType": "uint256",
              "name": "tokenId",
              "type": "uint256"
            },
            {
              "internalType": "uint256",
              "name": "amount",
              "type": "uint256"
            },
            {
              "internalType": "address",
              "name": "strategy",
              "type": "address"
            },
            {
              "internalType": "address",
              "name": "currency",
              "type": "address"
            },
            {
              "internalType": "address",
              "name": "recipient",
              "type": "address"
            },
            {
              "internalType": "uint256",
              "name": "deadline",
              "type": "uint256"
            },
            {
              "internalType": "bytes",
              "name": "params",
              "type": "bytes"
            },
            {
              "internalType": "uint8",
              "name": "v",
              "type": "uint8"
            },
            {
              "internalType": "bytes32",
              "name": "r",
              "type": "bytes32"
            },
            {
              "internalType": "bytes32",
              "name": "s",
              "type": "bytes32"
            }
          ],
          "internalType": "struct Orders.Ask",
          "name": "order",
          "type": "tuple"
        }
      ],
      "name": "cancel",
      "outputs": [],
      "stateMutability": "nonpayable",
      "type": "function"
    },
    {
      "inputs": [
        {
          "components": [
            {
              "internalType": "address",
              "name": "signer",
              "type": "address"
            },
            {
              "internalType": "address",
              "name": "proxy",
              "type": "address"
            },
            {
              "internalType": "address",
              "name": "token",
              "type": "address"
            },
            {
              "internalType": "uint256",
              "name": "tokenId",
              "type": "uint256"
            },
            {
              "internalType": "uint256",
              "name": "amount",
              "type": "uint256"
            },
            {
              "internalType": "address",
              "name": "strategy",
              "type": "address"
            },
            {
              "internalType": "address",
              "name": "currency",
              "type": "address"
            },
            {
              "internalType": "address",
              "name": "recipient",
              "type": "address"
            },
            {
              "internalType": "uint256",
              "name": "deadline",
              "type": "uint256"
            },
            {
              "internalType": "bytes",
              "name": "params",
              "type": "bytes"
            },
            {
              "internalType": "uint8",
              "name": "v",
              "type": "uint8"
            },
            {
              "internalType": "bytes32",
              "name": "r",
              "type": "bytes32"
            },
            {
              "internalType": "bytes32",
              "name": "s",
              "type": "bytes32"
            }
          ],
          "internalType": "struct Orders.Ask",
          "name": "askOrder",
          "type": "tuple"
        }
      ],
      "name": "claim",
      "outputs": [],
      "stateMutability": "nonpayable",
      "type": "function"
    },
    {
      "inputs": [],
      "name": "factory",
      "outputs": [
        {
          "internalType": "address",
          "name": "",
          "type": "address"
        }
      ],
      "stateMutability": "view",
      "type": "function"
    },
    {
      "inputs": [
        {
          "internalType": "uint256",
          "name": "tokenId",
          "type": "uint256"
        }
      ],
      "name": "getApproved",
      "outputs": [
        {
          "internalType": "address",
          "name": "",
          "type": "address"
        }
      ],
      "stateMutability": "view",
      "type": "function"
    },
    {
      "inputs": [
        {
          "internalType": "string",
          "name": "_name",
          "type": "string"
        },
        {
          "internalType": "string",
          "name": "_symbol",
          "type": "string"
        },
        {
          "internalType": "address",
          "name": "_owner",
          "type": "address"
        }
      ],
      "name": "initialize",
      "outputs": [],
      "stateMutability": "nonpayable",
      "type": "function"
    },
    {
      "inputs": [
        {
          "internalType": "address",
          "name": "_owner",
          "type": "address"
        },
        {
          "internalType": "string",
          "name": "_name",
          "type": "string"
        },
        {
          "internalType": "string",
          "name": "_symbol",
          "type": "string"
        },
        {
          "internalType": "uint256[]",
          "name": "tokenIds",
          "type": "uint256[]"
        },
        {
          "internalType": "address",
          "name": "royaltyFeeRecipient",
          "type": "address"
        },
        {
          "internalType": "uint8",
          "name": "royaltyFee",
          "type": "uint8"
        }
      ],
      "name": "initialize",
      "outputs": [],
      "stateMutability": "nonpayable",
      "type": "function"
    },
    {
      "inputs": [
        {
          "internalType": "address",
          "name": "_owner",
          "type": "address"
        },
        {
          "internalType": "string",
          "name": "_name",
          "type": "string"
        },
        {
          "internalType": "string",
          "name": "_symbol",
          "type": "string"
        },
        {
          "internalType": "uint256",
          "name": "toTokenId",
          "type": "uint256"
        },
        {
          "internalType": "address",
          "name": "royaltyFeeRecipient",
          "type": "address"
        },
        {
          "internalType": "uint8",
          "name": "royaltyFee",
          "type": "uint8"
        }
      ],
      "name": "initialize",
      "outputs": [],
      "stateMutability": "nonpayable",
      "type": "function"
    },
    {
      "inputs": [
        {
          "internalType": "address",
          "name": "owner",
          "type": "address"
        },
        {
          "internalType": "address",
          "name": "operator",
          "type": "address"
        }
      ],
      "name": "isApprovedForAll",
      "outputs": [
        {
          "internalType": "bool",
          "name": "",
          "type": "bool"
        }
      ],
      "stateMutability": "view",
      "type": "function"
    },
    {
      "inputs": [
        {
          "internalType": "bytes32",
          "name": "",
          "type": "bytes32"
        }
      ],
      "name": "isCancelledOrClaimed",
      "outputs": [
        {
          "internalType": "bool",
          "name": "",
          "type": "bool"
        }
      ],
      "stateMutability": "view",
      "type": "function"
    },
    {
      "inputs": [],
      "name": "locked",
      "outputs": [
        {
          "internalType": "bool",
          "name": "",
          "type": "bool"
        }
      ],
      "stateMutability": "view",
      "type": "function"
    },
    {
      "inputs": [
        {
          "internalType": "address",
          "name": "to",
          "type": "address"
        },
        {
          "internalType": "uint256",
          "name": "tokenId",
          "type": "uint256"
        },
        {
          "internalType": "bytes",
          "name": "data",
          "type": "bytes"
        }
      ],
      "name": "mint",
      "outputs": [],
      "stateMutability": "nonpayable",
      "type": "function"
    },
    {
      "inputs": [
        {
          "internalType": "address",
          "name": "to",
          "type": "address"
        },
        {
          "internalType": "uint256[]",
          "name": "tokenIds",
          "type": "uint256[]"
        },
        {
          "internalType": "bytes",
          "name": "data",
          "type": "bytes"
        }
      ],
      "name": "mintBatch",
      "outputs": [],
      "stateMutability": "nonpayable",
      "type": "function"
    },
    {
      "inputs": [],
      "name": "name",
      "outputs": [
        {
          "internalType": "string",
          "name": "",
          "type": "string"
        }
      ],
      "stateMutability": "view",
      "type": "function"
    },
    {
      "inputs": [
        {
          "internalType": "uint256",
          "name": "",
          "type": "uint256"
        }
      ],
      "name": "nonces",
      "outputs": [
        {
          "internalType": "uint256",
          "name": "",
          "type": "uint256"
        }
      ],
      "stateMutability": "view",
      "type": "function"
    },
    {
      "inputs": [
        {
          "internalType": "address",
          "name": "",
          "type": "address"
        }
      ],
      "name": "noncesForAll",
      "outputs": [
        {
          "internalType": "uint256",
          "name": "",
          "type": "uint256"
        }
      ],
      "stateMutability": "view",
      "type": "function"
    },
    {
      "inputs": [],
      "name": "owner",
      "outputs": [
        {
          "internalType": "address",
          "name": "",
          "type": "address"
        }
      ],
      "stateMutability": "view",
      "type": "function"
    },
    {
      "inputs": [
        {
          "internalType": "uint256",
          "name": "tokenId",
          "type": "uint256"
        }
      ],
      "name": "ownerOf",
      "outputs": [
        {
          "internalType": "address",
          "name": "",
          "type": "address"
        }
      ],
      "stateMutability": "view",
      "type": "function"
    },
    {
      "inputs": [
        {
          "internalType": "uint256",
          "name": "toTokenId",
          "type": "uint256"
        }
      ],
      "name": "parkTokenIds",
      "outputs": [],
      "stateMutability": "nonpayable",
      "type": "function"
    },
    {
      "inputs": [
        {
          "internalType": "uint256",
          "name": "tokenId",
          "type": "uint256"
        }
      ],
      "name": "parked",
      "outputs": [
        {
          "internalType": "bool",
          "name": "",
          "type": "bool"
        }
      ],
      "stateMutability": "view",
      "type": "function"
    },
    {
      "inputs": [
        {
          "internalType": "address",
          "name": "spender",
          "type": "address"
        },
        {
          "internalType": "uint256",
          "name": "tokenId",
          "type": "uint256"
        },
        {
          "internalType": "uint256",
          "name": "deadline",
          "type": "uint256"
        },
        {
          "internalType": "uint8",
          "name": "v",
          "type": "uint8"
        },
        {
          "internalType": "bytes32",
          "name": "r",
          "type": "bytes32"
        },
        {
          "internalType": "bytes32",
          "name": "s",
          "type": "bytes32"
        }
      ],
      "name": "permit",
      "outputs": [],
      "stateMutability": "nonpayable",
      "type": "function"
    },
    {
      "inputs": [
        {
          "internalType": "address",
          "name": "owner",
          "type": "address"
        },
        {
          "internalType": "address",
          "name": "spender",
          "type": "address"
        },
        {
          "internalType": "uint256",
          "name": "deadline",
          "type": "uint256"
        },
        {
          "internalType": "uint8",
          "name": "v",
          "type": "uint8"
        },
        {
          "internalType": "bytes32",
          "name": "r",
          "type": "bytes32"
        },
        {
          "internalType": "bytes32",
          "name": "s",
          "type": "bytes32"
        }
      ],
      "name": "permitAll",
      "outputs": [],
      "stateMutability": "nonpayable",
      "type": "function"
    },
    {
      "inputs": [],
      "name": "renounceOwnership",
      "outputs": [],
      "stateMutability": "nonpayable",
      "type": "function"
    },
    {
      "inputs": [
        {
          "internalType": "uint256",
          "name": "",
          "type": "uint256"
        },
        {
          "internalType": "uint256",
          "name": "_salePrice",
          "type": "uint256"
        }
      ],
      "name": "royaltyInfo",
      "outputs": [
        {
          "internalType": "address",
          "name": "",
          "type": "address"
        },
        {
          "internalType": "uint256",
          "name": "",
          "type": "uint256"
        }
      ],
      "stateMutability": "view",
      "type": "function"
    },
    {
      "inputs": [
        {
          "internalType": "address",
          "name": "from",
          "type": "address"
        },
        {
          "internalType": "address",
          "name": "to",
          "type": "address"
        },
        {
          "internalType": "uint256",
          "name": "tokenId",
          "type": "uint256"
        }
      ],
      "name": "safeTransferFrom",
      "outputs": [],
      "stateMutability": "nonpayable",
      "type": "function"
    },
    {
      "inputs": [
        {
          "internalType": "address",
          "name": "from",
          "type": "address"
        },
        {
          "internalType": "address",
          "name": "to",
          "type": "address"
        },
        {
          "internalType": "uint256",
          "name": "tokenId",
          "type": "uint256"
        },
        {
          "internalType": "bytes",
          "name": "_data",
          "type": "bytes"
        }
      ],
      "name": "safeTransferFrom",
      "outputs": [],
      "stateMutability": "nonpayable",
      "type": "function"
    },
    {
      "inputs": [
        {
          "internalType": "address",
          "name": "operator",
          "type": "address"
        },
        {
          "internalType": "bool",
          "name": "approved",
          "type": "bool"
        }
      ],
      "name": "setApprovalForAll",
      "outputs": [],
      "stateMutability": "nonpayable",
      "type": "function"
    },
    {
      "inputs": [
        {
          "internalType": "string",
          "name": "uri",
          "type": "string"
        }
      ],
      "name": "setBaseURI",
      "outputs": [],
      "stateMutability": "nonpayable",
      "type": "function"
    },
    {
      "inputs": [
        {
          "internalType": "bool",
          "name": "_locked",
          "type": "bool"
        }
      ],
      "name": "setLocked",
      "outputs": [],
      "stateMutability": "nonpayable",
      "type": "function"
    },
    {
      "inputs": [
        {
          "internalType": "uint8",
          "name": "royaltyFee",
          "type": "uint8"
        }
      ],
      "name": "setRoyaltyFee",
      "outputs": [],
      "stateMutability": "nonpayable",
      "type": "function"
    },
    {
      "inputs": [
        {
          "internalType": "address",
          "name": "royaltyFeeRecipient",
          "type": "address"
        }
      ],
      "name": "setRoyaltyFeeRecipient",
      "outputs": [],
      "stateMutability": "nonpayable",
      "type": "function"
    },
    {
      "inputs": [
        {
          "internalType": "uint256",
          "name": "id",
          "type": "uint256"
        },
        {
          "internalType": "string",
          "name": "newURI",
          "type": "string"
        }
      ],
      "name": "setTokenURI",
      "outputs": [],
      "stateMutability": "nonpayable",
      "type": "function"
    },
    {
      "inputs": [
        {
          "internalType": "bytes4",
          "name": "interfaceId",
          "type": "bytes4"
        }
      ],
      "name": "supportsInterface",
      "outputs": [
        {
          "internalType": "bool",
          "name": "",
          "type": "bool"
        }
      ],
      "stateMutability": "view",
      "type": "function"
    },
    {
      "inputs": [],
      "name": "symbol",
      "outputs": [
        {
          "internalType": "string",
          "name": "",
          "type": "string"
        }
      ],
      "stateMutability": "view",
      "type": "function"
    },
    {
      "inputs": [
        {
          "internalType": "uint256",
          "name": "tokenId",
          "type": "uint256"
        }
      ],
      "name": "tokenURI",
      "outputs": [
        {
          "internalType": "string",
          "name": "",
          "type": "string"
        }
      ],
      "stateMutability": "view",
      "type": "function"
    },
    {
      "inputs": [
        {
          "internalType": "address",
          "name": "from",
          "type": "address"
        },
        {
          "internalType": "address",
          "name": "to",
          "type": "address"
        },
        {
          "internalType": "uint256",
          "name": "tokenId",
          "type": "uint256"
        }
      ],
      "name": "transferFrom",
      "outputs": [],
      "stateMutability": "nonpayable",
      "type": "function"
    },
    {
      "inputs": [
        {
          "internalType": "address",
          "name": "newOwner",
          "type": "address"
        }
      ],
      "name": "transferOwnership",
      "outputs": [],
      "stateMutability": "nonpayable",
      "type": "function"
    },
    {
      "inputs": [
        {
          "internalType": "bytes32",
          "name": "askHash",
          "type": "bytes32"
        },
        {
          "internalType": "address",
          "name": "bidder",
          "type": "address"
        },
        {
          "internalType": "bytes32",
          "name": "bidHash",
          "type": "bytes32"
        }
      ],
      "name": "updateApprovedBidHash",
      "outputs": [],
      "stateMutability": "nonpayable",
      "type": "function"
    }
  ],
  "transactionHash": "0x6beee34c5fb5870febb7bb0d9d5ab3676fd421d9da1d7400a61e2afc63f8cdbc",
  "args": [],
  "solcInputHash": "72d9ad71cb1f9f608f4619e80f5d5733",
  "bytecode": "0x608060405234801561001057600080fd5b506157c780620000216000396000f3fe608060405234801561001057600080fd5b50600436106102d65760003560e01c80637688266311610182578063b4e13c8d116100e9578063cb27e1b6116100a2578063e331a7151161007c578063e331a71514610759578063e4623c1b1461077c578063e985e9c51461078f578063f2fde38b146107a2576102d6565b8063cb27e1b61461071f578063cf30901214610732578063d0d0924614610746576102d6565b8063b4e13c8d1461069b578063b81e8466146106c2578063b88d4fde146106d5578063c45a0155146106e8578063c87b56dd146106f9578063c975e3741461070c576102d6565b806395d89b411161013b57806395d89b4114610634578063994e72961461063c5780639ecbcda21461064f578063a22cb46514610662578063aba0784714610675578063ac9a252114610688576102d6565b806376882663146105b75780637ac2ff7b146105ca5780638da5cb5b146105dd578063904dfb8e146105ee5780639443792c1461060e57806394d008ef14610621576102d6565b80633644e515116102415780635771f997116101fa5780636ef8e02d116101d45780636ef8e02d1461056957806370a082311461057c578063715018a61461058f57806375e6590f14610597576102d6565b80635771f997146104b15780635f7ef2fa146105435780636352211e14610556576102d6565b80633644e5151461043e57806338bc54cd146104465780633cf32cd11461045957806342842e0e1461046c578063559f05dc1461047f57806355f804b31461049e576102d6565b8063162094c411610293578063162094c414610399578063211e28b6146103ac57806322862482146103bf57806323b872dd146103d25780632a55205a146103e557806330adf81f14610417576102d6565b806301ffc9a7146102db57806306fdde0314610303578063077f224a14610318578063081812fc1461032d578063095ea7b314610358578063141a468c1461036b575b600080fd5b6102ee6102e9366004614f30565b6107b5565b60405190151581526020015b60405180910390f35b61030b6107e2565b6040516102fa9190615484565b61032b610326366004615003565b610874565b005b61034061033b366004614ef2565b6109a9565b6040516001600160a01b0390911681526020016102fa565b61032b610366366004614d75565b6109f9565b61038b610379366004614ef2565b600e6020526000908152604090205481565b6040519081526020016102fa565b61032b6103a73660046151fd565b610aa3565b61032b6103ba366004614eba565b610b29565b61032b6103cd366004614b55565b610bef565b61032b6103e0366004614a48565b610c8d565b6103f86103f3366004615241565b610cee565b604080516001600160a01b0390931683526020830191909152016102fa565b61038b7f49ecf333e5b8c95c40fdafc95c1ad136e8914a8fb55e9dc8bb01eaa83a2df9ad81565b61038b610d4c565b6102ee610454366004615170565b610d5b565b61032b61046736600461506c565b610de9565b61032b61047a366004614a48565b610ed4565b6102ee61048d3660046149f4565b6001600160a01b0381163014919050565b61032b6104ac366004614f68565b610eef565b6105046104bf366004614ef2565b6012602052600090815260409020805460018201546002830154600384015460048501546005909501546001600160a01b039485169593949293918316929091169086565b604080516001600160a01b03978816815260208101969096528501939093529084166060840152909216608082015260a081019190915260c0016102fa565b61032b61055136600461528d565b610f5c565b610340610564366004614ef2565b610f92565b61032b6105773660046149f4565b610fad565b61038b61058a3660046149f4565b610fe0565b61032b61104b565b61038b6105a5366004614ef2565b60146020526000908152604090205481565b61032b6105c5366004614f0a565b6110bf565b61032b6105d8366004614e19565b61112a565b6008546001600160a01b0316610340565b61038b6105fc3660046149f4565b600f6020526000908152604090205481565b61032b61061c366004615262565b6112d7565b61032b61062f366004614dcd565b611350565b61030b6113a9565b6102ee61064a366004614ef2565b6113b8565b61032b61065d366004614c35565b6113c3565b61032b610670366004614bc7565b611560565b61032b610683366004614af1565b61156f565b61032b610696366004614cf1565b61170b565b61038b7fdaab21af31ece73a508939fedd476a5ee5129a5ed4bb091f3236ffb45394df6281565b6102ee6106d036600461509e565b611854565b61032b6106e3366004614a88565b611a90565b600b546001600160a01b0316610340565b61030b610707366004614ef2565b611ac2565b61032b61071a366004614ef2565b611d57565b61038b61072d366004614bf4565b611dde565b6015546102ee90600160b81b900460ff1681565b61032b61075436600461506c565b611e14565b6102ee610767366004614ef2565b60136020526000908152604090205460ff1681565b61032b61078a366004614e88565b6121d1565b6102ee61079d366004614a10565b61225e565b61032b6107b03660046149f4565b61228c565b600063152a902d60e11b6001600160e01b0319831614806107da57506107da82612368565b90505b919050565b6060600180546107f1906156a3565b80601f016020809104026020016040519081016040528092919081815260200182805461081d906156a3565b801561086a5780601f1061083f5761010080835404028352916020019161086a565b820191906000526020600020905b81548152906001019060200180831161084d57829003601f168201915b5050505050905090565b600054610100900460ff168061088d575060005460ff16155b6108b25760405162461bcd60e51b81526004016108a990615559565b60405180910390fd5b600054610100900460ff161580156108d4576000805461ffff19166101011790555b6108de84846123b8565b6108e78261242f565b600b80546001600160a01b0319163317905546600a557f8b73c3c69bb8fe3d512ecc4cf759cc79239f7b179b0ffacaa9a75d522b39400f610927306124a4565b80516020918201206040805192830193909352918101919091527fc89efdaa54c0f20c7adf612882df0950f5a951637e0307cdcb4c672f298b8bc660608201524660808201523060a082015260c00160408051601f19818403018152919052805160209091012060095580156109a3576000805461ff00191690555b50505050565b6000818152600460205260408120546001600160a01b03166109dd5760405162461bcd60e51b81526004016108a990615522565b506000908152600660205260409020546001600160a01b031690565b6000610a0482610f92565b9050806001600160a01b0316836001600160a01b03161415610a5c5760405162461bcd60e51b815260206004820152601160248201527053484f59553a20494e56414c49445f544f60781b60448201526064016108a9565b336001600160a01b0382161480610a785750610a78813361225e565b610a945760405162461bcd60e51b81526004016108a990615497565b610a9e8383612501565b505050565b6008546001600160a01b03163314610acd5760405162461bcd60e51b81526004016108a990615497565b6000828152600d602090815260409091208251610aec92840190614777565b50817fd2d827dddfc9c9a02afc5fc68d3251684b36e213a7999ebd90a861f25df4077e82604051610b1d9190615484565b60405180910390a25050565b6008546001600160a01b03163314610b535760405162461bcd60e51b81526004016108a990615497565b8015610b9757601554600160b01b900460ff1615610b835760405162461bcd60e51b81526004016108a990615497565b6015805460ff60b01b1916600160b01b1790555b60158054821515600160b81b0260ff60b81b199091161790556040517f9514871d395e6e24ef28f340cbcdcaa89f790cdf4a4fa6c25cf83a81fb27a86d90610be490831515815260200190565b60405180910390a150565b33610c026008546001600160a01b031690565b6001600160a01b03161480610c215750600b546001600160a01b031633145b610c3d5760405162461bcd60e51b81526004016108a990615497565b60005b82518110156109a357610c7b84848381518110610c6d57634e487b7160e01b600052603260045260246000fd5b60200260200101518461256f565b80610c85816156d8565b915050610c40565b610c9733826125a2565b610ce35760405162461bcd60e51b815260206004820152601d60248201527f53484f59553a204e4f545f415050524f5645445f4e4f525f4f574e455200000060448201526064016108a9565b610a9e83838361262c565b60155460009081908190600160a81b900460ff90811614610d31576015546103e890610d2490600160a81b900460ff168661562a565b610d2e9190615616565b90505b60155461010090046001600160a01b03169590945092505050565b6000610d566126c7565b905090565b60105460009060ff16151560011415610d865760405162461bcd60e51b81526004016108a9906154f8565b6010805460ff1916600117905560208601516001600160a01b031615610dbe5760405162461bcd60e51b81526004016108a990615497565b610dd586610dcb88612773565b3388888888612860565b6010805460ff191690559695505050505050565b80516001600160a01b0316331480610e0d575060208101516001600160a01b031633145b610e295760405162461bcd60e51b81526004016108a990615497565b6000610e3482612773565b6000818152601260205260409020549091506001600160a01b031615610e905760405162461bcd60e51b815260206004820152601160248201527053484f59553a204249445f45584953545360781b60448201526064016108a9565b600081815260136020526040808220805460ff191660011790555182917fe8d9861dbc9c663ed3accd261bbe2fe01e0d3d9e5f51fa38523b265c7757a93a91a25050565b610a9e83838360405180602001604052806000815250611a90565b6008546001600160a01b03163314610f195760405162461bcd60e51b81526004016108a990615497565b8051610f2c90600c906020840190614777565b507f23c8c9488efebfd474e85a7956de6f39b17c7ab88502d42a623db2d8e382bbaa81604051610be49190615484565b6008546001600160a01b03163314610f865760405162461bcd60e51b81526004016108a990615497565b610f8f81612d45565b50565b6000908152600460205260409020546001600160a01b031690565b6008546001600160a01b03163314610fd75760405162461bcd60e51b81526004016108a990615497565b610f8f81612e4f565b60006001600160a01b03821661102f5760405162461bcd60e51b815260206004820152601460248201527329a427acaa9d1024a72b20a624a22fa7aba722a960611b60448201526064016108a9565b506001600160a01b031660009081526005602052604090205490565b6008546001600160a01b031633146110755760405162461bcd60e51b81526004016108a990615497565b6008546040516000916001600160a01b0316907f8be0079c531659141344cd1fd0a4f28419497f9722a3daafe3b4186f6b6457e0908390a3600880546001600160a01b0319169055565b33600081815260116020908152604080832087845282528083206001600160a01b03871680855290835292819020859055518481529192869290917fb45107556fea5943927a97bcb8910e249aea88961a6a30fb2f06674dbd44004b910160405180910390a4505050565b8342111561116b5760405162461bcd60e51b815260206004820152600e60248201526d14d213d6554e881156141254915160921b60448201526064016108a9565b600061117686610f92565b90506001600160a01b0381166111c75760405162461bcd60e51b815260206004820152601660248201527514d213d6554e881253959053125117d513d2d153925160521b60448201526064016108a9565b806001600160a01b0316876001600160a01b031614156112205760405162461bcd60e51b815260206004820152601460248201527353484f59553a204e4f545f4e454345535341525960601b60448201526064016108a9565b6000868152600e6020526040812080547f49ecf333e5b8c95c40fdafc95c1ad136e8914a8fb55e9dc8bb01eaa83a2df9ad918a918a9185611260836156d8565b909155506040805160208101959095526001600160a01b03909316928401929092526060830152608082015260a0810187905260c0016040516020818303038152906040528051906020012090506112c381838787876112be610d4c565b612efb565b6112cd8888612501565b5050505050505050565b336112e184610f92565b6001600160a01b0316146113075760405162461bcd60e51b81526004016108a990615497565b611310836130b1565b81837fb76a0da8ff1f8c54a41e3017cf87c65fc8f03e38d23eb45d4e9a1a5d7635b4c08360405161134391815260200190565b60405180910390a3505050565b336113636008546001600160a01b031690565b6001600160a01b031614806113825750600b546001600160a01b031633145b61139e5760405162461bcd60e51b81526004016108a990615497565b610a9e83838361256f565b6060600280546107f1906156a3565b60006107da82613172565b600054610100900460ff16806113dc575060005460ff16155b6113f85760405162461bcd60e51b81526004016108a990615559565b600054610100900460ff1615801561141a576000805461ffff19166101011790555b61142261319e565b61142d868689610874565b600b60009054906101000a90046001600160a01b03166001600160a01b03166317e1f82e6040518163ffffffff1660e01b815260040160206040518083038186803b15801561147b57600080fd5b505afa15801561148f573d6000803e3d6000fd5b505050506040513d601f19601f820116820180604052508101906114b391906152a9565b6015805460ff191660ff9290921691909117905560005b845181101561151657611504888683815181106114f757634e487b7160e01b600052603260045260246000fd5b6020026020010151613211565b8061150e816156d8565b9150506114ca565b5061152083612e4f565b6015805460ff60a81b191660ff60a81b17905560ff8216156115455761154582612d45565b8015611557576000805461ff00191690555b50505050505050565b61156b33838361322b565b5050565b834211156115b05760405162461bcd60e51b815260206004820152600e60248201526d14d213d6554e881156141254915160921b60448201526064016108a9565b6001600160a01b0386166115ff5760405162461bcd60e51b815260206004820152601660248201527553484f59553a20494e56414c49445f4144445245535360501b60448201526064016108a9565b856001600160a01b0316856001600160a01b031614156116585760405162461bcd60e51b815260206004820152601460248201527353484f59553a204e4f545f4e454345535341525960601b60448201526064016108a9565b6001600160a01b0386166000908152600f6020526040812080547fdaab21af31ece73a508939fedd476a5ee5129a5ed4bb091f3236ffb45394df629189918991856116a2836156d8565b909155506040805160208101959095526001600160a01b039384169085015291166060830152608082015260a0810186905260c0016040516020818303038152906040528051906020012090506116ff81888686866112be610d4c565b6115578787600161322b565b600054610100900460ff1680611724575060005460ff16155b6117405760405162461bcd60e51b81526004016108a990615559565b600054610100900460ff16158015611762576000805461ffff19166101011790555b61176a61319e565b611775868689610874565b600b60009054906101000a90046001600160a01b03166001600160a01b03166317e1f82e6040518163ffffffff1660e01b815260040160206040518083038186803b1580156117c357600080fd5b505afa1580156117d7573d6000803e3d6000fd5b505050506040513d601f19601f820116820180604052508101906117fb91906152a9565b6015805460ff191660ff92909216919091179055611818846132f2565b6040518481527fbd3ebe8ad09ded9d19d849088ef41c06e6369d712810f47ad52751826c17ff949060200160405180910390a161152083612e4f565b60105460009060ff1615156001141561187f5760405162461bcd60e51b81526004016108a9906154f8565b6010805460ff19166001179055600061189784612773565b835190915081146118e25760405162461bcd60e51b81526020600482015260156024820152740a6909eb2aa7440aa9c9a82a886908a88be9082a69605b1b60448201526064016108a9565b60208301516001600160a01b03166119345760405162461bcd60e51b815260206004820152601560248201527429a427acaa9d1024a72b20a624a22fa9a4a3a722a960591b60448201526064016108a9565b600061193f8461334a565b60208601519091506001600160a01b031615611a395760208501516001600160a01b03163314806119a557506020808601516001600160a01b03908116600090815260118352604080822086835284528082208885015190931682529190925290205481145b6119c15760405162461bcd60e51b81526004016108a990615497565b602085810180516001600160a01b03908116600090815260118452604080822087835285528082208986018051851684529086528183208390555193519051918252928216938693909216917fb45107556fea5943927a97bcb8910e249aea88961a6a30fb2f06674dbd44004b910160405180910390a45b611a5a8185602001518660c001518760e001518861010001516112be610d4c565b611a7d858386602001518760400151886060015189608001518a60a00151612860565b6010805460ff1916905595945050505050565b611a9a33836125a2565b611ab65760405162461bcd60e51b81526004016108a990615497565b6109a3848484846133d5565b6000818152600460205260409020546060906001600160a01b0316151580611aee5750611aee82613172565b611b0a5760405162461bcd60e51b81526004016108a990615522565b6000828152600d602052604081208054611b23906156a3565b80601f0160208091040260200160405190810160405280929190818152602001828054611b4f906156a3565b8015611b9c5780601f10611b7157610100808354040283529160200191611b9c565b820191906000526020600020905b815481529060010190602001808311611b7f57829003601f168201915b50505050509050600081511115611bb45790506107dd565b6000600c8054611bc3906156a3565b80601f0160208091040260200160405190810160405280929190818152602001828054611bef906156a3565b8015611c3c5780601f10611c1157610100808354040283529160200191611c3c565b820191906000526020600020905b815481529060010190602001808311611c1f57829003601f168201915b50505050509050600081511115611c805780611c5785613408565b604051602001611c6892919061530d565b604051602081830303815290604052925050506107dd565b600b60009054906101000a90046001600160a01b03166001600160a01b0316633683a63d6040518163ffffffff1660e01b815260040160006040518083038186803b158015611cce57600080fd5b505afa158015611ce2573d6000803e3d6000fd5b505050506040513d6000823e601f3d908101601f19168201604052611d0a9190810190614f9a565b90506000611d19306014613522565b90508181611d2687613408565b604051602001611d389392919061534c565b60405160208183030381529060405293505050506107dd565b50919050565b33611d6a6008546001600160a01b031690565b6001600160a01b03161480611d895750600b546001600160a01b031633145b611da55760405162461bcd60e51b81526004016108a990615497565b611dae816132f2565b6040518181527fbd3ebe8ad09ded9d19d849088ef41c06e6369d712810f47ad52751826c17ff9490602001610be4565b6001600160a01b0380841660009081526011602090815260408083208684528252808320938516835292905220545b9392505050565b60105460ff16151560011415611e3c5760405162461bcd60e51b81526004016108a9906154f8565b6010805460ff1916600117905560408101516001600160a01b03163014611e9f5760405162461bcd60e51b815260206004820152601760248201527653484f59553a20494e56414c49445f45584348414e474560481b60448201526064016108a9565b6000611eaa82612773565b9050611eb68282613703565b611ed98183600001518461014001518561016001518661018001516112be610d4c565b600081815260126020908152604091829020825160c08101845281546001600160a01b0390811680835260018401548386015260028401548387018190526003850154831660608501526004808601548416608086015260059095015460a08086018290528a0151968a01516101008b01516101208c0151995163610e2d3b60e01b81529699989095169763610e2d3b97611f8397929695919491939192849284929091016153e1565b60206040518083038186803b158015611f9b57600080fd5b505afa158015611faf573d6000803e3d6000fd5b505050506040513d601f19601f82011682018060405250810190611fd39190614ed6565b6120105760405162461bcd60e51b815260206004820152600e60248201526d53484f59553a204641494c55524560901b60448201526064016108a9565b60e08301516001600160a01b038116612027575082515b600083815260136020908152604091829020805460ff1916600117905585820151606087015160c08801518651938701519487015161207895939492939192918791612073919061562a565b6139d5565b6120c45760405162461bcd60e51b815260206004820152601f60248201527f53484f59553a204641494c45445f544f5f5452414e534645525f46554e44530060448201526064016108a9565b602080830151600085815260149092526040909120546120e491906155fe565b60008481526014602052604090205560608201516001600160a01b03811661210a575081515b612127856040015186600001518388606001518760200151613c42565b600084815260126020908152604080832080546001600160a01b03199081168255600182018590556002820185905560038201805482169055600482018054909116905560050192909255845190850151858301516080870151935188947f0642c67a22e8657a7126bb3b9fb3f01965503642f884e4c6a1efd8ed24f46c0d946121b8949093909290918891615439565b60405180910390a250506010805460ff19169055505050565b60005b815181101561156b5760008282815181106121ff57634e487b7160e01b600052603260045260246000fd5b60200260200101519050336001600160a01b031661221c82610f92565b6001600160a01b0316146122425760405162461bcd60e51b81526004016108a990615497565b61224b816130b1565b5080612256816156d8565b9150506121d4565b6001600160a01b03918216600090815260076020908152604080832093909416825291909152205460ff1690565b6008546001600160a01b031633146122b65760405162461bcd60e51b81526004016108a990615497565b6001600160a01b03811661230c5760405162461bcd60e51b815260206004820152601860248201527f53484f59553a20494e56414c49445f4e45575f4f574e4552000000000000000060448201526064016108a9565b6008546040516001600160a01b038084169216907f8be0079c531659141344cd1fd0a4f28419497f9722a3daafe3b4186f6b6457e090600090a3600880546001600160a01b0319166001600160a01b0392909216919091179055565b60006001600160e01b031982166380ac58cd60e01b148061239957506001600160e01b03198216635b5e139f60e01b145b806107da57506301ffc9a760e01b6001600160e01b03198316146107da565b600054610100900460ff16806123d1575060005460ff16155b6123ed5760405162461bcd60e51b81526004016108a990615559565b600054610100900460ff1615801561240f576000805461ffff19166101011790555b6124198383613c89565b8015610a9e576000805461ff0019169055505050565b600054610100900460ff1680612448575060005460ff16155b6124645760405162461bcd60e51b81526004016108a990615559565b600054610100900460ff16158015612486576000805461ffff19166101011790555b61248f82613d1e565b801561156b576000805461ff00191690555050565b6060816124cc57506040805180820190915260048152630307830360e41b60208201526107dd565b8160005b81156124ef57806124e0816156d8565b915050600882901c91506124d0565b6124f98482613522565b949350505050565b600081815260066020526040902080546001600160a01b0319166001600160a01b038416908117909155819061253682610f92565b6001600160a01b03167f8c5be1e5ebec7d5bd14f71427d1e84f3dd0314c0f7b2291e5b200ac8c7c3b92560405160405180910390a45050565b6125798383613dd3565b6125866000848484613f01565b610a9e5760405162461bcd60e51b81526004016108a9906154c1565b6000818152600460205260408120546001600160a01b03166125d65760405162461bcd60e51b81526004016108a990615522565b60006125e183610f92565b9050806001600160a01b0316846001600160a01b0316148061261c5750836001600160a01b0316612611846109a9565b6001600160a01b0316145b806124f957506124f9818561225e565b8261263f6008546001600160a01b031690565b6001600160a01b0316336001600160a01b0316148061266b57506008546001600160a01b038281169116145b806126805750601554600160b81b900460ff16155b6126bc5760405162461bcd60e51b815260206004820152600d60248201526c14d213d6554e881313d0d2d151609a1b60448201526064016108a9565b6109a384848461400e565b60008046600a5414156126dd5750600954610d56565b7f8b73c3c69bb8fe3d512ecc4cf759cc79239f7b179b0ffacaa9a75d522b39400f612707306124a4565b80516020918201206040805192830193909352918101919091527fc89efdaa54c0f20c7adf612882df0950f5a951637e0307cdcb4c672f298b8bc660608201524660808201523060a082015260c001604051602081830303815290604052805190602001209050905090565b80516020808301516040808501516060860151608087015160a088015160c089015160e08a01516101008b01516101208c01518051908b0120975160009b6128439b7f5fbc9a24e1532fa5245d1ec2dc5592849ae97ac5475f361b1a1f7a6e2ac9b2fd9b919a919998979695949392019a8b526001600160a01b03998a1660208c015297891660408b015295881660608a0152608089019490945260a0880192909252851660c0870152841660e08601529092166101008401526101208301919091526101408201526101600190565b604051602081830303815290604052805190602001209050919050565b60408701516000906001600160a01b031630146128b95760405162461bcd60e51b815260206004820152601760248201527653484f59553a20494e56414c49445f45584348414e474560481b60448201526064016108a9565b600085116129015760405162461bcd60e51b815260206004820152601560248201527414d213d6554e881253959053125117d05353d55395605a1b60448201526064016108a9565b600087815260146020526040902054608089015161291f87836155fe565b111561295f5760405162461bcd60e51b815260206004820152600f60248201526e14d213d6554e8814d3d31117d3d555608a1b60448201526064016108a9565b6129698989613703565b61298c888a600001518b61014001518c61016001518d61018001516112be610d4c565b6000601260008a815260200190815260200160002090508960a001516001600160a01b031663610e2d3b8b602001518c61010001518d61012001518c8b8760000160009054906101000a90046001600160a01b0316886002015489600501546040518963ffffffff1660e01b8152600401612a0e9897969594939291906153e1565b60206040518083038186803b158015612a2657600080fd5b505afa158015612a3a573d6000803e3d6000fd5b505050506040513d601f19601f82011682018060405250810190612a5e9190614ed6565b15612ba557612a6d87836155fe565b60008a81526014602052604090205560808a0151612a8b88846155fe565b1415612aab576000898152601360205260409020805460ff191660011790555b60e08a01516001600160a01b038116612ac2575089515b612ae28b604001518c606001518d60c001518c858d8d612073919061562a565b612b2e5760405162461bcd60e51b815260206004820152601f60248201527f53484f59553a204641494c45445f544f5f5452414e534645525f46554e44530060448201526064016108a9565b6001600160a01b038616612b40578895505b612b598b604001518c60000151888e606001518c613c42565b897f0642c67a22e8657a7126bb3b9fb3f01965503642f884e4c6a1efd8ed24f46c0d8a8a8a8a8a604051612b91959493929190615439565b60405180910390a260019350505050612d3a565b8960a001516001600160a01b031663e9b3838f8b602001518c61010001518d61012001518c8b8760000160009054906101000a90046001600160a01b0316886002015489600501546040518963ffffffff1660e01b8152600401612c109897969594939291906153e1565b60206040518083038186803b158015612c2857600080fd5b505afa158015612c3c573d6000803e3d6000fd5b505050506040513d601f19601f82011682018060405250810190612c609190614ed6565b15612d015780546001600160a01b03808a166001600160a01b031992831617835560018301899055600283018890556003830180548883169084161790556004830180549187169190921617905542600582015560405189907f4055f76fe1f351fec66b9ba790ddbdc29eb45c038163a6b1327277441a8c65f190612cee908b908b908b908b908b90615439565b60405180910390a2600092505050612d3a565b60405162461bcd60e51b815260206004820152600e60248201526d53484f59553a204641494c55524560901b60448201526064016108a9565b979650505050505050565b601554600160a81b900460ff9081161415612dad5760155460ff9081169082161115612da85760405162461bcd60e51b815260206004820152601260248201527153484f59553a20494e56414c49445f46454560701b60448201526064016108a9565b612e01565b60155460ff600160a81b909104811690821610612e015760405162461bcd60e51b815260206004820152601260248201527153484f59553a20494e56414c49445f46454560701b60448201526064016108a9565b6015805460ff60a81b1916600160a81b60ff8416908102919091179091556040519081527fd9ac3bc8ad92267d0b101786ddb4d37746ed1e3ee77637846294edf17dd9eb8a90602001610be4565b6001600160a01b038116612ea55760405162461bcd60e51b815260206004820152601c60248201527f53484f59553a20494e56414c49445f4645455f524543495049454e540000000060448201526064016108a9565b60158054610100600160a81b0319166101006001600160a01b038416908102919091179091556040519081527f1ce5f25607cb1a4fa6c947b55700213a9ed6a1d7ef1cf1d02ab467efd02a993e90602001610be4565b60405161190160f01b60208201526022810182905260428101879052600090606201604051602081830303815290604052805190602001209050612f3f863b151590565b1561304f57604080516020810186905280820185905260f887901b6001600160f81b0319166060820152815160418183030181526061820192839052630b135d3f60e11b9092526001600160a01b03881691631626ba7e91612fa591859160650161546b565b60206040518083038186803b158015612fbd57600080fd5b505afa158015612fd1573d6000803e3d6000fd5b505050506040513d601f19601f82011682018060405250810190612ff59190614f4c565b6001600160e01b031916631626ba7e60e01b1461304a5760405162461bcd60e51b815260206004820152601360248201527214d213d6554e8815539055551213d492569151606a1b60448201526064016108a9565b611557565b856001600160a01b031661306582878787614190565b6001600160a01b0316146115575760405162461bcd60e51b815260206004820152601360248201527214d213d6554e8815539055551213d492569151606a1b60448201526064016108a9565b60006130bc82610f92565b90506001600160a01b0381166130e45760405162461bcd60e51b81526004016108a990615522565b6130ef600083612501565b6001600160a01b0381166000908152600560205260408120805460019290613118908490615649565b909155505060008281526004602052604080822080546001600160a01b0319169055518391906001600160a01b038416907fddf252ad1be2c89b69c2b068fc378daa952ba7f163c4a11628f55a4df523b3ef908390a45050565b60008061317e83610f92565b90506001600160a01b038116158015611e0d575060035483109392505050565b600054610100900460ff16806131b7575060005460ff16155b6131d35760405162461bcd60e51b81526004016108a990615559565b600054610100900460ff161580156131f5576000805461ffff19166101011790555b6131fd614323565b8015610f8f576000805461ff001916905550565b61156b82826040518060200160405280600081525061256f565b826001600160a01b0316826001600160a01b0316141561328d5760405162461bcd60e51b815260206004820152601760248201527f53484f59553a20494e56414c49445f4f50455241544f5200000000000000000060448201526064016108a9565b6001600160a01b03838116600081815260076020908152604080832094871680845294825291829020805460ff191686151590811790915591519182527f17307eab39ab6107e8899845ad3d59bd9653f200f220920489ca2b5937696c319101611343565b6003548082116133445760405162461bcd60e51b815260206004820152601a60248201527f53484f59553a20494e56414c49445f544f5f544f4b454e5f494400000000000060448201526064016108a9565b50600355565b80516020808301516040808501516060860151608087015160a08801519351600097612843977fb98e1dc48988064e6dfb813618609d7da80a8841e5f277039788ac4b50d497b297919691959493920196875260208701959095526001600160a01b03938416604087015260608601929092526080850152811660a08401521660c082015260e00190565b6133e084848461262c565b6133ec84848484613f01565b6109a35760405162461bcd60e51b81526004016108a9906154c1565b60608161342d57506040805180820190915260018152600360fc1b60208201526107dd565b8160005b81156134575780613441816156d8565b91506134509050600a83615616565b9150613431565b6000816001600160401b0381111561347f57634e487b7160e01b600052604160045260246000fd5b6040519080825280601f01601f1916602001820160405280156134a9576020820181803683370190505b5090505b84156124f9576134be600183615649565b91506134cb600a866156f3565b6134d69060306155fe565b60f81b8183815181106134f957634e487b7160e01b600052603260045260246000fd5b60200101906001600160f81b031916908160001a90535061351b600a86615616565b94506134ad565b6060600061353183600261562a565b61353c9060026155fe565b6001600160401b0381111561356157634e487b7160e01b600052604160045260246000fd5b6040519080825280601f01601f19166020018201604052801561358b576020820181803683370190505b509050600360fc1b816000815181106135b457634e487b7160e01b600052603260045260246000fd5b60200101906001600160f81b031916908160001a905350600f60fb1b816001815181106135f157634e487b7160e01b600052603260045260246000fd5b60200101906001600160f81b031916908160001a905350600061361584600261562a565b6136209060016155fe565b90505b60018111156136b4576f181899199a1a9b1b9c1cb0b131b232b360811b85600f166010811061366257634e487b7160e01b600052603260045260246000fd5b1a60f81b82828151811061368657634e487b7160e01b600052603260045260246000fd5b60200101906001600160f81b031916908160001a90535060049490941c936136ad8161568c565b9050613623565b508315611e0d5760405162461bcd60e51b815260206004820181905260248201527f537472696e67733a20686578206c656e67746820696e73756666696369656e7460448201526064016108a9565b60008181526013602052604090205460ff16156137625760405162461bcd60e51b815260206004820152601b60248201527f53484f59553a2043414e43454c4c45445f4f525f434c41494d4544000000000060448201526064016108a9565b81516001600160a01b03166137b05760405162461bcd60e51b815260206004820152601460248201527329a427acaa9d1024a72b20a624a22fa6a0a5a2a960611b60448201526064016108a9565b60408201516001600160a01b03166137ff5760405162461bcd60e51b815260206004820152601260248201527114d213d6554e881253959053125117d3919560721b60448201526064016108a9565b600082608001511161384b5760405162461bcd60e51b815260206004820152601560248201527414d213d6554e881253959053125117d05353d55395605a1b60448201526064016108a9565b60a08201516001600160a01b03166138a55760405162461bcd60e51b815260206004820152601760248201527f53484f59553a20494e56414c49445f535452415445475900000000000000000060448201526064016108a9565b60c08201516001600160a01b03166138ff5760405162461bcd60e51b815260206004820152601760248201527f53484f59553a20494e56414c49445f43555252454e435900000000000000000060448201526064016108a9565b600b546001600160a01b031660a0830151604051632666e89f60e21b81526001600160a01b03918216600482015291169063999ba27c9060240160206040518083038186803b15801561395157600080fd5b505afa158015613965573d6000803e3d6000fd5b505050506040513d601f19601f820116820180604052508101906139899190614ed6565b61156b5760405162461bcd60e51b815260206004820152601f60248201527f53484f59553a2053545241544547595f4e4f545f57484954454c49535445440060448201526064016108a9565b60006139e385853085614382565b6139ef57506000613c38565b6000613a03600b546001600160a01b031690565b90506000839050600080836001600160a01b031663aec0b5436040518163ffffffff1660e01b8152600401604080518083038186803b158015613a4557600080fd5b505afa158015613a59573d6000803e3d6000fd5b505050506040513d601f19601f82011682018060405250810190613a7d9190614e5a565b909250905060006103e8613a9460ff84168961562a565b613a9e9190615616565b9050613ab46001600160a01b038b168483614454565b613abe8185615649565b9350505050600080836001600160a01b031663c2b11e186040518163ffffffff1660e01b8152600401604080518083038186803b158015613afe57600080fd5b505afa158015613b12573d6000803e3d6000fd5b505050506040513d601f19601f82011682018060405250810190613b369190614e5a565b909250905060006103e8613b4d60ff84168961562a565b613b579190615616565b9050613b6d6001600160a01b038b168483614454565b613b778185615649565b60405163152a902d60e11b8152600481018d9052602481018990529094506001600160a01b038d169350632a55205a92506044019050604080518083038186803b158015613bc457600080fd5b505afa925050508015613bf4575060408051601f3d908101601f19168201909252613bf191810190614da0565b60015b613bfd57613c1d565b8015613c1a57613c0d8184615649565b9250613c1a8983836144a6565b50505b613c316001600160a01b0388168683614454565b6001925050505b9695505050505050565b6008546001600160a01b038581169116148015613c635750613c6382613172565b15613c7757613c728383613211565b613c82565b613c8284848461262c565b5050505050565b600054610100900460ff1680613ca2575060005460ff16155b613cbe5760405162461bcd60e51b81526004016108a990615559565b600054610100900460ff16158015613ce0576000805461ffff19166101011790555b8251613cf3906001906020860190614777565b508151613d07906002906020850190614777565b508015610a9e576000805461ff0019169055505050565b600054610100900460ff1680613d37575060005460ff16155b613d535760405162461bcd60e51b81526004016108a990615559565b600054610100900460ff16158015613d75576000805461ffff19166101011790555b600880546001600160a01b0319166001600160a01b0384169081179091556040516000907f8be0079c531659141344cd1fd0a4f28419497f9722a3daafe3b4186f6b6457e0908290a3801561156b576000805461ff00191690555050565b6001600160a01b038216613e1d5760405162461bcd60e51b815260206004820152601160248201527053484f59553a20494e56414c49445f544f60781b60448201526064016108a9565b6000818152600460205260409020546001600160a01b031615613e7a5760405162461bcd60e51b815260206004820152601560248201527414d213d6554e881053149150511657d35253951151605a1b60448201526064016108a9565b6001600160a01b0382166000908152600560205260408120805460019290613ea39084906155fe565b909155505060008181526004602052604080822080546001600160a01b0319166001600160a01b03861690811790915590518392907fddf252ad1be2c89b69c2b068fc378daa952ba7f163c4a11628f55a4df523b3ef908290a45050565b60006001600160a01b0384163b1561400357604051630a85bd0160e11b81526001600160a01b0385169063150b7a0290613f459033908990889088906004016153ae565b602060405180830381600087803b158015613f5f57600080fd5b505af1925050508015613f8f575060408051601f3d908101601f19168201909252613f8c91810190614f4c565b60015b613fe9573d808015613fbd576040519150601f19603f3d011682016040523d82523d6000602084013e613fc2565b606091505b508051613fe15760405162461bcd60e51b81526004016108a9906154c1565b805181602001fd5b6001600160e01b031916630a85bd0160e11b1490506124f9565b506001949350505050565b826001600160a01b031661402182610f92565b6001600160a01b0316146140775760405162461bcd60e51b815260206004820152601960248201527f53484f59553a205452414e534645525f464f5242494444454e0000000000000060448201526064016108a9565b6001600160a01b0382166140cd5760405162461bcd60e51b815260206004820152601860248201527f53484f59553a20494e56414c49445f524543495049454e54000000000000000060448201526064016108a9565b6140d8600082612501565b6001600160a01b0383166000908152600560205260408120805460019290614101908490615649565b90915550506001600160a01b038216600090815260056020526040812080546001929061412f9084906155fe565b909155505060008181526004602052604080822080546001600160a01b0319166001600160a01b0386811691821790925591518493918716917fddf252ad1be2c89b69c2b068fc378daa952ba7f163c4a11628f55a4df523b3ef91a4505050565b60007f7fffffffffffffffffffffffffffffff5d576e7357a4501ddfe92f46681b20a08211156142025760405162461bcd60e51b815260206004820181905260248201527f53484f59553a20494e56414c49445f5349474e41545552455f535f56414c554560448201526064016108a9565b8360ff16601b148061421757508360ff16601c145b6142635760405162461bcd60e51b815260206004820181905260248201527f53484f59553a20494e56414c49445f5349474e41545552455f565f56414c554560448201526064016108a9565b6040805160008082526020820180845288905260ff871692820192909252606081018590526080810184905260019060a0016020604051602081039080840390855afa1580156142b7573d6000803e3d6000fd5b5050604051601f1901519150506001600160a01b03811661431a5760405162461bcd60e51b815260206004820152601860248201527f53484f59553a20494e56414c49445f5349474e4154555245000000000000000060448201526064016108a9565b95945050505050565b600054610100900460ff168061433c575060005460ff16155b6143585760405162461bcd60e51b81526004016108a990615559565b600054610100900460ff1615801561437a576000805461ffff19166101011790555b6131fd614535565b604080516001600160a01b0385811660248301528481166044830152606480830185905283518084039091018152608490920183526020820180516001600160e01b03166323b872dd60e01b179052915160009283928392918916916143e891906152f1565b6000604051808303816000865af19150503d8060008114614425576040519150601f19603f3d011682016040523d82523d6000602084013e61442a565b606091505b5091509150818015612d3a575080511580612d3a575080806020019051810190612d3a9190614ed6565b604080516001600160a01b038416602482015260448082018490528251808303909101815260649091019091526020810180516001600160e01b031663a9059cbb60e01b179052610a9e9084906145aa565b6144ba6001600160a01b0384168383614454565b813b15610a9e57816001600160a01b031663fff6cae96040518163ffffffff1660e01b8152600401602060405180830381600087803b1580156144fc57600080fd5b505af192505050801561452c575060408051601f3d908101601f19168201909252614529918101906151e5565b60015b6109a357610a9e565b600054610100900460ff168061454e575060005460ff16155b61456a5760405162461bcd60e51b81526004016108a990615559565b600054610100900460ff1615801561458c576000805461ffff19166101011790555b6010805460ff191690558015610f8f576000805461ff001916905550565b60006145ff826040518060400160405280602081526020017f5361666545524332303a206c6f772d6c6576656c2063616c6c206661696c6564815250856001600160a01b031661467c9092919063ffffffff16565b805190915015610a9e578080602001905181019061461d9190614ed6565b610a9e5760405162461bcd60e51b815260206004820152602a60248201527f5361666545524332303a204552433230206f7065726174696f6e20646964206e6044820152691bdd081cdd58d8d9595960b21b60648201526084016108a9565b60606124f9848460008585843b6146d55760405162461bcd60e51b815260206004820152601d60248201527f416464726573733a2063616c6c20746f206e6f6e2d636f6e747261637400000060448201526064016108a9565b600080866001600160a01b031685876040516146f191906152f1565b60006040518083038185875af1925050503d806000811461472e576040519150601f19603f3d011682016040523d82523d6000602084013e614733565b606091505b5091509150612d3a8282866060831561474d575081611e0d565b82511561475d5782518084602001fd5b8160405162461bcd60e51b81526004016108a99190615484565b828054614783906156a3565b90600052602060002090601f0160209004810192826147a557600085556147eb565b82601f106147be57805160ff19168380011785556147eb565b828001600101855582156147eb579182015b828111156147eb5782518255916020019190600101906147d0565b506147f79291506147fb565b5090565b5b808211156147f757600081556001016147fc565b80356107dd81615749565b600082601f83011261482b578081fd5b813560206001600160401b0382111561484657614846615733565b8160051b6148558282016155a7565b83815282810190868401838801850189101561486f578687fd5b8693505b85841015614891578035835260019390930192918401918401614873565b50979650505050505050565b600082601f8301126148ad578081fd5b81356148c06148bb826155d7565b6155a7565b8181528460208386010111156148d4578283fd5b816020850160208301379081016020019190915292915050565b60006101a0808385031215614901578182fd5b61490a816155a7565b91505061491682614810565b815261492460208301614810565b602082015261493560408301614810565b6040820152606082013560608201526080820135608082015261495a60a08301614810565b60a082015261496b60c08301614810565b60c082015261497c60e08301614810565b60e08201526101008281013590820152610120808301356001600160401b038111156149a757600080fd5b6149b38582860161489d565b8284015250506101406149c78184016149e9565b9082015261016082810135908201526101809182013591810191909152919050565b80356107dd81615782565b600060208284031215614a05578081fd5b8135611e0d81615749565b60008060408385031215614a22578081fd5b8235614a2d81615749565b91506020830135614a3d81615749565b809150509250929050565b600080600060608486031215614a5c578081fd5b8335614a6781615749565b92506020840135614a7781615749565b929592945050506040919091013590565b60008060008060808587031215614a9d578182fd5b8435614aa881615749565b93506020850135614ab881615749565b92506040850135915060608501356001600160401b03811115614ad9578182fd5b614ae58782880161489d565b91505092959194509250565b60008060008060008060c08789031215614b09578384fd5b8635614b1481615749565b95506020870135614b2481615749565b9450604087013593506060870135614b3b81615782565b9598949750929560808101359460a0909101359350915050565b600080600060608486031215614b69578081fd5b8335614b7481615749565b925060208401356001600160401b0380821115614b8f578283fd5b614b9b8783880161481b565b93506040860135915080821115614bb0578283fd5b50614bbd8682870161489d565b9150509250925092565b60008060408385031215614bd9578182fd5b8235614be481615749565b91506020830135614a3d8161575e565b600080600060608486031215614c08578081fd5b8335614c1381615749565b9250602084013591506040840135614c2a81615749565b809150509250925092565b60008060008060008060c08789031215614c4d578384fd5b8635614c5881615749565b955060208701356001600160401b0380821115614c73578586fd5b614c7f8a838b0161489d565b96506040890135915080821115614c94578586fd5b614ca08a838b0161489d565b95506060890135915080821115614cb5578384fd5b50614cc289828a0161481b565b9350506080870135614cd381615749565b915060a0870135614ce381615782565b809150509295509295509295565b60008060008060008060c08789031215614d09578384fd5b8635614d1481615749565b955060208701356001600160401b0380821115614d2f578586fd5b614d3b8a838b0161489d565b96506040890135915080821115614d50578586fd5b50614d5d89828a0161489d565b945050606087013592506080870135614cd381615749565b60008060408385031215614d87578182fd5b8235614d9281615749565b946020939093013593505050565b60008060408385031215614db2578182fd5b8251614dbd81615749565b6020939093015192949293505050565b600080600060608486031215614de1578081fd5b8335614dec81615749565b92506020840135915060408401356001600160401b03811115614e0d578182fd5b614bbd8682870161489d565b60008060008060008060c08789031215614e31578384fd5b8635614e3c81615749565b955060208701359450604087013593506060870135614b3b81615782565b60008060408385031215614e6c578182fd5b8251614e7781615749565b6020840151909250614a3d81615782565b600060208284031215614e99578081fd5b81356001600160401b03811115614eae578182fd5b6124f98482850161481b565b600060208284031215614ecb578081fd5b8135611e0d8161575e565b600060208284031215614ee7578081fd5b8151611e0d8161575e565b600060208284031215614f03578081fd5b5035919050565b600080600060608486031215614f1e578081fd5b833592506020840135614a7781615749565b600060208284031215614f41578081fd5b8135611e0d8161576c565b600060208284031215614f5d578081fd5b8151611e0d8161576c565b600060208284031215614f79578081fd5b81356001600160401b03811115614f8e578182fd5b6124f98482850161489d565b600060208284031215614fab578081fd5b81516001600160401b03811115614fc0578182fd5b8201601f81018413614fd0578182fd5b8051614fde6148bb826155d7565b818152856020838501011115614ff2578384fd5b61431a826020830160208601615660565b600080600060608486031215615017578081fd5b83356001600160401b038082111561502d578283fd5b6150398783880161489d565b9450602086013591508082111561504e578283fd5b5061505b8682870161489d565b9250506040840135614c2a81615749565b60006020828403121561507d578081fd5b81356001600160401b03811115615092578182fd5b6124f9848285016148ee565b6000808284036101408112156150b2578283fd5b83356001600160401b038111156150c7578384fd5b6150d3868287016148ee565b93505061012080601f19830112156150e9578283fd5b6150f2816155a7565b91506020850135825261510760408601614810565b6020830152606085013560408301526080850135606083015261512c60a08601614810565b608083015261513d60c08601614810565b60a083015261514e60e086016149e9565b60c08301526101008581013560e0840152940135938101939093525092909150565b600080600080600060a08688031215615187578283fd5b85356001600160401b0381111561519c578384fd5b6151a8888289016148ee565b955050602086013593506040860135925060608601356151c781615749565b915060808601356151d781615749565b809150509295509295909350565b6000602082840312156151f6578081fd5b5051919050565b6000806040838503121561520f578182fd5b8235915060208301356001600160401b0381111561522b578182fd5b6152378582860161489d565b9150509250929050565b60008060408385031215615253578182fd5b50508035926020909101359150565b600080600060608486031215615276578081fd5b505081359360208301359350604090920135919050565b60006020828403121561529e578081fd5b8135611e0d81615782565b6000602082840312156152ba578081fd5b8151611e0d81615782565b600081518084526152dd816020860160208601615660565b601f01601f19169290920160200192915050565b60008251615303818460208701615660565b9190910192915050565b6000835161531f818460208801615660565b835190830190615333818360208801615660565b64173539b7b760d91b9101908152600501949350505050565b6000845161535e818460208901615660565b845190830190615372818360208901615660565b602f60f81b9101908152835161538f816001840160208801615660565b64173539b7b760d91b6001929091019182015260060195945050505050565b6001600160a01b0385811682528416602082015260408101839052608060608201819052600090613c38908301846152c5565b6001600160a01b038981168252602082018990526101006040830181905260009161540e8483018b6152c5565b9881166060850152608084019790975250509290931660a083015260c082015260e001529392505050565b6001600160a01b0395861681526020810194909452604084019290925283166060830152909116608082015260a00190565b6000838252604060208301526124f960408301846152c5565b600060208252611e0d60208301846152c5565b60208082526010908201526f29a427acaa9d102327a92124a22222a760811b604082015260600190565b60208082526017908201527f53484f59553a20494e56414c49445f5245434549564552000000000000000000604082015260600190565b60208082526010908201526f14d213d6554e8814915153951490539560821b604082015260600190565b60208082526017908201527f53484f59553a20494e56414c49445f544f4b454e5f4944000000000000000000604082015260600190565b6020808252602e908201527f496e697469616c697a61626c653a20636f6e747261637420697320616c72656160408201526d191e481a5b9a5d1a585b1a5e995960921b606082015260800190565b604051601f8201601f191681016001600160401b03811182821017156155cf576155cf615733565b604052919050565b60006001600160401b038211156155f0576155f0615733565b50601f01601f191660200190565b6000821982111561561157615611615707565b500190565b6000826156255761562561571d565b500490565b600081600019048311821515161561564457615644615707565b500290565b60008282101561565b5761565b615707565b500390565b60005b8381101561567b578181015183820152602001615663565b838111156109a35750506000910152565b60008161569b5761569b615707565b506000190190565b600181811c908216806156b757607f821691505b60208210811415611d5157634e487b7160e01b600052602260045260246000fd5b60006000198214156156ec576156ec615707565b5060010190565b6000826157025761570261571d565b500690565b634e487b7160e01b600052601160045260246000fd5b634e487b7160e01b600052601260045260246000fd5b634e487b7160e01b600052604160045260246000fd5b6001600160a01b0381168114610f8f57600080fd5b8015158114610f8f57600080fd5b6001600160e01b031981168114610f8f57600080fd5b60ff81168114610f8f57600080fdfea26469706673582212203e7845a2fdccaef8d003428d702cd0dc1d3512860722c32ececbf6037f758a2a64736f6c63430008030033",
  "devdoc": {
    "kind": "dev",
    "methods": {
      "approve(address,uint256)": {
        "details": "See {IERC721-approve}."
      },
      "balanceOf(address)": {
        "details": "See {IERC721-balanceOf}."
      },
      "getApproved(uint256)": {
        "details": "See {IERC721-getApproved}."
      },
      "isApprovedForAll(address,address)": {
        "details": "See {IERC721-isApprovedForAll}."
      },
      "name()": {
        "details": "See {IERC721Metadata-name}."
      },
      "owner()": {
        "details": "Returns the address of the current owner."
      },
      "ownerOf(uint256)": {
        "details": "See {IERC721-ownerOf}."
      },
      "renounceOwnership()": {
        "details": "Leaves the contract without owner. It will not be possible to call `onlyOwner` functions anymore. Can only be called by the current owner. NOTE: Renouncing ownership will leave the contract without an owner, thereby removing any functionality that is only available to the owner."
      },
      "safeTransferFrom(address,address,uint256)": {
        "details": "See {IERC721-safeTransferFrom}."
      },
      "safeTransferFrom(address,address,uint256,bytes)": {
        "details": "See {IERC721-safeTransferFrom}."
      },
      "setApprovalForAll(address,bool)": {
        "details": "See {IERC721-setApprovalForAll}."
      },
      "symbol()": {
        "details": "See {IERC721Metadata-symbol}."
      },
      "transferFrom(address,address,uint256)": {
        "details": "See {IERC721-transferFrom}."
      },
      "transferOwnership(address)": {
        "details": "Transfers ownership of the contract to a new account (`newOwner`). Can only be called by the current owner."
      }
    },
    "version": 1
  },
  "userdoc": {
    "kind": "user",
    "methods": {},
    "version": 1
  },
  "storageLayout": {
    "storage": [
      {
        "astId": 115,
        "contract": "contracts/NFT721V1.sol:NFT721V1",
        "label": "_initialized",
        "offset": 0,
        "slot": "0",
        "type": "t_bool"
      },
      {
        "astId": 118,
        "contract": "contracts/NFT721V1.sol:NFT721V1",
        "label": "_initializing",
        "offset": 1,
        "slot": "0",
        "type": "t_bool"
      },
      {
        "astId": 11284,
        "contract": "contracts/NFT721V1.sol:NFT721V1",
        "label": "_name",
        "offset": 0,
        "slot": "1",
        "type": "t_string_storage"
      },
      {
        "astId": 11286,
        "contract": "contracts/NFT721V1.sol:NFT721V1",
        "label": "_symbol",
        "offset": 0,
        "slot": "2",
        "type": "t_string_storage"
      },
      {
        "astId": 11288,
        "contract": "contracts/NFT721V1.sol:NFT721V1",
        "label": "_toTokenIdParked",
        "offset": 0,
        "slot": "3",
        "type": "t_uint256"
      },
      {
        "astId": 11292,
        "contract": "contracts/NFT721V1.sol:NFT721V1",
        "label": "_owners",
        "offset": 0,
        "slot": "4",
        "type": "t_mapping(t_uint256,t_address)"
      },
      {
        "astId": 11296,
        "contract": "contracts/NFT721V1.sol:NFT721V1",
        "label": "_balances",
        "offset": 0,
        "slot": "5",
        "type": "t_mapping(t_address,t_uint256)"
      },
      {
        "astId": 11300,
        "contract": "contracts/NFT721V1.sol:NFT721V1",
        "label": "_tokenApprovals",
        "offset": 0,
        "slot": "6",
        "type": "t_mapping(t_uint256,t_address)"
      },
      {
        "astId": 11306,
        "contract": "contracts/NFT721V1.sol:NFT721V1",
        "label": "_operatorApprovals",
        "offset": 0,
        "slot": "7",
        "type": "t_mapping(t_address,t_mapping(t_address,t_bool))"
      },
      {
        "astId": 12230,
        "contract": "contracts/NFT721V1.sol:NFT721V1",
        "label": "_owner",
        "offset": 0,
        "slot": "8",
        "type": "t_address"
      },
      {
        "astId": 8656,
        "contract": "contracts/NFT721V1.sol:NFT721V1",
        "label": "_DOMAIN_SEPARATOR",
        "offset": 0,
        "slot": "9",
        "type": "t_bytes32"
      },
      {
        "astId": 8658,
        "contract": "contracts/NFT721V1.sol:NFT721V1",
        "label": "_CACHED_CHAIN_ID",
        "offset": 0,
        "slot": "10",
        "type": "t_uint256"
      },
      {
        "astId": 8660,
        "contract": "contracts/NFT721V1.sol:NFT721V1",
        "label": "_factory",
        "offset": 0,
        "slot": "11",
        "type": "t_address"
      },
      {
        "astId": 8662,
        "contract": "contracts/NFT721V1.sol:NFT721V1",
        "label": "__baseURI",
        "offset": 0,
        "slot": "12",
        "type": "t_string_storage"
      },
      {
        "astId": 8666,
        "contract": "contracts/NFT721V1.sol:NFT721V1",
        "label": "_uris",
        "offset": 0,
        "slot": "13",
        "type": "t_mapping(t_uint256,t_string_storage)"
      },
      {
        "astId": 8671,
        "contract": "contracts/NFT721V1.sol:NFT721V1",
        "label": "nonces",
        "offset": 0,
        "slot": "14",
        "type": "t_mapping(t_uint256,t_uint256)"
      },
      {
        "astId": 8676,
        "contract": "contracts/NFT721V1.sol:NFT721V1",
        "label": "noncesForAll",
        "offset": 0,
        "slot": "15",
        "type": "t_mapping(t_address,t_uint256)"
      },
      {
        "astId": 12410,
        "contract": "contracts/NFT721V1.sol:NFT721V1",
        "label": "_status",
        "offset": 0,
        "slot": "16",
        "type": "t_bool"
      },
      {
        "astId": 7053,
        "contract": "contracts/NFT721V1.sol:NFT721V1",
        "label": "_bidHashes",
        "offset": 0,
        "slot": "17",
        "type": "t_mapping(t_address,t_mapping(t_bytes32,t_mapping(t_address,t_bytes32)))"
      },
      {
        "astId": 7059,
        "contract": "contracts/NFT721V1.sol:NFT721V1",
        "label": "bestBid",
        "offset": 0,
        "slot": "18",
        "type": "t_mapping(t_bytes32,t_struct(BestBid)7045_storage)"
      },
      {
        "astId": 7064,
        "contract": "contracts/NFT721V1.sol:NFT721V1",
        "label": "isCancelledOrClaimed",
        "offset": 0,
        "slot": "19",
        "type": "t_mapping(t_bytes32,t_bool)"
      },
      {
        "astId": 7069,
        "contract": "contracts/NFT721V1.sol:NFT721V1",
        "label": "amountFilled",
        "offset": 0,
        "slot": "20",
        "type": "t_mapping(t_bytes32,t_uint256)"
      },
      {
        "astId": 4723,
        "contract": "contracts/NFT721V1.sol:NFT721V1",
        "label": "_MAX_ROYALTY_FEE",
        "offset": 0,
        "slot": "21",
        "type": "t_uint8"
      },
      {
        "astId": 4725,
        "contract": "contracts/NFT721V1.sol:NFT721V1",
        "label": "_royaltyFeeRecipient",
        "offset": 1,
        "slot": "21",
        "type": "t_address"
      },
      {
        "astId": 4727,
        "contract": "contracts/NFT721V1.sol:NFT721V1",
        "label": "_royaltyFee",
        "offset": 21,
        "slot": "21",
        "type": "t_uint8"
      },
      {
        "astId": 12162,
        "contract": "contracts/NFT721V1.sol:NFT721V1",
        "label": "_wasLocked",
        "offset": 22,
        "slot": "21",
        "type": "t_bool"
      },
      {
        "astId": 12165,
        "contract": "contracts/NFT721V1.sol:NFT721V1",
        "label": "locked",
        "offset": 23,
        "slot": "21",
        "type": "t_bool"
      }
    ],
    "types": {
      "t_address": {
        "encoding": "inplace",
        "label": "address",
        "numberOfBytes": "20"
      },
      "t_bool": {
        "encoding": "inplace",
        "label": "bool",
        "numberOfBytes": "1"
      },
      "t_bytes32": {
        "encoding": "inplace",
        "label": "bytes32",
        "numberOfBytes": "32"
      },
      "t_mapping(t_address,t_bool)": {
        "encoding": "mapping",
        "key": "t_address",
        "label": "mapping(address => bool)",
        "numberOfBytes": "32",
        "value": "t_bool"
      },
      "t_mapping(t_address,t_bytes32)": {
        "encoding": "mapping",
        "key": "t_address",
        "label": "mapping(address => bytes32)",
        "numberOfBytes": "32",
        "value": "t_bytes32"
      },
      "t_mapping(t_address,t_mapping(t_address,t_bool))": {
        "encoding": "mapping",
        "key": "t_address",
        "label": "mapping(address => mapping(address => bool))",
        "numberOfBytes": "32",
        "value": "t_mapping(t_address,t_bool)"
      },
      "t_mapping(t_address,t_mapping(t_bytes32,t_mapping(t_address,t_bytes32)))": {
        "encoding": "mapping",
        "key": "t_address",
        "label": "mapping(address => mapping(bytes32 => mapping(address => bytes32)))",
        "numberOfBytes": "32",
        "value": "t_mapping(t_bytes32,t_mapping(t_address,t_bytes32))"
      },
      "t_mapping(t_address,t_uint256)": {
        "encoding": "mapping",
        "key": "t_address",
        "label": "mapping(address => uint256)",
        "numberOfBytes": "32",
        "value": "t_uint256"
      },
      "t_mapping(t_bytes32,t_bool)": {
        "encoding": "mapping",
        "key": "t_bytes32",
        "label": "mapping(bytes32 => bool)",
        "numberOfBytes": "32",
        "value": "t_bool"
      },
      "t_mapping(t_bytes32,t_mapping(t_address,t_bytes32))": {
        "encoding": "mapping",
        "key": "t_bytes32",
        "label": "mapping(bytes32 => mapping(address => bytes32))",
        "numberOfBytes": "32",
        "value": "t_mapping(t_address,t_bytes32)"
      },
      "t_mapping(t_bytes32,t_struct(BestBid)7045_storage)": {
        "encoding": "mapping",
        "key": "t_bytes32",
        "label": "mapping(bytes32 => struct BaseExchange.BestBid)",
        "numberOfBytes": "32",
        "value": "t_struct(BestBid)7045_storage"
      },
      "t_mapping(t_bytes32,t_uint256)": {
        "encoding": "mapping",
        "key": "t_bytes32",
        "label": "mapping(bytes32 => uint256)",
        "numberOfBytes": "32",
        "value": "t_uint256"
      },
      "t_mapping(t_uint256,t_address)": {
        "encoding": "mapping",
        "key": "t_uint256",
        "label": "mapping(uint256 => address)",
        "numberOfBytes": "32",
        "value": "t_address"
      },
      "t_mapping(t_uint256,t_string_storage)": {
        "encoding": "mapping",
        "key": "t_uint256",
        "label": "mapping(uint256 => string)",
        "numberOfBytes": "32",
        "value": "t_string_storage"
      },
      "t_mapping(t_uint256,t_uint256)": {
        "encoding": "mapping",
        "key": "t_uint256",
        "label": "mapping(uint256 => uint256)",
        "numberOfBytes": "32",
        "value": "t_uint256"
      },
      "t_string_storage": {
        "encoding": "bytes",
        "label": "string",
        "numberOfBytes": "32"
      },
      "t_struct(BestBid)7045_storage": {
        "encoding": "inplace",
        "label": "struct BaseExchange.BestBid",
        "members": [
          {
            "astId": 7034,
            "contract": "contracts/NFT721V1.sol:NFT721V1",
            "label": "bidder",
            "offset": 0,
            "slot": "0",
            "type": "t_address"
          },
          {
            "astId": 7036,
            "contract": "contracts/NFT721V1.sol:NFT721V1",
            "label": "amount",
            "offset": 0,
            "slot": "1",
            "type": "t_uint256"
          },
          {
            "astId": 7038,
            "contract": "contracts/NFT721V1.sol:NFT721V1",
            "label": "price",
            "offset": 0,
            "slot": "2",
            "type": "t_uint256"
          },
          {
            "astId": 7040,
            "contract": "contracts/NFT721V1.sol:NFT721V1",
            "label": "recipient",
            "offset": 0,
            "slot": "3",
            "type": "t_address"
          },
          {
            "astId": 7042,
            "contract": "contracts/NFT721V1.sol:NFT721V1",
            "label": "referrer",
            "offset": 0,
            "slot": "4",
            "type": "t_address"
          },
          {
            "astId": 7044,
            "contract": "contracts/NFT721V1.sol:NFT721V1",
            "label": "timestamp",
            "offset": 0,
            "slot": "5",
            "type": "t_uint256"
          }
        ],
        "numberOfBytes": "192"
      },
      "t_uint256": {
        "encoding": "inplace",
        "label": "uint256",
        "numberOfBytes": "32"
      },
      "t_uint8": {
        "encoding": "inplace",
        "label": "uint8",
        "numberOfBytes": "1"
      }
    }
  }
}