{
  "address": "0xD4D78601e0Ca885bA13c7ADBcE5E11454A2b270F",
  "abi": [
    {
      "anonymous": false,
      "inputs": [
        {
          "indexed": true,
          "internalType": "address",
          "name": "owner",
          "type": "address"
        },
        {
          "indexed": true,
          "internalType": "address",
          "name": "spender",
          "type": "address"
        },
        {
          "indexed": false,
          "internalType": "uint256",
          "name": "value",
          "type": "uint256"
        }
      ],
      "name": "Approval",
      "type": "event"
    },
    {
      "anonymous": false,
      "inputs": [
        {
          "indexed": true,
          "internalType": "bytes32",
          "name": "hash",
          "type": "bytes32"
        },
        {
          "indexed": false,
          "internalType": "address",
          "name": "bidder",
          "type": "address"
        },
        {
          "indexed": false,
          "internalType": "uint256",
          "name": "amount",
          "type": "uint256"
        },
        {
          "indexed": false,
          "internalType": "uint256",
          "name": "price",
          "type": "uint256"
        },
        {
          "indexed": false,
          "internalType": "address",
          "name": "recipient",
          "type": "address"
        },
        {
          "indexed": false,
          "internalType": "address",
          "name": "referrer",
          "type": "address"
        }
      ],
      "name": "Bid",
      "type": "event"
    },
    {
      "anonymous": false,
      "inputs": [
        {
          "indexed": false,
          "internalType": "uint256",
          "name": "amount",
          "type": "uint256"
        },
        {
          "indexed": true,
          "internalType": "uint256",
          "name": "label",
          "type": "uint256"
        },
        {
          "indexed": false,
          "internalType": "bytes32",
          "name": "data",
          "type": "bytes32"
        }
      ],
      "name": "Burn",
      "type": "event"
    },
    {
      "anonymous": false,
      "inputs": [
        {
          "indexed": true,
          "internalType": "bytes32",
          "name": "hash",
          "type": "bytes32"
        }
      ],
      "name": "Cancel",
      "type": "event"
    },
    {
      "anonymous": false,
      "inputs": [
        {
          "indexed": true,
          "internalType": "address",
          "name": "to",
          "type": "address"
        },
        {
          "indexed": false,
          "internalType": "uint256",
          "name": "amount",
          "type": "uint256"
        }
      ],
      "name": "DividendWithdrawn",
      "type": "event"
    },
    {
      "anonymous": false,
      "inputs": [
        {
          "indexed": true,
          "internalType": "bytes32",
          "name": "hash",
          "type": "bytes32"
        },
        {
          "indexed": false,
          "internalType": "address",
          "name": "bidder",
          "type": "address"
        },
        {
          "indexed": false,
          "internalType": "uint256",
          "name": "amount",
          "type": "uint256"
        },
        {
          "indexed": false,
          "internalType": "uint256",
          "name": "price",
          "type": "uint256"
        },
        {
          "indexed": false,
          "internalType": "address",
          "name": "recipient",
          "type": "address"
        },
        {
          "indexed": false,
          "internalType": "address",
          "name": "referrer",
          "type": "address"
        }
      ],
      "name": "Execute",
      "type": "event"
    },
    {
      "anonymous": false,
      "inputs": [
        {
          "indexed": true,
          "internalType": "address",
          "name": "previousOwner",
          "type": "address"
        },
        {
          "indexed": true,
          "internalType": "address",
          "name": "newOwner",
          "type": "address"
        }
      ],
      "name": "OwnershipTransferred",
      "type": "event"
    },
    {
      "anonymous": false,
      "inputs": [
        {
          "indexed": false,
          "internalType": "uint256",
          "name": "increased",
          "type": "uint256"
        }
      ],
      "name": "Sync",
      "type": "event"
    },
    {
      "anonymous": false,
      "inputs": [
        {
          "indexed": true,
          "internalType": "address",
          "name": "from",
          "type": "address"
        },
        {
          "indexed": true,
          "internalType": "address",
          "name": "to",
          "type": "address"
        },
        {
          "indexed": false,
          "internalType": "uint256",
          "name": "value",
          "type": "uint256"
        }
      ],
      "name": "Transfer",
      "type": "event"
    },
    {
      "inputs": [],
      "name": "DOMAIN_SEPARATOR",
      "outputs": [
        {
          "internalType": "bytes32",
          "name": "",
          "type": "bytes32"
        }
      ],
      "stateMutability": "view",
      "type": "function"
    },
    {
      "inputs": [],
      "name": "MAGNITUDE",
      "outputs": [
        {
          "internalType": "uint256",
          "name": "",
          "type": "uint256"
        }
      ],
      "stateMutability": "view",
      "type": "function"
    },
    {
      "inputs": [
        {
          "internalType": "address",
          "name": "account",
          "type": "address"
        }
      ],
      "name": "accumulativeDividendOf",
      "outputs": [
        {
          "internalType": "uint256",
          "name": "",
          "type": "uint256"
        }
      ],
      "stateMutability": "view",
      "type": "function"
    },
    {
      "inputs": [
        {
          "internalType": "address",
          "name": "owner",
          "type": "address"
        },
        {
          "internalType": "address",
          "name": "spender",
          "type": "address"
        }
      ],
      "name": "allowance",
      "outputs": [
        {
          "internalType": "uint256",
          "name": "",
          "type": "uint256"
        }
      ],
      "stateMutability": "view",
      "type": "function"
    },
    {
      "inputs": [
        {
          "internalType": "bytes32",
          "name": "",
          "type": "bytes32"
        }
      ],
      "name": "amountFilled",
      "outputs": [
        {
          "internalType": "uint256",
          "name": "",
          "type": "uint256"
        }
      ],
      "stateMutability": "view",
      "type": "function"
    },
    {
      "inputs": [
        {
          "internalType": "address",
          "name": "spender",
          "type": "address"
        },
        {
          "internalType": "uint256",
          "name": "amount",
          "type": "uint256"
        }
      ],
      "name": "approve",
      "outputs": [
        {
          "internalType": "bool",
          "name": "",
          "type": "bool"
        }
      ],
      "stateMutability": "nonpayable",
      "type": "function"
    },
    {
      "inputs": [
        {
          "internalType": "address",
          "name": "account",
          "type": "address"
        }
      ],
      "name": "balanceOf",
      "outputs": [
        {
          "internalType": "uint256",
          "name": "",
          "type": "uint256"
        }
      ],
      "stateMutability": "view",
      "type": "function"
    },
    {
      "inputs": [
        {
          "internalType": "bytes32",
          "name": "",
          "type": "bytes32"
        }
      ],
      "name": "bestBid",
      "outputs": [
        {
          "internalType": "address",
          "name": "bidder",
          "type": "address"
        },
        {
          "internalType": "uint256",
          "name": "amount",
          "type": "uint256"
        },
        {
          "internalType": "uint256",
          "name": "price",
          "type": "uint256"
        },
        {
          "internalType": "address",
          "name": "recipient",
          "type": "address"
        },
        {
          "internalType": "address",
          "name": "referrer",
          "type": "address"
        },
        {
          "internalType": "uint256",
          "name": "blockNumber",
          "type": "uint256"
        }
      ],
      "stateMutability": "view",
      "type": "function"
    },
    {
      "inputs": [
        {
          "components": [
            {
              "internalType": "address",
              "name": "signer",
              "type": "address"
            },
            {
              "internalType": "address",
              "name": "token",
              "type": "address"
            },
            {
              "internalType": "uint256",
              "name": "tokenId",
              "type": "uint256"
            },
            {
              "internalType": "uint256",
              "name": "amount",
              "type": "uint256"
            },
            {
              "internalType": "address",
              "name": "strategy",
              "type": "address"
            },
            {
              "internalType": "address",
              "name": "currency",
              "type": "address"
            },
            {
              "internalType": "address",
              "name": "recipient",
              "type": "address"
            },
            {
              "internalType": "uint256",
              "name": "deadline",
              "type": "uint256"
            },
            {
              "internalType": "bytes",
              "name": "params",
              "type": "bytes"
            },
            {
              "internalType": "uint8",
              "name": "v",
              "type": "uint8"
            },
            {
              "internalType": "bytes32",
              "name": "r",
              "type": "bytes32"
            },
            {
              "internalType": "bytes32",
              "name": "s",
              "type": "bytes32"
            }
          ],
          "internalType": "struct Orders.Ask",
          "name": "askOrder",
          "type": "tuple"
        },
        {
          "internalType": "uint256",
          "name": "bidAmount",
          "type": "uint256"
        },
        {
          "internalType": "uint256",
          "name": "bidPrice",
          "type": "uint256"
        },
        {
          "internalType": "address",
          "name": "bidRecipient",
          "type": "address"
        },
        {
          "internalType": "address",
          "name": "bidReferrer",
          "type": "address"
        }
      ],
      "name": "bid",
      "outputs": [
        {
          "internalType": "bool",
          "name": "executed",
          "type": "bool"
        }
      ],
      "stateMutability": "nonpayable",
      "type": "function"
    },
    {
      "inputs": [
        {
          "components": [
            {
              "internalType": "address",
              "name": "signer",
              "type": "address"
            },
            {
              "internalType": "address",
              "name": "token",
              "type": "address"
            },
            {
              "internalType": "uint256",
              "name": "tokenId",
              "type": "uint256"
            },
            {
              "internalType": "uint256",
              "name": "amount",
              "type": "uint256"
            },
            {
              "internalType": "address",
              "name": "strategy",
              "type": "address"
            },
            {
              "internalType": "address",
              "name": "currency",
              "type": "address"
            },
            {
              "internalType": "address",
              "name": "recipient",
              "type": "address"
            },
            {
              "internalType": "uint256",
              "name": "deadline",
              "type": "uint256"
            },
            {
              "internalType": "bytes",
              "name": "params",
              "type": "bytes"
            },
            {
              "internalType": "uint8",
              "name": "v",
              "type": "uint8"
            },
            {
              "internalType": "bytes32",
              "name": "r",
              "type": "bytes32"
            },
            {
              "internalType": "bytes32",
              "name": "s",
              "type": "bytes32"
            }
          ],
          "internalType": "struct Orders.Ask",
          "name": "askOrder",
          "type": "tuple"
        },
        {
          "components": [
            {
              "internalType": "bytes32",
              "name": "askHash",
              "type": "bytes32"
            },
            {
              "internalType": "address",
              "name": "signer",
              "type": "address"
            },
            {
              "internalType": "uint256",
              "name": "amount",
              "type": "uint256"
            },
            {
              "internalType": "uint256",
              "name": "price",
              "type": "uint256"
            },
            {
              "internalType": "address",
              "name": "recipient",
              "type": "address"
            },
            {
              "internalType": "address",
              "name": "referrer",
              "type": "address"
            },
            {
              "internalType": "uint8",
              "name": "v",
              "type": "uint8"
            },
            {
              "internalType": "bytes32",
              "name": "r",
              "type": "bytes32"
            },
            {
              "internalType": "bytes32",
              "name": "s",
              "type": "bytes32"
            }
          ],
          "internalType": "struct Orders.Bid",
          "name": "bidOrder",
          "type": "tuple"
        }
      ],
      "name": "bid",
      "outputs": [
        {
          "internalType": "bool",
          "name": "executed",
          "type": "bool"
        }
      ],
      "stateMutability": "nonpayable",
      "type": "function"
    },
    {
      "inputs": [
        {
          "internalType": "uint256",
          "name": "value",
          "type": "uint256"
        },
        {
          "internalType": "uint256",
          "name": "label",
          "type": "uint256"
        },
        {
          "internalType": "bytes32",
          "name": "data",
          "type": "bytes32"
        }
      ],
      "name": "burn",
      "outputs": [],
      "stateMutability": "nonpayable",
      "type": "function"
    },
    {
      "inputs": [
        {
          "internalType": "address",
          "name": "token",
          "type": "address"
        }
      ],
      "name": "canTrade",
      "outputs": [
        {
          "internalType": "bool",
          "name": "",
          "type": "bool"
        }
      ],
      "stateMutability": "view",
      "type": "function"
    },
    {
      "inputs": [
        {
          "components": [
            {
              "internalType": "address",
              "name": "signer",
              "type": "address"
            },
            {
              "internalType": "address",
              "name": "token",
              "type": "address"
            },
            {
              "internalType": "uint256",
              "name": "tokenId",
              "type": "uint256"
            },
            {
              "internalType": "uint256",
              "name": "amount",
              "type": "uint256"
            },
            {
              "internalType": "address",
              "name": "strategy",
              "type": "address"
            },
            {
              "internalType": "address",
              "name": "currency",
              "type": "address"
            },
            {
              "internalType": "address",
              "name": "recipient",
              "type": "address"
            },
            {
              "internalType": "uint256",
              "name": "deadline",
              "type": "uint256"
            },
            {
              "internalType": "bytes",
              "name": "params",
              "type": "bytes"
            },
            {
              "internalType": "uint8",
              "name": "v",
              "type": "uint8"
            },
            {
              "internalType": "bytes32",
              "name": "r",
              "type": "bytes32"
            },
            {
              "internalType": "bytes32",
              "name": "s",
              "type": "bytes32"
            }
          ],
          "internalType": "struct Orders.Ask",
          "name": "order",
          "type": "tuple"
        }
      ],
      "name": "cancel",
      "outputs": [],
      "stateMutability": "nonpayable",
      "type": "function"
    },
    {
      "inputs": [
        {
          "components": [
            {
              "internalType": "address",
              "name": "signer",
              "type": "address"
            },
            {
              "internalType": "address",
              "name": "token",
              "type": "address"
            },
            {
              "internalType": "uint256",
              "name": "tokenId",
              "type": "uint256"
            },
            {
              "internalType": "uint256",
              "name": "amount",
              "type": "uint256"
            },
            {
              "internalType": "address",
              "name": "strategy",
              "type": "address"
            },
            {
              "internalType": "address",
              "name": "currency",
              "type": "address"
            },
            {
              "internalType": "address",
              "name": "recipient",
              "type": "address"
            },
            {
              "internalType": "uint256",
              "name": "deadline",
              "type": "uint256"
            },
            {
              "internalType": "bytes",
              "name": "params",
              "type": "bytes"
            },
            {
              "internalType": "uint8",
              "name": "v",
              "type": "uint8"
            },
            {
              "internalType": "bytes32",
              "name": "r",
              "type": "bytes32"
            },
            {
              "internalType": "bytes32",
              "name": "s",
              "type": "bytes32"
            }
          ],
          "internalType": "struct Orders.Ask",
          "name": "askOrder",
          "type": "tuple"
        }
      ],
      "name": "claim",
      "outputs": [],
      "stateMutability": "nonpayable",
      "type": "function"
    },
    {
      "inputs": [],
      "name": "decimals",
      "outputs": [
        {
          "internalType": "uint8",
          "name": "",
          "type": "uint8"
        }
      ],
      "stateMutability": "view",
      "type": "function"
    },
    {
      "inputs": [
        {
          "internalType": "address",
          "name": "spender",
          "type": "address"
        },
        {
          "internalType": "uint256",
          "name": "subtractedValue",
          "type": "uint256"
        }
      ],
      "name": "decreaseAllowance",
      "outputs": [
        {
          "internalType": "bool",
          "name": "",
          "type": "bool"
        }
      ],
      "stateMutability": "nonpayable",
      "type": "function"
    },
    {
      "inputs": [
        {
          "internalType": "address",
          "name": "account",
          "type": "address"
        }
      ],
      "name": "dividendOf",
      "outputs": [
        {
          "internalType": "uint256",
          "name": "",
          "type": "uint256"
        }
      ],
      "stateMutability": "view",
      "type": "function"
    },
    {
      "inputs": [],
      "name": "dividendToken",
      "outputs": [
        {
          "internalType": "address",
          "name": "",
          "type": "address"
        }
      ],
      "stateMutability": "view",
      "type": "function"
    },
    {
      "inputs": [],
      "name": "factory",
      "outputs": [
        {
          "internalType": "address",
          "name": "",
          "type": "address"
        }
      ],
      "stateMutability": "view",
      "type": "function"
    },
    {
      "inputs": [
        {
          "internalType": "address",
          "name": "spender",
          "type": "address"
        },
        {
          "internalType": "uint256",
          "name": "addedValue",
          "type": "uint256"
        }
      ],
      "name": "increaseAllowance",
      "outputs": [
        {
          "internalType": "bool",
          "name": "",
          "type": "bool"
        }
      ],
      "stateMutability": "nonpayable",
      "type": "function"
    },
    {
      "inputs": [
        {
          "internalType": "address",
          "name": "_owner",
          "type": "address"
        },
        {
          "internalType": "string",
          "name": "_name",
          "type": "string"
        },
        {
          "internalType": "string",
          "name": "_symbol",
          "type": "string"
        },
        {
          "internalType": "address",
          "name": "_dividendToken",
          "type": "address"
        }
      ],
      "name": "initialize",
      "outputs": [],
      "stateMutability": "nonpayable",
      "type": "function"
    },
    {
      "inputs": [
        {
          "internalType": "bytes32",
          "name": "",
          "type": "bytes32"
        }
      ],
      "name": "isCancelled",
      "outputs": [
        {
          "internalType": "bool",
          "name": "",
          "type": "bool"
        }
      ],
      "stateMutability": "view",
      "type": "function"
    },
    {
      "inputs": [
        {
          "internalType": "address",
          "name": "account",
          "type": "address"
        },
        {
          "internalType": "uint256",
          "name": "value",
          "type": "uint256"
        }
      ],
      "name": "mint",
      "outputs": [],
      "stateMutability": "nonpayable",
      "type": "function"
    },
    {
      "inputs": [],
      "name": "name",
      "outputs": [
        {
          "internalType": "string",
          "name": "",
          "type": "string"
        }
      ],
      "stateMutability": "view",
      "type": "function"
    },
    {
      "inputs": [],
      "name": "owner",
      "outputs": [
        {
          "internalType": "address",
          "name": "",
          "type": "address"
        }
      ],
      "stateMutability": "view",
      "type": "function"
    },
    {
      "inputs": [],
      "name": "renounceOwnership",
      "outputs": [],
      "stateMutability": "nonpayable",
      "type": "function"
    },
    {
      "inputs": [],
      "name": "royaltyFeeInfo",
      "outputs": [
        {
          "internalType": "address",
          "name": "",
          "type": "address"
        },
        {
          "internalType": "uint8",
          "name": "",
          "type": "uint8"
        }
      ],
      "stateMutability": "view",
      "type": "function"
    },
    {
      "inputs": [],
      "name": "symbol",
      "outputs": [
        {
          "internalType": "string",
          "name": "",
          "type": "string"
        }
      ],
      "stateMutability": "view",
      "type": "function"
    },
    {
      "inputs": [],
      "name": "sync",
      "outputs": [
        {
          "internalType": "uint256",
          "name": "increased",
          "type": "uint256"
        }
      ],
      "stateMutability": "payable",
      "type": "function"
    },
    {
      "inputs": [],
      "name": "totalDividend",
      "outputs": [
        {
          "internalType": "uint256",
          "name": "",
          "type": "uint256"
        }
      ],
      "stateMutability": "view",
      "type": "function"
    },
    {
      "inputs": [],
      "name": "totalSupply",
      "outputs": [
        {
          "internalType": "uint256",
          "name": "",
          "type": "uint256"
        }
      ],
      "stateMutability": "view",
      "type": "function"
    },
    {
      "inputs": [
        {
          "internalType": "address",
          "name": "recipient",
          "type": "address"
        },
        {
          "internalType": "uint256",
          "name": "amount",
          "type": "uint256"
        }
      ],
      "name": "transfer",
      "outputs": [
        {
          "internalType": "bool",
          "name": "",
          "type": "bool"
        }
      ],
      "stateMutability": "nonpayable",
      "type": "function"
    },
    {
      "inputs": [
        {
          "internalType": "address",
          "name": "sender",
          "type": "address"
        },
        {
          "internalType": "address",
          "name": "recipient",
          "type": "address"
        },
        {
          "internalType": "uint256",
          "name": "amount",
          "type": "uint256"
        }
      ],
      "name": "transferFrom",
      "outputs": [
        {
          "internalType": "bool",
          "name": "",
          "type": "bool"
        }
      ],
      "stateMutability": "nonpayable",
      "type": "function"
    },
    {
      "inputs": [
        {
          "internalType": "address",
          "name": "newOwner",
          "type": "address"
        }
      ],
      "name": "transferOwnership",
      "outputs": [],
      "stateMutability": "nonpayable",
      "type": "function"
    },
    {
      "inputs": [],
      "name": "withdrawDividend",
      "outputs": [],
      "stateMutability": "nonpayable",
      "type": "function"
    },
    {
      "inputs": [
        {
          "internalType": "address",
          "name": "account",
          "type": "address"
        }
      ],
      "name": "withdrawableDividendOf",
      "outputs": [
        {
          "internalType": "uint256",
          "name": "",
          "type": "uint256"
        }
      ],
      "stateMutability": "view",
      "type": "function"
    },
    {
      "inputs": [
        {
          "internalType": "address",
          "name": "account",
          "type": "address"
        }
      ],
      "name": "withdrawnDividendOf",
      "outputs": [
        {
          "internalType": "uint256",
          "name": "",
          "type": "uint256"
        }
      ],
      "stateMutability": "view",
      "type": "function"
    },
    {
      "stateMutability": "payable",
      "type": "receive"
    }
  ],
  "transactionHash": "0x72cbb3b2d53199269c3444035188b36fbbb8428753284de8abfc40cda0230a0b",
  "args": [],
  "solcInputHash": "0056a31e1c0a7327389c58e1bb166d1c",
  "bytecode": "0x608060405234801561001057600080fd5b506139dd806100206000396000f3fe60806040526004361061021d5760003560e01c80636a474002116101235780639a5d4407116100ab578063c45a01551161006f578063c45a01551461075a578063dd62ed3e14610778578063def27164146107be578063f2fde38b146107de578063fff6cae9146107fe57610292565b80639a5d440714610694578063a457c2d7146106c4578063a8b9d240146106e4578063a9059cbb14610704578063aafd847a1461072457610292565b806375e6590f116100f257806375e6590f146105f45780638da5cb5b1461062157806391b89fba1461063f5780639443792c1461065f57806395d89b411461067f57610292565b80636a4740021461057c5780636d3036a71461059157806370a08231146105a9578063715018a6146105df57610292565b80633644e515116101a65780634b6acafb116101755780634b6acafb1461045a57806350bf994a14610470578063559f05dc146104915780635771f997146104bd578063613d25bb1461055c57610292565b80633644e515146103e557806339509351146103fa57806340c10f191461041a57806344f09d111461043a57610292565b80631582358e116101ed5780631582358e1461033257806318160ddd1461036a57806323b872dd1461038957806327ce0147146103a9578063313ce567146103c957610292565b8062893bf81461029757806306fdde03146102b75780630935d663146102e2578063095ea7b31461030257610292565b36610292573415610290576006546001600160a01b0316156102865760405162461bcd60e51b815260206004820152601c60248201527f53484f59553a20554e41424c455f544f5f524543454956455f4554480000000060448201526064015b60405180910390fd5b61028e610802565b505b005b600080fd5b3480156102a357600080fd5b506102906102b236600461340f565b61093a565b3480156102c357600080fd5b506102cc610a0e565b6040516102d991906136a0565b60405180910390f35b3480156102ee57600080fd5b506102906102fd36600461340f565b610aa0565b34801561030e57600080fd5b5061032261031d366004613356565b610e12565b60405190151581526020016102d9565b34801561033e57600080fd5b50600654610352906001600160a01b031681565b6040516001600160a01b0390911681526020016102d9565b34801561037657600080fd5b506003545b6040519081526020016102d9565b34801561039557600080fd5b506103226103a4366004613290565b610e29565b3480156103b557600080fd5b5061037b6103c436600461323c565b610ecb565b3480156103d557600080fd5b50604051601281526020016102d9565b3480156103f157600080fd5b5060105461037b565b34801561040657600080fd5b50610322610415366004613356565b610f30565b34801561042657600080fd5b50610290610435366004613356565b610f67565b34801561044657600080fd5b50610322610455366004613515565b610f9f565b34801561046657600080fd5b5061037b60075481565b34801561047c57600080fd5b506040805160008082526020820152016102d9565b34801561049d57600080fd5b506103226104ac36600461323c565b6001600160a01b0381163014919050565b3480156104c957600080fd5b5061051d6104d83660046133cf565b600c602052600090815260409020805460018201546002830154600384015460048501546005909501546001600160a01b039485169593949293918316929091169086565b604080516001600160a01b03978816815260208101969096528501939093529084166060840152909216608082015260a081019190915260c0016102d9565b34801561056857600080fd5b506102906105773660046132d0565b610fef565b34801561058857600080fd5b506102906110fc565b34801561059d57600080fd5b5061037b600160801b81565b3480156105b557600080fd5b5061037b6105c436600461323c565b6001600160a01b031660009081526001602052604090205490565b3480156105eb57600080fd5b50610290611199565b34801561060057600080fd5b5061037b61060f3660046133cf565b600e6020526000908152604090205481565b34801561062d57600080fd5b50600f546001600160a01b0316610352565b34801561064b57600080fd5b5061037b61065a36600461323c565b61120d565b34801561066b57600080fd5b5061029061067a3660046135a3565b611218565b34801561068b57600080fd5b506102cc611262565b3480156106a057600080fd5b506103226106af3660046133cf565b600d6020526000908152604090205460ff1681565b3480156106d057600080fd5b506103226106df366004613356565b611271565b3480156106f057600080fd5b5061037b6106ff36600461323c565b6112fe565b34801561071057600080fd5b5061032261071f366004613356565b61132a565b34801561073057600080fd5b5061037b61073f36600461323c565b6001600160a01b03166000908152600a602052604090205490565b34801561076657600080fd5b506011546001600160a01b0316610352565b34801561078457600080fd5b5061037b610793366004613258565b6001600160a01b03918216600090815260026020908152604080832093909416825291909152205490565b3480156107ca57600080fd5b506103226107d9366004613442565b611337565b3480156107ea57600080fd5b506102906107f936600461323c565b61145f565b61037b5b60008061080e60035490565b9050600081116108535760405162461bcd60e51b815260206004820152601060248201526f53484f59553a204e4f5f535550504c5960801b604482015260640161027d565b60065460009061086c906001600160a01b03163061153b565b90506007548161087c91906138d9565b9250600083116108ce5760405162461bcd60e51b815260206004820152601a60248201527f53484f59553a20494e53554646494349454e545f414d4f554e54000000000000604482015260640161027d565b816108dd600160801b8561387b565b6108e7919061385b565b600860008282546108f89190613843565b909155505060078190556040518381527f8a0df8ef054fae2c3d2d19a7b322e864870cc9fd3cb07fb9526309c596244bf49060200160405180910390a1505090565b80516001600160a01b031633146109635760405162461bcd60e51b815260040161027d906136b3565b600061096e826115dc565b6000818152600c60205260409020549091506001600160a01b0316156109ca5760405162461bcd60e51b815260206004820152601160248201527053484f59553a204249445f45584953545360781b604482015260640161027d565b6000818152600d6020526040808220805460ff191660011790555182917fe8d9861dbc9c663ed3accd261bbe2fe01e0d3d9e5f51fa38523b265c7757a93a91a25050565b606060048054610a1d9061391c565b80601f0160208091040260200160405190810160405280929190818152602001828054610a499061391c565b8015610a965780601f10610a6b57610100808354040283529160200191610a96565b820191906000526020600020905b815481529060010190602001808311610a7957829003601f168201915b5050505050905090565b6002600b541415610ac35760405162461bcd60e51b815260040161027d906136dd565b6002600b5560208101516001600160a01b03163014610b1e5760405162461bcd60e51b815260206004820152601760248201527653484f59553a20494e56414c49445f45584348414e474560481b604482015260640161027d565b6000610b29826115dc565b9050610b3582826116ba565b610b5581836000015184610120015185610140015186610160015161197f565b6000818152600c6020908152604091829020825160c08101845281546001600160a01b039081168083526001840154948301949094526002830154828601819052600384015482166060840152600480850154831660808086019190915260059095015460a08501529388015160e08901516101008a0151975163e01be26360e01b81529497919093169563e01be26395610bf4959293919201613755565b60206040518083038186803b158015610c0c57600080fd5b505afa158015610c20573d6000803e3d6000fd5b505050506040513d601f19601f82011682018060405250810190610c4491906133af565b610c815760405162461bcd60e51b815260206004820152600e60248201526d53484f59553a204641494c55524560901b604482015260640161027d565b60c08301516001600160a01b038116610c98575082515b610cbf8460a0015183600001518385602001518660400151610cba919061387b565b611b98565b15610dc6576020808301516000858152600e909252604090912054610ce49190613843565b6000848152600e602052604090205560608201516001600160a01b038116610d0a575081515b610d27856020015186600001518388604001518760200151611dbc565b6000848152600c6020908152604080832080546001600160a01b03199081168255600182018590556002820185905560038201805482169055600482018054909116905560050192909255845190850151858301516080870151935188947f72fd87c5ad3903eb05815544ef7ea4640a18e631c9c02eb099c810834f82355594610db8949093909290918891613616565b60405180910390a250610e07565b6000838152600d6020526040808220805460ff191660011790555184917fe8d9861dbc9c663ed3accd261bbe2fe01e0d3d9e5f51fa38523b265c7757a93a91a25b50506001600b555050565b6000610e1f338484611dc7565b5060015b92915050565b6000610e36848484611ec5565b6001600160a01b038416600090815260026020908152604080832033845290915290205482811015610eaa5760405162461bcd60e51b815260206004820152601d60248201527f53484f59553a20494e53554646494349454e545f414c4c4f57414e4345000000604482015260640161027d565b610ebe8533610eb986856138d9565b611dc7565b60019150505b9392505050565b6001600160a01b0381166000908152600960209081526040808320546001909252822054600160801b91610f1e91610f0f90600854610f0a919061387b565b611f48565b610f199190613802565b611fb2565b610f28919061385b565b90505b919050565b3360008181526002602090815260408083206001600160a01b03871684529091528120549091610e1f918590610eb9908690613843565b600f546001600160a01b03163314610f915760405162461bcd60e51b815260040161027d906136b3565b610f9b8282612004565b5050565b60006002600b541415610fc45760405162461bcd60e51b815260040161027d906136dd565b6002600b55610fe086610fd6816115dc565b3388888888612050565b6001600b559695505050505050565b600054610100900460ff1680611008575060005460ff16155b6110245760405162461bcd60e51b815260040161027d90613707565b600054610100900460ff16158015611046576000805461ffff19166101011790555b61104f856124a7565b61105a84848461251c565b601180546001600160a01b0319163317905560405146906110c7907f8b73c3c69bb8fe3d512ecc4cf759cc79239f7b179b0ffacaa9a75d522b39400f9087907fc89efdaa54c0f20c7adf612882df0950f5a951637e0307cdcb4c672f298b8bc69085903090602001613661565b60408051601f1981840301815291905280516020909101206010555080156110f5576000805461ff00191690555b5050505050565b6000611107336112fe565b9050801561119657336000908152600a60205260408120805483929061112e908490613843565b909155505060405181815233907fee503bee2bb6a87e57bc57db795f98137327401a0e7b7ce42e37926cc1a9ca4d9060200160405180910390a2806007600082825461117a91906138d9565b9091555050600654611196906001600160a01b031633836125b0565b50565b600f546001600160a01b031633146111c35760405162461bcd60e51b815260040161027d906136b3565b600f546040516000916001600160a01b0316907f8be0079c531659141344cd1fd0a4f28419497f9722a3daafe3b4186f6b6457e0908390a3600f80546001600160a01b0319169055565b6000610f28826112fe565b6112223384612680565b604080518481526020810183905283917fb76a0da8ff1f8c54a41e3017cf87c65fc8f03e38d23eb45d4e9a1a5d7635b4c0910160405180910390a2505050565b606060058054610a1d9061391c565b3360009081526002602090815260408083206001600160a01b0386168452909152812054828110156112e55760405162461bcd60e51b815260206004820152601a60248201527f53484f59553a20414c4c4f57414e43455f554e444552464c4f57000000000000604482015260640161027d565b6112f43385610eb986856138d9565b5060019392505050565b6001600160a01b0381166000908152600a602052604081205461132083610ecb565b610f2891906138d9565b6000610e1f338484611ec5565b60006002600b54141561135c5760405162461bcd60e51b815260040161027d906136dd565b6002600b55600061136c846115dc565b835190915081146113b75760405162461bcd60e51b81526020600482015260156024820152740a6909eb2aa7440aa9c9a82a886908a88be9082a69605b1b604482015260640161027d565b60208301516001600160a01b03166114095760405162461bcd60e51b815260206004820152601560248201527429a427acaa9d1024a72b20a624a22fa9a4a3a722a960591b604482015260640161027d565b61142f611415846126c3565b84602001518560c001518660e0015187610100015161197f565b611452848285602001518660400151876060015188608001518960a00151612050565b6001600b55949350505050565b600f546001600160a01b031633146114895760405162461bcd60e51b815260040161027d906136b3565b6001600160a01b0381166114df5760405162461bcd60e51b815260206004820152601860248201527f53484f59553a20494e56414c49445f4e45575f4f574e45520000000000000000604482015260640161027d565b600f546040516001600160a01b038084169216907f8be0079c531659141344cd1fd0a4f28419497f9722a3daafe3b4186f6b6457e090600090a3600f80546001600160a01b0319166001600160a01b0392909216919091179055565b60006001600160a01b03831661155c57506001600160a01b03811631610e23565b6040516370a0823160e01b81526001600160a01b0383811660048301528416906370a082319060240160206040518083038186803b15801561159d57600080fd5b505afa1580156115b1573d6000803e3d6000fd5b505050506040513d601f19601f820116820180604052508101906115d5919061358b565b9050610e23565b80516020808301516040808501516060860151608087015160a088015160c089015160e08a01516101008b01518051908a0120965160009a61169d9a7f17fdf8831f8bd77353b30f42ba9bc64e7144545a42a890389f298feeb45dec889a9199919897969594939201998a526001600160a01b0398891660208b015296881660408a01526060890195909552608088019390935290851660a0870152841660c086015290921660e08401526101008301919091526101208201526101400190565b604051602081830303815290604052805190602001209050919050565b6000818152600d602052604090205460ff161561170c5760405162461bcd60e51b815260206004820152601060248201526f14d213d6554e8810d05390d15313115160821b604482015260640161027d565b81516001600160a01b031661175a5760405162461bcd60e51b815260206004820152601460248201527329a427acaa9d1024a72b20a624a22fa6a0a5a2a960611b604482015260640161027d565b60208201516001600160a01b03166117a95760405162461bcd60e51b815260206004820152601260248201527114d213d6554e881253959053125117d3919560721b604482015260640161027d565b60008260600151116117f55760405162461bcd60e51b815260206004820152601560248201527414d213d6554e881253959053125117d05353d55395605a1b604482015260640161027d565b60808201516001600160a01b031661184f5760405162461bcd60e51b815260206004820152601760248201527f53484f59553a20494e56414c49445f5354524154454759000000000000000000604482015260640161027d565b60a08201516001600160a01b03166118a95760405162461bcd60e51b815260206004820152601760248201527f53484f59553a20494e56414c49445f43555252454e4359000000000000000000604482015260640161027d565b6011546001600160a01b03166080830151604051632666e89f60e21b81526001600160a01b03918216600482015291169063999ba27c9060240160206040518083038186803b1580156118fb57600080fd5b505afa15801561190f573d6000803e3d6000fd5b505050506040513d601f19601f8201168201806040525081019061193391906133af565b610f9b5760405162461bcd60e51b815260206004820152601f60248201527f53484f59553a2053545241544547595f4e4f545f57484954454c495354454400604482015260640161027d565b600061198a60105490565b60405161190160f01b60208201526022810191909152604281018790526062016040516020818303038152906040528051906020012090506119cc853b151590565b15611adc57604080516020810185905280820184905260f886901b6001600160f81b0319166060820152815160418183030181526061820192839052630b135d3f60e11b9092526001600160a01b03871691631626ba7e91611a32918591606501613648565b60206040518083038186803b158015611a4a57600080fd5b505afa158015611a5e573d6000803e3d6000fd5b505050506040513d601f19601f82011682018060405250810190611a8291906133e7565b6001600160e01b031916631626ba7e60e01b14611ad75760405162461bcd60e51b815260206004820152601360248201527214d213d6554e8815539055551213d492569151606a1b604482015260640161027d565b611b90565b60408051600081526020810180835283905260ff86169181019190915260608101849052608081018390526001600160a01b0386169060019060a0016020604051602081039080840390855afa158015611b3a573d6000803e3d6000fd5b505050602060405103516001600160a01b031614611b905760405162461bcd60e51b815260206004820152601360248201527214d213d6554e8815539055551213d492569151606a1b604482015260640161027d565b505050505050565b6000611ba68585308561274e565b611bb257506000611db4565b6000611bc66011546001600160a01b031690565b90506000839050600080836001600160a01b031663aec0b5436040518163ffffffff1660e01b8152600401604080518083038186803b158015611c0857600080fd5b505afa158015611c1c573d6000803e3d6000fd5b505050506040513d601f19601f82011682018060405250810190611c409190613381565b909250905060006103e8611c5760ff84168961387b565b611c61919061385b565b9050611c776001600160a01b038b168483612820565b611c8181856138d9565b9350505050600080836001600160a01b031663c2b11e186040518163ffffffff1660e01b8152600401604080518083038186803b158015611cc157600080fd5b505afa158015611cd5573d6000803e3d6000fd5b505050506040513d601f19601f82011682018060405250810190611cf99190613381565b909250905060006103e8611d1060ff84168961387b565b611d1a919061385b565b9050611d306001600160a01b038b168483612820565b611d3a81856138d9565b9350505050600080611d4b60008091565b909250905060ff80821614611d975760006103e8611d6c60ff84168661387b565b611d76919061385b565b90508015611d9557611d8881856138d9565b9350611d958a8483612872565b505b611dab6001600160a01b038a168885612820565b60019450505050505b949350505050565b6110f5848483611ec5565b6001600160a01b038316611e145760405162461bcd60e51b815260206004820152601460248201527329a427acaa9d1024a72b20a624a22fa7aba722a960611b604482015260640161027d565b6001600160a01b038216611e635760405162461bcd60e51b815260206004820152601660248201527529a427acaa9d1024a72b20a624a22fa9a822a72222a960511b604482015260640161027d565b6001600160a01b0383811660008181526002602090815260408083209487168084529482529182902085905590518481527f8c5be1e5ebec7d5bd14f71427d1e84f3dd0314c0f7b2291e5b200ac8c7c3b92591015b60405180910390a3505050565b611ed0838383612901565b6000611ee382600854610f0a919061387b565b6001600160a01b038516600090815260096020526040812080549293508392909190611f10908490613802565b90915550506001600160a01b03831660009081526009602052604081208054839290611f3d90849061389a565b909155505050505050565b6000600160ff1b8210611fae5760405162461bcd60e51b815260206004820152602860248201527f53616665436173743a2076616c756520646f65736e27742066697420696e2061604482015267371034b73a191a9b60c11b606482015260840161027d565b5090565b600080821215611fae5760405162461bcd60e51b815260206004820181905260248201527f53616665436173743a2076616c7565206d75737420626520706f736974697665604482015260640161027d565b61200e8282612aa8565b61201f81600854610f0a919061387b565b6001600160a01b0383166000908152600960205260408120805490919061204790849061389a565b90915550505050565b60208701516000906001600160a01b031630146120a95760405162461bcd60e51b815260206004820152601760248201527653484f59553a20494e56414c49445f45584348414e474560481b604482015260640161027d565b600085116120f15760405162461bcd60e51b815260206004820152601560248201527414d213d6554e881253959053125117d05353d55395605a1b604482015260640161027d565b6000878152600e6020526040902054606089015161210f8783613843565b111561214f5760405162461bcd60e51b815260206004820152600f60248201526e14d213d6554e8814d3d31117d3d555608a1b604482015260640161027d565b61215989896116ba565b612179888a600001518b61012001518c61014001518d610160015161197f565b88608001516001600160a01b031663e01be2638a60e001518b61010001518a896040518563ffffffff1660e01b81526004016121b89493929190613755565b60206040518083038186803b1580156121d057600080fd5b505afa1580156121e4573d6000803e3d6000fd5b505050506040513d601f19601f8201168201806040525081019061220891906133af565b15612314576122178682613843565b6000898152600e602052604090205560c08901516001600160a01b03811661223d575088515b60a08a0151612252908983610cba8b8b61387b565b61229e5760405162461bcd60e51b815260206004820152601f60248201527f53484f59553a204641494c45445f544f5f5452414e534645525f46554e445300604482015260640161027d565b6001600160a01b0385166122b0578794505b6122c98a602001518b60000151878d604001518b611dbc565b887f72fd87c5ad3903eb05815544ef7ea4640a18e631c9c02eb099c810834f8235558989898989604051612301959493929190613616565b60405180910390a260019250505061249c565b6000888152600c60205260409081902060808b015160e08c01516101008d0151600284015460058501549551633140c34d60e11b815294956001600160a01b0390941694636281869a946123719493928f928e929060040161378a565b60206040518083038186803b15801561238957600080fd5b505afa15801561239d573d6000803e3d6000fd5b505050506040513d601f19601f820116820180604052508101906123c191906133af565b156124625780546001600160a01b03808a166001600160a01b031992831617835560018301899055600283018890556003830180548883169084161790556004830180549187169190921617905543600582015560405189907f4055f76fe1f351fec66b9ba790ddbdc29eb45c038163a6b1327277441a8c65f19061244f908b908b908b908b908b90613616565b60405180910390a260009250505061249c565b5060405162461bcd60e51b815260206004820152600e60248201526d53484f59553a204641494c55524560901b604482015260640161027d565b979650505050505050565b600054610100900460ff16806124c0575060005460ff16155b6124dc5760405162461bcd60e51b815260040161027d90613707565b600054610100900460ff161580156124fe576000805461ffff19166101011790555b61250782612b80565b8015610f9b576000805461ff00191690555050565b600054610100900460ff1680612535575060005460ff16155b6125515760405162461bcd60e51b815260040161027d90613707565b600054610100900460ff16158015612573576000805461ffff19166101011790555b61257d8484612c35565b600680546001600160a01b0319166001600160a01b03841617905580156125aa576000805461ff00191690555b50505050565b6001600160a01b038316612667576000826001600160a01b03168260405160006040518083038185875af1925050503d806000811461260b576040519150601f19603f3d011682016040523d82523d6000602084013e612610565b606091505b50509050806126615760405162461bcd60e51b815260206004820152601760248201527f53484f59553a205452414e534645525f4641494c555245000000000000000000604482015260640161027d565b5061267b565b61267b6001600160a01b0384168383612820565b505050565b61268a8282612cac565b61269b81600854610f0a919061387b565b6001600160a01b03831660009081526009602052604081208054909190612047908490613802565b80516020808301516040808501516060860151608087015160a0880151935160009761169d977fb98e1dc48988064e6dfb813618609d7da80a8841e5f277039788ac4b50d497b297919691959493920196875260208701959095526001600160a01b03938416604087015260608601929092526080850152811660a08401521660c082015260e00190565b604080516001600160a01b0385811660248301528481166044830152606480830185905283518084039091018152608490920183526020820180516001600160e01b03166323b872dd60e01b179052915160009283928392918916916127b491906135fa565b6000604051808303816000865af19150503d80600081146127f1576040519150601f19603f3d011682016040523d82523d6000602084013e6127f6565b606091505b509150915081801561249c57508051158061249c57508080602001905181019061249c91906133af565b604080516001600160a01b038416602482015260448082018490528251808303909101815260649091019091526020810180516001600160e01b031663a9059cbb60e01b17905261267b908490612ddf565b6128866001600160a01b0384168383612820565b813b1561267b57816001600160a01b031663fff6cae96040518163ffffffff1660e01b8152600401602060405180830381600087803b1580156128c857600080fd5b505af19250505080156128f8575060408051601f3d908101601f191682019092526128f59181019061358b565b60015b6125aa5761267b565b6001600160a01b03831661294f5760405162461bcd60e51b815260206004820152601560248201527429a427acaa9d1024a72b20a624a22fa9a2a72222a960591b604482015260640161027d565b6001600160a01b0382166129a55760405162461bcd60e51b815260206004820152601860248201527f53484f59553a20494e56414c49445f524543495049454e540000000000000000604482015260640161027d565b6001600160a01b03831660009081526001602052604090205481811015612a0e5760405162461bcd60e51b815260206004820152601b60248201527f53484f59553a20494e53554646494349454e545f42414c414e43450000000000604482015260640161027d565b612a1882826138d9565b6001600160a01b038086166000908152600160205260408082209390935590851681529081208054849290612a4e908490613843565b92505081905550826001600160a01b0316846001600160a01b03167fddf252ad1be2c89b69c2b068fc378daa952ba7f163c4a11628f55a4df523b3ef84604051612a9a91815260200190565b60405180910390a350505050565b6001600160a01b038216612af75760405162461bcd60e51b815260206004820152601660248201527514d213d6554e881253959053125117d050d0d3d5539560521b604482015260640161027d565b8060036000828254612b099190613843565b90915550506001600160a01b03821660009081526001602052604081208054839290612b36908490613843565b90915550506040518181526001600160a01b038316906000907fddf252ad1be2c89b69c2b068fc378daa952ba7f163c4a11628f55a4df523b3ef9060200160405180910390a35050565b600054610100900460ff1680612b99575060005460ff16155b612bb55760405162461bcd60e51b815260040161027d90613707565b600054610100900460ff16158015612bd7576000805461ffff19166101011790555b600f80546001600160a01b0319166001600160a01b0384169081179091556040516000907f8be0079c531659141344cd1fd0a4f28419497f9722a3daafe3b4186f6b6457e0908290a38015610f9b576000805461ff00191690555050565b600054610100900460ff1680612c4e575060005460ff16155b612c6a5760405162461bcd60e51b815260040161027d90613707565b600054610100900460ff16158015612c8c576000805461ffff19166101011790555b612c968383612eb1565b801561267b576000805461ff0019169055505050565b6001600160a01b038216612cfb5760405162461bcd60e51b815260206004820152601660248201527514d213d6554e881253959053125117d050d0d3d5539560521b604482015260640161027d565b6001600160a01b03821660009081526001602052604090205481811015612d645760405162461bcd60e51b815260206004820152601b60248201527f53484f59553a20494e53554646494349454e545f42414c414e43450000000000604482015260640161027d565b612d6e82826138d9565b6001600160a01b03841660009081526001602052604081209190915560038054849290612d9c9084906138d9565b90915550506040518281526000906001600160a01b038516907fddf252ad1be2c89b69c2b068fc378daa952ba7f163c4a11628f55a4df523b3ef90602001611eb8565b6000612e34826040518060400160405280602081526020017f5361666545524332303a206c6f772d6c6576656c2063616c6c206661696c6564815250856001600160a01b0316612f469092919063ffffffff16565b80519091501561267b5780806020019051810190612e5291906133af565b61267b5760405162461bcd60e51b815260206004820152602a60248201527f5361666545524332303a204552433230206f7065726174696f6e20646964206e6044820152691bdd081cdd58d8d9595960b21b606482015260840161027d565b600054610100900460ff1680612eca575060005460ff16155b612ee65760405162461bcd60e51b815260040161027d90613707565b600054610100900460ff16158015612f08576000805461ffff19166101011790555b8251612f1b906004906020860190613041565b508151612f2f906005906020850190613041565b50801561267b576000805461ff0019169055505050565b6060611db4848460008585843b612f9f5760405162461bcd60e51b815260206004820152601d60248201527f416464726573733a2063616c6c20746f206e6f6e2d636f6e7472616374000000604482015260640161027d565b600080866001600160a01b03168587604051612fbb91906135fa565b60006040518083038185875af1925050503d8060008114612ff8576040519150601f19603f3d011682016040523d82523d6000602084013e612ffd565b606091505b509150915061249c82828660608315613017575081610ec4565b8251156130275782518084602001fd5b8160405162461bcd60e51b815260040161027d91906136a0565b82805461304d9061391c565b90600052602060002090601f01602090048101928261306f57600085556130b5565b82601f1061308857805160ff19168380011785556130b5565b828001600101855582156130b5579182015b828111156130b557825182559160200191906001019061309a565b50611fae9291505b80821115611fae57600081556001016130bd565b8035610f2b81613983565b600082601f8301126130ec578081fd5b813567ffffffffffffffff8111156131065761310661396d565b613119601f8201601f19166020016137d1565b81815284602083860101111561312d578283fd5b816020850160208301379081016020019190915292915050565b600061018080838503121561315a578182fd5b613163816137d1565b91505061316f826130d1565b815261317d602083016130d1565b602082015260408201356040820152606082013560608201526131a2608083016130d1565b60808201526131b360a083016130d1565b60a08201526131c460c083016130d1565b60c082015260e082013560e08201526101008083013567ffffffffffffffff8111156131ef57600080fd5b6131fb858286016130dc565b82840152505061012061320f818401613231565b9082015261014082810135908201526101609182013591810191909152919050565b8035610f2b81613998565b60006020828403121561324d578081fd5b8135610ec481613983565b6000806040838503121561326a578081fd5b823561327581613983565b9150602083013561328581613983565b809150509250929050565b6000806000606084860312156132a4578081fd5b83356132af81613983565b925060208401356132bf81613983565b929592945050506040919091013590565b600080600080608085870312156132e5578081fd5b84356132f081613983565b9350602085013567ffffffffffffffff8082111561330c578283fd5b613318888389016130dc565b9450604087013591508082111561332d578283fd5b5061333a878288016130dc565b925050606085013561334b81613983565b939692955090935050565b60008060408385031215613368578182fd5b823561337381613983565b946020939093013593505050565b60008060408385031215613393578182fd5b825161339e81613983565b602084015190925061328581613998565b6000602082840312156133c0578081fd5b81518015158114610ec4578182fd5b6000602082840312156133e0578081fd5b5035919050565b6000602082840312156133f8578081fd5b81516001600160e01b031981168114610ec4578182fd5b600060208284031215613420578081fd5b813567ffffffffffffffff811115613436578182fd5b611db484828501613147565b600080828403610140811215613456578283fd5b833567ffffffffffffffff81111561346c578384fd5b61347886828701613147565b93505061012080601f198301121561348e578283fd5b613497816137d1565b9150602085013582526134ac604086016130d1565b602083015260608501356040830152608085013560608301526134d160a086016130d1565b60808301526134e260c086016130d1565b60a08301526134f360e08601613231565b60c08301526101008581013560e0840152940135938101939093525092909150565b600080600080600060a0868803121561352c578283fd5b853567ffffffffffffffff811115613542578384fd5b61354e88828901613147565b9550506020860135935060408601359250606086013561356d81613983565b9150608086013561357d81613983565b809150509295509295909350565b60006020828403121561359c578081fd5b5051919050565b6000806000606084860312156135b7578081fd5b505081359360208301359350604090920135919050565b600081518084526135e68160208601602086016138f0565b601f01601f19169290920160200192915050565b6000825161360c8184602087016138f0565b9190910192915050565b6001600160a01b0395861681526020810194909452604084019290925283166060830152909116608082015260a00190565b600083825260406020830152611db460408301846135ce565b600086825260a0602083015261367a60a08301876135ce565b60408301959095525060608101929092526001600160a01b031660809091015292915050565b600060208252610ec460208301846135ce565b60208082526010908201526f29a427acaa9d102327a92124a22222a760811b604082015260600190565b60208082526010908201526f14d213d6554e8814915153951490539560821b604082015260600190565b6020808252602e908201527f496e697469616c697a61626c653a20636f6e747261637420697320616c72656160408201526d191e481a5b9a5d1a585b1a5e995960921b606082015260800190565b60008582526080602083015261376e60808301866135ce565b6001600160a01b03949094166040830152506060015292915050565b600087825260c060208301526137a360c08301886135ce565b6001600160a01b03969096166040830152506060810193909352608083019190915260a09091015292915050565b604051601f8201601f1916810167ffffffffffffffff811182821017156137fa576137fa61396d565b604052919050565b600080821280156001600160ff1b038490038513161561382457613824613957565b600160ff1b839003841281161561383d5761383d613957565b50500190565b6000821982111561385657613856613957565b500190565b60008261387657634e487b7160e01b81526012600452602481fd5b500490565b600081600019048311821515161561389557613895613957565b500290565b60008083128015600160ff1b8501841216156138b8576138b8613957565b6001600160ff1b03840183138116156138d3576138d3613957565b50500390565b6000828210156138eb576138eb613957565b500390565b60005b8381101561390b5781810151838201526020016138f3565b838111156125aa5750506000910152565b600181811c9082168061393057607f821691505b6020821081141561395157634e487b7160e01b600052602260045260246000fd5b50919050565b634e487b7160e01b600052601160045260246000fd5b634e487b7160e01b600052604160045260246000fd5b6001600160a01b038116811461119657600080fd5b60ff8116811461119657600080fdfea2646970667358221220e652364de952a2fccb883ad7b9e3c037465a1ef013f3da20e2a8d76f580a11c164736f6c63430008030033",
  "devdoc": {
    "kind": "dev",
    "methods": {
      "accumulativeDividendOf(address)": {
        "details": "accumulativeDividendOf(account) = withdrawableDividendOf(account) + withdrawnDividendOf(account) = (magnifiedDividendPerShare * balanceOf(account) + magnifiedDividendCorrections[account]) / magnitude",
        "params": {
          "account": "The address of a token holder."
        },
        "returns": {
          "_0": "The amount of dividend in wei that `account` has earned in total."
        }
      },
      "allowance(address,address)": {
        "details": "See {IERC20-allowance}."
      },
      "approve(address,uint256)": {
        "details": "See {IERC20-approve}. Requirements: - `spender` cannot be the zero address."
      },
      "balanceOf(address)": {
        "details": "See {IERC20-balanceOf}."
      },
      "decimals()": {
        "details": "Returns the number of decimals used to get its user representation. For example, if `decimals` equals `2`, a balance of `505` tokens should be displayed to a user as `5,05` (`505 / 10 ** 2`). Tokens usually opt for a value of 18, imitating the relationship between Ether and Wei. This is the value {ERC20} uses, unless this function is overridden; NOTE: This information is only used for _display_ purposes: it in no way affects any of the arithmetic of the contract, including {IERC20-balanceOf} and {IERC20-transfer}."
      },
      "decreaseAllowance(address,uint256)": {
        "details": "Atomically decreases the allowance granted to `spender` by the caller. This is an alternative to {approve} that can be used as a mitigation for problems described in {IERC20-approve}. Emits an {Approval} event indicating the updated allowance. Requirements: - `spender` cannot be the zero address. - `spender` must have allowance for the caller of at least `subtractedValue`."
      },
      "dividendOf(address)": {
        "params": {
          "account": "The address of a token holder."
        },
        "returns": {
          "_0": "The amount of dividend in wei that `account` can withdraw."
        }
      },
      "increaseAllowance(address,uint256)": {
        "details": "Atomically increases the allowance granted to `spender` by the caller. This is an alternative to {approve} that can be used as a mitigation for problems described in {IERC20-approve}. Emits an {Approval} event indicating the updated allowance. Requirements: - `spender` cannot be the zero address."
      },
      "name()": {
        "details": "Returns the name of the token."
      },
      "owner()": {
        "details": "Returns the address of the current owner."
      },
      "renounceOwnership()": {
        "details": "Leaves the contract without owner. It will not be possible to call `onlyOwner` functions anymore. Can only be called by the current owner. NOTE: Renouncing ownership will leave the contract without an owner, thereby removing any functionality that is only available to the owner."
      },
      "symbol()": {
        "details": "Returns the symbol of the token, usually a shorter version of the name."
      },
      "sync()": {
        "details": "It reverts if the total supply of tokens is 0.",
        "returns": {
          "increased": "The amount of total dividend increased It emits the `Sync` event if the amount of received ether/erc20 is greater than 0. About undistributed ether/erc20:   In each distribution, there is a small amount of ether/erc20 not distributed,     the magnified amount of which is     `(msg.value * magnitude) % totalSupply()`.   With a well-chosen `magnitude`, the amount of undistributed ether/erc20     (de-magnified) in a distribution can be less than 1 wei.   We can actually keep track of the undistributed ether/erc20 in a distribution     and try to distribute it in the next distribution,     but keeping track of such data on-chain costs much more than     the saved ether/erc20, so we don't do that."
        }
      },
      "totalSupply()": {
        "details": "See {IERC20-totalSupply}."
      },
      "transfer(address,uint256)": {
        "details": "See {IERC20-transfer}. Requirements: - `recipient` cannot be the zero address. - the caller must have a balance of at least `amount`."
      },
      "transferFrom(address,address,uint256)": {
        "details": "See {IERC20-transferFrom}. Emits an {Approval} event indicating the updated allowance. This is not required by the EIP. See the note at the beginning of {ERC20}. Requirements: - `sender` and `recipient` cannot be the zero address. - `sender` must have a balance of at least `amount`. - the caller must have allowance for ``sender``'s tokens of at least `amount`."
      },
      "transferOwnership(address)": {
        "details": "Transfers ownership of the contract to a new account (`newOwner`). Can only be called by the current owner."
      },
      "withdrawDividend()": {
        "details": "It emits a `DividendWithdrawn` event if the amount of withdrawn ether/erc20 is greater than 0."
      },
      "withdrawableDividendOf(address)": {
        "params": {
          "account": "The address of a token holder."
        },
        "returns": {
          "_0": "The amount of dividend in wei that `account` can withdraw."
        }
      },
      "withdrawnDividendOf(address)": {
        "params": {
          "account": "The address of a token holder."
        },
        "returns": {
          "_0": "The amount of dividend in wei that `account` has withdrawn."
        }
      }
    },
    "version": 1
  },
  "userdoc": {
    "kind": "user",
    "methods": {
      "accumulativeDividendOf(address)": {
        "notice": "View the amount of dividend in wei that an address has earned in total."
      },
      "dividendOf(address)": {
        "notice": "View the amount of dividend in wei that an address can withdraw."
      },
      "sync()": {
        "notice": "Syncs the amount of ether/erc20 increased to token holders as dividends."
      },
      "withdrawDividend()": {
        "notice": "Withdraws the ether/erc20 distributed to the sender."
      },
      "withdrawableDividendOf(address)": {
        "notice": "View the amount of dividend in wei that an address can withdraw."
      },
      "withdrawnDividendOf(address)": {
        "notice": "View the amount of dividend in wei that an address has withdrawn."
      }
    },
    "version": 1
  },
  "storageLayout": {
    "storage": [
      {
        "astId": 115,
        "contract": "contracts/SocialTokenV0.sol:SocialTokenV0",
        "label": "_initialized",
        "offset": 0,
        "slot": "0",
        "type": "t_bool"
      },
      {
        "astId": 118,
        "contract": "contracts/SocialTokenV0.sol:SocialTokenV0",
        "label": "_initializing",
        "offset": 1,
        "slot": "0",
        "type": "t_bool"
      },
      {
        "astId": 8547,
        "contract": "contracts/SocialTokenV0.sol:SocialTokenV0",
        "label": "_balances",
        "offset": 0,
        "slot": "1",
        "type": "t_mapping(t_address,t_uint256)"
      },
      {
        "astId": 8553,
        "contract": "contracts/SocialTokenV0.sol:SocialTokenV0",
        "label": "_allowances",
        "offset": 0,
        "slot": "2",
        "type": "t_mapping(t_address,t_mapping(t_address,t_uint256))"
      },
      {
        "astId": 8555,
        "contract": "contracts/SocialTokenV0.sol:SocialTokenV0",
        "label": "_totalSupply",
        "offset": 0,
        "slot": "3",
        "type": "t_uint256"
      },
      {
        "astId": 8557,
        "contract": "contracts/SocialTokenV0.sol:SocialTokenV0",
        "label": "_name",
        "offset": 0,
        "slot": "4",
        "type": "t_string_storage"
      },
      {
        "astId": 8559,
        "contract": "contracts/SocialTokenV0.sol:SocialTokenV0",
        "label": "_symbol",
        "offset": 0,
        "slot": "5",
        "type": "t_string_storage"
      },
      {
        "astId": 7120,
        "contract": "contracts/SocialTokenV0.sol:SocialTokenV0",
        "label": "dividendToken",
        "offset": 0,
        "slot": "6",
        "type": "t_address"
      },
      {
        "astId": 7123,
        "contract": "contracts/SocialTokenV0.sol:SocialTokenV0",
        "label": "totalDividend",
        "offset": 0,
        "slot": "7",
        "type": "t_uint256"
      },
      {
        "astId": 7125,
        "contract": "contracts/SocialTokenV0.sol:SocialTokenV0",
        "label": "magnifiedDividendPerShare",
        "offset": 0,
        "slot": "8",
        "type": "t_uint256"
      },
      {
        "astId": 7150,
        "contract": "contracts/SocialTokenV0.sol:SocialTokenV0",
        "label": "magnifiedDividendCorrections",
        "offset": 0,
        "slot": "9",
        "type": "t_mapping(t_address,t_int256)"
      },
      {
        "astId": 7154,
        "contract": "contracts/SocialTokenV0.sol:SocialTokenV0",
        "label": "withdrawnDividends",
        "offset": 0,
        "slot": "10",
        "type": "t_mapping(t_address,t_uint256)"
      },
      {
        "astId": 10481,
        "contract": "contracts/SocialTokenV0.sol:SocialTokenV0",
        "label": "_status",
        "offset": 0,
        "slot": "11",
        "type": "t_uint256"
      },
      {
        "astId": 4975,
        "contract": "contracts/SocialTokenV0.sol:SocialTokenV0",
        "label": "bestBid",
        "offset": 0,
        "slot": "12",
        "type": "t_mapping(t_bytes32,t_struct(BestBid)4969_storage)"
      },
      {
        "astId": 4980,
        "contract": "contracts/SocialTokenV0.sol:SocialTokenV0",
        "label": "isCancelled",
        "offset": 0,
        "slot": "13",
        "type": "t_mapping(t_bytes32,t_bool)"
      },
      {
        "astId": 4985,
        "contract": "contracts/SocialTokenV0.sol:SocialTokenV0",
        "label": "amountFilled",
        "offset": 0,
        "slot": "14",
        "type": "t_mapping(t_bytes32,t_uint256)"
      },
      {
        "astId": 10301,
        "contract": "contracts/SocialTokenV0.sol:SocialTokenV0",
        "label": "_owner",
        "offset": 0,
        "slot": "15",
        "type": "t_address"
      },
      {
        "astId": 3875,
        "contract": "contracts/SocialTokenV0.sol:SocialTokenV0",
        "label": "_DOMAIN_SEPARATOR",
        "offset": 0,
        "slot": "16",
        "type": "t_bytes32"
      },
      {
        "astId": 3877,
        "contract": "contracts/SocialTokenV0.sol:SocialTokenV0",
        "label": "_factory",
        "offset": 0,
        "slot": "17",
        "type": "t_address"
      }
    ],
    "types": {
      "t_address": {
        "encoding": "inplace",
        "label": "address",
        "numberOfBytes": "20"
      },
      "t_bool": {
        "encoding": "inplace",
        "label": "bool",
        "numberOfBytes": "1"
      },
      "t_bytes32": {
        "encoding": "inplace",
        "label": "bytes32",
        "numberOfBytes": "32"
      },
      "t_int256": {
        "encoding": "inplace",
        "label": "int256",
        "numberOfBytes": "32"
      },
      "t_mapping(t_address,t_int256)": {
        "encoding": "mapping",
        "key": "t_address",
        "label": "mapping(address => int256)",
        "numberOfBytes": "32",
        "value": "t_int256"
      },
      "t_mapping(t_address,t_mapping(t_address,t_uint256))": {
        "encoding": "mapping",
        "key": "t_address",
        "label": "mapping(address => mapping(address => uint256))",
        "numberOfBytes": "32",
        "value": "t_mapping(t_address,t_uint256)"
      },
      "t_mapping(t_address,t_uint256)": {
        "encoding": "mapping",
        "key": "t_address",
        "label": "mapping(address => uint256)",
        "numberOfBytes": "32",
        "value": "t_uint256"
      },
      "t_mapping(t_bytes32,t_bool)": {
        "encoding": "mapping",
        "key": "t_bytes32",
        "label": "mapping(bytes32 => bool)",
        "numberOfBytes": "32",
        "value": "t_bool"
      },
      "t_mapping(t_bytes32,t_struct(BestBid)4969_storage)": {
        "encoding": "mapping",
        "key": "t_bytes32",
        "label": "mapping(bytes32 => struct BaseExchange.BestBid)",
        "numberOfBytes": "32",
        "value": "t_struct(BestBid)4969_storage"
      },
      "t_mapping(t_bytes32,t_uint256)": {
        "encoding": "mapping",
        "key": "t_bytes32",
        "label": "mapping(bytes32 => uint256)",
        "numberOfBytes": "32",
        "value": "t_uint256"
      },
      "t_string_storage": {
        "encoding": "bytes",
        "label": "string",
        "numberOfBytes": "32"
      },
      "t_struct(BestBid)4969_storage": {
        "encoding": "inplace",
        "label": "struct BaseExchange.BestBid",
        "members": [
          {
            "astId": 4958,
            "contract": "contracts/SocialTokenV0.sol:SocialTokenV0",
            "label": "bidder",
            "offset": 0,
            "slot": "0",
            "type": "t_address"
          },
          {
            "astId": 4960,
            "contract": "contracts/SocialTokenV0.sol:SocialTokenV0",
            "label": "amount",
            "offset": 0,
            "slot": "1",
            "type": "t_uint256"
          },
          {
            "astId": 4962,
            "contract": "contracts/SocialTokenV0.sol:SocialTokenV0",
            "label": "price",
            "offset": 0,
            "slot": "2",
            "type": "t_uint256"
          },
          {
            "astId": 4964,
            "contract": "contracts/SocialTokenV0.sol:SocialTokenV0",
            "label": "recipient",
            "offset": 0,
            "slot": "3",
            "type": "t_address"
          },
          {
            "astId": 4966,
            "contract": "contracts/SocialTokenV0.sol:SocialTokenV0",
            "label": "referrer",
            "offset": 0,
            "slot": "4",
            "type": "t_address"
          },
          {
            "astId": 4968,
            "contract": "contracts/SocialTokenV0.sol:SocialTokenV0",
            "label": "blockNumber",
            "offset": 0,
            "slot": "5",
            "type": "t_uint256"
          }
        ],
        "numberOfBytes": "192"
      },
      "t_uint256": {
        "encoding": "inplace",
        "label": "uint256",
        "numberOfBytes": "32"
      }
    }
  }
}